{"abi":[{"type":"function","name":"getBatchReceiver","inputs":[{"name":"batchId","type":"bytes32","internalType":"bytes32"}],"outputs":[{"name":"","type":"address","internalType":"address"}],"stateMutability":"view"},{"type":"function","name":"getCurrentBatchId","inputs":[],"outputs":[{"name":"","type":"uint256","internalType":"uint256"}],"stateMutability":"view"},{"type":"function","name":"initialize","inputs":[{"name":"","type":"address","internalType":"address"},{"name":"","type":"address","internalType":"address"},{"name":"","type":"address","internalType":"address"},{"name":"","type":"address","internalType":"address"},{"name":"","type":"address","internalType":"address"}],"outputs":[],"stateMutability":"nonpayable"},{"type":"function","name":"isBatchSettled","inputs":[{"name":"batchId","type":"bytes32","internalType":"bytes32"}],"outputs":[{"name":"","type":"bool","internalType":"bool"}],"stateMutability":"view"},{"type":"function","name":"mockIncrementBatchId","inputs":[],"outputs":[],"stateMutability":"nonpayable"},{"type":"function","name":"mockSetBatchReceiver","inputs":[{"name":"batchId","type":"bytes32","internalType":"bytes32"},{"name":"receiver","type":"address","internalType":"address"}],"outputs":[],"stateMutability":"nonpayable"},{"type":"function","name":"mockSetBatchSettled","inputs":[{"name":"batchId","type":"bytes32","internalType":"bytes32"},{"name":"settled","type":"bool","internalType":"bool"}],"outputs":[],"stateMutability":"nonpayable"},{"type":"function","name":"updateBatchInfo","inputs":[{"name":"batchId","type":"bytes32","internalType":"bytes32"},{"name":"receiver","type":"address","internalType":"address"},{"name":"","type":"int256","internalType":"int256"}],"outputs":[],"stateMutability":"nonpayable"}],"bytecode":{"object":"0x6080806040523460195760015f5561036f908161001e8239f35b5f80fdfe60806040526004361015610011575f80fd5b5f3560e01c80630220380c146102215780631459457a146101e45780631516a8c8146101b557806318b19ba71461019a57806325199c911461013e57806353227fcb146100d1578063befe3170146100915763e720ac8e14610071575f80fd5b3461008d575f60031936011261008d5760205f54604051908152f35b5f80fd5b3461008d57602060031936011261008d576004355f526002602052602073ffffffffffffffffffffffffffffffffffffffff60405f205416604051908152f35b3461008d575f60031936011261008d575f547fffffffffffffffffffffffffffffffffffffffffffffffffffffffffffffffff8114610111576001015f55005b7f4e487b71000000000000000000000000000000000000000000000000000000005f52601160045260245ffd5b3461008d57604060031936011261008d5760243580151580910361008d576004355f52600160205260405f209060ff7fffffffffffffffffffffffffffffffffffffffffffffffffffffffffffffff0083541691161790555f80f35b3461008d57606060031936011261008d576101b361028a565b005b3461008d57602060031936011261008d576004355f526001602052602060ff60405f2054166040519015158152f35b3461008d5760a060031936011261008d576101fd6102ad565b5061020661028a565b5061020f6102d0565b506102186102f3565b506101b3610316565b3461008d57604060031936011261008d5761023a61028a565b6004355f52600260205273ffffffffffffffffffffffffffffffffffffffff60405f2091167fffffffffffffffffffffffff00000000000000000000000000000000000000008254161790555f80f35b6024359073ffffffffffffffffffffffffffffffffffffffff8216820361008d57565b6004359073ffffffffffffffffffffffffffffffffffffffff8216820361008d57565b6044359073ffffffffffffffffffffffffffffffffffffffff8216820361008d57565b6064359073ffffffffffffffffffffffffffffffffffffffff8216820361008d57565b6084359073ffffffffffffffffffffffffffffffffffffffff8216820361008d5756fea26469706673582212204faeb5d95002fe9a2a4a7fd601989272e20754c31c1ccd2be7770f445ba489a064736f6c634300081e0033","linkReferences":{}},"methodIdentifiers":{"getBatchReceiver(bytes32)":"befe3170","getCurrentBatchId()":"e720ac8e","initialize(address,address,address,address,address)":"1459457a","isBatchSettled(bytes32)":"1516a8c8","mockIncrementBatchId()":"53227fcb","mockSetBatchReceiver(bytes32,address)":"0220380c","mockSetBatchSettled(bytes32,bool)":"25199c91","updateBatchInfo(bytes32,address,int256)":"18b19ba7"},"storageLayout":{"storage":[{"astId":68140,"contract":"test/mocks/MockkBatch.sol:MockkBatch","label":"_currentBatchId","offset":0,"slot":"0","type":"t_uint256"},{"astId":68144,"contract":"test/mocks/MockkBatch.sol:MockkBatch","label":"_batchSettled","offset":0,"slot":"1","type":"t_mapping(t_bytes32,t_bool)"},{"astId":68148,"contract":"test/mocks/MockkBatch.sol:MockkBatch","label":"_batchReceivers","offset":0,"slot":"2","type":"t_mapping(t_bytes32,t_address)"}],"types":{"t_address":{"encoding":"inplace","label":"address","numberOfBytes":"20"},"t_bool":{"encoding":"inplace","label":"bool","numberOfBytes":"1"},"t_bytes32":{"encoding":"inplace","label":"bytes32","numberOfBytes":"32"},"t_mapping(t_bytes32,t_address)":{"encoding":"mapping","key":"t_bytes32","label":"mapping(bytes32 => address)","numberOfBytes":"32","value":"t_address"},"t_mapping(t_bytes32,t_bool)":{"encoding":"mapping","key":"t_bytes32","label":"mapping(bytes32 => bool)","numberOfBytes":"32","value":"t_bool"},"t_uint256":{"encoding":"inplace","label":"uint256","numberOfBytes":"32"}}},"id":96}