{"abi":[{"type":"function","name":"cancelOwnershipHandover","inputs":[],"outputs":[],"stateMutability":"payable"},{"type":"function","name":"completeOwnershipHandover","inputs":[{"name":"pendingOwner","type":"address","internalType":"address"}],"outputs":[],"stateMutability":"payable"},{"type":"function","name":"getProcess","inputs":[{"name":"processId","type":"bytes32","internalType":"bytes32"}],"outputs":[{"name":"targets","type":"address[]","internalType":"address[]"},{"name":"selectors_","type":"bytes4[]","internalType":"bytes4[]"}],"stateMutability":"view"},{"type":"function","name":"getfunctionSelector","inputs":[{"name":"functionSignature","type":"string","internalType":"string"}],"outputs":[{"name":"selector","type":"bytes4","internalType":"bytes4"}],"stateMutability":"pure"},{"type":"function","name":"grantRoles","inputs":[{"name":"user","type":"address","internalType":"address"},{"name":"roles","type":"uint256","internalType":"uint256"}],"outputs":[],"stateMutability":"payable"},{"type":"function","name":"hasAllRoles","inputs":[{"name":"user","type":"address","internalType":"address"},{"name":"roles","type":"uint256","internalType":"uint256"}],"outputs":[{"name":"","type":"bool","internalType":"bool"}],"stateMutability":"view"},{"type":"function","name":"hasAnyRole","inputs":[{"name":"user","type":"address","internalType":"address"},{"name":"roles","type":"uint256","internalType":"uint256"}],"outputs":[{"name":"","type":"bool","internalType":"bool"}],"stateMutability":"view"},{"type":"function","name":"owner","inputs":[],"outputs":[{"name":"result","type":"address","internalType":"address"}],"stateMutability":"view"},{"type":"function","name":"ownershipHandoverExpiresAt","inputs":[{"name":"pendingOwner","type":"address","internalType":"address"}],"outputs":[{"name":"result","type":"uint256","internalType":"uint256"}],"stateMutability":"view"},{"type":"function","name":"renounceOwnership","inputs":[],"outputs":[],"stateMutability":"payable"},{"type":"function","name":"renounceRoles","inputs":[{"name":"roles","type":"uint256","internalType":"uint256"}],"outputs":[],"stateMutability":"payable"},{"type":"function","name":"requestOwnershipHandover","inputs":[],"outputs":[],"stateMutability":"payable"},{"type":"function","name":"revokeRoles","inputs":[{"name":"user","type":"address","internalType":"address"},{"name":"roles","type":"uint256","internalType":"uint256"}],"outputs":[],"stateMutability":"payable"},{"type":"function","name":"rolesOf","inputs":[{"name":"user","type":"address","internalType":"address"}],"outputs":[{"name":"roles","type":"uint256","internalType":"uint256"}],"stateMutability":"view"},{"type":"function","name":"selectors","inputs":[],"outputs":[{"name":"moduleSelectors","type":"bytes4[]","internalType":"bytes4[]"}],"stateMutability":"pure"},{"type":"function","name":"setPaused","inputs":[{"name":"paused_","type":"bool","internalType":"bool"}],"outputs":[],"stateMutability":"nonpayable"},{"type":"function","name":"setProcessId","inputs":[{"name":"processId","type":"bytes32","internalType":"bytes32"},{"name":"targets","type":"address[]","internalType":"address[]"},{"name":"selectors_","type":"bytes4[]","internalType":"bytes4[]"}],"outputs":[],"stateMutability":"nonpayable"},{"type":"function","name":"transferOwnership","inputs":[{"name":"newOwner","type":"address","internalType":"address"}],"outputs":[],"stateMutability":"payable"},{"type":"event","name":"OwnershipHandoverCanceled","inputs":[{"name":"pendingOwner","type":"address","indexed":true,"internalType":"address"}],"anonymous":false},{"type":"event","name":"OwnershipHandoverRequested","inputs":[{"name":"pendingOwner","type":"address","indexed":true,"internalType":"address"}],"anonymous":false},{"type":"event","name":"OwnershipTransferred","inputs":[{"name":"oldOwner","type":"address","indexed":true,"internalType":"address"},{"name":"newOwner","type":"address","indexed":true,"internalType":"address"}],"anonymous":false},{"type":"event","name":"Paused","inputs":[{"name":"paused_","type":"bool","indexed":false,"internalType":"bool"}],"anonymous":false},{"type":"event","name":"RolesUpdated","inputs":[{"name":"user","type":"address","indexed":true,"internalType":"address"},{"name":"roles","type":"uint256","indexed":true,"internalType":"uint256"}],"anonymous":false},{"type":"error","name":"AlreadyInitialized","inputs":[]},{"type":"error","name":"NewOwnerIsZeroAddress","inputs":[]},{"type":"error","name":"NoHandoverRequest","inputs":[]},{"type":"error","name":"Unauthorized","inputs":[]}],"bytecode":{"object":"0x608080604052346015576111b2908161001a8239f35b5f80fdfe60806040526004361015610011575f80fd5b5f3560e01c806316c38b3c14610e1a578063183a4f6e14610e025780631c10893f14610da25780631cd64df414610d695780632569296214610d205780632de9480714610cee5780634578a27e1461093c5780634a4ee7b114610914578063514e62fc146108dc57806354d1f13d146108985780636e25b9781461079e578063715018a6146107555780638da5cb5b1461071e578063992bc45b1461034f578063f04e283e14610302578063f1de9d5f14610152578063f2fde38b146101155763fee81cf4146100df575f80fd5b34610111576020600319360112610111576100f8610f6a565b63389a75e1600c525f52602080600c2054604051908152f35b5f80fd5b602060031936011261011157610129610f6a565b6101316110d0565b8060601b1561014557610143906110ec565b005b637448fbae5f526004601cfd5b346101115760206003193601126101115760043567ffffffffffffffff811161011157366023820112156101115780600401359067ffffffffffffffff82116102d557604051916101cb601f82017fffffffffffffffffffffffffffffffffffffffffffffffffffffffffffffffe01660200184610f8d565b80835260208301903660248285010111610111576020815f9260247fffffffff000000000000000000000000000000000000000000000000000000009601853785010152604051925190201667ffffffffffffffff82116102d55760209160405260405182810191825260048152610244602482610f8d565b5190517fffffffff00000000000000000000000000000000000000000000000000000000811691600481106102a0575b50507fffffffff0000000000000000000000000000000000000000000000000000000060405191168152f35b7fffffffff000000000000000000000000000000000000000000000000000000009250829060040360031b1b16168280610274565b7f4e487b71000000000000000000000000000000000000000000000000000000005f52604160045260245ffd5b602060031936011261011157610316610f6a565b61031e6110d0565b63389a75e1600c52805f526020600c209081544211610342575f61014392556110ec565b636f5e88185f526004601cfd5b3461011157602060031936011261011157600435805f527f554e3a023a6cce752a6c1cc2237cde172425f8630dbeddd5526e9dc09c30410060205260405f209060405190818260208554928381520180955f5260205f20925f5b8181106106ef5750506103be92500383610f8d565b5f527f554e3a023a6cce752a6c1cc2237cde172425f8630dbeddd5526e9dc09c30410160205260405f20604051808260208294549384815201905f5260205f20925f905b8060078301106106625761045894549181811061062c575b8181106105f6575b8181106105c0575b81811061058a575b818110610554575b81811061051e575b8181106104e9575b106104bc575b500382610f8d565b60405191604083019060408452518091526060830193905f5b81811061049057848061048c88878382036020850152610fe6565b0390f35b825173ffffffffffffffffffffffffffffffffffffffff16865260209586019590920191600101610471565b7fffffffff0000000000000000000000000000000000000000000000000000000016815260200186610450565b9260206001917fffffffff0000000000000000000000000000000000000000000000000000000085831b16815201930161044a565b9260206001917fffffffff000000000000000000000000000000000000000000000000000000008560401b168152019301610442565b9260206001917fffffffff000000000000000000000000000000000000000000000000000000008560601b16815201930161043a565b9260206001917fffffffff000000000000000000000000000000000000000000000000000000008560801b168152019301610432565b9260206001917fffffffff000000000000000000000000000000000000000000000000000000008560a01b16815201930161042a565b9260206001917fffffffff000000000000000000000000000000000000000000000000000000008560c01b168152019301610422565b9260206001917fffffffff000000000000000000000000000000000000000000000000000000008560e01b16815201930161041a565b9160089193506101006001917fffffffff000000000000000000000000000000000000000000000000000000008754818160e01b168352818160c01b166020840152818160a01b166040840152818160801b166060840152818160601b166080840152818160401b1660a0840152818160201b1660c08401521660e0820152019401920184929391610402565b845473ffffffffffffffffffffffffffffffffffffffff168352600194850194879450602090930192016103a9565b34610111575f600319360112610111576020638b78c6d8195473ffffffffffffffffffffffffffffffffffffffff60405191168152f35b5f600319360112610111576107686110d0565b5f638b78c6d819547f8be0079c531659141344cd1fd0a4f28419497f9722a3daafe3b4186f6b6457e08280a35f638b78c6d81955005b34610111575f600319360112610111576040516107bc608082610f8d565b6003815260208101606036823781511561086b577f4578a27e00000000000000000000000000000000000000000000000000000000905280516001101561086b577f992bc45b00000000000000000000000000000000000000000000000000000000604082015280516002101561086b57807ff1de9d5f00000000000000000000000000000000000000000000000000000000606061048c930152604051918291602083526020830190610fe6565b7f4e487b71000000000000000000000000000000000000000000000000000000005f52603260045260245ffd5b5f6003193601126101115763389a75e1600c52335f525f6020600c2055337ffa7b8eab7da67f412cc9575ed43464468f9bfbae89d1675917346ca6d8fe3c925f80a2005b34610111576040600319360112610111576108f5610f6a565b638b78c6d8600c525f52602060243581600c2054161515604051908152f35b60406003193601126101115761014361092b610f6a565b6109336110d0565b60243590611137565b346101115760606003193601126101115760043560243567ffffffffffffffff811161011157366023820112156101115780600401359161097c83610fce565b9161098a6040519384610f8d565b83835260208301906024829560051b8201019036821161011157602401915b818310610cc1575050506044359267ffffffffffffffff84116101115736602385011215610111578360040135926109e084610fce565b946109ee6040519687610f8d565b84865260208601906024829660051b8201019036821161011157602401915b818310610c8857505050825f527f554e3a023a6cce752a6c1cc2237cde172425f8630dbeddd5526e9dc09c30410060205260405f2090519167ffffffffffffffff83116102d5576801000000000000000083116102d5578154838355808410610c6c575b50905f5260205f205f5b838110610c4257505050505f527f554e3a023a6cce752a6c1cc2237cde172425f8630dbeddd5526e9dc09c30410160205260405f2091519067ffffffffffffffff82116102d5576801000000000000000082116102d5578254828455808310610bb5575b50915f5260205f208160031c915f5b838110610b6a57507ffffffffffffffffffffffffffffffffffffffffffffffffffffffffffffffff88116900380610b2257005b925f935f5b818110610b35575050500155005b9091946020610b60600192885160e01c908560021b63ffffffff809160031b9316831b921b19161790565b9601929101610b27565b5f5f5b60088110610b82575083820155600101610aee565b95906020610bac600192845160e01c908a60021b63ffffffff809160031b9316831b921b19161790565b92019601610b6d565b610be490845f5260205f20600780860160031c820192601c8760021b1680610bea575b500160031c01906110ba565b83610adf565b7fffffffffffffffffffffffffffffffffffffffffffffffffffffffffffffffff8501907fffffffffffffffffffffffffffffffffffffffffffffffffffffffffffffffff82549160200360031b1c16905588610bd8565b600190602073ffffffffffffffffffffffffffffffffffffffff8551169401938184015501610a7b565b610c8290835f528460205f2091820191016110ba565b86610a71565b82357fffffffff000000000000000000000000000000000000000000000000000000008116810361011157815260209283019201610a0d565b823573ffffffffffffffffffffffffffffffffffffffff81168103610111578152602092830192016109a9565b3461011157602060031936011261011157610d07610f6a565b638b78c6d8600c525f52602080600c2054604051908152f35b5f6003193601126101115763389a75e1600c52335f526202a30042016020600c2055337fdbf36a107da19e49527a7176a1babf963b4b0ff8cde35ee35d6cd8f1f9ac7e1d5f80a2005b34610111576040600319360112610111576020610d84610f6a565b60243590638b78c6d8600c525f528082600c20541614604051908152f35b604060031936011261011157610db6610f6a565b610dbe6110d0565b638b78c6d8600c525f526020600c20602435815417809155600c5160601c7f715ad5ce61fc9595c7b415289d59cf203f23a94fa06f04af7e489a0a76e1fe265f80a3005b60206003193601126101115761014360043533611137565b34610111576020600319360112610111576004358015158091036101115760207f0e2fb031ee032dc02d8011dc50b816eb450cf856abd8261680dac74f72165bd291638b78c6d8600c52335f52600282600c2054161515610eb2604091825190610e848483610f8d565b600382527f4b423200000000000000000000000000000000000000000000000000000000008683015261103b565b7f841668355433cc9fb8fc1984bd90b939822ef590acd27927baab4c6b4fb1290054610f158251610ee38482610f8d565b600381527f4b423400000000000000000000000000000000000000000000000000000000008682015260ff831661103b565b7fffffffffffffffffffffffffffffffffffffffffffffffffffffffffffff00ff61ff008460081b169116177f841668355433cc9fb8fc1984bd90b939822ef590acd27927baab4c6b4fb129005551908152a1005b6004359073ffffffffffffffffffffffffffffffffffffffff8216820361011157565b90601f7fffffffffffffffffffffffffffffffffffffffffffffffffffffffffffffffe0910116810190811067ffffffffffffffff8211176102d557604052565b67ffffffffffffffff81116102d55760051b60200190565b90602080835192838152019201905f5b8181106110035750505090565b82517fffffffff0000000000000000000000000000000000000000000000000000000016845260209384019390920191600101610ff6565b156110435750565b60446020917fffffffffffffffffffffffffffffffffffffffffffffffffffffffffffffffe0601f6040519485937f08c379a00000000000000000000000000000000000000000000000000000000085528160048601528051918291826024880152018686015e5f85828601015201168101030190fd5b8181106110c5575050565b5f81556001016110ba565b638b78c6d8195433036110df57565b6382b429005f526004601cfd5b73ffffffffffffffffffffffffffffffffffffffff1680638b78c6d819547f8be0079c531659141344cd1fd0a4f28419497f9722a3daafe3b4186f6b6457e05f80a3638b78c6d81955565b638b78c6d8600c525f526020600c2090815490811618809155600c5160601c7f715ad5ce61fc9595c7b415289d59cf203f23a94fa06f04af7e489a0a76e1fe265f80a356fea26469706673582212205104de610c595a4f96295819bb364b8fa29b726c71abc1f20f4a3f03ec3a8b9764736f6c634300081e0033","linkReferences":{}},"methodIdentifiers":{"cancelOwnershipHandover()":"54d1f13d","completeOwnershipHandover(address)":"f04e283e","getProcess(bytes32)":"992bc45b","getfunctionSelector(string)":"f1de9d5f","grantRoles(address,uint256)":"1c10893f","hasAllRoles(address,uint256)":"1cd64df4","hasAnyRole(address,uint256)":"514e62fc","owner()":"8da5cb5b","ownershipHandoverExpiresAt(address)":"fee81cf4","renounceOwnership()":"715018a6","renounceRoles(uint256)":"183a4f6e","requestOwnershipHandover()":"25692962","revokeRoles(address,uint256)":"4a4ee7b1","rolesOf(address)":"2de94807","selectors()":"6e25b978","setPaused(bool)":"16c38b3c","setProcessId(bytes32,address[],bytes4[])":"4578a27e","transferOwnership(address)":"f2fde38b"},"storageLayout":{"storage":[],"types":{}},"id":67}