{"abi":[{"type":"constructor","inputs":[],"stateMutability":"nonpayable"},{"type":"receive","stateMutability":"payable"},{"type":"function","name":"canExecuteProposal","inputs":[{"name":"proposalId","type":"bytes32","internalType":"bytes32"}],"outputs":[{"name":"canExecute","type":"bool","internalType":"bool"},{"name":"reason","type":"string","internalType":"string"}],"stateMutability":"view"},{"type":"function","name":"cancelProposal","inputs":[{"name":"proposalId","type":"bytes32","internalType":"bytes32"}],"outputs":[],"stateMutability":"nonpayable"},{"type":"function","name":"contractName","inputs":[],"outputs":[{"name":"","type":"string","internalType":"string"}],"stateMutability":"pure"},{"type":"function","name":"contractVersion","inputs":[],"outputs":[{"name":"","type":"string","internalType":"string"}],"stateMutability":"pure"},{"type":"function","name":"executeSettleBatch","inputs":[{"name":"proposalId","type":"bytes32","internalType":"bytes32"}],"outputs":[],"stateMutability":"payable"},{"type":"function","name":"getBatchIdBalances","inputs":[{"name":"vault","type":"address","internalType":"address"},{"name":"batchId","type":"bytes32","internalType":"bytes32"}],"outputs":[{"name":"deposited","type":"uint256","internalType":"uint256"},{"name":"requested","type":"uint256","internalType":"uint256"}],"stateMutability":"view"},{"type":"function","name":"getDNVaultByAsset","inputs":[{"name":"asset","type":"address","internalType":"address"}],"outputs":[{"name":"vault","type":"address","internalType":"address"}],"stateMutability":"view"},{"type":"function","name":"getMaxAllowedDelta","inputs":[],"outputs":[{"name":"","type":"uint256","internalType":"uint256"}],"stateMutability":"view"},{"type":"function","name":"getPendingProposals","inputs":[{"name":"vault","type":"address","internalType":"address"}],"outputs":[{"name":"pendingProposals","type":"bytes32[]","internalType":"bytes32[]"}],"stateMutability":"view"},{"type":"function","name":"getRequestedShares","inputs":[{"name":"vault","type":"address","internalType":"address"},{"name":"batchId","type":"bytes32","internalType":"bytes32"}],"outputs":[{"name":"","type":"uint256","internalType":"uint256"}],"stateMutability":"view"},{"type":"function","name":"getSettlementCooldown","inputs":[],"outputs":[{"name":"","type":"uint256","internalType":"uint256"}],"stateMutability":"view"},{"type":"function","name":"getSettlementProposal","inputs":[{"name":"proposalId","type":"bytes32","internalType":"bytes32"}],"outputs":[{"name":"proposal","type":"tuple","internalType":"struct IkAssetRouter.VaultSettlementProposal","components":[{"name":"asset","type":"address","internalType":"address"},{"name":"vault","type":"address","internalType":"address"},{"name":"batchId","type":"bytes32","internalType":"bytes32"},{"name":"totalAssets","type":"uint256","internalType":"uint256"},{"name":"netted","type":"int256","internalType":"int256"},{"name":"yield","type":"int256","internalType":"int256"},{"name":"executeAfter","type":"uint64","internalType":"uint64"},{"name":"lastFeesChargedManagement","type":"uint64","internalType":"uint64"},{"name":"lastFeesChargedPerformance","type":"uint64","internalType":"uint64"}]}],"stateMutability":"view"},{"type":"function","name":"initialize","inputs":[{"name":"registry_","type":"address","internalType":"address"}],"outputs":[],"stateMutability":"nonpayable"},{"type":"function","name":"isPaused","inputs":[],"outputs":[{"name":"","type":"bool","internalType":"bool"}],"stateMutability":"view"},{"type":"function","name":"kAssetPush","inputs":[{"name":"_asset","type":"address","internalType":"address"},{"name":"amount","type":"uint256","internalType":"uint256"},{"name":"batchId","type":"bytes32","internalType":"bytes32"}],"outputs":[],"stateMutability":"payable"},{"type":"function","name":"kAssetRequestPull","inputs":[{"name":"_asset","type":"address","internalType":"address"},{"name":"amount","type":"uint256","internalType":"uint256"},{"name":"batchId","type":"bytes32","internalType":"bytes32"}],"outputs":[],"stateMutability":"payable"},{"type":"function","name":"kAssetTransfer","inputs":[{"name":"sourceVault","type":"address","internalType":"address"},{"name":"targetVault","type":"address","internalType":"address"},{"name":"_asset","type":"address","internalType":"address"},{"name":"amount","type":"uint256","internalType":"uint256"},{"name":"batchId","type":"bytes32","internalType":"bytes32"}],"outputs":[],"stateMutability":"payable"},{"type":"function","name":"kSharesRequestPull","inputs":[{"name":"sourceVault","type":"address","internalType":"address"},{"name":"amount","type":"uint256","internalType":"uint256"},{"name":"batchId","type":"bytes32","internalType":"bytes32"}],"outputs":[],"stateMutability":"payable"},{"type":"function","name":"kSharesRequestPush","inputs":[{"name":"sourceVault","type":"address","internalType":"address"},{"name":"amount","type":"uint256","internalType":"uint256"},{"name":"batchId","type":"bytes32","internalType":"bytes32"}],"outputs":[],"stateMutability":"payable"},{"type":"function","name":"multicall","inputs":[{"name":"data","type":"bytes[]","internalType":"bytes[]"}],"outputs":[{"name":"","type":"bytes[]","internalType":"bytes[]"}],"stateMutability":"payable"},{"type":"function","name":"proposeSettleBatch","inputs":[{"name":"asset","type":"address","internalType":"address"},{"name":"vault","type":"address","internalType":"address"},{"name":"batchId","type":"bytes32","internalType":"bytes32"},{"name":"totalAssets_","type":"uint256","internalType":"uint256"},{"name":"lastFeesChargedManagement","type":"uint64","internalType":"uint64"},{"name":"lastFeesChargedPerformance","type":"uint64","internalType":"uint64"}],"outputs":[{"name":"proposalId","type":"bytes32","internalType":"bytes32"}],"stateMutability":"payable"},{"type":"function","name":"proxiableUUID","inputs":[],"outputs":[{"name":"","type":"bytes32","internalType":"bytes32"}],"stateMutability":"view"},{"type":"function","name":"registry","inputs":[],"outputs":[{"name":"","type":"address","internalType":"address"}],"stateMutability":"view"},{"type":"function","name":"rescueAssets","inputs":[{"name":"asset_","type":"address","internalType":"address"},{"name":"to_","type":"address","internalType":"address"},{"name":"amount_","type":"uint256","internalType":"uint256"}],"outputs":[],"stateMutability":"payable"},{"type":"function","name":"setMaxAllowedDelta","inputs":[{"name":"maxDelta_","type":"uint256","internalType":"uint256"}],"outputs":[],"stateMutability":"nonpayable"},{"type":"function","name":"setPaused","inputs":[{"name":"paused_","type":"bool","internalType":"bool"}],"outputs":[],"stateMutability":"nonpayable"},{"type":"function","name":"setSettlementCooldown","inputs":[{"name":"cooldown","type":"uint256","internalType":"uint256"}],"outputs":[],"stateMutability":"nonpayable"},{"type":"function","name":"upgradeToAndCall","inputs":[{"name":"newImplementation","type":"address","internalType":"address"},{"name":"data","type":"bytes","internalType":"bytes"}],"outputs":[],"stateMutability":"payable"},{"type":"function","name":"virtualBalance","inputs":[{"name":"vault","type":"address","internalType":"address"},{"name":"asset","type":"address","internalType":"address"}],"outputs":[{"name":"","type":"uint256","internalType":"uint256"}],"stateMutability":"view"},{"type":"event","name":"AssetsPushed","inputs":[{"name":"from","type":"address","indexed":true,"internalType":"address"},{"name":"amount","type":"uint256","indexed":false,"internalType":"uint256"}],"anonymous":false},{"type":"event","name":"AssetsRequestPulled","inputs":[{"name":"vault","type":"address","indexed":true,"internalType":"address"},{"name":"asset","type":"address","indexed":true,"internalType":"address"},{"name":"amount","type":"uint256","indexed":false,"internalType":"uint256"}],"anonymous":false},{"type":"event","name":"AssetsTransfered","inputs":[{"name":"sourceVault","type":"address","indexed":true,"internalType":"address"},{"name":"targetVault","type":"address","indexed":true,"internalType":"address"},{"name":"asset","type":"address","indexed":true,"internalType":"address"},{"name":"amount","type":"uint256","indexed":false,"internalType":"uint256"}],"anonymous":false},{"type":"event","name":"BatchSettled","inputs":[{"name":"vault","type":"address","indexed":true,"internalType":"address"},{"name":"batchId","type":"bytes32","indexed":true,"internalType":"bytes32"},{"name":"totalAssets","type":"uint256","indexed":false,"internalType":"uint256"}],"anonymous":false},{"type":"event","name":"ContractInitialized","inputs":[{"name":"registry","type":"address","indexed":true,"internalType":"address"}],"anonymous":false},{"type":"event","name":"Deposited","inputs":[{"name":"vault","type":"address","indexed":true,"internalType":"address"},{"name":"asset","type":"address","indexed":true,"internalType":"address"},{"name":"amount","type":"uint256","indexed":false,"internalType":"uint256"}],"anonymous":false},{"type":"event","name":"Initialized","inputs":[{"name":"version","type":"uint64","indexed":false,"internalType":"uint64"}],"anonymous":false},{"type":"event","name":"MaxAllowedDeltaUpdated","inputs":[{"name":"oldTolerance","type":"uint256","indexed":false,"internalType":"uint256"},{"name":"newTolerance","type":"uint256","indexed":false,"internalType":"uint256"}],"anonymous":false},{"type":"event","name":"Paused","inputs":[{"name":"paused_","type":"bool","indexed":false,"internalType":"bool"}],"anonymous":false},{"type":"event","name":"PegProtectionActivated","inputs":[{"name":"vault","type":"address","indexed":true,"internalType":"address"},{"name":"shortfall","type":"uint256","indexed":false,"internalType":"uint256"}],"anonymous":false},{"type":"event","name":"PegProtectionExecuted","inputs":[{"name":"sourceVault","type":"address","indexed":true,"internalType":"address"},{"name":"targetVault","type":"address","indexed":true,"internalType":"address"},{"name":"amount","type":"uint256","indexed":false,"internalType":"uint256"}],"anonymous":false},{"type":"event","name":"RescuedAssets","inputs":[{"name":"asset_","type":"address","indexed":true,"internalType":"address"},{"name":"to_","type":"address","indexed":true,"internalType":"address"},{"name":"amount_","type":"uint256","indexed":false,"internalType":"uint256"}],"anonymous":false},{"type":"event","name":"RescuedETH","inputs":[{"name":"to_","type":"address","indexed":true,"internalType":"address"},{"name":"amount_","type":"uint256","indexed":false,"internalType":"uint256"}],"anonymous":false},{"type":"event","name":"SettlementCancelled","inputs":[{"name":"proposalId","type":"bytes32","indexed":true,"internalType":"bytes32"},{"name":"vault","type":"address","indexed":true,"internalType":"address"},{"name":"batchId","type":"bytes32","indexed":true,"internalType":"bytes32"}],"anonymous":false},{"type":"event","name":"SettlementCooldownUpdated","inputs":[{"name":"oldCooldown","type":"uint256","indexed":false,"internalType":"uint256"},{"name":"newCooldown","type":"uint256","indexed":false,"internalType":"uint256"}],"anonymous":false},{"type":"event","name":"SettlementExecuted","inputs":[{"name":"proposalId","type":"bytes32","indexed":true,"internalType":"bytes32"},{"name":"vault","type":"address","indexed":true,"internalType":"address"},{"name":"batchId","type":"bytes32","indexed":true,"internalType":"bytes32"},{"name":"executor","type":"address","indexed":false,"internalType":"address"}],"anonymous":false},{"type":"event","name":"SettlementProposed","inputs":[{"name":"proposalId","type":"bytes32","indexed":true,"internalType":"bytes32"},{"name":"vault","type":"address","indexed":true,"internalType":"address"},{"name":"batchId","type":"bytes32","indexed":true,"internalType":"bytes32"},{"name":"totalAssets","type":"uint256","indexed":false,"internalType":"uint256"},{"name":"netted","type":"int256","indexed":false,"internalType":"int256"},{"name":"yield","type":"int256","indexed":false,"internalType":"int256"},{"name":"executeAfter","type":"uint256","indexed":false,"internalType":"uint256"},{"name":"lastFeesChargedManagement","type":"uint256","indexed":false,"internalType":"uint256"},{"name":"lastFeesChargedPerformance","type":"uint256","indexed":false,"internalType":"uint256"}],"anonymous":false},{"type":"event","name":"SettlementUpdated","inputs":[{"name":"proposalId","type":"bytes32","indexed":true,"internalType":"bytes32"},{"name":"totalAssets","type":"uint256","indexed":false,"internalType":"uint256"},{"name":"netted","type":"uint256","indexed":false,"internalType":"uint256"},{"name":"yield","type":"uint256","indexed":false,"internalType":"uint256"},{"name":"profit","type":"bool","indexed":false,"internalType":"bool"}],"anonymous":false},{"type":"event","name":"SharesRequestedPulled","inputs":[{"name":"vault","type":"address","indexed":true,"internalType":"address"},{"name":"batchId","type":"bytes32","indexed":true,"internalType":"bytes32"},{"name":"amount","type":"uint256","indexed":false,"internalType":"uint256"}],"anonymous":false},{"type":"event","name":"SharesRequestedPushed","inputs":[{"name":"vault","type":"address","indexed":true,"internalType":"address"},{"name":"batchId","type":"bytes32","indexed":true,"internalType":"bytes32"},{"name":"amount","type":"uint256","indexed":false,"internalType":"uint256"}],"anonymous":false},{"type":"event","name":"SharesSettled","inputs":[{"name":"vaults","type":"address[]","indexed":false,"internalType":"address[]"},{"name":"batchId","type":"bytes32","indexed":true,"internalType":"bytes32"},{"name":"totalRequestedShares","type":"uint256","indexed":false,"internalType":"uint256"},{"name":"totalAssets","type":"uint256[]","indexed":false,"internalType":"uint256[]"},{"name":"sharePrice","type":"uint256","indexed":false,"internalType":"uint256"}],"anonymous":false},{"type":"event","name":"Upgraded","inputs":[{"name":"implementation","type":"address","indexed":true,"internalType":"address"}],"anonymous":false},{"type":"event","name":"YieldDistributed","inputs":[{"name":"vault","type":"address","indexed":true,"internalType":"address"},{"name":"yield","type":"int256","indexed":false,"internalType":"int256"}],"anonymous":false},{"type":"event","name":"YieldExceedsMaxDeltaWarning","inputs":[{"name":"vault","type":"address","indexed":false,"internalType":"address"},{"name":"asset","type":"address","indexed":false,"internalType":"address"},{"name":"batchId","type":"bytes32","indexed":false,"internalType":"bytes32"},{"name":"yield","type":"int256","indexed":false,"internalType":"int256"},{"name":"maxAllowedYield","type":"uint256","indexed":false,"internalType":"uint256"}],"anonymous":false},{"type":"error","name":"InvalidInitialization","inputs":[]},{"type":"error","name":"NotInitializing","inputs":[]},{"type":"error","name":"Reentrancy","inputs":[]},{"type":"error","name":"UnauthorizedCallContext","inputs":[]},{"type":"error","name":"UpgradeFailed","inputs":[]}],"bytecode":{"object":"0x60a080604052346099573060805263409feecd195460018116608c5760011c6002600160401b0319016048575b614621908161009e8239608051818181611399015261144b0152f35b6002600160411b0363409feecd19556001600160401b0360209081527fc7f505b2f371ae2175ee4913f4499e1f2633a7b5936321eed1cdaeb6115181d29080a1602c565b63f92ee8a95f526004601cfd5b5f80fdfe60a0604052600436101561001a575b3615610018575f80fd5b005b5f6080525f3560e01c80630fa375921461374e57806310d03d641461285757806316c38b3c146126eb57806337376ca81461256e5780633e25562e1461180a578063410765381461164357806346b6aa23146115645780634f1ef286146113f657806352d1902d1461138457806353a7f925146113175780636ad3182d146112e357806375d0c0dc14611281578063778bd228146112435780637b103999146112165780638f6b6ee21461114057806395f4042b1461101a578063a0a8e46014610fb8578063a8412deb14610e3f578063ac9650d814610d07578063b0b3242d14610ba1578063b187bd2614610b7b578063bff9c21a14610ac9578063c31fd6aa14610a8a578063c34ee62714610a4c578063c4d66de8146107f7578063c609909214610600578063d01b5de414610343578063d0fab2581461026c5763d7eebeaf0361000e5761016a36613853565b91610173613c1d565b61017b613c4c565b61018e610186613f71565b831515613943565b610197336141d4565b6101d1816001600160a01b03165f527f72fdaf6608fcd614cdab8afd23d0b707bfc44e685019cc3a5ace611655fe7f0760205260405f2090565b83608051526020526040608051208054906080515083820180921161023b57556040519182526001600160a01b0316907f1230d10fa54cf4fa480deb2fa6a8b12962f8e88b2b57230c541d55851011e6a590602090a3608051688000000000ab143c065d60805180f35b7f4e487b71000000000000000000000000000000000000000000000000000000006080515260116004526024608051fd5b3461033d57602060031936011261033d576102856137e4565b60206001600160a01b0360448161029a61419b565b169360405194859384927fe36bea44000000000000000000000000000000000000000000000000000000008452166004830152600160248301525afa80156103305760209160805191610303575b506102f28161445e565b6001600160a01b0360405191168152f35b6103239150823d8411610329575b61031b81836138c7565b810190613aed565b826102e8565b503d610311565b6040513d608051823e3d90fd5b60805180fd5b606060031936011261033d576103576137e4565b61035f6137fa565b9060443561037d61036f3361438c565b61037761398d565b90613943565b6001600160a01b038316926040926103cc845161039a86826138c7565b600281527f4b350000000000000000000000000000000000000000000000000000000000006020820152861515613943565b6001600160a01b038116908161053057505081151580610526575b6103f390610377613be2565b6080519081908190819085905af1903d156104f9573d9267ffffffffffffffff84116104c8576104bc60209385857fffffffffffffffffffffffffffffffffffffffffffffffffffffffffffffffe0601f7f63b8c8e180bc85c19daef23e2bb787fb49672d3a9ecde24409c18ccb1accb5d19901160190610476855192836138c7565b81526080513d9187013e5b82519061048e84836138c7565b600282527f4b3700000000000000000000000000000000000000000000000000000000000086830152613943565b51908152a25b60805180f35b7f4e487b71000000000000000000000000000000000000000000000000000000006080515260416004526024608051fd5b7f63b8c8e180bc85c19daef23e2bb787fb49672d3a9ecde24409c18ccb1accb5d1926104bc602093610481565b50478211156103e7565b936105be84602094876105a46105687f552c8f8dc30f2786e14004d98595afcc1c0ea1f552b86e86f64a2da74761eaab99979a614403565b1586519061057688836138c7565b600282527f4b380000000000000000000000000000000000000000000000000000000000008a830152613943565b821515806105c8575b6105b990610377613be2565b6142f1565b51908152a36104c2565b50306014526f70a08231000000000000000000000000608051526105b9878060246010855afa601f3d111688510284111590506105ad565b60a060031936011261033d576106146137e4565b61061c6137fa565b6044356001600160a01b038116929183820361033d5760206001600160a01b03807f710dc442f97591ada42c89862a834ebac6dd641869d3bfa3707b37661397c93f936107d86064359661073960843591610675613c1d565b61067d613c4c565b610690610688613f71565b8b1515613943565b610699336141d4565b6fffffffffffffffffffffffffffffffff6106b38b6142b6565b6106ed8d6001600160a01b03165f527f72fdaf6608fcd614cdab8afd23d0b707bfc44e685019cc3a5ace611655fe7f0660205260405f2090565b85608051528a526107076040608051209183835416613abb565b81547fffffffffffffffffffffffffffffffff000000000000000000000000000000001692169182179055908b614268565b610742886142b6565b9061077d846001600160a01b03165f527f72fdaf6608fcd614cdab8afd23d0b707bfc44e685019cc3a5ace611655fe7f0660205260405f2090565b9060805152865261079860406080512091825460801c613abb565b6fffffffffffffffffffffffffffffffff7fffffffffffffffffffffffffffffffff0000000000000000000000000000000083549260801b169116179055565b60405195865216941692a4608051688000000000ab143c065d60805180f35b3461033d57602060031936011261033d576108106137e4565b7fffffffffffffffffffffffffffffffffffffffffffffffffffffffffbf601132809181548060038455610a07575b50740100000000000000000000000000000000000000007fffffffffffffffffffff00000000000000000000000000000000000000000000916001600160a01b037fe91688684975c4d7d54a65dd96da5d4dcbb54b8971c046d5351d3c111e43a80054916108eb6040516108b46040826138c7565b600281527f4b31000000000000000000000000000000000000000000000000000000000000602082015260ff8560a01c1615613943565b169283916109326040516109006040826138c7565b600281527f4b320000000000000000000000000000000000000000000000000000000000006020820152841515613943565b1617177fe91688684975c4d7d54a65dd96da5d4dcbb54b8971c046d5351d3c111e43a80055610e107f72fdaf6608fcd614cdab8afd23d0b707bfc44e685019cc3a5ace611655fe7f01556103e87f72fdaf6608fcd614cdab8afd23d0b707bfc44e685019cc3a5ace611655fe7f02557fb8bb5a08c752924168166e254455ca6708ef2ac4cfd39bba39eb5a5b89f0cbd6608051608051a26109d35760805180f35b6002905560016020527fc7f505b2f371ae2175ee4913f4499e1f2633a7b5936321eed1cdaeb6115181d2602080a1806104c2565b909150600181811c14303b1015610a3d5760ff1b9190911b9081907401000000000000000000000000000000000000000061083f565b63f92ee8a9608051526004601cfd5b3461033d5760805160031936011261033d5760207f72fdaf6608fcd614cdab8afd23d0b707bfc44e685019cc3a5ace611655fe7f0154604051908152f35b3461033d57602060031936011261033d57610aa6600435613b0c565b90610ac560405192839215158352604060208401526040830190613810565b0390f35b3461033d57604060031936011261033d57610b1b610ae56137e4565b6001600160a01b03165f527f72fdaf6608fcd614cdab8afd23d0b707bfc44e685019cc3a5ace611655fe7f0660205260405f2090565b60243560805152602052604060805120604051604081019080821067ffffffffffffffff8311176104c857604092602092845254906fffffffffffffffffffffffffffffffff82169182825260801c928391015282519182526020820152f35b3461033d5760805160031936011261033d576020610b9761434b565b6040519015158152f35b3461033d57602060031936011261033d57604051610bbe8161387d565b6080518152608051602082015260805160408201526080516060820152608051608082015260805160a082015260805160c082015260805160e0820152610100608051910152600435608051527f72fdaf6608fcd614cdab8afd23d0b707bfc44e685019cc3a5ace611655fe7f0860205261012060406080512067ffffffffffffffff6001600160a01b038160405193610c578561387d565b81838254169586815284600184015416926020820193845260028101546040830190815260038201546060840190815260048301549160808501928352600660058501549460a0870195865201549889978761010060c0890198828c168a528260e082019c60401c168c52019b60801c168b526040519c8d52511660208c01525160408b01525160608a01525160808901525160a0880152511660c0860152511660e08401525116610100820152f35b602060031936011261033d5760043567ffffffffffffffff811161033d573660238201121561033d57806004013567ffffffffffffffff811161033d578060051b366024828501011161033d573461033d576040519283926020845280846020015260408481019380602485018637850101928391610d9e575b505050806040520360401b178060401c9067ffffffffffffffff16f35b919350915b8091604481518601602481013591829101843760805190389084305af415610e3457603f67ffffffffffffffe0917fffffffffffffffffffffffffffffffffffffffffffffffffffffffffffffffc0888503018152602001923d81523d608051602083013e3d010116916020608051913d0101528483821015610e27575090610da3565b9350509050838080610d81565b853d608051823e3d90fd5b610e4836613853565b610e53929192613c1d565b610e5b613c4c565b610e6e610e66613f71565b841515613943565b610e773361421e565b6001600160a01b03610e8761419b565b6040517f4c472fc90000000000000000000000000000000000000000000000000000000081523360048201526001600160a01b03851660248201529160209183916044918391165afa801561033057610f59936001600160a01b038692610ef99460805191610f99575b5016906142f1565b610f02836142b6565b90610f3d336001600160a01b03165f527f72fdaf6608fcd614cdab8afd23d0b707bfc44e685019cc3a5ace611655fe7f0660205260405f2090565b906080515260205261079860406080512091825460801c613abb565b6040519081527f4c56d82314c7ba16ae8b6c8f189249e688d64c23ce4ad32dce3533e7e14b550a60203392a2608051688000000000ab143c065d60805180f35b610fb2915060203d6020116103295761031b81836138c7565b88610ef1565b3461033d5760805160031936011261033d5760408051610ac591610fdc90826138c7565b600581527f312e302e300000000000000000000000000000000000000000000000000000006020820152604051918291602083526020830190613810565b6001600160a01b0361102b36613853565b61103793929193613c1d565b61103f613c4c565b61105261104a613f71565b851515613943565b61105b3361421e565b611066848333614268565b61106f846142b6565b906110aa336001600160a01b03165f527f72fdaf6608fcd614cdab8afd23d0b707bfc44e685019cc3a5ace611655fe7f0660205260405f2090565b90608051526020526fffffffffffffffffffffffffffffffff6110d66040608051209282845416613abb565b167fffffffffffffffffffffffffffffffff0000000000000000000000000000000082541617905560405192835216907fd95447b6ffc5599057ab190458c076456cdd9029001c51c670a5734cef8ebf7660203392a3608051688000000000ab143c065d60805180f35b60206001600160a01b037f5cd8a9107e6e9586b797145cd0c5d437a526622477140ec7c4db00304c015a3d61117436613853565b9491611181949194613c1d565b611189613c4c565b61119c611194613f71565b861515613943565b6111a5336141d4565b6111df816001600160a01b03165f527f72fdaf6608fcd614cdab8afd23d0b707bfc44e685019cc3a5ace611655fe7f0760205260405f2090565b866080515283526040608051206111f7868254613aae565b90556040519485521692a3608051688000000000ab143c065d60805180f35b3461033d5760805160031936011261033d5760206001600160a01b0361123a61419b565b16604051908152f35b3461033d5760805160031936011261033d5760207f72fdaf6608fcd614cdab8afd23d0b707bfc44e685019cc3a5ace611655fe7f0254604051908152f35b3461033d5760805160031936011261033d5760408051610ac5916112a590826138c7565b600c81527f6b4173736574526f7574657200000000000000000000000000000000000000006020820152604051918291602083526020830190613810565b3461033d57604060031936011261033d57602061130f6113016137e4565b6113096137fa565b90613fac565b604051908152f35b3461033d57604060031936011261033d576113696113336137e4565b6001600160a01b03165f527f72fdaf6608fcd614cdab8afd23d0b707bfc44e685019cc3a5ace611655fe7f0760205260405f2090565b60243560805152602052602060406080512054604051908152f35b3461033d5760805160031936011261033d57307f0000000000000000000000000000000000000000000000000000000000000000036113e75760206040517f360894a13ba1a3210667c828492db98dca3e2076cc3735a920a3ca505d382bbc8152f35b639f03a026608051526004601cfd5b604060031936011261033d5761140a6137e4565b6024359067ffffffffffffffff821161033d573660238301121561033d5781600401359067ffffffffffffffff821161033d57366024838501011161033d577f000000000000000000000000000000000000000000000000000000000000000030146113e7576001600160a01b039061148d6114853361438c565b610377613a03565b6114968161445e565b163d608051526352d1902d6001527f360894a13ba1a3210667c828492db98dca3e2076cc3735a920a3ca505d382bbc602060016004601d855afa510361155657807fbc7cd75a20ee27fd9adebab32041f755214dbc6bffa90cc0225b39da2e5c2d3b608051608051a281817f360894a13ba1a3210667c828492db98dca3e2076cc3735a920a3ca505d382bbc5561152d5760805180f35b81602460405194018437608051918338925af41561154c5780806104c2565b3d608051823e3d90fd5b6355299b496001526004601dfd5b3461033d57602060031936011261033d577fa8d4d847ed037a895f411bea9d10f2f41ab2426d173647974c6520abe4c3ef2760406004356115a76114853361438c565b6115ec82516115b684826138c7565b600281527f4137000000000000000000000000000000000000000000000000000000000000602082015262015180831115613943565b7f72fdaf6608fcd614cdab8afd23d0b707bfc44e685019cc3a5ace611655fe7f015490807f72fdaf6608fcd614cdab8afd23d0b707bfc44e685019cc3a5ace611655fe7f015582519182526020820152a160805180f35b3461033d57602060031936011261033d5761169561165f6137e4565b6001600160a01b03165f527f72fdaf6608fcd614cdab8afd23d0b707bfc44e685019cc3a5ace611655fe7f0560205260405f2090565b6318fb586460045260805152602460805120801954906040519182602001811561178b575060011c906080515b8281106117665750506020905b80835260051b82010160405261172081511515604051906116f16040836138c7565b600382527f41313000000000000000000000000000000000000000000000000000000000006020830152613943565b6040518091602082016020835281518091526020604084019201906080515b81811061174d575050500390f35b825184528594506020938401939092019160010161173f565b8060019183015468fbb67fda52d4bfb8bf8114150260208260051b87010152016116c2565b8260209354918261179f575b5050506116cf565b9091925060019268fbb67fda52d4bfb8bf81141502905281810154806117c6575b80611797565b68fbb67fda52d4bfb8bf811415026040850152600290810154909150806117ee575b806117c0565b68fbb67fda52d4bfb8bf811415026060840152506003836117e8565b60c060031936011261033d5761181e6137e4565b6118266137fa565b60443560643591608051506084359067ffffffffffffffff821680920361033d5760a43567ffffffffffffffff8116949085900361033d57611866613c1d565b61186e613c4c565b602460206001600160a01b0361188261419b565b16604051928380927f541d55480000000000000000000000000000000000000000000000000000000082523360048301525afa8015610330576118d1916080519161254f575b50610377613a03565b608080516318fb58646004527f72fdaf6608fcd614cdab8afd23d0b707bfc44e685019cc3a5ace611655fe7f0481529051602490209095908568fbb67fda52d4bfb8bf81146123dc57861561253f575b811991825491816020528215612487575b8060805152604060805120928354156124635750505050505b61198d60409687519061195e89836138c7565b600282527f41330000000000000000000000000000000000000000000000000000000000006020830152613943565b6001600160a01b0383169386517f40aa1f40000000000000000000000000000000000000000000000000000000008152866004820152602081602481895afa9081156124575790611a1e9160805191612428575b508851906119ef8a836138c7565b600382527f41323100000000000000000000000000000000000000000000000000000000006020830152613943565b60017f72fdaf6608fcd614cdab8afd23d0b707bfc44e685019cc3a5ace611655fe7f00540193847f72fdaf6608fcd614cdab8afd23d0b707bfc44e685019cc3a5ace611655fe7f005560a06001600160a01b038a1695895190888252876020830152898b83015242606083015260808201522098611acc826001600160a01b03165f527f72fdaf6608fcd614cdab8afd23d0b707bfc44e685019cc3a5ace611655fe7f0560205260405f2090565b608051506318fb5864600452608051526024608051208019548060011c9015159180541560026001830154159201541593156123eb575b5050611b4791508a5190611b178c836138c7565b600382527f4132300000000000000000000000000000000000000000000000000000000000602083015215613943565b608080516318fb58646004527f72fdaf6608fcd614cdab8afd23d0b707bfc44e685019cc3a5ace611655fe7f03905251602490208a919068fbb67fda52d4bfb8bf83146123dc57611cbb928c1591826123cb575b8c8119541561238a575060205260805152611bf58b80608051205415155b611bc5825192836138c7565b600382527f4131330000000000000000000000000000000000000000000000000000000000602083015215613943565b611c2f846001600160a01b03165f527f72fdaf6608fcd614cdab8afd23d0b707bfc44e685019cc3a5ace611655fe7f0560205260405f2090565b608080516318fb586460045291825251602490208d928d9190612379575b8019938454928260205283156122ac575b816080515260805120928354156122885750505050611cb591505b8b5190611c868d836138c7565b600382527f41313400000000000000000000000000000000000000000000000000000000006020830152613943565b82613fac565b90611cc5816140dc565b156120545780611d08611d79926001600160a01b03165f527f72fdaf6608fcd614cdab8afd23d0b707bfc44e685019cc3a5ace611655fe7f0660205260405f2090565b8960805152602052611d538a608051205460801c916001600160a01b03165f527f72fdaf6608fcd614cdab8afd23d0b707bfc44e685019cc3a5ace611655fe7f0660205260405f2090565b89608051526020526fffffffffffffffffffffffffffffffff8a60805120541690613a56565b611d838286613a56565b9080860192818412608051881290801582169115161761023b57808b91611fce575b50507f72fdaf6608fcd614cdab8afd23d0b707bfc44e685019cc3a5ace611655fe7f015442019268010000000000000000841015611fbf5784868d998a8e88958f8f835195611df38761387d565b8652602086019081528386019182526060860192835260808601938a855260a08701958c875260c088019a67ffffffffffffffff168b5260e08801998a526101008801988952608051527f72fdaf6608fcd614cdab8afd23d0b707bfc44e685019cc3a5ace611655fe7f086020526080512095516001600160a01b03166001600160a01b031686547fffffffffffffffffffffffff000000000000000000000000000000000000000016178655516001600160a01b031660018601906001600160a01b031681547fffffffffffffffffffffffff000000000000000000000000000000000000000016179055516002850155516003840155516004830155516005820155600601925167ffffffffffffffff168d84549351901b6fffffffffffffffff000000000000000016915160801b77ffffffffffffffff0000000000000000000000000000000016927fffffffffffffffff00000000000000000000000000000000000000000000000016171717905589519586526020860152888501526060840152608083015260a082015260c07fbf9fe4a18fb0d2f9902d99e958ec41370c41b4e41657141a31b44e206bf7ec3591a4608051688000000000ab143c065d51908152602090f35b6335278d12608051526004601cfd5b611ffd612710917f72fdaf6608fcd614cdab8afd23d0b707bfc44e685019cc3a5ace611655fe7f025490613a9b565b04808460ff1d808601181115611da5578160a0918c7e1f1157c3ec7dc0509bb1b6fab05fa542bbfbeb386e304c963567a821b3dd0c9451928d84528c60208501528301528560608301526080820152a1898c611da5565b8851907f18160ddd0000000000000000000000000000000000000000000000000000000082526020826004818b5afa91821561227c5760805192612244575b508115801561223c575b156121445761213f91506120e1816001600160a01b03165f527f72fdaf6608fcd614cdab8afd23d0b707bfc44e685019cc3a5ace611655fe7f0760205260405f2090565b89608051526020526121298a6080512054916001600160a01b03165f527f72fdaf6608fcd614cdab8afd23d0b707bfc44e685019cc3a5ace611655fe7f0660205260405f2090565b896080515260205289608051205460801c613a56565b611d79565b61217e816001600160a01b03165f527f72fdaf6608fcd614cdab8afd23d0b707bfc44e685019cc3a5ace611655fe7f0760205260405f2090565b896080515260205289608051205491608051508683029281811589838704141702156121b557506121299061213f93045b91610ae5565b9281885f1981870983811084019003950982608051038316908584111561222d5761213f958261212995048060030260021880820260020302808202600203028082026002030280820260020302808202600203028091026002030293600184848303049480608051030401921190030217026121af565b63ae47f702608051526004601cfd5b50851561209d565b9091506020813d602011612274575b81612260602093836138c7565b810103126122705751908b612093565b5f80fd5b3d9150612253565b8a513d608051823e3d90fd5b909192935060011c8092015560010180915560011b6001179055611cb56001611c79565b9250815480156123685781811461235a5760018301805490811561234757508281146123385760028401918254928315612324575083831461231457608051526001856080512055608051526002846080512055608051526003836080512055600792611c5e565b505050505050611cb59150611c79565b96505050509350505055611cb56001611c79565b5050505050611cb59150611c79565b955050509350505055611cb56001611c79565b50505050611cb59150611c79565b50935091505055611cb56001611c79565b68fbb67fda52d4bfb8bf9350611c4d565b9091600192818154146123c0578184820154146123c05760020154146123b757611bf59150608051611bb9565b611bf591611bb9565b5050611bf591611bb9565b68fbb67fda52d4bfb8bf9150611b9b565b63f5a267f1608051526004601cfd5b608051919250612421575060019061241a57506002906124125750611b4760038c80611b03565b808c80611b03565b8180611b03565b9080611b03565b61244a915060203d602011612450575b61244281836138c7565b810190613a3e565b8a6119e1565b503d612438565b88513d608051823e3d90fd5b9091929394995060011c8092015560010180915560011b600117905560019461194b565b9150805480156125335782811461252a57600182018054908115612519575083811461250f57600283019182549283156124fd57508483146124f257608051526001604060805120556080515260026040608051205560805152600360406080512055600791611932565b50505050505061194b565b9550505050509196505560019461194b565b505050505061194b565b94505050509196505560019461194b565b5050505061194b565b5055506001955061194b565b5068fbb67fda52d4bfb8bf611921565b612568915060203d6020116124505761244281836138c7565b886118c8565b3461033d57602060031936011261033d5760043561258a613c1d565b612592613c4c565b602460206001600160a01b036125a661419b565b16604051928380927f0c68ba210000000000000000000000000000000000000000000000000000000082523360048301525afa8015610330576125f491608051916126cc5750610377613a03565b80608051527f72fdaf6608fcd614cdab8afd23d0b707bfc44e685019cc3a5ace611655fe7f0860205260406080512060026001600160a01b036001830154169161268261267a85612675866001600160a01b03165f527f72fdaf6608fcd614cdab8afd23d0b707bfc44e685019cc3a5ace611655fe7f0560205260405f2090565b613dc6565b610377613908565b0161268d8154613c98565b5054917fef597a7069e38df320d1d2425e591c723b3d5a3285b98942f803ccff555b67d2608051608051a4608051688000000000ab143c065d60805180f35b6126e5915060203d6020116124505761244281836138c7565b836118c8565b3461033d57602060031936011261033d5760043580151580910361033d5760249060206001600160a01b0361271e61419b565b16604051938480927f2500f2b60000000000000000000000000000000000000000000000000000000082523360048301525afa908115610330576127926020927f0e2fb031ee032dc02d8011dc50b816eb450cf856abd8261680dac74f72165bd2946080519161283a575b5061037761398d565b7fe91688684975c4d7d54a65dd96da5d4dcbb54b8971c046d5351d3c111e43a800546127cb6127bf6139c8565b60ff8360a01c16613943565b7fffffffffffffffffffff00ffffffffffffffffffffffffffffffffffffffffff75ff0000000000000000000000000000000000000000008360a81b169116177fe91688684975c4d7d54a65dd96da5d4dcbb54b8971c046d5351d3c111e43a80055604051908152a160805180f35b6128519150843d86116124505761244281836138c7565b85612789565b60206003193601126122705760043561286e613c1d565b612876613c4c565b805f527f72fdaf6608fcd614cdab8afd23d0b707bfc44e685019cc3a5ace611655fe7f0860205260405f2060018101916001600160a01b03835416916128f361267a83612675866001600160a01b03165f527f72fdaf6608fcd614cdab8afd23d0b707bfc44e685019cc3a5ace611655fe7f0560205260405f2090565b600681019067ffffffffffffffff8254164210159461294a60409687519061291b89836138c7565b600282527f41350000000000000000000000000000000000000000000000000000000000006020830152613943565b61295384613e35565b506001600160a01b0380835416915416906002830154936003840154916024600486015460058701546129b6876001600160a01b03165f527f72fdaf6608fcd614cdab8afd23d0b707bfc44e685019cc3a5ace611655fe7f0660205260405f2090565b895f526020528b6fffffffffffffffffffffffffffffffff815f205416916129dc6144ab565b9660206001600160a01b036129ef61419b565b168451978880927fa3863a950000000000000000000000000000000000000000000000000000000082528b60048301525afa95861561374457876001600160a01b03612ae0986020935f91613727575b501694612a828151612a5183826138c7565b600381527f4b3130000000000000000000000000000000000000000000000000000000000085820152871515613943565b8c6001600160a01b03612a9361419b565b169151809a819482937f4c472fc9000000000000000000000000000000000000000000000000000000008452600484019092916001600160a01b0360209181604085019616845216910152565b03915afa801561371d576001600160a01b0380918c985f916136fe575b501698612b098a61445e565b168603612dc25750505080612ca2575b506080518113612c70575b5090503b1561033d5787517feeb8f2b500000000000000000000000000000000000000000000000000000000815285600482015260805181602481608051885af18015612c6457612c4b575b50803b1561033d578751907f1765b3130000000000000000000000000000000000000000000000000000000082528260048301528160248160805193608051905af1801561245757612c2c575b50917ffddc214c899c631ac36ab6c64ef4a6072b1b77d7e099e4d8977217917a635e8c936002927fedb477cd39fe3c5ba0562ca4f66170f778325877f6895520d694c84f71ddf6a9602080965b8b51908152a301549451338152a4608051688000000000ab143c065d60805180f35b60805192939192612c3c916138c7565b60805161033d57919087612bbd565b608051612c57916138c7565b60805161033d5788612b70565b89513d608051823e3d90fd5b60207f8752a472e571a816aea92eec8dae9baf628e840f4929fbcc2d155e6233ff68a7918c51908152a3888381612b24565b91508a51917fbefe31700000000000000000000000000000000000000000000000000000000083528860048401526020836024818a5afa928315612db65760805193612d95575b50612cf38361445e565b843b1561033d578b517ff2d5d56b0000000000000000000000000000000000000000000000000000000081526080516001600160a01b03861660048301526024820183905290939084806044810103816080518a5af1938415612d89578894612d69575b5090612d6391856142f1565b8b612b19565b612d7991929450608051906138c7565b60805161033d579186928d612d57565b8d513d608051823e3d90fd5b612daf91935060203d6020116103295761031b81836138c7565b918c612ce9565b8c513d608051823e3d90fd5b93925094909593612e03906001600160a01b03165f527f72fdaf6608fcd614cdab8afd23d0b707bfc44e685019cc3a5ace611655fe7f0760205260405f2090565b8a5f526020528c805f20549580613579575b50612e83916020916001600160a01b03612e2d61419b565b1690612e376144ab565b90518095819482937f4c472fc9000000000000000000000000000000000000000000000000000000008452600484019092916001600160a01b0360209181604085019616845216910152565b03915afa8015612d89576001600160a01b03916080519161355a575b501690612eab8261445e565b8c51907f01e1d114000000000000000000000000000000000000000000000000000000008252602082600481865afa801561354e576080519061351a575b612ef39250613a56565b90612f0a612eff613f71565b608051841215613943565b803b1561033d578c51917f1765b31300000000000000000000000000000000000000000000000000000000835260048301528160248160805193608051905af18015612db657613501575b5067ffffffffffffffff81548c1c168061349e575b505460801c67ffffffffffffffff168061343b575b50843b1561033d5789517feeb8f2b5000000000000000000000000000000000000000000000000000000008152876004820152608051816024816080518a5af180156133c957613422575b50803b1561033d578951907f1765b3130000000000000000000000000000000000000000000000000000000082528460048301528160248160805193608051905af1801561227c57613409575b5080613070575b5050917ffddc214c899c631ac36ab6c64ef4a6072b1b77d7e099e4d8977217917a635e8c936002927fedb477cd39fe3c5ba0562ca4f66170f778325877f6895520d694c84f71ddf6a960208096612c0a565b88517fb1791c0d000000000000000000000000000000000000000000000000000000008152602081600481885afa801561227c57608051906133d5575b6130b8915082613a9b565b9089517f87269729000000000000000000000000000000000000000000000000000000008152602081600481895afa9081156133c95760805191613397575b50801561336657613109920490613aae565b8851907f07a2d13a000000000000000000000000000000000000000000000000000000008252806004830152602082602481885afa91821561227c5760805192613332575b50806132cf575b50801561301e57813b1561033d5788517f9dc29fac0000000000000000000000000000000000000000000000000000000081526080516001600160a01b0386166004830152602482018390528180604481010381608051875af1801561227c576132b6575b5060049060206001600160a01b036131d061419b565b168b51938480927f3b19e84a0000000000000000000000000000000000000000000000000000000082525afa91821561227c5760805192613295575b50823b1561033d5789517f40c10f190000000000000000000000000000000000000000000000000000000081526080516001600160a01b03909316600482015260248101919091529182908180604481010391608051905af1801561245757613276575b8061301e565b60805192939192613286916138c7565b60805161033d57919087613270565b6132af91925060203d6020116103295761031b81836138c7565b908a61320c565b6080516132c2916138c7565b60805161033d57896131ba565b843b1561033d578951907f0342a6ba000000000000000000000000000000000000000000000000000000008252600482015260805181602481608051895af1801561227c571561315557608051613325916138c7565b60805161033d5789613155565b9091506020813d60201161335e575b8161334e602093836138c7565b810103126122705751908a61314e565b3d9150613341565b7f4e487b71000000000000000000000000000000000000000000000000000000006080515260126004526024608051fd5b90506020813d6020116133c1575b816133b2602093836138c7565b8101031261227057518b6130f7565b3d91506133a5565b8b513d608051823e3d90fd5b506020813d602011613401575b816133ef602093836138c7565b81010312612270576130b890516130ad565b3d91506133e2565b608051613415916138c7565b60805161033d5789613017565b60805161342e916138c7565b60805161033d578a612fca565b853b1561033d578a51907f9c8af15f0000000000000000000000000000000000000000000000000000000082526004820152608051816024816080518a5af180156133c95715612f7f57608051613491916138c7565b60805161033d578a612f7f565b863b1561033d578b51907f39d14dce0000000000000000000000000000000000000000000000000000000082526004820152608051816024816080518b5af18015612db65715612f6a576080516134f4916138c7565b60805161033d578b612f6a565b60805161350d916138c7565b60805161033d578b612f55565b506020823d602011613546575b81613534602093836138c7565b8101031261227057612ef39151612ee9565b3d9150613527565b8e513d608051823e3d90fd5b613573915060203d6020116103295761031b81836138c7565b8e612e9f565b90505f81131561364e57863b1561033d578d517f40c10f190000000000000000000000000000000000000000000000000000000081526080516001600160a01b038b166004830152602482018390528f929082806044810103816080518d5af1918215613642578b92613622575b5091612e8393917fabe7bba351333865347fffa4fee91d7cbacf68d57b5779282cd009ae71deaf65602080955b8451908152a2915091612e15565b60805191935061363292506138c7565b60805161033d57888e915f6135e7565b83513d608051823e3d90fd5b8060ff1d91873b15612270578e517f9dc29fac0000000000000000000000000000000000000000000000000000000081526001600160a01b038b16600482015283830190931860248401528e5f84604481838d5af19283156136f4577fabe7bba351333865347fffa4fee91d7cbacf68d57b5779282cd009ae71deaf6560208d92612e839782976136e0575b50613614565b5f6136ea916138c7565b5f6080525f6136da565b50513d5f823e3d90fd5b613717915060203d6020116103295761031b81836138c7565b5f612afd565b8f513d5f823e3d90fd5b61373e9150843d86116103295761031b81836138c7565b5f612a3f565b83513d5f823e3d90fd5b34612270576020600319360112612270577f7d105ab6c5b612e41f22c8da839b22532cfd75478b21f81260fa90ca8d255aa660406004356137916114853361438c565b7f72fdaf6608fcd614cdab8afd23d0b707bfc44e685019cc3a5ace611655fe7f025490807f72fdaf6608fcd614cdab8afd23d0b707bfc44e685019cc3a5ace611655fe7f025582519182526020820152a1005b600435906001600160a01b038216820361227057565b602435906001600160a01b038216820361227057565b907fffffffffffffffffffffffffffffffffffffffffffffffffffffffffffffffe0601f602080948051918291828752018686015e5f8582860101520116010190565b6003196060910112612270576004356001600160a01b038116810361227057906024359060443590565b610120810190811067ffffffffffffffff82111761389a57604052565b7f4e487b71000000000000000000000000000000000000000000000000000000005f52604160045260245ffd5b90601f7fffffffffffffffffffffffffffffffffffffffffffffffffffffffffffffffe0910116810190811067ffffffffffffffff82111761389a57604052565b604051906139176040836138c7565b600382527f41313500000000000000000000000000000000000000000000000000000000006020830152565b1561394b5750565b613989906040519182917f08c379a0000000000000000000000000000000000000000000000000000000008352602060048401526024830190613810565b0390fd5b6040519061399c6040836138c7565b600282527f4b340000000000000000000000000000000000000000000000000000000000006020830152565b604051906139d76040836138c7565b600282527f4b330000000000000000000000000000000000000000000000000000000000006020830152565b60405190613a126040836138c7565b600382527f41313600000000000000000000000000000000000000000000000000000000006020830152565b90816020910312612270575180151581036122705790565b81810392915f138015828513169184121617613a6e57565b7f4e487b71000000000000000000000000000000000000000000000000000000005f52601160045260245ffd5b81810292918115918404141715613a6e57565b91908203918211613a6e57565b906fffffffffffffffffffffffffffffffff809116911601906fffffffffffffffffffffffffffffffff8211613a6e57565b9081602091031261227057516001600160a01b03811681036122705790565b5f527f72fdaf6608fcd614cdab8afd23d0b707bfc44e685019cc3a5ace611655fe7f0860205267ffffffffffffffff600660405f200154168015613ba4574210613b6757600190604051613b616020826138c7565b5f815290565b5f90604051613b776040826138c7565b601381527f436f6f6c646f776e206e6f742070617373656400000000000000000000000000602082015290565b505f90604051613bb56040826138c7565b601281527f50726f706f73616c206e6f7420666f756e640000000000000000000000000000602082015290565b60405190613bf16040836138c7565b600282527f4b360000000000000000000000000000000000000000000000000000000000006020830152565b688000000000ab143c065c613c3a5730688000000000ab143c065d565b688000000000ab143c065f526004601cfd5b613c96613c5761434b565b1560405190613c676040836138c7565b600282527f41390000000000000000000000000000000000000000000000000000000000006020830152613943565b565b905f916318fb58646004527f72fdaf6608fcd614cdab8afd23d0b707bfc44e685019cc3a5ace611655fe7f045f5260245f209068fbb67fda52d4bfb8bf8114613db9578015613da9575b811980549182159260011c5f19810191600183811b1794613d5057856020525f5260405f20948554928315613d47575f9798505f19840103613d29575b5050505555600190565b5f1980849383010154928392010155855260408520555f8080613d1f565b50505050505050565b9496505050505060019281815414613d935783810182815414613d84575060020190815414613d7f57505f9150565b5f9055565b905f9250600201908154905555565b5f91506002848201918254815501908154905555565b5068fbb67fda52d4bfb8bf613ce2565b63f5a267f15f526004601cfd5b91905f926318fb58646004525f5260245f209068fbb67fda52d4bfb8bf8114613db9578015613da957811980549182159260011c5f19810191600183811b1794613d5057856020525f5260405f20948554928315613d47575f9798505f19840103613d29575050505555600190565b905f916318fb58646004527f72fdaf6608fcd614cdab8afd23d0b707bfc44e685019cc3a5ace611655fe7f035f5260245f209068fbb67fda52d4bfb8bf8114613db9578015613f61575b811991825491816020528215613ec7575b805f5260405f2092835415613ea6575050505050565b9091929394955060011c8092015560010180915560011b6001179055600190565b915080548015613f5857828114613f5257600182018054908115613f445750838114613f3d5760028301918254928315613f2e5750848314613f26575f52600160405f20555f52600260405f20555f52600360405f2055600791613e90565b505050505050565b95505050505091925055600190565b5050505050565b945050505091925055600190565b50505050565b50555060019150565b5068fbb67fda52d4bfb8bf613e7f565b60405190613f806040836138c7565b600382527f41313800000000000000000000000000000000000000000000000000000000006020830152565b61402691602091613fbc81614590565b50613fc682614403565b506001600160a01b03613fd761419b565b16906040518095819482937f4c472fc9000000000000000000000000000000000000000000000000000000008452600484019092916001600160a01b0360209181604085019616845216910152565b03915afa9081156140b4576001600160a01b03916020915f916140bf575b506004604051809481937f01e1d114000000000000000000000000000000000000000000000000000000008352165afa9081156140b4575f91614085575090565b90506020813d6020116140ac575b816140a0602093836138c7565b81010312612270575190565b3d9150614093565b6040513d5f823e3d90fd5b6140d69150823d84116103295761031b81836138c7565b5f614044565b60245f9160206001600160a01b036140f261419b565b16604051938480927fa9c9a9180000000000000000000000000000000000000000000000000000000082527f06d15878a0883034bd095c66a4b2987dfae5eb662cf9ef4aaa5ce27b533782bc60048301525afa9182156140b4575f9261416f575b506001600160a01b038091169116146141695790565b50600190565b6001600160a01b03919250614193829160203d6020116103295761031b81836138c7565b929150614153565b6001600160a01b037fe91688684975c4d7d54a65dd96da5d4dcbb54b8971c046d5351d3c111e43a800546141d06127bf6139c8565b1690565b6141e0613c9691614590565b604051906141ef6040836138c7565b600382527f41313200000000000000000000000000000000000000000000000000000000006020830152613943565b61422a613c96916140dc565b604051906142396040836138c7565b600382527f41313100000000000000000000000000000000000000000000000000000000006020830152613943565b613c96929161427691613fac565b1015604051906142876040836138c7565b600282527f41360000000000000000000000000000000000000000000000000000000000006020830152613943565b7001000000000000000000000000000000008110156142e4576fffffffffffffffffffffffffffffffff1690565b6335278d125f526004601cfd5b91906014526034526fa9059cbb0000000000000000000000005f5260205f6044601082855af1908160015f5114161561432d575b50505f603452565b3b153d17101561433e575f80614325565b6390b8ec185f526004601cfd5b60ff7fe91688684975c4d7d54a65dd96da5d4dcbb54b8971c046d5351d3c111e43a8005461438561437a6139c8565b838360a01c16613943565b60a81c1690565b60206001600160a01b036024816143a161419b565b169360405194859384927f24d7806c0000000000000000000000000000000000000000000000000000000084521660048301525afa9081156140b4575f916143e7575090565b614400915060203d6020116124505761244281836138c7565b90565b60206001600160a01b0360248161441861419b565b169360405194859384927fc87fa42a0000000000000000000000000000000000000000000000000000000084521660048301525afa9081156140b4575f916143e7575090565b613c96906001600160a01b03604051916144796040846138c7565b600383527f41313700000000000000000000000000000000000000000000000000000000006020840152161515613943565b60249060206001600160a01b036144c061419b565b16604051938480927fa9c9a9180000000000000000000000000000000000000000000000000000000082527f06d15878a0883034bd095c66a4b2987dfae5eb662cf9ef4aaa5ce27b533782bc60048301525afa9182156140b4575f9261456f575b50613c96826001600160a01b036040519161453d6040846138c7565b600283527f4b390000000000000000000000000000000000000000000000000000000000006020840152161515613943565b61458991925060203d6020116103295761031b81836138c7565b905f614521565b60206001600160a01b036024816145a561419b565b169360405194859384927f652b9b410000000000000000000000000000000000000000000000000000000084521660048301525afa9081156140b4575f916143e757509056fea264697066735822122064febbaa2922904c0735628b7a497a40a184811b868f1f5ffb00ba1e310f8c4364736f6c634300081e0033","linkReferences":{}},"methodIdentifiers":{"canExecuteProposal(bytes32)":"c31fd6aa","cancelProposal(bytes32)":"37376ca8","contractName()":"75d0c0dc","contractVersion()":"a0a8e460","executeSettleBatch(bytes32)":"10d03d64","getBatchIdBalances(address,bytes32)":"bff9c21a","getDNVaultByAsset(address)":"d0fab258","getMaxAllowedDelta()":"778bd228","getPendingProposals(address)":"41076538","getRequestedShares(address,bytes32)":"53a7f925","getSettlementCooldown()":"c34ee627","getSettlementProposal(bytes32)":"b0b3242d","initialize(address)":"c4d66de8","isPaused()":"b187bd26","kAssetPush(address,uint256,bytes32)":"a8412deb","kAssetRequestPull(address,uint256,bytes32)":"95f4042b","kAssetTransfer(address,address,address,uint256,bytes32)":"c6099092","kSharesRequestPull(address,uint256,bytes32)":"8f6b6ee2","kSharesRequestPush(address,uint256,bytes32)":"d7eebeaf","multicall(bytes[])":"ac9650d8","proposeSettleBatch(address,address,bytes32,uint256,uint64,uint64)":"3e25562e","proxiableUUID()":"52d1902d","registry()":"7b103999","rescueAssets(address,address,uint256)":"d01b5de4","setMaxAllowedDelta(uint256)":"0fa37592","setPaused(bool)":"16c38b3c","setSettlementCooldown(uint256)":"46b6aa23","upgradeToAndCall(address,bytes)":"4f1ef286","virtualBalance(address,address)":"6ad3182d"},"storageLayout":{"storage":[],"types":{}},"id":58}