{"abi":[{"type":"constructor","inputs":[],"stateMutability":"nonpayable"},{"type":"receive","stateMutability":"payable"},{"type":"function","name":"canExecuteProposal","inputs":[{"name":"proposalId","type":"bytes32","internalType":"bytes32"}],"outputs":[{"name":"canExecute","type":"bool","internalType":"bool"},{"name":"reason","type":"string","internalType":"string"}],"stateMutability":"view"},{"type":"function","name":"cancelProposal","inputs":[{"name":"proposalId","type":"bytes32","internalType":"bytes32"}],"outputs":[],"stateMutability":"nonpayable"},{"type":"function","name":"contractName","inputs":[],"outputs":[{"name":"","type":"string","internalType":"string"}],"stateMutability":"pure"},{"type":"function","name":"contractVersion","inputs":[],"outputs":[{"name":"","type":"string","internalType":"string"}],"stateMutability":"pure"},{"type":"function","name":"executeSettleBatch","inputs":[{"name":"proposalId","type":"bytes32","internalType":"bytes32"}],"outputs":[],"stateMutability":"payable"},{"type":"function","name":"getBatchIdBalances","inputs":[{"name":"vault","type":"address","internalType":"address"},{"name":"batchId","type":"bytes32","internalType":"bytes32"}],"outputs":[{"name":"deposited","type":"uint256","internalType":"uint256"},{"name":"requested","type":"uint256","internalType":"uint256"}],"stateMutability":"view"},{"type":"function","name":"getDNVaultByAsset","inputs":[{"name":"asset","type":"address","internalType":"address"}],"outputs":[{"name":"vault","type":"address","internalType":"address"}],"stateMutability":"view"},{"type":"function","name":"getMaxAllowedDelta","inputs":[],"outputs":[{"name":"","type":"uint256","internalType":"uint256"}],"stateMutability":"view"},{"type":"function","name":"getPendingProposals","inputs":[{"name":"vault","type":"address","internalType":"address"}],"outputs":[{"name":"pendingProposals","type":"bytes32[]","internalType":"bytes32[]"}],"stateMutability":"view"},{"type":"function","name":"getRequestedShares","inputs":[{"name":"vault","type":"address","internalType":"address"},{"name":"batchId","type":"bytes32","internalType":"bytes32"}],"outputs":[{"name":"","type":"uint256","internalType":"uint256"}],"stateMutability":"view"},{"type":"function","name":"getSettlementCooldown","inputs":[],"outputs":[{"name":"","type":"uint256","internalType":"uint256"}],"stateMutability":"view"},{"type":"function","name":"getSettlementProposal","inputs":[{"name":"proposalId","type":"bytes32","internalType":"bytes32"}],"outputs":[{"name":"proposal","type":"tuple","internalType":"struct IkAssetRouter.VaultSettlementProposal","components":[{"name":"asset","type":"address","internalType":"address"},{"name":"vault","type":"address","internalType":"address"},{"name":"batchId","type":"bytes32","internalType":"bytes32"},{"name":"totalAssets","type":"uint256","internalType":"uint256"},{"name":"netted","type":"int256","internalType":"int256"},{"name":"yield","type":"int256","internalType":"int256"},{"name":"executeAfter","type":"uint64","internalType":"uint64"},{"name":"lastFeesChargedManagement","type":"uint64","internalType":"uint64"},{"name":"lastFeesChargedPerformance","type":"uint64","internalType":"uint64"}]}],"stateMutability":"view"},{"type":"function","name":"initialize","inputs":[{"name":"registry_","type":"address","internalType":"address"}],"outputs":[],"stateMutability":"nonpayable"},{"type":"function","name":"isPaused","inputs":[],"outputs":[{"name":"","type":"bool","internalType":"bool"}],"stateMutability":"view"},{"type":"function","name":"kAssetPush","inputs":[{"name":"_asset","type":"address","internalType":"address"},{"name":"amount","type":"uint256","internalType":"uint256"},{"name":"batchId","type":"bytes32","internalType":"bytes32"}],"outputs":[],"stateMutability":"payable"},{"type":"function","name":"kAssetRequestPull","inputs":[{"name":"_asset","type":"address","internalType":"address"},{"name":"amount","type":"uint256","internalType":"uint256"},{"name":"batchId","type":"bytes32","internalType":"bytes32"}],"outputs":[],"stateMutability":"payable"},{"type":"function","name":"kAssetTransfer","inputs":[{"name":"sourceVault","type":"address","internalType":"address"},{"name":"targetVault","type":"address","internalType":"address"},{"name":"_asset","type":"address","internalType":"address"},{"name":"amount","type":"uint256","internalType":"uint256"},{"name":"batchId","type":"bytes32","internalType":"bytes32"}],"outputs":[],"stateMutability":"payable"},{"type":"function","name":"kSharesRequestPull","inputs":[{"name":"sourceVault","type":"address","internalType":"address"},{"name":"amount","type":"uint256","internalType":"uint256"},{"name":"batchId","type":"bytes32","internalType":"bytes32"}],"outputs":[],"stateMutability":"payable"},{"type":"function","name":"kSharesRequestPush","inputs":[{"name":"sourceVault","type":"address","internalType":"address"},{"name":"amount","type":"uint256","internalType":"uint256"},{"name":"batchId","type":"bytes32","internalType":"bytes32"}],"outputs":[],"stateMutability":"payable"},{"type":"function","name":"multicall","inputs":[{"name":"data","type":"bytes[]","internalType":"bytes[]"}],"outputs":[{"name":"","type":"bytes[]","internalType":"bytes[]"}],"stateMutability":"payable"},{"type":"function","name":"proposeSettleBatch","inputs":[{"name":"asset","type":"address","internalType":"address"},{"name":"vault","type":"address","internalType":"address"},{"name":"batchId","type":"bytes32","internalType":"bytes32"},{"name":"totalAssets_","type":"uint256","internalType":"uint256"},{"name":"lastFeesChargedManagement","type":"uint64","internalType":"uint64"},{"name":"lastFeesChargedPerformance","type":"uint64","internalType":"uint64"}],"outputs":[{"name":"proposalId","type":"bytes32","internalType":"bytes32"}],"stateMutability":"payable"},{"type":"function","name":"proxiableUUID","inputs":[],"outputs":[{"name":"","type":"bytes32","internalType":"bytes32"}],"stateMutability":"view"},{"type":"function","name":"registry","inputs":[],"outputs":[{"name":"","type":"address","internalType":"address"}],"stateMutability":"view"},{"type":"function","name":"rescueAssets","inputs":[{"name":"asset_","type":"address","internalType":"address"},{"name":"to_","type":"address","internalType":"address"},{"name":"amount_","type":"uint256","internalType":"uint256"}],"outputs":[],"stateMutability":"payable"},{"type":"function","name":"setMaxAllowedDelta","inputs":[{"name":"maxDelta_","type":"uint256","internalType":"uint256"}],"outputs":[],"stateMutability":"nonpayable"},{"type":"function","name":"setPaused","inputs":[{"name":"paused_","type":"bool","internalType":"bool"}],"outputs":[],"stateMutability":"nonpayable"},{"type":"function","name":"setSettlementCooldown","inputs":[{"name":"cooldown","type":"uint256","internalType":"uint256"}],"outputs":[],"stateMutability":"nonpayable"},{"type":"function","name":"upgradeToAndCall","inputs":[{"name":"newImplementation","type":"address","internalType":"address"},{"name":"data","type":"bytes","internalType":"bytes"}],"outputs":[],"stateMutability":"payable"},{"type":"function","name":"virtualBalance","inputs":[{"name":"vault","type":"address","internalType":"address"},{"name":"asset","type":"address","internalType":"address"}],"outputs":[{"name":"","type":"uint256","internalType":"uint256"}],"stateMutability":"view"},{"type":"event","name":"AssetsPushed","inputs":[{"name":"from","type":"address","indexed":true,"internalType":"address"},{"name":"amount","type":"uint256","indexed":false,"internalType":"uint256"}],"anonymous":false},{"type":"event","name":"AssetsRequestPulled","inputs":[{"name":"vault","type":"address","indexed":true,"internalType":"address"},{"name":"asset","type":"address","indexed":true,"internalType":"address"},{"name":"amount","type":"uint256","indexed":false,"internalType":"uint256"}],"anonymous":false},{"type":"event","name":"AssetsTransfered","inputs":[{"name":"sourceVault","type":"address","indexed":true,"internalType":"address"},{"name":"targetVault","type":"address","indexed":true,"internalType":"address"},{"name":"asset","type":"address","indexed":true,"internalType":"address"},{"name":"amount","type":"uint256","indexed":false,"internalType":"uint256"}],"anonymous":false},{"type":"event","name":"BatchSettled","inputs":[{"name":"vault","type":"address","indexed":true,"internalType":"address"},{"name":"batchId","type":"bytes32","indexed":true,"internalType":"bytes32"},{"name":"totalAssets","type":"uint256","indexed":false,"internalType":"uint256"}],"anonymous":false},{"type":"event","name":"ContractInitialized","inputs":[{"name":"registry","type":"address","indexed":true,"internalType":"address"}],"anonymous":false},{"type":"event","name":"Deposited","inputs":[{"name":"vault","type":"address","indexed":true,"internalType":"address"},{"name":"asset","type":"address","indexed":true,"internalType":"address"},{"name":"amount","type":"uint256","indexed":false,"internalType":"uint256"}],"anonymous":false},{"type":"event","name":"Initialized","inputs":[{"name":"version","type":"uint64","indexed":false,"internalType":"uint64"}],"anonymous":false},{"type":"event","name":"MaxAllowedDeltaUpdated","inputs":[{"name":"oldTolerance","type":"uint256","indexed":false,"internalType":"uint256"},{"name":"newTolerance","type":"uint256","indexed":false,"internalType":"uint256"}],"anonymous":false},{"type":"event","name":"Paused","inputs":[{"name":"paused_","type":"bool","indexed":false,"internalType":"bool"}],"anonymous":false},{"type":"event","name":"PegProtectionActivated","inputs":[{"name":"vault","type":"address","indexed":true,"internalType":"address"},{"name":"shortfall","type":"uint256","indexed":false,"internalType":"uint256"}],"anonymous":false},{"type":"event","name":"PegProtectionExecuted","inputs":[{"name":"sourceVault","type":"address","indexed":true,"internalType":"address"},{"name":"targetVault","type":"address","indexed":true,"internalType":"address"},{"name":"amount","type":"uint256","indexed":false,"internalType":"uint256"}],"anonymous":false},{"type":"event","name":"RescuedAssets","inputs":[{"name":"asset_","type":"address","indexed":true,"internalType":"address"},{"name":"to_","type":"address","indexed":true,"internalType":"address"},{"name":"amount_","type":"uint256","indexed":false,"internalType":"uint256"}],"anonymous":false},{"type":"event","name":"RescuedETH","inputs":[{"name":"to_","type":"address","indexed":true,"internalType":"address"},{"name":"amount_","type":"uint256","indexed":false,"internalType":"uint256"}],"anonymous":false},{"type":"event","name":"SettlementCancelled","inputs":[{"name":"proposalId","type":"bytes32","indexed":true,"internalType":"bytes32"},{"name":"vault","type":"address","indexed":true,"internalType":"address"},{"name":"batchId","type":"bytes32","indexed":true,"internalType":"bytes32"}],"anonymous":false},{"type":"event","name":"SettlementCooldownUpdated","inputs":[{"name":"oldCooldown","type":"uint256","indexed":false,"internalType":"uint256"},{"name":"newCooldown","type":"uint256","indexed":false,"internalType":"uint256"}],"anonymous":false},{"type":"event","name":"SettlementExecuted","inputs":[{"name":"proposalId","type":"bytes32","indexed":true,"internalType":"bytes32"},{"name":"vault","type":"address","indexed":true,"internalType":"address"},{"name":"batchId","type":"bytes32","indexed":true,"internalType":"bytes32"},{"name":"executor","type":"address","indexed":false,"internalType":"address"}],"anonymous":false},{"type":"event","name":"SettlementProposed","inputs":[{"name":"proposalId","type":"bytes32","indexed":true,"internalType":"bytes32"},{"name":"vault","type":"address","indexed":true,"internalType":"address"},{"name":"batchId","type":"bytes32","indexed":true,"internalType":"bytes32"},{"name":"totalAssets","type":"uint256","indexed":false,"internalType":"uint256"},{"name":"netted","type":"int256","indexed":false,"internalType":"int256"},{"name":"yield","type":"int256","indexed":false,"internalType":"int256"},{"name":"executeAfter","type":"uint256","indexed":false,"internalType":"uint256"},{"name":"lastFeesChargedManagement","type":"uint256","indexed":false,"internalType":"uint256"},{"name":"lastFeesChargedPerformance","type":"uint256","indexed":false,"internalType":"uint256"}],"anonymous":false},{"type":"event","name":"SettlementUpdated","inputs":[{"name":"proposalId","type":"bytes32","indexed":true,"internalType":"bytes32"},{"name":"totalAssets","type":"uint256","indexed":false,"internalType":"uint256"},{"name":"netted","type":"uint256","indexed":false,"internalType":"uint256"},{"name":"yield","type":"uint256","indexed":false,"internalType":"uint256"},{"name":"profit","type":"bool","indexed":false,"internalType":"bool"}],"anonymous":false},{"type":"event","name":"SharesRequestedPulled","inputs":[{"name":"vault","type":"address","indexed":true,"internalType":"address"},{"name":"batchId","type":"bytes32","indexed":true,"internalType":"bytes32"},{"name":"amount","type":"uint256","indexed":false,"internalType":"uint256"}],"anonymous":false},{"type":"event","name":"SharesRequestedPushed","inputs":[{"name":"vault","type":"address","indexed":true,"internalType":"address"},{"name":"batchId","type":"bytes32","indexed":true,"internalType":"bytes32"},{"name":"amount","type":"uint256","indexed":false,"internalType":"uint256"}],"anonymous":false},{"type":"event","name":"SharesSettled","inputs":[{"name":"vaults","type":"address[]","indexed":false,"internalType":"address[]"},{"name":"batchId","type":"bytes32","indexed":true,"internalType":"bytes32"},{"name":"totalRequestedShares","type":"uint256","indexed":false,"internalType":"uint256"},{"name":"totalAssets","type":"uint256[]","indexed":false,"internalType":"uint256[]"},{"name":"sharePrice","type":"uint256","indexed":false,"internalType":"uint256"}],"anonymous":false},{"type":"event","name":"Upgraded","inputs":[{"name":"implementation","type":"address","indexed":true,"internalType":"address"}],"anonymous":false},{"type":"event","name":"YieldDistributed","inputs":[{"name":"vault","type":"address","indexed":true,"internalType":"address"},{"name":"yield","type":"int256","indexed":false,"internalType":"int256"}],"anonymous":false},{"type":"event","name":"YieldExceedsMaxDeltaWarning","inputs":[{"name":"vault","type":"address","indexed":false,"internalType":"address"},{"name":"asset","type":"address","indexed":false,"internalType":"address"},{"name":"batchId","type":"bytes32","indexed":false,"internalType":"bytes32"},{"name":"yield","type":"int256","indexed":false,"internalType":"int256"},{"name":"maxAllowedYield","type":"uint256","indexed":false,"internalType":"uint256"}],"anonymous":false},{"type":"error","name":"InvalidInitialization","inputs":[]},{"type":"error","name":"NotInitializing","inputs":[]},{"type":"error","name":"Reentrancy","inputs":[]},{"type":"error","name":"UnauthorizedCallContext","inputs":[]},{"type":"error","name":"UpgradeFailed","inputs":[]}],"bytecode":{"object":"0x60a080604052346099573060805263409feecd195460018116608c5760011c6002600160401b0319016048575b614618908161009e8239608051818181611399015261144b0152f35b6002600160411b0363409feecd19556001600160401b0360209081527fc7f505b2f371ae2175ee4913f4499e1f2633a7b5936321eed1cdaeb6115181d29080a1602c565b63f92ee8a95f526004601cfd5b5f80fdfe60a0604052600436101561001a575b3615610018575f80fd5b005b5f6080525f3560e01c80630fa375921461374557806310d03d641461284e57806316c38b3c146126e257806337376ca8146125655780633e25562e1461180a578063410765381461164357806346b6aa23146115645780634f1ef286146113f657806352d1902d1461138457806353a7f925146113175780636ad3182d146112e357806375d0c0dc14611281578063778bd228146112435780637b103999146112165780638f6b6ee21461114057806395f4042b1461101a578063a0a8e46014610fb8578063a8412deb14610e3f578063ac9650d814610d07578063b0b3242d14610ba1578063b187bd2614610b7b578063bff9c21a14610ac9578063c31fd6aa14610a8a578063c34ee62714610a4c578063c4d66de8146107f7578063c609909214610600578063d01b5de414610343578063d0fab2581461026c5763d7eebeaf0361000e5761016a3661384a565b91610173613c14565b61017b613c43565b61018e610186613f68565b83151561393a565b610197336141cb565b6101d1816001600160a01b03165f527f72fdaf6608fcd614cdab8afd23d0b707bfc44e685019cc3a5ace611655fe7f0760205260405f2090565b83608051526020526040608051208054906080515083820180921161023b57556040519182526001600160a01b0316907f1230d10fa54cf4fa480deb2fa6a8b12962f8e88b2b57230c541d55851011e6a590602090a3608051688000000000ab143c065d60805180f35b7f4e487b71000000000000000000000000000000000000000000000000000000006080515260116004526024608051fd5b3461033d57602060031936011261033d576102856137db565b60206001600160a01b0360448161029a614192565b169360405194859384927fe36bea44000000000000000000000000000000000000000000000000000000008452166004830152600160248301525afa80156103305760209160805191610303575b506102f281614455565b6001600160a01b0360405191168152f35b6103239150823d8411610329575b61031b81836138be565b810190613ae4565b826102e8565b503d610311565b6040513d608051823e3d90fd5b60805180fd5b606060031936011261033d576103576137db565b61035f6137f1565b9060443561037d61036f33614383565b610377613984565b9061393a565b6001600160a01b038316926040926103cc845161039a86826138be565b600281527f4b35000000000000000000000000000000000000000000000000000000000000602082015286151561393a565b6001600160a01b038116908161053057505081151580610526575b6103f390610377613bd9565b6080519081908190819085905af1903d156104f9573d9267ffffffffffffffff84116104c8576104bc60209385857fffffffffffffffffffffffffffffffffffffffffffffffffffffffffffffffe0601f7f63b8c8e180bc85c19daef23e2bb787fb49672d3a9ecde24409c18ccb1accb5d19901160190610476855192836138be565b81526080513d9187013e5b82519061048e84836138be565b600282527f4b370000000000000000000000000000000000000000000000000000000000008683015261393a565b51908152a25b60805180f35b7f4e487b71000000000000000000000000000000000000000000000000000000006080515260416004526024608051fd5b7f63b8c8e180bc85c19daef23e2bb787fb49672d3a9ecde24409c18ccb1accb5d1926104bc602093610481565b50478211156103e7565b936105be84602094876105a46105687f552c8f8dc30f2786e14004d98595afcc1c0ea1f552b86e86f64a2da74761eaab99979a6143fa565b1586519061057688836138be565b600282527f4b380000000000000000000000000000000000000000000000000000000000008a83015261393a565b821515806105c8575b6105b990610377613bd9565b6142e8565b51908152a36104c2565b50306014526f70a08231000000000000000000000000608051526105b9878060246010855afa601f3d111688510284111590506105ad565b60a060031936011261033d576106146137db565b61061c6137f1565b6044356001600160a01b038116929183820361033d5760206001600160a01b03807f710dc442f97591ada42c89862a834ebac6dd641869d3bfa3707b37661397c93f936107d86064359661073960843591610675613c14565b61067d613c43565b610690610688613f68565b8b151561393a565b610699336141cb565b6fffffffffffffffffffffffffffffffff6106b38b6142ad565b6106ed8d6001600160a01b03165f527f72fdaf6608fcd614cdab8afd23d0b707bfc44e685019cc3a5ace611655fe7f0660205260405f2090565b85608051528a526107076040608051209183835416613ab2565b81547fffffffffffffffffffffffffffffffff000000000000000000000000000000001692169182179055908b61425f565b610742886142ad565b9061077d846001600160a01b03165f527f72fdaf6608fcd614cdab8afd23d0b707bfc44e685019cc3a5ace611655fe7f0660205260405f2090565b9060805152865261079860406080512091825460801c613ab2565b6fffffffffffffffffffffffffffffffff7fffffffffffffffffffffffffffffffff0000000000000000000000000000000083549260801b169116179055565b60405195865216941692a4608051688000000000ab143c065d60805180f35b3461033d57602060031936011261033d576108106137db565b7fffffffffffffffffffffffffffffffffffffffffffffffffffffffffbf601132809181548060038455610a07575b50740100000000000000000000000000000000000000007fffffffffffffffffffff00000000000000000000000000000000000000000000916001600160a01b037fe91688684975c4d7d54a65dd96da5d4dcbb54b8971c046d5351d3c111e43a80054916108eb6040516108b46040826138be565b600281527f4b31000000000000000000000000000000000000000000000000000000000000602082015260ff8560a01c161561393a565b169283916109326040516109006040826138be565b600281527f4b32000000000000000000000000000000000000000000000000000000000000602082015284151561393a565b1617177fe91688684975c4d7d54a65dd96da5d4dcbb54b8971c046d5351d3c111e43a80055610e107f72fdaf6608fcd614cdab8afd23d0b707bfc44e685019cc3a5ace611655fe7f01556103e87f72fdaf6608fcd614cdab8afd23d0b707bfc44e685019cc3a5ace611655fe7f02557fb8bb5a08c752924168166e254455ca6708ef2ac4cfd39bba39eb5a5b89f0cbd6608051608051a26109d35760805180f35b6002905560016020527fc7f505b2f371ae2175ee4913f4499e1f2633a7b5936321eed1cdaeb6115181d2602080a1806104c2565b909150600181811c14303b1015610a3d5760ff1b9190911b9081907401000000000000000000000000000000000000000061083f565b63f92ee8a9608051526004601cfd5b3461033d5760805160031936011261033d5760207f72fdaf6608fcd614cdab8afd23d0b707bfc44e685019cc3a5ace611655fe7f0154604051908152f35b3461033d57602060031936011261033d57610aa6600435613b03565b90610ac560405192839215158352604060208401526040830190613807565b0390f35b3461033d57604060031936011261033d57610b1b610ae56137db565b6001600160a01b03165f527f72fdaf6608fcd614cdab8afd23d0b707bfc44e685019cc3a5ace611655fe7f0660205260405f2090565b60243560805152602052604060805120604051604081019080821067ffffffffffffffff8311176104c857604092602092845254906fffffffffffffffffffffffffffffffff82169182825260801c928391015282519182526020820152f35b3461033d5760805160031936011261033d576020610b97614342565b6040519015158152f35b3461033d57602060031936011261033d57604051610bbe81613874565b6080518152608051602082015260805160408201526080516060820152608051608082015260805160a082015260805160c082015260805160e0820152610100608051910152600435608051527f72fdaf6608fcd614cdab8afd23d0b707bfc44e685019cc3a5ace611655fe7f0860205261012060406080512067ffffffffffffffff6001600160a01b038160405193610c5785613874565b81838254169586815284600184015416926020820193845260028101546040830190815260038201546060840190815260048301549160808501928352600660058501549460a0870195865201549889978761010060c0890198828c168a528260e082019c60401c168c52019b60801c168b526040519c8d52511660208c01525160408b01525160608a01525160808901525160a0880152511660c0860152511660e08401525116610100820152f35b602060031936011261033d5760043567ffffffffffffffff811161033d573660238201121561033d57806004013567ffffffffffffffff811161033d578060051b366024828501011161033d573461033d576040519283926020845280846020015260408481019380602485018637850101928391610d9e575b505050806040520360401b178060401c9067ffffffffffffffff16f35b919350915b8091604481518601602481013591829101843760805190389084305af415610e3457603f67ffffffffffffffe0917fffffffffffffffffffffffffffffffffffffffffffffffffffffffffffffffc0888503018152602001923d81523d608051602083013e3d010116916020608051913d0101528483821015610e27575090610da3565b9350509050838080610d81565b853d608051823e3d90fd5b610e483661384a565b610e53929192613c14565b610e5b613c43565b610e6e610e66613f68565b84151561393a565b610e7733614215565b6001600160a01b03610e87614192565b6040517f4c472fc90000000000000000000000000000000000000000000000000000000081523360048201526001600160a01b03851660248201529160209183916044918391165afa801561033057610f59936001600160a01b038692610ef99460805191610f99575b5016906142e8565b610f02836142ad565b90610f3d336001600160a01b03165f527f72fdaf6608fcd614cdab8afd23d0b707bfc44e685019cc3a5ace611655fe7f0660205260405f2090565b906080515260205261079860406080512091825460801c613ab2565b6040519081527f4c56d82314c7ba16ae8b6c8f189249e688d64c23ce4ad32dce3533e7e14b550a60203392a2608051688000000000ab143c065d60805180f35b610fb2915060203d6020116103295761031b81836138be565b88610ef1565b3461033d5760805160031936011261033d5760408051610ac591610fdc90826138be565b600581527f312e302e300000000000000000000000000000000000000000000000000000006020820152604051918291602083526020830190613807565b6001600160a01b0361102b3661384a565b61103793929193613c14565b61103f613c43565b61105261104a613f68565b85151561393a565b61105b33614215565b61106684833361425f565b61106f846142ad565b906110aa336001600160a01b03165f527f72fdaf6608fcd614cdab8afd23d0b707bfc44e685019cc3a5ace611655fe7f0660205260405f2090565b90608051526020526fffffffffffffffffffffffffffffffff6110d66040608051209282845416613ab2565b167fffffffffffffffffffffffffffffffff0000000000000000000000000000000082541617905560405192835216907fd95447b6ffc5599057ab190458c076456cdd9029001c51c670a5734cef8ebf7660203392a3608051688000000000ab143c065d60805180f35b60206001600160a01b037f5cd8a9107e6e9586b797145cd0c5d437a526622477140ec7c4db00304c015a3d6111743661384a565b9491611181949194613c14565b611189613c43565b61119c611194613f68565b86151561393a565b6111a5336141cb565b6111df816001600160a01b03165f527f72fdaf6608fcd614cdab8afd23d0b707bfc44e685019cc3a5ace611655fe7f0760205260405f2090565b866080515283526040608051206111f7868254613aa5565b90556040519485521692a3608051688000000000ab143c065d60805180f35b3461033d5760805160031936011261033d5760206001600160a01b0361123a614192565b16604051908152f35b3461033d5760805160031936011261033d5760207f72fdaf6608fcd614cdab8afd23d0b707bfc44e685019cc3a5ace611655fe7f0254604051908152f35b3461033d5760805160031936011261033d5760408051610ac5916112a590826138be565b600c81527f6b4173736574526f7574657200000000000000000000000000000000000000006020820152604051918291602083526020830190613807565b3461033d57604060031936011261033d57602061130f6113016137db565b6113096137f1565b90613fa3565b604051908152f35b3461033d57604060031936011261033d576113696113336137db565b6001600160a01b03165f527f72fdaf6608fcd614cdab8afd23d0b707bfc44e685019cc3a5ace611655fe7f0760205260405f2090565b60243560805152602052602060406080512054604051908152f35b3461033d5760805160031936011261033d57307f0000000000000000000000000000000000000000000000000000000000000000036113e75760206040517f360894a13ba1a3210667c828492db98dca3e2076cc3735a920a3ca505d382bbc8152f35b639f03a026608051526004601cfd5b604060031936011261033d5761140a6137db565b6024359067ffffffffffffffff821161033d573660238301121561033d5781600401359067ffffffffffffffff821161033d57366024838501011161033d577f000000000000000000000000000000000000000000000000000000000000000030146113e7576001600160a01b039061148d61148533614383565b6103776139fa565b61149681614455565b163d608051526352d1902d6001527f360894a13ba1a3210667c828492db98dca3e2076cc3735a920a3ca505d382bbc602060016004601d855afa510361155657807fbc7cd75a20ee27fd9adebab32041f755214dbc6bffa90cc0225b39da2e5c2d3b608051608051a281817f360894a13ba1a3210667c828492db98dca3e2076cc3735a920a3ca505d382bbc5561152d5760805180f35b81602460405194018437608051918338925af41561154c5780806104c2565b3d608051823e3d90fd5b6355299b496001526004601dfd5b3461033d57602060031936011261033d577fa8d4d847ed037a895f411bea9d10f2f41ab2426d173647974c6520abe4c3ef2760406004356115a761148533614383565b6115ec82516115b684826138be565b600281527f413700000000000000000000000000000000000000000000000000000000000060208201526201518083111561393a565b7f72fdaf6608fcd614cdab8afd23d0b707bfc44e685019cc3a5ace611655fe7f015490807f72fdaf6608fcd614cdab8afd23d0b707bfc44e685019cc3a5ace611655fe7f015582519182526020820152a160805180f35b3461033d57602060031936011261033d5761169561165f6137db565b6001600160a01b03165f527f72fdaf6608fcd614cdab8afd23d0b707bfc44e685019cc3a5ace611655fe7f0560205260405f2090565b6318fb586460045260805152602460805120801954906040519182602001811561178b575060011c906080515b8281106117665750506020905b80835260051b82010160405261172081511515604051906116f16040836138be565b600382527f4131300000000000000000000000000000000000000000000000000000000000602083015261393a565b6040518091602082016020835281518091526020604084019201906080515b81811061174d575050500390f35b825184528594506020938401939092019160010161173f565b8060019183015468fbb67fda52d4bfb8bf8114150260208260051b87010152016116c2565b8260209354918261179f575b5050506116cf565b9091925060019268fbb67fda52d4bfb8bf81141502905281810154806117c6575b80611797565b68fbb67fda52d4bfb8bf811415026040850152600290810154909150806117ee575b806117c0565b68fbb67fda52d4bfb8bf811415026060840152506003836117e8565b60c060031936011261033d5761181e6137db565b6118266137f1565b9060443560643591608051506084359067ffffffffffffffff821680920361033d5760a43567ffffffffffffffff8116949085900361033d57611867613c14565b61186f613c43565b602460206001600160a01b03611883614192565b16604051928380927f541d55480000000000000000000000000000000000000000000000000000000082523360048301525afa8015610330576118d29160805191612546575b506103776139fa565b608080516318fb58646004527f72fdaf6608fcd614cdab8afd23d0b707bfc44e685019cc3a5ace611655fe7f0481529051602490209095908568fbb67fda52d4bfb8bf81146123d3578615612536575b81199182549181602052821561247e575b80608051526040608051209283541561245a5750505050505b61198e60409687519061195f89836138be565b600282527f4133000000000000000000000000000000000000000000000000000000000000602083015261393a565b6001600160a01b0387169386517f40aa1f40000000000000000000000000000000000000000000000000000000008152866004820152602081602481895afa90811561244e5790611a1f916080519161241f575b508851906119f08a836138be565b600382527f4132310000000000000000000000000000000000000000000000000000000000602083015261393a565b611a298489613fa3565b60a06001600160a01b0360017f72fdaf6608fcd614cdab8afd23d0b707bfc44e685019cc3a5ace611655fe7f00540196877f72fdaf6608fcd614cdab8afd23d0b707bfc44e685019cc3a5ace611655fe7f00551695895190888252876020830152898b83015242606083015260808201522098611ad6816001600160a01b03165f527f72fdaf6608fcd614cdab8afd23d0b707bfc44e685019cc3a5ace611655fe7f0560205260405f2090565b608051506318fb5864600452608051526024608051208019548060011c9015159180541560026001830154159201541593156123e2575b5050611b5191508a5190611b218c836138be565b600382527f413230000000000000000000000000000000000000000000000000000000000060208301521561393a565b608080516318fb58646004527f72fdaf6608fcd614cdab8afd23d0b707bfc44e685019cc3a5ace611655fe7f03905251602490208a68fbb67fda52d4bfb8bf81146123d3578b1591826123c2575b801954156123835760205260805152611bf78a608051205415155b8b5190611bc78d836138be565b600382527f413133000000000000000000000000000000000000000000000000000000000060208301521561393a565b611c31826001600160a01b03165f527f72fdaf6608fcd614cdab8afd23d0b707bfc44e685019cc3a5ace611655fe7f0560205260405f2090565b608080516318fb58646004529182525160249020918c90612373575b8219928354918160205282156122a6575b80608051528d60805120928354156122825750505050611cb691505b8a5190611c878c836138be565b600382527f4131340000000000000000000000000000000000000000000000000000000000602083015261393a565b611cbf816140d3565b1561204e5780611d02611d73926001600160a01b03165f527f72fdaf6608fcd614cdab8afd23d0b707bfc44e685019cc3a5ace611655fe7f0660205260405f2090565b8960805152602052611d4d8a608051205460801c916001600160a01b03165f527f72fdaf6608fcd614cdab8afd23d0b707bfc44e685019cc3a5ace611655fe7f0660205260405f2090565b89608051526020526fffffffffffffffffffffffffffffffff8a60805120541690613a4d565b611d7d8286613a4d565b9080860192818412608051881290801582169115161761023b57808b91611fc8575b50507f72fdaf6608fcd614cdab8afd23d0b707bfc44e685019cc3a5ace611655fe7f015442019268010000000000000000841015611fb95784868d998a8e88958f8f835195611ded87613874565b8652602086019081528386019182526060860192835260808601938a855260a08701958c875260c088019a67ffffffffffffffff168b5260e08801998a526101008801988952608051527f72fdaf6608fcd614cdab8afd23d0b707bfc44e685019cc3a5ace611655fe7f086020526080512095516001600160a01b03166001600160a01b031686547fffffffffffffffffffffffff000000000000000000000000000000000000000016178655516001600160a01b031660018601906001600160a01b031681547fffffffffffffffffffffffff000000000000000000000000000000000000000016179055516002850155516003840155516004830155516005820155600601925167ffffffffffffffff168d84549351901b6fffffffffffffffff000000000000000016915160801b77ffffffffffffffff0000000000000000000000000000000016927fffffffffffffffff00000000000000000000000000000000000000000000000016171717905589519586526020860152888501526060840152608083015260a082015260c07fbf9fe4a18fb0d2f9902d99e958ec41370c41b4e41657141a31b44e206bf7ec3591a4608051688000000000ab143c065d51908152602090f35b6335278d12608051526004601cfd5b611ff7612710917f72fdaf6608fcd614cdab8afd23d0b707bfc44e685019cc3a5ace611655fe7f025490613a92565b04808460ff1d808601181115611d9f578160a0918c7e1f1157c3ec7dc0509bb1b6fab05fa542bbfbeb386e304c963567a821b3dd0c9451928d84528c60208501528301528560608301526080820152a1898c611d9f565b8851907f18160ddd0000000000000000000000000000000000000000000000000000000082526020826004818b5afa918215612276576080519261223e575b5081158015612236575b1561213e5761213991506120db816001600160a01b03165f527f72fdaf6608fcd614cdab8afd23d0b707bfc44e685019cc3a5ace611655fe7f0760205260405f2090565b89608051526020526121238a6080512054916001600160a01b03165f527f72fdaf6608fcd614cdab8afd23d0b707bfc44e685019cc3a5ace611655fe7f0660205260405f2090565b896080515260205289608051205460801c613a4d565b611d73565b612178816001600160a01b03165f527f72fdaf6608fcd614cdab8afd23d0b707bfc44e685019cc3a5ace611655fe7f0760205260405f2090565b896080515260205289608051205491608051508683029281811589838704141702156121af57506121239061213993045b91610ae5565b9281885f1981870983811084019003950982608051038316908584111561222757612139958261212395048060030260021880820260020302808202600203028082026002030280820260020302808202600203028091026002030293600184848303049480608051030401921190030217026121a9565b63ae47f702608051526004601cfd5b508515612097565b9091506020813d60201161226e575b8161225a602093836138be565b8101031261226a5751908b61208d565b5f80fd5b3d915061224d565b8a513d608051823e3d90fd5b909192935060011c8092015560010180915560011b6001179055611cb66001611c7a565b91508054801561236457828114612357578d6001830180549081156123445750848114612335576002840192835493841561232157508584146123115790600292916080515260018260805120556080515260805120556080515260038d6080512055600791611c5e565b505050505050611cb69150611c7a565b96505050505050915055611cb66001611c7a565b5050505050611cb69150611c7a565b955050505050915055611cb66001611c7a565b505050611cb69150611c7a565b505550611cb690506001611c7a565b5068fbb67fda52d4bfb8bf611c4d565b90600191818154146123b7578183820154146123b75760020154146123ae5750611bf7608051611bba565b611bf790611bba565b5050611bf790611bba565b68fbb67fda52d4bfb8bf9150611b9f565b63f5a267f1608051526004601cfd5b608051919250612418575060019061241157506002906124095750611b5160038c80611b0d565b808c80611b0d565b8180611b0d565b9080611b0d565b612441915060203d602011612447575b61243981836138be565b810190613a35565b8a6119e2565b503d61242f565b88513d608051823e3d90fd5b9091929394995060011c8092015560010180915560011b600117905560019461194c565b91508054801561252a5782811461252157600182018054908115612510575083811461250657600283019182549283156124f457508483146124e957608051526001604060805120556080515260026040608051205560805152600360406080512055600791611933565b50505050505061194c565b9550505050509196505560019461194c565b505050505061194c565b94505050509196505560019461194c565b5050505061194c565b5055506001955061194c565b5068fbb67fda52d4bfb8bf611922565b61255f915060203d6020116124475761243981836138be565b886118c9565b3461033d57602060031936011261033d57600435612581613c14565b612589613c43565b602460206001600160a01b0361259d614192565b16604051928380927f0c68ba210000000000000000000000000000000000000000000000000000000082523360048301525afa8015610330576125eb91608051916126c357506103776139fa565b80608051527f72fdaf6608fcd614cdab8afd23d0b707bfc44e685019cc3a5ace611655fe7f0860205260406080512060026001600160a01b03600183015416916126796126718561266c866001600160a01b03165f527f72fdaf6608fcd614cdab8afd23d0b707bfc44e685019cc3a5ace611655fe7f0560205260405f2090565b613dbd565b6103776138ff565b016126848154613c8f565b5054917fef597a7069e38df320d1d2425e591c723b3d5a3285b98942f803ccff555b67d2608051608051a4608051688000000000ab143c065d60805180f35b6126dc915060203d6020116124475761243981836138be565b836118c9565b3461033d57602060031936011261033d5760043580151580910361033d5760249060206001600160a01b03612715614192565b16604051938480927f2500f2b60000000000000000000000000000000000000000000000000000000082523360048301525afa908115610330576127896020927f0e2fb031ee032dc02d8011dc50b816eb450cf856abd8261680dac74f72165bd29460805191612831575b50610377613984565b7fe91688684975c4d7d54a65dd96da5d4dcbb54b8971c046d5351d3c111e43a800546127c26127b66139bf565b60ff8360a01c1661393a565b7fffffffffffffffffffff00ffffffffffffffffffffffffffffffffffffffffff75ff0000000000000000000000000000000000000000008360a81b169116177fe91688684975c4d7d54a65dd96da5d4dcbb54b8971c046d5351d3c111e43a80055604051908152a160805180f35b6128489150843d86116124475761243981836138be565b85612780565b602060031936011261226a57600435612865613c14565b61286d613c43565b805f527f72fdaf6608fcd614cdab8afd23d0b707bfc44e685019cc3a5ace611655fe7f0860205260405f2060018101916001600160a01b03835416916128ea6126718361266c866001600160a01b03165f527f72fdaf6608fcd614cdab8afd23d0b707bfc44e685019cc3a5ace611655fe7f0560205260405f2090565b600681019067ffffffffffffffff8254164210159461294160409687519061291289836138be565b600282527f4135000000000000000000000000000000000000000000000000000000000000602083015261393a565b61294a84613e2c565b506001600160a01b0380835416915416906002830154936003840154916024600486015460058701546129ad876001600160a01b03165f527f72fdaf6608fcd614cdab8afd23d0b707bfc44e685019cc3a5ace611655fe7f0660205260405f2090565b895f526020528b6fffffffffffffffffffffffffffffffff815f205416916129d36144a2565b9660206001600160a01b036129e6614192565b168451978880927fa3863a950000000000000000000000000000000000000000000000000000000082528b60048301525afa95861561373b57876001600160a01b03612ad7986020935f9161371e575b501694612a798151612a4883826138be565b600381527f4b313000000000000000000000000000000000000000000000000000000000008582015287151561393a565b8c6001600160a01b03612a8a614192565b169151809a819482937f4c472fc9000000000000000000000000000000000000000000000000000000008452600484019092916001600160a01b0360209181604085019616845216910152565b03915afa8015613714576001600160a01b0380918c985f916136f5575b501698612b008a614455565b168603612db95750505080612c99575b506080518113612c67575b5090503b1561033d5787517feeb8f2b500000000000000000000000000000000000000000000000000000000815285600482015260805181602481608051885af18015612c5b57612c42575b50803b1561033d578751907f1765b3130000000000000000000000000000000000000000000000000000000082528260048301528160248160805193608051905af1801561244e57612c23575b50917ffddc214c899c631ac36ab6c64ef4a6072b1b77d7e099e4d8977217917a635e8c936002927fedb477cd39fe3c5ba0562ca4f66170f778325877f6895520d694c84f71ddf6a9602080965b8b51908152a301549451338152a4608051688000000000ab143c065d60805180f35b60805192939192612c33916138be565b60805161033d57919087612bb4565b608051612c4e916138be565b60805161033d5788612b67565b89513d608051823e3d90fd5b60207f8752a472e571a816aea92eec8dae9baf628e840f4929fbcc2d155e6233ff68a7918c51908152a3888381612b1b565b91508a51917fbefe31700000000000000000000000000000000000000000000000000000000083528860048401526020836024818a5afa928315612dad5760805193612d8c575b50612cea83614455565b843b1561033d578b517ff2d5d56b0000000000000000000000000000000000000000000000000000000081526080516001600160a01b03861660048301526024820183905290939084806044810103816080518a5af1938415612d80578894612d60575b5090612d5a91856142e8565b8b612b10565b612d7091929450608051906138be565b60805161033d579186928d612d4e565b8d513d608051823e3d90fd5b612da691935060203d6020116103295761031b81836138be565b918c612ce0565b8c513d608051823e3d90fd5b93925094909593612dfa906001600160a01b03165f527f72fdaf6608fcd614cdab8afd23d0b707bfc44e685019cc3a5ace611655fe7f0760205260405f2090565b8a5f526020528c805f20549580613570575b50612e7a916020916001600160a01b03612e24614192565b1690612e2e6144a2565b90518095819482937f4c472fc9000000000000000000000000000000000000000000000000000000008452600484019092916001600160a01b0360209181604085019616845216910152565b03915afa8015612d80576001600160a01b039160805191613551575b501690612ea282614455565b8c51907f01e1d114000000000000000000000000000000000000000000000000000000008252602082600481865afa80156135455760805190613511575b612eea9250613a4d565b90612f01612ef6613f68565b60805184121561393a565b803b1561033d578c51917f1765b31300000000000000000000000000000000000000000000000000000000835260048301528160248160805193608051905af18015612dad576134f8575b5067ffffffffffffffff81548c1c1680613495575b505460801c67ffffffffffffffff1680613432575b50843b1561033d5789517feeb8f2b5000000000000000000000000000000000000000000000000000000008152876004820152608051816024816080518a5af180156133c057613419575b50803b1561033d578951907f1765b3130000000000000000000000000000000000000000000000000000000082528460048301528160248160805193608051905af1801561227657613400575b5080613067575b5050917ffddc214c899c631ac36ab6c64ef4a6072b1b77d7e099e4d8977217917a635e8c936002927fedb477cd39fe3c5ba0562ca4f66170f778325877f6895520d694c84f71ddf6a960208096612c01565b88517fb1791c0d000000000000000000000000000000000000000000000000000000008152602081600481885afa801561227657608051906133cc575b6130af915082613a92565b9089517f87269729000000000000000000000000000000000000000000000000000000008152602081600481895afa9081156133c0576080519161338e575b50801561335d57613100920490613aa5565b8851907f07a2d13a000000000000000000000000000000000000000000000000000000008252806004830152602082602481885afa9182156122765760805192613329575b50806132c6575b50801561301557813b1561033d5788517f9dc29fac0000000000000000000000000000000000000000000000000000000081526080516001600160a01b0386166004830152602482018390528180604481010381608051875af18015612276576132ad575b5060049060206001600160a01b036131c7614192565b168b51938480927f3b19e84a0000000000000000000000000000000000000000000000000000000082525afa918215612276576080519261328c575b50823b1561033d5789517f40c10f190000000000000000000000000000000000000000000000000000000081526080516001600160a01b03909316600482015260248101919091529182908180604481010391608051905af1801561244e5761326d575b80613015565b6080519293919261327d916138be565b60805161033d57919087613267565b6132a691925060203d6020116103295761031b81836138be565b908a613203565b6080516132b9916138be565b60805161033d57896131b1565b843b1561033d578951907f0342a6ba000000000000000000000000000000000000000000000000000000008252600482015260805181602481608051895af18015612276571561314c5760805161331c916138be565b60805161033d578961314c565b9091506020813d602011613355575b81613345602093836138be565b8101031261226a5751908a613145565b3d9150613338565b7f4e487b71000000000000000000000000000000000000000000000000000000006080515260126004526024608051fd5b90506020813d6020116133b8575b816133a9602093836138be565b8101031261226a57518b6130ee565b3d915061339c565b8b513d608051823e3d90fd5b506020813d6020116133f8575b816133e6602093836138be565b8101031261226a576130af90516130a4565b3d91506133d9565b60805161340c916138be565b60805161033d578961300e565b608051613425916138be565b60805161033d578a612fc1565b853b1561033d578a51907f9c8af15f0000000000000000000000000000000000000000000000000000000082526004820152608051816024816080518a5af180156133c05715612f7657608051613488916138be565b60805161033d578a612f76565b863b1561033d578b51907f39d14dce0000000000000000000000000000000000000000000000000000000082526004820152608051816024816080518b5af18015612dad5715612f61576080516134eb916138be565b60805161033d578b612f61565b608051613504916138be565b60805161033d578b612f4c565b506020823d60201161353d575b8161352b602093836138be565b8101031261226a57612eea9151612ee0565b3d915061351e565b8e513d608051823e3d90fd5b61356a915060203d6020116103295761031b81836138be565b8e612e96565b90505f81131561364557863b1561033d578d517f40c10f190000000000000000000000000000000000000000000000000000000081526080516001600160a01b038b166004830152602482018390528f929082806044810103816080518d5af1918215613639578b92613619575b5091612e7a93917fabe7bba351333865347fffa4fee91d7cbacf68d57b5779282cd009ae71deaf65602080955b8451908152a2915091612e0c565b60805191935061362992506138be565b60805161033d57888e915f6135de565b83513d608051823e3d90fd5b8060ff1d91873b1561226a578e517f9dc29fac0000000000000000000000000000000000000000000000000000000081526001600160a01b038b16600482015283830190931860248401528e5f84604481838d5af19283156136eb577fabe7bba351333865347fffa4fee91d7cbacf68d57b5779282cd009ae71deaf6560208d92612e7a9782976136d7575b5061360b565b5f6136e1916138be565b5f6080525f6136d1565b50513d5f823e3d90fd5b61370e915060203d6020116103295761031b81836138be565b5f612af4565b8f513d5f823e3d90fd5b6137359150843d86116103295761031b81836138be565b5f612a36565b83513d5f823e3d90fd5b3461226a57602060031936011261226a577f7d105ab6c5b612e41f22c8da839b22532cfd75478b21f81260fa90ca8d255aa6604060043561378861148533614383565b7f72fdaf6608fcd614cdab8afd23d0b707bfc44e685019cc3a5ace611655fe7f025490807f72fdaf6608fcd614cdab8afd23d0b707bfc44e685019cc3a5ace611655fe7f025582519182526020820152a1005b600435906001600160a01b038216820361226a57565b602435906001600160a01b038216820361226a57565b907fffffffffffffffffffffffffffffffffffffffffffffffffffffffffffffffe0601f602080948051918291828752018686015e5f8582860101520116010190565b600319606091011261226a576004356001600160a01b038116810361226a57906024359060443590565b610120810190811067ffffffffffffffff82111761389157604052565b7f4e487b71000000000000000000000000000000000000000000000000000000005f52604160045260245ffd5b90601f7fffffffffffffffffffffffffffffffffffffffffffffffffffffffffffffffe0910116810190811067ffffffffffffffff82111761389157604052565b6040519061390e6040836138be565b600382527f41313500000000000000000000000000000000000000000000000000000000006020830152565b156139425750565b613980906040519182917f08c379a0000000000000000000000000000000000000000000000000000000008352602060048401526024830190613807565b0390fd5b604051906139936040836138be565b600282527f4b340000000000000000000000000000000000000000000000000000000000006020830152565b604051906139ce6040836138be565b600282527f4b330000000000000000000000000000000000000000000000000000000000006020830152565b60405190613a096040836138be565b600382527f41313600000000000000000000000000000000000000000000000000000000006020830152565b9081602091031261226a5751801515810361226a5790565b81810392915f138015828513169184121617613a6557565b7f4e487b71000000000000000000000000000000000000000000000000000000005f52601160045260245ffd5b81810292918115918404141715613a6557565b91908203918211613a6557565b906fffffffffffffffffffffffffffffffff809116911601906fffffffffffffffffffffffffffffffff8211613a6557565b9081602091031261226a57516001600160a01b038116810361226a5790565b5f527f72fdaf6608fcd614cdab8afd23d0b707bfc44e685019cc3a5ace611655fe7f0860205267ffffffffffffffff600660405f200154168015613b9b574210613b5e57600190604051613b586020826138be565b5f815290565b5f90604051613b6e6040826138be565b601381527f436f6f6c646f776e206e6f742070617373656400000000000000000000000000602082015290565b505f90604051613bac6040826138be565b601281527f50726f706f73616c206e6f7420666f756e640000000000000000000000000000602082015290565b60405190613be86040836138be565b600282527f4b360000000000000000000000000000000000000000000000000000000000006020830152565b688000000000ab143c065c613c315730688000000000ab143c065d565b688000000000ab143c065f526004601cfd5b613c8d613c4e614342565b1560405190613c5e6040836138be565b600282527f4139000000000000000000000000000000000000000000000000000000000000602083015261393a565b565b905f916318fb58646004527f72fdaf6608fcd614cdab8afd23d0b707bfc44e685019cc3a5ace611655fe7f045f5260245f209068fbb67fda52d4bfb8bf8114613db0578015613da0575b811980549182159260011c5f19810191600183811b1794613d4757856020525f5260405f20948554928315613d3e575f9798505f19840103613d20575b5050505555600190565b5f1980849383010154928392010155855260408520555f8080613d16565b50505050505050565b9496505050505060019281815414613d8a5783810182815414613d7b575060020190815414613d7657505f9150565b5f9055565b905f9250600201908154905555565b5f91506002848201918254815501908154905555565b5068fbb67fda52d4bfb8bf613cd9565b63f5a267f15f526004601cfd5b91905f926318fb58646004525f5260245f209068fbb67fda52d4bfb8bf8114613db0578015613da057811980549182159260011c5f19810191600183811b1794613d4757856020525f5260405f20948554928315613d3e575f9798505f19840103613d20575050505555600190565b905f916318fb58646004527f72fdaf6608fcd614cdab8afd23d0b707bfc44e685019cc3a5ace611655fe7f035f5260245f209068fbb67fda52d4bfb8bf8114613db0578015613f58575b811991825491816020528215613ebe575b805f5260405f2092835415613e9d575050505050565b9091929394955060011c8092015560010180915560011b6001179055600190565b915080548015613f4f57828114613f4957600182018054908115613f3b5750838114613f345760028301918254928315613f255750848314613f1d575f52600160405f20555f52600260405f20555f52600360405f2055600791613e87565b505050505050565b95505050505091925055600190565b5050505050565b945050505091925055600190565b50505050565b50555060019150565b5068fbb67fda52d4bfb8bf613e76565b60405190613f776040836138be565b600382527f41313800000000000000000000000000000000000000000000000000000000006020830152565b61401d91602091613fb381614587565b50613fbd826143fa565b506001600160a01b03613fce614192565b16906040518095819482937f4c472fc9000000000000000000000000000000000000000000000000000000008452600484019092916001600160a01b0360209181604085019616845216910152565b03915afa9081156140ab576001600160a01b03916020915f916140b6575b506004604051809481937f01e1d114000000000000000000000000000000000000000000000000000000008352165afa9081156140ab575f9161407c575090565b90506020813d6020116140a3575b81614097602093836138be565b8101031261226a575190565b3d915061408a565b6040513d5f823e3d90fd5b6140cd9150823d84116103295761031b81836138be565b5f61403b565b60245f9160206001600160a01b036140e9614192565b16604051938480927fa9c9a9180000000000000000000000000000000000000000000000000000000082527f06d15878a0883034bd095c66a4b2987dfae5eb662cf9ef4aaa5ce27b533782bc60048301525afa9182156140ab575f92614166575b506001600160a01b038091169116146141605790565b50600190565b6001600160a01b0391925061418a829160203d6020116103295761031b81836138be565b92915061414a565b6001600160a01b037fe91688684975c4d7d54a65dd96da5d4dcbb54b8971c046d5351d3c111e43a800546141c76127b66139bf565b1690565b6141d7613c8d91614587565b604051906141e66040836138be565b600382527f4131320000000000000000000000000000000000000000000000000000000000602083015261393a565b614221613c8d916140d3565b604051906142306040836138be565b600382527f4131310000000000000000000000000000000000000000000000000000000000602083015261393a565b613c8d929161426d91613fa3565b10156040519061427e6040836138be565b600282527f4136000000000000000000000000000000000000000000000000000000000000602083015261393a565b7001000000000000000000000000000000008110156142db576fffffffffffffffffffffffffffffffff1690565b6335278d125f526004601cfd5b91906014526034526fa9059cbb0000000000000000000000005f5260205f6044601082855af1908160015f51141615614324575b50505f603452565b3b153d171015614335575f8061431c565b6390b8ec185f526004601cfd5b60ff7fe91688684975c4d7d54a65dd96da5d4dcbb54b8971c046d5351d3c111e43a8005461437c6143716139bf565b838360a01c1661393a565b60a81c1690565b60206001600160a01b03602481614398614192565b169360405194859384927f24d7806c0000000000000000000000000000000000000000000000000000000084521660048301525afa9081156140ab575f916143de575090565b6143f7915060203d6020116124475761243981836138be565b90565b60206001600160a01b0360248161440f614192565b169360405194859384927fc87fa42a0000000000000000000000000000000000000000000000000000000084521660048301525afa9081156140ab575f916143de575090565b613c8d906001600160a01b03604051916144706040846138be565b600383527f4131370000000000000000000000000000000000000000000000000000000000602084015216151561393a565b60249060206001600160a01b036144b7614192565b16604051938480927fa9c9a9180000000000000000000000000000000000000000000000000000000082527f06d15878a0883034bd095c66a4b2987dfae5eb662cf9ef4aaa5ce27b533782bc60048301525afa9182156140ab575f92614566575b50613c8d826001600160a01b03604051916145346040846138be565b600283527f4b39000000000000000000000000000000000000000000000000000000000000602084015216151561393a565b61458091925060203d6020116103295761031b81836138be565b905f614518565b60206001600160a01b0360248161459c614192565b169360405194859384927f652b9b410000000000000000000000000000000000000000000000000000000084521660048301525afa9081156140ab575f916143de57509056fea2646970667358221220948fffbdb50c28809bd0bf32d7422c1c96f72a4dedd513c3e2902f0c41310a0964736f6c634300081e0033","linkReferences":{}},"methodIdentifiers":{"canExecuteProposal(bytes32)":"c31fd6aa","cancelProposal(bytes32)":"37376ca8","contractName()":"75d0c0dc","contractVersion()":"a0a8e460","executeSettleBatch(bytes32)":"10d03d64","getBatchIdBalances(address,bytes32)":"bff9c21a","getDNVaultByAsset(address)":"d0fab258","getMaxAllowedDelta()":"778bd228","getPendingProposals(address)":"41076538","getRequestedShares(address,bytes32)":"53a7f925","getSettlementCooldown()":"c34ee627","getSettlementProposal(bytes32)":"b0b3242d","initialize(address)":"c4d66de8","isPaused()":"b187bd26","kAssetPush(address,uint256,bytes32)":"a8412deb","kAssetRequestPull(address,uint256,bytes32)":"95f4042b","kAssetTransfer(address,address,address,uint256,bytes32)":"c6099092","kSharesRequestPull(address,uint256,bytes32)":"8f6b6ee2","kSharesRequestPush(address,uint256,bytes32)":"d7eebeaf","multicall(bytes[])":"ac9650d8","proposeSettleBatch(address,address,bytes32,uint256,uint64,uint64)":"3e25562e","proxiableUUID()":"52d1902d","registry()":"7b103999","rescueAssets(address,address,uint256)":"d01b5de4","setMaxAllowedDelta(uint256)":"0fa37592","setPaused(bool)":"16c38b3c","setSettlementCooldown(uint256)":"46b6aa23","upgradeToAndCall(address,bytes)":"4f1ef286","virtualBalance(address,address)":"6ad3182d"},"storageLayout":{"storage":[],"types":{}},"id":58}