{"abi":[{"type":"constructor","inputs":[],"stateMutability":"nonpayable"},{"type":"receive","stateMutability":"payable"},{"type":"function","name":"canExecuteProposal","inputs":[{"name":"proposalId","type":"bytes32","internalType":"bytes32"}],"outputs":[{"name":"canExecute","type":"bool","internalType":"bool"},{"name":"reason","type":"string","internalType":"string"}],"stateMutability":"view"},{"type":"function","name":"cancelProposal","inputs":[{"name":"proposalId","type":"bytes32","internalType":"bytes32"}],"outputs":[],"stateMutability":"nonpayable"},{"type":"function","name":"contractName","inputs":[],"outputs":[{"name":"","type":"string","internalType":"string"}],"stateMutability":"pure"},{"type":"function","name":"contractVersion","inputs":[],"outputs":[{"name":"","type":"string","internalType":"string"}],"stateMutability":"pure"},{"type":"function","name":"executeSettleBatch","inputs":[{"name":"proposalId","type":"bytes32","internalType":"bytes32"}],"outputs":[],"stateMutability":"payable"},{"type":"function","name":"getBatchIdBalances","inputs":[{"name":"vault","type":"address","internalType":"address"},{"name":"batchId","type":"bytes32","internalType":"bytes32"}],"outputs":[{"name":"deposited","type":"uint256","internalType":"uint256"},{"name":"requested","type":"uint256","internalType":"uint256"}],"stateMutability":"view"},{"type":"function","name":"getDNVaultByAsset","inputs":[{"name":"asset","type":"address","internalType":"address"}],"outputs":[{"name":"vault","type":"address","internalType":"address"}],"stateMutability":"view"},{"type":"function","name":"getPendingProposals","inputs":[{"name":"vault","type":"address","internalType":"address"}],"outputs":[{"name":"pendingProposals","type":"bytes32[]","internalType":"bytes32[]"}],"stateMutability":"view"},{"type":"function","name":"getRequestedShares","inputs":[{"name":"vault","type":"address","internalType":"address"},{"name":"batchId","type":"bytes32","internalType":"bytes32"}],"outputs":[{"name":"","type":"uint256","internalType":"uint256"}],"stateMutability":"view"},{"type":"function","name":"getSettlementCooldown","inputs":[],"outputs":[{"name":"","type":"uint256","internalType":"uint256"}],"stateMutability":"view"},{"type":"function","name":"getSettlementProposal","inputs":[{"name":"proposalId","type":"bytes32","internalType":"bytes32"}],"outputs":[{"name":"proposal","type":"tuple","internalType":"struct IkAssetRouter.VaultSettlementProposal","components":[{"name":"asset","type":"address","internalType":"address"},{"name":"vault","type":"address","internalType":"address"},{"name":"batchId","type":"bytes32","internalType":"bytes32"},{"name":"totalAssets","type":"uint256","internalType":"uint256"},{"name":"netted","type":"int256","internalType":"int256"},{"name":"yield","type":"int256","internalType":"int256"},{"name":"executeAfter","type":"uint64","internalType":"uint64"},{"name":"lastFeesChargedManagement","type":"uint64","internalType":"uint64"},{"name":"lastFeesChargedPerformance","type":"uint64","internalType":"uint64"}]}],"stateMutability":"view"},{"type":"function","name":"getYieldTolerance","inputs":[],"outputs":[{"name":"","type":"uint256","internalType":"uint256"}],"stateMutability":"view"},{"type":"function","name":"initialize","inputs":[{"name":"registry_","type":"address","internalType":"address"}],"outputs":[],"stateMutability":"nonpayable"},{"type":"function","name":"isPaused","inputs":[],"outputs":[{"name":"","type":"bool","internalType":"bool"}],"stateMutability":"view"},{"type":"function","name":"kAssetPush","inputs":[{"name":"_asset","type":"address","internalType":"address"},{"name":"amount","type":"uint256","internalType":"uint256"},{"name":"batchId","type":"bytes32","internalType":"bytes32"}],"outputs":[],"stateMutability":"payable"},{"type":"function","name":"kAssetRequestPull","inputs":[{"name":"_asset","type":"address","internalType":"address"},{"name":"amount","type":"uint256","internalType":"uint256"},{"name":"batchId","type":"bytes32","internalType":"bytes32"}],"outputs":[],"stateMutability":"payable"},{"type":"function","name":"kAssetTransfer","inputs":[{"name":"sourceVault","type":"address","internalType":"address"},{"name":"targetVault","type":"address","internalType":"address"},{"name":"_asset","type":"address","internalType":"address"},{"name":"amount","type":"uint256","internalType":"uint256"},{"name":"batchId","type":"bytes32","internalType":"bytes32"}],"outputs":[],"stateMutability":"payable"},{"type":"function","name":"kSharesRequestPull","inputs":[{"name":"sourceVault","type":"address","internalType":"address"},{"name":"amount","type":"uint256","internalType":"uint256"},{"name":"batchId","type":"bytes32","internalType":"bytes32"}],"outputs":[],"stateMutability":"payable"},{"type":"function","name":"kSharesRequestPush","inputs":[{"name":"sourceVault","type":"address","internalType":"address"},{"name":"amount","type":"uint256","internalType":"uint256"},{"name":"batchId","type":"bytes32","internalType":"bytes32"}],"outputs":[],"stateMutability":"payable"},{"type":"function","name":"multicall","inputs":[{"name":"data","type":"bytes[]","internalType":"bytes[]"}],"outputs":[{"name":"","type":"bytes[]","internalType":"bytes[]"}],"stateMutability":"payable"},{"type":"function","name":"proposeSettleBatch","inputs":[{"name":"asset","type":"address","internalType":"address"},{"name":"vault","type":"address","internalType":"address"},{"name":"batchId","type":"bytes32","internalType":"bytes32"},{"name":"totalAssets_","type":"uint256","internalType":"uint256"},{"name":"lastFeesChargedManagement","type":"uint64","internalType":"uint64"},{"name":"lastFeesChargedPerformance","type":"uint64","internalType":"uint64"}],"outputs":[{"name":"proposalId","type":"bytes32","internalType":"bytes32"}],"stateMutability":"payable"},{"type":"function","name":"proxiableUUID","inputs":[],"outputs":[{"name":"","type":"bytes32","internalType":"bytes32"}],"stateMutability":"view"},{"type":"function","name":"registry","inputs":[],"outputs":[{"name":"","type":"address","internalType":"address"}],"stateMutability":"view"},{"type":"function","name":"rescueAssets","inputs":[{"name":"asset_","type":"address","internalType":"address"},{"name":"to_","type":"address","internalType":"address"},{"name":"amount_","type":"uint256","internalType":"uint256"}],"outputs":[],"stateMutability":"payable"},{"type":"function","name":"setMaxAllowedDelta","inputs":[{"name":"maxDelta_","type":"uint256","internalType":"uint256"}],"outputs":[],"stateMutability":"nonpayable"},{"type":"function","name":"setPaused","inputs":[{"name":"paused_","type":"bool","internalType":"bool"}],"outputs":[],"stateMutability":"nonpayable"},{"type":"function","name":"setSettlementCooldown","inputs":[{"name":"cooldown","type":"uint256","internalType":"uint256"}],"outputs":[],"stateMutability":"nonpayable"},{"type":"function","name":"upgradeToAndCall","inputs":[{"name":"newImplementation","type":"address","internalType":"address"},{"name":"data","type":"bytes","internalType":"bytes"}],"outputs":[],"stateMutability":"payable"},{"type":"function","name":"virtualBalance","inputs":[{"name":"vault","type":"address","internalType":"address"},{"name":"asset","type":"address","internalType":"address"}],"outputs":[{"name":"","type":"uint256","internalType":"uint256"}],"stateMutability":"view"},{"type":"event","name":"AssetsPushed","inputs":[{"name":"from","type":"address","indexed":true,"internalType":"address"},{"name":"amount","type":"uint256","indexed":false,"internalType":"uint256"}],"anonymous":false},{"type":"event","name":"AssetsRequestPulled","inputs":[{"name":"vault","type":"address","indexed":true,"internalType":"address"},{"name":"asset","type":"address","indexed":true,"internalType":"address"},{"name":"amount","type":"uint256","indexed":false,"internalType":"uint256"}],"anonymous":false},{"type":"event","name":"AssetsTransfered","inputs":[{"name":"sourceVault","type":"address","indexed":true,"internalType":"address"},{"name":"targetVault","type":"address","indexed":true,"internalType":"address"},{"name":"asset","type":"address","indexed":true,"internalType":"address"},{"name":"amount","type":"uint256","indexed":false,"internalType":"uint256"}],"anonymous":false},{"type":"event","name":"BatchSettled","inputs":[{"name":"vault","type":"address","indexed":true,"internalType":"address"},{"name":"batchId","type":"bytes32","indexed":true,"internalType":"bytes32"},{"name":"totalAssets","type":"uint256","indexed":false,"internalType":"uint256"}],"anonymous":false},{"type":"event","name":"ContractInitialized","inputs":[{"name":"registry","type":"address","indexed":true,"internalType":"address"}],"anonymous":false},{"type":"event","name":"Deposited","inputs":[{"name":"vault","type":"address","indexed":true,"internalType":"address"},{"name":"asset","type":"address","indexed":true,"internalType":"address"},{"name":"amount","type":"uint256","indexed":false,"internalType":"uint256"}],"anonymous":false},{"type":"event","name":"Initialized","inputs":[{"name":"version","type":"uint64","indexed":false,"internalType":"uint64"}],"anonymous":false},{"type":"event","name":"MaxAllowedDeltaUpdated","inputs":[{"name":"oldTolerance","type":"uint256","indexed":false,"internalType":"uint256"},{"name":"newTolerance","type":"uint256","indexed":false,"internalType":"uint256"}],"anonymous":false},{"type":"event","name":"Paused","inputs":[{"name":"paused_","type":"bool","indexed":false,"internalType":"bool"}],"anonymous":false},{"type":"event","name":"PegProtectionActivated","inputs":[{"name":"vault","type":"address","indexed":true,"internalType":"address"},{"name":"shortfall","type":"uint256","indexed":false,"internalType":"uint256"}],"anonymous":false},{"type":"event","name":"PegProtectionExecuted","inputs":[{"name":"sourceVault","type":"address","indexed":true,"internalType":"address"},{"name":"targetVault","type":"address","indexed":true,"internalType":"address"},{"name":"amount","type":"uint256","indexed":false,"internalType":"uint256"}],"anonymous":false},{"type":"event","name":"RescuedAssets","inputs":[{"name":"asset_","type":"address","indexed":true,"internalType":"address"},{"name":"to_","type":"address","indexed":true,"internalType":"address"},{"name":"amount_","type":"uint256","indexed":false,"internalType":"uint256"}],"anonymous":false},{"type":"event","name":"RescuedETH","inputs":[{"name":"to_","type":"address","indexed":true,"internalType":"address"},{"name":"amount_","type":"uint256","indexed":false,"internalType":"uint256"}],"anonymous":false},{"type":"event","name":"SettlementCancelled","inputs":[{"name":"proposalId","type":"bytes32","indexed":true,"internalType":"bytes32"},{"name":"vault","type":"address","indexed":true,"internalType":"address"},{"name":"batchId","type":"bytes32","indexed":true,"internalType":"bytes32"}],"anonymous":false},{"type":"event","name":"SettlementCooldownUpdated","inputs":[{"name":"oldCooldown","type":"uint256","indexed":false,"internalType":"uint256"},{"name":"newCooldown","type":"uint256","indexed":false,"internalType":"uint256"}],"anonymous":false},{"type":"event","name":"SettlementExecuted","inputs":[{"name":"proposalId","type":"bytes32","indexed":true,"internalType":"bytes32"},{"name":"vault","type":"address","indexed":true,"internalType":"address"},{"name":"batchId","type":"bytes32","indexed":true,"internalType":"bytes32"},{"name":"executor","type":"address","indexed":false,"internalType":"address"}],"anonymous":false},{"type":"event","name":"SettlementProposed","inputs":[{"name":"proposalId","type":"bytes32","indexed":true,"internalType":"bytes32"},{"name":"vault","type":"address","indexed":true,"internalType":"address"},{"name":"batchId","type":"bytes32","indexed":true,"internalType":"bytes32"},{"name":"totalAssets","type":"uint256","indexed":false,"internalType":"uint256"},{"name":"netted","type":"int256","indexed":false,"internalType":"int256"},{"name":"yield","type":"int256","indexed":false,"internalType":"int256"},{"name":"executeAfter","type":"uint256","indexed":false,"internalType":"uint256"},{"name":"lastFeesChargedManagement","type":"uint256","indexed":false,"internalType":"uint256"},{"name":"lastFeesChargedPerformance","type":"uint256","indexed":false,"internalType":"uint256"}],"anonymous":false},{"type":"event","name":"SettlementUpdated","inputs":[{"name":"proposalId","type":"bytes32","indexed":true,"internalType":"bytes32"},{"name":"totalAssets","type":"uint256","indexed":false,"internalType":"uint256"},{"name":"netted","type":"uint256","indexed":false,"internalType":"uint256"},{"name":"yield","type":"uint256","indexed":false,"internalType":"uint256"},{"name":"profit","type":"bool","indexed":false,"internalType":"bool"}],"anonymous":false},{"type":"event","name":"SharesRequestedPulled","inputs":[{"name":"vault","type":"address","indexed":true,"internalType":"address"},{"name":"batchId","type":"bytes32","indexed":true,"internalType":"bytes32"},{"name":"amount","type":"uint256","indexed":false,"internalType":"uint256"}],"anonymous":false},{"type":"event","name":"SharesRequestedPushed","inputs":[{"name":"vault","type":"address","indexed":true,"internalType":"address"},{"name":"batchId","type":"bytes32","indexed":true,"internalType":"bytes32"},{"name":"amount","type":"uint256","indexed":false,"internalType":"uint256"}],"anonymous":false},{"type":"event","name":"SharesSettled","inputs":[{"name":"vaults","type":"address[]","indexed":false,"internalType":"address[]"},{"name":"batchId","type":"bytes32","indexed":true,"internalType":"bytes32"},{"name":"totalRequestedShares","type":"uint256","indexed":false,"internalType":"uint256"},{"name":"totalAssets","type":"uint256[]","indexed":false,"internalType":"uint256[]"},{"name":"sharePrice","type":"uint256","indexed":false,"internalType":"uint256"}],"anonymous":false},{"type":"event","name":"Upgraded","inputs":[{"name":"implementation","type":"address","indexed":true,"internalType":"address"}],"anonymous":false},{"type":"event","name":"YieldDistributed","inputs":[{"name":"vault","type":"address","indexed":true,"internalType":"address"},{"name":"yield","type":"int256","indexed":false,"internalType":"int256"}],"anonymous":false},{"type":"event","name":"YieldExceedsMaxDeltaWarning","inputs":[{"name":"vault","type":"address","indexed":false,"internalType":"address"},{"name":"asset","type":"address","indexed":false,"internalType":"address"},{"name":"batchId","type":"bytes32","indexed":false,"internalType":"bytes32"},{"name":"yield","type":"int256","indexed":false,"internalType":"int256"},{"name":"maxAllowedYield","type":"uint256","indexed":false,"internalType":"uint256"}],"anonymous":false},{"type":"error","name":"InvalidInitialization","inputs":[]},{"type":"error","name":"NotInitializing","inputs":[]},{"type":"error","name":"Reentrancy","inputs":[]},{"type":"error","name":"UnauthorizedCallContext","inputs":[]},{"type":"error","name":"UpgradeFailed","inputs":[]}],"bytecode":{"object":"0x60a080604052346099573060805263409feecd195460018116608c5760011c6002600160401b0319016048575b61455b908161009e823960805181818161135b015261140d0152f35b6002600160411b0363409feecd19556001600160401b0360209081527fc7f505b2f371ae2175ee4913f4499e1f2633a7b5936321eed1cdaeb6115181d29080a1602c565b63f92ee8a95f526004601cfd5b5f80fdfe60a0604052600436101561001a575b3615610018575f80fd5b005b5f6080525f3560e01c80630fa375921461368857806310d03d641461278557806316c38b3c14612619578063370585f4146125db57806337376ca81461245e5780633e25562e146117cc578063410765381461160557806346b6aa23146115265780634f1ef286146113b857806352d1902d1461134657806353a7f925146112d95780636ad3182d146112a557806375d0c0dc146112435780637b103999146112165780638f6b6ee21461114057806395f4042b1461101a578063a0a8e46014610fb8578063a8412deb14610e3f578063ac9650d814610d07578063b0b3242d14610ba1578063b187bd2614610b7b578063bff9c21a14610ac9578063c31fd6aa14610a8a578063c34ee62714610a4c578063c4d66de8146107f7578063c609909214610600578063d01b5de414610343578063d0fab2581461026c5763d7eebeaf0361000e5761016a3661378d565b91610173613b3f565b61017b613b6e565b61018e610186613e93565b83151561387d565b6101973361410e565b6101d1816001600160a01b03165f527f72fdaf6608fcd614cdab8afd23d0b707bfc44e685019cc3a5ace611655fe7f0760205260405f2090565b83608051526020526040608051208054906080515083820180921161023b57556040519182526001600160a01b0316907f1230d10fa54cf4fa480deb2fa6a8b12962f8e88b2b57230c541d55851011e6a590602090a3608051688000000000ab143c065d60805180f35b7f4e487b71000000000000000000000000000000000000000000000000000000006080515260116004526024608051fd5b3461033d57602060031936011261033d5761028561371e565b60206001600160a01b0360448161029a6140d5565b169360405194859384927fe36bea44000000000000000000000000000000000000000000000000000000008452166004830152600160248301525afa80156103305760209160805191610303575b506102f281614398565b6001600160a01b0360405191168152f35b6103239150823d8411610329575b61031b8183613801565b810190613a0f565b826102e8565b503d610311565b6040513d608051823e3d90fd5b60805180fd5b606060031936011261033d5761035761371e565b61035f613734565b9060443561037d61036f336142c6565b6103776138c7565b9061387d565b6001600160a01b038316926040926103cc845161039a8682613801565b600281527f4b35000000000000000000000000000000000000000000000000000000000000602082015286151561387d565b6001600160a01b038116908161053057505081151580610526575b6103f390610377613b04565b6080519081908190819085905af1903d156104f9573d9267ffffffffffffffff84116104c8576104bc60209385857fffffffffffffffffffffffffffffffffffffffffffffffffffffffffffffffe0601f7f63b8c8e180bc85c19daef23e2bb787fb49672d3a9ecde24409c18ccb1accb5d1990116019061047685519283613801565b81526080513d9187013e5b82519061048e8483613801565b600282527f4b370000000000000000000000000000000000000000000000000000000000008683015261387d565b51908152a25b60805180f35b7f4e487b71000000000000000000000000000000000000000000000000000000006080515260416004526024608051fd5b7f63b8c8e180bc85c19daef23e2bb787fb49672d3a9ecde24409c18ccb1accb5d1926104bc602093610481565b50478211156103e7565b936105be84602094876105a46105687f552c8f8dc30f2786e14004d98595afcc1c0ea1f552b86e86f64a2da74761eaab99979a61433d565b158651906105768883613801565b600282527f4b380000000000000000000000000000000000000000000000000000000000008a83015261387d565b821515806105c8575b6105b990610377613b04565b61422b565b51908152a36104c2565b50306014526f70a08231000000000000000000000000608051526105b9878060246010855afa601f3d111688510284111590506105ad565b60a060031936011261033d5761061461371e565b61061c613734565b6044356001600160a01b038116929183820361033d5760206001600160a01b03807f710dc442f97591ada42c89862a834ebac6dd641869d3bfa3707b37661397c93f936107d86064359661073960843591610675613b3f565b61067d613b6e565b610690610688613e93565b8b151561387d565b6106993361410e565b6fffffffffffffffffffffffffffffffff6106b38b6141f0565b6106ed8d6001600160a01b03165f527f72fdaf6608fcd614cdab8afd23d0b707bfc44e685019cc3a5ace611655fe7f0660205260405f2090565b85608051528a5261070760406080512091838354166139dd565b81547fffffffffffffffffffffffffffffffff000000000000000000000000000000001692169182179055908b6141a2565b610742886141f0565b9061077d846001600160a01b03165f527f72fdaf6608fcd614cdab8afd23d0b707bfc44e685019cc3a5ace611655fe7f0660205260405f2090565b9060805152865261079860406080512091825460801c6139dd565b6fffffffffffffffffffffffffffffffff7fffffffffffffffffffffffffffffffff0000000000000000000000000000000083549260801b169116179055565b60405195865216941692a4608051688000000000ab143c065d60805180f35b3461033d57602060031936011261033d5761081061371e565b7fffffffffffffffffffffffffffffffffffffffffffffffffffffffffbf601132809181548060038455610a07575b50740100000000000000000000000000000000000000007fffffffffffffffffffff00000000000000000000000000000000000000000000916001600160a01b037fe91688684975c4d7d54a65dd96da5d4dcbb54b8971c046d5351d3c111e43a80054916108eb6040516108b4604082613801565b600281527f4b31000000000000000000000000000000000000000000000000000000000000602082015260ff8560a01c161561387d565b16928391610932604051610900604082613801565b600281527f4b32000000000000000000000000000000000000000000000000000000000000602082015284151561387d565b1617177fe91688684975c4d7d54a65dd96da5d4dcbb54b8971c046d5351d3c111e43a80055610e107f72fdaf6608fcd614cdab8afd23d0b707bfc44e685019cc3a5ace611655fe7f01556103e87f72fdaf6608fcd614cdab8afd23d0b707bfc44e685019cc3a5ace611655fe7f02557fb8bb5a08c752924168166e254455ca6708ef2ac4cfd39bba39eb5a5b89f0cbd6608051608051a26109d35760805180f35b6002905560016020527fc7f505b2f371ae2175ee4913f4499e1f2633a7b5936321eed1cdaeb6115181d2602080a1806104c2565b909150600181811c14303b1015610a3d5760ff1b9190911b9081907401000000000000000000000000000000000000000061083f565b63f92ee8a9608051526004601cfd5b3461033d5760805160031936011261033d5760207f72fdaf6608fcd614cdab8afd23d0b707bfc44e685019cc3a5ace611655fe7f0154604051908152f35b3461033d57602060031936011261033d57610aa6600435613a2e565b90610ac56040519283921515835260406020840152604083019061374a565b0390f35b3461033d57604060031936011261033d57610b1b610ae561371e565b6001600160a01b03165f527f72fdaf6608fcd614cdab8afd23d0b707bfc44e685019cc3a5ace611655fe7f0660205260405f2090565b60243560805152602052604060805120604051604081019080821067ffffffffffffffff8311176104c857604092602092845254906fffffffffffffffffffffffffffffffff82169182825260801c928391015282519182526020820152f35b3461033d5760805160031936011261033d576020610b97614285565b6040519015158152f35b3461033d57602060031936011261033d57604051610bbe816137b7565b6080518152608051602082015260805160408201526080516060820152608051608082015260805160a082015260805160c082015260805160e0820152610100608051910152600435608051527f72fdaf6608fcd614cdab8afd23d0b707bfc44e685019cc3a5ace611655fe7f0860205261012060406080512067ffffffffffffffff6001600160a01b038160405193610c57856137b7565b81838254169586815284600184015416926020820193845260028101546040830190815260038201546060840190815260048301549160808501928352600660058501549460a0870195865201549889978761010060c0890198828c168a528260e082019c60401c168c52019b60801c168b526040519c8d52511660208c01525160408b01525160608a01525160808901525160a0880152511660c0860152511660e08401525116610100820152f35b602060031936011261033d5760043567ffffffffffffffff811161033d573660238201121561033d57806004013567ffffffffffffffff811161033d578060051b366024828501011161033d573461033d576040519283926020845280846020015260408481019380602485018637850101928391610d9e575b505050806040520360401b178060401c9067ffffffffffffffff16f35b919350915b8091604481518601602481013591829101843760805190389084305af415610e3457603f67ffffffffffffffe0917fffffffffffffffffffffffffffffffffffffffffffffffffffffffffffffffc0888503018152602001923d81523d608051602083013e3d010116916020608051913d0101528483821015610e27575090610da3565b9350509050838080610d81565b853d608051823e3d90fd5b610e483661378d565b610e53929192613b3f565b610e5b613b6e565b610e6e610e66613e93565b84151561387d565b610e7733614158565b6001600160a01b03610e876140d5565b6040517f4c472fc90000000000000000000000000000000000000000000000000000000081523360048201526001600160a01b03851660248201529160209183916044918391165afa801561033057610f59936001600160a01b038692610ef99460805191610f99575b50169061422b565b610f02836141f0565b90610f3d336001600160a01b03165f527f72fdaf6608fcd614cdab8afd23d0b707bfc44e685019cc3a5ace611655fe7f0660205260405f2090565b906080515260205261079860406080512091825460801c6139dd565b6040519081527f4c56d82314c7ba16ae8b6c8f189249e688d64c23ce4ad32dce3533e7e14b550a60203392a2608051688000000000ab143c065d60805180f35b610fb2915060203d6020116103295761031b8183613801565b88610ef1565b3461033d5760805160031936011261033d5760408051610ac591610fdc9082613801565b600581527f312e302e30000000000000000000000000000000000000000000000000000000602082015260405191829160208352602083019061374a565b6001600160a01b0361102b3661378d565b61103793929193613b3f565b61103f613b6e565b61105261104a613e93565b85151561387d565b61105b33614158565b6110668483336141a2565b61106f846141f0565b906110aa336001600160a01b03165f527f72fdaf6608fcd614cdab8afd23d0b707bfc44e685019cc3a5ace611655fe7f0660205260405f2090565b90608051526020526fffffffffffffffffffffffffffffffff6110d660406080512092828454166139dd565b167fffffffffffffffffffffffffffffffff0000000000000000000000000000000082541617905560405192835216907fd95447b6ffc5599057ab190458c076456cdd9029001c51c670a5734cef8ebf7660203392a3608051688000000000ab143c065d60805180f35b60206001600160a01b037f5cd8a9107e6e9586b797145cd0c5d437a526622477140ec7c4db00304c015a3d6111743661378d565b9491611181949194613b3f565b611189613b6e565b61119c611194613e93565b86151561387d565b6111a53361410e565b6111df816001600160a01b03165f527f72fdaf6608fcd614cdab8afd23d0b707bfc44e685019cc3a5ace611655fe7f0760205260405f2090565b866080515283526040608051206111f78682546139d0565b90556040519485521692a3608051688000000000ab143c065d60805180f35b3461033d5760805160031936011261033d5760206001600160a01b0361123a6140d5565b16604051908152f35b3461033d5760805160031936011261033d5760408051610ac5916112679082613801565b600c81527f6b4173736574526f757465720000000000000000000000000000000000000000602082015260405191829160208352602083019061374a565b3461033d57604060031936011261033d5760206112d16112c361371e565b6112cb613734565b90613ee6565b604051908152f35b3461033d57604060031936011261033d5761132b6112f561371e565b6001600160a01b03165f527f72fdaf6608fcd614cdab8afd23d0b707bfc44e685019cc3a5ace611655fe7f0760205260405f2090565b60243560805152602052602060406080512054604051908152f35b3461033d5760805160031936011261033d57307f0000000000000000000000000000000000000000000000000000000000000000036113a95760206040517f360894a13ba1a3210667c828492db98dca3e2076cc3735a920a3ca505d382bbc8152f35b639f03a026608051526004601cfd5b604060031936011261033d576113cc61371e565b6024359067ffffffffffffffff821161033d573660238301121561033d5781600401359067ffffffffffffffff821161033d57366024838501011161033d577f000000000000000000000000000000000000000000000000000000000000000030146113a9576001600160a01b039061144f611447336142c6565b61037761393d565b61145881614398565b163d608051526352d1902d6001527f360894a13ba1a3210667c828492db98dca3e2076cc3735a920a3ca505d382bbc602060016004601d855afa510361151857807fbc7cd75a20ee27fd9adebab32041f755214dbc6bffa90cc0225b39da2e5c2d3b608051608051a281817f360894a13ba1a3210667c828492db98dca3e2076cc3735a920a3ca505d382bbc556114ef5760805180f35b81602460405194018437608051918338925af41561150e5780806104c2565b3d608051823e3d90fd5b6355299b496001526004601dfd5b3461033d57602060031936011261033d577fa8d4d847ed037a895f411bea9d10f2f41ab2426d173647974c6520abe4c3ef276040600435611569611447336142c6565b6115ae82516115788482613801565b600281527f413700000000000000000000000000000000000000000000000000000000000060208201526201518083111561387d565b7f72fdaf6608fcd614cdab8afd23d0b707bfc44e685019cc3a5ace611655fe7f015490807f72fdaf6608fcd614cdab8afd23d0b707bfc44e685019cc3a5ace611655fe7f015582519182526020820152a160805180f35b3461033d57602060031936011261033d5761165761162161371e565b6001600160a01b03165f527f72fdaf6608fcd614cdab8afd23d0b707bfc44e685019cc3a5ace611655fe7f0560205260405f2090565b6318fb586460045260805152602460805120801954906040519182602001811561174d575060011c906080515b8281106117285750506020905b80835260051b8201016040526116e281511515604051906116b3604083613801565b600382527f4131300000000000000000000000000000000000000000000000000000000000602083015261387d565b6040518091602082016020835281518091526020604084019201906080515b81811061170f575050500390f35b8251845285945060209384019390920191600101611701565b8060019183015468fbb67fda52d4bfb8bf8114150260208260051b8701015201611684565b82602093549182611761575b505050611691565b9091925060019268fbb67fda52d4bfb8bf8114150290528181015480611788575b80611759565b68fbb67fda52d4bfb8bf811415026040850152600290810154909150806117b0575b80611782565b68fbb67fda52d4bfb8bf811415026060840152506003836117aa565b60c060031936011261033d576117e061371e565b6117e8613734565b90604435606435916080515060843567ffffffffffffffff811680910361033d5760a43567ffffffffffffffff8116949085900361033d57611828613b3f565b611830613b6e565b602460206001600160a01b036118446140d5565b16604051928380927f541d55480000000000000000000000000000000000000000000000000000000082523360048301525afa801561033057611893916080519161242f575b5061037761393d565b608080516318fb58646004527f72fdaf6608fcd614cdab8afd23d0b707bfc44e685019cc3a5ace611655fe7f0481529051602490209095908568fbb67fda52d4bfb8bf81146122f757861561241f575b811991825491816020528215612367575b8060805152604060805120928354156123435750505050505b61194f6040968751906119208983613801565b600282527f4133000000000000000000000000000000000000000000000000000000000000602083015261387d565b6119598488613ee6565b9260017f72fdaf6608fcd614cdab8afd23d0b707bfc44e685019cc3a5ace611655fe7f00540193847f72fdaf6608fcd614cdab8afd23d0b707bfc44e685019cc3a5ace611655fe7f005560a06001600160a01b03808b16971695895190888252876020830152898b83015242606083015260808201522098611a0b816001600160a01b03165f527f72fdaf6608fcd614cdab8afd23d0b707bfc44e685019cc3a5ace611655fe7f0560205260405f2090565b608051506318fb5864600452608051526024608051208019548060011c901515918054156002600183015415920154159315612306575b5050611a8691508a5190611a568c83613801565b600382527f413230000000000000000000000000000000000000000000000000000000000060208301521561387d565b608080516318fb58646004527f72fdaf6608fcd614cdab8afd23d0b707bfc44e685019cc3a5ace611655fe7f03905251602490208a68fbb67fda52d4bfb8bf81146122f7578b1591826122e6575b801954156122a75760205260805152611b2c8a608051205415155b8b5190611afc8d83613801565b600382527f413133000000000000000000000000000000000000000000000000000000000060208301521561387d565b611b66826001600160a01b03165f527f72fdaf6608fcd614cdab8afd23d0b707bfc44e685019cc3a5ace611655fe7f0560205260405f2090565b608080516318fb58646004529182525160249020918c90612297575b8219928354918160205282156121ca575b80608051528d60805120928354156121a65750505050611beb91505b8a5190611bbc8c83613801565b600382527f4131340000000000000000000000000000000000000000000000000000000000602083015261387d565b611bf481614016565b15611f715780611c37611ca8926001600160a01b03165f527f72fdaf6608fcd614cdab8afd23d0b707bfc44e685019cc3a5ace611655fe7f0660205260405f2090565b8960805152602052611c828a608051205460801c916001600160a01b03165f527f72fdaf6608fcd614cdab8afd23d0b707bfc44e685019cc3a5ace611655fe7f0660205260405f2090565b89608051526020526fffffffffffffffffffffffffffffffff8a60805120541690613978565b905b611cbd81611cb88488613978565b613978565b9080611eec575b507f72fdaf6608fcd614cdab8afd23d0b707bfc44e685019cc3a5ace611655fe7f015442019168010000000000000000831015611edd578284868d998a8e8b8f8f835195611d11876137b7565b8652602086019081528386019182526060860192835260808601938a855260a08701958c875260c088019a67ffffffffffffffff168b5260e08801998a526101008801988952608051527f72fdaf6608fcd614cdab8afd23d0b707bfc44e685019cc3a5ace611655fe7f086020526080512095516001600160a01b03166001600160a01b031686547fffffffffffffffffffffffff000000000000000000000000000000000000000016178655516001600160a01b031660018601906001600160a01b031681547fffffffffffffffffffffffff000000000000000000000000000000000000000016179055516002850155516003840155516004830155516005820155600601925167ffffffffffffffff168d84549351901b6fffffffffffffffff000000000000000016915160801b77ffffffffffffffff0000000000000000000000000000000016927fffffffffffffffff00000000000000000000000000000000000000000000000016171717905589519586526020860152888501526060840152608083015260a082015260c07fbf9fe4a18fb0d2f9902d99e958ec41370c41b4e41657141a31b44e206bf7ec3591a4608051688000000000ab143c065d51908152602090f35b6335278d12608051526004601cfd5b611f1b612710917f72fdaf6608fcd614cdab8afd23d0b707bfc44e685019cc3a5ace611655fe7f0254906139bd565b04808260ff1d808401181115611cc45760a07e1f1157c3ec7dc0509bb1b6fab05fa542bbfbeb386e304c963567a821b3dd0c918b51908a82528960208301528b8d8301528460608301526080820152a18a611cc4565b8851907f18160ddd0000000000000000000000000000000000000000000000000000000082526020826004818b5afa91821561219a5760805192612162575b508115801561215a575b156120625761205c9150611ffe816001600160a01b03165f527f72fdaf6608fcd614cdab8afd23d0b707bfc44e685019cc3a5ace611655fe7f0760205260405f2090565b89608051526020526120468a6080512054916001600160a01b03165f527f72fdaf6608fcd614cdab8afd23d0b707bfc44e685019cc3a5ace611655fe7f0660205260405f2090565b896080515260205289608051205460801c613978565b90611caa565b61209c816001600160a01b03165f527f72fdaf6608fcd614cdab8afd23d0b707bfc44e685019cc3a5ace611655fe7f0760205260405f2090565b896080515260205289608051205491608051508683029281811589838704141702156120d357506120469061205c93045b91610ae5565b9281885f1981870983811084019003950982608051038316908584111561214b5761205c958261204695048060030260021880820260020302808202600203028082026002030280820260020302808202600203028091026002030293600184848303049480608051030401921190030217026120cd565b63ae47f702608051526004601cfd5b508515611fba565b9091506020813d602011612192575b8161217e60209383613801565b8101031261218e5751908b611fb0565b5f80fd5b3d9150612171565b8a513d608051823e3d90fd5b909192935060011c8092015560010180915560011b6001179055611beb6001611baf565b9150805480156122885782811461227b578d6001830180549081156122685750848114612259576002840192835493841561224557508584146122355790600292916080515260018260805120556080515260805120556080515260038d6080512055600791611b93565b505050505050611beb9150611baf565b96505050505050915055611beb6001611baf565b5050505050611beb9150611baf565b955050505050915055611beb6001611baf565b505050611beb9150611baf565b505550611beb90506001611baf565b5068fbb67fda52d4bfb8bf611b82565b90600191818154146122db578183820154146122db5760020154146122d25750611b2c608051611aef565b611b2c90611aef565b5050611b2c90611aef565b68fbb67fda52d4bfb8bf9150611ad4565b63f5a267f1608051526004601cfd5b60805191925061233c5750600190612335575060029061232d5750611a8660038c80611a42565b808c80611a42565b8180611a42565b9080611a42565b9091929394995060011c8092015560010180915560011b600117905560019461190d565b9150805480156124135782811461240a576001820180549081156123f957508381146123ef57600283019182549283156123dd57508483146123d2576080515260016040608051205560805152600260406080512055608051526003604060805120556007916118f4565b50505050505061190d565b9550505050509196505560019461190d565b505050505061190d565b94505050509196505560019461190d565b5050505061190d565b5055506001955061190d565b5068fbb67fda52d4bfb8bf6118e3565b612451915060203d602011612457575b6124498183613801565b810190613ece565b8861188a565b503d61243f565b3461033d57602060031936011261033d5760043561247a613b3f565b612482613b6e565b602460206001600160a01b036124966140d5565b16604051928380927f0c68ba210000000000000000000000000000000000000000000000000000000082523360048301525afa8015610330576124e491608051916125bc575061037761393d565b80608051527f72fdaf6608fcd614cdab8afd23d0b707bfc44e685019cc3a5ace611655fe7f0860205260406080512060026001600160a01b036001830154169161257261256a85612565866001600160a01b03165f527f72fdaf6608fcd614cdab8afd23d0b707bfc44e685019cc3a5ace611655fe7f0560205260405f2090565b613ce8565b610377613842565b0161257d8154613bba565b5054917fef597a7069e38df320d1d2425e591c723b3d5a3285b98942f803ccff555b67d2608051608051a4608051688000000000ab143c065d60805180f35b6125d5915060203d602011612457576124498183613801565b8361188a565b3461033d5760805160031936011261033d5760207f72fdaf6608fcd614cdab8afd23d0b707bfc44e685019cc3a5ace611655fe7f0254604051908152f35b3461033d57602060031936011261033d5760043580151580910361033d5760249060206001600160a01b0361264c6140d5565b16604051938480927f2500f2b60000000000000000000000000000000000000000000000000000000082523360048301525afa908115610330576126c06020927f0e2fb031ee032dc02d8011dc50b816eb450cf856abd8261680dac74f72165bd29460805191612768575b506103776138c7565b7fe91688684975c4d7d54a65dd96da5d4dcbb54b8971c046d5351d3c111e43a800546126f96126ed613902565b60ff8360a01c1661387d565b7fffffffffffffffffffff00ffffffffffffffffffffffffffffffffffffffffff75ff0000000000000000000000000000000000000000008360a81b169116177fe91688684975c4d7d54a65dd96da5d4dcbb54b8971c046d5351d3c111e43a80055604051908152a160805180f35b61277f9150843d8611612457576124498183613801565b856126b7565b602060031936011261218e5760043561279c613b3f565b6127a4613b6e565b805f527f72fdaf6608fcd614cdab8afd23d0b707bfc44e685019cc3a5ace611655fe7f0860205260405f2060018101916001600160a01b038354169161282161256a83612565866001600160a01b03165f527f72fdaf6608fcd614cdab8afd23d0b707bfc44e685019cc3a5ace611655fe7f0560205260405f2090565b600681019067ffffffffffffffff825416421015946128786040968751906128498983613801565b600282527f4135000000000000000000000000000000000000000000000000000000000000602083015261387d565b61288184613d57565b506001600160a01b0380835416915416906002830154936003840154916024600486015460058701546128e4876001600160a01b03165f527f72fdaf6608fcd614cdab8afd23d0b707bfc44e685019cc3a5ace611655fe7f0660205260405f2090565b895f526020528b6fffffffffffffffffffffffffffffffff815f2054169161290a6143e5565b9660206001600160a01b0361291d6140d5565b168451978880927fa3863a950000000000000000000000000000000000000000000000000000000082528b60048301525afa95861561367e57876001600160a01b03612a0e986020935f91613661575b5016946129b0815161297f8382613801565b600381527f4b313000000000000000000000000000000000000000000000000000000000008582015287151561387d565b8c6001600160a01b036129c16140d5565b169151809a819482937f4c472fc9000000000000000000000000000000000000000000000000000000008452600484019092916001600160a01b0360209181604085019616845216910152565b03915afa8015613657576001600160a01b0380918c985f91613638575b501698612a378a614398565b168603612cfc5750505080612bdc575b506080518113612baa575b5090503b1561033d5787517feeb8f2b500000000000000000000000000000000000000000000000000000000815285600482015260805181602481608051885af18015612b9e57612b85575b50803b1561033d578751907f1765b3130000000000000000000000000000000000000000000000000000000082528260048301528160248160805193608051905af18015612b7957612b5a575b50917ffddc214c899c631ac36ab6c64ef4a6072b1b77d7e099e4d8977217917a635e8c936002927fedb477cd39fe3c5ba0562ca4f66170f778325877f6895520d694c84f71ddf6a9602080965b8b51908152a301549451338152a4608051688000000000ab143c065d60805180f35b60805192939192612b6a91613801565b60805161033d57919087612aeb565b88513d608051823e3d90fd5b608051612b9191613801565b60805161033d5788612a9e565b89513d608051823e3d90fd5b60207f8752a472e571a816aea92eec8dae9baf628e840f4929fbcc2d155e6233ff68a7918c51908152a3888381612a52565b91508a51917fbefe31700000000000000000000000000000000000000000000000000000000083528860048401526020836024818a5afa928315612cf05760805193612ccf575b50612c2d83614398565b843b1561033d578b517ff2d5d56b0000000000000000000000000000000000000000000000000000000081526080516001600160a01b03861660048301526024820183905290939084806044810103816080518a5af1938415612cc3578894612ca3575b5090612c9d918561422b565b8b612a47565b612cb39192945060805190613801565b60805161033d579186928d612c91565b8d513d608051823e3d90fd5b612ce991935060203d6020116103295761031b8183613801565b918c612c23565b8c513d608051823e3d90fd5b93925094909593612d3d906001600160a01b03165f527f72fdaf6608fcd614cdab8afd23d0b707bfc44e685019cc3a5ace611655fe7f0760205260405f2090565b8a5f526020528c805f205495806134b3575b50612dbd916020916001600160a01b03612d676140d5565b1690612d716143e5565b90518095819482937f4c472fc9000000000000000000000000000000000000000000000000000000008452600484019092916001600160a01b0360209181604085019616845216910152565b03915afa8015612cc3576001600160a01b039160805191613494575b501690612de582614398565b8c51907f01e1d114000000000000000000000000000000000000000000000000000000008252602082600481865afa80156134885760805190613454575b612e2d9250613978565b90612e44612e39613e93565b60805184121561387d565b803b1561033d578c51917f1765b31300000000000000000000000000000000000000000000000000000000835260048301528160248160805193608051905af18015612cf05761343b575b5067ffffffffffffffff81548c1c16806133d8575b505460801c67ffffffffffffffff1680613375575b50843b1561033d5789517feeb8f2b5000000000000000000000000000000000000000000000000000000008152876004820152608051816024816080518a5af180156133035761335c575b50803b1561033d578951907f1765b3130000000000000000000000000000000000000000000000000000000082528460048301528160248160805193608051905af1801561219a57613343575b5080612faa575b5050917ffddc214c899c631ac36ab6c64ef4a6072b1b77d7e099e4d8977217917a635e8c936002927fedb477cd39fe3c5ba0562ca4f66170f778325877f6895520d694c84f71ddf6a960208096612b38565b88517fb1791c0d000000000000000000000000000000000000000000000000000000008152602081600481885afa801561219a576080519061330f575b612ff29150826139bd565b9089517f87269729000000000000000000000000000000000000000000000000000000008152602081600481895afa90811561330357608051916132d1575b5080156132a0576130439204906139d0565b8851907f07a2d13a000000000000000000000000000000000000000000000000000000008252806004830152602082602481885afa91821561219a576080519261326c575b5080613209575b508015612f5857813b1561033d5788517f9dc29fac0000000000000000000000000000000000000000000000000000000081526080516001600160a01b0386166004830152602482018390528180604481010381608051875af1801561219a576131f0575b5060049060206001600160a01b0361310a6140d5565b168b51938480927f3b19e84a0000000000000000000000000000000000000000000000000000000082525afa91821561219a57608051926131cf575b50823b1561033d5789517f40c10f190000000000000000000000000000000000000000000000000000000081526080516001600160a01b03909316600482015260248101919091529182908180604481010391608051905af18015612b79576131b0575b80612f58565b608051929391926131c091613801565b60805161033d579190876131aa565b6131e991925060203d6020116103295761031b8183613801565b908a613146565b6080516131fc91613801565b60805161033d57896130f4565b843b1561033d578951907f0342a6ba000000000000000000000000000000000000000000000000000000008252600482015260805181602481608051895af1801561219a571561308f5760805161325f91613801565b60805161033d578961308f565b9091506020813d602011613298575b8161328860209383613801565b8101031261218e5751908a613088565b3d915061327b565b7f4e487b71000000000000000000000000000000000000000000000000000000006080515260126004526024608051fd5b90506020813d6020116132fb575b816132ec60209383613801565b8101031261218e57518b613031565b3d91506132df565b8b513d608051823e3d90fd5b506020813d60201161333b575b8161332960209383613801565b8101031261218e57612ff29051612fe7565b3d915061331c565b60805161334f91613801565b60805161033d5789612f51565b60805161336891613801565b60805161033d578a612f04565b853b1561033d578a51907f9c8af15f0000000000000000000000000000000000000000000000000000000082526004820152608051816024816080518a5af180156133035715612eb9576080516133cb91613801565b60805161033d578a612eb9565b863b1561033d578b51907f39d14dce0000000000000000000000000000000000000000000000000000000082526004820152608051816024816080518b5af18015612cf05715612ea45760805161342e91613801565b60805161033d578b612ea4565b60805161344791613801565b60805161033d578b612e8f565b506020823d602011613480575b8161346e60209383613801565b8101031261218e57612e2d9151612e23565b3d9150613461565b8e513d608051823e3d90fd5b6134ad915060203d6020116103295761031b8183613801565b8e612dd9565b90505f81131561358857863b1561033d578d517f40c10f190000000000000000000000000000000000000000000000000000000081526080516001600160a01b038b166004830152602482018390528f929082806044810103816080518d5af191821561357c578b9261355c575b5091612dbd93917fabe7bba351333865347fffa4fee91d7cbacf68d57b5779282cd009ae71deaf65602080955b8451908152a2915091612d4f565b60805191935061356c9250613801565b60805161033d57888e915f613521565b83513d608051823e3d90fd5b8060ff1d91873b1561218e578e517f9dc29fac0000000000000000000000000000000000000000000000000000000081526001600160a01b038b16600482015283830190931860248401528e5f84604481838d5af192831561362e577fabe7bba351333865347fffa4fee91d7cbacf68d57b5779282cd009ae71deaf6560208d92612dbd97829761361a575b5061354e565b5f61362491613801565b5f6080525f613614565b50513d5f823e3d90fd5b613651915060203d6020116103295761031b8183613801565b5f612a2b565b8f513d5f823e3d90fd5b6136789150843d86116103295761031b8183613801565b5f61296d565b83513d5f823e3d90fd5b3461218e57602060031936011261218e577f7d105ab6c5b612e41f22c8da839b22532cfd75478b21f81260fa90ca8d255aa660406004356136cb611447336142c6565b7f72fdaf6608fcd614cdab8afd23d0b707bfc44e685019cc3a5ace611655fe7f025490807f72fdaf6608fcd614cdab8afd23d0b707bfc44e685019cc3a5ace611655fe7f025582519182526020820152a1005b600435906001600160a01b038216820361218e57565b602435906001600160a01b038216820361218e57565b907fffffffffffffffffffffffffffffffffffffffffffffffffffffffffffffffe0601f602080948051918291828752018686015e5f8582860101520116010190565b600319606091011261218e576004356001600160a01b038116810361218e57906024359060443590565b610120810190811067ffffffffffffffff8211176137d457604052565b7f4e487b71000000000000000000000000000000000000000000000000000000005f52604160045260245ffd5b90601f7fffffffffffffffffffffffffffffffffffffffffffffffffffffffffffffffe0910116810190811067ffffffffffffffff8211176137d457604052565b60405190613851604083613801565b600382527f41313500000000000000000000000000000000000000000000000000000000006020830152565b156138855750565b6138c3906040519182917f08c379a000000000000000000000000000000000000000000000000000000000835260206004840152602483019061374a565b0390fd5b604051906138d6604083613801565b600282527f4b340000000000000000000000000000000000000000000000000000000000006020830152565b60405190613911604083613801565b600282527f4b330000000000000000000000000000000000000000000000000000000000006020830152565b6040519061394c604083613801565b600382527f41313600000000000000000000000000000000000000000000000000000000006020830152565b81810392915f13801582851316918412161761399057565b7f4e487b71000000000000000000000000000000000000000000000000000000005f52601160045260245ffd5b8181029291811591840414171561399057565b9190820391821161399057565b906fffffffffffffffffffffffffffffffff809116911601906fffffffffffffffffffffffffffffffff821161399057565b9081602091031261218e57516001600160a01b038116810361218e5790565b5f527f72fdaf6608fcd614cdab8afd23d0b707bfc44e685019cc3a5ace611655fe7f0860205267ffffffffffffffff600660405f200154168015613ac6574210613a8957600190604051613a83602082613801565b5f815290565b5f90604051613a99604082613801565b601381527f436f6f6c646f776e206e6f742070617373656400000000000000000000000000602082015290565b505f90604051613ad7604082613801565b601281527f50726f706f73616c206e6f7420666f756e640000000000000000000000000000602082015290565b60405190613b13604083613801565b600282527f4b360000000000000000000000000000000000000000000000000000000000006020830152565b688000000000ab143c065c613b5c5730688000000000ab143c065d565b688000000000ab143c065f526004601cfd5b613bb8613b79614285565b1560405190613b89604083613801565b600282527f4139000000000000000000000000000000000000000000000000000000000000602083015261387d565b565b905f916318fb58646004527f72fdaf6608fcd614cdab8afd23d0b707bfc44e685019cc3a5ace611655fe7f045f5260245f209068fbb67fda52d4bfb8bf8114613cdb578015613ccb575b811980549182159260011c5f19810191600183811b1794613c7257856020525f5260405f20948554928315613c69575f9798505f19840103613c4b575b5050505555600190565b5f1980849383010154928392010155855260408520555f8080613c41565b50505050505050565b9496505050505060019281815414613cb55783810182815414613ca6575060020190815414613ca157505f9150565b5f9055565b905f9250600201908154905555565b5f91506002848201918254815501908154905555565b5068fbb67fda52d4bfb8bf613c04565b63f5a267f15f526004601cfd5b91905f926318fb58646004525f5260245f209068fbb67fda52d4bfb8bf8114613cdb578015613ccb57811980549182159260011c5f19810191600183811b1794613c7257856020525f5260405f20948554928315613c69575f9798505f19840103613c4b575050505555600190565b905f916318fb58646004527f72fdaf6608fcd614cdab8afd23d0b707bfc44e685019cc3a5ace611655fe7f035f5260245f209068fbb67fda52d4bfb8bf8114613cdb578015613e83575b811991825491816020528215613de9575b805f5260405f2092835415613dc8575050505050565b9091929394955060011c8092015560010180915560011b6001179055600190565b915080548015613e7a57828114613e7457600182018054908115613e665750838114613e5f5760028301918254928315613e505750848314613e48575f52600160405f20555f52600260405f20555f52600360405f2055600791613db2565b505050505050565b95505050505091925055600190565b5050505050565b945050505091925055600190565b50505050565b50555060019150565b5068fbb67fda52d4bfb8bf613da1565b60405190613ea2604083613801565b600382527f41313800000000000000000000000000000000000000000000000000000000006020830152565b9081602091031261218e5751801515810361218e5790565b613f6091602091613ef6816144ca565b50613f008261433d565b506001600160a01b03613f116140d5565b16906040518095819482937f4c472fc9000000000000000000000000000000000000000000000000000000008452600484019092916001600160a01b0360209181604085019616845216910152565b03915afa908115613fee576001600160a01b03916020915f91613ff9575b506004604051809481937f01e1d114000000000000000000000000000000000000000000000000000000008352165afa908115613fee575f91613fbf575090565b90506020813d602011613fe6575b81613fda60209383613801565b8101031261218e575190565b3d9150613fcd565b6040513d5f823e3d90fd5b6140109150823d84116103295761031b8183613801565b5f613f7e565b60245f9160206001600160a01b0361402c6140d5565b16604051938480927fa9c9a9180000000000000000000000000000000000000000000000000000000082527f06d15878a0883034bd095c66a4b2987dfae5eb662cf9ef4aaa5ce27b533782bc60048301525afa918215613fee575f926140a9575b506001600160a01b038091169116146140a35790565b50600190565b6001600160a01b039192506140cd829160203d6020116103295761031b8183613801565b92915061408d565b6001600160a01b037fe91688684975c4d7d54a65dd96da5d4dcbb54b8971c046d5351d3c111e43a8005461410a6126ed613902565b1690565b61411a613bb8916144ca565b60405190614129604083613801565b600382527f4131320000000000000000000000000000000000000000000000000000000000602083015261387d565b614164613bb891614016565b60405190614173604083613801565b600382527f4131310000000000000000000000000000000000000000000000000000000000602083015261387d565b613bb892916141b091613ee6565b1015604051906141c1604083613801565b600282527f4136000000000000000000000000000000000000000000000000000000000000602083015261387d565b70010000000000000000000000000000000081101561421e576fffffffffffffffffffffffffffffffff1690565b6335278d125f526004601cfd5b91906014526034526fa9059cbb0000000000000000000000005f5260205f6044601082855af1908160015f51141615614267575b50505f603452565b3b153d171015614278575f8061425f565b6390b8ec185f526004601cfd5b60ff7fe91688684975c4d7d54a65dd96da5d4dcbb54b8971c046d5351d3c111e43a800546142bf6142b4613902565b838360a01c1661387d565b60a81c1690565b60206001600160a01b036024816142db6140d5565b169360405194859384927f24d7806c0000000000000000000000000000000000000000000000000000000084521660048301525afa908115613fee575f91614321575090565b61433a915060203d602011612457576124498183613801565b90565b60206001600160a01b036024816143526140d5565b169360405194859384927fc87fa42a0000000000000000000000000000000000000000000000000000000084521660048301525afa908115613fee575f91614321575090565b613bb8906001600160a01b03604051916143b3604084613801565b600383527f4131370000000000000000000000000000000000000000000000000000000000602084015216151561387d565b60249060206001600160a01b036143fa6140d5565b16604051938480927fa9c9a9180000000000000000000000000000000000000000000000000000000082527f06d15878a0883034bd095c66a4b2987dfae5eb662cf9ef4aaa5ce27b533782bc60048301525afa918215613fee575f926144a9575b50613bb8826001600160a01b0360405191614477604084613801565b600283527f4b39000000000000000000000000000000000000000000000000000000000000602084015216151561387d565b6144c391925060203d6020116103295761031b8183613801565b905f61445b565b60206001600160a01b036024816144df6140d5565b169360405194859384927f652b9b410000000000000000000000000000000000000000000000000000000084521660048301525afa908115613fee575f9161432157509056fea26469706673582212201e0ecff28c985a33cc06c8d623f04842fcc3573d0e0554498e7ddc8dc73b0c0664736f6c634300081e0033","linkReferences":{}},"methodIdentifiers":{"canExecuteProposal(bytes32)":"c31fd6aa","cancelProposal(bytes32)":"37376ca8","contractName()":"75d0c0dc","contractVersion()":"a0a8e460","executeSettleBatch(bytes32)":"10d03d64","getBatchIdBalances(address,bytes32)":"bff9c21a","getDNVaultByAsset(address)":"d0fab258","getPendingProposals(address)":"41076538","getRequestedShares(address,bytes32)":"53a7f925","getSettlementCooldown()":"c34ee627","getSettlementProposal(bytes32)":"b0b3242d","getYieldTolerance()":"370585f4","initialize(address)":"c4d66de8","isPaused()":"b187bd26","kAssetPush(address,uint256,bytes32)":"a8412deb","kAssetRequestPull(address,uint256,bytes32)":"95f4042b","kAssetTransfer(address,address,address,uint256,bytes32)":"c6099092","kSharesRequestPull(address,uint256,bytes32)":"8f6b6ee2","kSharesRequestPush(address,uint256,bytes32)":"d7eebeaf","multicall(bytes[])":"ac9650d8","proposeSettleBatch(address,address,bytes32,uint256,uint64,uint64)":"3e25562e","proxiableUUID()":"52d1902d","registry()":"7b103999","rescueAssets(address,address,uint256)":"d01b5de4","setMaxAllowedDelta(uint256)":"0fa37592","setPaused(bool)":"16c38b3c","setSettlementCooldown(uint256)":"46b6aa23","upgradeToAndCall(address,bytes)":"4f1ef286","virtualBalance(address,address)":"6ad3182d"},"storageLayout":{"storage":[],"types":{}},"id":59}