{"abi":[{"type":"constructor","inputs":[],"stateMutability":"nonpayable"},{"type":"receive","stateMutability":"payable"},{"type":"function","name":"canExecuteProposal","inputs":[{"name":"proposalId","type":"bytes32","internalType":"bytes32"}],"outputs":[{"name":"canExecute","type":"bool","internalType":"bool"},{"name":"reason","type":"string","internalType":"string"}],"stateMutability":"view"},{"type":"function","name":"cancelProposal","inputs":[{"name":"proposalId","type":"bytes32","internalType":"bytes32"}],"outputs":[],"stateMutability":"nonpayable"},{"type":"function","name":"contractName","inputs":[],"outputs":[{"name":"","type":"string","internalType":"string"}],"stateMutability":"pure"},{"type":"function","name":"contractVersion","inputs":[],"outputs":[{"name":"","type":"string","internalType":"string"}],"stateMutability":"pure"},{"type":"function","name":"executeSettleBatch","inputs":[{"name":"proposalId","type":"bytes32","internalType":"bytes32"}],"outputs":[],"stateMutability":"payable"},{"type":"function","name":"getBatchIdBalances","inputs":[{"name":"vault","type":"address","internalType":"address"},{"name":"batchId","type":"bytes32","internalType":"bytes32"}],"outputs":[{"name":"deposited","type":"uint256","internalType":"uint256"},{"name":"requested","type":"uint256","internalType":"uint256"}],"stateMutability":"view"},{"type":"function","name":"getDNVaultByAsset","inputs":[{"name":"asset","type":"address","internalType":"address"}],"outputs":[{"name":"vault","type":"address","internalType":"address"}],"stateMutability":"view"},{"type":"function","name":"getPendingProposals","inputs":[{"name":"vault","type":"address","internalType":"address"}],"outputs":[{"name":"pendingProposals","type":"bytes32[]","internalType":"bytes32[]"}],"stateMutability":"view"},{"type":"function","name":"getRequestedShares","inputs":[{"name":"vault","type":"address","internalType":"address"},{"name":"batchId","type":"bytes32","internalType":"bytes32"}],"outputs":[{"name":"","type":"uint256","internalType":"uint256"}],"stateMutability":"view"},{"type":"function","name":"getSettlementCooldown","inputs":[],"outputs":[{"name":"","type":"uint256","internalType":"uint256"}],"stateMutability":"view"},{"type":"function","name":"getSettlementProposal","inputs":[{"name":"proposalId","type":"bytes32","internalType":"bytes32"}],"outputs":[{"name":"proposal","type":"tuple","internalType":"struct IkAssetRouter.VaultSettlementProposal","components":[{"name":"asset","type":"address","internalType":"address"},{"name":"vault","type":"address","internalType":"address"},{"name":"batchId","type":"bytes32","internalType":"bytes32"},{"name":"totalAssets","type":"uint256","internalType":"uint256"},{"name":"netted","type":"int256","internalType":"int256"},{"name":"yield","type":"int256","internalType":"int256"},{"name":"executeAfter","type":"uint64","internalType":"uint64"},{"name":"lastFeesChargedManagement","type":"uint64","internalType":"uint64"},{"name":"lastFeesChargedPerformance","type":"uint64","internalType":"uint64"}]}],"stateMutability":"view"},{"type":"function","name":"getYieldTolerance","inputs":[],"outputs":[{"name":"","type":"uint256","internalType":"uint256"}],"stateMutability":"view"},{"type":"function","name":"initialize","inputs":[{"name":"registry_","type":"address","internalType":"address"}],"outputs":[],"stateMutability":"nonpayable"},{"type":"function","name":"isPaused","inputs":[],"outputs":[{"name":"","type":"bool","internalType":"bool"}],"stateMutability":"view"},{"type":"function","name":"kAssetPush","inputs":[{"name":"_asset","type":"address","internalType":"address"},{"name":"amount","type":"uint256","internalType":"uint256"},{"name":"batchId","type":"bytes32","internalType":"bytes32"}],"outputs":[],"stateMutability":"payable"},{"type":"function","name":"kAssetRequestPull","inputs":[{"name":"_asset","type":"address","internalType":"address"},{"name":"amount","type":"uint256","internalType":"uint256"},{"name":"batchId","type":"bytes32","internalType":"bytes32"}],"outputs":[],"stateMutability":"payable"},{"type":"function","name":"kAssetTransfer","inputs":[{"name":"sourceVault","type":"address","internalType":"address"},{"name":"targetVault","type":"address","internalType":"address"},{"name":"_asset","type":"address","internalType":"address"},{"name":"amount","type":"uint256","internalType":"uint256"},{"name":"batchId","type":"bytes32","internalType":"bytes32"}],"outputs":[],"stateMutability":"payable"},{"type":"function","name":"kSharesRequestPull","inputs":[{"name":"sourceVault","type":"address","internalType":"address"},{"name":"amount","type":"uint256","internalType":"uint256"},{"name":"batchId","type":"bytes32","internalType":"bytes32"}],"outputs":[],"stateMutability":"payable"},{"type":"function","name":"kSharesRequestPush","inputs":[{"name":"sourceVault","type":"address","internalType":"address"},{"name":"amount","type":"uint256","internalType":"uint256"},{"name":"batchId","type":"bytes32","internalType":"bytes32"}],"outputs":[],"stateMutability":"payable"},{"type":"function","name":"multicall","inputs":[{"name":"data","type":"bytes[]","internalType":"bytes[]"}],"outputs":[{"name":"","type":"bytes[]","internalType":"bytes[]"}],"stateMutability":"payable"},{"type":"function","name":"proposeSettleBatch","inputs":[{"name":"asset","type":"address","internalType":"address"},{"name":"vault","type":"address","internalType":"address"},{"name":"batchId","type":"bytes32","internalType":"bytes32"},{"name":"totalAssets_","type":"uint256","internalType":"uint256"},{"name":"lastFeesChargedManagement","type":"uint64","internalType":"uint64"},{"name":"lastFeesChargedPerformance","type":"uint64","internalType":"uint64"}],"outputs":[{"name":"proposalId","type":"bytes32","internalType":"bytes32"}],"stateMutability":"payable"},{"type":"function","name":"proxiableUUID","inputs":[],"outputs":[{"name":"","type":"bytes32","internalType":"bytes32"}],"stateMutability":"view"},{"type":"function","name":"registry","inputs":[],"outputs":[{"name":"","type":"address","internalType":"address"}],"stateMutability":"view"},{"type":"function","name":"rescueAssets","inputs":[{"name":"asset_","type":"address","internalType":"address"},{"name":"to_","type":"address","internalType":"address"},{"name":"amount_","type":"uint256","internalType":"uint256"}],"outputs":[],"stateMutability":"payable"},{"type":"function","name":"setMaxAllowedDelta","inputs":[{"name":"maxDelta_","type":"uint256","internalType":"uint256"}],"outputs":[],"stateMutability":"nonpayable"},{"type":"function","name":"setPaused","inputs":[{"name":"paused_","type":"bool","internalType":"bool"}],"outputs":[],"stateMutability":"nonpayable"},{"type":"function","name":"setSettlementCooldown","inputs":[{"name":"cooldown","type":"uint256","internalType":"uint256"}],"outputs":[],"stateMutability":"nonpayable"},{"type":"function","name":"upgradeToAndCall","inputs":[{"name":"newImplementation","type":"address","internalType":"address"},{"name":"data","type":"bytes","internalType":"bytes"}],"outputs":[],"stateMutability":"payable"},{"type":"function","name":"virtualBalance","inputs":[{"name":"vault","type":"address","internalType":"address"},{"name":"asset","type":"address","internalType":"address"}],"outputs":[{"name":"","type":"uint256","internalType":"uint256"}],"stateMutability":"view"},{"type":"event","name":"AssetsPushed","inputs":[{"name":"from","type":"address","indexed":true,"internalType":"address"},{"name":"amount","type":"uint256","indexed":false,"internalType":"uint256"}],"anonymous":false},{"type":"event","name":"AssetsRequestPulled","inputs":[{"name":"vault","type":"address","indexed":true,"internalType":"address"},{"name":"asset","type":"address","indexed":true,"internalType":"address"},{"name":"amount","type":"uint256","indexed":false,"internalType":"uint256"}],"anonymous":false},{"type":"event","name":"AssetsTransfered","inputs":[{"name":"sourceVault","type":"address","indexed":true,"internalType":"address"},{"name":"targetVault","type":"address","indexed":true,"internalType":"address"},{"name":"asset","type":"address","indexed":true,"internalType":"address"},{"name":"amount","type":"uint256","indexed":false,"internalType":"uint256"}],"anonymous":false},{"type":"event","name":"BatchSettled","inputs":[{"name":"vault","type":"address","indexed":true,"internalType":"address"},{"name":"batchId","type":"bytes32","indexed":true,"internalType":"bytes32"},{"name":"totalAssets","type":"uint256","indexed":false,"internalType":"uint256"}],"anonymous":false},{"type":"event","name":"ContractInitialized","inputs":[{"name":"registry","type":"address","indexed":true,"internalType":"address"}],"anonymous":false},{"type":"event","name":"Deposited","inputs":[{"name":"vault","type":"address","indexed":true,"internalType":"address"},{"name":"asset","type":"address","indexed":true,"internalType":"address"},{"name":"amount","type":"uint256","indexed":false,"internalType":"uint256"}],"anonymous":false},{"type":"event","name":"Initialized","inputs":[{"name":"version","type":"uint64","indexed":false,"internalType":"uint64"}],"anonymous":false},{"type":"event","name":"MaxAllowedDeltaUpdated","inputs":[{"name":"oldTolerance","type":"uint256","indexed":false,"internalType":"uint256"},{"name":"newTolerance","type":"uint256","indexed":false,"internalType":"uint256"}],"anonymous":false},{"type":"event","name":"Paused","inputs":[{"name":"paused_","type":"bool","indexed":false,"internalType":"bool"}],"anonymous":false},{"type":"event","name":"PegProtectionActivated","inputs":[{"name":"vault","type":"address","indexed":true,"internalType":"address"},{"name":"shortfall","type":"uint256","indexed":false,"internalType":"uint256"}],"anonymous":false},{"type":"event","name":"PegProtectionExecuted","inputs":[{"name":"sourceVault","type":"address","indexed":true,"internalType":"address"},{"name":"targetVault","type":"address","indexed":true,"internalType":"address"},{"name":"amount","type":"uint256","indexed":false,"internalType":"uint256"}],"anonymous":false},{"type":"event","name":"RescuedAssets","inputs":[{"name":"asset_","type":"address","indexed":true,"internalType":"address"},{"name":"to_","type":"address","indexed":true,"internalType":"address"},{"name":"amount_","type":"uint256","indexed":false,"internalType":"uint256"}],"anonymous":false},{"type":"event","name":"RescuedETH","inputs":[{"name":"to_","type":"address","indexed":true,"internalType":"address"},{"name":"amount_","type":"uint256","indexed":false,"internalType":"uint256"}],"anonymous":false},{"type":"event","name":"SettlementCancelled","inputs":[{"name":"proposalId","type":"bytes32","indexed":true,"internalType":"bytes32"},{"name":"vault","type":"address","indexed":true,"internalType":"address"},{"name":"batchId","type":"bytes32","indexed":true,"internalType":"bytes32"}],"anonymous":false},{"type":"event","name":"SettlementCooldownUpdated","inputs":[{"name":"oldCooldown","type":"uint256","indexed":false,"internalType":"uint256"},{"name":"newCooldown","type":"uint256","indexed":false,"internalType":"uint256"}],"anonymous":false},{"type":"event","name":"SettlementExecuted","inputs":[{"name":"proposalId","type":"bytes32","indexed":true,"internalType":"bytes32"},{"name":"vault","type":"address","indexed":true,"internalType":"address"},{"name":"batchId","type":"bytes32","indexed":true,"internalType":"bytes32"},{"name":"executor","type":"address","indexed":false,"internalType":"address"}],"anonymous":false},{"type":"event","name":"SettlementProposed","inputs":[{"name":"proposalId","type":"bytes32","indexed":true,"internalType":"bytes32"},{"name":"vault","type":"address","indexed":true,"internalType":"address"},{"name":"batchId","type":"bytes32","indexed":true,"internalType":"bytes32"},{"name":"totalAssets","type":"uint256","indexed":false,"internalType":"uint256"},{"name":"netted","type":"int256","indexed":false,"internalType":"int256"},{"name":"yield","type":"int256","indexed":false,"internalType":"int256"},{"name":"executeAfter","type":"uint256","indexed":false,"internalType":"uint256"},{"name":"lastFeesChargedManagement","type":"uint256","indexed":false,"internalType":"uint256"},{"name":"lastFeesChargedPerformance","type":"uint256","indexed":false,"internalType":"uint256"}],"anonymous":false},{"type":"event","name":"SettlementUpdated","inputs":[{"name":"proposalId","type":"bytes32","indexed":true,"internalType":"bytes32"},{"name":"totalAssets","type":"uint256","indexed":false,"internalType":"uint256"},{"name":"netted","type":"uint256","indexed":false,"internalType":"uint256"},{"name":"yield","type":"uint256","indexed":false,"internalType":"uint256"},{"name":"profit","type":"bool","indexed":false,"internalType":"bool"}],"anonymous":false},{"type":"event","name":"SharesRequestedPulled","inputs":[{"name":"vault","type":"address","indexed":true,"internalType":"address"},{"name":"batchId","type":"bytes32","indexed":true,"internalType":"bytes32"},{"name":"amount","type":"uint256","indexed":false,"internalType":"uint256"}],"anonymous":false},{"type":"event","name":"SharesRequestedPushed","inputs":[{"name":"vault","type":"address","indexed":true,"internalType":"address"},{"name":"batchId","type":"bytes32","indexed":true,"internalType":"bytes32"},{"name":"amount","type":"uint256","indexed":false,"internalType":"uint256"}],"anonymous":false},{"type":"event","name":"SharesSettled","inputs":[{"name":"vaults","type":"address[]","indexed":false,"internalType":"address[]"},{"name":"batchId","type":"bytes32","indexed":true,"internalType":"bytes32"},{"name":"totalRequestedShares","type":"uint256","indexed":false,"internalType":"uint256"},{"name":"totalAssets","type":"uint256[]","indexed":false,"internalType":"uint256[]"},{"name":"sharePrice","type":"uint256","indexed":false,"internalType":"uint256"}],"anonymous":false},{"type":"event","name":"Upgraded","inputs":[{"name":"implementation","type":"address","indexed":true,"internalType":"address"}],"anonymous":false},{"type":"event","name":"YieldDistributed","inputs":[{"name":"vault","type":"address","indexed":true,"internalType":"address"},{"name":"yield","type":"int256","indexed":false,"internalType":"int256"}],"anonymous":false},{"type":"event","name":"YieldExceedsMaxDeltaWarning","inputs":[{"name":"vault","type":"address","indexed":false,"internalType":"address"},{"name":"asset","type":"address","indexed":false,"internalType":"address"},{"name":"batchId","type":"bytes32","indexed":false,"internalType":"bytes32"},{"name":"yield","type":"int256","indexed":false,"internalType":"int256"},{"name":"maxAllowedYield","type":"uint256","indexed":false,"internalType":"uint256"}],"anonymous":false},{"type":"error","name":"InvalidInitialization","inputs":[]},{"type":"error","name":"NotInitializing","inputs":[]},{"type":"error","name":"Reentrancy","inputs":[]},{"type":"error","name":"UnauthorizedCallContext","inputs":[]},{"type":"error","name":"UpgradeFailed","inputs":[]}],"bytecode":{"object":"0x60a080604052346099573060805263409feecd195460018116608c5760011c6002600160401b0319016048575b6144d2908161009e82396080518181816112be01526113700152f35b6002600160411b0363409feecd19556001600160401b0360209081527fc7f505b2f371ae2175ee4913f4499e1f2633a7b5936321eed1cdaeb6115181d29080a1602c565b63f92ee8a95f526004601cfd5b5f80fdfe60a0604052600436101561001a575b3615610018575f80fd5b005b5f6080525f3560e01c80630fa37592146135ff57806310d03d64146126e857806316c38b3c1461257c578063370585f41461253e57806337376ca8146123c15780633e25562e1461172f578063410765381461156857806346b6aa23146114895780634f1ef2861461131b57806352d1902d146112a957806353a7f9251461123c5780636ad3182d1461120857806375d0c0dc146111a65780637b103999146111795780638f6b6ee2146110a357806395f4042b14610f7d578063a0a8e46014610f1b578063a8412deb14610e3f578063ac9650d814610d07578063b0b3242d14610ba1578063b187bd2614610b7b578063bff9c21a14610ac9578063c31fd6aa14610a8a578063c34ee62714610a4c578063c4d66de8146107f7578063c609909214610600578063d01b5de414610343578063d0fab2581461026c5763d7eebeaf0361000e5761016a36613704565b91610173613ab6565b61017b613ae5565b61018e610186613e0a565b8315156137f4565b61019733614085565b6101d1816001600160a01b03165f527f72fdaf6608fcd614cdab8afd23d0b707bfc44e685019cc3a5ace611655fe7f0760205260405f2090565b83608051526020526040608051208054906080515083820180921161023b57556040519182526001600160a01b0316907f1230d10fa54cf4fa480deb2fa6a8b12962f8e88b2b57230c541d55851011e6a590602090a3608051688000000000ab143c065d60805180f35b7f4e487b71000000000000000000000000000000000000000000000000000000006080515260116004526024608051fd5b3461033d57602060031936011261033d57610285613695565b60206001600160a01b0360448161029a61404c565b169360405194859384927fe36bea44000000000000000000000000000000000000000000000000000000008452166004830152600160248301525afa80156103305760209160805191610303575b506102f28161430f565b6001600160a01b0360405191168152f35b6103239150823d8411610329575b61031b8183613778565b810190613a97565b826102e8565b503d610311565b6040513d608051823e3d90fd5b60805180fd5b606060031936011261033d57610357613695565b61035f6136ab565b9060443561037d61036f336141e3565b61037761383e565b906137f4565b6001600160a01b038316926040926103cc845161039a8682613778565b600281527f4b3500000000000000000000000000000000000000000000000000000000000060208201528615156137f4565b6001600160a01b038116908161053057505081151580610526575b6103f390610377613a5c565b6080519081908190819085905af1903d156104f9573d9267ffffffffffffffff84116104c8576104bc60209385857fffffffffffffffffffffffffffffffffffffffffffffffffffffffffffffffe0601f7f63b8c8e180bc85c19daef23e2bb787fb49672d3a9ecde24409c18ccb1accb5d1990116019061047685519283613778565b81526080513d9187013e5b82519061048e8483613778565b600282527f4b37000000000000000000000000000000000000000000000000000000000000868301526137f4565b51908152a25b60805180f35b7f4e487b71000000000000000000000000000000000000000000000000000000006080515260416004526024608051fd5b7f63b8c8e180bc85c19daef23e2bb787fb49672d3a9ecde24409c18ccb1accb5d1926104bc602093610481565b50478211156103e7565b936105be84602094876105a46105687f552c8f8dc30f2786e14004d98595afcc1c0ea1f552b86e86f64a2da74761eaab99979a61425a565b158651906105768883613778565b600282527f4b380000000000000000000000000000000000000000000000000000000000008a8301526137f4565b821515806105c8575b6105b990610377613a5c565b6142b5565b51908152a36104c2565b50306014526f70a08231000000000000000000000000608051526105b9878060246010855afa601f3d111688510284111590506105ad565b60a060031936011261033d57610614613695565b61061c6136ab565b6044356001600160a01b038116929183820361033d5760206001600160a01b03807f710dc442f97591ada42c89862a834ebac6dd641869d3bfa3707b37661397c93f936107d86064359661073960843591610675613ab6565b61067d613ae5565b610690610688613e0a565b8b15156137f4565b61069933614085565b6fffffffffffffffffffffffffffffffff6106b38b614167565b6106ed8d6001600160a01b03165f527f72fdaf6608fcd614cdab8afd23d0b707bfc44e685019cc3a5ace611655fe7f0660205260405f2090565b85608051528a526107076040608051209183835416613954565b81547fffffffffffffffffffffffffffffffff000000000000000000000000000000001692169182179055908b614119565b61074288614167565b9061077d846001600160a01b03165f527f72fdaf6608fcd614cdab8afd23d0b707bfc44e685019cc3a5ace611655fe7f0660205260405f2090565b9060805152865261079860406080512091825460801c613954565b6fffffffffffffffffffffffffffffffff7fffffffffffffffffffffffffffffffff0000000000000000000000000000000083549260801b169116179055565b60405195865216941692a4608051688000000000ab143c065d60805180f35b3461033d57602060031936011261033d57610810613695565b7fffffffffffffffffffffffffffffffffffffffffffffffffffffffffbf601132809181548060038455610a07575b50740100000000000000000000000000000000000000007fffffffffffffffffffff00000000000000000000000000000000000000000000916001600160a01b037fe91688684975c4d7d54a65dd96da5d4dcbb54b8971c046d5351d3c111e43a80054916108eb6040516108b4604082613778565b600281527f4b31000000000000000000000000000000000000000000000000000000000000602082015260ff8560a01c16156137f4565b16928391610932604051610900604082613778565b600281527f4b3200000000000000000000000000000000000000000000000000000000000060208201528415156137f4565b1617177fe91688684975c4d7d54a65dd96da5d4dcbb54b8971c046d5351d3c111e43a80055610e107f72fdaf6608fcd614cdab8afd23d0b707bfc44e685019cc3a5ace611655fe7f01556103e87f72fdaf6608fcd614cdab8afd23d0b707bfc44e685019cc3a5ace611655fe7f02557fb8bb5a08c752924168166e254455ca6708ef2ac4cfd39bba39eb5a5b89f0cbd6608051608051a26109d35760805180f35b6002905560016020527fc7f505b2f371ae2175ee4913f4499e1f2633a7b5936321eed1cdaeb6115181d2602080a1806104c2565b909150600181811c14303b1015610a3d5760ff1b9190911b9081907401000000000000000000000000000000000000000061083f565b63f92ee8a9608051526004601cfd5b3461033d5760805160031936011261033d5760207f72fdaf6608fcd614cdab8afd23d0b707bfc44e685019cc3a5ace611655fe7f0154604051908152f35b3461033d57602060031936011261033d57610aa6600435613986565b90610ac5604051928392151583526040602084015260408301906136c1565b0390f35b3461033d57604060031936011261033d57610b1b610ae5613695565b6001600160a01b03165f527f72fdaf6608fcd614cdab8afd23d0b707bfc44e685019cc3a5ace611655fe7f0660205260405f2090565b60243560805152602052604060805120604051604081019080821067ffffffffffffffff8311176104c857604092602092845254906fffffffffffffffffffffffffffffffff82169182825260801c928391015282519182526020820152f35b3461033d5760805160031936011261033d576020610b976141a2565b6040519015158152f35b3461033d57602060031936011261033d57604051610bbe8161372e565b6080518152608051602082015260805160408201526080516060820152608051608082015260805160a082015260805160c082015260805160e0820152610100608051910152600435608051527f72fdaf6608fcd614cdab8afd23d0b707bfc44e685019cc3a5ace611655fe7f0860205261012060406080512067ffffffffffffffff6001600160a01b038160405193610c578561372e565b81838254169586815284600184015416926020820193845260028101546040830190815260038201546060840190815260048301549160808501928352600660058501549460a0870195865201549889978761010060c0890198828c168a528260e082019c60401c168c52019b60801c168b526040519c8d52511660208c01525160408b01525160608a01525160808901525160a0880152511660c0860152511660e08401525116610100820152f35b602060031936011261033d5760043567ffffffffffffffff811161033d573660238201121561033d57806004013567ffffffffffffffff811161033d578060051b366024828501011161033d573461033d576040519283926020845280846020015260408481019380602485018637850101928391610d9e575b505050806040520360401b178060401c9067ffffffffffffffff16f35b919350915b8091604481518601602481013591829101843760805190389084305af415610e3457603f67ffffffffffffffe0917fffffffffffffffffffffffffffffffffffffffffffffffffffffffffffffffc0888503018152602001923d81523d608051602083013e3d010116916020608051913d0101528483821015610e27575090610da3565b9350509050838080610d81565b853d608051823e3d90fd5b610edb610e4b36613704565b90929150610e57613ab6565b610e5f613ae5565b610e72610e6a613e0a565b8415156137f4565b610e7b336140cf565b610e8483614167565b90610ebf336001600160a01b03165f527f72fdaf6608fcd614cdab8afd23d0b707bfc44e685019cc3a5ace611655fe7f0660205260405f2090565b906080515260205261079860406080512091825460801c613954565b6040519081527f4c56d82314c7ba16ae8b6c8f189249e688d64c23ce4ad32dce3533e7e14b550a60203392a2608051688000000000ab143c065d60805180f35b3461033d5760805160031936011261033d5760408051610ac591610f3f9082613778565b600581527f312e302e3000000000000000000000000000000000000000000000000000000060208201526040519182916020835260208301906136c1565b6001600160a01b03610f8e36613704565b610f9a93929193613ab6565b610fa2613ae5565b610fb5610fad613e0a565b8515156137f4565b610fbe336140cf565b610fc9848333614119565b610fd284614167565b9061100d336001600160a01b03165f527f72fdaf6608fcd614cdab8afd23d0b707bfc44e685019cc3a5ace611655fe7f0660205260405f2090565b90608051526020526fffffffffffffffffffffffffffffffff6110396040608051209282845416613954565b167fffffffffffffffffffffffffffffffff0000000000000000000000000000000082541617905560405192835216907fd95447b6ffc5599057ab190458c076456cdd9029001c51c670a5734cef8ebf7660203392a3608051688000000000ab143c065d60805180f35b60206001600160a01b037f5cd8a9107e6e9586b797145cd0c5d437a526622477140ec7c4db00304c015a3d6110d736613704565b94916110e4949194613ab6565b6110ec613ae5565b6110ff6110f7613e0a565b8615156137f4565b61110833614085565b611142816001600160a01b03165f527f72fdaf6608fcd614cdab8afd23d0b707bfc44e685019cc3a5ace611655fe7f0760205260405f2090565b8660805152835260406080512061115a868254613947565b90556040519485521692a3608051688000000000ab143c065d60805180f35b3461033d5760805160031936011261033d5760206001600160a01b0361119d61404c565b16604051908152f35b3461033d5760805160031936011261033d5760408051610ac5916111ca9082613778565b600c81527f6b4173736574526f75746572000000000000000000000000000000000000000060208201526040519182916020835260208301906136c1565b3461033d57604060031936011261033d576020611234611226613695565b61122e6136ab565b90613e5d565b604051908152f35b3461033d57604060031936011261033d5761128e611258613695565b6001600160a01b03165f527f72fdaf6608fcd614cdab8afd23d0b707bfc44e685019cc3a5ace611655fe7f0760205260405f2090565b60243560805152602052602060406080512054604051908152f35b3461033d5760805160031936011261033d57307f00000000000000000000000000000000000000000000000000000000000000000361130c5760206040517f360894a13ba1a3210667c828492db98dca3e2076cc3735a920a3ca505d382bbc8152f35b639f03a026608051526004601cfd5b604060031936011261033d5761132f613695565b6024359067ffffffffffffffff821161033d573660238301121561033d5781600401359067ffffffffffffffff821161033d57366024838501011161033d577f0000000000000000000000000000000000000000000000000000000000000000301461130c576001600160a01b03906113b26113aa336141e3565b6103776138b4565b6113bb8161430f565b163d608051526352d1902d6001527f360894a13ba1a3210667c828492db98dca3e2076cc3735a920a3ca505d382bbc602060016004601d855afa510361147b57807fbc7cd75a20ee27fd9adebab32041f755214dbc6bffa90cc0225b39da2e5c2d3b608051608051a281817f360894a13ba1a3210667c828492db98dca3e2076cc3735a920a3ca505d382bbc556114525760805180f35b81602460405194018437608051918338925af4156114715780806104c2565b3d608051823e3d90fd5b6355299b496001526004601dfd5b3461033d57602060031936011261033d577fa8d4d847ed037a895f411bea9d10f2f41ab2426d173647974c6520abe4c3ef2760406004356114cc6113aa336141e3565b61151182516114db8482613778565b600281527f41370000000000000000000000000000000000000000000000000000000000006020820152620151808311156137f4565b7f72fdaf6608fcd614cdab8afd23d0b707bfc44e685019cc3a5ace611655fe7f015490807f72fdaf6608fcd614cdab8afd23d0b707bfc44e685019cc3a5ace611655fe7f015582519182526020820152a160805180f35b3461033d57602060031936011261033d576115ba611584613695565b6001600160a01b03165f527f72fdaf6608fcd614cdab8afd23d0b707bfc44e685019cc3a5ace611655fe7f0560205260405f2090565b6318fb58646004526080515260246080512080195490604051918260200181156116b0575060011c906080515b82811061168b5750506020905b80835260051b8201016040526116458151151560405190611616604083613778565b600382527f413130000000000000000000000000000000000000000000000000000000000060208301526137f4565b6040518091602082016020835281518091526020604084019201906080515b818110611672575050500390f35b8251845285945060209384019390920191600101611664565b8060019183015468fbb67fda52d4bfb8bf8114150260208260051b87010152016115e7565b826020935491826116c4575b5050506115f4565b9091925060019268fbb67fda52d4bfb8bf81141502905281810154806116eb575b806116bc565b68fbb67fda52d4bfb8bf81141502604085015260029081015490915080611713575b806116e5565b68fbb67fda52d4bfb8bf8114150260608401525060038361170d565b60c060031936011261033d57611743613695565b61174b6136ab565b90604435606435916080515060843567ffffffffffffffff811680910361033d5760a43567ffffffffffffffff8116949085900361033d5761178b613ab6565b611793613ae5565b602460206001600160a01b036117a761404c565b16604051928380927f541d55480000000000000000000000000000000000000000000000000000000082523360048301525afa8015610330576117f69160805191612392575b506103776138b4565b608080516318fb58646004527f72fdaf6608fcd614cdab8afd23d0b707bfc44e685019cc3a5ace611655fe7f0481529051602490209095908568fbb67fda52d4bfb8bf811461225a578615612382575b8119918254918160205282156122ca575b8060805152604060805120928354156122a65750505050505b6118b26040968751906118838983613778565b600282527f413300000000000000000000000000000000000000000000000000000000000060208301526137f4565b6118bc8488613e5d565b9260017f72fdaf6608fcd614cdab8afd23d0b707bfc44e685019cc3a5ace611655fe7f00540193847f72fdaf6608fcd614cdab8afd23d0b707bfc44e685019cc3a5ace611655fe7f005560a06001600160a01b03808b16971695895190888252876020830152898b8301524260608301526080820152209861196e816001600160a01b03165f527f72fdaf6608fcd614cdab8afd23d0b707bfc44e685019cc3a5ace611655fe7f0560205260405f2090565b608051506318fb5864600452608051526024608051208019548060011c901515918054156002600183015415920154159315612269575b50506119e991508a51906119b98c83613778565b600382527f41323000000000000000000000000000000000000000000000000000000000006020830152156137f4565b608080516318fb58646004527f72fdaf6608fcd614cdab8afd23d0b707bfc44e685019cc3a5ace611655fe7f03905251602490208a68fbb67fda52d4bfb8bf811461225a578b159182612249575b8019541561220a5760205260805152611a8f8a608051205415155b8b5190611a5f8d83613778565b600382527f41313300000000000000000000000000000000000000000000000000000000006020830152156137f4565b611ac9826001600160a01b03165f527f72fdaf6608fcd614cdab8afd23d0b707bfc44e685019cc3a5ace611655fe7f0560205260405f2090565b608080516318fb58646004529182525160249020918c906121fa575b82199283549181602052821561212d575b80608051528d60805120928354156121095750505050611b4e91505b8a5190611b1f8c83613778565b600382527f413134000000000000000000000000000000000000000000000000000000000060208301526137f4565b611b5781613f8d565b15611ed45780611b9a611c0b926001600160a01b03165f527f72fdaf6608fcd614cdab8afd23d0b707bfc44e685019cc3a5ace611655fe7f0660205260405f2090565b8960805152602052611be58a608051205460801c916001600160a01b03165f527f72fdaf6608fcd614cdab8afd23d0b707bfc44e685019cc3a5ace611655fe7f0660205260405f2090565b89608051526020526fffffffffffffffffffffffffffffffff8a608051205416906138ef565b905b611c2081611c1b84886138ef565b6138ef565b9080611e4f575b507f72fdaf6608fcd614cdab8afd23d0b707bfc44e685019cc3a5ace611655fe7f015442019168010000000000000000831015611e40578284868d998a8e8b8f8f835195611c748761372e565b8652602086019081528386019182526060860192835260808601938a855260a08701958c875260c088019a67ffffffffffffffff168b5260e08801998a526101008801988952608051527f72fdaf6608fcd614cdab8afd23d0b707bfc44e685019cc3a5ace611655fe7f086020526080512095516001600160a01b03166001600160a01b031686547fffffffffffffffffffffffff000000000000000000000000000000000000000016178655516001600160a01b031660018601906001600160a01b031681547fffffffffffffffffffffffff000000000000000000000000000000000000000016179055516002850155516003840155516004830155516005820155600601925167ffffffffffffffff168d84549351901b6fffffffffffffffff000000000000000016915160801b77ffffffffffffffff0000000000000000000000000000000016927fffffffffffffffff00000000000000000000000000000000000000000000000016171717905589519586526020860152888501526060840152608083015260a082015260c07fbf9fe4a18fb0d2f9902d99e958ec41370c41b4e41657141a31b44e206bf7ec3591a4608051688000000000ab143c065d51908152602090f35b6335278d12608051526004601cfd5b611e7e612710917f72fdaf6608fcd614cdab8afd23d0b707bfc44e685019cc3a5ace611655fe7f025490613934565b04808260ff1d808401181115611c275760a07e1f1157c3ec7dc0509bb1b6fab05fa542bbfbeb386e304c963567a821b3dd0c918b51908a82528960208301528b8d8301528460608301526080820152a18a611c27565b8851907f18160ddd0000000000000000000000000000000000000000000000000000000082526020826004818b5afa9182156120fd57608051926120c5575b50811580156120bd575b15611fc557611fbf9150611f61816001600160a01b03165f527f72fdaf6608fcd614cdab8afd23d0b707bfc44e685019cc3a5ace611655fe7f0760205260405f2090565b8960805152602052611fa98a6080512054916001600160a01b03165f527f72fdaf6608fcd614cdab8afd23d0b707bfc44e685019cc3a5ace611655fe7f0660205260405f2090565b896080515260205289608051205460801c6138ef565b90611c0d565b611fff816001600160a01b03165f527f72fdaf6608fcd614cdab8afd23d0b707bfc44e685019cc3a5ace611655fe7f0760205260405f2090565b896080515260205289608051205491608051508683029281811589838704141702156120365750611fa990611fbf93045b91610ae5565b9281885f198187098381108401900395098260805103831690858411156120ae57611fbf9582611fa99504806003026002188082026002030280820260020302808202600203028082026002030280820260020302809102600203029360018484830304948060805103040192119003021702612030565b63ae47f702608051526004601cfd5b508515611f1d565b9091506020813d6020116120f5575b816120e160209383613778565b810103126120f15751908b611f13565b5f80fd5b3d91506120d4565b8a513d608051823e3d90fd5b909192935060011c8092015560010180915560011b6001179055611b4e6001611b12565b9150805480156121eb578281146121de578d6001830180549081156121cb57508481146121bc57600284019283549384156121a857508584146121985790600292916080515260018260805120556080515260805120556080515260038d6080512055600791611af6565b505050505050611b4e9150611b12565b96505050505050915055611b4e6001611b12565b5050505050611b4e9150611b12565b955050505050915055611b4e6001611b12565b505050611b4e9150611b12565b505550611b4e90506001611b12565b5068fbb67fda52d4bfb8bf611ae5565b906001918181541461223e5781838201541461223e5760020154146122355750611a8f608051611a52565b611a8f90611a52565b5050611a8f90611a52565b68fbb67fda52d4bfb8bf9150611a37565b63f5a267f1608051526004601cfd5b60805191925061229f5750600190612298575060029061229057506119e960038c806119a5565b808c806119a5565b81806119a5565b90806119a5565b9091929394995060011c8092015560010180915560011b6001179055600194611870565b9150805480156123765782811461236d5760018201805490811561235c57508381146123525760028301918254928315612340575084831461233557608051526001604060805120556080515260026040608051205560805152600360406080512055600791611857565b505050505050611870565b95505050505091965055600194611870565b5050505050611870565b945050505091965055600194611870565b50505050611870565b50555060019550611870565b5068fbb67fda52d4bfb8bf611846565b6123b4915060203d6020116123ba575b6123ac8183613778565b810190613e45565b886117ed565b503d6123a2565b3461033d57602060031936011261033d576004356123dd613ab6565b6123e5613ae5565b602460206001600160a01b036123f961404c565b16604051928380927f0c68ba210000000000000000000000000000000000000000000000000000000082523360048301525afa801561033057612447916080519161251f57506103776138b4565b80608051527f72fdaf6608fcd614cdab8afd23d0b707bfc44e685019cc3a5ace611655fe7f0860205260406080512060026001600160a01b03600183015416916124d56124cd856124c8866001600160a01b03165f527f72fdaf6608fcd614cdab8afd23d0b707bfc44e685019cc3a5ace611655fe7f0560205260405f2090565b613c5f565b6103776137b9565b016124e08154613b31565b5054917fef597a7069e38df320d1d2425e591c723b3d5a3285b98942f803ccff555b67d2608051608051a4608051688000000000ab143c065d60805180f35b612538915060203d6020116123ba576123ac8183613778565b836117ed565b3461033d5760805160031936011261033d5760207f72fdaf6608fcd614cdab8afd23d0b707bfc44e685019cc3a5ace611655fe7f0254604051908152f35b3461033d57602060031936011261033d5760043580151580910361033d5760249060206001600160a01b036125af61404c565b16604051938480927f2500f2b60000000000000000000000000000000000000000000000000000000082523360048301525afa908115610330576126236020927f0e2fb031ee032dc02d8011dc50b816eb450cf856abd8261680dac74f72165bd294608051916126cb575b5061037761383e565b7fe91688684975c4d7d54a65dd96da5d4dcbb54b8971c046d5351d3c111e43a8005461265c612650613879565b60ff8360a01c166137f4565b7fffffffffffffffffffff00ffffffffffffffffffffffffffffffffffffffffff75ff0000000000000000000000000000000000000000008360a81b169116177fe91688684975c4d7d54a65dd96da5d4dcbb54b8971c046d5351d3c111e43a80055604051908152a160805180f35b6126e29150843d86116123ba576123ac8183613778565b8561261a565b60206003193601126120f1576004356126ff613ab6565b612707613ae5565b805f527f72fdaf6608fcd614cdab8afd23d0b707bfc44e685019cc3a5ace611655fe7f0860205260405f2060018101916001600160a01b03835416916127846124cd836124c8866001600160a01b03165f527f72fdaf6608fcd614cdab8afd23d0b707bfc44e685019cc3a5ace611655fe7f0560205260405f2090565b600681019067ffffffffffffffff825416421015946127db6040968751906127ac8983613778565b600282527f413500000000000000000000000000000000000000000000000000000000000060208301526137f4565b6127e484613cce565b506001600160a01b038083541691541690600283015493600384015491602460048601546005870154612847876001600160a01b03165f527f72fdaf6608fcd614cdab8afd23d0b707bfc44e685019cc3a5ace611655fe7f0660205260405f2090565b895f526020528b6fffffffffffffffffffffffffffffffff815f2054169161286d61435c565b9660206001600160a01b0361288061404c565b168451978880927fa3863a950000000000000000000000000000000000000000000000000000000082528b60048301525afa9586156135f557876001600160a01b03612971986020935f916135d8575b50169461291381516128e28382613778565b600381527f4b31300000000000000000000000000000000000000000000000000000000000858201528715156137f4565b8c6001600160a01b0361292461404c565b169151809a819482937f4c472fc9000000000000000000000000000000000000000000000000000000008452600484019092916001600160a01b0360209181604085019616845216910152565b03915afa80156135ce576001600160a01b0380918c985f916135af575b50169861299a8a61430f565b168603612c22575050506129de836001600160a01b03165f527f72fdaf6608fcd614cdab8afd23d0b707bfc44e685019cc3a5ace611655fe7f0660205260405f2090565b89608051526020526080518c608051205580612b95575b506080518113612b58575b5090503b1561033d5787517feeb8f2b500000000000000000000000000000000000000000000000000000000815285600482015260805181602481608051885af18015612b4c57612b33575b50803b1561033d578751907f1765b3130000000000000000000000000000000000000000000000000000000082528260048301528160248160805193608051905af18015612b2757612b08575b50917ffddc214c899c631ac36ab6c64ef4a6072b1b77d7e099e4d8977217917a635e8c936002927fedb477cd39fe3c5ba0562ca4f66170f778325877f6895520d694c84f71ddf6a9602080965b8b51908152a301549451338152a4608051688000000000ab143c065d60805180f35b60805192939192612b1891613778565b60805161033d57919087612a99565b88513d608051823e3d90fd5b608051612b3f91613778565b60805161033d5788612a4c565b89513d608051823e3d90fd5b602081612b877f8752a472e571a816aea92eec8dae9baf628e840f4929fbcc2d155e6233ff68a79387876142b5565b8c51908152a3888381612a00565b91508a517fbefe31700000000000000000000000000000000000000000000000000000000081528860048201526020816024818a5afa928315612c16578793612bf19260805191612bf7575b50612beb8161430f565b856142b5565b8b6129f5565b612c10915060203d6020116103295761031b8183613778565b8e612be1565b8c513d608051823e3d90fd5b93925094909593612c63906001600160a01b03165f527f72fdaf6608fcd614cdab8afd23d0b707bfc44e685019cc3a5ace611655fe7f0760205260405f2090565b8a5f526020528c805f205495612ca98a6001600160a01b03165f527f72fdaf6608fcd614cdab8afd23d0b707bfc44e685019cc3a5ace611655fe7f0760205260405f2090565b8c5f526020525f828120558061342a575b50612d28916020916001600160a01b03612cd261404c565b1690612cdc61435c565b90518095819482937f4c472fc9000000000000000000000000000000000000000000000000000000008452600484019092916001600160a01b0360209181604085019616845216910152565b03915afa801561341e576001600160a01b0391608051916133ff575b501690612d508261430f565b8c51907f01e1d114000000000000000000000000000000000000000000000000000000008252602082600481865afa80156133f357608051906133bf575b612d9892506138ef565b90612daf612da4613e0a565b6080518412156137f4565b803b1561033d578c51917f1765b31300000000000000000000000000000000000000000000000000000000835260048301528160248160805193608051905af18015612c16576133a6575b5067ffffffffffffffff81548c1c1680613343575b505460801c67ffffffffffffffff16806132e0575b50843b1561033d5789517feeb8f2b5000000000000000000000000000000000000000000000000000000008152876004820152608051816024816080518a5af1801561326e576132c7575b50803b1561033d578951907f1765b3130000000000000000000000000000000000000000000000000000000082528460048301528160248160805193608051905af180156120fd576132ae575b5080612f15575b5050917ffddc214c899c631ac36ab6c64ef4a6072b1b77d7e099e4d8977217917a635e8c936002927fedb477cd39fe3c5ba0562ca4f66170f778325877f6895520d694c84f71ddf6a960208096612ae6565b88517fb1791c0d000000000000000000000000000000000000000000000000000000008152602081600481885afa80156120fd576080519061327a575b612f5d915082613934565b9089517f87269729000000000000000000000000000000000000000000000000000000008152602081600481895afa90811561326e576080519161323c575b50801561320b57612fae920490613947565b8851907f07a2d13a000000000000000000000000000000000000000000000000000000008252806004830152602082602481885afa9182156120fd57608051926131d7575b5080613174575b508015612ec357813b1561033d5788517f9dc29fac0000000000000000000000000000000000000000000000000000000081526080516001600160a01b0386166004830152602482018390528180604481010381608051875af180156120fd5761315b575b5060049060206001600160a01b0361307561404c565b168b51938480927f3b19e84a0000000000000000000000000000000000000000000000000000000082525afa9182156120fd576080519261313a575b50823b1561033d5789517f40c10f190000000000000000000000000000000000000000000000000000000081526080516001600160a01b03909316600482015260248101919091529182908180604481010391608051905af18015612b275761311b575b80612ec3565b6080519293919261312b91613778565b60805161033d57919087613115565b61315491925060203d6020116103295761031b8183613778565b908a6130b1565b60805161316791613778565b60805161033d578961305f565b843b1561033d578951907f0342a6ba000000000000000000000000000000000000000000000000000000008252600482015260805181602481608051895af180156120fd5715612ffa576080516131ca91613778565b60805161033d5789612ffa565b9091506020813d602011613203575b816131f360209383613778565b810103126120f15751908a612ff3565b3d91506131e6565b7f4e487b71000000000000000000000000000000000000000000000000000000006080515260126004526024608051fd5b90506020813d602011613266575b8161325760209383613778565b810103126120f157518b612f9c565b3d915061324a565b8b513d608051823e3d90fd5b506020813d6020116132a6575b8161329460209383613778565b810103126120f157612f5d9051612f52565b3d9150613287565b6080516132ba91613778565b60805161033d5789612ebc565b6080516132d391613778565b60805161033d578a612e6f565b853b1561033d578a51907f9c8af15f0000000000000000000000000000000000000000000000000000000082526004820152608051816024816080518a5af1801561326e5715612e245760805161333691613778565b60805161033d578a612e24565b863b1561033d578b51907f39d14dce0000000000000000000000000000000000000000000000000000000082526004820152608051816024816080518b5af18015612c165715612e0f5760805161339991613778565b60805161033d578b612e0f565b6080516133b291613778565b60805161033d578b612dfa565b506020823d6020116133eb575b816133d960209383613778565b810103126120f157612d989151612d8e565b3d91506133cc565b8e513d608051823e3d90fd5b613418915060203d6020116103295761031b8183613778565b8e612d44565b8d513d608051823e3d90fd5b90505f8113156134ff57863b1561033d578d517f40c10f190000000000000000000000000000000000000000000000000000000081526080516001600160a01b038b166004830152602482018390528f929082806044810103816080518d5af19182156134f3578b926134d3575b5091612d2893917fabe7bba351333865347fffa4fee91d7cbacf68d57b5779282cd009ae71deaf65602080955b8451908152a2915091612cba565b6080519193506134e39250613778565b60805161033d57888e915f613498565b83513d608051823e3d90fd5b8060ff1d91873b156120f1578e517f9dc29fac0000000000000000000000000000000000000000000000000000000081526001600160a01b038b16600482015283830190931860248401528e5f84604481838d5af19283156135a5577fabe7bba351333865347fffa4fee91d7cbacf68d57b5779282cd009ae71deaf6560208d92612d28978297613591575b506134c5565b5f61359b91613778565b5f6080525f61358b565b50513d5f823e3d90fd5b6135c8915060203d6020116103295761031b8183613778565b5f61298e565b8f513d5f823e3d90fd5b6135ef9150843d86116103295761031b8183613778565b5f6128d0565b83513d5f823e3d90fd5b346120f15760206003193601126120f1577f7d105ab6c5b612e41f22c8da839b22532cfd75478b21f81260fa90ca8d255aa660406004356136426113aa336141e3565b7f72fdaf6608fcd614cdab8afd23d0b707bfc44e685019cc3a5ace611655fe7f025490807f72fdaf6608fcd614cdab8afd23d0b707bfc44e685019cc3a5ace611655fe7f025582519182526020820152a1005b600435906001600160a01b03821682036120f157565b602435906001600160a01b03821682036120f157565b907fffffffffffffffffffffffffffffffffffffffffffffffffffffffffffffffe0601f602080948051918291828752018686015e5f8582860101520116010190565b60031960609101126120f1576004356001600160a01b03811681036120f157906024359060443590565b610120810190811067ffffffffffffffff82111761374b57604052565b7f4e487b71000000000000000000000000000000000000000000000000000000005f52604160045260245ffd5b90601f7fffffffffffffffffffffffffffffffffffffffffffffffffffffffffffffffe0910116810190811067ffffffffffffffff82111761374b57604052565b604051906137c8604083613778565b600382527f41313500000000000000000000000000000000000000000000000000000000006020830152565b156137fc5750565b61383a906040519182917f08c379a00000000000000000000000000000000000000000000000000000000083526020600484015260248301906136c1565b0390fd5b6040519061384d604083613778565b600282527f4b340000000000000000000000000000000000000000000000000000000000006020830152565b60405190613888604083613778565b600282527f4b330000000000000000000000000000000000000000000000000000000000006020830152565b604051906138c3604083613778565b600382527f41313600000000000000000000000000000000000000000000000000000000006020830152565b81810392915f13801582851316918412161761390757565b7f4e487b71000000000000000000000000000000000000000000000000000000005f52601160045260245ffd5b8181029291811591840414171561390757565b9190820391821161390757565b906fffffffffffffffffffffffffffffffff809116911601906fffffffffffffffffffffffffffffffff821161390757565b5f527f72fdaf6608fcd614cdab8afd23d0b707bfc44e685019cc3a5ace611655fe7f0860205267ffffffffffffffff600660405f200154168015613a1e5742106139e1576001906040516139db602082613778565b5f815290565b5f906040516139f1604082613778565b601381527f436f6f6c646f776e206e6f742070617373656400000000000000000000000000602082015290565b505f90604051613a2f604082613778565b601281527f50726f706f73616c206e6f7420666f756e640000000000000000000000000000602082015290565b60405190613a6b604083613778565b600282527f4b360000000000000000000000000000000000000000000000000000000000006020830152565b908160209103126120f157516001600160a01b03811681036120f15790565b688000000000ab143c065c613ad35730688000000000ab143c065d565b688000000000ab143c065f526004601cfd5b613b2f613af06141a2565b1560405190613b00604083613778565b600282527f413900000000000000000000000000000000000000000000000000000000000060208301526137f4565b565b905f916318fb58646004527f72fdaf6608fcd614cdab8afd23d0b707bfc44e685019cc3a5ace611655fe7f045f5260245f209068fbb67fda52d4bfb8bf8114613c52578015613c42575b811980549182159260011c5f19810191600183811b1794613be957856020525f5260405f20948554928315613be0575f9798505f19840103613bc2575b5050505555600190565b5f1980849383010154928392010155855260408520555f8080613bb8565b50505050505050565b9496505050505060019281815414613c2c5783810182815414613c1d575060020190815414613c1857505f9150565b5f9055565b905f9250600201908154905555565b5f91506002848201918254815501908154905555565b5068fbb67fda52d4bfb8bf613b7b565b63f5a267f15f526004601cfd5b91905f926318fb58646004525f5260245f209068fbb67fda52d4bfb8bf8114613c52578015613c4257811980549182159260011c5f19810191600183811b1794613be957856020525f5260405f20948554928315613be0575f9798505f19840103613bc2575050505555600190565b905f916318fb58646004527f72fdaf6608fcd614cdab8afd23d0b707bfc44e685019cc3a5ace611655fe7f035f5260245f209068fbb67fda52d4bfb8bf8114613c52578015613dfa575b811991825491816020528215613d60575b805f5260405f2092835415613d3f575050505050565b9091929394955060011c8092015560010180915560011b6001179055600190565b915080548015613df157828114613deb57600182018054908115613ddd5750838114613dd65760028301918254928315613dc75750848314613dbf575f52600160405f20555f52600260405f20555f52600360405f2055600791613d29565b505050505050565b95505050505091925055600190565b5050505050565b945050505091925055600190565b50505050565b50555060019150565b5068fbb67fda52d4bfb8bf613d18565b60405190613e19604083613778565b600382527f41313800000000000000000000000000000000000000000000000000000000006020830152565b908160209103126120f1575180151581036120f15790565b613ed791602091613e6d81614441565b50613e778261425a565b506001600160a01b03613e8861404c565b16906040518095819482937f4c472fc9000000000000000000000000000000000000000000000000000000008452600484019092916001600160a01b0360209181604085019616845216910152565b03915afa908115613f65576001600160a01b03916020915f91613f70575b506004604051809481937f01e1d114000000000000000000000000000000000000000000000000000000008352165afa908115613f65575f91613f36575090565b90506020813d602011613f5d575b81613f5160209383613778565b810103126120f1575190565b3d9150613f44565b6040513d5f823e3d90fd5b613f879150823d84116103295761031b8183613778565b5f613ef5565b60245f9160206001600160a01b03613fa361404c565b16604051938480927fa9c9a9180000000000000000000000000000000000000000000000000000000082527f06d15878a0883034bd095c66a4b2987dfae5eb662cf9ef4aaa5ce27b533782bc60048301525afa918215613f65575f92614020575b506001600160a01b0380911691161461401a5790565b50600190565b6001600160a01b03919250614044829160203d6020116103295761031b8183613778565b929150614004565b6001600160a01b037fe91688684975c4d7d54a65dd96da5d4dcbb54b8971c046d5351d3c111e43a80054614081612650613879565b1690565b614091613b2f91614441565b604051906140a0604083613778565b600382527f413132000000000000000000000000000000000000000000000000000000000060208301526137f4565b6140db613b2f91613f8d565b604051906140ea604083613778565b600382527f413131000000000000000000000000000000000000000000000000000000000060208301526137f4565b613b2f929161412791613e5d565b101560405190614138604083613778565b600282527f413600000000000000000000000000000000000000000000000000000000000060208301526137f4565b700100000000000000000000000000000000811015614195576fffffffffffffffffffffffffffffffff1690565b6335278d125f526004601cfd5b60ff7fe91688684975c4d7d54a65dd96da5d4dcbb54b8971c046d5351d3c111e43a800546141dc6141d1613879565b838360a01c166137f4565b60a81c1690565b60206001600160a01b036024816141f861404c565b169360405194859384927f24d7806c0000000000000000000000000000000000000000000000000000000084521660048301525afa908115613f65575f9161423e575090565b614257915060203d6020116123ba576123ac8183613778565b90565b60206001600160a01b0360248161426f61404c565b169360405194859384927fc87fa42a0000000000000000000000000000000000000000000000000000000084521660048301525afa908115613f65575f9161423e575090565b91906014526034526fa9059cbb0000000000000000000000005f5260205f6044601082855af1908160015f511416156142f1575b50505f603452565b3b153d171015614302575f806142e9565b6390b8ec185f526004601cfd5b613b2f906001600160a01b036040519161432a604084613778565b600383527f413137000000000000000000000000000000000000000000000000000000000060208401521615156137f4565b60249060206001600160a01b0361437161404c565b16604051938480927fa9c9a9180000000000000000000000000000000000000000000000000000000082527f06d15878a0883034bd095c66a4b2987dfae5eb662cf9ef4aaa5ce27b533782bc60048301525afa918215613f65575f92614420575b50613b2f826001600160a01b03604051916143ee604084613778565b600283527f4b3900000000000000000000000000000000000000000000000000000000000060208401521615156137f4565b61443a91925060203d6020116103295761031b8183613778565b905f6143d2565b60206001600160a01b0360248161445661404c565b169360405194859384927f652b9b410000000000000000000000000000000000000000000000000000000084521660048301525afa908115613f65575f9161423e57509056fea2646970667358221220875244ef953005ae5967e023ba971380676162c75b0f83fe4c7149d37a281ddd64736f6c634300081e0033","linkReferences":{}},"methodIdentifiers":{"canExecuteProposal(bytes32)":"c31fd6aa","cancelProposal(bytes32)":"37376ca8","contractName()":"75d0c0dc","contractVersion()":"a0a8e460","executeSettleBatch(bytes32)":"10d03d64","getBatchIdBalances(address,bytes32)":"bff9c21a","getDNVaultByAsset(address)":"d0fab258","getPendingProposals(address)":"41076538","getRequestedShares(address,bytes32)":"53a7f925","getSettlementCooldown()":"c34ee627","getSettlementProposal(bytes32)":"b0b3242d","getYieldTolerance()":"370585f4","initialize(address)":"c4d66de8","isPaused()":"b187bd26","kAssetPush(address,uint256,bytes32)":"a8412deb","kAssetRequestPull(address,uint256,bytes32)":"95f4042b","kAssetTransfer(address,address,address,uint256,bytes32)":"c6099092","kSharesRequestPull(address,uint256,bytes32)":"8f6b6ee2","kSharesRequestPush(address,uint256,bytes32)":"d7eebeaf","multicall(bytes[])":"ac9650d8","proposeSettleBatch(address,address,bytes32,uint256,uint64,uint64)":"3e25562e","proxiableUUID()":"52d1902d","registry()":"7b103999","rescueAssets(address,address,uint256)":"d01b5de4","setMaxAllowedDelta(uint256)":"0fa37592","setPaused(bool)":"16c38b3c","setSettlementCooldown(uint256)":"46b6aa23","upgradeToAndCall(address,bytes)":"4f1ef286","virtualBalance(address,address)":"6ad3182d"},"storageLayout":{"storage":[],"types":{}},"id":60}