{"abi":[{"type":"function","name":"isAsset","inputs":[{"name":"asset","type":"address","internalType":"address"}],"outputs":[{"name":"","type":"bool","internalType":"bool"}],"stateMutability":"view"},{"type":"function","name":"kAssetPush","inputs":[{"name":"","type":"address","internalType":"address"},{"name":"","type":"address","internalType":"address"},{"name":"","type":"uint256","internalType":"uint256"},{"name":"","type":"uint256","internalType":"uint256"}],"outputs":[],"stateMutability":"nonpayable"},{"type":"function","name":"kAssetRequestPull","inputs":[{"name":"","type":"address","internalType":"address"},{"name":"","type":"address","internalType":"address"},{"name":"","type":"uint256","internalType":"uint256"},{"name":"","type":"uint256","internalType":"uint256"}],"outputs":[],"stateMutability":"nonpayable"},{"type":"function","name":"registerAsset","inputs":[{"name":"name","type":"string","internalType":"string"},{"name":"symbol","type":"string","internalType":"string"},{"name":"asset","type":"address","internalType":"address"},{"name":"isRegistered","type":"bool","internalType":"bool"}],"outputs":[],"stateMutability":"nonpayable"}],"bytecode":{"object":"0x608080604052346015576102ec908161001a8239f35b5f80fdfe60806040526004361015610011575f80fd5b5f3560e01c806306559077146100b857806386f7ce4314610045578063c87fa42a1461004a5763ca83422214610045575f80fd5b610244565b346100b45760207ffffffffffffffffffffffffffffffffffffffffffffffffffffffffffffffffc3601126100b45760043573ffffffffffffffffffffffffffffffffffffffff81168091036100b4575f525f602052602060ff60405f2054166040519015158152f35b5f80fd5b346100b45760807ffffffffffffffffffffffffffffffffffffffffffffffffffffffffffffffffc3601126100b45760043567ffffffffffffffff81116100b457610107903690600401610192565b5060243567ffffffffffffffff81116100b457610128903690600401610192565b5060443573ffffffffffffffffffffffffffffffffffffffff81168091036100b457606435908115158092036100b4575f525f60205260405f209060ff7fffffffffffffffffffffffffffffffffffffffffffffffffffffffffffffff0083541691161790555f80f35b81601f820112156100b45780359067ffffffffffffffff821161021757604051927fffffffffffffffffffffffffffffffffffffffffffffffffffffffffffffffe0603f81601f8601160116840184811067ffffffffffffffff82111761021757604052828452602083830101116100b457815f926020809301838601378301015290565b7f4e487b71000000000000000000000000000000000000000000000000000000005f52604160045260245ffd5b346100b45760807ffffffffffffffffffffffffffffffffffffffffffffffffffffffffffffffffc3601126100b45760043573ffffffffffffffffffffffffffffffffffffffff811681036100b4575060243573ffffffffffffffffffffffffffffffffffffffff811681036100b45700fea2646970667358221220bf0cc6fb242a28dc55fb19ff0df513e76de7700ede86deb4bb5a8b5fa2b8a2dd64736f6c634300081e0033","linkReferences":{}},"methodIdentifiers":{"isAsset(address)":"c87fa42a","kAssetPush(address,address,uint256,uint256)":"ca834222","kAssetRequestPull(address,address,uint256,uint256)":"86f7ce43","registerAsset(string,string,address,bool)":"06559077"},"storageLayout":{"storage":[{"astId":67262,"contract":"test/mocks/MockAssetRouter.sol:MockAssetRouter","label":"_registeredAssets","offset":0,"slot":"0","type":"t_mapping(t_address,t_bool)"}],"types":{"t_address":{"encoding":"inplace","label":"address","numberOfBytes":"20"},"t_bool":{"encoding":"inplace","label":"bool","numberOfBytes":"1"},"t_mapping(t_address,t_bool)":{"encoding":"mapping","key":"t_address","label":"mapping(address => bool)","numberOfBytes":"32","value":"t_bool"}}},"id":92}