{"abi":[{"type":"constructor","inputs":[],"stateMutability":"nonpayable"},{"type":"fallback","stateMutability":"payable"},{"type":"receive","stateMutability":"payable"},{"type":"function","name":"K_ASSET_ROUTER","inputs":[],"outputs":[{"name":"","type":"bytes32","internalType":"bytes32"}],"stateMutability":"view"},{"type":"function","name":"K_MINTER","inputs":[],"outputs":[{"name":"","type":"bytes32","internalType":"bytes32"}],"stateMutability":"view"},{"type":"function","name":"USDC","inputs":[],"outputs":[{"name":"","type":"bytes32","internalType":"bytes32"}],"stateMutability":"view"},{"type":"function","name":"WBTC","inputs":[],"outputs":[{"name":"","type":"bytes32","internalType":"bytes32"}],"stateMutability":"view"},{"type":"function","name":"addFunction","inputs":[{"name":"selector","type":"bytes4","internalType":"bytes4"},{"name":"implementation","type":"address","internalType":"address"},{"name":"forceOverride","type":"bool","internalType":"bool"}],"outputs":[],"stateMutability":"nonpayable"},{"type":"function","name":"addFunctions","inputs":[{"name":"selectors","type":"bytes4[]","internalType":"bytes4[]"},{"name":"implementation","type":"address","internalType":"address"},{"name":"forceOverride","type":"bool","internalType":"bool"}],"outputs":[],"stateMutability":"nonpayable"},{"type":"function","name":"assetToKToken","inputs":[{"name":"asset","type":"address","internalType":"address"}],"outputs":[{"name":"","type":"address","internalType":"address"}],"stateMutability":"view"},{"type":"function","name":"cancelOwnershipHandover","inputs":[],"outputs":[],"stateMutability":"payable"},{"type":"function","name":"completeOwnershipHandover","inputs":[{"name":"pendingOwner","type":"address","internalType":"address"}],"outputs":[],"stateMutability":"payable"},{"type":"function","name":"contractName","inputs":[],"outputs":[{"name":"","type":"string","internalType":"string"}],"stateMutability":"pure"},{"type":"function","name":"contractVersion","inputs":[],"outputs":[{"name":"","type":"string","internalType":"string"}],"stateMutability":"pure"},{"type":"function","name":"getAdapter","inputs":[{"name":"vault","type":"address","internalType":"address"},{"name":"asset","type":"address","internalType":"address"}],"outputs":[{"name":"","type":"address","internalType":"address"}],"stateMutability":"view"},{"type":"function","name":"getAllAssets","inputs":[],"outputs":[{"name":"","type":"address[]","internalType":"address[]"}],"stateMutability":"view"},{"type":"function","name":"getAllVaults","inputs":[],"outputs":[{"name":"","type":"address[]","internalType":"address[]"}],"stateMutability":"view"},{"type":"function","name":"getContractById","inputs":[{"name":"id","type":"bytes32","internalType":"bytes32"}],"outputs":[{"name":"","type":"address","internalType":"address"}],"stateMutability":"view"},{"type":"function","name":"getCoreContracts","inputs":[],"outputs":[{"name":"","type":"address","internalType":"address"},{"name":"","type":"address","internalType":"address"}],"stateMutability":"view"},{"type":"function","name":"getHurdleRate","inputs":[{"name":"asset","type":"address","internalType":"address"}],"outputs":[{"name":"","type":"uint16","internalType":"uint16"}],"stateMutability":"view"},{"type":"function","name":"getMaxBurnPerBatch","inputs":[{"name":"asset","type":"address","internalType":"address"}],"outputs":[{"name":"","type":"uint256","internalType":"uint256"}],"stateMutability":"view"},{"type":"function","name":"getMaxMintPerBatch","inputs":[{"name":"asset","type":"address","internalType":"address"}],"outputs":[{"name":"","type":"uint256","internalType":"uint256"}],"stateMutability":"view"},{"type":"function","name":"getTreasury","inputs":[],"outputs":[{"name":"","type":"address","internalType":"address"}],"stateMutability":"view"},{"type":"function","name":"getVaultAssets","inputs":[{"name":"vault","type":"address","internalType":"address"}],"outputs":[{"name":"","type":"address[]","internalType":"address[]"}],"stateMutability":"view"},{"type":"function","name":"getVaultByAssetAndType","inputs":[{"name":"asset","type":"address","internalType":"address"},{"name":"vaultType","type":"uint8","internalType":"uint8"}],"outputs":[{"name":"","type":"address","internalType":"address"}],"stateMutability":"view"},{"type":"function","name":"getVaultType","inputs":[{"name":"vault","type":"address","internalType":"address"}],"outputs":[{"name":"","type":"uint8","internalType":"uint8"}],"stateMutability":"view"},{"type":"function","name":"getVaultsByAsset","inputs":[{"name":"asset","type":"address","internalType":"address"}],"outputs":[{"name":"","type":"address[]","internalType":"address[]"}],"stateMutability":"view"},{"type":"function","name":"grantInstitutionRole","inputs":[{"name":"institution_","type":"address","internalType":"address"}],"outputs":[],"stateMutability":"payable"},{"type":"function","name":"grantManagerRole","inputs":[{"name":"manager_","type":"address","internalType":"address"}],"outputs":[],"stateMutability":"payable"},{"type":"function","name":"grantRelayerRole","inputs":[{"name":"relayer_","type":"address","internalType":"address"}],"outputs":[],"stateMutability":"payable"},{"type":"function","name":"grantRoles","inputs":[{"name":"user","type":"address","internalType":"address"},{"name":"roles","type":"uint256","internalType":"uint256"}],"outputs":[],"stateMutability":"payable"},{"type":"function","name":"grantVendorRole","inputs":[{"name":"vendor_","type":"address","internalType":"address"}],"outputs":[],"stateMutability":"payable"},{"type":"function","name":"hasAllRoles","inputs":[{"name":"user","type":"address","internalType":"address"},{"name":"roles","type":"uint256","internalType":"uint256"}],"outputs":[{"name":"","type":"bool","internalType":"bool"}],"stateMutability":"view"},{"type":"function","name":"hasAnyRole","inputs":[{"name":"user","type":"address","internalType":"address"},{"name":"roles","type":"uint256","internalType":"uint256"}],"outputs":[{"name":"","type":"bool","internalType":"bool"}],"stateMutability":"view"},{"type":"function","name":"initialize","inputs":[{"name":"owner_","type":"address","internalType":"address"},{"name":"admin_","type":"address","internalType":"address"},{"name":"emergencyAdmin_","type":"address","internalType":"address"},{"name":"guardian_","type":"address","internalType":"address"},{"name":"relayer_","type":"address","internalType":"address"},{"name":"treasury_","type":"address","internalType":"address"}],"outputs":[],"stateMutability":"nonpayable"},{"type":"function","name":"isAdapterRegistered","inputs":[{"name":"vault","type":"address","internalType":"address"},{"name":"asset","type":"address","internalType":"address"},{"name":"adapter","type":"address","internalType":"address"}],"outputs":[{"name":"","type":"bool","internalType":"bool"}],"stateMutability":"view"},{"type":"function","name":"isAdmin","inputs":[{"name":"user","type":"address","internalType":"address"}],"outputs":[{"name":"","type":"bool","internalType":"bool"}],"stateMutability":"view"},{"type":"function","name":"isAsset","inputs":[{"name":"asset","type":"address","internalType":"address"}],"outputs":[{"name":"","type":"bool","internalType":"bool"}],"stateMutability":"view"},{"type":"function","name":"isEmergencyAdmin","inputs":[{"name":"user","type":"address","internalType":"address"}],"outputs":[{"name":"","type":"bool","internalType":"bool"}],"stateMutability":"view"},{"type":"function","name":"isGuardian","inputs":[{"name":"user","type":"address","internalType":"address"}],"outputs":[{"name":"","type":"bool","internalType":"bool"}],"stateMutability":"view"},{"type":"function","name":"isInstitution","inputs":[{"name":"user","type":"address","internalType":"address"}],"outputs":[{"name":"","type":"bool","internalType":"bool"}],"stateMutability":"view"},{"type":"function","name":"isManager","inputs":[{"name":"user","type":"address","internalType":"address"}],"outputs":[{"name":"","type":"bool","internalType":"bool"}],"stateMutability":"view"},{"type":"function","name":"isRelayer","inputs":[{"name":"user","type":"address","internalType":"address"}],"outputs":[{"name":"","type":"bool","internalType":"bool"}],"stateMutability":"view"},{"type":"function","name":"isVault","inputs":[{"name":"vault","type":"address","internalType":"address"}],"outputs":[{"name":"","type":"bool","internalType":"bool"}],"stateMutability":"view"},{"type":"function","name":"isVendor","inputs":[{"name":"user","type":"address","internalType":"address"}],"outputs":[{"name":"","type":"bool","internalType":"bool"}],"stateMutability":"view"},{"type":"function","name":"owner","inputs":[],"outputs":[{"name":"result","type":"address","internalType":"address"}],"stateMutability":"view"},{"type":"function","name":"ownershipHandoverExpiresAt","inputs":[{"name":"pendingOwner","type":"address","internalType":"address"}],"outputs":[{"name":"result","type":"uint256","internalType":"uint256"}],"stateMutability":"view"},{"type":"function","name":"proxiableUUID","inputs":[],"outputs":[{"name":"","type":"bytes32","internalType":"bytes32"}],"stateMutability":"view"},{"type":"function","name":"registerAdapter","inputs":[{"name":"vault","type":"address","internalType":"address"},{"name":"asset","type":"address","internalType":"address"},{"name":"adapter","type":"address","internalType":"address"}],"outputs":[],"stateMutability":"payable"},{"type":"function","name":"registerAsset","inputs":[{"name":"name_","type":"string","internalType":"string"},{"name":"symbol_","type":"string","internalType":"string"},{"name":"asset","type":"address","internalType":"address"},{"name":"id","type":"bytes32","internalType":"bytes32"},{"name":"maxMintPerBatch","type":"uint256","internalType":"uint256"},{"name":"maxBurnPerBatch","type":"uint256","internalType":"uint256"}],"outputs":[{"name":"","type":"address","internalType":"address"}],"stateMutability":"payable"},{"type":"function","name":"registerVault","inputs":[{"name":"vault","type":"address","internalType":"address"},{"name":"type_","type":"uint8","internalType":"enum IRegistry.VaultType"},{"name":"asset","type":"address","internalType":"address"}],"outputs":[],"stateMutability":"payable"},{"type":"function","name":"removeAdapter","inputs":[{"name":"vault","type":"address","internalType":"address"},{"name":"asset","type":"address","internalType":"address"},{"name":"adapter","type":"address","internalType":"address"}],"outputs":[],"stateMutability":"payable"},{"type":"function","name":"removeFunction","inputs":[{"name":"selector","type":"bytes4","internalType":"bytes4"}],"outputs":[],"stateMutability":"nonpayable"},{"type":"function","name":"removeFunctions","inputs":[{"name":"selectors","type":"bytes4[]","internalType":"bytes4[]"}],"outputs":[],"stateMutability":"nonpayable"},{"type":"function","name":"removeVault","inputs":[{"name":"vault","type":"address","internalType":"address"}],"outputs":[],"stateMutability":"payable"},{"type":"function","name":"renounceOwnership","inputs":[],"outputs":[],"stateMutability":"payable"},{"type":"function","name":"renounceRoles","inputs":[{"name":"roles","type":"uint256","internalType":"uint256"}],"outputs":[],"stateMutability":"payable"},{"type":"function","name":"requestOwnershipHandover","inputs":[],"outputs":[],"stateMutability":"payable"},{"type":"function","name":"rescueAssets","inputs":[{"name":"asset_","type":"address","internalType":"address"},{"name":"to_","type":"address","internalType":"address"},{"name":"amount_","type":"uint256","internalType":"uint256"}],"outputs":[],"stateMutability":"payable"},{"type":"function","name":"revokeRoles","inputs":[{"name":"user","type":"address","internalType":"address"},{"name":"roles","type":"uint256","internalType":"uint256"}],"outputs":[],"stateMutability":"payable"},{"type":"function","name":"rolesOf","inputs":[{"name":"user","type":"address","internalType":"address"}],"outputs":[{"name":"roles","type":"uint256","internalType":"uint256"}],"stateMutability":"view"},{"type":"function","name":"setAssetBatchLimits","inputs":[{"name":"asset_","type":"address","internalType":"address"},{"name":"maxMintPerBatch_","type":"uint256","internalType":"uint256"},{"name":"maxBurnPerBatch_","type":"uint256","internalType":"uint256"}],"outputs":[],"stateMutability":"payable"},{"type":"function","name":"setHurdleRate","inputs":[{"name":"asset","type":"address","internalType":"address"},{"name":"hurdleRate","type":"uint16","internalType":"uint16"}],"outputs":[],"stateMutability":"payable"},{"type":"function","name":"setPaused","inputs":[{"name":"paused_","type":"bool","internalType":"bool"}],"outputs":[],"stateMutability":"nonpayable"},{"type":"function","name":"setSingletonContract","inputs":[{"name":"id","type":"bytes32","internalType":"bytes32"},{"name":"contractAddress","type":"address","internalType":"address"}],"outputs":[],"stateMutability":"payable"},{"type":"function","name":"setTreasury","inputs":[{"name":"treasury_","type":"address","internalType":"address"}],"outputs":[],"stateMutability":"payable"},{"type":"function","name":"transferOwnership","inputs":[{"name":"newOwner","type":"address","internalType":"address"}],"outputs":[],"stateMutability":"payable"},{"type":"function","name":"upgradeToAndCall","inputs":[{"name":"newImplementation","type":"address","internalType":"address"},{"name":"data","type":"bytes","internalType":"bytes"}],"outputs":[],"stateMutability":"payable"},{"type":"event","name":"AdapterRegistered","inputs":[{"name":"vault","type":"address","indexed":true,"internalType":"address"},{"name":"asset","type":"address","indexed":false,"internalType":"address"},{"name":"adapter","type":"address","indexed":true,"internalType":"address"}],"anonymous":false},{"type":"event","name":"AdapterRemoved","inputs":[{"name":"vault","type":"address","indexed":true,"internalType":"address"},{"name":"asset","type":"address","indexed":false,"internalType":"address"},{"name":"adapter","type":"address","indexed":true,"internalType":"address"}],"anonymous":false},{"type":"event","name":"AssetRegistered","inputs":[{"name":"asset","type":"address","indexed":true,"internalType":"address"},{"name":"kToken","type":"address","indexed":true,"internalType":"address"}],"anonymous":false},{"type":"event","name":"AssetSupported","inputs":[{"name":"asset","type":"address","indexed":true,"internalType":"address"}],"anonymous":false},{"type":"event","name":"HurdleRateSet","inputs":[{"name":"asset","type":"address","indexed":true,"internalType":"address"},{"name":"hurdleRate","type":"uint16","indexed":false,"internalType":"uint16"}],"anonymous":false},{"type":"event","name":"Initialized","inputs":[{"name":"version","type":"uint64","indexed":false,"internalType":"uint64"}],"anonymous":false},{"type":"event","name":"KTokenDeployed","inputs":[{"name":"kTokenContract","type":"address","indexed":true,"internalType":"address"},{"name":"name_","type":"string","indexed":false,"internalType":"string"},{"name":"symbol_","type":"string","indexed":false,"internalType":"string"},{"name":"decimals_","type":"uint8","indexed":false,"internalType":"uint8"}],"anonymous":false},{"type":"event","name":"KTokenImplementationSet","inputs":[{"name":"implementation","type":"address","indexed":true,"internalType":"address"}],"anonymous":false},{"type":"event","name":"OwnershipHandoverCanceled","inputs":[{"name":"pendingOwner","type":"address","indexed":true,"internalType":"address"}],"anonymous":false},{"type":"event","name":"OwnershipHandoverRequested","inputs":[{"name":"pendingOwner","type":"address","indexed":true,"internalType":"address"}],"anonymous":false},{"type":"event","name":"OwnershipTransferred","inputs":[{"name":"oldOwner","type":"address","indexed":true,"internalType":"address"},{"name":"newOwner","type":"address","indexed":true,"internalType":"address"}],"anonymous":false},{"type":"event","name":"Paused","inputs":[{"name":"paused_","type":"bool","indexed":false,"internalType":"bool"}],"anonymous":false},{"type":"event","name":"RescuedAssets","inputs":[{"name":"asset","type":"address","indexed":true,"internalType":"address"},{"name":"to","type":"address","indexed":true,"internalType":"address"},{"name":"amount","type":"uint256","indexed":false,"internalType":"uint256"}],"anonymous":false},{"type":"event","name":"RescuedETH","inputs":[{"name":"asset","type":"address","indexed":true,"internalType":"address"},{"name":"amount","type":"uint256","indexed":false,"internalType":"uint256"}],"anonymous":false},{"type":"event","name":"RolesUpdated","inputs":[{"name":"user","type":"address","indexed":true,"internalType":"address"},{"name":"roles","type":"uint256","indexed":true,"internalType":"uint256"}],"anonymous":false},{"type":"event","name":"SingletonContractSet","inputs":[{"name":"id","type":"bytes32","indexed":true,"internalType":"bytes32"},{"name":"contractAddress","type":"address","indexed":true,"internalType":"address"}],"anonymous":false},{"type":"event","name":"TreasurySet","inputs":[{"name":"treasury","type":"address","indexed":true,"internalType":"address"}],"anonymous":false},{"type":"event","name":"Upgraded","inputs":[{"name":"implementation","type":"address","indexed":true,"internalType":"address"}],"anonymous":false},{"type":"event","name":"VaultRegistered","inputs":[{"name":"vault","type":"address","indexed":true,"internalType":"address"},{"name":"asset","type":"address","indexed":true,"internalType":"address"},{"name":"vaultType","type":"uint8","indexed":true,"internalType":"enum IRegistry.VaultType"}],"anonymous":false},{"type":"event","name":"VaultRemoved","inputs":[{"name":"vault","type":"address","indexed":true,"internalType":"address"}],"anonymous":false},{"type":"event","name":"VaultTargetSelectorRegistered","inputs":[{"name":"vault","type":"address","indexed":true,"internalType":"address"},{"name":"target","type":"address","indexed":true,"internalType":"address"},{"name":"selector","type":"bytes4","indexed":true,"internalType":"bytes4"}],"anonymous":false},{"type":"event","name":"VaultTargetSelectorRemoved","inputs":[{"name":"vault","type":"address","indexed":true,"internalType":"address"},{"name":"target","type":"address","indexed":true,"internalType":"address"},{"name":"selector","type":"bytes4","indexed":true,"internalType":"bytes4"}],"anonymous":false},{"type":"error","name":"AlreadyInitialized","inputs":[]},{"type":"error","name":"InvalidInitialization","inputs":[]},{"type":"error","name":"NewOwnerIsZeroAddress","inputs":[]},{"type":"error","name":"NoHandoverRequest","inputs":[]},{"type":"error","name":"NotInitializing","inputs":[]},{"type":"error","name":"Unauthorized","inputs":[]},{"type":"error","name":"UnauthorizedCallContext","inputs":[]},{"type":"error","name":"UpgradeFailed","inputs":[]}],"bytecode":{"object":"0x60a080604052346099573060805263409feecd195460018116608c5760011c6002600160401b0319016048575b6159d7908161009e8239608051818181610fe9015261120b0152f35b6002600160411b0363409feecd19556001600160401b0360209081527fc7f505b2f371ae2175ee4913f4499e1f2633a7b5936321eed1cdaeb6115181d29080a1602c565b63f92ee8a95f526004601cfd5b5f80fdfe60806040526004361015610015575b366137b257005b5f3560e01c80630331df0714610424578063034d4b7c1461041f578063072ee5eb1461041a5780630c68ba2114610415578063108940521461041057806316c38b3c1461040b57806317ee351a14610406578063183a4f6e146104015780631b6991c7146103fc5780631c10893f146103f75780631cd64df4146103f25780631e0af67e146103ed5780631edb9df2146103e85780631f51fd93146103e357806324d7806c146103de5780632500f2b6146103d957806325692962146103d457806326e885e3146103cf5780632acada4d146103ca5780632de94807146103c557806330b88eef146103c057806339b0f2ca146103bb5780633b19e84a146103b65780633c02faf5146103b15780634a4ee7b1146103ac5780634c472fc9146103a75780634dede3de146103a25780634f1ef2861461039d578063514e62fc14610398578063520f7c1e1461039357806352d1902d1461038e578063541d55481461038957806354d1f13d14610384578063571ae6a31461037f5780635dcdc1011461037a578063652b9b411461037557806370e6b56e1461037057806371158ad51461036b578063715018a61461036657806375d0c0dc1461036157806377f8cf901461035c57806389a30271146103575780638da5cb5b1461035257806393d6be271461034d57806397331bf914610348578063a05a0e4a14610343578063a0a8e4601461033e578063a3863a9514610339578063a9c9a91814610334578063b41518581461032f578063c548ec391461032a578063c87fa42a14610325578063cc2a9a5b14610320578063ceb68c231461031b578063d01b5de414610316578063e36bea4414610311578063e6ed859d1461030c578063ee54d54f14610307578063eeda387f14610302578063f04e283e146102fd578063f0f44260146102f8578063f2fde38b146102f3578063f3ae2415146102ee578063f8ffd889146102e95763fee81cf40361000e576128c1565b612863565b612843565b612808565b61273d565b6126f0565b61267a565b61262a565b6125d6565b612558565b61241a565b612220565b611fa5565b611f82565b611eea565b611e8a565b611e37565b611dce565b611d73565b611d16565b611c51565b611ab0565b611a86565b611a4c565b611941565b6118e6565b61185a565b611820565b61152c565b61140e565b611372565b611307565b611279565b611259565b6111f8565b61112f565b6110fa565b610f94565b610f5a565b610ed1565b610ea9565b610e76565b610e31565b610dce565b610d98565b610d72565b610ca5565b610c45565b610bfc565b610bdc565b610bbc565b610b5c565b610a20565b6109c0565b61097f565b610957565b610932565b6108ee565b61087b565b61075c565b610686565b610624565b610529565b6104ef565b6104b1565b600435906001600160a01b038216820361043f57565b5f80fd5b602435906001600160a01b038216820361043f57565b604435906001600160a01b038216820361043f57565b606435906001600160a01b038216820361043f57565b608435906001600160a01b038216820361043f57565b60a435906001600160a01b038216820361043f57565b3461043f57602060031936011261043f57602060106104e46104d1610429565b638b78c6d8600c525f526020600c205490565b161515604051908152f35b3461043f575f60031936011261043f5760206040517ff3bbf2dd6779e6fe2f6fb7cc20baa5140e39dd5b31ab45dfa7d512610b601f0d8152f35b604060031936011261043f576004356001600160a01b03610548610443565b6105513361306a565b61055a81613086565b825f527f164f5345d77b48816cdb20100c950b74361454722dab40c51ecf007b721fa80560205261059a8260405f205416156105946128f3565b9061292a565b825f527f164f5345d77b48816cdb20100c950b74361454722dab40c51ecf007b721fa8056020526105fc8160405f20906001600160a01b03167fffffffffffffffffffffffff0000000000000000000000000000000000000000825416179055565b16907f5e3e139fd8670842ca8c619b9ebed8f4f8cdfdd8ca1152a3ad9e6f6cc687ce615f80a3005b3461043f57602060031936011261043f57602060046104e46104d1610429565b60206040818301928281528451809452019201905f5b8181106106675750505090565b82516001600160a01b031684526020938401939092019160010161065a565b3461043f57602060031936011261043f5761073a61072e6106e86106a8610429565b6106f86106ed6106e8836001600160a01b03165f527f164f5345d77b48816cdb20100c950b74361454722dab40c51ecf007b721fa80960205260405f2090565b6132a3565b511515610594612973565b6001600160a01b03165f527f164f5345d77b48816cdb20100c950b74361454722dab40c51ecf007b721fa80960205260405f2090565b60405191829182610644565b0390f35b60043590811515820361043f57565b60443590811515820361043f57565b3461043f57602060031936011261043f577f0e2fb031ee032dc02d8011dc50b816eb450cf856abd8261680dac74f72165bd2602061079861073e565b6107bf60026107b433638b78c6d8600c525f526020600c205490565b161515610594613033565b7f841668355433cc9fb8fc1984bd90b939822ef590acd27927baab4c6b4fb1290054906108216107ef6040611468565b600381527f4b423400000000000000000000000000000000000000000000000000000000008582015260ff841661292a565b1515907fffffffffffffffffffffffffffffffffffffffffffffffffffffffffffff00ff61ff008360081b169116177f841668355433cc9fb8fc1984bd90b939822ef590acd27927baab4c6b4fb1290055604051908152a1005b602060031936011261043f5761088f610429565b6108ab60206107b433638b78c6d8600c525f526020600c205490565b638b78c6d8600c525f526020600c206010815417809155600c5160601c7f715ad5ce61fc9595c7b415289d59cf203f23a94fa06f04af7e489a0a76e1fe265f80a3005b602060031936011261043f576109066004353361382d565b005b7fffffffff0000000000000000000000000000000000000000000000000000000081160361043f57565b3461043f57602060031936011261043f5761090660043561095281610908565b6129aa565b604060031936011261043f5761090661096e610429565b6024359061097a613377565b613872565b3461043f57604060031936011261043f5760206109b661099d610429565b602435918291638b78c6d8600c525f526020600c205490565b1614604051908152f35b602060031936011261043f576109d4610429565b6109dd3361306a565b638b78c6d8600c525f526020600c206008815417809155600c5160601c7f715ad5ce61fc9595c7b415289d59cf203f23a94fa06f04af7e489a0a76e1fe265f80a3005b604060031936011261043f57610a34610429565b6024359061ffff821680830361043f577f2185cfcc0dd3b75b1db58387246b1ba5f0b66c03781e30c069b88ccf3f7c7755916001600160a01b0391610a8b60086107b433638b78c6d8600c525f526020600c205490565b610acd610a986040611468565b600381527f5231300000000000000000000000000000000000000000000000000000000000602082015261271083111561292a565b610ae1610ad9836135a8565b610594613393565b610b1b826001600160a01b03165f527f164f5345d77b48816cdb20100c950b74361454722dab40c51ecf007b721fa80d60205260405f2090565b80547fffffffffffffffffffffffffffffffffffffffffffffffffffffffffffff000016909117905560405161ffff9094168452169180602081015b0390a2005b3461043f57602060031936011261043f57602060ff610bb2610b7c610429565b6001600160a01b03165f527f164f5345d77b48816cdb20100c950b74361454722dab40c51ecf007b721fa80660205260405f2090565b5416604051908152f35b3461043f57602060031936011261043f57602060016104e46104d1610429565b3461043f57602060031936011261043f57602060026104e46104d1610429565b5f60031936011261043f5763389a75e1600c52335f526202a30042016020600c2055337fdbf36a107da19e49527a7176a1babf963b4b0ff8cde35ee35d6cd8f1f9ac7e1d5f80a2005b602060031936011261043f57610c59610429565b610c623361306a565b638b78c6d8600c525f526020600c206040815417809155600c5160601c7f715ad5ce61fc9595c7b415289d59cf203f23a94fa06f04af7e489a0a76e1fe265f80a3005b3461043f575f60031936011261043f57610cea7f164f5345d77b48816cdb20100c950b74361454722dab40c51ecf007b721fa80063978aab926004525f5260245f2090565b80546b7fffffffffffffffffffffff8160011c16906bffffffffffffffffffffffff81169060601c15171515916002600182015415910154159215610d49575b610d3e82610d36612973565b90151561292a565b61073a61072e6130cf565b60019150610d6c5750600290610d655750610d3e60035f610d2a565b805f610d2a565b81610d2a565b3461043f57602060031936011261043f576020610d906104d1610429565b604051908152f35b3461043f57606060031936011261043f57610906600435610db881610908565b610dc0610443565b610dc861074d565b91612a27565b3461043f57602060031936011261043f57602061ffff610bb2610def610429565b610dfb610ad9826135a8565b6001600160a01b03165f527f164f5345d77b48816cdb20100c950b74361454722dab40c51ecf007b721fa80d60205260405f2090565b3461043f575f60031936011261043f5760206001600160a01b037f164f5345d77b48816cdb20100c950b74361454722dab40c51ecf007b721fa8025416604051908152f35b606060031936011261043f57610e8a610429565b6024359060ff82101561043f5761090691610ea3610459565b91612b52565b604060031936011261043f57610906610ec0610429565b60243590610ecc613377565b61382d565b3461043f57604060031936011261043f5760206001600160a01b03610f4f610ef7610429565b610f39610f02610443565b916001600160a01b03165f527f164f5345d77b48816cdb20100c950b74361454722dab40c51ecf007b721fa80b60205260405f2090565b906001600160a01b03165f5260205260405f2090565b5416610d9081613086565b3461043f575f60031936011261043f5760206040517f98da2c5e4c6b1db946694570273b859a6e4083ccc8faa155edfc4c54eb3cfd738152f35b604060031936011261043f57610fa8610429565b6024359067ffffffffffffffff821161043f573660238301121561043f5781600401359067ffffffffffffffff821161043f57366024838501011161043f577f000000000000000000000000000000000000000000000000000000000000000030146110ed576001600160a01b039061101f613377565b1661103361102b612973565b82151561292a565b3d5f526352d1902d6001527f360894a13ba1a3210667c828492db98dca3e2076cc3735a920a3ca505d382bbc602060016004601d855afa51036110df57807fbc7cd75a20ee27fd9adebab32041f755214dbc6bffa90cc0225b39da2e5c2d3b5f80a281817f360894a13ba1a3210667c828492db98dca3e2076cc3735a920a3ca505d382bbc556110bf57005b815f926024604051950185378338925af4156110d757005b3d5f823e3d90fd5b6355299b496001526004601dfd5b639f03a0265f526004601cfd5b3461043f57604060031936011261043f576020611115610429565b6104e460243591638b78c6d8600c525f526020600c205490565b3461043f575f60031936011261043f577f164f5345d77b48816cdb20100c950b74361454722dab40c51ecf007b721fa8056020527f6de570542c60f32e6591bbf441c817413eccf92684ec9db334712fa04954226e547ff3bbf2dd6779e6fe2f6fb7cc20baa5140e39dd5b31ab45dfa7d512610b601f0d5f527fa6ccf045531bfe07220e5e617c61928eb661b6590777801fba7530fd82182a73546040916001600160a01b0390811691166111e382613086565b6111ec81613086565b82519182526020820152f35b3461043f575f60031936011261043f57307f0000000000000000000000000000000000000000000000000000000000000000036110ed5760206040517f360894a13ba1a3210667c828492db98dca3e2076cc3735a920a3ca505d382bbc8152f35b3461043f57602060031936011261043f57602060086104e46104d1610429565b5f60031936011261043f5763389a75e1600c52335f525f6020600c2055337ffa7b8eab7da67f412cc9575ed43464468f9bfbae89d1675917346ca6d8fe3c925f80a2005b600319606091011261043f576004356001600160a01b038116810361043f57906024356001600160a01b038116810361043f57906044356001600160a01b038116810361043f5790565b3461043f576020610f396001600160a01b0361135e611325366112bd565b9490916001600160a01b03165f527f164f5345d77b48816cdb20100c950b74361454722dab40c51ecf007b721fa80b60205260405f2090565b54166001600160a01b036040519216148152f35b606060031936011261043f57611386610429565b61140b602435916044359261139a3361306a565b6113d4826001600160a01b03165f527f164f5345d77b48816cdb20100c950b74361454722dab40c51ecf007b721fa80360205260405f2090565b556001600160a01b03165f527f164f5345d77b48816cdb20100c950b74361454722dab40c51ecf007b721fa80460205260405f2090565b55005b3461043f57602060031936011261043f57602061143161142c610429565b613667565b6040519015158152f35b7f4e487b71000000000000000000000000000000000000000000000000000000005f52604160045260245ffd5b907fffffffffffffffffffffffffffffffffffffffffffffffffffffffffffffffe0601f604051930116820182811067ffffffffffffffff8211176114ac57604052565b61143b565b67ffffffffffffffff81116114ac57601f017fffffffffffffffffffffffffffffffffffffffffffffffffffffffffffffffe01660200190565b81601f8201121561043f5780359061150a611505836114b1565b611468565b928284526020838301011161043f57815f926020809301838601378301015290565b60c060031936011261043f5760043567ffffffffffffffff811161043f576115589036906004016114eb565b60243567ffffffffffffffff811161043f576115789036906004016114eb565b90611581610459565b61161160a4356084356115aa6064356115993361306a565b6115a286613086565b610d36612973565b6115b3846136a4565b6115bc846133ca565b506001600160a01b03841690817f4f1ac48525e50059cc1cc6e0e1940ece0dd653a4db4841538d6aef036be2fb7b5f80a26115f5612ee5565b6115fe81613086565b611607866136b9565b9590610594612daf565b61166361165e611651886001600160a01b03165f527f164f5345d77b48816cdb20100c950b74361454722dab40c51ecf007b721fa80a60205260405f2090565b546001600160a01b031690565b6136a4565b638b78c6d81954604051916120b59182840184811067ffffffffffffffff8211176114ac578a6116a1938a938e9388976138ed893933913391612de6565b03905ff093841561181b5761073a9761179b976117ce6117fe946001600160a01b037f20314f2474639bb81e1dfe8198d1e5bc8b30dd988927d3c87660368727600f0e99169a8a8c9b998c9a936117298c956001600160a01b03165f527f164f5345d77b48816cdb20100c950b74361454722dab40c51ecf007b721fa80360205260405f2090565b55611764826001600160a01b03165f527f164f5345d77b48816cdb20100c950b74361454722dab40c51ecf007b721fa80460205260405f2090565b556001600160a01b03165f527f164f5345d77b48816cdb20100c950b74361454722dab40c51ecf007b721fa80a60205260405f2090565b906001600160a01b03167fffffffffffffffffffffffff0000000000000000000000000000000000000000825416179055565b6040519586957f7beb5803e95d997a3a41bdd114aad49420e9b4ee9fd80c96b9acb7a8bf9ee0775f80a384612e4b565b0390a26040516001600160a01b0390911681529081906020820190565b612e40565b3461043f575f60031936011261043f5760206040517f06d15878a0883034bd095c66a4b2987dfae5eb662cf9ef4aaa5ce27b533782bc8152f35b5f60031936011261043f5761186d613377565b5f638b78c6d819547f8be0079c531659141344cd1fd0a4f28419497f9722a3daafe3b4186f6b6457e08280a35f638b78c6d81955005b907fffffffffffffffffffffffffffffffffffffffffffffffffffffffffffffffe0601f602080948051918291828752018686015e5f8582860101520116010190565b3461043f575f60031936011261043f5761073a6119036040611468565b600981527f6b5265676973747279000000000000000000000000000000000000000000000060208201526040519182916020835260208301906118a3565b60206001600160a01b037fe5e59544d5880edd16af1f701a335ab2f056587d37723bc15f00dab73982238d611975366112bd565b94916119839491943361306a565b6119db82806119c688610f39866001600160a01b03165f527f164f5345d77b48816cdb20100c950b74361454722dab40c51ecf007b721fa80b60205260405f2090565b5416971696876119d4612e77565b911461292a565b611a1985610f39836001600160a01b03165f527f164f5345d77b48816cdb20100c950b74361454722dab40c51ecf007b721fa80b60205260405f2090565b7fffffffffffffffffffffffff0000000000000000000000000000000000000000815416905581604051951685521692a3005b3461043f575f60031936011261043f5760206040517fd6aca1be9729c13d677335161321649cccae6a591554772516700f986f942eaa8152f35b3461043f575f60031936011261043f576020638b78c6d819546001600160a01b0360405191168152f35b611c246001600160a01b037fd1b7c042e3ce872c1c8ad079f768546d45432ec9bea206930c21be36061824d2611c3e611ae8366112bd565b611af5969192963361306a565b611afe87613086565b61179b83610f3988841699611b1c611b14612e77565b8c151561292a565b7f06d15878a0883034bd095c66a4b2987dfae5eb662cf9ef4aaa5ce27b533782bc5f527f164f5345d77b48816cdb20100c950b74361454722dab40c51ecf007b721fa8056020527f6de570542c60f32e6591bbf441c817413eccf92684ec9db334712fa04954226e54818b169a168a9003611c43575b611bee611be5611bd961165186610f39866001600160a01b03165f527f164f5345d77b48816cdb20100c950b74361454722dab40c51ecf007b721fa80b60205260405f2090565b6001600160a01b031690565b15610594612eae565b6001600160a01b03165f527f164f5345d77b48816cdb20100c950b74361454722dab40c51ecf007b721fa80b60205260405f2090565b6040516001600160a01b0390911681529081906020820190565b0390a3005b611c4c8161371e565b611b92565b3461043f575f60031936011261043f57611c967f164f5345d77b48816cdb20100c950b74361454722dab40c51ecf007b721fa80163978aab926004525f5260245f2090565b80546b7fffffffffffffffffffffff8160011c16906bffffffffffffffffffffffff81169060601c15171515916002600182015415910154159215611ced575b611ce282610d36612973565b61073a61072e6131f1565b60019150611d105750600290611d095750611ce260035f611cd6565b805f611cd6565b81611cd6565b3461043f57602060031936011261043f576020611d6a611d34610429565b6001600160a01b03165f527f164f5345d77b48816cdb20100c950b74361454722dab40c51ecf007b721fa80460205260405f2090565b54604051908152f35b3461043f575f60031936011261043f5761073a611d906040611468565b600581527f312e302e3000000000000000000000000000000000000000000000000000000060208201526040519182916020835260208301906118a3565b3461043f57602060031936011261043f5760206001600160a01b03611e2a611df4610429565b6001600160a01b03165f527f164f5345d77b48816cdb20100c950b74361454722dab40c51ecf007b721fa80a60205260405f2090565b5416610d9061102b612973565b3461043f57602060031936011261043f576004355f527f164f5345d77b48816cdb20100c950b74361454722dab40c51ecf007b721fa80560205260206001600160a01b0360405f205416610d9081613086565b602060031936011261043f57611e9e610429565b611ea73361306a565b638b78c6d8600c525f526020600c206020815417809155600c5160601c7f715ad5ce61fc9595c7b415289d59cf203f23a94fa06f04af7e489a0a76e1fe265f80a3005b3461043f57602060031936011261043f5761073a61072e6106e8611f0c610429565b611f4c6106ed6106e8836001600160a01b03165f527f164f5345d77b48816cdb20100c950b74361454722dab40c51ecf007b721fa80860205260405f2090565b6001600160a01b03165f527f164f5345d77b48816cdb20100c950b74361454722dab40c51ecf007b721fa80860205260405f2090565b3461043f57602060031936011261043f576020611431611fa0610429565b6135a8565b3461043f5760c060031936011261043f57611fbe610429565b611fc6610443565b90611fcf610459565b90611fd861046f565b91611fe1610485565b611fe961049b565b917fffffffffffffffffffffffffffffffffffffffffffffffffffffffffbf601132958694855480600388556121e6575b509561212b61213e9493612126612130946121188b61203c6121b09c9d613086565b61204583613086565b61204e85613086565b61205787613086565b61206089613086565b6120698b613086565b60017fffffffffffffffffffffffffffffffffffffffffffffffffffffffffffff00007f841668355433cc9fb8fc1984bd90b939822ef590acd27927baab4c6b4fb12900546120ef6120bb6040611468565b600381527f4b42310000000000000000000000000000000000000000000000000000000000602082015260ff83161561292a565b16177f841668355433cc9fb8fc1984bd90b939822ef590acd27927baab4c6b4fb12900556138b4565b61212181613335565b613340565b61334b565b613356565b61213981613361565b61336c565b6001600160a01b03167fffffffffffffffffffffffff00000000000000000000000000000000000000007f164f5345d77b48816cdb20100c950b74361454722dab40c51ecf007b721fa8025416177f164f5345d77b48816cdb20100c950b74361454722dab40c51ecf007b721fa80255565b6121b657005b6002905560016020527fc7f505b2f371ae2175ee4913f4499e1f2633a7b5936321eed1cdaeb6115181d2602080a1005b9392955095600184811c14303b10156122135760ff9390931b9690961b959194869491929061212b61201a565b63f92ee8a95f526004601cfd5b602060031936011261043f57612234610429565b61223d3361306a565b6122468161371e565b6001600160a01b0361228363978aab926004527f164f5345d77b48816cdb20100c950b74361454722dab40c51ecf007b721fa8015f5260245f2090565b9116809168fbb67fda52d4bfb8bf821461240d5781156123fc575b8054906bffffffffffffffffffffffff821615916b7fffffffffffffffffffffff8160011c16935f198501918260011b946123955750826020525f5260405f20928354801561238a575f956001935f19830103612348575b50507fffffffffffffffffffffffffffffffffffffffff00000000000000000000000083541617179055555b7fe71f3a50e5ad81964f352c411f1d45e35438ecd1acecef59ac81d9fbbf6cbc0a5f80a2005b5f1990850101547fffffffffffffffffffffffffffffffffffffffff00000000000000000000000081165f19838701015560601c865260408620555f806122f6565b505050505050612322565b9293509350508260019160601c146123e357810182815460601c146123d1575060020190815460601c146123c95750612322565b5f9055612322565b905f9250600201908154905555612322565b5f92506002908201918254815501908154905555612322565b68fbb67fda52d4bfb8bf915061229e565b63f5a267f15f526004601cfd5b606060031936011261043f5761242e610429565b612436610443565b604435916124433361306a565b61244c82613086565b826001600160a01b0382169182155f146124da57506001600160a01b039150917f63b8c8e180bc85c19daef23e2bb787fb49672d3a9ecde24409c18ccb1accb5d1921515806124d0575b6124a290610594612f63565b6124be5f80808088865af16124b5612f9a565b50610594612fbf565b60405193845216918060208101610b57565b5047841115612496565b9261252e6001600160a01b039282866125147f552c8f8dc30f2786e14004d98595afcc1c0ea1f552b86e86f64a2da74761eaab97986136a4565b82151580612540575b61252990610594612f63565b613758565b60405194855216928060208101611c3e565b5061252961254e308361372a565b841115905061251d565b3461043f57604060031936011261043f57612571610429565b60243560ff8116810361043f57610f4f6001600160a01b03916125c66020946001600160a01b03165f527f164f5345d77b48816cdb20100c950b74361454722dab40c51ecf007b721fa80760205260405f2090565b9060ff165f5260205260405f2090565b3461043f57602060031936011261043f576020611d6a6125f4610429565b6001600160a01b03165f527f164f5345d77b48816cdb20100c950b74361454722dab40c51ecf007b721fa80360205260405f2090565b3461043f57602060031936011261043f576020806104e46104d1610429565b9181601f8401121561043f5782359167ffffffffffffffff831161043f576020808501948460051b01011161043f57565b3461043f57606060031936011261043f5760043567ffffffffffffffff811161043f576126ab903690600401612649565b906126b4610443565b906126bd61074d565b5f5b8481106126c857005b806126ea83866126db6001958a89612ff6565b356126e581610908565b612a27565b016126bf565b602060031936011261043f57612704610429565b61270c613377565b63389a75e1600c52805f526020600c209081544211612730575f61090692556136e0565b636f5e88185f526004601cfd5b602060031936011261043f576001600160a01b03612759610429565b6127623361306a565b61276b81613086565b6127e1816001600160a01b03167fffffffffffffffffffffffff00000000000000000000000000000000000000007f164f5345d77b48816cdb20100c950b74361454722dab40c51ecf007b721fa8025416177f164f5345d77b48816cdb20100c950b74361454722dab40c51ecf007b721fa80255565b167f3c864541ef71378c6229510ed90f376565ee42d9c5e0904a984a9e863e6db44f5f80a2005b602060031936011261043f5761281c610429565b612824613377565b8060601b1561283657610906906136e0565b637448fbae5f526004601cfd5b3461043f57602060031936011261043f57602060406104e46104d1610429565b3461043f57602060031936011261043f5760043567ffffffffffffffff811161043f57612894903690600401612649565b905f5b8281106128a057005b806128bb6128b16001938686612ff6565b3561095281610908565b01612897565b3461043f57602060031936011261043f576128da610429565b63389a75e1600c525f52602080600c2054604051908152f35b6128fd6040611468565b90600282527f52320000000000000000000000000000000000000000000000000000000000006020830152565b156129325750565b61296f906040519182917f08c379a000000000000000000000000000000000000000000000000000000000835260206004840181815201906118a3565b0390fd5b61297d6040611468565b90600282527f52380000000000000000000000000000000000000000000000000000000000006020830152565b7fffffffff00000000000000000000000000000000000000000000000000000000906129d4613377565b165f527ffeaf205b5229ea10e902c7b89e4768733c756362b2becb0bfd65a97f71b02d0060205260405f207fffffffffffffffffffffffff00000000000000000000000000000000000000008154169055565b91612a30613377565b15612abb575b7fffffffff00000000000000000000000000000000000000000000000000000000612ab992165f527ffeaf205b5229ea10e902c7b89e4768733c756362b2becb0bfd65a97f71b02d0060205260405f20906001600160a01b03167fffffffffffffffffffffffff0000000000000000000000000000000000000000825416179055565b565b7fffffffff0000000000000000000000000000000000000000000000000000000082165f527ffeaf205b5229ea10e902c7b89e4768733c756362b2becb0bfd65a97f71b02d006020526001600160a01b0360405f20541615612a36575f80fd5b60ff1115612b2557565b7f4e487b71000000000000000000000000000000000000000000000000000000005f52602160045260245ffd5b919091612b5e3361306a565b612b6781613086565b612b73610ad9836135a8565b612bb682612bb1836001600160a01b03165f527f164f5345d77b48816cdb20100c950b74361454722dab40c51ecf007b721fa80860205260405f2090565b613588565b50612c028161179b85612bf9866001600160a01b03165f527f164f5345d77b48816cdb20100c950b74361454722dab40c51ecf007b721fa80760205260405f2090565b6125c682612b1b565b612c4081612bb1846001600160a01b03165f527f164f5345d77b48816cdb20100c950b74361454722dab40c51ecf007b721fa80960205260405f2090565b507f06d15878a0883034bd095c66a4b2987dfae5eb662cf9ef4aaa5ce27b533782bc5f527f164f5345d77b48816cdb20100c950b74361454722dab40c51ecf007b721fa8056020527f6de570542c60f32e6591bbf441c817413eccf92684ec9db334712fa04954226e546001600160a01b038281169391168381149081612d9f575b50612d9957612d676001600160a01b0392612cdc86612b1b565b612d4786612d1a836001600160a01b03165f527f164f5345d77b48816cdb20100c950b74361454722dab40c51ecf007b721fa80660205260405f2090565b9060ff167fffffffffffffffffffffffffffffffffffffffffffffffffffffffffffffff00825416179055565b612d62612d5a612d5683613667565b1590565b6105946128f3565b613548565b50612d7184612b1b565b16907f4ac8c8db4f09f3be86f83fce408e3bc092b32ef66d21b74a5193c5c6946d3f065f80a4565b50505050565b612da99150613667565b5f612cc2565b612db96040611468565b90600282527f52360000000000000000000000000000000000000000000000000000000000006020830152565b9591946001600160a01b0360ff9581612e39968160c09a819d9e9d612e2b98168d521660208c01521660408a015216606088015260e0608088015260e08701906118a3565b9085820360a08701526118a3565b9416910152565b6040513d5f823e3d90fd5b91612e3960ff91612e696040949796976060875260608701906118a3565b9085820360208701526118a3565b612e816040611468565b90600282527f52340000000000000000000000000000000000000000000000000000000000006020830152565b612eb86040611468565b90600282527f52310000000000000000000000000000000000000000000000000000000000006020830152565b7f06d15878a0883034bd095c66a4b2987dfae5eb662cf9ef4aaa5ce27b533782bc5f527f164f5345d77b48816cdb20100c950b74361454722dab40c51ecf007b721fa8056020527f6de570542c60f32e6591bbf441c817413eccf92684ec9db334712fa04954226e546001600160a01b0316612f6081613086565b90565b612f6d6040611468565b90600282527f52390000000000000000000000000000000000000000000000000000000000006020830152565b3d15612fba573d90612fae611505836114b1565b9182523d5f602084013e565b606090565b612fc96040611468565b90600282527f52350000000000000000000000000000000000000000000000000000000000006020830152565b91908110156130065760051b0190565b7f4e487b71000000000000000000000000000000000000000000000000000000005f52603260045260245ffd5b61303d6040611468565b90600382527f4b423200000000000000000000000000000000000000000000000000000000006020830152565b60016107b4612ab992638b78c6d8600c525f526020600c205490565b612ab9906001600160a01b0361309c6040611468565b91600383527f4b42330000000000000000000000000000000000000000000000000000000000602084015216151561292a565b6131047f164f5345d77b48816cdb20100c950b74361454722dab40c51ecf007b721fa80063978aab926004525f5260245f2090565b908154916bffffffffffffffffffffffff83166040519360601c68fbb67fda52d4bfb8bf811415810285602001528115613183575060011c9060015b82811061315b5750506020905b80845260051b830101604052565b8060019183015460601c68fbb67fda52d4bfb8bf8114150260208260051b8801015201613140565b91602092613192575b5061314d565b90506001908181015460601c806131aa575b5061318c565b68fbb67fda52d4bfb8bf81141502604086015260029081015490915060601c806131d5575b806131a4565b68fbb67fda52d4bfb8bf8114150260608501525060035f6131cf565b6132267f164f5345d77b48816cdb20100c950b74361454722dab40c51ecf007b721fa80163978aab926004525f5260245f2090565b908154916bffffffffffffffffffffffff83166040519360601c68fbb67fda52d4bfb8bf811415810285602001528115613183575060011c9060015b82811061327b57505080835260051b8201602001604052565b8060019183015460601c68fbb67fda52d4bfb8bf8114150260208260051b8801015201613262565b6132b89063978aab926004525f5260245f2090565b908154916bffffffffffffffffffffffff83166040519360601c68fbb67fda52d4bfb8bf811415810285602001528115613183575060011c9060015b82811061330d57505080835260051b8201602001604052565b8060019183015460601c68fbb67fda52d4bfb8bf8114150260208260051b88010152016132f4565b6001612ab991613872565b6020612ab991613872565b6002612ab991613872565b6004612ab991613872565b6008612ab991613872565b6040612ab991613872565b638b78c6d81954330361338657565b6382b429005f526004601cfd5b61339d6040611468565b90600282527f52330000000000000000000000000000000000000000000000000000000000006020830152565b905f916001600160a01b0361340a7f164f5345d77b48816cdb20100c950b74361454722dab40c51ecf007b721fa80063978aab926004525f5260245f2090565b91169068fbb67fda52d4bfb8bf821461240d578115613537575b80546bffffffffffffffffffffffff81169282602052831561348a575b805f5260405f2093845415613457575050505050565b90919293955060011c906001958287019055811561347d5760601b908301556002019055565b91505060601b6003179055565b92508060601c90811561352857838214612d995760018301805460601c9081156135175750848114613510576002840190815460601c9182156134fe57508582146134f6576007935f52600160405f20555f52600260405f20555f52600360405f205517600792613441565b505050505050565b969750505050505060601b9055600190565b5050505050565b9596505050505060601b9055600190565b505091925060601b9055600190565b68fbb67fda52d4bfb8bf9150613424565b905f916001600160a01b0361340a7f164f5345d77b48816cdb20100c950b74361454722dab40c51ecf007b721fa80163978aab926004525f5260245f2090565b91906001600160a01b0361340a5f9463978aab926004525f5260245f2090565b6001600160a01b036135e57f164f5345d77b48816cdb20100c950b74361454722dab40c51ecf007b721fa80063978aab926004525f5260245f2090565b91169068fbb67fda52d4bfb8bf821461240d578115613656575b80546bffffffffffffffffffffffff81161561362557506020525f5260405f2054151590565b91908160019360601c1461365157818382015460601c14613651576002015460601c14612f6057505f90565b505090565b68fbb67fda52d4bfb8bf91506135ff565b6001600160a01b036135e57f164f5345d77b48816cdb20100c950b74361454722dab40c51ecf007b721fa80163978aab926004525f5260245f2090565b6136b0612ab9916135a8565b156105946128f3565b5f6004601c60209363313ce56784525afa90601f3d11915f51926101008410161680920290565b6001600160a01b031680638b78c6d819547f8be0079c531659141344cd1fd0a4f28419497f9722a3daafe3b4186f6b6457e05f80a3638b78c6d81955565b610ad9612ab991613667565b602460106020939284936014526f70a082310000000000000000000000005f525afa601f3d11166020510290565b91906014526034526fa9059cbb0000000000000000000000005f5260205f6044601082855af1908160015f51141615613794575b50505f603452565b3b153d1710156137a5575f8061378c565b6390b8ec185f526004601cfd5b7fffffffff000000000000000000000000000000000000000000000000000000005f35165f527ffeaf205b5229ea10e902c7b89e4768733c756362b2becb0bfd65a97f71b02d006020526001600160a01b0360405f205416801561043f575f8091368280378136915af43d5f803e15613829573d5ff35b3d5ffd5b638b78c6d8600c525f526020600c2090815490811618809155600c5160601c7f715ad5ce61fc9595c7b415289d59cf203f23a94fa06f04af7e489a0a76e1fe265f80a3565b638b78c6d8600c525f526020600c2090815417809155600c5160601c7f715ad5ce61fc9595c7b415289d59cf203f23a94fa06f04af7e489a0a76e1fe265f80a3565b6001600160a01b031680638b78c6d819555f7f8be0079c531659141344cd1fd0a4f28419497f9722a3daafe3b4186f6b6457e08180a356fe6080604052346104e9576120b580380380610019816104ed565b928339810160e0828203126104e95761003182610512565b9161003e60208201610512565b9161004b60408301610512565b61005760608401610512565b60808401519091906001600160401b0381116104e95783610079918601610526565b60a08501519093906001600160401b0381116104e95760c09161009d918701610526565b9401519560ff87168097036104e9576001600160a01b0316946100c96100c1610577565b8715156105b7565b6100e56100d4610577565b6001600160a01b03831615156105b7565b6101016100f0610577565b6001600160a01b03841615156105b7565b61011d61010c610577565b6001600160a01b03851615156105b7565b85638b78c6d81955855f7f8be0079c531659141344cd1fd0a4f28419497f9722a3daafe3b4186f6b6457e08180a3638b78c6d8600c525f526020600c206001815417809155600c5160601c5f5160206120955f395f51905f525f80a3638b78c6d8600c525f526020600c206002815417809155600c5160601c5f5160206120955f395f51905f525f80a3638b78c6d8600c525f526020600c206004815417809155600c5160601c5f5160206120955f395f51905f525f80a380516001600160401b0381116103f957600154600181811c911680156104df575b60208210146103db57601f811161047c575b50806020601f8211600114610418575f9161040d575b508160011b915f199060031b1c1916176001555b81516001600160401b0381116103f957600254600181811c911680156103ef575b60208210146103db57601f8111610378575b506020601f82116001146102ff576102d992825f5160206120755f395f51905f529695936102cb935f916102f4575b508160011b915f199060031b1c1916176002555b8660ff196003541617600355604051948552608060208601526080850190610593565b908382036040850152610593565b9260608201528030930390a2604051611a8d90816105e88239f35b90508401515f610294565b601f1982169060025f52805f20915f5b8181106103605750836102cb936102d996935f5160206120755f395f51905f5299989660019410610348575b5050811b016002556102a8565b8601515f1960f88460031b161c191690555f8061033b565b9192602060018192868a01518155019401920161030f565b60025f527f405787fa12a823e0f2b7631cc41b3ba8828b3321ca811111fa75cd3aa3bb5ace601f830160051c810191602084106103d1575b601f0160051c01905b8181106103c65750610265565b5f81556001016103b9565b90915081906103b0565b634e487b7160e01b5f52602260045260245ffd5b90607f1690610253565b634e487b7160e01b5f52604160045260245ffd5b90508201515f61021e565b60015f9081528181209250601f198416905b8181106104645750908360019493921061044c575b5050811b01600155610232565b8401515f1960f88460031b161c191690555f8061043f565b9192602060018192868901518155019401920161042a565b60015f527fb10e2d527612073b26eecdfd717e6a320cf44b4afac2b0732d9fcbe2b7fa0cf6601f830160051c810191602084106104d5575b601f0160051c01905b8181106104ca5750610208565b5f81556001016104bd565b90915081906104b4565b90607f16906101f6565b5f80fd5b6040519190601f01601f191682016001600160401b038111838210176103f957604052565b51906001600160a01b03821682036104e957565b81601f820112156104e9578051906001600160401b0382116103f957610555601f8301601f19166020016104ed565b92828452602083830101116104e957815f9260208093018386015e8301015290565b61058160406104ed565b906002825261543360f01b6020830152565b805180835260209291819084018484015e5f828201840152601f01601f1916010190565b156105bf5750565b60405162461bcd60e51b8152602060048201529081906105e3906024830190610593565b0390fdfe60806040526004361015610011575f80fd5b5f3560e01c806306fdde031461155e578063095ea7b3146114c257806316c38b3c1461144057806318160ddd1461141b578063183a4f6e146114035780631c10893f146113a35780631cd64df41461136a57806323b872dd14611275578063256929621461122c5780632de94807146111fa578063313ce567146111da5780633644e515146111525780633dd1eb61146110ee57806340c10f19146110035780634a4ee7b114610fdb578063514e62fc14610fa357806354d1f13d14610f5f57806369e2f0fb14610ef95780636e76fc8f14610ede57806370a0823114610eac578063715018a614610e635780637314eb0c14610dff57806375b238fc14610de457806379cc679014610d745780637ecebe0014610d425780638da5cb5b14610d0b57806395d89b4114610bfd5780639a19c7b014610b975780639dc29fac14610b1d578063a9059cbb14610a86578063ac9650d81461095a578063acef2efc146108f4578063b187bd26146108d3578063c634b78e1461086f578063d505accf14610571578063d539139314610556578063dd62ed3e14610522578063e63ea4081461029c578063f04e283e1461024f578063f2fde38b146102125763fee81cf4146101dc575f80fd5b3461020e57602060031936011261020e576101f56115c1565b63389a75e1600c525f52602080600c2054604051908152f35b5f80fd5b602060031936011261020e576102266115c1565b61022e611891565b8060601b1561024257610240906118e7565b005b637448fbae5f526004601cfd5b602060031936011261020e576102636115c1565b61026b611891565b63389a75e1600c52805f526020600c20908154421161028f575f61024092556118e7565b636f5e88185f526004601cfd5b3461020e576102aa36611607565b916102b3611833565b73ffffffffffffffffffffffffffffffffffffffff8216918360409161031083516102de858261165b565b600281527f543300000000000000000000000000000000000000000000000000000000000060208201528615156117f1565b610351835161031f858261165b565b600281527f543400000000000000000000000000000000000000000000000000000000000060208201528315156117f1565b73ffffffffffffffffffffffffffffffffffffffff8416938461049957505f80809381935af13d15610490573d9067ffffffffffffffff821161046357825161040c926103c6601f82017fffffffffffffffffffffffffffffffffffffffffffffffffffffffffffffffe0166020018361165b565b81525f60203d92013e5b8251906103dd848361165b565b600282527f543200000000000000000000000000000000000000000000000000000000000060208301526117f1565b827f63b8c8e180bc85c19daef23e2bb787fb49672d3a9ecde24409c18ccb1accb5d160208351878152a25b519283527f8b28f02a1e9e91961798733908ab75ee54752c8b9e39827e211f752b16845aa660203394a4005b7f4e487b71000000000000000000000000000000000000000000000000000000005f52604160045260245ffd5b61040c906103d0565b9150601452846034526fa9059cbb0000000000000000000000005f5260205f6044601082855af1908160015f51141615610504575b50505f60345282827f552c8f8dc30f2786e14004d98595afcc1c0ea1f552b86e86f64a2da74761eaab60208451888152a3610437565b3b153d1710156105155784806104ce565b6390b8ec185f526004601cfd5b3461020e57604060031936011261020e57602061054e6105406115c1565b6105486115e4565b90611788565b604051908152f35b3461020e575f60031936011261020e57602060405160048152f35b3461020e5760e060031936011261020e5761058a6115c1565b6105926115e4565b604435916064356084359260ff8416840361020e5773ffffffffffffffffffffffffffffffffffffffff16938019156e22d473030f116ddee9f6b43ac78ba386181715610862576040515f906001548060011c9060018116938415610858575b60208310851461082b578284526020840194849281156107f15750600114610792575b6106219250038261165b565b519020908242116107855773ffffffffffffffffffffffffffffffffffffffff60405194169465383775081901600e52855f5260c06020600c20958654957f8b73c3c69bb8fe3d512ecc4cf759cc79239f7b179b0ffacaa9a75d522b39400f8252602082019586528660408301967fc89efdaa54c0f20c7adf612882df0950f5a951637e0307cdcb4c672f298b8bc688528b6060850198468a528c608087019330855260a08820602e527f6e71edae12b1b97f4d1f60370fef10105fa2faae0126114a169c64845d6126c9885252528688525260a082015220604e526042602c205f5260ff1660205260a43560405260c43560605260208060805f60015afa93853d5103610778577f8c5be1e5ebec7d5bd14f71427d1e84f3dd0314c0f7b2291e5b200ac8c7c3b9259460209401905585777f5e9f200000000000000000000000000000000000000000176040526034602c2055a3005b63ddafbaef5f526004601cfd5b631a15a3cc5f526004601cfd5b5060015f90815290917fb10e2d527612073b26eecdfd717e6a320cf44b4afac2b0732d9fcbe2b7fa0cf65b8183106107d557505090602061062192820101610615565b60209193508060019154838588010152019101909183926107bd565b7fffffffffffffffffffffffffffffffffffffffffffffffffffffffffffffff001686525061062192151560051b82016020019050610615565b7f4e487b71000000000000000000000000000000000000000000000000000000005f52602260045260245ffd5b91607f16916105f2565b633f68539a5f526004601cfd5b3461020e57602060031936011261020e576108886115c1565b610890611891565b638b78c6d8600c525f526020600c206001815417809155600c5160601c7f715ad5ce61fc9595c7b415289d59cf203f23a94fa06f04af7e489a0a76e1fe265f80a3005b3461020e575f60031936011261020e57602060ff5f54166040519015158152f35b3461020e57602060031936011261020e5761090d6115c1565b61091561185b565b638b78c6d8600c525f526020600c2080546002811618809155600c5160601c7f715ad5ce61fc9595c7b415289d59cf203f23a94fa06f04af7e489a0a76e1fe265f80a3005b602060031936011261020e5760043567ffffffffffffffff811161020e573660238201121561020e57806004013567ffffffffffffffff811161020e578060051b366024828501011161020e573461020e5760405192839260208452808460200152604084810193806024850186378501019283916109f1575b505050806040520360401b178060401c9067ffffffffffffffff16f35b919350915b80915f6044825187016024810135918291018537389084305af415610a7d57602067ffffffffffffffe0603f5f937fffffffffffffffffffffffffffffffffffffffffffffffffffffffffffffffc08a87030181528301943d81523d858583013e3d010116933d0101528483821015610a705750906109f6565b93505090508380806109d4565b853d5f823e3d90fd5b3461020e57604060031936011261020e57610a9f6115c1565b60243590610aab6118a0565b6387a211a2600c52335f526020600c208054808411610b105783900390555f526020600c20818154019055602052600c5160601c337fddf252ad1be2c89b69c2b068fc378daa952ba7f163c4a11628f55a4df523b3ef602080a3602060405160018152f35b63f4d678b85f526004601cfd5b3461020e57604060031936011261020e57610b366115c1565b7f696de425f79f4a40bc6d2122ca50507f0efbeabbff86a84871b7196ab8ea8df7602073ffffffffffffffffffffffffffffffffffffffff60243593610b7a611876565b610b826118a0565b610b8c8582611990565b6040519485521692a2005b3461020e57602060031936011261020e57610bb06115c1565b610bb8611891565b638b78c6d8600c525f526020600c2080546001811618809155600c5160601c7f715ad5ce61fc9595c7b415289d59cf203f23a94fa06f04af7e489a0a76e1fe265f80a3005b3461020e575f60031936011261020e576040515f6002548060011c90600181168015610d01575b60208310811461082b57828552908115610cbf5750600114610c61575b610c5d83610c518185038261165b565b60405191829182611579565b0390f35b60025f9081527f405787fa12a823e0f2b7631cc41b3ba8828b3321ca811111fa75cd3aa3bb5ace939250905b808210610ca557509091508101602001610c51610c41565b919260018160209254838588010152019101909291610c8d565b7fffffffffffffffffffffffffffffffffffffffffffffffffffffffffffffff001660208086019190915291151560051b84019091019150610c519050610c41565b91607f1691610c24565b3461020e575f60031936011261020e576020638b78c6d8195473ffffffffffffffffffffffffffffffffffffffff60405191168152f35b3461020e57602060031936011261020e57610d5b6115c1565b6338377508600c525f52602080600c2054604051908152f35b3461020e57604060031936011261020e57610d8d6115c1565b7f696de425f79f4a40bc6d2122ca50507f0efbeabbff86a84871b7196ab8ea8df7602073ffffffffffffffffffffffffffffffffffffffff60243593610dd1611876565b610dd96118a0565b610b82853383611932565b3461020e575f60031936011261020e57602060405160018152f35b3461020e57602060031936011261020e57610e186115c1565b610e2061185b565b638b78c6d8600c525f526020600c206002815417809155600c5160601c7f715ad5ce61fc9595c7b415289d59cf203f23a94fa06f04af7e489a0a76e1fe265f80a3005b5f60031936011261020e57610e76611891565b5f638b78c6d819547f8be0079c531659141344cd1fd0a4f28419497f9722a3daafe3b4186f6b6457e08280a35f638b78c6d81955005b3461020e57602060031936011261020e57610ec56115c1565b6387a211a2600c525f52602080600c2054604051908152f35b3461020e575f60031936011261020e57602060405160028152f35b3461020e57602060031936011261020e57610f126115c1565b610f1a61185b565b638b78c6d8600c525f526020600c2080546004811618809155600c5160601c7f715ad5ce61fc9595c7b415289d59cf203f23a94fa06f04af7e489a0a76e1fe265f80a3005b5f60031936011261020e5763389a75e1600c52335f525f6020600c2055337ffa7b8eab7da67f412cc9575ed43464468f9bfbae89d1675917346ca6d8fe3c925f80a2005b3461020e57604060031936011261020e57610fbc6115c1565b638b78c6d8600c525f52602060243581600c2054161515604051908152f35b604060031936011261020e57610240610ff26115c1565b610ffa611891565b60243590611a12565b3461020e57604060031936011261020e5761101c6115c1565b60243590611028611876565b6110306118a0565b6110386118a0565b6805345cdf77eb68f44c54908282019182106110e15773ffffffffffffffffffffffffffffffffffffffff6020917f30385c845b448a36257a6a1716e6ad2e1bc2cbe333cde1e69fe849ad6511adfe936805345cdf77eb68f44c556387a211a2600c52805f5282600c20858154019055848352600c5160601c5f7fddf252ad1be2c89b69c2b068fc378daa952ba7f163c4a11628f55a4df523b3ef8580a36040519485521692a2005b63e5cfe9575f526004601cfd5b3461020e57602060031936011261020e576111076115c1565b61110f61185b565b638b78c6d8600c525f526020600c206004815417809155600c5160601c7f715ad5ce61fc9595c7b415289d59cf203f23a94fa06f04af7e489a0a76e1fe265f80a3005b3461020e575f60031936011261020e57602060a061116e61169c565b828151910120604051907f8b73c3c69bb8fe3d512ecc4cf759cc79239f7b179b0ffacaa9a75d522b39400f8252838201527fc89efdaa54c0f20c7adf612882df0950f5a951637e0307cdcb4c672f298b8bc6604082015246606082015230608082015220604051908152f35b3461020e575f60031936011261020e57602060ff60035416604051908152f35b3461020e57602060031936011261020e576112136115c1565b638b78c6d8600c525f52602080600c2054604051908152f35b5f60031936011261020e5763389a75e1600c52335f526202a30042016020600c2055337fdbf36a107da19e49527a7176a1babf963b4b0ff8cde35ee35d6cd8f1f9ac7e1d5f80a2005b3461020e5761128336611607565b9061128c6118a0565b8260601b6e22d473030f116ddee9f6b43ac78ba33303611320575b6387a211a217600c526020600c208054808411610b105783900390555f526020600c2081815401905560205273ffffffffffffffffffffffffffffffffffffffff600c5160601c91167fddf252ad1be2c89b69c2b068fc378daa952ba7f163c4a11628f55a4df523b3ef602080a3602060405160018152f35b33602052637f5e9f208117600c526034600c20908154918219611346575b5090506112a7565b82851161135d57846387a211a2930390558561133e565b6313be252b5f526004601cfd5b3461020e57604060031936011261020e5760206113856115c1565b60243590638b78c6d8600c525f528082600c20541614604051908152f35b604060031936011261020e576113b76115c1565b6113bf611891565b638b78c6d8600c525f526020600c20602435815417809155600c5160601c7f715ad5ce61fc9595c7b415289d59cf203f23a94fa06f04af7e489a0a76e1fe265f80a3005b602060031936011261020e5761024060043533611a12565b3461020e575f60031936011261020e5760206805345cdf77eb68f44c54604051908152f35b3461020e57602060031936011261020e5760043580151580910361020e5760207f4a70f7b28175f47e972c97acb46a374c20795051fa46ea55d41c77b1aabcaef59161148a611833565b60ff7fffffffffffffffffffffffffffffffffffffffffffffffffffffffffffffff005f541691168091175f556040519015158152a1005b3461020e57604060031936011261020e576114db6115c1565b602435908119156e22d473030f116ddee9f6b43ac78ba373ffffffffffffffffffffffffffffffffffffffff831618171561086257602052637f5e9f20600c52335f52806034600c20555f52602c5160601c337f8c5be1e5ebec7d5bd14f71427d1e84f3dd0314c0f7b2291e5b200ac8c7c3b92560205fa3602060405160018152f35b3461020e575f60031936011261020e57610c5d610c5161169c565b7fffffffffffffffffffffffffffffffffffffffffffffffffffffffffffffffe0601f602060409481855280519182918282880152018686015e5f8582860101520116010190565b6004359073ffffffffffffffffffffffffffffffffffffffff8216820361020e57565b6024359073ffffffffffffffffffffffffffffffffffffffff8216820361020e57565b600319606091011261020e5760043573ffffffffffffffffffffffffffffffffffffffff8116810361020e579060243573ffffffffffffffffffffffffffffffffffffffff8116810361020e579060443590565b90601f7fffffffffffffffffffffffffffffffffffffffffffffffffffffffffffffffe0910116810190811067ffffffffffffffff82111761046357604052565b604051905f6001548060011c916001821691821561177e575b60208410831461082b57838652859290811561174157506001146116e2575b6116e09250038361165b565b565b5060015f90815290917fb10e2d527612073b26eecdfd717e6a320cf44b4afac2b0732d9fcbe2b7fa0cf65b8183106117255750509060206116e0928201016116d4565b602091935080600191548385890101520191019091849261170d565b602092506116e09491507fffffffffffffffffffffffffffffffffffffffffffffffffffffffffffffff001682840152151560051b8201016116d4565b92607f16926116b5565b906e22d473030f116ddee9f6b43ac78ba373ffffffffffffffffffffffffffffffffffffffff8216146117cb57602052637f5e9f20600c525f526034600c205490565b50507fffffffffffffffffffffffffffffffffffffffffffffffffffffffffffffffff90565b156117f95750565b61182f906040519182917f08c379a000000000000000000000000000000000000000000000000000000000835260048301611579565b0390fd5b638b78c6d8600c52335f5260026020600c2054161561184e57565b6382b429005f526004601cfd5b638b78c6d8600c52335f5260016020600c2054161561184e57565b638b78c6d8600c52335f5260046020600c2054161561184e57565b638b78c6d81954330361184e57565b6116e060ff5f541615604051906118b860408361165b565b600282527f543100000000000000000000000000000000000000000000000000000000000060208301526117f1565b73ffffffffffffffffffffffffffffffffffffffff1680638b78c6d819547f8be0079c531659141344cd1fd0a4f28419497f9722a3daafe3b4186f6b6457e05f80a3638b78c6d81955565b906e22d473030f116ddee9f6b43ac78ba373ffffffffffffffffffffffffffffffffffffffff82161461198b57602052637f5e9f20600c525f526034600c20908154801961197f57505050565b80821161135d57039055565b505050565b906119996118a0565b6387a211a2600c52815f526020600c2091825491828111610b10575f938173ffffffffffffffffffffffffffffffffffffffff94039055806805345cdf77eb68f44c54036805345cdf77eb68f44c558352167fddf252ad1be2c89b69c2b068fc378daa952ba7f163c4a11628f55a4df523b3ef602083a3565b638b78c6d8600c525f526020600c2090815490811618809155600c5160601c7f715ad5ce61fc9595c7b415289d59cf203f23a94fa06f04af7e489a0a76e1fe265f80a356fea26469706673582212200a6e1a54bbb742f9210efcbc7112d12ef1af56cbf0f6ee579ed381fa88925de464736f6c634300081e003381b2c8a397ec791820fda8a174ba4714156d0b2a1fb31150d5621518c2a4666c715ad5ce61fc9595c7b415289d59cf203f23a94fa06f04af7e489a0a76e1fe26a264697066735822122084bfc64ad7117cf3d970f3864e610b735ce43151690ea365d223c5b23a3f14d964736f6c634300081e0033","linkReferences":{}},"methodIdentifiers":{"K_ASSET_ROUTER()":"034d4b7c","K_MINTER()":"71158ad5","USDC()":"89a30271","WBTC()":"4dede3de","addFunction(bytes4,address,bool)":"30b88eef","addFunctions(bytes4[],address,bool)":"eeda387f","assetToKToken(address)":"a3863a95","cancelOwnershipHandover()":"54d1f13d","completeOwnershipHandover(address)":"f04e283e","contractName()":"75d0c0dc","contractVersion()":"a0a8e460","getAdapter(address,address)":"4c472fc9","getAllAssets()":"2acada4d","getAllVaults()":"97331bf9","getContractById(bytes32)":"a9c9a918","getCoreContracts()":"520f7c1e","getHurdleRate(address)":"39b0f2ca","getMaxBurnPerBatch(address)":"a05a0e4a","getMaxMintPerBatch(address)":"e6ed859d","getTreasury()":"3b19e84a","getVaultAssets(address)":"c548ec39","getVaultByAssetAndType(address,uint8)":"e36bea44","getVaultType(address)":"1f51fd93","getVaultsByAsset(address)":"10894052","grantInstitutionRole(address)":"17ee351a","grantManagerRole(address)":"26e885e3","grantRelayerRole(address)":"1e0af67e","grantRoles(address,uint256)":"1c10893f","grantVendorRole(address)":"b4151858","hasAllRoles(address,uint256)":"1cd64df4","hasAnyRole(address,uint256)":"514e62fc","initialize(address,address,address,address,address,address)":"cc2a9a5b","isAdapterRegistered(address,address,address)":"571ae6a3","isAdmin(address)":"24d7806c","isAsset(address)":"c87fa42a","isEmergencyAdmin(address)":"2500f2b6","isGuardian(address)":"0c68ba21","isInstitution(address)":"0331df07","isManager(address)":"f3ae2415","isRelayer(address)":"541d5548","isVault(address)":"652b9b41","isVendor(address)":"ee54d54f","owner()":"8da5cb5b","ownershipHandoverExpiresAt(address)":"fee81cf4","proxiableUUID()":"52d1902d","registerAdapter(address,address,address)":"93d6be27","registerAsset(string,string,address,bytes32,uint256,uint256)":"70e6b56e","registerVault(address,uint8,address)":"3c02faf5","removeAdapter(address,address,address)":"77f8cf90","removeFunction(bytes4)":"1b6991c7","removeFunctions(bytes4[])":"f8ffd889","removeVault(address)":"ceb68c23","renounceOwnership()":"715018a6","renounceRoles(uint256)":"183a4f6e","requestOwnershipHandover()":"25692962","rescueAssets(address,address,uint256)":"d01b5de4","revokeRoles(address,uint256)":"4a4ee7b1","rolesOf(address)":"2de94807","setAssetBatchLimits(address,uint256,uint256)":"5dcdc101","setHurdleRate(address,uint16)":"1edb9df2","setPaused(bool)":"16c38b3c","setSingletonContract(bytes32,address)":"072ee5eb","setTreasury(address)":"f0f44260","transferOwnership(address)":"f2fde38b","upgradeToAndCall(address,bytes)":"4f1ef286"},"storageLayout":{"storage":[],"types":{}},"id":62}