{"abi":[{"type":"receive","stateMutability":"payable"},{"type":"function","name":"processBatch","inputs":[],"outputs":[{"name":"","type":"bool","internalType":"bool"}],"stateMutability":"pure"},{"type":"function","name":"receiveAssets","inputs":[{"name":"recipient","type":"address","internalType":"address"},{"name":"asset","type":"address","internalType":"address"},{"name":"amount","type":"uint256","internalType":"uint256"},{"name":"batchId","type":"bytes32","internalType":"bytes32"}],"outputs":[],"stateMutability":"payable"}],"bytecode":{"object":"0x60808060405234601557610203908161001a8239f35b5f80fdfe608080604052600436101561001c575b50361561001a575f80fd5b005b5f3560e01c9081631e1f50aa1461007b5750634cd6bfbc1461003e575f61000f565b34610077575f7ffffffffffffffffffffffffffffffffffffffffffffffffffffffffffffffffc36011261007757602060405160018152f35b5f80fd5b60807ffffffffffffffffffffffffffffffffffffffffffffffffffffffffffffffffc3601126100775760043573ffffffffffffffffffffffffffffffffffffffff81168091036100775760243573ffffffffffffffffffffffffffffffffffffffff8116809103610077576044835f81936020957fa9059cbb0000000000000000000000000000000000000000000000000000000084526004840152833560248401525af180156101c25761012d57005b60203d6020116101bb575b7fffffffffffffffffffffffffffffffffffffffffffffffffffffffffffffffe0601f820116820182811067ffffffffffffffff82111761018e5760209183916040528101031261007757518015150361007757005b7f4e487b71000000000000000000000000000000000000000000000000000000005f52604160045260245ffd5b503d610138565b6040513d5f823e3d90fdfea26469706673582212200664015417b0a4bb44694d6e4bf66a105b97db895b773b9f2cae57e1e9ebc4f464736f6c634300081e0033","linkReferences":{}},"methodIdentifiers":{"processBatch()":"4cd6bfbc","receiveAssets(address,address,uint256,bytes32)":"1e1f50aa"},"storageLayout":{"storage":[],"types":{}},"id":88}