{"abi":[{"type":"constructor","inputs":[{"name":"_registry","type":"address","internalType":"address"}],"stateMutability":"nonpayable"},{"type":"function","name":"authorizeAdapterCall","inputs":[{"name":"adapter","type":"address","internalType":"address"},{"name":"token","type":"address","internalType":"address"},{"name":"selector","type":"bytes4","internalType":"bytes4"},{"name":"params","type":"bytes","internalType":"bytes"}],"outputs":[{"name":"","type":"bool","internalType":"bool"}],"stateMutability":"view"},{"type":"function","name":"isAllowedReceiver","inputs":[{"name":"token","type":"address","internalType":"address"},{"name":"receiver","type":"address","internalType":"address"}],"outputs":[{"name":"","type":"bool","internalType":"bool"}],"stateMutability":"view"},{"type":"function","name":"isAllowedSource","inputs":[{"name":"token","type":"address","internalType":"address"},{"name":"source","type":"address","internalType":"address"}],"outputs":[{"name":"","type":"bool","internalType":"bool"}],"stateMutability":"view"},{"type":"function","name":"isAllowedSpender","inputs":[{"name":"token","type":"address","internalType":"address"},{"name":"spender","type":"address","internalType":"address"}],"outputs":[{"name":"","type":"bool","internalType":"bool"}],"stateMutability":"view"},{"type":"function","name":"maxSingleTransfer","inputs":[{"name":"token","type":"address","internalType":"address"}],"outputs":[{"name":"","type":"uint256","internalType":"uint256"}],"stateMutability":"view"},{"type":"function","name":"registry","inputs":[],"outputs":[{"name":"","type":"address","internalType":"contract IRegistry"}],"stateMutability":"view"},{"type":"function","name":"setAllowedReceiver","inputs":[{"name":"token","type":"address","internalType":"address"},{"name":"receiver","type":"address","internalType":"address"},{"name":"allowed","type":"bool","internalType":"bool"}],"outputs":[],"stateMutability":"nonpayable"},{"type":"function","name":"setAllowedSource","inputs":[{"name":"token","type":"address","internalType":"address"},{"name":"source","type":"address","internalType":"address"},{"name":"allowed","type":"bool","internalType":"bool"}],"outputs":[],"stateMutability":"nonpayable"},{"type":"function","name":"setAllowedSpender","inputs":[{"name":"token","type":"address","internalType":"address"},{"name":"spender","type":"address","internalType":"address"},{"name":"allowed","type":"bool","internalType":"bool"}],"outputs":[],"stateMutability":"nonpayable"},{"type":"function","name":"setMaxSingleTransfer","inputs":[{"name":"token","type":"address","internalType":"address"},{"name":"max","type":"uint256","internalType":"uint256"}],"outputs":[],"stateMutability":"nonpayable"},{"type":"event","name":"MaxSingleTransferUpdated","inputs":[{"name":"token","type":"address","indexed":true,"internalType":"address"},{"name":"maxAmount","type":"uint256","indexed":false,"internalType":"uint256"}],"anonymous":false},{"type":"event","name":"ReceiverStatusUpdated","inputs":[{"name":"token","type":"address","indexed":true,"internalType":"address"},{"name":"receiver","type":"address","indexed":true,"internalType":"address"},{"name":"allowed","type":"bool","indexed":false,"internalType":"bool"}],"anonymous":false},{"type":"event","name":"SourceStatusUpdated","inputs":[{"name":"token","type":"address","indexed":true,"internalType":"address"},{"name":"source","type":"address","indexed":true,"internalType":"address"},{"name":"allowed","type":"bool","indexed":false,"internalType":"bool"}],"anonymous":false},{"type":"event","name":"SpenderStatusUpdated","inputs":[{"name":"token","type":"address","indexed":true,"internalType":"address"},{"name":"spender","type":"address","indexed":true,"internalType":"address"},{"name":"allowed","type":"bool","indexed":false,"internalType":"bool"}],"anonymous":false}],"bytecode":{"object":"0x60a034607657601f610bfe38819003918201601f19168301916001600160401b03831184841017607a57808492602094604052833981010312607657516001600160a01b03811690819003607657608052604051610b6f908161008f82396080518181816102ea015281816107500152610a240152f35b5f80fd5b634e487b7160e01b5f52604160045260245ffdfe60806040526004361015610011575f80fd5b5f3560e01c80630933a815146104e45780632ccd25011461049f5780632e15fea41461042957806334bc21c71461038157806369320b231461030e5780637b103999146102be578063b04de02e1461024b578063b20c1629146101ab578063c9c0f0ee146101395763e4b446bb14610087575f80fd5b346101355773ffffffffffffffffffffffffffffffffffffffff807f636f9ebe997a5312538c8c26cc6dd7d9abfd0c8012b7a693c6069eb9a57e5ec360206100ce366105ec565b95916100dc959195336109c5565b1693845f526001835260405f208282165f5283526101288660405f209060ff7fffffffffffffffffffffffffffffffffffffffffffffffffffffffffffffff0083541691151516179055565b60405195151586521693a3005b5f80fd5b3461013557604060031936011261013557610152610585565b73ffffffffffffffffffffffffffffffffffffffff61016f6105a8565b91165f525f60205273ffffffffffffffffffffffffffffffffffffffff60405f2091165f52602052602060ff60405f2054166040519015158152f35b346101355773ffffffffffffffffffffffffffffffffffffffff807f86181db2e28db2a65c5b92c5d5190876c2ae2ef68c38837927b3da0e794f3e2d60206101f2366105ec565b9591610200959195336109c5565b1693845f525f835260405f208282165f5283526101288660405f209060ff7fffffffffffffffffffffffffffffffffffffffffffffffffffffffffffffff0083541691151516179055565b3461013557604060031936011261013557610264610585565b73ffffffffffffffffffffffffffffffffffffffff6102816105a8565b91165f52600260205273ffffffffffffffffffffffffffffffffffffffff60405f2091165f52602052602060ff60405f2054166040519015158152f35b34610135575f60031936011261013557602060405173ffffffffffffffffffffffffffffffffffffffff7f0000000000000000000000000000000000000000000000000000000000000000168152f35b3461013557604060031936011261013557610327610585565b73ffffffffffffffffffffffffffffffffffffffff6103446105a8565b91165f52600160205273ffffffffffffffffffffffffffffffffffffffff60405f2091165f52602052602060ff60405f2054166040519015158152f35b346101355760806003193601126101355761039a610585565b506103a36105a8565b604435907fffffffff0000000000000000000000000000000000000000000000000000000082168203610135576064359067ffffffffffffffff821161013557366023830112156101355781600401359067ffffffffffffffff821161013557366024838501011161013557602093602461041f9401916106ec565b6040519015158152f35b3461013557604060031936011261013557610442610585565b7fb79819a312904a8899ad3ee0499d5b214a6c670bcc4cafdcfdab54a811d2ddb5602073ffffffffffffffffffffffffffffffffffffffff60243593610487336109c5565b1692835f52600382528060405f2055604051908152a2005b346101355760206003193601126101355773ffffffffffffffffffffffffffffffffffffffff6104cd610585565b165f526003602052602060405f2054604051908152f35b346101355773ffffffffffffffffffffffffffffffffffffffff807fc6a85cc5a35f640ffcdb033f3fb7097460bf01789435b5bec4076d96aad7b80c602061052b366105ec565b9591610539959195336109c5565b1693845f526002835260405f208282165f5283526101288660405f209060ff7fffffffffffffffffffffffffffffffffffffffffffffffffffffffffffffff0083541691151516179055565b6004359073ffffffffffffffffffffffffffffffffffffffff8216820361013557565b6024359073ffffffffffffffffffffffffffffffffffffffff8216820361013557565b359073ffffffffffffffffffffffffffffffffffffffff8216820361013557565b60031960609101126101355760043573ffffffffffffffffffffffffffffffffffffffff81168103610135579060243573ffffffffffffffffffffffffffffffffffffffff81168103610135579060443580151581036101355790565b90601f7fffffffffffffffffffffffffffffffffffffffffffffffffffffffffffffffe0910116810190811067ffffffffffffffff82111761068a57604052565b7f4e487b71000000000000000000000000000000000000000000000000000000005f52604160045260245ffd5b90816020910312610135575180151581036101355790565b91908260409103126101355760206106e6836105cb565b92013590565b91929073ffffffffffffffffffffffffffffffffffffffff604051937fc87fa42a000000000000000000000000000000000000000000000000000000008552169283600482015260208160248173ffffffffffffffffffffffffffffffffffffffff7f0000000000000000000000000000000000000000000000000000000000000000165afa9081156109ba575f9161098b575b5015610983577fffffffff00000000000000000000000000000000000000000000000000000000167fa9059cbb0000000000000000000000000000000000000000000000000000000081036108375750916107de91928101906106cf565b825f93929352600360205260405f205410610831575f525f60205273ffffffffffffffffffffffffffffffffffffffff8060405f209216165f5260205260ff60405f2054161561082d57600190565b5f90565b50505f90565b7f23b872dd0000000000000000000000000000000000000000000000000000000081036109105750826060918101031261013557610874826105cb565b91610881602082016105cb565b90825f5260036020526040805f20549101351161090957815f525f60205273ffffffffffffffffffffffffffffffffffffffff8060405f209216165f5260205260ff60405f20541615610831575f52600160205273ffffffffffffffffffffffffffffffffffffffff8060405f209216165f5260205260ff60405f2054161561082d57600190565b5050505f90565b919290917f095ea7b3000000000000000000000000000000000000000000000000000000000361090957610946918101906106cf565b50905f52600260205273ffffffffffffffffffffffffffffffffffffffff8060405f209216165f5260205260ff60405f2054161561082d57600190565b505050505f90565b6109ad915060203d6020116109b3575b6109a58183610649565b8101906106b7565b5f610780565b503d61099b565b6040513d5f823e3d90fd5b73ffffffffffffffffffffffffffffffffffffffff604051917f24d7806c00000000000000000000000000000000000000000000000000000000835216600482015260208160248173ffffffffffffffffffffffffffffffffffffffff7f0000000000000000000000000000000000000000000000000000000000000000165afa9081156109ba575f91610b1a575b506040516040810181811067ffffffffffffffff82111761068a576040526003815260208101917f5043310000000000000000000000000000000000000000000000000000000000835215610aa7575050565b6044907fffffffffffffffffffffffffffffffffffffffffffffffffffffffffffffffe0601f6040519485937f08c379a0000000000000000000000000000000000000000000000000000000008552602060048601525180918160248701528686015e5f85828601015201168101030190fd5b610b33915060203d6020116109b3576109a58183610649565b5f610a5456fea26469706673582212206c8b79ba5c763bada07616e0adf1426ccee9d88332509780bfd4b69810f944da64736f6c634300081e0033","linkReferences":{}},"methodIdentifiers":{"authorizeAdapterCall(address,address,bytes4,bytes)":"34bc21c7","isAllowedReceiver(address,address)":"c9c0f0ee","isAllowedSource(address,address)":"69320b23","isAllowedSpender(address,address)":"b04de02e","maxSingleTransfer(address)":"2ccd2501","registry()":"7b103999","setAllowedReceiver(address,address,bool)":"b20c1629","setAllowedSource(address,address,bool)":"e4b446bb","setAllowedSpender(address,address,bool)":"0933a815","setMaxSingleTransfer(address,uint256)":"2e15fea4"},"storageLayout":{"storage":[{"astId":47887,"contract":"src/adapters/parameters/ERC20ParameterChecker.sol:ERC20ParameterChecker","label":"_allowedReceivers","offset":0,"slot":"0","type":"t_mapping(t_address,t_mapping(t_address,t_bool))"},{"astId":47894,"contract":"src/adapters/parameters/ERC20ParameterChecker.sol:ERC20ParameterChecker","label":"_allowedSources","offset":0,"slot":"1","type":"t_mapping(t_address,t_mapping(t_address,t_bool))"},{"astId":47901,"contract":"src/adapters/parameters/ERC20ParameterChecker.sol:ERC20ParameterChecker","label":"_allowedSpenders","offset":0,"slot":"2","type":"t_mapping(t_address,t_mapping(t_address,t_bool))"},{"astId":47906,"contract":"src/adapters/parameters/ERC20ParameterChecker.sol:ERC20ParameterChecker","label":"_maxSingleTransfer","offset":0,"slot":"3","type":"t_mapping(t_address,t_uint256)"}],"types":{"t_address":{"encoding":"inplace","label":"address","numberOfBytes":"20"},"t_bool":{"encoding":"inplace","label":"bool","numberOfBytes":"1"},"t_mapping(t_address,t_bool)":{"encoding":"mapping","key":"t_address","label":"mapping(address => bool)","numberOfBytes":"32","value":"t_bool"},"t_mapping(t_address,t_mapping(t_address,t_bool))":{"encoding":"mapping","key":"t_address","label":"mapping(address => mapping(address => bool))","numberOfBytes":"32","value":"t_mapping(t_address,t_bool)"},"t_mapping(t_address,t_uint256)":{"encoding":"mapping","key":"t_address","label":"mapping(address => uint256)","numberOfBytes":"32","value":"t_uint256"},"t_uint256":{"encoding":"inplace","label":"uint256","numberOfBytes":"32"}}},"id":36}