{"abi":[{"type":"constructor","inputs":[{"name":"_registry","type":"address","internalType":"address"}],"stateMutability":"nonpayable"},{"type":"function","name":"authorizeAdapterCall","inputs":[{"name":"adapter","type":"address","internalType":"address"},{"name":"token","type":"address","internalType":"address"},{"name":"selector","type":"bytes4","internalType":"bytes4"},{"name":"params","type":"bytes","internalType":"bytes"}],"outputs":[],"stateMutability":"nonpayable"},{"type":"function","name":"isAllowedReceiver","inputs":[{"name":"token","type":"address","internalType":"address"},{"name":"receiver","type":"address","internalType":"address"}],"outputs":[{"name":"","type":"bool","internalType":"bool"}],"stateMutability":"view"},{"type":"function","name":"isAllowedSource","inputs":[{"name":"token","type":"address","internalType":"address"},{"name":"source","type":"address","internalType":"address"}],"outputs":[{"name":"","type":"bool","internalType":"bool"}],"stateMutability":"view"},{"type":"function","name":"isAllowedSpender","inputs":[{"name":"token","type":"address","internalType":"address"},{"name":"spender","type":"address","internalType":"address"}],"outputs":[{"name":"","type":"bool","internalType":"bool"}],"stateMutability":"view"},{"type":"function","name":"maxSingleTransfer","inputs":[{"name":"token","type":"address","internalType":"address"}],"outputs":[{"name":"","type":"uint256","internalType":"uint256"}],"stateMutability":"view"},{"type":"function","name":"registry","inputs":[],"outputs":[{"name":"","type":"address","internalType":"contract IkRegistry"}],"stateMutability":"view"},{"type":"function","name":"setAllowedReceiver","inputs":[{"name":"token","type":"address","internalType":"address"},{"name":"receiver","type":"address","internalType":"address"},{"name":"allowed","type":"bool","internalType":"bool"}],"outputs":[],"stateMutability":"nonpayable"},{"type":"function","name":"setAllowedSource","inputs":[{"name":"token","type":"address","internalType":"address"},{"name":"source","type":"address","internalType":"address"},{"name":"allowed","type":"bool","internalType":"bool"}],"outputs":[],"stateMutability":"nonpayable"},{"type":"function","name":"setAllowedSpender","inputs":[{"name":"token","type":"address","internalType":"address"},{"name":"spender","type":"address","internalType":"address"},{"name":"allowed","type":"bool","internalType":"bool"}],"outputs":[],"stateMutability":"nonpayable"},{"type":"function","name":"setMaxSingleTransfer","inputs":[{"name":"token","type":"address","internalType":"address"},{"name":"max","type":"uint256","internalType":"uint256"}],"outputs":[],"stateMutability":"nonpayable"},{"type":"event","name":"MaxSingleTransferUpdated","inputs":[{"name":"token","type":"address","indexed":true,"internalType":"address"},{"name":"maxAmount","type":"uint256","indexed":false,"internalType":"uint256"}],"anonymous":false},{"type":"event","name":"ReceiverStatusUpdated","inputs":[{"name":"token","type":"address","indexed":true,"internalType":"address"},{"name":"receiver","type":"address","indexed":true,"internalType":"address"},{"name":"allowed","type":"bool","indexed":false,"internalType":"bool"}],"anonymous":false},{"type":"event","name":"SourceStatusUpdated","inputs":[{"name":"token","type":"address","indexed":true,"internalType":"address"},{"name":"source","type":"address","indexed":true,"internalType":"address"},{"name":"allowed","type":"bool","indexed":false,"internalType":"bool"}],"anonymous":false},{"type":"event","name":"SpenderStatusUpdated","inputs":[{"name":"token","type":"address","indexed":true,"internalType":"address"},{"name":"spender","type":"address","indexed":true,"internalType":"address"},{"name":"allowed","type":"bool","indexed":false,"internalType":"bool"}],"anonymous":false}],"bytecode":{"object":"0x60a034606f57601f610d2338819003918201601f19168301916001600160401b03831184841017607357808492602094604052833981010312606f57516001600160a01b03811690819003606f57608052604051610c9b908161008882396080518181816102ea0152610ba90152f35b5f80fd5b634e487b7160e01b5f52604160045260245ffdfe60806040526004361015610011575f80fd5b5f3560e01c80630933a8151461089a5780632ccd2501146108555780632e15fea4146107df57806334bc21c71461038157806369320b231461030e5780637b103999146102be578063b04de02e1461024b578063b20c1629146101ab578063c9c0f0ee146101395763e4b446bb14610087575f80fd5b346101355773ffffffffffffffffffffffffffffffffffffffff807f636f9ebe997a5312538c8c26cc6dd7d9abfd0c8012b7a693c6069eb9a57e5ec360206100ce366109a2565b95916100dc95919533610b4a565b1693845f526001835260405f208282165f5283526101288660405f209060ff7fffffffffffffffffffffffffffffffffffffffffffffffffffffffffffffff0083541691151516179055565b60405195151586521693a3005b5f80fd5b346101355760406003193601126101355761015261093b565b73ffffffffffffffffffffffffffffffffffffffff61016f61095e565b91165f525f60205273ffffffffffffffffffffffffffffffffffffffff60405f2091165f52602052602060ff60405f2054166040519015158152f35b346101355773ffffffffffffffffffffffffffffffffffffffff807f86181db2e28db2a65c5b92c5d5190876c2ae2ef68c38837927b3da0e794f3e2d60206101f2366109a2565b959161020095919533610b4a565b1693845f525f835260405f208282165f5283526101288660405f209060ff7fffffffffffffffffffffffffffffffffffffffffffffffffffffffffffffff0083541691151516179055565b346101355760406003193601126101355761026461093b565b73ffffffffffffffffffffffffffffffffffffffff61028161095e565b91165f52600260205273ffffffffffffffffffffffffffffffffffffffff60405f2091165f52602052602060ff60405f2054166040519015158152f35b34610135575f60031936011261013557602060405173ffffffffffffffffffffffffffffffffffffffff7f0000000000000000000000000000000000000000000000000000000000000000168152f35b346101355760406003193601126101355761032761093b565b73ffffffffffffffffffffffffffffffffffffffff61034461095e565b91165f52600160205273ffffffffffffffffffffffffffffffffffffffff60405f2091165f52602052602060ff60405f2054166040519015158152f35b346101355760806003193601126101355761039a61093b565b506103a361095e565b6044357fffffffff0000000000000000000000000000000000000000000000000000000081168091036101355760643567ffffffffffffffff811161013557366023820112156101355780600401359067ffffffffffffffff821161013557602481019181016024810193368511610135577fa9059cbb00000000000000000000000000000000000000000000000000000000810361054a5750505061046173ffffffffffffffffffffffffffffffffffffffff926104d792610ab5565b9290931691825f52600460205260405f20435f5260205261048760405f20918254610b10565b809155825f52600360205260405f20541015604051906104a86040836109ff565b600382527f50433300000000000000000000000000000000000000000000000000000000006020830152610ad2565b5f525f60205273ffffffffffffffffffffffffffffffffffffffff8060405f209216165f5260205261054860ff60405f205416604051906105196040836109ff565b600382527f50433400000000000000000000000000000000000000000000000000000000006020830152610ad2565b005b919390917f23b872dd0000000000000000000000000000000000000000000000000000000081036106ae575050606090839003126101355761058b90610981565b916105f973ffffffffffffffffffffffffffffffffffffffff6105b060448501610981565b921692835f52600460205260405f20435f526020526105d8606460405f209201358254610b10565b809155835f52600360205260405f20541015604051906104a86040836109ff565b815f525f60205273ffffffffffffffffffffffffffffffffffffffff8060405f209216165f5260205261063c60ff60405f205416604051906105196040836109ff565b5f52600160205273ffffffffffffffffffffffffffffffffffffffff8060405f209216165f5260205261054860ff60405f2054166040519061067f6040836109ff565b600382527f50433500000000000000000000000000000000000000000000000000000000006020830152610ad2565b9093507f095ea7b3000000000000000000000000000000000000000000000000000000001415905061076e5773ffffffffffffffffffffffffffffffffffffffff916106f991610ab5565b5091165f52600260205273ffffffffffffffffffffffffffffffffffffffff8060405f209216165f5260205261054860ff60405f2054166040519061073f6040836109ff565b600382527f50433600000000000000000000000000000000000000000000000000000000006020830152610ad2565b6107db60405161077f6040826109ff565b600381527f504337000000000000000000000000000000000000000000000000000000000060208201526040519182917f08c379a000000000000000000000000000000000000000000000000000000000835260048301610a6d565b0390fd5b34610135576040600319360112610135576107f861093b565b7fb79819a312904a8899ad3ee0499d5b214a6c670bcc4cafdcfdab54a811d2ddb5602073ffffffffffffffffffffffffffffffffffffffff6024359361083d33610b4a565b1692835f52600382528060405f2055604051908152a2005b346101355760206003193601126101355773ffffffffffffffffffffffffffffffffffffffff61088361093b565b165f526003602052602060405f2054604051908152f35b346101355773ffffffffffffffffffffffffffffffffffffffff807fc6a85cc5a35f640ffcdb033f3fb7097460bf01789435b5bec4076d96aad7b80c60206108e1366109a2565b95916108ef95919533610b4a565b1693845f526002835260405f208282165f5283526101288660405f209060ff7fffffffffffffffffffffffffffffffffffffffffffffffffffffffffffffff0083541691151516179055565b6004359073ffffffffffffffffffffffffffffffffffffffff8216820361013557565b6024359073ffffffffffffffffffffffffffffffffffffffff8216820361013557565b359073ffffffffffffffffffffffffffffffffffffffff8216820361013557565b60031960609101126101355760043573ffffffffffffffffffffffffffffffffffffffff81168103610135579060243573ffffffffffffffffffffffffffffffffffffffff81168103610135579060443580151581036101355790565b90601f7fffffffffffffffffffffffffffffffffffffffffffffffffffffffffffffffe0910116810190811067ffffffffffffffff821117610a4057604052565b7f4e487b71000000000000000000000000000000000000000000000000000000005f52604160045260245ffd5b7fffffffffffffffffffffffffffffffffffffffffffffffffffffffffffffffe0601f602060409481855280519182918282880152018686015e5f8582860101520116010190565b9190826040910312610135576020610acc83610981565b92013590565b15610ada5750565b6107db906040519182917f08c379a000000000000000000000000000000000000000000000000000000000835260048301610a6d565b91908201809211610b1d57565b7f4e487b71000000000000000000000000000000000000000000000000000000005f52601160045260245ffd5b73ffffffffffffffffffffffffffffffffffffffff604051917f24d7806c00000000000000000000000000000000000000000000000000000000835216600482015260208160248173ffffffffffffffffffffffffffffffffffffffff7f0000000000000000000000000000000000000000000000000000000000000000165afa8015610c5a575f90610c1d575b610c1b915060405190610bec6040836109ff565b600382527f50433100000000000000000000000000000000000000000000000000000000006020830152610ad2565b565b506020813d602011610c52575b81610c37602093836109ff565b810103126101355751801515810361013557610c1b90610bd8565b3d9150610c2a565b6040513d5f823e3d90fdfea26469706673582212202b5870ac49e8cf5814bbfa4a4f2d23ff25f1ccfb09ba8e7ed3e46ab261d1a3a264736f6c634300081e0033","linkReferences":{}},"methodIdentifiers":{"authorizeAdapterCall(address,address,bytes4,bytes)":"34bc21c7","isAllowedReceiver(address,address)":"c9c0f0ee","isAllowedSource(address,address)":"69320b23","isAllowedSpender(address,address)":"b04de02e","maxSingleTransfer(address)":"2ccd2501","registry()":"7b103999","setAllowedReceiver(address,address,bool)":"b20c1629","setAllowedSource(address,address,bool)":"e4b446bb","setAllowedSpender(address,address,bool)":"0933a815","setMaxSingleTransfer(address,uint256)":"2e15fea4"},"storageLayout":{"storage":[{"astId":47208,"contract":"src/adapters/parameters/ERC20ParameterChecker.sol:ERC20ParameterChecker","label":"_allowedReceivers","offset":0,"slot":"0","type":"t_mapping(t_address,t_mapping(t_address,t_bool))"},{"astId":47215,"contract":"src/adapters/parameters/ERC20ParameterChecker.sol:ERC20ParameterChecker","label":"_allowedSources","offset":0,"slot":"1","type":"t_mapping(t_address,t_mapping(t_address,t_bool))"},{"astId":47222,"contract":"src/adapters/parameters/ERC20ParameterChecker.sol:ERC20ParameterChecker","label":"_allowedSpenders","offset":0,"slot":"2","type":"t_mapping(t_address,t_mapping(t_address,t_bool))"},{"astId":47227,"contract":"src/adapters/parameters/ERC20ParameterChecker.sol:ERC20ParameterChecker","label":"_maxSingleTransfer","offset":0,"slot":"3","type":"t_mapping(t_address,t_uint256)"},{"astId":47234,"contract":"src/adapters/parameters/ERC20ParameterChecker.sol:ERC20ParameterChecker","label":"_amountTransferedPerBlock","offset":0,"slot":"4","type":"t_mapping(t_address,t_mapping(t_uint256,t_uint256))"}],"types":{"t_address":{"encoding":"inplace","label":"address","numberOfBytes":"20"},"t_bool":{"encoding":"inplace","label":"bool","numberOfBytes":"1"},"t_mapping(t_address,t_bool)":{"encoding":"mapping","key":"t_address","label":"mapping(address => bool)","numberOfBytes":"32","value":"t_bool"},"t_mapping(t_address,t_mapping(t_address,t_bool))":{"encoding":"mapping","key":"t_address","label":"mapping(address => mapping(address => bool))","numberOfBytes":"32","value":"t_mapping(t_address,t_bool)"},"t_mapping(t_address,t_mapping(t_uint256,t_uint256))":{"encoding":"mapping","key":"t_address","label":"mapping(address => mapping(uint256 => uint256))","numberOfBytes":"32","value":"t_mapping(t_uint256,t_uint256)"},"t_mapping(t_address,t_uint256)":{"encoding":"mapping","key":"t_address","label":"mapping(address => uint256)","numberOfBytes":"32","value":"t_uint256"},"t_mapping(t_uint256,t_uint256)":{"encoding":"mapping","key":"t_uint256","label":"mapping(uint256 => uint256)","numberOfBytes":"32","value":"t_uint256"},"t_uint256":{"encoding":"inplace","label":"uint256","numberOfBytes":"32"}}},"id":35}