{"abi":[{"type":"function","name":"authorizeAdapterCall","inputs":[{"name":"target","type":"address","internalType":"address"},{"name":"selector","type":"bytes4","internalType":"bytes4"},{"name":"params","type":"bytes","internalType":"bytes"}],"outputs":[],"stateMutability":"view"},{"type":"function","name":"cancelOwnershipHandover","inputs":[],"outputs":[],"stateMutability":"payable"},{"type":"function","name":"completeOwnershipHandover","inputs":[{"name":"pendingOwner","type":"address","internalType":"address"}],"outputs":[],"stateMutability":"payable"},{"type":"function","name":"getAdapterParametersChecker","inputs":[{"name":"adapter","type":"address","internalType":"address"},{"name":"target","type":"address","internalType":"address"},{"name":"selector","type":"bytes4","internalType":"bytes4"}],"outputs":[{"name":"","type":"address","internalType":"address"}],"stateMutability":"view"},{"type":"function","name":"getAdapterTargets","inputs":[{"name":"adapter","type":"address","internalType":"address"}],"outputs":[{"name":"targets","type":"address[]","internalType":"address[]"}],"stateMutability":"view"},{"type":"function","name":"getTargetType","inputs":[{"name":"target","type":"address","internalType":"address"}],"outputs":[{"name":"","type":"uint8","internalType":"uint8"}],"stateMutability":"view"},{"type":"function","name":"grantRoles","inputs":[{"name":"user","type":"address","internalType":"address"},{"name":"roles","type":"uint256","internalType":"uint256"}],"outputs":[],"stateMutability":"payable"},{"type":"function","name":"hasAllRoles","inputs":[{"name":"user","type":"address","internalType":"address"},{"name":"roles","type":"uint256","internalType":"uint256"}],"outputs":[{"name":"","type":"bool","internalType":"bool"}],"stateMutability":"view"},{"type":"function","name":"hasAnyRole","inputs":[{"name":"user","type":"address","internalType":"address"},{"name":"roles","type":"uint256","internalType":"uint256"}],"outputs":[{"name":"","type":"bool","internalType":"bool"}],"stateMutability":"view"},{"type":"function","name":"isAdapterSelectorAllowed","inputs":[{"name":"adapter","type":"address","internalType":"address"},{"name":"target","type":"address","internalType":"address"},{"name":"selector","type":"bytes4","internalType":"bytes4"}],"outputs":[{"name":"","type":"bool","internalType":"bool"}],"stateMutability":"view"},{"type":"function","name":"owner","inputs":[],"outputs":[{"name":"result","type":"address","internalType":"address"}],"stateMutability":"view"},{"type":"function","name":"ownershipHandoverExpiresAt","inputs":[{"name":"pendingOwner","type":"address","internalType":"address"}],"outputs":[{"name":"result","type":"uint256","internalType":"uint256"}],"stateMutability":"view"},{"type":"function","name":"renounceOwnership","inputs":[],"outputs":[],"stateMutability":"payable"},{"type":"function","name":"renounceRoles","inputs":[{"name":"roles","type":"uint256","internalType":"uint256"}],"outputs":[],"stateMutability":"payable"},{"type":"function","name":"requestOwnershipHandover","inputs":[],"outputs":[],"stateMutability":"payable"},{"type":"function","name":"revokeRoles","inputs":[{"name":"user","type":"address","internalType":"address"},{"name":"roles","type":"uint256","internalType":"uint256"}],"outputs":[],"stateMutability":"payable"},{"type":"function","name":"rolesOf","inputs":[{"name":"user","type":"address","internalType":"address"}],"outputs":[{"name":"roles","type":"uint256","internalType":"uint256"}],"stateMutability":"view"},{"type":"function","name":"selectors","inputs":[],"outputs":[{"name":"moduleSelectors","type":"bytes4[]","internalType":"bytes4[]"}],"stateMutability":"pure"},{"type":"function","name":"setAdapterAllowedSelector","inputs":[{"name":"adapter","type":"address","internalType":"address"},{"name":"target","type":"address","internalType":"address"},{"name":"targetType_","type":"uint8","internalType":"uint8"},{"name":"selector","type":"bytes4","internalType":"bytes4"},{"name":"isAllowed","type":"bool","internalType":"bool"}],"outputs":[],"stateMutability":"nonpayable"},{"type":"function","name":"setAdapterParametersChecker","inputs":[{"name":"adapter","type":"address","internalType":"address"},{"name":"target","type":"address","internalType":"address"},{"name":"selector","type":"bytes4","internalType":"bytes4"},{"name":"parametersChecker","type":"address","internalType":"address"}],"outputs":[],"stateMutability":"nonpayable"},{"type":"function","name":"setPaused","inputs":[{"name":"paused_","type":"bool","internalType":"bool"}],"outputs":[],"stateMutability":"nonpayable"},{"type":"function","name":"transferOwnership","inputs":[{"name":"newOwner","type":"address","internalType":"address"}],"outputs":[],"stateMutability":"payable"},{"type":"event","name":"AdapterRegistered","inputs":[{"name":"adapter","type":"address","indexed":true,"internalType":"address"},{"name":"registered","type":"bool","indexed":false,"internalType":"bool"}],"anonymous":false},{"type":"event","name":"OwnershipHandoverCanceled","inputs":[{"name":"pendingOwner","type":"address","indexed":true,"internalType":"address"}],"anonymous":false},{"type":"event","name":"OwnershipHandoverRequested","inputs":[{"name":"pendingOwner","type":"address","indexed":true,"internalType":"address"}],"anonymous":false},{"type":"event","name":"OwnershipTransferred","inputs":[{"name":"oldOwner","type":"address","indexed":true,"internalType":"address"},{"name":"newOwner","type":"address","indexed":true,"internalType":"address"}],"anonymous":false},{"type":"event","name":"ParametersCheckerSet","inputs":[{"name":"adapter","type":"address","indexed":true,"internalType":"address"},{"name":"target","type":"address","indexed":true,"internalType":"address"},{"name":"selector","type":"bytes4","indexed":true,"internalType":"bytes4"},{"name":"parametersChecker","type":"address","indexed":false,"internalType":"address"}],"anonymous":false},{"type":"event","name":"Paused","inputs":[{"name":"paused_","type":"bool","indexed":false,"internalType":"bool"}],"anonymous":false},{"type":"event","name":"RolesUpdated","inputs":[{"name":"user","type":"address","indexed":true,"internalType":"address"},{"name":"roles","type":"uint256","indexed":true,"internalType":"uint256"}],"anonymous":false},{"type":"event","name":"SelectorAllowed","inputs":[{"name":"adapter","type":"address","indexed":true,"internalType":"address"},{"name":"target","type":"address","indexed":true,"internalType":"address"},{"name":"selector","type":"bytes4","indexed":true,"internalType":"bytes4"},{"name":"allowed","type":"bool","indexed":false,"internalType":"bool"}],"anonymous":false},{"type":"error","name":"AlreadyInitialized","inputs":[]},{"type":"error","name":"NewOwnerIsZeroAddress","inputs":[]},{"type":"error","name":"NoHandoverRequest","inputs":[]},{"type":"error","name":"Unauthorized","inputs":[]}],"bytecode":{"object":"0x60808060405234601557611a89908161001a8239f35b5f80fdfe60806040526004361015610011575f80fd5b5f3560e01c806316c38b3c146113c6578063183a4f6e146113ae5780631c10893f1461134e5780631cd64df41461131557806325692962146112cc5780632de948071461129a5780633a5a5fe1146111bd5780634357d63914610a7e57806345be9904146108a757806346b2ad031461083a578063498b19eb146107a95780634a4ee7b114610781578063514e62fc1461074957806354d1f13d14610705578063572715521461063f5780636e25b97814610415578063715018a6146103cc5780638da5cb5b14610395578063ccf0b3a6146101cb578063f04e283e1461017e578063f2fde38b146101415763fee81cf41461010b575f80fd5b3461013d57602060031936011261013d57610124611519565b63389a75e1600c525f52602080600c2054604051908152f35b5f80fd5b602060031936011261013d57610155611519565b61015d6118f7565b8060601b156101715761016f906119c3565b005b637448fbae5f526004601cfd5b602060031936011261013d57610192611519565b61019a6118f7565b63389a75e1600c52805f526020600c2090815442116101be575f61016f92556119c3565b636f5e88185f526004601cfd5b3461013d57602060031936011261013d5761022a6101e7611519565b73ffffffffffffffffffffffffffffffffffffffff165f527f82abb426e3b44c537e85e43273337421a20a3ea37d7e65190cbdd1a7dbb7710260205260405f2090565b63978aab926004525f5260245f208054906bffffffffffffffffffffffff8216906040519260601c68fbb67fda52d4bfb8bf81141581028460200152821561032b57509060011c9060015b8281106103035750505b80825260051b8101602081019182604052604082016020845281518091526020606084019201905f5b8181106102d7578484037fffffffffffffffffffffffffffffffffffffffffffffffffffffffffffffffe00186f35b825173ffffffffffffffffffffffffffffffffffffffff168452602093840193909201916001016102a8565b8060019183015460601c68fbb67fda52d4bfb8bf8114150260208260051b8701015201610275565b610336575b5061027f565b90506001908181015460601c8061034e575b50610330565b68fbb67fda52d4bfb8bf81141502604084015260029081015490915060601c80610379575b80610348565b68fbb67fda52d4bfb8bf81141502606083015250600382610373565b3461013d575f60031936011261013d576020638b78c6d8195473ffffffffffffffffffffffffffffffffffffffff60405191168152f35b5f60031936011261013d576103df6118f7565b5f638b78c6d819547f8be0079c531659141344cd1fd0a4f28419497f9722a3daafe3b4186f6b6457e08280a35f638b78c6d81955005b3461013d575f60031936011261013d57604051610100610435818361158e565b600782527fffffffffffffffffffffffffffffffffffffffffffffffffffffffffffffffe0602083019101368237815115610612577f4357d639000000000000000000000000000000000000000000000000000000008152815160011015610612577f45be9904000000000000000000000000000000000000000000000000000000006040830152815160021015610612577f498b19eb000000000000000000000000000000000000000000000000000000006060830152815160031015610612577f57271552000000000000000000000000000000000000000000000000000000006080830152815160041015610612577f3a5a5fe10000000000000000000000000000000000000000000000000000000060a0830152815160051015610612577fccf0b3a60000000000000000000000000000000000000000000000000000000060c083015281516006101561061257907f46b2ad030000000000000000000000000000000000000000000000000000000060e0820152604051918291602083019060208452518091526040830191905f5b8181106105d7575050500390f35b82517fffffffff00000000000000000000000000000000000000000000000000000000168452859450602093840193909201916001016105c9565b7f4e487b71000000000000000000000000000000000000000000000000000000005f52603260045260245ffd5b3461013d57606060031936011261013d57610658611519565b61066061153c565b73ffffffffffffffffffffffffffffffffffffffff61067d61155f565b92165f527f82abb426e3b44c537e85e43273337421a20a3ea37d7e65190cbdd1a7dbb7710060205273ffffffffffffffffffffffffffffffffffffffff60405f2091165f526020527fffffffff0000000000000000000000000000000000000000000000000000000060405f2091165f52602052602060ff60405f2054166040519015158152f35b5f60031936011261013d5763389a75e1600c52335f525f6020600c2055337ffa7b8eab7da67f412cc9575ed43464468f9bfbae89d1675917346ca6d8fe3c925f80a2005b3461013d57604060031936011261013d57610762611519565b638b78c6d8600c525f52602060243581600c2054161515604051908152f35b604060031936011261013d5761016f610798611519565b6107a06118f7565b60243590611a0e565b3461013d57606060031936011261013d576107c2611519565b6024357fffffffff000000000000000000000000000000000000000000000000000000008116810361013d576044359167ffffffffffffffff831161013d573660238401121561013d5782600401359167ffffffffffffffff831161013d57366024848601011161013d57602461016f940191611682565b3461013d57602060031936011261013d57602060ff61089d61085a611519565b73ffffffffffffffffffffffffffffffffffffffff165f527f82abb426e3b44c537e85e43273337421a20a3ea37d7e65190cbdd1a7dbb7710360205260405f2090565b5416604051908152f35b3461013d57608060031936011261013d576108c0611519565b6108c861153c565b6108d061155f565b916064359173ffffffffffffffffffffffffffffffffffffffff831680930361013d57602073ffffffffffffffffffffffffffffffffffffffff7f4c3d58fc3253b3d75545ffdf664239480173ba1b2155ee70df369f09af959c4e9261093533611913565b61093e85611969565b61094781611969565b610a3782861695865f527f82abb426e3b44c537e85e43273337421a20a3ea37d7e65190cbdd1a7dbb77100855260405f208484165f5285527fffffffff0000000000000000000000000000000000000000000000000000000060405f20991698895f5285526109f460ff60405f205416604051906109c660408361158e565b600382527f474d35000000000000000000000000000000000000000000000000000000000088830152611644565b73ffffffffffffffffffffffffffffffffffffffff165f527f82abb426e3b44c537e85e43273337421a20a3ea37d7e65190cbdd1a7dbb7710160205260405f2090565b8282165f52835260405f20875f52835260405f20867fffffffffffffffffffffffff00000000000000000000000000000000000000008254161790556040519586521693a4005b3461013d5760a060031936011261013d57610a97611519565b610a9f61153c565b9060443560ff811680910361013d57606435927fffffffff00000000000000000000000000000000000000000000000000000000841680940361013d57608435928315159384810361013d57610af433611913565b610afd82611969565b610b0683611969565b610b49604051610b1760408261158e565b600381527f474d3300000000000000000000000000000000000000000000000000000000006020820152871515611644565b73ffffffffffffffffffffffffffffffffffffffff821693845f527f82abb426e3b44c537e85e43273337421a20a3ea37d7e65190cbdd1a7dbb7710060205260405f2073ffffffffffffffffffffffffffffffffffffffff85165f5260205260405f20875f5260205260ff60405f205416806111b6575b61114557845f527f82abb426e3b44c537e85e43273337421a20a3ea37d7e65190cbdd1a7dbb7710060205260405f2073ffffffffffffffffffffffffffffffffffffffff85165f5260205260405f20875f5260205260405f207fffffffffffffffffffffffffffffffffffffffffffffffffffffffffffffff0081541660ff8816179055610c8b8473ffffffffffffffffffffffffffffffffffffffff165f527f82abb426e3b44c537e85e43273337421a20a3ea37d7e65190cbdd1a7dbb7710360205260405f2090565b907fffffffffffffffffffffffffffffffffffffffffffffffffffffffffffffff008254161790555f14610eb957610d009073ffffffffffffffffffffffffffffffffffffffff165f527f82abb426e3b44c537e85e43273337421a20a3ea37d7e65190cbdd1a7dbb7710260205260405f2090565b63978aab926004525f5260245f2073ffffffffffffffffffffffffffffffffffffffff821668fbb67fda52d4bfb8bf8114610eac577f168b42081146da17bc77cef2eb55b65018ed5e3e2a57d0d6bc26873a7528ef2e926020928273ffffffffffffffffffffffffffffffffffffffff9315610e9c575b8154906bffffffffffffffffffffffff8216908387528115610de5575b805f5260405f2091825415610db45750505050505b6040519586521693a4005b60011c918260010190558115610dd55760601b908301556002019055610da9565b91505060601b6003179055610da9565b9180915060601c908115610e9057828214610e875760018401805460601c908115610e785750838114610e6e576002850190815460601c918215610e5e5750848214610e53576007935f52600160405f20555f52600260405f20555f52600360405f20551790600790610d94565b505050505050610da9565b95505050505060601b9055610da9565b5050505050610da9565b945050505060601b9055610da9565b50505050610da9565b505060601b9055610da9565b5068fbb67fda52d4bfb8bf610d77565b63f5a267f15f526004601cfd5b610f008173ffffffffffffffffffffffffffffffffffffffff165f527f82abb426e3b44c537e85e43273337421a20a3ea37d7e65190cbdd1a7dbb7710260205260405f2090565b63978aab926004525f5260245f209173ffffffffffffffffffffffffffffffffffffffff81169068fbb67fda52d4bfb8bf8214610eac57611041602093837f168b42081146da17bc77cef2eb55b65018ed5e3e2a57d0d6bc26873a7528ef2e9673ffffffffffffffffffffffffffffffffffffffff9515611134575b8054906bffffffffffffffffffffffff821615916b7fffffffffffffffffffffff8160011c16935f198501918260011b946110cd5750828a525f5260405f2092835480156110c2575f956001935f19830103611080575b50507fffffffffffffffffffffffffffffffffffffffff000000000000000000000000835416171790555573ffffffffffffffffffffffffffffffffffffffff165f527f82abb426e3b44c537e85e43273337421a20a3ea37d7e65190cbdd1a7dbb7710160205260405f2090565b8282165f52835260405f20875f52835260405f207fffffffffffffffffffffffff00000000000000000000000000000000000000008154169055610da9565b5f1990850101547fffffffffffffffffffffffffffffffffffffffff00000000000000000000000081165f19838701015560601c865260408620558e80610fd3565b5050505050506109f4565b9293509350508260019160601c1461111b57810182815460601c14611109575060020190815460601c1461110157506109f4565b5f90556109f4565b905f92506002019081549055556109f4565b5f925060029082019182548155019081549055556109f4565b68fbb67fda52d4bfb8bf9150610f7c565b6111b260405161115660408261158e565b600381527f474d34000000000000000000000000000000000000000000000000000000000060208201526040519182917f08c379a0000000000000000000000000000000000000000000000000000000008352600483016115fc565b0390fd5b5081610bc0565b3461013d57606060031936011261013d576111d6611519565b6111de61153c565b73ffffffffffffffffffffffffffffffffffffffff6112426111fe61155f565b9373ffffffffffffffffffffffffffffffffffffffff165f527f82abb426e3b44c537e85e43273337421a20a3ea37d7e65190cbdd1a7dbb7710160205260405f2090565b91165f526020527fffffffff0000000000000000000000000000000000000000000000000000000060405f2091165f52602052602073ffffffffffffffffffffffffffffffffffffffff60405f205416604051908152f35b3461013d57602060031936011261013d576112b3611519565b638b78c6d8600c525f52602080600c2054604051908152f35b5f60031936011261013d5763389a75e1600c52335f526202a30042016020600c2055337fdbf36a107da19e49527a7176a1babf963b4b0ff8cde35ee35d6cd8f1f9ac7e1d5f80a2005b3461013d57604060031936011261013d576020611330611519565b60243590638b78c6d8600c525f528082600c20541614604051908152f35b604060031936011261013d57611362611519565b61136a6118f7565b638b78c6d8600c525f526020600c20602435815417809155600c5160601c7f715ad5ce61fc9595c7b415289d59cf203f23a94fa06f04af7e489a0a76e1fe265f80a3005b602060031936011261013d5761016f60043533611a0e565b3461013d57602060031936011261013d5760043580151580910361013d5760207f0e2fb031ee032dc02d8011dc50b816eb450cf856abd8261680dac74f72165bd291638b78c6d8600c52335f5261145d600283600c20541615156040519061142f60408361158e565b600382527f4b4232000000000000000000000000000000000000000000000000000000000085830152611644565b7f841668355433cc9fb8fc1984bd90b939822ef590acd27927baab4c6b4fb12900546114c260405161149060408261158e565b600381527f4b423400000000000000000000000000000000000000000000000000000000008582015260ff8316611644565b7fffffffffffffffffffffffffffffffffffffffffffffffffffffffffffff00ff61ff008360081b169116177f841668355433cc9fb8fc1984bd90b939822ef590acd27927baab4c6b4fb1290055604051908152a1005b6004359073ffffffffffffffffffffffffffffffffffffffff8216820361013d57565b6024359073ffffffffffffffffffffffffffffffffffffffff8216820361013d57565b604435907fffffffff000000000000000000000000000000000000000000000000000000008216820361013d57565b90601f7fffffffffffffffffffffffffffffffffffffffffffffffffffffffffffffffe0910116810190811067ffffffffffffffff8211176115cf57604052565b7f4e487b71000000000000000000000000000000000000000000000000000000005f52604160045260245ffd5b7fffffffffffffffffffffffffffffffffffffffffffffffffffffffffffffffe0601f602060409481855280519182918282880152018686015e5f8582860101520116010190565b1561164c5750565b6111b2906040519182917f08c379a0000000000000000000000000000000000000000000000000000000008352600483016115fc565b929192335f527f82abb426e3b44c537e85e43273337421a20a3ea37d7e65190cbdd1a7dbb7710060205260405f2073ffffffffffffffffffffffffffffffffffffffff82165f526020527fffffffff0000000000000000000000000000000000000000000000000000000060405f20921691825f5260205261174360ff60405f2054166040519061171460408361158e565b600382527f474d3200000000000000000000000000000000000000000000000000000000006020830152611644565b335f9081527f82abb426e3b44c537e85e43273337421a20a3ea37d7e65190cbdd1a7dbb771016020526040902073ffffffffffffffffffffffffffffffffffffffff82165f5260205260405f20825f5260205273ffffffffffffffffffffffffffffffffffffffff60405f2054169081156118f05760a473ffffffffffffffffffffffffffffffffffffffff917fffffffffffffffffffffffffffffffffffffffffffffffffffffffffffffffe0601f876020986040519a8b998a9889977f34bc21c70000000000000000000000000000000000000000000000000000000089523360048a0152166024880152604487015260806064870152816084870152868601375f858286010152011681010301915afa80156118e5575f906118a8575b6118a691506040519061187760408361158e565b600382527f474d3100000000000000000000000000000000000000000000000000000000006020830152611644565b565b506020813d6020116118dd575b816118c26020938361158e565b8101031261013d5751801515810361013d576118a690611863565b3d91506118b5565b6040513d5f823e3d90fd5b5050505050565b638b78c6d81954330361190657565b6382b429005f526004601cfd5b638b78c6d8600c525f526118a660016020600c20541615156040519061193a60408361158e565b600382527f4b423200000000000000000000000000000000000000000000000000000000006020830152611644565b6118a69073ffffffffffffffffffffffffffffffffffffffff6040519161199160408461158e565b600383527f4b423300000000000000000000000000000000000000000000000000000000006020840152161515611644565b73ffffffffffffffffffffffffffffffffffffffff1680638b78c6d819547f8be0079c531659141344cd1fd0a4f28419497f9722a3daafe3b4186f6b6457e05f80a3638b78c6d81955565b638b78c6d8600c525f526020600c2090815490811618809155600c5160601c7f715ad5ce61fc9595c7b415289d59cf203f23a94fa06f04af7e489a0a76e1fe265f80a356fea2646970667358221220defefb3b56a5aa5bae1f16dde3533b9dd689a39df1968c582e3966359a96896764736f6c634300081e0033","linkReferences":{}},"methodIdentifiers":{"authorizeAdapterCall(address,bytes4,bytes)":"498b19eb","cancelOwnershipHandover()":"54d1f13d","completeOwnershipHandover(address)":"f04e283e","getAdapterParametersChecker(address,address,bytes4)":"3a5a5fe1","getAdapterTargets(address)":"ccf0b3a6","getTargetType(address)":"46b2ad03","grantRoles(address,uint256)":"1c10893f","hasAllRoles(address,uint256)":"1cd64df4","hasAnyRole(address,uint256)":"514e62fc","isAdapterSelectorAllowed(address,address,bytes4)":"57271552","owner()":"8da5cb5b","ownershipHandoverExpiresAt(address)":"fee81cf4","renounceOwnership()":"715018a6","renounceRoles(uint256)":"183a4f6e","requestOwnershipHandover()":"25692962","revokeRoles(address,uint256)":"4a4ee7b1","rolesOf(address)":"2de94807","selectors()":"6e25b978","setAdapterAllowedSelector(address,address,uint8,bytes4,bool)":"4357d639","setAdapterParametersChecker(address,address,bytes4,address)":"45be9904","setPaused(bool)":"16c38b3c","transferOwnership(address)":"f2fde38b"},"storageLayout":{"storage":[],"types":{}},"id":64}