{"abi":[{"type":"function","name":"DOMAIN_SEPARATOR","inputs":[],"outputs":[{"name":"result","type":"bytes32","internalType":"bytes32"}],"stateMutability":"view"},{"type":"function","name":"allowance","inputs":[{"name":"owner","type":"address","internalType":"address"},{"name":"spender","type":"address","internalType":"address"}],"outputs":[{"name":"result","type":"uint256","internalType":"uint256"}],"stateMutability":"view"},{"type":"function","name":"approve","inputs":[{"name":"spender","type":"address","internalType":"address"},{"name":"amount","type":"uint256","internalType":"uint256"}],"outputs":[{"name":"","type":"bool","internalType":"bool"}],"stateMutability":"nonpayable"},{"type":"function","name":"asset","inputs":[],"outputs":[{"name":"","type":"address","internalType":"address"}],"stateMutability":"view"},{"type":"function","name":"balanceOf","inputs":[{"name":"owner","type":"address","internalType":"address"}],"outputs":[{"name":"result","type":"uint256","internalType":"uint256"}],"stateMutability":"view"},{"type":"function","name":"computeLastBatchFees","inputs":[],"outputs":[{"name":"managementFees","type":"uint256","internalType":"uint256"},{"name":"performanceFees","type":"uint256","internalType":"uint256"},{"name":"totalFees","type":"uint256","internalType":"uint256"}],"stateMutability":"view"},{"type":"function","name":"contractName","inputs":[],"outputs":[{"name":"","type":"string","internalType":"string"}],"stateMutability":"pure"},{"type":"function","name":"contractVersion","inputs":[],"outputs":[{"name":"","type":"string","internalType":"string"}],"stateMutability":"pure"},{"type":"function","name":"convertToAssets","inputs":[{"name":"assets","type":"uint256","internalType":"uint256"}],"outputs":[{"name":"","type":"uint256","internalType":"uint256"}],"stateMutability":"view"},{"type":"function","name":"convertToAssetsWithTotals","inputs":[{"name":"assets","type":"uint256","internalType":"uint256"},{"name":"totalAssets_","type":"uint256","internalType":"uint256"}],"outputs":[{"name":"","type":"uint256","internalType":"uint256"}],"stateMutability":"view"},{"type":"function","name":"convertToShares","inputs":[{"name":"shares","type":"uint256","internalType":"uint256"}],"outputs":[{"name":"","type":"uint256","internalType":"uint256"}],"stateMutability":"view"},{"type":"function","name":"convertToSharesWithTotals","inputs":[{"name":"shares","type":"uint256","internalType":"uint256"},{"name":"totalAssets_","type":"uint256","internalType":"uint256"}],"outputs":[{"name":"","type":"uint256","internalType":"uint256"}],"stateMutability":"view"},{"type":"function","name":"decimals","inputs":[],"outputs":[{"name":"","type":"uint8","internalType":"uint8"}],"stateMutability":"view"},{"type":"function","name":"extsload","inputs":[{"name":"slot","type":"bytes32","internalType":"bytes32"}],"outputs":[{"name":"","type":"bytes32","internalType":"bytes32"}],"stateMutability":"view"},{"type":"function","name":"extsload","inputs":[{"name":"startSlot","type":"bytes32","internalType":"bytes32"},{"name":"nSlots","type":"uint256","internalType":"uint256"}],"outputs":[{"name":"","type":"bytes32[]","internalType":"bytes32[]"}],"stateMutability":"view"},{"type":"function","name":"extsload","inputs":[{"name":"slots","type":"bytes32[]","internalType":"bytes32[]"}],"outputs":[{"name":"","type":"bytes32[]","internalType":"bytes32[]"}],"stateMutability":"view"},{"type":"function","name":"getBatchId","inputs":[],"outputs":[{"name":"","type":"bytes32","internalType":"bytes32"}],"stateMutability":"view"},{"type":"function","name":"getBatchIdInfo","inputs":[{"name":"batchId","type":"bytes32","internalType":"bytes32"}],"outputs":[{"name":"batchReceiver","type":"address","internalType":"address"},{"name":"isClosed","type":"bool","internalType":"bool"},{"name":"isSettled","type":"bool","internalType":"bool"},{"name":"sharePrice","type":"uint256","internalType":"uint256"},{"name":"netSharePrice","type":"uint256","internalType":"uint256"}],"stateMutability":"view"},{"type":"function","name":"getBatchReceiver","inputs":[{"name":"batchId","type":"bytes32","internalType":"bytes32"}],"outputs":[{"name":"","type":"address","internalType":"address"}],"stateMutability":"view"},{"type":"function","name":"getCurrentBatchInfo","inputs":[],"outputs":[{"name":"batchId","type":"bytes32","internalType":"bytes32"},{"name":"batchReceiver","type":"address","internalType":"address"},{"name":"isClosed","type":"bool","internalType":"bool"},{"name":"isSettled","type":"bool","internalType":"bool"}],"stateMutability":"view"},{"type":"function","name":"getSafeBatchId","inputs":[],"outputs":[{"name":"","type":"bytes32","internalType":"bytes32"}],"stateMutability":"view"},{"type":"function","name":"getSafeBatchReceiver","inputs":[{"name":"batchId","type":"bytes32","internalType":"bytes32"}],"outputs":[{"name":"","type":"address","internalType":"address"}],"stateMutability":"view"},{"type":"function","name":"getStakeRequest","inputs":[{"name":"requestId","type":"bytes32","internalType":"bytes32"}],"outputs":[{"name":"stakeRequest","type":"tuple","internalType":"struct BaseVaultTypes.StakeRequest","components":[{"name":"user","type":"address","internalType":"address"},{"name":"kTokenAmount","type":"uint128","internalType":"uint128"},{"name":"recipient","type":"address","internalType":"address"},{"name":"batchId","type":"bytes32","internalType":"bytes32"},{"name":"requestTimestamp","type":"uint64","internalType":"uint64"},{"name":"status","type":"uint8","internalType":"enum BaseVaultTypes.RequestStatus"}]}],"stateMutability":"view"},{"type":"function","name":"getTotalPendingStake","inputs":[],"outputs":[{"name":"","type":"uint256","internalType":"uint256"}],"stateMutability":"view"},{"type":"function","name":"getUnstakeRequest","inputs":[{"name":"requestId","type":"bytes32","internalType":"bytes32"}],"outputs":[{"name":"unstakeRequest","type":"tuple","internalType":"struct BaseVaultTypes.UnstakeRequest","components":[{"name":"user","type":"address","internalType":"address"},{"name":"stkTokenAmount","type":"uint128","internalType":"uint128"},{"name":"recipient","type":"address","internalType":"address"},{"name":"batchId","type":"bytes32","internalType":"bytes32"},{"name":"requestTimestamp","type":"uint64","internalType":"uint64"},{"name":"status","type":"uint8","internalType":"enum BaseVaultTypes.RequestStatus"}]}],"stateMutability":"view"},{"type":"function","name":"getUserRequests","inputs":[{"name":"user","type":"address","internalType":"address"}],"outputs":[{"name":"requestIds","type":"bytes32[]","internalType":"bytes32[]"}],"stateMutability":"view"},{"type":"function","name":"hurdleRate","inputs":[],"outputs":[{"name":"","type":"uint16","internalType":"uint16"}],"stateMutability":"view"},{"type":"function","name":"isBatchClosed","inputs":[],"outputs":[{"name":"","type":"bool","internalType":"bool"}],"stateMutability":"view"},{"type":"function","name":"isBatchSettled","inputs":[],"outputs":[{"name":"","type":"bool","internalType":"bool"}],"stateMutability":"view"},{"type":"function","name":"isHardHurdleRate","inputs":[],"outputs":[{"name":"","type":"bool","internalType":"bool"}],"stateMutability":"view"},{"type":"function","name":"lastFeesChargedManagement","inputs":[],"outputs":[{"name":"","type":"uint256","internalType":"uint256"}],"stateMutability":"view"},{"type":"function","name":"lastFeesChargedPerformance","inputs":[],"outputs":[{"name":"","type":"uint256","internalType":"uint256"}],"stateMutability":"view"},{"type":"function","name":"managementFee","inputs":[],"outputs":[{"name":"","type":"uint16","internalType":"uint16"}],"stateMutability":"view"},{"type":"function","name":"name","inputs":[],"outputs":[{"name":"","type":"string","internalType":"string"}],"stateMutability":"view"},{"type":"function","name":"netSharePrice","inputs":[],"outputs":[{"name":"","type":"uint256","internalType":"uint256"}],"stateMutability":"view"},{"type":"function","name":"nextManagementFeeTimestamp","inputs":[],"outputs":[{"name":"","type":"uint256","internalType":"uint256"}],"stateMutability":"view"},{"type":"function","name":"nextPerformanceFeeTimestamp","inputs":[],"outputs":[{"name":"","type":"uint256","internalType":"uint256"}],"stateMutability":"view"},{"type":"function","name":"nonces","inputs":[{"name":"owner","type":"address","internalType":"address"}],"outputs":[{"name":"result","type":"uint256","internalType":"uint256"}],"stateMutability":"view"},{"type":"function","name":"performanceFee","inputs":[],"outputs":[{"name":"","type":"uint16","internalType":"uint16"}],"stateMutability":"view"},{"type":"function","name":"permit","inputs":[{"name":"owner","type":"address","internalType":"address"},{"name":"spender","type":"address","internalType":"address"},{"name":"value","type":"uint256","internalType":"uint256"},{"name":"deadline","type":"uint256","internalType":"uint256"},{"name":"v","type":"uint8","internalType":"uint8"},{"name":"r","type":"bytes32","internalType":"bytes32"},{"name":"s","type":"bytes32","internalType":"bytes32"}],"outputs":[],"stateMutability":"nonpayable"},{"type":"function","name":"registry","inputs":[],"outputs":[{"name":"","type":"address","internalType":"address"}],"stateMutability":"view"},{"type":"function","name":"selectors","inputs":[],"outputs":[{"name":"","type":"bytes4[]","internalType":"bytes4[]"}],"stateMutability":"pure"},{"type":"function","name":"sharePrice","inputs":[],"outputs":[{"name":"","type":"uint256","internalType":"uint256"}],"stateMutability":"view"},{"type":"function","name":"sharePriceWatermark","inputs":[],"outputs":[{"name":"","type":"uint256","internalType":"uint256"}],"stateMutability":"view"},{"type":"function","name":"symbol","inputs":[],"outputs":[{"name":"","type":"string","internalType":"string"}],"stateMutability":"view"},{"type":"function","name":"totalAssets","inputs":[],"outputs":[{"name":"","type":"uint256","internalType":"uint256"}],"stateMutability":"view"},{"type":"function","name":"totalNetAssets","inputs":[],"outputs":[{"name":"","type":"uint256","internalType":"uint256"}],"stateMutability":"view"},{"type":"function","name":"totalSupply","inputs":[],"outputs":[{"name":"result","type":"uint256","internalType":"uint256"}],"stateMutability":"view"},{"type":"function","name":"transfer","inputs":[{"name":"to","type":"address","internalType":"address"},{"name":"amount","type":"uint256","internalType":"uint256"}],"outputs":[{"name":"","type":"bool","internalType":"bool"}],"stateMutability":"nonpayable"},{"type":"function","name":"transferFrom","inputs":[{"name":"from","type":"address","internalType":"address"},{"name":"to","type":"address","internalType":"address"},{"name":"amount","type":"uint256","internalType":"uint256"}],"outputs":[{"name":"","type":"bool","internalType":"bool"}],"stateMutability":"nonpayable"},{"type":"function","name":"underlyingAsset","inputs":[],"outputs":[{"name":"","type":"address","internalType":"address"}],"stateMutability":"view"},{"type":"event","name":"Approval","inputs":[{"name":"owner","type":"address","indexed":true,"internalType":"address"},{"name":"spender","type":"address","indexed":true,"internalType":"address"},{"name":"amount","type":"uint256","indexed":false,"internalType":"uint256"}],"anonymous":false},{"type":"event","name":"Initialized","inputs":[{"name":"registry","type":"address","indexed":false,"internalType":"address"},{"name":"name","type":"string","indexed":false,"internalType":"string"},{"name":"symbol","type":"string","indexed":false,"internalType":"string"},{"name":"decimals","type":"uint8","indexed":false,"internalType":"uint8"},{"name":"asset","type":"address","indexed":false,"internalType":"address"}],"anonymous":false},{"type":"event","name":"Paused","inputs":[{"name":"paused","type":"bool","indexed":false,"internalType":"bool"}],"anonymous":false},{"type":"event","name":"StakeRequestCancelled","inputs":[{"name":"requestId","type":"bytes32","indexed":true,"internalType":"bytes32"}],"anonymous":false},{"type":"event","name":"StakeRequestCreated","inputs":[{"name":"requestId","type":"bytes32","indexed":true,"internalType":"bytes32"},{"name":"user","type":"address","indexed":true,"internalType":"address"},{"name":"kToken","type":"address","indexed":true,"internalType":"address"},{"name":"amount","type":"uint256","indexed":false,"internalType":"uint256"},{"name":"recipient","type":"address","indexed":false,"internalType":"address"},{"name":"batchId","type":"bytes32","indexed":false,"internalType":"bytes32"}],"anonymous":false},{"type":"event","name":"StakeRequestRedeemed","inputs":[{"name":"requestId","type":"bytes32","indexed":true,"internalType":"bytes32"}],"anonymous":false},{"type":"event","name":"Transfer","inputs":[{"name":"from","type":"address","indexed":true,"internalType":"address"},{"name":"to","type":"address","indexed":true,"internalType":"address"},{"name":"amount","type":"uint256","indexed":false,"internalType":"uint256"}],"anonymous":false},{"type":"event","name":"UnstakeRequestCancelled","inputs":[{"name":"requestId","type":"bytes32","indexed":true,"internalType":"bytes32"}],"anonymous":false},{"type":"event","name":"UnstakeRequestCreated","inputs":[{"name":"requestId","type":"bytes32","indexed":true,"internalType":"bytes32"},{"name":"user","type":"address","indexed":true,"internalType":"address"},{"name":"amount","type":"uint256","indexed":false,"internalType":"uint256"},{"name":"recipient","type":"address","indexed":false,"internalType":"address"},{"name":"batchId","type":"bytes32","indexed":false,"internalType":"bytes32"}],"anonymous":false},{"type":"error","name":"AllowanceOverflow","inputs":[]},{"type":"error","name":"AllowanceUnderflow","inputs":[]},{"type":"error","name":"InsufficientAllowance","inputs":[]},{"type":"error","name":"InsufficientBalance","inputs":[]},{"type":"error","name":"InvalidPermit","inputs":[]},{"type":"error","name":"Permit2AllowanceIsFixedAtInfinity","inputs":[]},{"type":"error","name":"PermitExpired","inputs":[]},{"type":"error","name":"Reentrancy","inputs":[]},{"type":"error","name":"TotalSupplyOverflow","inputs":[]}],"bytecode":{"object":"0x60808060405234601557612e5b908161001a8239f35b5f80fdfe60806040526004361015610011575f80fd5b5f3560e01c806301e1d114146123c557806306fdde03146123aa57806307a2d13a1461238457806307fee22814612340578063095ea7b3146122a457806318160ddd1461227f5780631e2eaeaf1461226357806323b872dd14612160578063313ce5671461212157806334a44bd5146120d357806335fd631a1461207d5780633644e51514611ff557806338d52e0f14611fa35780634389a27914611f6457806352b0968814611f4a5780635308394f14611e325780635e3d5f7f14611d5f5780636e25b978146115d957806370a08231146115a75780637158da7c1461155557806372674eb6146114ad57806375d0c0dc1461145657806377f001941461121c57806378e36ac9146111ad5780637b103999146110f05780637b27b9ee146110b45780637ecebe00146110825780638297f4311461105c57806387269729146110125780638778878214610fcf578063890a8c4f14610fb55780638d5c009a14610f6c57806395d89b4114610e245780639ff217fe14610e11578063a0a8e46014610db6578063a625e72114610d65578063a6f7f5d614610d22578063a9059cbb14610c93578063aa2e334314610be1578063ac21934314610b81578063b1791c0d14610b31578063b337cf7414610996578063b5e9f48514610927578063befe3170146108c8578063c6e6f592146108a2578063cf0597ed146106ba578063d0395ddb14610671578063d505accf14610335578063dbd035ff1461029b578063dd62ed3e1461026f5763ef3066d41461024a575f80fd5b3461026b57602061026361025d3661246d565b90612d00565b604051908152f35b5f80fd5b3461026b57604060031936011261026b57602061026361028d612427565b61029561244a565b90612a17565b3461026b57602060031936011261026b5760043567ffffffffffffffff811161026b573660238201121561026b5780600401359067ffffffffffffffff821161026b578160051b90366024838301011161026b5760408051809460208252602082015201918301916020806024604086019401925b833554815201910190848382101561032c575060208091610310565b60408186030190f35b3461026b5760e060031936011261026b5761034e612427565b61035661244a565b604435916064356084359260ff8416840361026b5773ffffffffffffffffffffffffffffffffffffffff16938019156e22d473030f116ddee9f6b43ac78ba386181715610664576040515f907f50bc60b877273d55cac3903fd4818902e5fd7aa256278ee2dc6b212f256c0b09548060011c906001811693841561065a575b60208310851461062d578284526020840194849281156105f35750600114610575575b61040492500382612582565b519020908242116105685773ffffffffffffffffffffffffffffffffffffffff60405194169465383775081901600e52855f5260c06020600c20958654957f8b73c3c69bb8fe3d512ecc4cf759cc79239f7b179b0ffacaa9a75d522b39400f8252602082019586528660408301967fc89efdaa54c0f20c7adf612882df0950f5a951637e0307cdcb4c672f298b8bc688528b6060850198468a528c608087019330855260a08820602e527f6e71edae12b1b97f4d1f60370fef10105fa2faae0126114a169c64845d6126c9885252528688525260a082015220604e526042602c205f5260ff1660205260a43560405260c43560605260208060805f60015afa93853d510361055b577f8c5be1e5ebec7d5bd14f71427d1e84f3dd0314c0f7b2291e5b200ac8c7c3b9259460209401905585777f5e9f200000000000000000000000000000000000000000176040526034602c2055a3005b63ddafbaef5f526004601cfd5b631a15a3cc5f526004601cfd5b507f50bc60b877273d55cac3903fd4818902e5fd7aa256278ee2dc6b212f256c0b095f90815290917feed39591673215402fba1c9ab9753946196fe3ddcce93d9e892ab8c49fea90c15b8183106105d7575050906020610404928201016103f8565b60209193508060019154838588010152019101909183926105bf565b7fffffffffffffffffffffffffffffffffffffffffffffffffffffffffffffff001686525061040492151560051b820160200190506103f8565b7f4e487b71000000000000000000000000000000000000000000000000000000005f52602260045260245ffd5b91607f16916103d5565b633f68539a5f526004601cfd5b3461026b575f60031936011261026b57602067ffffffffffffffff7f50bc60b877273d55cac3903fd4818902e5fd7aa256278ee2dc6b212f256c0b0054606b1c16604051908152f35b3461026b575f60031936011261026b575f6fffffffffffffffffffffffffffffffff7f50bc60b877273d55cac3903fd4818902e5fd7aa256278ee2dc6b212f256c0b0154167f50bc60b877273d55cac3903fd4818902e5fd7aa256278ee2dc6b212f256c0b005461073867ffffffffffffffff82602b1c164261291d565b9261075067ffffffffffffffff83606b1c164261291d565b916107a461271061079c61078e610787610768612a61565b986805345cdf77eb68f44c549061078160ff89166129f3565b91612d9f565b9888612a04565b61ffff8560181c1690612d1b565b04809561291d565b8493868203915f88128015828513169184121617610875576060965f83136107dd575b5050505060405192835260208301526040820152f35b6127109293949550906107ff6108049261ffff6107f8612ba5565b1690612a04565b612d1b565b04808211610824575b50505061081a81836126ed565b90848080806107c7565b6127109350610833908261291d565b90602a83901c6001161561085d575061ffff6108539260081c1690612a04565b045b83808061080d565b61086f9260081c61ffff169150612a04565b04610855565b7f4e487b71000000000000000000000000000000000000000000000000000000005f52601160045260245ffd5b3461026b57602060031936011261026b5760206102636108c0612af0565b600435612d00565b3461026b57602060031936011261026b576004355f527f50bc60b877273d55cac3903fd4818902e5fd7aa256278ee2dc6b212f256c0b0b602052602073ffffffffffffffffffffffffffffffffffffffff60405f205416604051908152f35b3461026b575f60031936011261026b577f50bc60b877273d55cac3903fd4818902e5fd7aa256278ee2dc6b212f256c0b03545f527f50bc60b877273d55cac3903fd4818902e5fd7aa256278ee2dc6b212f256c0b0b602052602060ff60405f205460a81c166040519015158152f35b3461026b57602060031936011261026b5773ffffffffffffffffffffffffffffffffffffffff6109c4612427565b165f527f50bc60b877273d55cac3903fd4818902e5fd7aa256278ee2dc6b212f256c0b0e60205260405f206318fb58646004525f5260245f208019549060405191826020018115610ab3575060011c905f5b828110610a8e5750505b80825260051b8101602081019182604052604082016020845281518091526020606084019201905f5b818110610a78578484037fffffffffffffffffffffffffffffffffffffffffffffffffffffffffffffffe00186f35b8251845260209384019390920191600101610a49565b8060019183015468fbb67fda52d4bfb8bf8114150260208260051b8701015201610a16565b909180549182610ac6575b505050610a20565b9091925060019268fbb67fda52d4bfb8bf8114150290528181015480610aed575b80610abe565b68fbb67fda52d4bfb8bf81141502604084015260029081015490915080610b15575b80610ae7565b68fbb67fda52d4bfb8bf81141502606083015250600382610b0f565b3461026b575f60031936011261026b576020610263610b7360ff7f50bc60b877273d55cac3903fd4818902e5fd7aa256278ee2dc6b212f256c0b0054166129f3565b610b7b612af0565b90612b84565b3461026b57602060031936011261026b57610b9a61292a565b506004355f527f50bc60b877273d55cac3903fd4818902e5fd7aa256278ee2dc6b212f256c0b0c60205260c0610bd260405f2061295a565b610bdf6040518092612483565bf35b3461026b57602060031936011261026b576004355f9081527f50bc60b877273d55cac3903fd4818902e5fd7aa256278ee2dc6b212f256c0b0b60209081526040918290208054600390910154835173ffffffffffffffffffffffffffffffffffffffff8316815260a083811c60ff90811615159583019590955260a89390931c9093161515938301939093526fffffffffffffffffffffffffffffffff83166060830152608092831c92820192909252f35b3461026b57604060031936011261026b57610cac612427565b602435906387a211a2600c52335f526020600c208054808411610d155783900390555f526020600c20818154019055602052600c5160601c337fddf252ad1be2c89b69c2b068fc378daa952ba7f163c4a11628f55a4df523b3ef602080a3602060405160018152f35b63f4d678b85f526004601cfd5b3461026b575f60031936011261026b57602061ffff7f50bc60b877273d55cac3903fd4818902e5fd7aa256278ee2dc6b212f256c0b005460181c16604051908152f35b3461026b57602060031936011261026b57610d7e61292a565b506004355f527f50bc60b877273d55cac3903fd4818902e5fd7aa256278ee2dc6b212f256c0b0d60205260c0610bd260405f2061295a565b3461026b575f60031936011261026b57610e0d604051610dd7604082612582565b600581527f312e302e300000000000000000000000000000000000000000000000000000006020820152604051918291826123df565b0390f35b3461026b576020610263610b7b3661246d565b3461026b575f60031936011261026b576040515f7f50bc60b877273d55cac3903fd4818902e5fd7aa256278ee2dc6b212f256c0b0a548060011c90600181168015610f62575b60208310811461062d57828552908115610f205750600114610ea3575b610e0d83610e9781850382612582565b604051918291826123df565b7f50bc60b877273d55cac3903fd4818902e5fd7aa256278ee2dc6b212f256c0b0a5f9081527f3177a8165b5b3e3c62fb2630441ecd4511c2f82be57a6b1983a2e5a11e1148b9939250905b808210610f0657509091508101602001610e97610e87565b919260018160209254838588010152019101909291610eee565b7fffffffffffffffffffffffffffffffffffffffffffffffffffffffffffffff001660208086019190915291151560051b84019091019150610e979050610e87565b91607f1691610e6a565b3461026b575f60031936011261026b57602067ffffffffffffffff7f50bc60b877273d55cac3903fd4818902e5fd7aa256278ee2dc6b212f256c0b0054602b1c16604051908152f35b3461026b575f60031936011261026b576020610263612af0565b3461026b575f60031936011261026b57602061ffff7f50bc60b877273d55cac3903fd4818902e5fd7aa256278ee2dc6b212f256c0b005460081c16604051908152f35b3461026b575f60031936011261026b57602061026361105460ff7f50bc60b877273d55cac3903fd4818902e5fd7aa256278ee2dc6b212f256c0b0054166129f3565b610b7b612a61565b3461026b575f60031936011261026b576020611076612ba5565b61ffff60405191168152f35b3461026b57602060031936011261026b5761109b612427565b6338377508600c525f52602080600c2054604051908152f35b3461026b575f60031936011261026b5760207f50bc60b877273d55cac3903fd4818902e5fd7aa256278ee2dc6b212f256c0b0354604051908152f35b3461026b575f60031936011261026b5761116b60017f50bc60b877273d55cac3903fd4818902e5fd7aa256278ee2dc6b212f256c0b005460281c1615156040519061113c604083612582565b600382527f535633000000000000000000000000000000000000000000000000000000000060208301526128db565b602073ffffffffffffffffffffffffffffffffffffffff7f50bc60b877273d55cac3903fd4818902e5fd7aa256278ee2dc6b212f256c0b045416604051908152f35b3461026b575f60031936011261026b577f50bc60b877273d55cac3903fd4818902e5fd7aa256278ee2dc6b212f256c0b03545f527f50bc60b877273d55cac3903fd4818902e5fd7aa256278ee2dc6b212f256c0b0b602052602060ff60405f205460a01c166040519015158152f35b3461026b575f60031936011261026b576112ed67ffffffffffffffff7f50bc60b877273d55cac3903fd4818902e5fd7aa256278ee2dc6b212f256c0b0054606b1c1662015180620afa6c91040162023ab1810661016d62023ab082146105b48304618eac8404840103030490606482048260021c8361016d0201039003916001609960028560050201049361030161f4ff7f030405060708090a0b0c01020000000000000000000000000000000000000000871a960201600b1c9003019161019062023ab160038610930402010192565b7e1f1c1f1e1f1e1f1f1e1f1e1f00000000000000000000000000000000000000821a600283146019850615600c0260030185161516011461141d5760028101809111610875575b8082600c82116113ea575b602061026385857e1f1c1f1e1f1e1f1f1e1f1e1f00000000000000000000000000000000000000811a600282146019840615600c0260030184161516015b916201517f9262023ab161019062015180947ffffffffffffffffffffffffffffffffffffffffffffffffffffffffffff50593946003821090039382850690610301600c60096064850495010661f4ff0201600b1c019061016d8160021c91020101039204020101020190565b5f19820193509150821161087557611407600c91828404906126ed565b910660018101809111610875578161026361133f565b6003810180911115611334577f4e487b71000000000000000000000000000000000000000000000000000000005f52601160045260245ffd5b3461026b575f60031936011261026b57610e0d604051611477604082612582565b600d81527f6b5374616b696e675661756c74000000000000000000000000000000000000006020820152604051918291826123df565b3461026b575f60031936011261026b577f50bc60b877273d55cac3903fd4818902e5fd7aa256278ee2dc6b212f256c0b03545f8181527f50bc60b877273d55cac3903fd4818902e5fd7aa256278ee2dc6b212f256c0b0b602090815260409182902054825193845273ffffffffffffffffffffffffffffffffffffffff81169184019190915260ff60a082901c811615159284019290925260a81c1615156060820152608090f35b3461026b575f60031936011261026b57602073ffffffffffffffffffffffffffffffffffffffff7f50bc60b877273d55cac3903fd4818902e5fd7aa256278ee2dc6b212f256c0b065416604051908152f35b3461026b57602060031936011261026b576115c0612427565b6387a211a2600c525f52602080600c2054604051908152f35b3461026b575f60031936011261026b576040516104806115f98183612582565b602382527fffffffffffffffffffffffffffffffffffffffffffffffffffffffffffffffe0602083019101368237815115611d32577f7b103999000000000000000000000000000000000000000000000000000000008152815160011015611d32577f38d52e0f000000000000000000000000000000000000000000000000000000006040830152815160021015611d32577f7158da7c000000000000000000000000000000000000000000000000000000006060830152815160031015611d32577fcf0597ed000000000000000000000000000000000000000000000000000000006080830152815160041015611d32577f8d5c009a0000000000000000000000000000000000000000000000000000000060a0830152815160051015611d32577fd0395ddb0000000000000000000000000000000000000000000000000000000060c0830152815160061015611d32577f8297f4310000000000000000000000000000000000000000000000000000000060e0830152815160071015611d32577f8778878200000000000000000000000000000000000000000000000000000000610100830152815160081015611d32577fa6f7f5d600000000000000000000000000000000000000000000000000000000610120830152815160091015611d32577f34a44bd5000000000000000000000000000000000000000000000000000000006101408301528151600a1015611d32577f77f00194000000000000000000000000000000000000000000000000000000006101608301528151600b1015611d32577f52b09688000000000000000000000000000000000000000000000000000000006101808301528151600c1015611d32577f78e36ac9000000000000000000000000000000000000000000000000000000006101a08301528151600d1015611d32577fb5e9f485000000000000000000000000000000000000000000000000000000006101c08301528151600e1015611d32577f72674eb6000000000000000000000000000000000000000000000000000000006101e08301528151600f1015611d32577fbefe317000000000000000000000000000000000000000000000000000000000610200830152815160101015611d32577f5e3d5f7f00000000000000000000000000000000000000000000000000000000610220830152815160111015611d32577f8726972900000000000000000000000000000000000000000000000000000000610240830152815160121015611d32577fb1791c0d00000000000000000000000000000000000000000000000000000000610260830152815160131015611d32577f01e1d11400000000000000000000000000000000000000000000000000000000610280830152815160141015611d32577f890a8c4f000000000000000000000000000000000000000000000000000000006102a0830152815160151015611d32577f7b27b9ee000000000000000000000000000000000000000000000000000000006102c0830152815160161015611d32577f5308394f000000000000000000000000000000000000000000000000000000006102e0830152815160171015611d32577fc6e6f59200000000000000000000000000000000000000000000000000000000610300830152815160181015611d32577f07a2d13a00000000000000000000000000000000000000000000000000000000610320830152815160191015611d32577f75d0c0dc000000000000000000000000000000000000000000000000000000006103408301528151601a1015611d32577fa0a8e460000000000000000000000000000000000000000000000000000000006103608301528151601b1015611d32577fb337cf74000000000000000000000000000000000000000000000000000000006103808301528151601c1015611d32577fac219343000000000000000000000000000000000000000000000000000000006103a08301528151601d1015611d32577fa625e721000000000000000000000000000000000000000000000000000000006103c08301528151601e1015611d32577faa2e3343000000000000000000000000000000000000000000000000000000006103e08301528151601f1015611d32577f4389a27900000000000000000000000000000000000000000000000000000000610400830152815160201015611d32577fef3066d400000000000000000000000000000000000000000000000000000000610420830152815160211015611d32577f9ff217fe00000000000000000000000000000000000000000000000000000000610440830152815160221015611d3257907f07fee22800000000000000000000000000000000000000000000000000000000610460820152604051918291602083019060208452518091526040830191905f5b818110611cf7575050500390f35b82517fffffffff0000000000000000000000000000000000000000000000000000000016845285945060209384019390920191600101611ce9565b7f4e487b71000000000000000000000000000000000000000000000000000000005f52603260045260245ffd5b3461026b57602060031936011261026b57600435805f527f50bc60b877273d55cac3903fd4818902e5fd7aa256278ee2dc6b212f256c0b0b602052611de760ff60405f205460a81c161560405190611db8604083612582565b600382527f535638000000000000000000000000000000000000000000000000000000000060208301526128db565b5f527f50bc60b877273d55cac3903fd4818902e5fd7aa256278ee2dc6b212f256c0b0b602052602073ffffffffffffffffffffffffffffffffffffffff60405f205416604051908152f35b3461026b575f60031936011261026b5760207f50bc60b877273d55cac3903fd4818902e5fd7aa256278ee2dc6b212f256c0b0354805f527f50bc60b877273d55cac3903fd4818902e5fd7aa256278ee2dc6b212f256c0b0b8252611ed860ff60405f205460a01c161560405190611eaa604083612582565b600382527f5356370000000000000000000000000000000000000000000000000000000000858301526128db565b805f527f50bc60b877273d55cac3903fd4818902e5fd7aa256278ee2dc6b212f256c0b0b825261026360ff60405f205460a81c161560405190611f1c604083612582565b600382527f5356380000000000000000000000000000000000000000000000000000000000858301526128db565b3461026b575f60031936011261026b5760206102636126fa565b3461026b575f60031936011261026b5760207f50bc60b877273d55cac3903fd4818902e5fd7aa256278ee2dc6b212f256c0b015460801c604051908152f35b3461026b575f60031936011261026b57602073ffffffffffffffffffffffffffffffffffffffff7f50bc60b877273d55cac3903fd4818902e5fd7aa256278ee2dc6b212f256c0b075416604051908152f35b3461026b575f60031936011261026b57602060a06120116125c3565b828151910120604051907f8b73c3c69bb8fe3d512ecc4cf759cc79239f7b179b0ffacaa9a75d522b39400f8252838201527fc89efdaa54c0f20c7adf612882df0950f5a951637e0307cdcb4c672f298b8bc6604082015246606082015230608082015220604051908152f35b3461026b57604060031936011261026b576024356004356040519160408360208152826020820152019060051b8301916001602060408501935b8354815201910190848382101561032c575060206001916120b7565b3461026b575f60031936011261026b5760206fffffffffffffffffffffffffffffffff7f50bc60b877273d55cac3903fd4818902e5fd7aa256278ee2dc6b212f256c0b015416604051908152f35b3461026b575f60031936011261026b57602060ff7f50bc60b877273d55cac3903fd4818902e5fd7aa256278ee2dc6b212f256c0b005416604051908152f35b3461026b57606060031936011261026b57612179612427565b61218161244a565b604435908260601b6e22d473030f116ddee9f6b43ac78ba33303612219575b6387a211a217600c526020600c208054808411610d155783900390555f526020600c2081815401905560205273ffffffffffffffffffffffffffffffffffffffff600c5160601c91167fddf252ad1be2c89b69c2b068fc378daa952ba7f163c4a11628f55a4df523b3ef602080a3602060405160018152f35b33602052637f5e9f208117600c526034600c2090815491821961223f575b5090506121a0565b82851161225657846387a211a29303905585612237565b6313be252b5f526004601cfd5b3461026b57602060031936011261026b57600435545f5260205ff35b3461026b575f60031936011261026b5760206805345cdf77eb68f44c54604051908152f35b3461026b57604060031936011261026b576122bd612427565b602435908119156e22d473030f116ddee9f6b43ac78ba373ffffffffffffffffffffffffffffffffffffffff831618171561066457602052637f5e9f20600c52335f52806034600c20555f52602c5160601c337f8c5be1e5ebec7d5bd14f71427d1e84f3dd0314c0f7b2291e5b200ac8c7c3b92560205fa3602060405160018152f35b3461026b575f60031936011261026b57602060017f50bc60b877273d55cac3903fd4818902e5fd7aa256278ee2dc6b212f256c0b0054602a1c161515604051908152f35b3461026b57602060031936011261026b5760206102636123a2612af0565b600435612b84565b3461026b575f60031936011261026b57610e0d610e976125c3565b3461026b575f60031936011261026b576020610263612a61565b7fffffffffffffffffffffffffffffffffffffffffffffffffffffffffffffffe0601f602060409481855280519182918282880152018686015e5f8582860101520116010190565b6004359073ffffffffffffffffffffffffffffffffffffffff8216820361026b57565b6024359073ffffffffffffffffffffffffffffffffffffffff8216820361026b57565b600319604091011261026b576004359060243590565b60a09073ffffffffffffffffffffffffffffffffffffffff81511683526fffffffffffffffffffffffffffffffff602082015116602084015273ffffffffffffffffffffffffffffffffffffffff60408201511660408401526060810151606084015267ffffffffffffffff6080820151166080840152015190600382101561250c5760a00152565b7f4e487b71000000000000000000000000000000000000000000000000000000005f52602160045260245ffd5b60c0810190811067ffffffffffffffff82111761255557604052565b7f4e487b71000000000000000000000000000000000000000000000000000000005f52604160045260245ffd5b90601f7fffffffffffffffffffffffffffffffffffffffffffffffffffffffffffffffe0910116810190811067ffffffffffffffff82111761255557604052565b604051905f7f50bc60b877273d55cac3903fd4818902e5fd7aa256278ee2dc6b212f256c0b09548060011c91600182169182156126e3575b60208410831461062d5783865285929081156126a65750600114612628575b61262692500383612582565b565b507f50bc60b877273d55cac3903fd4818902e5fd7aa256278ee2dc6b212f256c0b095f90815290917feed39591673215402fba1c9ab9753946196fe3ddcce93d9e892ab8c49fea90c15b81831061268a5750509060206126269282010161261a565b6020919350806001915483858901015201910190918492612672565b602092506126269491507fffffffffffffffffffffffffffffffffffffffffffffffffffffffffffffff001682840152151560051b82010161261a565b92607f16926125fb565b9190820180921161087557565b6127bb67ffffffffffffffff7f50bc60b877273d55cac3903fd4818902e5fd7aa256278ee2dc6b212f256c0b0054602b1c1662015180620afa6c91040162023ab1810661016d62023ab082146105b48304618eac8404840103030490606482048260021c8361016d0201039003916001609960028560050201049361030161f4ff7f030405060708090a0b0c01020000000000000000000000000000000000000000871a960201600b1c9003019161019062023ab160038610930402010192565b7e1f1c1f1e1f1e1f1f1e1f1e1f00000000000000000000000000000000000000821a600283146019850615600c02600301851615160180910361286a5750600181018091116108755780600c839211612852575b61284f92507e1f1c1f1e1f1e1f1f1e1f1e1f00000000000000000000000000000000000000811a600282146019840615600c02600301841615160161137d565b90565b5050600181018091116108755761284f90600161280f565b9061284f926201517f9262023ab161019062015180947ffffffffffffffffffffffffffffffffffffffffffffffffffffffffffff50593946003821090039382850690610301600c60096064850495010661f4ff0201600b1c019061016d8160021c91020101039204020101020190565b156128e35750565b612919906040519182917f08c379a0000000000000000000000000000000000000000000000000000000008352600483016123df565b0390fd5b9190820391821161087557565b6040519061293782612539565b5f60a0838281528260208201528260408201528260608201528260808201520152565b9060405161296781612539565b60ff6004829473ffffffffffffffffffffffffffffffffffffffff81541684526fffffffffffffffffffffffffffffffff600182015416602085015273ffffffffffffffffffffffffffffffffffffffff600282015416604085015260038101546060850152015467ffffffffffffffff8116608084015260401c1690600382101561250c5760a00152565b60ff16604d811161087557600a0a90565b8181029291811591840414171561087557565b906e22d473030f116ddee9f6b43ac78ba373ffffffffffffffffffffffffffffffffffffffff821614612a5a57602052637f5e9f20600c525f526034600c205490565b50505f1990565b61284f6020806024601073ffffffffffffffffffffffffffffffffffffffff7f50bc60b877273d55cac3903fd4818902e5fd7aa256278ee2dc6b212f256c0b075416306014526f70a082310000000000000000000000005f525afa601f3d1116602051027f50bc60b877273d55cac3903fd4818902e5fd7aa256278ee2dc6b212f256c0b015460801c9061291d565b612af8612a61565b604051907fcf0597ed000000000000000000000000000000000000000000000000000000008252606082600481305afa908115612b79575f91612b40575b61284f925061291d565b90506060823d606011612b71575b81612b5b60609383612582565b8101031261026b57604061284f92015190612b36565b3d9150612b4e565b6040513d5f823e3d90fd5b906805345cdf77eb68f44c54908115612ba05761284f92612d9f565b505090565b612c1060017f50bc60b877273d55cac3903fd4818902e5fd7aa256278ee2dc6b212f256c0b005460281c16151560405190612be1604083612582565b600382527f425635000000000000000000000000000000000000000000000000000000000060208301526128db565b73ffffffffffffffffffffffffffffffffffffffff7f50bc60b877273d55cac3903fd4818902e5fd7aa256278ee2dc6b212f256c0b045416602073ffffffffffffffffffffffffffffffffffffffff7f50bc60b877273d55cac3903fd4818902e5fd7aa256278ee2dc6b212f256c0b0654166024604051809481937f39b0f2ca00000000000000000000000000000000000000000000000000000000835260048301525afa908115612b79575f91612cc6575090565b90506020813d602011612cf8575b81612ce160209383612582565b8101031261026b575161ffff8116810361026b5790565b3d9150612cd4565b906805345cdf77eb68f44c548015612ba05761284f92612d9f565b818102916301e1855881838504148315170215612d3e5750506301e18558900490565b805f196301e1855892840984811085019003920990806301e185581115612d9257828211900360fd1b910360031c177f5818d3326caead725855951d54e4399ccd4bcf973323e6dcb93283828fae4a030290565b63ae47f7025f526004601cfd5b81810292918115828504821417830215612dba575050900490565b805f198492840985811086019003920990825f0383169281811115612d925783900480600302600218808202600203028082026002030280820260020302808202600203028082026002030280910260020302936001848483030494805f030401921190030217029056fea2646970667358221220515bbbd5de906879b73d26ef368063cf2c1413b75fff330dc16982358d03603d64736f6c634300081e0033","linkReferences":{}},"methodIdentifiers":{"DOMAIN_SEPARATOR()":"3644e515","allowance(address,address)":"dd62ed3e","approve(address,uint256)":"095ea7b3","asset()":"38d52e0f","balanceOf(address)":"70a08231","computeLastBatchFees()":"cf0597ed","contractName()":"75d0c0dc","contractVersion()":"a0a8e460","convertToAssets(uint256)":"07a2d13a","convertToAssetsWithTotals(uint256,uint256)":"9ff217fe","convertToShares(uint256)":"c6e6f592","convertToSharesWithTotals(uint256,uint256)":"ef3066d4","decimals()":"313ce567","extsload(bytes32)":"1e2eaeaf","extsload(bytes32,uint256)":"35fd631a","extsload(bytes32[])":"dbd035ff","getBatchId()":"7b27b9ee","getBatchIdInfo(bytes32)":"aa2e3343","getBatchReceiver(bytes32)":"befe3170","getCurrentBatchInfo()":"72674eb6","getSafeBatchId()":"5308394f","getSafeBatchReceiver(bytes32)":"5e3d5f7f","getStakeRequest(bytes32)":"ac219343","getTotalPendingStake()":"4389a279","getUnstakeRequest(bytes32)":"a625e721","getUserRequests(address)":"b337cf74","hurdleRate()":"8297f431","isBatchClosed()":"78e36ac9","isBatchSettled()":"b5e9f485","isHardHurdleRate()":"07fee228","lastFeesChargedManagement()":"8d5c009a","lastFeesChargedPerformance()":"d0395ddb","managementFee()":"a6f7f5d6","name()":"06fdde03","netSharePrice()":"b1791c0d","nextManagementFeeTimestamp()":"52b09688","nextPerformanceFeeTimestamp()":"77f00194","nonces(address)":"7ecebe00","performanceFee()":"87788782","permit(address,address,uint256,uint256,uint8,bytes32,bytes32)":"d505accf","registry()":"7b103999","selectors()":"6e25b978","sharePrice()":"87269729","sharePriceWatermark()":"34a44bd5","symbol()":"95d89b41","totalAssets()":"01e1d114","totalNetAssets()":"890a8c4f","totalSupply()":"18160ddd","transfer(address,uint256)":"a9059cbb","transferFrom(address,address,uint256)":"23b872dd","underlyingAsset()":"7158da7c"},"storageLayout":{"storage":[],"types":{}},"id":66}