{"abi":[{"type":"function","name":"DOMAIN_SEPARATOR","inputs":[],"outputs":[{"name":"result","type":"bytes32","internalType":"bytes32"}],"stateMutability":"view"},{"type":"function","name":"allowance","inputs":[{"name":"owner","type":"address","internalType":"address"},{"name":"spender","type":"address","internalType":"address"}],"outputs":[{"name":"result","type":"uint256","internalType":"uint256"}],"stateMutability":"view"},{"type":"function","name":"approve","inputs":[{"name":"spender","type":"address","internalType":"address"},{"name":"amount","type":"uint256","internalType":"uint256"}],"outputs":[{"name":"","type":"bool","internalType":"bool"}],"stateMutability":"nonpayable"},{"type":"function","name":"asset","inputs":[],"outputs":[{"name":"","type":"address","internalType":"address"}],"stateMutability":"view"},{"type":"function","name":"balanceOf","inputs":[{"name":"owner","type":"address","internalType":"address"}],"outputs":[{"name":"result","type":"uint256","internalType":"uint256"}],"stateMutability":"view"},{"type":"function","name":"computeLastBatchFees","inputs":[],"outputs":[{"name":"managementFees","type":"uint256","internalType":"uint256"},{"name":"performanceFees","type":"uint256","internalType":"uint256"},{"name":"totalFees","type":"uint256","internalType":"uint256"}],"stateMutability":"view"},{"type":"function","name":"contractName","inputs":[],"outputs":[{"name":"","type":"string","internalType":"string"}],"stateMutability":"pure"},{"type":"function","name":"contractVersion","inputs":[],"outputs":[{"name":"","type":"string","internalType":"string"}],"stateMutability":"pure"},{"type":"function","name":"convertToAssets","inputs":[{"name":"assets","type":"uint256","internalType":"uint256"}],"outputs":[{"name":"","type":"uint256","internalType":"uint256"}],"stateMutability":"view"},{"type":"function","name":"convertToAssetsWithTotals","inputs":[{"name":"assets","type":"uint256","internalType":"uint256"},{"name":"totalAssets_","type":"uint256","internalType":"uint256"}],"outputs":[{"name":"","type":"uint256","internalType":"uint256"}],"stateMutability":"view"},{"type":"function","name":"convertToShares","inputs":[{"name":"shares","type":"uint256","internalType":"uint256"}],"outputs":[{"name":"","type":"uint256","internalType":"uint256"}],"stateMutability":"view"},{"type":"function","name":"convertToSharesWithTotals","inputs":[{"name":"shares","type":"uint256","internalType":"uint256"},{"name":"totalAssets_","type":"uint256","internalType":"uint256"}],"outputs":[{"name":"","type":"uint256","internalType":"uint256"}],"stateMutability":"view"},{"type":"function","name":"decimals","inputs":[],"outputs":[{"name":"","type":"uint8","internalType":"uint8"}],"stateMutability":"view"},{"type":"function","name":"extsload","inputs":[{"name":"slot","type":"bytes32","internalType":"bytes32"}],"outputs":[{"name":"","type":"bytes32","internalType":"bytes32"}],"stateMutability":"view"},{"type":"function","name":"extsload","inputs":[{"name":"startSlot","type":"bytes32","internalType":"bytes32"},{"name":"nSlots","type":"uint256","internalType":"uint256"}],"outputs":[{"name":"","type":"bytes32[]","internalType":"bytes32[]"}],"stateMutability":"view"},{"type":"function","name":"extsload","inputs":[{"name":"slots","type":"bytes32[]","internalType":"bytes32[]"}],"outputs":[{"name":"","type":"bytes32[]","internalType":"bytes32[]"}],"stateMutability":"view"},{"type":"function","name":"getBatchId","inputs":[],"outputs":[{"name":"","type":"bytes32","internalType":"bytes32"}],"stateMutability":"view"},{"type":"function","name":"getBatchIdInfo","inputs":[{"name":"batchId","type":"bytes32","internalType":"bytes32"}],"outputs":[{"name":"batchReceiver","type":"address","internalType":"address"},{"name":"isClosed_","type":"bool","internalType":"bool"},{"name":"isSettled","type":"bool","internalType":"bool"},{"name":"sharePrice_","type":"uint256","internalType":"uint256"},{"name":"netSharePrice_","type":"uint256","internalType":"uint256"}],"stateMutability":"view"},{"type":"function","name":"getBatchReceiver","inputs":[{"name":"batchId","type":"bytes32","internalType":"bytes32"}],"outputs":[{"name":"","type":"address","internalType":"address"}],"stateMutability":"view"},{"type":"function","name":"getCurrentBatchInfo","inputs":[],"outputs":[{"name":"batchId","type":"bytes32","internalType":"bytes32"},{"name":"batchReceiver","type":"address","internalType":"address"},{"name":"isClosed","type":"bool","internalType":"bool"},{"name":"isSettled","type":"bool","internalType":"bool"}],"stateMutability":"view"},{"type":"function","name":"getSafeBatchId","inputs":[],"outputs":[{"name":"","type":"bytes32","internalType":"bytes32"}],"stateMutability":"view"},{"type":"function","name":"getSafeBatchReceiver","inputs":[{"name":"batchId","type":"bytes32","internalType":"bytes32"}],"outputs":[{"name":"","type":"address","internalType":"address"}],"stateMutability":"view"},{"type":"function","name":"getStakeRequest","inputs":[{"name":"requestId","type":"bytes32","internalType":"bytes32"}],"outputs":[{"name":"stakeRequest","type":"tuple","internalType":"struct BaseVaultTypes.StakeRequest","components":[{"name":"user","type":"address","internalType":"address"},{"name":"kTokenAmount","type":"uint128","internalType":"uint128"},{"name":"recipient","type":"address","internalType":"address"},{"name":"batchId","type":"bytes32","internalType":"bytes32"},{"name":"requestTimestamp","type":"uint64","internalType":"uint64"},{"name":"status","type":"uint8","internalType":"enum BaseVaultTypes.RequestStatus"}]}],"stateMutability":"view"},{"type":"function","name":"getTotalPendingStake","inputs":[],"outputs":[{"name":"","type":"uint256","internalType":"uint256"}],"stateMutability":"view"},{"type":"function","name":"getUnstakeRequest","inputs":[{"name":"requestId","type":"bytes32","internalType":"bytes32"}],"outputs":[{"name":"unstakeRequest","type":"tuple","internalType":"struct BaseVaultTypes.UnstakeRequest","components":[{"name":"user","type":"address","internalType":"address"},{"name":"stkTokenAmount","type":"uint128","internalType":"uint128"},{"name":"recipient","type":"address","internalType":"address"},{"name":"batchId","type":"bytes32","internalType":"bytes32"},{"name":"requestTimestamp","type":"uint64","internalType":"uint64"},{"name":"status","type":"uint8","internalType":"enum BaseVaultTypes.RequestStatus"}]}],"stateMutability":"view"},{"type":"function","name":"getUserRequests","inputs":[{"name":"user","type":"address","internalType":"address"}],"outputs":[{"name":"requestIds","type":"bytes32[]","internalType":"bytes32[]"}],"stateMutability":"view"},{"type":"function","name":"hurdleRate","inputs":[],"outputs":[{"name":"","type":"uint16","internalType":"uint16"}],"stateMutability":"view"},{"type":"function","name":"isBatchClosed","inputs":[],"outputs":[{"name":"","type":"bool","internalType":"bool"}],"stateMutability":"view"},{"type":"function","name":"isBatchSettled","inputs":[],"outputs":[{"name":"","type":"bool","internalType":"bool"}],"stateMutability":"view"},{"type":"function","name":"isClosed","inputs":[{"name":"batchId_","type":"bytes32","internalType":"bytes32"}],"outputs":[{"name":"isClosed_","type":"bool","internalType":"bool"}],"stateMutability":"view"},{"type":"function","name":"isHardHurdleRate","inputs":[],"outputs":[{"name":"","type":"bool","internalType":"bool"}],"stateMutability":"view"},{"type":"function","name":"lastFeesChargedManagement","inputs":[],"outputs":[{"name":"","type":"uint256","internalType":"uint256"}],"stateMutability":"view"},{"type":"function","name":"lastFeesChargedPerformance","inputs":[],"outputs":[{"name":"","type":"uint256","internalType":"uint256"}],"stateMutability":"view"},{"type":"function","name":"managementFee","inputs":[],"outputs":[{"name":"","type":"uint16","internalType":"uint16"}],"stateMutability":"view"},{"type":"function","name":"name","inputs":[],"outputs":[{"name":"","type":"string","internalType":"string"}],"stateMutability":"view"},{"type":"function","name":"netSharePrice","inputs":[],"outputs":[{"name":"","type":"uint256","internalType":"uint256"}],"stateMutability":"view"},{"type":"function","name":"nextManagementFeeTimestamp","inputs":[],"outputs":[{"name":"","type":"uint256","internalType":"uint256"}],"stateMutability":"view"},{"type":"function","name":"nextPerformanceFeeTimestamp","inputs":[],"outputs":[{"name":"","type":"uint256","internalType":"uint256"}],"stateMutability":"view"},{"type":"function","name":"nonces","inputs":[{"name":"owner","type":"address","internalType":"address"}],"outputs":[{"name":"result","type":"uint256","internalType":"uint256"}],"stateMutability":"view"},{"type":"function","name":"performanceFee","inputs":[],"outputs":[{"name":"","type":"uint16","internalType":"uint16"}],"stateMutability":"view"},{"type":"function","name":"permit","inputs":[{"name":"owner","type":"address","internalType":"address"},{"name":"spender","type":"address","internalType":"address"},{"name":"value","type":"uint256","internalType":"uint256"},{"name":"deadline","type":"uint256","internalType":"uint256"},{"name":"v","type":"uint8","internalType":"uint8"},{"name":"r","type":"bytes32","internalType":"bytes32"},{"name":"s","type":"bytes32","internalType":"bytes32"}],"outputs":[],"stateMutability":"nonpayable"},{"type":"function","name":"registry","inputs":[],"outputs":[{"name":"","type":"address","internalType":"address"}],"stateMutability":"view"},{"type":"function","name":"selectors","inputs":[],"outputs":[{"name":"","type":"bytes4[]","internalType":"bytes4[]"}],"stateMutability":"pure"},{"type":"function","name":"sharePrice","inputs":[],"outputs":[{"name":"","type":"uint256","internalType":"uint256"}],"stateMutability":"view"},{"type":"function","name":"sharePriceWatermark","inputs":[],"outputs":[{"name":"","type":"uint256","internalType":"uint256"}],"stateMutability":"view"},{"type":"function","name":"symbol","inputs":[],"outputs":[{"name":"","type":"string","internalType":"string"}],"stateMutability":"view"},{"type":"function","name":"totalAssets","inputs":[],"outputs":[{"name":"","type":"uint256","internalType":"uint256"}],"stateMutability":"view"},{"type":"function","name":"totalNetAssets","inputs":[],"outputs":[{"name":"","type":"uint256","internalType":"uint256"}],"stateMutability":"view"},{"type":"function","name":"totalSupply","inputs":[],"outputs":[{"name":"result","type":"uint256","internalType":"uint256"}],"stateMutability":"view"},{"type":"function","name":"transfer","inputs":[{"name":"to","type":"address","internalType":"address"},{"name":"amount","type":"uint256","internalType":"uint256"}],"outputs":[{"name":"","type":"bool","internalType":"bool"}],"stateMutability":"nonpayable"},{"type":"function","name":"transferFrom","inputs":[{"name":"from","type":"address","internalType":"address"},{"name":"to","type":"address","internalType":"address"},{"name":"amount","type":"uint256","internalType":"uint256"}],"outputs":[{"name":"","type":"bool","internalType":"bool"}],"stateMutability":"nonpayable"},{"type":"function","name":"underlyingAsset","inputs":[],"outputs":[{"name":"","type":"address","internalType":"address"}],"stateMutability":"view"},{"type":"event","name":"Approval","inputs":[{"name":"owner","type":"address","indexed":true,"internalType":"address"},{"name":"spender","type":"address","indexed":true,"internalType":"address"},{"name":"amount","type":"uint256","indexed":false,"internalType":"uint256"}],"anonymous":false},{"type":"event","name":"Initialized","inputs":[{"name":"registry","type":"address","indexed":false,"internalType":"address"},{"name":"name","type":"string","indexed":false,"internalType":"string"},{"name":"symbol","type":"string","indexed":false,"internalType":"string"},{"name":"decimals","type":"uint8","indexed":false,"internalType":"uint8"},{"name":"asset","type":"address","indexed":false,"internalType":"address"}],"anonymous":false},{"type":"event","name":"Paused","inputs":[{"name":"paused","type":"bool","indexed":false,"internalType":"bool"}],"anonymous":false},{"type":"event","name":"StakeRequestCancelled","inputs":[{"name":"requestId","type":"bytes32","indexed":true,"internalType":"bytes32"}],"anonymous":false},{"type":"event","name":"StakeRequestCreated","inputs":[{"name":"requestId","type":"bytes32","indexed":true,"internalType":"bytes32"},{"name":"user","type":"address","indexed":true,"internalType":"address"},{"name":"kToken","type":"address","indexed":true,"internalType":"address"},{"name":"amount","type":"uint256","indexed":false,"internalType":"uint256"},{"name":"recipient","type":"address","indexed":false,"internalType":"address"},{"name":"batchId","type":"bytes32","indexed":false,"internalType":"bytes32"}],"anonymous":false},{"type":"event","name":"StakeRequestRedeemed","inputs":[{"name":"requestId","type":"bytes32","indexed":true,"internalType":"bytes32"}],"anonymous":false},{"type":"event","name":"Transfer","inputs":[{"name":"from","type":"address","indexed":true,"internalType":"address"},{"name":"to","type":"address","indexed":true,"internalType":"address"},{"name":"amount","type":"uint256","indexed":false,"internalType":"uint256"}],"anonymous":false},{"type":"event","name":"UnstakeRequestCancelled","inputs":[{"name":"requestId","type":"bytes32","indexed":true,"internalType":"bytes32"}],"anonymous":false},{"type":"event","name":"UnstakeRequestCreated","inputs":[{"name":"requestId","type":"bytes32","indexed":true,"internalType":"bytes32"},{"name":"user","type":"address","indexed":true,"internalType":"address"},{"name":"amount","type":"uint256","indexed":false,"internalType":"uint256"},{"name":"recipient","type":"address","indexed":false,"internalType":"address"},{"name":"batchId","type":"bytes32","indexed":false,"internalType":"bytes32"}],"anonymous":false},{"type":"error","name":"AllowanceOverflow","inputs":[]},{"type":"error","name":"AllowanceUnderflow","inputs":[]},{"type":"error","name":"InsufficientAllowance","inputs":[]},{"type":"error","name":"InsufficientBalance","inputs":[]},{"type":"error","name":"InvalidPermit","inputs":[]},{"type":"error","name":"Permit2AllowanceIsFixedAtInfinity","inputs":[]},{"type":"error","name":"PermitExpired","inputs":[]},{"type":"error","name":"Reentrancy","inputs":[]},{"type":"error","name":"TotalSupplyOverflow","inputs":[]}],"bytecode":{"object":"0x60808060405234601557612dcb908161001a8239f35b5f80fdfe60806040526004361015610011575f80fd5b5f3560e01c806301e1d1141461233557806306fdde031461231a57806307a2d13a146122f457806307fee228146122b0578063095ea7b31461221457806318160ddd146121ef5780631e2eaeaf146121d357806323b872dd146120d0578063313ce5671461209157806334a44bd51461204357806335fd631a14611fed5780633644e51514611f6557806338d52e0f14611f1357806340aa1f4014611ec25780634389a27914611e8357806352b0968814611e695780635308394f14611d515780635e3d5f7f14611c7e5780636e25b978146114c757806370a08231146114955780637158da7c1461144357806372674eb61461139b57806375d0c0dc1461134457806377f001941461110a57806378e36ac91461109b5780637b10399914610fde5780637b27b9ee14610fa25780637ecebe0014610f705780638297f43114610f4a5780638726972914610f005780638778878214610ebd578063890a8c4f14610ea35780638d5c009a14610e5a57806395d89b4114610ce55780639ff217fe14610cd2578063a0a8e46014610c77578063a625e72114610c26578063a6f7f5d614610be3578063a9059cbb14610b54578063aa2e334314610aa2578063ac21934314610a42578063b1791c0d146109f2578063b337cf7414610857578063b5e9f485146107e8578063befe317014610789578063c6e6f59214610763578063cf0597ed1461057b578063d0395ddb14610532578063d505accf14610340578063dbd035ff146102a6578063dd62ed3e1461027a5763ef3066d414610255575f80fd5b3461027657602061026e610268366123dd565b90612c70565b604051908152f35b5f80fd5b3461027657604060031936011261027657602061026e610298612397565b6102a06123ba565b90612987565b346102765760206003193601126102765760043567ffffffffffffffff811161027657366023820112156102765780600401359067ffffffffffffffff8211610276578160051b9036602483830101116102765760408051809460208252602082015201918301916020806024604086019401925b833554815201910190848382101561033757506020809161031b565b60408186030190f35b346102765760e060031936011261027657610359612397565b6103616123ba565b604435916064356084359260ff841684036102765773ffffffffffffffffffffffffffffffffffffffff16938019156e22d473030f116ddee9f6b43ac78ba386181715610525576103b0612533565b60208151910120908242116105185773ffffffffffffffffffffffffffffffffffffffff60405194169465383775081901600e52855f5260c06020600c20958654957f8b73c3c69bb8fe3d512ecc4cf759cc79239f7b179b0ffacaa9a75d522b39400f8252602082019586528660408301967fc89efdaa54c0f20c7adf612882df0950f5a951637e0307cdcb4c672f298b8bc688528b6060850198468a528c608087019330855260a08820602e527f6e71edae12b1b97f4d1f60370fef10105fa2faae0126114a169c64845d6126c9885252528688525260a082015220604e526042602c205f5260ff1660205260a43560405260c43560605260208060805f60015afa93853d510361050b577f8c5be1e5ebec7d5bd14f71427d1e84f3dd0314c0f7b2291e5b200ac8c7c3b9259460209401905585777f5e9f200000000000000000000000000000000000000000176040526034602c2055a3005b63ddafbaef5f526004601cfd5b631a15a3cc5f526004601cfd5b633f68539a5f526004601cfd5b34610276575f60031936011261027657602067ffffffffffffffff7f50bc60b877273d55cac3903fd4818902e5fd7aa256278ee2dc6b212f256c0b0054606b1c16604051908152f35b34610276575f600319360112610276575f6fffffffffffffffffffffffffffffffff7f50bc60b877273d55cac3903fd4818902e5fd7aa256278ee2dc6b212f256c0b0154167f50bc60b877273d55cac3903fd4818902e5fd7aa256278ee2dc6b212f256c0b00546105f967ffffffffffffffff82602b1c164261288d565b9261061167ffffffffffffffff83606b1c164261288d565b9161066561271061065d61064f6106486106296129d1565b986805345cdf77eb68f44c549061064260ff8916612963565b91612d0f565b9888612974565b61ffff8560181c1690612c8b565b04809561288d565b8493868203915f88128015828513169184121617610736576060965f831361069e575b5050505060405192835260208301526040820152f35b6127109293949550906106c06106c59261ffff6106b9612b15565b1690612974565b612c8b565b048082116106e5575b5050506106db818361265d565b9084808080610688565b61271093506106f4908261288d565b90602a83901c6001161561071e575061ffff6107149260081c1690612974565b045b8380806106ce565b6107309260081c61ffff169150612974565b04610716565b7f4e487b71000000000000000000000000000000000000000000000000000000005f52601160045260245ffd5b3461027657602060031936011261027657602061026e610781612a60565b600435612c70565b34610276576020600319360112610276576004355f527f50bc60b877273d55cac3903fd4818902e5fd7aa256278ee2dc6b212f256c0b0b602052602073ffffffffffffffffffffffffffffffffffffffff60405f205416604051908152f35b34610276575f600319360112610276577f50bc60b877273d55cac3903fd4818902e5fd7aa256278ee2dc6b212f256c0b03545f527f50bc60b877273d55cac3903fd4818902e5fd7aa256278ee2dc6b212f256c0b0b602052602060ff60405f205460a81c166040519015158152f35b346102765760206003193601126102765773ffffffffffffffffffffffffffffffffffffffff610885612397565b165f527f50bc60b877273d55cac3903fd4818902e5fd7aa256278ee2dc6b212f256c0b0e60205260405f206318fb58646004525f5260245f208019549060405191826020018115610974575060011c905f5b82811061094f5750505b80825260051b8101602081019182604052604082016020845281518091526020606084019201905f5b818110610939578484037fffffffffffffffffffffffffffffffffffffffffffffffffffffffffffffffe00186f35b825184526020938401939092019160010161090a565b8060019183015468fbb67fda52d4bfb8bf8114150260208260051b87010152016108d7565b909180549182610987575b5050506108e1565b9091925060019268fbb67fda52d4bfb8bf81141502905281810154806109ae575b8061097f565b68fbb67fda52d4bfb8bf811415026040840152600290810154909150806109d6575b806109a8565b68fbb67fda52d4bfb8bf811415026060830152506003826109d0565b34610276575f60031936011261027657602061026e610a3460ff7f50bc60b877273d55cac3903fd4818902e5fd7aa256278ee2dc6b212f256c0b005416612963565b610a3c612a60565b90612af4565b3461027657602060031936011261027657610a5b61289a565b506004355f527f50bc60b877273d55cac3903fd4818902e5fd7aa256278ee2dc6b212f256c0b0c60205260c0610a9360405f206128ca565b610aa060405180926123f3565bf35b34610276576020600319360112610276576004355f9081527f50bc60b877273d55cac3903fd4818902e5fd7aa256278ee2dc6b212f256c0b0b60209081526040918290208054600390910154835173ffffffffffffffffffffffffffffffffffffffff8316815260a083811c60ff90811615159583019590955260a89390931c9093161515938301939093526fffffffffffffffffffffffffffffffff83166060830152608092831c92820192909252f35b3461027657604060031936011261027657610b6d612397565b602435906387a211a2600c52335f526020600c208054808411610bd65783900390555f526020600c20818154019055602052600c5160601c337fddf252ad1be2c89b69c2b068fc378daa952ba7f163c4a11628f55a4df523b3ef602080a3602060405160018152f35b63f4d678b85f526004601cfd5b34610276575f60031936011261027657602061ffff7f50bc60b877273d55cac3903fd4818902e5fd7aa256278ee2dc6b212f256c0b005460181c16604051908152f35b3461027657602060031936011261027657610c3f61289a565b506004355f527f50bc60b877273d55cac3903fd4818902e5fd7aa256278ee2dc6b212f256c0b0d60205260c0610a9360405f206128ca565b34610276575f60031936011261027657610cce604051610c986040826124f2565b600581527f312e302e3000000000000000000000000000000000000000000000000000000060208201526040519182918261234f565b0390f35b3461027657602061026e610a3c366123dd565b34610276575f600319360112610276576040515f7f50bc60b877273d55cac3903fd4818902e5fd7aa256278ee2dc6b212f256c0b0a548060011c90600181168015610e50575b602083108114610e2357828552908115610de15750600114610d64575b610cce83610d58818503826124f2565b6040519182918261234f565b7f50bc60b877273d55cac3903fd4818902e5fd7aa256278ee2dc6b212f256c0b0a5f9081527f3177a8165b5b3e3c62fb2630441ecd4511c2f82be57a6b1983a2e5a11e1148b9939250905b808210610dc757509091508101602001610d58610d48565b919260018160209254838588010152019101909291610daf565b7fffffffffffffffffffffffffffffffffffffffffffffffffffffffffffffff001660208086019190915291151560051b84019091019150610d589050610d48565b7f4e487b71000000000000000000000000000000000000000000000000000000005f52602260045260245ffd5b91607f1691610d2b565b34610276575f60031936011261027657602067ffffffffffffffff7f50bc60b877273d55cac3903fd4818902e5fd7aa256278ee2dc6b212f256c0b0054602b1c16604051908152f35b34610276575f60031936011261027657602061026e612a60565b34610276575f60031936011261027657602061ffff7f50bc60b877273d55cac3903fd4818902e5fd7aa256278ee2dc6b212f256c0b005460081c16604051908152f35b34610276575f60031936011261027657602061026e610f4260ff7f50bc60b877273d55cac3903fd4818902e5fd7aa256278ee2dc6b212f256c0b005416612963565b610a3c6129d1565b34610276575f600319360112610276576020610f64612b15565b61ffff60405191168152f35b3461027657602060031936011261027657610f89612397565b6338377508600c525f52602080600c2054604051908152f35b34610276575f6003193601126102765760207f50bc60b877273d55cac3903fd4818902e5fd7aa256278ee2dc6b212f256c0b0354604051908152f35b34610276575f6003193601126102765761105960017f50bc60b877273d55cac3903fd4818902e5fd7aa256278ee2dc6b212f256c0b005460281c1615156040519061102a6040836124f2565b600382527f5356330000000000000000000000000000000000000000000000000000000000602083015261284b565b602073ffffffffffffffffffffffffffffffffffffffff7f50bc60b877273d55cac3903fd4818902e5fd7aa256278ee2dc6b212f256c0b045416604051908152f35b34610276575f600319360112610276577f50bc60b877273d55cac3903fd4818902e5fd7aa256278ee2dc6b212f256c0b03545f527f50bc60b877273d55cac3903fd4818902e5fd7aa256278ee2dc6b212f256c0b0b602052602060ff60405f205460a01c166040519015158152f35b34610276575f600319360112610276576111db67ffffffffffffffff7f50bc60b877273d55cac3903fd4818902e5fd7aa256278ee2dc6b212f256c0b0054606b1c1662015180620afa6c91040162023ab1810661016d62023ab082146105b48304618eac8404840103030490606482048260021c8361016d0201039003916001609960028560050201049361030161f4ff7f030405060708090a0b0c01020000000000000000000000000000000000000000871a960201600b1c9003019161019062023ab160038610930402010192565b7e1f1c1f1e1f1e1f1f1e1f1e1f00000000000000000000000000000000000000821a600283146019850615600c0260030185161516011461130b5760028101809111610736575b8082600c82116112d8575b602061026e85857e1f1c1f1e1f1e1f1f1e1f1e1f00000000000000000000000000000000000000811a600282146019840615600c0260030184161516015b916201517f9262023ab161019062015180947ffffffffffffffffffffffffffffffffffffffffffffffffffffffffffff50593946003821090039382850690610301600c60096064850495010661f4ff0201600b1c019061016d8160021c91020101039204020101020190565b5f198201935091508211610736576112f5600c918284049061265d565b910660018101809111610736578161026e61122d565b6003810180911115611222577f4e487b71000000000000000000000000000000000000000000000000000000005f52601160045260245ffd5b34610276575f60031936011261027657610cce6040516113656040826124f2565b600d81527f6b5374616b696e675661756c740000000000000000000000000000000000000060208201526040519182918261234f565b34610276575f600319360112610276577f50bc60b877273d55cac3903fd4818902e5fd7aa256278ee2dc6b212f256c0b03545f8181527f50bc60b877273d55cac3903fd4818902e5fd7aa256278ee2dc6b212f256c0b0b602090815260409182902054825193845273ffffffffffffffffffffffffffffffffffffffff81169184019190915260ff60a082901c811615159284019290925260a81c1615156060820152608090f35b34610276575f60031936011261027657602073ffffffffffffffffffffffffffffffffffffffff7f50bc60b877273d55cac3903fd4818902e5fd7aa256278ee2dc6b212f256c0b065416604051908152f35b34610276576020600319360112610276576114ae612397565b6387a211a2600c525f52602080600c2054604051908152f35b34610276575f600319360112610276576040516104a06114e781836124f2565b602482527fffffffffffffffffffffffffffffffffffffffffffffffffffffffffffffffe0602083019101368237815115611c51577f7b103999000000000000000000000000000000000000000000000000000000008152815160011015611c51577f38d52e0f000000000000000000000000000000000000000000000000000000006040830152815160021015611c51577f7158da7c000000000000000000000000000000000000000000000000000000006060830152815160031015611c51577fcf0597ed000000000000000000000000000000000000000000000000000000006080830152815160041015611c51577f8d5c009a0000000000000000000000000000000000000000000000000000000060a0830152815160051015611c51577fd0395ddb0000000000000000000000000000000000000000000000000000000060c0830152815160061015611c51577f8297f4310000000000000000000000000000000000000000000000000000000060e0830152815160071015611c51577f8778878200000000000000000000000000000000000000000000000000000000610100830152815160081015611c51577fa6f7f5d600000000000000000000000000000000000000000000000000000000610120830152815160091015611c51577f34a44bd5000000000000000000000000000000000000000000000000000000006101408301528151600a1015611c51577f77f00194000000000000000000000000000000000000000000000000000000006101608301528151600b1015611c51577f52b09688000000000000000000000000000000000000000000000000000000006101808301528151600c1015611c51577f78e36ac9000000000000000000000000000000000000000000000000000000006101a08301528151600d1015611c51577fb5e9f485000000000000000000000000000000000000000000000000000000006101c08301528151600e1015611c51577f72674eb6000000000000000000000000000000000000000000000000000000006101e08301528151600f1015611c51577fbefe317000000000000000000000000000000000000000000000000000000000610200830152815160101015611c51577f5e3d5f7f00000000000000000000000000000000000000000000000000000000610220830152815160111015611c51577f8726972900000000000000000000000000000000000000000000000000000000610240830152815160121015611c51577fb1791c0d00000000000000000000000000000000000000000000000000000000610260830152815160131015611c51577f01e1d11400000000000000000000000000000000000000000000000000000000610280830152815160141015611c51577f890a8c4f000000000000000000000000000000000000000000000000000000006102a0830152815160151015611c51577f7b27b9ee000000000000000000000000000000000000000000000000000000006102c0830152815160161015611c51577f5308394f000000000000000000000000000000000000000000000000000000006102e0830152815160171015611c51577fc6e6f59200000000000000000000000000000000000000000000000000000000610300830152815160181015611c51577f07a2d13a00000000000000000000000000000000000000000000000000000000610320830152815160191015611c51577f75d0c0dc000000000000000000000000000000000000000000000000000000006103408301528151601a1015611c51577fa0a8e460000000000000000000000000000000000000000000000000000000006103608301528151601b1015611c51577fb337cf74000000000000000000000000000000000000000000000000000000006103808301528151601c1015611c51577fac219343000000000000000000000000000000000000000000000000000000006103a08301528151601d1015611c51577fa625e721000000000000000000000000000000000000000000000000000000006103c08301528151601e1015611c51577faa2e3343000000000000000000000000000000000000000000000000000000006103e08301528151601f1015611c51577f4389a27900000000000000000000000000000000000000000000000000000000610400830152815160201015611c51577fef3066d400000000000000000000000000000000000000000000000000000000610420830152815160211015611c51577f9ff217fe00000000000000000000000000000000000000000000000000000000610440830152815160221015611c51577f07fee22800000000000000000000000000000000000000000000000000000000610460830152815160231015611c5157907f40aa1f4000000000000000000000000000000000000000000000000000000000610480820152604051918291602083019060208452518091526040830191905f5b818110611c16575050500390f35b82517fffffffff0000000000000000000000000000000000000000000000000000000016845285945060209384019390920191600101611c08565b7f4e487b71000000000000000000000000000000000000000000000000000000005f52603260045260245ffd5b3461027657602060031936011261027657600435805f527f50bc60b877273d55cac3903fd4818902e5fd7aa256278ee2dc6b212f256c0b0b602052611d0660ff60405f205460a81c161560405190611cd76040836124f2565b600382527f5356380000000000000000000000000000000000000000000000000000000000602083015261284b565b5f527f50bc60b877273d55cac3903fd4818902e5fd7aa256278ee2dc6b212f256c0b0b602052602073ffffffffffffffffffffffffffffffffffffffff60405f205416604051908152f35b34610276575f6003193601126102765760207f50bc60b877273d55cac3903fd4818902e5fd7aa256278ee2dc6b212f256c0b0354805f527f50bc60b877273d55cac3903fd4818902e5fd7aa256278ee2dc6b212f256c0b0b8252611df760ff60405f205460a01c161560405190611dc96040836124f2565b600382527f53563700000000000000000000000000000000000000000000000000000000008583015261284b565b805f527f50bc60b877273d55cac3903fd4818902e5fd7aa256278ee2dc6b212f256c0b0b825261026e60ff60405f205460a81c161560405190611e3b6040836124f2565b600382527f53563800000000000000000000000000000000000000000000000000000000008583015261284b565b34610276575f60031936011261027657602061026e61266a565b34610276575f6003193601126102765760207f50bc60b877273d55cac3903fd4818902e5fd7aa256278ee2dc6b212f256c0b015460801c604051908152f35b34610276576020600319360112610276576004355f527f50bc60b877273d55cac3903fd4818902e5fd7aa256278ee2dc6b212f256c0b0b602052602060ff60405f205460a01c166040519015158152f35b34610276575f60031936011261027657602073ffffffffffffffffffffffffffffffffffffffff7f50bc60b877273d55cac3903fd4818902e5fd7aa256278ee2dc6b212f256c0b075416604051908152f35b34610276575f60031936011261027657602060a0611f81612533565b828151910120604051907f8b73c3c69bb8fe3d512ecc4cf759cc79239f7b179b0ffacaa9a75d522b39400f8252838201527fc89efdaa54c0f20c7adf612882df0950f5a951637e0307cdcb4c672f298b8bc6604082015246606082015230608082015220604051908152f35b34610276576040600319360112610276576024356004356040519160408360208152826020820152019060051b8301916001602060408501935b8354815201910190848382101561033757506020600191612027565b34610276575f6003193601126102765760206fffffffffffffffffffffffffffffffff7f50bc60b877273d55cac3903fd4818902e5fd7aa256278ee2dc6b212f256c0b015416604051908152f35b34610276575f60031936011261027657602060ff7f50bc60b877273d55cac3903fd4818902e5fd7aa256278ee2dc6b212f256c0b005416604051908152f35b34610276576060600319360112610276576120e9612397565b6120f16123ba565b604435908260601b6e22d473030f116ddee9f6b43ac78ba33303612189575b6387a211a217600c526020600c208054808411610bd65783900390555f526020600c2081815401905560205273ffffffffffffffffffffffffffffffffffffffff600c5160601c91167fddf252ad1be2c89b69c2b068fc378daa952ba7f163c4a11628f55a4df523b3ef602080a3602060405160018152f35b33602052637f5e9f208117600c526034600c209081549182196121af575b509050612110565b8285116121c657846387a211a293039055856121a7565b6313be252b5f526004601cfd5b3461027657602060031936011261027657600435545f5260205ff35b34610276575f6003193601126102765760206805345cdf77eb68f44c54604051908152f35b346102765760406003193601126102765761222d612397565b602435908119156e22d473030f116ddee9f6b43ac78ba373ffffffffffffffffffffffffffffffffffffffff831618171561052557602052637f5e9f20600c52335f52806034600c20555f52602c5160601c337f8c5be1e5ebec7d5bd14f71427d1e84f3dd0314c0f7b2291e5b200ac8c7c3b92560205fa3602060405160018152f35b34610276575f60031936011261027657602060017f50bc60b877273d55cac3903fd4818902e5fd7aa256278ee2dc6b212f256c0b0054602a1c161515604051908152f35b3461027657602060031936011261027657602061026e612312612a60565b600435612af4565b34610276575f60031936011261027657610cce610d58612533565b34610276575f60031936011261027657602061026e6129d1565b7fffffffffffffffffffffffffffffffffffffffffffffffffffffffffffffffe0601f602060409481855280519182918282880152018686015e5f8582860101520116010190565b6004359073ffffffffffffffffffffffffffffffffffffffff8216820361027657565b6024359073ffffffffffffffffffffffffffffffffffffffff8216820361027657565b6003196040910112610276576004359060243590565b60a09073ffffffffffffffffffffffffffffffffffffffff81511683526fffffffffffffffffffffffffffffffff602082015116602084015273ffffffffffffffffffffffffffffffffffffffff60408201511660408401526060810151606084015267ffffffffffffffff6080820151166080840152015190600382101561247c5760a00152565b7f4e487b71000000000000000000000000000000000000000000000000000000005f52602160045260245ffd5b60c0810190811067ffffffffffffffff8211176124c557604052565b7f4e487b71000000000000000000000000000000000000000000000000000000005f52604160045260245ffd5b90601f7fffffffffffffffffffffffffffffffffffffffffffffffffffffffffffffffe0910116810190811067ffffffffffffffff8211176124c557604052565b604051905f7f50bc60b877273d55cac3903fd4818902e5fd7aa256278ee2dc6b212f256c0b09548060011c9160018216918215612653575b602084108314610e235783865285929081156126165750600114612598575b612596925003836124f2565b565b507f50bc60b877273d55cac3903fd4818902e5fd7aa256278ee2dc6b212f256c0b095f90815290917feed39591673215402fba1c9ab9753946196fe3ddcce93d9e892ab8c49fea90c15b8183106125fa5750509060206125969282010161258a565b60209193508060019154838589010152019101909184926125e2565b602092506125969491507fffffffffffffffffffffffffffffffffffffffffffffffffffffffffffffff001682840152151560051b82010161258a565b92607f169261256b565b9190820180921161073657565b61272b67ffffffffffffffff7f50bc60b877273d55cac3903fd4818902e5fd7aa256278ee2dc6b212f256c0b0054602b1c1662015180620afa6c91040162023ab1810661016d62023ab082146105b48304618eac8404840103030490606482048260021c8361016d0201039003916001609960028560050201049361030161f4ff7f030405060708090a0b0c01020000000000000000000000000000000000000000871a960201600b1c9003019161019062023ab160038610930402010192565b7e1f1c1f1e1f1e1f1f1e1f1e1f00000000000000000000000000000000000000821a600283146019850615600c0260030185161516018091036127da5750600181018091116107365780600c8392116127c2575b6127bf92507e1f1c1f1e1f1e1f1f1e1f1e1f00000000000000000000000000000000000000811a600282146019840615600c02600301841615160161126b565b90565b505060018101809111610736576127bf90600161277f565b906127bf926201517f9262023ab161019062015180947ffffffffffffffffffffffffffffffffffffffffffffffffffffffffffff50593946003821090039382850690610301600c60096064850495010661f4ff0201600b1c019061016d8160021c91020101039204020101020190565b156128535750565b612889906040519182917f08c379a00000000000000000000000000000000000000000000000000000000083526004830161234f565b0390fd5b9190820391821161073657565b604051906128a7826124a9565b5f60a0838281528260208201528260408201528260608201528260808201520152565b906040516128d7816124a9565b60ff6004829473ffffffffffffffffffffffffffffffffffffffff81541684526fffffffffffffffffffffffffffffffff600182015416602085015273ffffffffffffffffffffffffffffffffffffffff600282015416604085015260038101546060850152015467ffffffffffffffff8116608084015260401c1690600382101561247c5760a00152565b60ff16604d811161073657600a0a90565b8181029291811591840414171561073657565b906e22d473030f116ddee9f6b43ac78ba373ffffffffffffffffffffffffffffffffffffffff8216146129ca57602052637f5e9f20600c525f526034600c205490565b50505f1990565b6127bf6020806024601073ffffffffffffffffffffffffffffffffffffffff7f50bc60b877273d55cac3903fd4818902e5fd7aa256278ee2dc6b212f256c0b075416306014526f70a082310000000000000000000000005f525afa601f3d1116602051027f50bc60b877273d55cac3903fd4818902e5fd7aa256278ee2dc6b212f256c0b015460801c9061288d565b612a686129d1565b604051907fcf0597ed000000000000000000000000000000000000000000000000000000008252606082600481305afa908115612ae9575f91612ab0575b6127bf925061288d565b90506060823d606011612ae1575b81612acb606093836124f2565b810103126102765760406127bf92015190612aa6565b3d9150612abe565b6040513d5f823e3d90fd5b906805345cdf77eb68f44c54908115612b10576127bf92612d0f565b505090565b612b8060017f50bc60b877273d55cac3903fd4818902e5fd7aa256278ee2dc6b212f256c0b005460281c16151560405190612b516040836124f2565b600382527f4256350000000000000000000000000000000000000000000000000000000000602083015261284b565b73ffffffffffffffffffffffffffffffffffffffff7f50bc60b877273d55cac3903fd4818902e5fd7aa256278ee2dc6b212f256c0b045416602073ffffffffffffffffffffffffffffffffffffffff7f50bc60b877273d55cac3903fd4818902e5fd7aa256278ee2dc6b212f256c0b0654166024604051809481937f39b0f2ca00000000000000000000000000000000000000000000000000000000835260048301525afa908115612ae9575f91612c36575090565b90506020813d602011612c68575b81612c51602093836124f2565b81010312610276575161ffff811681036102765790565b3d9150612c44565b906805345cdf77eb68f44c548015612b10576127bf92612d0f565b818102916301e1855881838504148315170215612cae5750506301e18558900490565b805f196301e1855892840984811085019003920990806301e185581115612d0257828211900360fd1b910360031c177f5818d3326caead725855951d54e4399ccd4bcf973323e6dcb93283828fae4a030290565b63ae47f7025f526004601cfd5b81810292918115828504821417830215612d2a575050900490565b805f198492840985811086019003920990825f0383169281811115612d025783900480600302600218808202600203028082026002030280820260020302808202600203028082026002030280910260020302936001848483030494805f030401921190030217029056fea2646970667358221220136bf20a5392c2373622394e31ade419decb0d29c1c08135b6b1af51670d8e5064736f6c634300081e0033","linkReferences":{}},"methodIdentifiers":{"DOMAIN_SEPARATOR()":"3644e515","allowance(address,address)":"dd62ed3e","approve(address,uint256)":"095ea7b3","asset()":"38d52e0f","balanceOf(address)":"70a08231","computeLastBatchFees()":"cf0597ed","contractName()":"75d0c0dc","contractVersion()":"a0a8e460","convertToAssets(uint256)":"07a2d13a","convertToAssetsWithTotals(uint256,uint256)":"9ff217fe","convertToShares(uint256)":"c6e6f592","convertToSharesWithTotals(uint256,uint256)":"ef3066d4","decimals()":"313ce567","extsload(bytes32)":"1e2eaeaf","extsload(bytes32,uint256)":"35fd631a","extsload(bytes32[])":"dbd035ff","getBatchId()":"7b27b9ee","getBatchIdInfo(bytes32)":"aa2e3343","getBatchReceiver(bytes32)":"befe3170","getCurrentBatchInfo()":"72674eb6","getSafeBatchId()":"5308394f","getSafeBatchReceiver(bytes32)":"5e3d5f7f","getStakeRequest(bytes32)":"ac219343","getTotalPendingStake()":"4389a279","getUnstakeRequest(bytes32)":"a625e721","getUserRequests(address)":"b337cf74","hurdleRate()":"8297f431","isBatchClosed()":"78e36ac9","isBatchSettled()":"b5e9f485","isClosed(bytes32)":"40aa1f40","isHardHurdleRate()":"07fee228","lastFeesChargedManagement()":"8d5c009a","lastFeesChargedPerformance()":"d0395ddb","managementFee()":"a6f7f5d6","name()":"06fdde03","netSharePrice()":"b1791c0d","nextManagementFeeTimestamp()":"52b09688","nextPerformanceFeeTimestamp()":"77f00194","nonces(address)":"7ecebe00","performanceFee()":"87788782","permit(address,address,uint256,uint256,uint8,bytes32,bytes32)":"d505accf","registry()":"7b103999","selectors()":"6e25b978","sharePrice()":"87269729","sharePriceWatermark()":"34a44bd5","symbol()":"95d89b41","totalAssets()":"01e1d114","totalNetAssets()":"890a8c4f","totalSupply()":"18160ddd","transfer(address,uint256)":"a9059cbb","transferFrom(address,address,uint256)":"23b872dd","underlyingAsset()":"7158da7c"},"storageLayout":{"storage":[],"types":{}},"id":66}