{"abi":[{"type":"function","name":"DOMAIN_SEPARATOR","inputs":[],"outputs":[{"name":"result","type":"bytes32","internalType":"bytes32"}],"stateMutability":"view"},{"type":"function","name":"allowance","inputs":[{"name":"owner","type":"address","internalType":"address"},{"name":"spender","type":"address","internalType":"address"}],"outputs":[{"name":"result","type":"uint256","internalType":"uint256"}],"stateMutability":"view"},{"type":"function","name":"approve","inputs":[{"name":"spender","type":"address","internalType":"address"},{"name":"amount","type":"uint256","internalType":"uint256"}],"outputs":[{"name":"","type":"bool","internalType":"bool"}],"stateMutability":"nonpayable"},{"type":"function","name":"asset","inputs":[],"outputs":[{"name":"","type":"address","internalType":"address"}],"stateMutability":"view"},{"type":"function","name":"balanceOf","inputs":[{"name":"owner","type":"address","internalType":"address"}],"outputs":[{"name":"result","type":"uint256","internalType":"uint256"}],"stateMutability":"view"},{"type":"function","name":"computeLastBatchFees","inputs":[],"outputs":[{"name":"managementFees","type":"uint256","internalType":"uint256"},{"name":"performanceFees","type":"uint256","internalType":"uint256"},{"name":"totalFees","type":"uint256","internalType":"uint256"}],"stateMutability":"view"},{"type":"function","name":"contractName","inputs":[],"outputs":[{"name":"","type":"string","internalType":"string"}],"stateMutability":"pure"},{"type":"function","name":"contractVersion","inputs":[],"outputs":[{"name":"","type":"string","internalType":"string"}],"stateMutability":"pure"},{"type":"function","name":"convertToAssets","inputs":[{"name":"assets","type":"uint256","internalType":"uint256"}],"outputs":[{"name":"","type":"uint256","internalType":"uint256"}],"stateMutability":"view"},{"type":"function","name":"convertToAssetsWithTotals","inputs":[{"name":"assets","type":"uint256","internalType":"uint256"},{"name":"totalAssets_","type":"uint256","internalType":"uint256"}],"outputs":[{"name":"","type":"uint256","internalType":"uint256"}],"stateMutability":"view"},{"type":"function","name":"convertToShares","inputs":[{"name":"shares","type":"uint256","internalType":"uint256"}],"outputs":[{"name":"","type":"uint256","internalType":"uint256"}],"stateMutability":"view"},{"type":"function","name":"convertToSharesWithTotals","inputs":[{"name":"shares","type":"uint256","internalType":"uint256"},{"name":"totalAssets_","type":"uint256","internalType":"uint256"}],"outputs":[{"name":"","type":"uint256","internalType":"uint256"}],"stateMutability":"view"},{"type":"function","name":"decimals","inputs":[],"outputs":[{"name":"","type":"uint8","internalType":"uint8"}],"stateMutability":"view"},{"type":"function","name":"extsload","inputs":[{"name":"slot","type":"bytes32","internalType":"bytes32"}],"outputs":[{"name":"","type":"bytes32","internalType":"bytes32"}],"stateMutability":"view"},{"type":"function","name":"extsload","inputs":[{"name":"startSlot","type":"bytes32","internalType":"bytes32"},{"name":"nSlots","type":"uint256","internalType":"uint256"}],"outputs":[{"name":"","type":"bytes32[]","internalType":"bytes32[]"}],"stateMutability":"view"},{"type":"function","name":"extsload","inputs":[{"name":"slots","type":"bytes32[]","internalType":"bytes32[]"}],"outputs":[{"name":"","type":"bytes32[]","internalType":"bytes32[]"}],"stateMutability":"view"},{"type":"function","name":"getBatchId","inputs":[],"outputs":[{"name":"","type":"bytes32","internalType":"bytes32"}],"stateMutability":"view"},{"type":"function","name":"getBatchIdInfo","inputs":[{"name":"batchId","type":"bytes32","internalType":"bytes32"}],"outputs":[{"name":"batchReceiver","type":"address","internalType":"address"},{"name":"isClosed","type":"bool","internalType":"bool"},{"name":"isSettled","type":"bool","internalType":"bool"},{"name":"sharePrice","type":"uint256","internalType":"uint256"},{"name":"netSharePrice","type":"uint256","internalType":"uint256"}],"stateMutability":"view"},{"type":"function","name":"getBatchReceiver","inputs":[{"name":"batchId","type":"bytes32","internalType":"bytes32"}],"outputs":[{"name":"","type":"address","internalType":"address"}],"stateMutability":"view"},{"type":"function","name":"getCurrentBatchInfo","inputs":[],"outputs":[{"name":"batchId","type":"bytes32","internalType":"bytes32"},{"name":"batchReceiver","type":"address","internalType":"address"},{"name":"isClosed","type":"bool","internalType":"bool"},{"name":"isSettled","type":"bool","internalType":"bool"}],"stateMutability":"view"},{"type":"function","name":"getSafeBatchId","inputs":[],"outputs":[{"name":"","type":"bytes32","internalType":"bytes32"}],"stateMutability":"view"},{"type":"function","name":"getSafeBatchReceiver","inputs":[{"name":"batchId","type":"bytes32","internalType":"bytes32"}],"outputs":[{"name":"","type":"address","internalType":"address"}],"stateMutability":"view"},{"type":"function","name":"getStakeRequest","inputs":[{"name":"requestId","type":"bytes32","internalType":"bytes32"}],"outputs":[{"name":"stakeRequest","type":"tuple","internalType":"struct BaseVaultTypes.StakeRequest","components":[{"name":"user","type":"address","internalType":"address"},{"name":"kTokenAmount","type":"uint128","internalType":"uint128"},{"name":"recipient","type":"address","internalType":"address"},{"name":"batchId","type":"bytes32","internalType":"bytes32"},{"name":"requestTimestamp","type":"uint64","internalType":"uint64"},{"name":"status","type":"uint8","internalType":"enum BaseVaultTypes.RequestStatus"}]}],"stateMutability":"view"},{"type":"function","name":"getTotalPendingStake","inputs":[],"outputs":[{"name":"","type":"uint256","internalType":"uint256"}],"stateMutability":"view"},{"type":"function","name":"getUnstakeRequest","inputs":[{"name":"requestId","type":"bytes32","internalType":"bytes32"}],"outputs":[{"name":"unstakeRequest","type":"tuple","internalType":"struct BaseVaultTypes.UnstakeRequest","components":[{"name":"user","type":"address","internalType":"address"},{"name":"stkTokenAmount","type":"uint128","internalType":"uint128"},{"name":"recipient","type":"address","internalType":"address"},{"name":"batchId","type":"bytes32","internalType":"bytes32"},{"name":"requestTimestamp","type":"uint64","internalType":"uint64"},{"name":"status","type":"uint8","internalType":"enum BaseVaultTypes.RequestStatus"}]}],"stateMutability":"view"},{"type":"function","name":"getUserRequests","inputs":[{"name":"user","type":"address","internalType":"address"}],"outputs":[{"name":"requestIds","type":"bytes32[]","internalType":"bytes32[]"}],"stateMutability":"view"},{"type":"function","name":"hurdleRate","inputs":[],"outputs":[{"name":"","type":"uint16","internalType":"uint16"}],"stateMutability":"view"},{"type":"function","name":"isBatchClosed","inputs":[],"outputs":[{"name":"","type":"bool","internalType":"bool"}],"stateMutability":"view"},{"type":"function","name":"isBatchSettled","inputs":[],"outputs":[{"name":"","type":"bool","internalType":"bool"}],"stateMutability":"view"},{"type":"function","name":"isHardHurdleRate","inputs":[],"outputs":[{"name":"","type":"bool","internalType":"bool"}],"stateMutability":"view"},{"type":"function","name":"lastFeesChargedManagement","inputs":[],"outputs":[{"name":"","type":"uint256","internalType":"uint256"}],"stateMutability":"view"},{"type":"function","name":"lastFeesChargedPerformance","inputs":[],"outputs":[{"name":"","type":"uint256","internalType":"uint256"}],"stateMutability":"view"},{"type":"function","name":"managementFee","inputs":[],"outputs":[{"name":"","type":"uint16","internalType":"uint16"}],"stateMutability":"view"},{"type":"function","name":"name","inputs":[],"outputs":[{"name":"","type":"string","internalType":"string"}],"stateMutability":"view"},{"type":"function","name":"netSharePrice","inputs":[],"outputs":[{"name":"","type":"uint256","internalType":"uint256"}],"stateMutability":"view"},{"type":"function","name":"nextManagementFeeTimestamp","inputs":[],"outputs":[{"name":"","type":"uint256","internalType":"uint256"}],"stateMutability":"view"},{"type":"function","name":"nextPerformanceFeeTimestamp","inputs":[],"outputs":[{"name":"","type":"uint256","internalType":"uint256"}],"stateMutability":"view"},{"type":"function","name":"nonces","inputs":[{"name":"owner","type":"address","internalType":"address"}],"outputs":[{"name":"result","type":"uint256","internalType":"uint256"}],"stateMutability":"view"},{"type":"function","name":"performanceFee","inputs":[],"outputs":[{"name":"","type":"uint16","internalType":"uint16"}],"stateMutability":"view"},{"type":"function","name":"permit","inputs":[{"name":"owner","type":"address","internalType":"address"},{"name":"spender","type":"address","internalType":"address"},{"name":"value","type":"uint256","internalType":"uint256"},{"name":"deadline","type":"uint256","internalType":"uint256"},{"name":"v","type":"uint8","internalType":"uint8"},{"name":"r","type":"bytes32","internalType":"bytes32"},{"name":"s","type":"bytes32","internalType":"bytes32"}],"outputs":[],"stateMutability":"nonpayable"},{"type":"function","name":"registry","inputs":[],"outputs":[{"name":"","type":"address","internalType":"address"}],"stateMutability":"view"},{"type":"function","name":"selectors","inputs":[],"outputs":[{"name":"","type":"bytes4[]","internalType":"bytes4[]"}],"stateMutability":"pure"},{"type":"function","name":"sharePrice","inputs":[],"outputs":[{"name":"","type":"uint256","internalType":"uint256"}],"stateMutability":"view"},{"type":"function","name":"sharePriceWatermark","inputs":[],"outputs":[{"name":"","type":"uint256","internalType":"uint256"}],"stateMutability":"view"},{"type":"function","name":"symbol","inputs":[],"outputs":[{"name":"","type":"string","internalType":"string"}],"stateMutability":"view"},{"type":"function","name":"totalAssets","inputs":[],"outputs":[{"name":"","type":"uint256","internalType":"uint256"}],"stateMutability":"view"},{"type":"function","name":"totalNetAssets","inputs":[],"outputs":[{"name":"","type":"uint256","internalType":"uint256"}],"stateMutability":"view"},{"type":"function","name":"totalSupply","inputs":[],"outputs":[{"name":"result","type":"uint256","internalType":"uint256"}],"stateMutability":"view"},{"type":"function","name":"transfer","inputs":[{"name":"to","type":"address","internalType":"address"},{"name":"amount","type":"uint256","internalType":"uint256"}],"outputs":[{"name":"","type":"bool","internalType":"bool"}],"stateMutability":"nonpayable"},{"type":"function","name":"transferFrom","inputs":[{"name":"from","type":"address","internalType":"address"},{"name":"to","type":"address","internalType":"address"},{"name":"amount","type":"uint256","internalType":"uint256"}],"outputs":[{"name":"","type":"bool","internalType":"bool"}],"stateMutability":"nonpayable"},{"type":"function","name":"underlyingAsset","inputs":[],"outputs":[{"name":"","type":"address","internalType":"address"}],"stateMutability":"view"},{"type":"event","name":"Approval","inputs":[{"name":"owner","type":"address","indexed":true,"internalType":"address"},{"name":"spender","type":"address","indexed":true,"internalType":"address"},{"name":"amount","type":"uint256","indexed":false,"internalType":"uint256"}],"anonymous":false},{"type":"event","name":"Initialized","inputs":[{"name":"registry","type":"address","indexed":false,"internalType":"address"},{"name":"name","type":"string","indexed":false,"internalType":"string"},{"name":"symbol","type":"string","indexed":false,"internalType":"string"},{"name":"decimals","type":"uint8","indexed":false,"internalType":"uint8"},{"name":"asset","type":"address","indexed":false,"internalType":"address"}],"anonymous":false},{"type":"event","name":"Paused","inputs":[{"name":"paused","type":"bool","indexed":false,"internalType":"bool"}],"anonymous":false},{"type":"event","name":"StakeRequestCancelled","inputs":[{"name":"requestId","type":"bytes32","indexed":true,"internalType":"bytes32"}],"anonymous":false},{"type":"event","name":"StakeRequestCreated","inputs":[{"name":"requestId","type":"bytes32","indexed":true,"internalType":"bytes32"},{"name":"user","type":"address","indexed":true,"internalType":"address"},{"name":"kToken","type":"address","indexed":true,"internalType":"address"},{"name":"amount","type":"uint256","indexed":false,"internalType":"uint256"},{"name":"recipient","type":"address","indexed":false,"internalType":"address"},{"name":"batchId","type":"bytes32","indexed":false,"internalType":"bytes32"}],"anonymous":false},{"type":"event","name":"StakeRequestRedeemed","inputs":[{"name":"requestId","type":"bytes32","indexed":true,"internalType":"bytes32"}],"anonymous":false},{"type":"event","name":"Transfer","inputs":[{"name":"from","type":"address","indexed":true,"internalType":"address"},{"name":"to","type":"address","indexed":true,"internalType":"address"},{"name":"amount","type":"uint256","indexed":false,"internalType":"uint256"}],"anonymous":false},{"type":"event","name":"UnstakeRequestCancelled","inputs":[{"name":"requestId","type":"bytes32","indexed":true,"internalType":"bytes32"}],"anonymous":false},{"type":"event","name":"UnstakeRequestCreated","inputs":[{"name":"requestId","type":"bytes32","indexed":true,"internalType":"bytes32"},{"name":"user","type":"address","indexed":true,"internalType":"address"},{"name":"amount","type":"uint256","indexed":false,"internalType":"uint256"},{"name":"recipient","type":"address","indexed":false,"internalType":"address"},{"name":"batchId","type":"bytes32","indexed":false,"internalType":"bytes32"}],"anonymous":false},{"type":"error","name":"AllowanceOverflow","inputs":[]},{"type":"error","name":"AllowanceUnderflow","inputs":[]},{"type":"error","name":"InsufficientAllowance","inputs":[]},{"type":"error","name":"InsufficientBalance","inputs":[]},{"type":"error","name":"InvalidPermit","inputs":[]},{"type":"error","name":"Permit2AllowanceIsFixedAtInfinity","inputs":[]},{"type":"error","name":"PermitExpired","inputs":[]},{"type":"error","name":"Reentrancy","inputs":[]},{"type":"error","name":"TotalSupplyOverflow","inputs":[]}],"bytecode":{"object":"0x60808060405234601557612a0c908161001a8239f35b5f80fdfe60806040526004361015610011575f80fd5b5f3560e01c806301e1d1141461210457806306fdde03146120e957806307a2d13a146120c357806307fee2281461207f578063095ea7b314611fe357806318160ddd14611fbe5780631e2eaeaf14611fa257806323b872dd14611e9f578063313ce56714611e6057806334a44bd514611e1257806335fd631a14611dbc5780633644e51514611d3457806338d52e0f14611ce25780634389a27914611ca357806352b0968814611c4c5780635308394f14611b345780635e3d5f7f14611a615780636e25b978146112db57806370a08231146112a95780637158da7c1461125757806372674eb6146111af57806375d0c0dc1461115857806377f001941461110157806378e36ac9146110925780637b10399914610fd55780637b27b9ee14610f995780637ecebe0014610f675780638297f43114610f415780638726972914610ef75780638778878214610eb4578063890a8c4f14610e9a5780638d5c009a14610e5157806395d89b4114610cdc5780639ff217fe14610cc9578063a0a8e46014610c6e578063a625e72114610c1d578063a6f7f5d614610bda578063a9059cbb14610b4b578063aa2e334314610a99578063ac21934314610a39578063b1791c0d146109e9578063b337cf741461084e578063b5e9f485146107df578063befe317014610780578063c6e6f5921461075a578063cf0597ed14610570578063d0395ddb14610527578063d505accf14610335578063dbd035ff1461029b578063dd62ed3e1461026f5763ef3066d41461024a575f80fd5b3461026b57602061026361025d366121ac565b90612873565b604051908152f35b5f80fd5b3461026b57604060031936011261026b57602061026361028d612166565b610295612189565b90612568565b3461026b57602060031936011261026b5760043567ffffffffffffffff811161026b573660238201121561026b5780600401359067ffffffffffffffff821161026b578160051b90366024838301011161026b5760408051809460208252602082015201918301916020806024604086019401925b833554815201910190848382101561032c575060208091610310565b60408186030190f35b3461026b5760e060031936011261026b5761034e612166565b610356612189565b604435916064356084359260ff8416840361026b5773ffffffffffffffffffffffffffffffffffffffff16938019156e22d473030f116ddee9f6b43ac78ba38618171561051a576103a5612302565b602081519101209082421161050d5773ffffffffffffffffffffffffffffffffffffffff60405194169465383775081901600e52855f5260c06020600c20958654957f8b73c3c69bb8fe3d512ecc4cf759cc79239f7b179b0ffacaa9a75d522b39400f8252602082019586528660408301967fc89efdaa54c0f20c7adf612882df0950f5a951637e0307cdcb4c672f298b8bc688528b6060850198468a528c608087019330855260a08820602e527f6e71edae12b1b97f4d1f60370fef10105fa2faae0126114a169c64845d6126c9885252528688525260a082015220604e526042602c205f5260ff1660205260a43560405260c43560605260208060805f60015afa93853d5103610500577f8c5be1e5ebec7d5bd14f71427d1e84f3dd0314c0f7b2291e5b200ac8c7c3b9259460209401905585777f5e9f200000000000000000000000000000000000000000176040526034602c2055a3005b63ddafbaef5f526004601cfd5b631a15a3cc5f526004601cfd5b633f68539a5f526004601cfd5b3461026b575f60031936011261026b57602067ffffffffffffffff7f50bc60b877273d55cac3903fd4818902e5fd7aa256278ee2dc6b212f256c0b0054606b1c16604051908152f35b3461026b575f60031936011261026b575f6fffffffffffffffffffffffffffffffff7f50bc60b877273d55cac3903fd4818902e5fd7aa256278ee2dc6b212f256c0b0154167f50bc60b877273d55cac3903fd4818902e5fd7aa256278ee2dc6b212f256c0b00546105ee67ffffffffffffffff82602b1c1642612537565b9061060667ffffffffffffffff82606b1c1642612537565b61065961271061065161064361063c61061d6125d1565b986805345cdf77eb68f44c549061063660ff8a16612544565b91612931565b9688612555565b61ffff8660181c169061288e565b048095612537565b849380820392915f821280158286131691851216176106d9575f8313610691575b606086868960405192835260208301526040820152f35b61271092939450906106b26106b79261ffff6106ab612718565b1690612555565b61288e565b04808211610706575b505050818101918282116106d95791606084808061067a565b7f4e487b71000000000000000000000000000000000000000000000000000000005f52601160045260245ffd5b6127109394506107169082612537565b90602a83901c60011615610741575061ffff6107369260081c1690612555565b04905b8280806106c0565b6107539260081c61ffff169150612555565b0490610739565b3461026b57602060031936011261026b576020610263610778612663565b600435612873565b3461026b57602060031936011261026b576004355f527f50bc60b877273d55cac3903fd4818902e5fd7aa256278ee2dc6b212f256c0b0a602052602073ffffffffffffffffffffffffffffffffffffffff60405f205416604051908152f35b3461026b575f60031936011261026b577f50bc60b877273d55cac3903fd4818902e5fd7aa256278ee2dc6b212f256c0b03545f527f50bc60b877273d55cac3903fd4818902e5fd7aa256278ee2dc6b212f256c0b0a602052602060ff60405f205460a81c166040519015158152f35b3461026b57602060031936011261026b5773ffffffffffffffffffffffffffffffffffffffff61087c612166565b165f527f50bc60b877273d55cac3903fd4818902e5fd7aa256278ee2dc6b212f256c0b0d60205260405f206318fb58646004525f5260245f20801954906040519182602001811561096b575060011c905f5b8281106109465750505b80825260051b8101602081019182604052604082016020845281518091526020606084019201905f5b818110610930578484037fffffffffffffffffffffffffffffffffffffffffffffffffffffffffffffffe00186f35b8251845260209384019390920191600101610901565b8060019183015468fbb67fda52d4bfb8bf8114150260208260051b87010152016108ce565b90918054918261097e575b5050506108d8565b9091925060019268fbb67fda52d4bfb8bf81141502905281810154806109a5575b80610976565b68fbb67fda52d4bfb8bf811415026040840152600290810154909150806109cd575b8061099f565b68fbb67fda52d4bfb8bf811415026060830152506003826109c7565b3461026b575f60031936011261026b576020610263610a2b60ff7f50bc60b877273d55cac3903fd4818902e5fd7aa256278ee2dc6b212f256c0b005416612544565b610a33612663565b906126f7565b3461026b57602060031936011261026b57610a5261246e565b506004355f527f50bc60b877273d55cac3903fd4818902e5fd7aa256278ee2dc6b212f256c0b0b60205260c0610a8a60405f2061249e565b610a9760405180926121c2565bf35b3461026b57602060031936011261026b576004355f9081527f50bc60b877273d55cac3903fd4818902e5fd7aa256278ee2dc6b212f256c0b0a60209081526040918290208054600290910154835173ffffffffffffffffffffffffffffffffffffffff8316815260a083811c60ff90811615159583019590955260a89390931c9093161515938301939093526fffffffffffffffffffffffffffffffff83166060830152608092831c92820192909252f35b3461026b57604060031936011261026b57610b64612166565b602435906387a211a2600c52335f526020600c208054808411610bcd5783900390555f526020600c20818154019055602052600c5160601c337fddf252ad1be2c89b69c2b068fc378daa952ba7f163c4a11628f55a4df523b3ef602080a3602060405160018152f35b63f4d678b85f526004601cfd5b3461026b575f60031936011261026b57602061ffff7f50bc60b877273d55cac3903fd4818902e5fd7aa256278ee2dc6b212f256c0b005460181c16604051908152f35b3461026b57602060031936011261026b57610c3661246e565b506004355f527f50bc60b877273d55cac3903fd4818902e5fd7aa256278ee2dc6b212f256c0b0c60205260c0610a8a60405f2061249e565b3461026b575f60031936011261026b57610cc5604051610c8f6040826122c1565b600581527f312e302e3000000000000000000000000000000000000000000000000000000060208201526040519182918261211e565b0390f35b3461026b576020610263610a33366121ac565b3461026b575f60031936011261026b576040515f7f50bc60b877273d55cac3903fd4818902e5fd7aa256278ee2dc6b212f256c0b09548060011c90600181168015610e47575b602083108114610e1a57828552908115610dd85750600114610d5b575b610cc583610d4f818503826122c1565b6040519182918261211e565b7f50bc60b877273d55cac3903fd4818902e5fd7aa256278ee2dc6b212f256c0b095f9081527feed39591673215402fba1c9ab9753946196fe3ddcce93d9e892ab8c49fea90c1939250905b808210610dbe57509091508101602001610d4f610d3f565b919260018160209254838588010152019101909291610da6565b7fffffffffffffffffffffffffffffffffffffffffffffffffffffffffffffff001660208086019190915291151560051b84019091019150610d4f9050610d3f565b7f4e487b71000000000000000000000000000000000000000000000000000000005f52602260045260245ffd5b91607f1691610d22565b3461026b575f60031936011261026b57602067ffffffffffffffff7f50bc60b877273d55cac3903fd4818902e5fd7aa256278ee2dc6b212f256c0b0054602b1c16604051908152f35b3461026b575f60031936011261026b576020610263612663565b3461026b575f60031936011261026b57602061ffff7f50bc60b877273d55cac3903fd4818902e5fd7aa256278ee2dc6b212f256c0b005460081c16604051908152f35b3461026b575f60031936011261026b576020610263610f3960ff7f50bc60b877273d55cac3903fd4818902e5fd7aa256278ee2dc6b212f256c0b005416612544565b610a336125d1565b3461026b575f60031936011261026b576020610f5b612718565b61ffff60405191168152f35b3461026b57602060031936011261026b57610f80612166565b6338377508600c525f52602080600c2054604051908152f35b3461026b575f60031936011261026b5760207f50bc60b877273d55cac3903fd4818902e5fd7aa256278ee2dc6b212f256c0b0354604051908152f35b3461026b575f60031936011261026b5761105060017f50bc60b877273d55cac3903fd4818902e5fd7aa256278ee2dc6b212f256c0b005460281c161515604051906110216040836122c1565b600382527f5356330000000000000000000000000000000000000000000000000000000000602083015261242c565b602073ffffffffffffffffffffffffffffffffffffffff7f50bc60b877273d55cac3903fd4818902e5fd7aa256278ee2dc6b212f256c0b045416604051908152f35b3461026b575f60031936011261026b577f50bc60b877273d55cac3903fd4818902e5fd7aa256278ee2dc6b212f256c0b03545f527f50bc60b877273d55cac3903fd4818902e5fd7aa256278ee2dc6b212f256c0b0a602052602060ff60405f205460a01c166040519015158152f35b3461026b575f60031936011261026b5767ffffffffffffffff7f50bc60b877273d55cac3903fd4818902e5fd7aa256278ee2dc6b212f256c0b0054606b1c166278615681018091116106d957602090604051908152f35b3461026b575f60031936011261026b57610cc56040516111796040826122c1565b600d81527f6b5374616b696e675661756c740000000000000000000000000000000000000060208201526040519182918261211e565b3461026b575f60031936011261026b577f50bc60b877273d55cac3903fd4818902e5fd7aa256278ee2dc6b212f256c0b03545f8181527f50bc60b877273d55cac3903fd4818902e5fd7aa256278ee2dc6b212f256c0b0a602090815260409182902054825193845273ffffffffffffffffffffffffffffffffffffffff81169184019190915260ff60a082901c811615159284019290925260a81c1615156060820152608090f35b3461026b575f60031936011261026b57602073ffffffffffffffffffffffffffffffffffffffff7f50bc60b877273d55cac3903fd4818902e5fd7aa256278ee2dc6b212f256c0b065416604051908152f35b3461026b57602060031936011261026b576112c2612166565b6387a211a2600c525f52602080600c2054604051908152f35b3461026b575f60031936011261026b576040516104806112fb81836122c1565b602382527fffffffffffffffffffffffffffffffffffffffffffffffffffffffffffffffe0602083019101368237815115611a34577f7b103999000000000000000000000000000000000000000000000000000000008152815160011015611a34577f38d52e0f000000000000000000000000000000000000000000000000000000006040830152815160021015611a34577f7158da7c000000000000000000000000000000000000000000000000000000006060830152815160031015611a34577fcf0597ed000000000000000000000000000000000000000000000000000000006080830152815160041015611a34577f8d5c009a0000000000000000000000000000000000000000000000000000000060a0830152815160051015611a34577fd0395ddb0000000000000000000000000000000000000000000000000000000060c0830152815160061015611a34577f8297f4310000000000000000000000000000000000000000000000000000000060e0830152815160071015611a34577f8778878200000000000000000000000000000000000000000000000000000000610100830152815160081015611a34577fa6f7f5d600000000000000000000000000000000000000000000000000000000610120830152815160091015611a34577f34a44bd5000000000000000000000000000000000000000000000000000000006101408301528151600a1015611a34577f77f00194000000000000000000000000000000000000000000000000000000006101608301528151600b1015611a34577f52b09688000000000000000000000000000000000000000000000000000000006101808301528151600c1015611a34577f78e36ac9000000000000000000000000000000000000000000000000000000006101a08301528151600d1015611a34577fb5e9f485000000000000000000000000000000000000000000000000000000006101c08301528151600e1015611a34577f72674eb6000000000000000000000000000000000000000000000000000000006101e08301528151600f1015611a34577fbefe317000000000000000000000000000000000000000000000000000000000610200830152815160101015611a34577f5e3d5f7f00000000000000000000000000000000000000000000000000000000610220830152815160111015611a34577f8726972900000000000000000000000000000000000000000000000000000000610240830152815160121015611a34577fb1791c0d00000000000000000000000000000000000000000000000000000000610260830152815160131015611a34577f01e1d11400000000000000000000000000000000000000000000000000000000610280830152815160141015611a34577f890a8c4f000000000000000000000000000000000000000000000000000000006102a0830152815160151015611a34577f7b27b9ee000000000000000000000000000000000000000000000000000000006102c0830152815160161015611a34577f5308394f000000000000000000000000000000000000000000000000000000006102e0830152815160171015611a34577fc6e6f59200000000000000000000000000000000000000000000000000000000610300830152815160181015611a34577f07a2d13a00000000000000000000000000000000000000000000000000000000610320830152815160191015611a34577f75d0c0dc000000000000000000000000000000000000000000000000000000006103408301528151601a1015611a34577fa0a8e460000000000000000000000000000000000000000000000000000000006103608301528151601b1015611a34577fb337cf74000000000000000000000000000000000000000000000000000000006103808301528151601c1015611a34577fac219343000000000000000000000000000000000000000000000000000000006103a08301528151601d1015611a34577fa625e721000000000000000000000000000000000000000000000000000000006103c08301528151601e1015611a34577faa2e3343000000000000000000000000000000000000000000000000000000006103e08301528151601f1015611a34577f4389a27900000000000000000000000000000000000000000000000000000000610400830152815160201015611a34577fef3066d400000000000000000000000000000000000000000000000000000000610420830152815160211015611a34577f9ff217fe00000000000000000000000000000000000000000000000000000000610440830152815160221015611a3457907f07fee22800000000000000000000000000000000000000000000000000000000610460820152604051918291602083019060208452518091526040830191905f5b8181106119f9575050500390f35b82517fffffffff00000000000000000000000000000000000000000000000000000000168452859450602093840193909201916001016119eb565b7f4e487b71000000000000000000000000000000000000000000000000000000005f52603260045260245ffd5b3461026b57602060031936011261026b57600435805f527f50bc60b877273d55cac3903fd4818902e5fd7aa256278ee2dc6b212f256c0b0a602052611ae960ff60405f205460a81c161560405190611aba6040836122c1565b600382527f5356380000000000000000000000000000000000000000000000000000000000602083015261242c565b5f527f50bc60b877273d55cac3903fd4818902e5fd7aa256278ee2dc6b212f256c0b0a602052602073ffffffffffffffffffffffffffffffffffffffff60405f205416604051908152f35b3461026b575f60031936011261026b5760207f50bc60b877273d55cac3903fd4818902e5fd7aa256278ee2dc6b212f256c0b0354805f527f50bc60b877273d55cac3903fd4818902e5fd7aa256278ee2dc6b212f256c0b0a8252611bda60ff60405f205460a01c161560405190611bac6040836122c1565b600382527f53563700000000000000000000000000000000000000000000000000000000008583015261242c565b805f527f50bc60b877273d55cac3903fd4818902e5fd7aa256278ee2dc6b212f256c0b0a825261026360ff60405f205460a81c161560405190611c1e6040836122c1565b600382527f53563800000000000000000000000000000000000000000000000000000000008583015261242c565b3461026b575f60031936011261026b5767ffffffffffffffff7f50bc60b877273d55cac3903fd4818902e5fd7aa256278ee2dc6b212f256c0b0054602b1c16620a081c81018091116106d957602090604051908152f35b3461026b575f60031936011261026b5760207f50bc60b877273d55cac3903fd4818902e5fd7aa256278ee2dc6b212f256c0b015460801c604051908152f35b3461026b575f60031936011261026b57602073ffffffffffffffffffffffffffffffffffffffff7f50bc60b877273d55cac3903fd4818902e5fd7aa256278ee2dc6b212f256c0b075416604051908152f35b3461026b575f60031936011261026b57602060a0611d50612302565b828151910120604051907f8b73c3c69bb8fe3d512ecc4cf759cc79239f7b179b0ffacaa9a75d522b39400f8252838201527fc89efdaa54c0f20c7adf612882df0950f5a951637e0307cdcb4c672f298b8bc6604082015246606082015230608082015220604051908152f35b3461026b57604060031936011261026b576024356004356040519160408360208152826020820152019060051b8301916001602060408501935b8354815201910190848382101561032c57506020600191611df6565b3461026b575f60031936011261026b5760206fffffffffffffffffffffffffffffffff7f50bc60b877273d55cac3903fd4818902e5fd7aa256278ee2dc6b212f256c0b015416604051908152f35b3461026b575f60031936011261026b57602060ff7f50bc60b877273d55cac3903fd4818902e5fd7aa256278ee2dc6b212f256c0b005416604051908152f35b3461026b57606060031936011261026b57611eb8612166565b611ec0612189565b604435908260601b6e22d473030f116ddee9f6b43ac78ba33303611f58575b6387a211a217600c526020600c208054808411610bcd5783900390555f526020600c2081815401905560205273ffffffffffffffffffffffffffffffffffffffff600c5160601c91167fddf252ad1be2c89b69c2b068fc378daa952ba7f163c4a11628f55a4df523b3ef602080a3602060405160018152f35b33602052637f5e9f208117600c526034600c20908154918219611f7e575b509050611edf565b828511611f9557846387a211a29303905585611f76565b6313be252b5f526004601cfd5b3461026b57602060031936011261026b57600435545f5260205ff35b3461026b575f60031936011261026b5760206805345cdf77eb68f44c54604051908152f35b3461026b57604060031936011261026b57611ffc612166565b602435908119156e22d473030f116ddee9f6b43ac78ba373ffffffffffffffffffffffffffffffffffffffff831618171561051a57602052637f5e9f20600c52335f52806034600c20555f52602c5160601c337f8c5be1e5ebec7d5bd14f71427d1e84f3dd0314c0f7b2291e5b200ac8c7c3b92560205fa3602060405160018152f35b3461026b575f60031936011261026b57602060017f50bc60b877273d55cac3903fd4818902e5fd7aa256278ee2dc6b212f256c0b0054602a1c161515604051908152f35b3461026b57602060031936011261026b5760206102636120e1612663565b6004356126f7565b3461026b575f60031936011261026b57610cc5610d4f612302565b3461026b575f60031936011261026b5760206102636125d1565b7fffffffffffffffffffffffffffffffffffffffffffffffffffffffffffffffe0601f602060409481855280519182918282880152018686015e5f8582860101520116010190565b6004359073ffffffffffffffffffffffffffffffffffffffff8216820361026b57565b6024359073ffffffffffffffffffffffffffffffffffffffff8216820361026b57565b600319604091011261026b576004359060243590565b60a09073ffffffffffffffffffffffffffffffffffffffff81511683526fffffffffffffffffffffffffffffffff602082015116602084015273ffffffffffffffffffffffffffffffffffffffff60408201511660408401526060810151606084015267ffffffffffffffff6080820151166080840152015190600382101561224b5760a00152565b7f4e487b71000000000000000000000000000000000000000000000000000000005f52602160045260245ffd5b60c0810190811067ffffffffffffffff82111761229457604052565b7f4e487b71000000000000000000000000000000000000000000000000000000005f52604160045260245ffd5b90601f7fffffffffffffffffffffffffffffffffffffffffffffffffffffffffffffffe0910116810190811067ffffffffffffffff82111761229457604052565b604051905f7f50bc60b877273d55cac3903fd4818902e5fd7aa256278ee2dc6b212f256c0b08548060011c9160018216918215612422575b602084108314610e1a5783865285929081156123e55750600114612367575b612365925003836122c1565b565b507f50bc60b877273d55cac3903fd4818902e5fd7aa256278ee2dc6b212f256c0b085f90815290917f3b57f4dc368a126ae78a1a004e1ecdc10424358da6f019cef33793f78eaba5b65b8183106123c957505090602061236592820101612359565b60209193508060019154838589010152019101909184926123b1565b602092506123659491507fffffffffffffffffffffffffffffffffffffffffffffffffffffffffffffff001682840152151560051b820101612359565b92607f169261233a565b156124345750565b61246a906040519182917f08c379a00000000000000000000000000000000000000000000000000000000083526004830161211e565b0390fd5b6040519061247b82612278565b5f60a0838281528260208201528260408201528260608201528260808201520152565b906040516124ab81612278565b60ff6004829473ffffffffffffffffffffffffffffffffffffffff81541684526fffffffffffffffffffffffffffffffff600182015416602085015273ffffffffffffffffffffffffffffffffffffffff600282015416604085015260038101546060850152015467ffffffffffffffff8116608084015260401c1690600382101561224b5760a00152565b919082039182116106d957565b60ff16604d81116106d957600a0a90565b818102929181159184041417156106d957565b906e22d473030f116ddee9f6b43ac78ba373ffffffffffffffffffffffffffffffffffffffff8216146125ab57602052637f5e9f20600c525f526034600c205490565b50507fffffffffffffffffffffffffffffffffffffffffffffffffffffffffffffffff90565b6126606020806024601073ffffffffffffffffffffffffffffffffffffffff7f50bc60b877273d55cac3903fd4818902e5fd7aa256278ee2dc6b212f256c0b075416306014526f70a082310000000000000000000000005f525afa601f3d1116602051027f50bc60b877273d55cac3903fd4818902e5fd7aa256278ee2dc6b212f256c0b015460801c90612537565b90565b61266b6125d1565b604051907fcf0597ed000000000000000000000000000000000000000000000000000000008252606082600481305afa9081156126ec575f916126b3575b6126609250612537565b90506060823d6060116126e4575b816126ce606093836122c1565b8101031261026b576040612660920151906126a9565b3d91506126c1565b6040513d5f823e3d90fd5b906805345cdf77eb68f44c549081156127135761266092612931565b505090565b61278360017f50bc60b877273d55cac3903fd4818902e5fd7aa256278ee2dc6b212f256c0b005460281c161515604051906127546040836122c1565b600382527f4256350000000000000000000000000000000000000000000000000000000000602083015261242c565b73ffffffffffffffffffffffffffffffffffffffff7f50bc60b877273d55cac3903fd4818902e5fd7aa256278ee2dc6b212f256c0b045416602073ffffffffffffffffffffffffffffffffffffffff7f50bc60b877273d55cac3903fd4818902e5fd7aa256278ee2dc6b212f256c0b0654166024604051809481937f39b0f2ca00000000000000000000000000000000000000000000000000000000835260048301525afa9081156126ec575f91612839575090565b90506020813d60201161286b575b81612854602093836122c1565b8101031261026b575161ffff8116810361026b5790565b3d9150612847565b906805345cdf77eb68f44c5480156127135761266092612931565b818102916301e18558818385041483151702156128b15750506301e18558900490565b807fffffffffffffffffffffffffffffffffffffffffffffffffffffffffffffffff6301e1855892840984811085019003920990806301e18558111561292457828211900360fd1b910360031c177f5818d3326caead725855951d54e4399ccd4bcf973323e6dcb93283828fae4a030290565b63ae47f7025f526004601cfd5b8181029291811582850482141783021561294c575050900490565b807fffffffffffffffffffffffffffffffffffffffffffffffffffffffffffffffff8492840985811086019003920990825f03831692818111156129245783900480600302600218808202600203028082026002030280820260020302808202600203028082026002030280910260020302936001848483030494805f030401921190030217029056fea2646970667358221220d2e206925803e73fd5b6ae8dcc52623ba42889d02f4e1280682913c197f48bb464736f6c634300081e0033","linkReferences":{}},"methodIdentifiers":{"DOMAIN_SEPARATOR()":"3644e515","allowance(address,address)":"dd62ed3e","approve(address,uint256)":"095ea7b3","asset()":"38d52e0f","balanceOf(address)":"70a08231","computeLastBatchFees()":"cf0597ed","contractName()":"75d0c0dc","contractVersion()":"a0a8e460","convertToAssets(uint256)":"07a2d13a","convertToAssetsWithTotals(uint256,uint256)":"9ff217fe","convertToShares(uint256)":"c6e6f592","convertToSharesWithTotals(uint256,uint256)":"ef3066d4","decimals()":"313ce567","extsload(bytes32)":"1e2eaeaf","extsload(bytes32,uint256)":"35fd631a","extsload(bytes32[])":"dbd035ff","getBatchId()":"7b27b9ee","getBatchIdInfo(bytes32)":"aa2e3343","getBatchReceiver(bytes32)":"befe3170","getCurrentBatchInfo()":"72674eb6","getSafeBatchId()":"5308394f","getSafeBatchReceiver(bytes32)":"5e3d5f7f","getStakeRequest(bytes32)":"ac219343","getTotalPendingStake()":"4389a279","getUnstakeRequest(bytes32)":"a625e721","getUserRequests(address)":"b337cf74","hurdleRate()":"8297f431","isBatchClosed()":"78e36ac9","isBatchSettled()":"b5e9f485","isHardHurdleRate()":"07fee228","lastFeesChargedManagement()":"8d5c009a","lastFeesChargedPerformance()":"d0395ddb","managementFee()":"a6f7f5d6","name()":"06fdde03","netSharePrice()":"b1791c0d","nextManagementFeeTimestamp()":"52b09688","nextPerformanceFeeTimestamp()":"77f00194","nonces(address)":"7ecebe00","performanceFee()":"87788782","permit(address,address,uint256,uint256,uint8,bytes32,bytes32)":"d505accf","registry()":"7b103999","selectors()":"6e25b978","sharePrice()":"87269729","sharePriceWatermark()":"34a44bd5","symbol()":"95d89b41","totalAssets()":"01e1d114","totalNetAssets()":"890a8c4f","totalSupply()":"18160ddd","transfer(address,uint256)":"a9059cbb","transferFrom(address,address,uint256)":"23b872dd","underlyingAsset()":"7158da7c"},"storageLayout":{"storage":[],"types":{}},"id":70}