{"abi":[{"type":"constructor","inputs":[],"stateMutability":"nonpayable"},{"type":"function","name":"burn","inputs":[{"name":"requestId","type":"bytes32","internalType":"bytes32"}],"outputs":[],"stateMutability":"payable"},{"type":"function","name":"cancelRequest","inputs":[{"name":"requestId","type":"bytes32","internalType":"bytes32"}],"outputs":[],"stateMutability":"payable"},{"type":"function","name":"closeBatch","inputs":[{"name":"_batchId","type":"bytes32","internalType":"bytes32"},{"name":"_create","type":"bool","internalType":"bool"}],"outputs":[],"stateMutability":"nonpayable"},{"type":"function","name":"contractName","inputs":[],"outputs":[{"name":"","type":"string","internalType":"string"}],"stateMutability":"pure"},{"type":"function","name":"contractVersion","inputs":[],"outputs":[{"name":"","type":"string","internalType":"string"}],"stateMutability":"pure"},{"type":"function","name":"createBatchReceiver","inputs":[{"name":"_batchId","type":"bytes32","internalType":"bytes32"}],"outputs":[{"name":"","type":"address","internalType":"address"}],"stateMutability":"nonpayable"},{"type":"function","name":"createNewBatch","inputs":[{"name":"asset_","type":"address","internalType":"address"}],"outputs":[{"name":"","type":"bytes32","internalType":"bytes32"}],"stateMutability":"nonpayable"},{"type":"function","name":"extsload","inputs":[{"name":"slot","type":"bytes32","internalType":"bytes32"}],"outputs":[{"name":"","type":"bytes32","internalType":"bytes32"}],"stateMutability":"view"},{"type":"function","name":"extsload","inputs":[{"name":"startSlot","type":"bytes32","internalType":"bytes32"},{"name":"nSlots","type":"uint256","internalType":"uint256"}],"outputs":[{"name":"","type":"bytes32[]","internalType":"bytes32[]"}],"stateMutability":"view"},{"type":"function","name":"extsload","inputs":[{"name":"slots","type":"bytes32[]","internalType":"bytes32[]"}],"outputs":[{"name":"","type":"bytes32[]","internalType":"bytes32[]"}],"stateMutability":"view"},{"type":"function","name":"getBatchId","inputs":[{"name":"asset_","type":"address","internalType":"address"}],"outputs":[{"name":"","type":"bytes32","internalType":"bytes32"}],"stateMutability":"view"},{"type":"function","name":"getBatchInfo","inputs":[{"name":"batchId_","type":"bytes32","internalType":"bytes32"}],"outputs":[{"name":"","type":"tuple","internalType":"struct IkMinter.BatchInfo","components":[{"name":"asset","type":"address","internalType":"address"},{"name":"batchReceiver","type":"address","internalType":"address"},{"name":"mintedInBatch","type":"uint128","internalType":"uint128"},{"name":"burnedInBatch","type":"uint128","internalType":"uint128"},{"name":"isClosed","type":"bool","internalType":"bool"},{"name":"isSettled","type":"bool","internalType":"bool"},{"name":"batchId","type":"bytes32","internalType":"bytes32"}]}],"stateMutability":"view"},{"type":"function","name":"getBatchReceiver","inputs":[{"name":"batchId_","type":"bytes32","internalType":"bytes32"}],"outputs":[{"name":"","type":"address","internalType":"address"}],"stateMutability":"view"},{"type":"function","name":"getBurnRequest","inputs":[{"name":"requestId","type":"bytes32","internalType":"bytes32"}],"outputs":[{"name":"","type":"tuple","internalType":"struct IkMinter.BurnRequest","components":[{"name":"user","type":"address","internalType":"address"},{"name":"amount","type":"uint256","internalType":"uint256"},{"name":"asset","type":"address","internalType":"address"},{"name":"requestTimestamp","type":"uint64","internalType":"uint64"},{"name":"status","type":"uint8","internalType":"enum IkMinter.RequestStatus"},{"name":"batchId","type":"bytes32","internalType":"bytes32"},{"name":"recipient","type":"address","internalType":"address"}]}],"stateMutability":"view"},{"type":"function","name":"getCurrentBatchNumber","inputs":[{"name":"asset_","type":"address","internalType":"address"}],"outputs":[{"name":"","type":"uint256","internalType":"uint256"}],"stateMutability":"view"},{"type":"function","name":"getRequestCounter","inputs":[],"outputs":[{"name":"","type":"uint256","internalType":"uint256"}],"stateMutability":"view"},{"type":"function","name":"getTotalLockedAssets","inputs":[{"name":"asset","type":"address","internalType":"address"}],"outputs":[{"name":"","type":"uint256","internalType":"uint256"}],"stateMutability":"view"},{"type":"function","name":"getUserRequests","inputs":[{"name":"user","type":"address","internalType":"address"}],"outputs":[{"name":"","type":"bytes32[]","internalType":"bytes32[]"}],"stateMutability":"view"},{"type":"function","name":"hasActiveBatch","inputs":[{"name":"asset_","type":"address","internalType":"address"}],"outputs":[{"name":"","type":"bool","internalType":"bool"}],"stateMutability":"view"},{"type":"function","name":"initialize","inputs":[{"name":"registry_","type":"address","internalType":"address"}],"outputs":[],"stateMutability":"nonpayable"},{"type":"function","name":"isPaused","inputs":[],"outputs":[{"name":"","type":"bool","internalType":"bool"}],"stateMutability":"view"},{"type":"function","name":"mint","inputs":[{"name":"asset_","type":"address","internalType":"address"},{"name":"to_","type":"address","internalType":"address"},{"name":"amount_","type":"uint256","internalType":"uint256"}],"outputs":[],"stateMutability":"payable"},{"type":"function","name":"proxiableUUID","inputs":[],"outputs":[{"name":"","type":"bytes32","internalType":"bytes32"}],"stateMutability":"view"},{"type":"function","name":"registry","inputs":[],"outputs":[{"name":"","type":"address","internalType":"address"}],"stateMutability":"view"},{"type":"function","name":"requestBurn","inputs":[{"name":"asset_","type":"address","internalType":"address"},{"name":"to_","type":"address","internalType":"address"},{"name":"amount_","type":"uint256","internalType":"uint256"}],"outputs":[{"name":"requestId","type":"bytes32","internalType":"bytes32"}],"stateMutability":"payable"},{"type":"function","name":"rescueAssets","inputs":[{"name":"asset_","type":"address","internalType":"address"},{"name":"to_","type":"address","internalType":"address"},{"name":"amount_","type":"uint256","internalType":"uint256"}],"outputs":[],"stateMutability":"payable"},{"type":"function","name":"rescueReceiverAssets","inputs":[{"name":"batchReceiver","type":"address","internalType":"address"},{"name":"asset_","type":"address","internalType":"address"},{"name":"to_","type":"address","internalType":"address"},{"name":"amount_","type":"uint256","internalType":"uint256"}],"outputs":[],"stateMutability":"nonpayable"},{"type":"function","name":"setPaused","inputs":[{"name":"paused_","type":"bool","internalType":"bool"}],"outputs":[],"stateMutability":"nonpayable"},{"type":"function","name":"settleBatch","inputs":[{"name":"_batchId","type":"bytes32","internalType":"bytes32"}],"outputs":[],"stateMutability":"nonpayable"},{"type":"function","name":"upgradeToAndCall","inputs":[{"name":"newImplementation","type":"address","internalType":"address"},{"name":"data","type":"bytes","internalType":"bytes"}],"outputs":[],"stateMutability":"payable"},{"type":"event","name":"BatchClosed","inputs":[{"name":"batchId","type":"bytes32","indexed":true,"internalType":"bytes32"}],"anonymous":false},{"type":"event","name":"BatchCreated","inputs":[{"name":"asset","type":"address","indexed":true,"internalType":"address"},{"name":"batchId","type":"bytes32","indexed":true,"internalType":"bytes32"},{"name":"batchNumber","type":"uint256","indexed":false,"internalType":"uint256"}],"anonymous":false},{"type":"event","name":"BatchReceiverCreated","inputs":[{"name":"receiver","type":"address","indexed":true,"internalType":"address"},{"name":"batchId","type":"bytes32","indexed":true,"internalType":"bytes32"}],"anonymous":false},{"type":"event","name":"BatchSettled","inputs":[{"name":"batchId","type":"bytes32","indexed":true,"internalType":"bytes32"}],"anonymous":false},{"type":"event","name":"BurnRequestCreated","inputs":[{"name":"requestId","type":"bytes32","indexed":true,"internalType":"bytes32"},{"name":"user","type":"address","indexed":true,"internalType":"address"},{"name":"kToken","type":"address","indexed":true,"internalType":"address"},{"name":"amount","type":"uint256","indexed":false,"internalType":"uint256"},{"name":"recipient","type":"address","indexed":false,"internalType":"address"},{"name":"batchId","type":"bytes32","indexed":false,"internalType":"bytes32"}],"anonymous":false},{"type":"event","name":"Burned","inputs":[{"name":"requestId","type":"bytes32","indexed":true,"internalType":"bytes32"}],"anonymous":false},{"type":"event","name":"Cancelled","inputs":[{"name":"requestId","type":"bytes32","indexed":true,"internalType":"bytes32"}],"anonymous":false},{"type":"event","name":"ContractInitialized","inputs":[{"name":"registry","type":"address","indexed":true,"internalType":"address"}],"anonymous":false},{"type":"event","name":"Initialized","inputs":[{"name":"version","type":"uint64","indexed":false,"internalType":"uint64"}],"anonymous":false},{"type":"event","name":"Minted","inputs":[{"name":"to","type":"address","indexed":true,"internalType":"address"},{"name":"amount","type":"uint256","indexed":false,"internalType":"uint256"},{"name":"batchId","type":"bytes32","indexed":false,"internalType":"bytes32"}],"anonymous":false},{"type":"event","name":"Paused","inputs":[{"name":"paused_","type":"bool","indexed":false,"internalType":"bool"}],"anonymous":false},{"type":"event","name":"RescuedAssets","inputs":[{"name":"asset_","type":"address","indexed":true,"internalType":"address"},{"name":"to_","type":"address","indexed":true,"internalType":"address"},{"name":"amount_","type":"uint256","indexed":false,"internalType":"uint256"}],"anonymous":false},{"type":"event","name":"RescuedETH","inputs":[{"name":"to_","type":"address","indexed":true,"internalType":"address"},{"name":"amount_","type":"uint256","indexed":false,"internalType":"uint256"}],"anonymous":false},{"type":"event","name":"Upgraded","inputs":[{"name":"implementation","type":"address","indexed":true,"internalType":"address"}],"anonymous":false},{"type":"error","name":"InvalidInitialization","inputs":[]},{"type":"error","name":"NotInitializing","inputs":[]},{"type":"error","name":"Reentrancy","inputs":[]},{"type":"error","name":"UnauthorizedCallContext","inputs":[]},{"type":"error","name":"UpgradeFailed","inputs":[]}],"bytecode":{"object":"0x60a080604052346099573060805263409feecd195460018116608c5760011c6002600160401b0319016048575b614312908161009e82396080518181816113d901526117730152f35b6002600160411b0363409feecd19556001600160401b0360209081527fc7f505b2f371ae2175ee4913f4499e1f2633a7b5936321eed1cdaeb6115181d29080a1602c565b63f92ee8a95f526004601cfd5b5f80fdfe60806040526004361015610011575f80fd5b5f5f3560e01c80630675e5751461285457806308a1eee11461249557806309acd2e01461233157806316c38b3c146121ae5780631e2eaeaf1461219157806335fd631a1461213a578063369e9c33146118f0578063472a4ec21461189b5780634f1ef2861461171c578063501255461461143457806352d1902d146113c55780636ec6787914611377578063753207c71461126a57806375d0c0dc146112115780637b103999146111e55780638a464628146111905780638b7cb30414611132578063a0a8e460146110d5578063a2785f0b1461108e578063b187bd2614611049578063b269002514611014578063b337cf7414610e7f578063bb507ab914610d4f578063befe317014610cfa578063c4d66de814610a09578063c6c3bbe614610600578063d01b5de41461038c578063dbd035ff146102eb578063e6432396146102bd5763eeb8f2b514610164575f80fd5b346102ba5760206003193601126102ba5760043561018133613644565b8082527fd0574379115d2b8497bfd9020aa9e0becaffc59e5509520aa5fe8c763e40d0066020526101f460ff600360408520015416604051906101c5604083612a58565b600382527f4d313400000000000000000000000000000000000000000000000000000000006020830152612b0a565b8082527fd0574379115d2b8497bfd9020aa9e0becaffc59e5509520aa5fe8c763e40d00660205261023b60ff600360408520015460081c1615610235612ca5565b90612b0a565b8082527fd0574379115d2b8497bfd9020aa9e0becaffc59e5509520aa5fe8c763e40d006602052600360408320016101007fffffffffffffffffffffffffffffffffffffffffffffffffffffffffffff00ff8254161790557f9c389dadeacea6f1c7898215a4936003cf433e03f53e10e6b07375d0ced6b7798280a280f35b80fd5b50346102ba5760206003193601126102ba5760206102e16102dc612977565b612d1b565b6040519015158152f35b50346102ba5760206003193601126102ba576004359067ffffffffffffffff82116102ba57366023830112156102ba5781600401359167ffffffffffffffff8311610388578260051b9136602484840101116102ba575060408051809460208252602082015201918301916020806024604086019401925b833554815201910190848382101561037f575060208091610363565b60408186030190f35b5080fd5b506103963661298d565b90916103ac6103a433613929565b610235612bc2565b836001600160a01b038416936040926103fc84516103ca8682612a58565b600281527f4b350000000000000000000000000000000000000000000000000000000000006020820152871515612b0a565b6001600160a01b0381169081610550575050818085819381151580610546575b61042890610235612ce0565b5af13d15610518573d67ffffffffffffffff81116104eb57916104e37f63b8c8e180bc85c19daef23e2bb787fb49672d3a9ecde24409c18ccb1accb5d194928460207fffffffffffffffffffffffffffffffffffffffffffffffffffffffffffffffe0601f82980116019061049f85519283612a58565b815288863d92013e5b8251906104b58483612a58565b600282527f4b3700000000000000000000000000000000000000000000000000000000000086830152612b0a565b51908152a280f35b6024867f4e487b710000000000000000000000000000000000000000000000000000000081526041600452fd5b916020916104e37f63b8c8e180bc85c19daef23e2bb787fb49672d3a9ecde24409c18ccb1accb5d1946104a8565b504782111561041c565b60209350857f552c8f8dc30f2786e14004d98595afcc1c0ea1f552b86e86f64a2da74761eaab95929693826105c661058a6105e0956139a0565b158651906105988883612a58565b600282527f4b380000000000000000000000000000000000000000000000000000000000008a830152612b0a565b821515806105e8575b6105db90610235612ce0565b6135ea565b51908152a380f35b506105db6105f6308361320d565b84111590506105cf565b5061060a3661298d565b9190610614612d96565b61061c612dc5565b61062533612e77565b61062e8261317f565b610637836131c9565b6001600160a01b0381169261065561064d612b87565b851515612b0a565b61065e8361308f565b91610699846001600160a01b03165f527fd0574379115d2b8497bfd9020aa9e0becaffc59e5509520aa5fe8c763e40d00560205260405f2090565b549283156109f5575b602493946106ae613505565b6106ba858233856132cd565b7fffffffffffffffffffffffffffffffff000000000000000000000000000000006106e48661323b565b888b527fd0574379115d2b8497bfd9020aa9e0becaffc59e5509520aa5fe8c763e40d006602052600260408c2001906fffffffffffffffffffffffffffffffff610732835492828416612c38565b169283911617905560206001600160a01b0361074c613276565b16604051988980927fe6ed859d0000000000000000000000000000000000000000000000000000000082526001600160a01b03881660048301525afa9687156109ea578a976109b0575b506107dc906040978851916107ab8a84612a58565b600383527f4d3132000000000000000000000000000000000000000000000000000000000060208401521115612b0a565b610816826001600160a01b03165f527fd0574379115d2b8497bfd9020aa9e0becaffc59e5509520aa5fe8c763e40d00160205260405f2090565b805490868201809211610983575588939291906001600160a01b0316803b156109525786517fa8412deb0000000000000000000000000000000000000000000000000000000081526001600160a01b03929092166004830152602482018690526044820188905284908290606490829084905af1801561097957908491610964575b50506001600160a01b0316803b156109605784517f40c10f190000000000000000000000000000000000000000000000000000000081526001600160a01b039290921660048301526024820184905282908290604490829084905af180156109565761093d575b50507fc263b302aec62d29105026245f19e16f8e0137066ccd4a8bd941f716bd4096bb9282519182526020820152a280688000000000ab143c065d80f35b8161094791612a58565b61095257845f6108ff565b8480fd5b84513d84823e3d90fd5b8280fd5b8161096e91612a58565b61096057825f610898565b86513d86823e3d90fd5b60248b7f4e487b710000000000000000000000000000000000000000000000000000000081526011600452fd5b9096506020813d6020116109e2575b816109cc60209383612a58565b810103126109de5751956107dc610796565b5f80fd5b3d91506109bf565b6040513d8c823e3d90fd5b60249350610a028561375e565b93506106a2565b50346102ba5760206003193601126102ba57610a23612977565b7fffffffffffffffffffffffffffffffffffffffffffffffffffffffffbf60113280548060038355610cce575b50906001600160a01b03169081151591610a71610a6b612b87565b84612b0a565b74010000000000000000000000000000000000000000817fffffffffffffffffffff000000000000000000000000000000000000000000007fe91688684975c4d7d54a65dd96da5d4dcbb54b8971c046d5351d3c111e43a80054610b53604097610b178951610ae08b82612a58565b600281527f4b31000000000000000000000000000000000000000000000000000000000000602082015260ff8560a01c1615612b0a565b885190610b248a83612a58565b600282527f4b320000000000000000000000000000000000000000000000000000000000006020830152612b0a565b1617177fe91688684975c4d7d54a65dd96da5d4dcbb54b8971c046d5351d3c111e43a8005582516108e18082019082821067ffffffffffffffff831117610ca15760209183916139fc833930815203019085f08015610c9457927fffffffff0000000000000000000000000000000000000000ffffffffffffffff7bffffffffffffffffffffffffffffffffffffffff000000000000000084957fd0574379115d2b8497bfd9020aa9e0becaffc59e5509520aa5fe8c763e40d00054931b169116177fd0574379115d2b8497bfd9020aa9e0becaffc59e5509520aa5fe8c763e40d000557fb8bb5a08c752924168166e254455ca6708ef2ac4cfd39bba39eb5a5b89f0cbd68480a2610c63575080f35b6002905560016020527fc7f505b2f371ae2175ee4913f4499e1f2633a7b5936321eed1cdaeb6115181d2602080a180f35b50505051903d90823e3d90fd5b6024877f4e487b710000000000000000000000000000000000000000000000000000000081526041600452fd5b600181811c14303b1015610ced5760ff1b1b6001600160a01b03610a50565b63f92ee8a984526004601cfd5b50346102ba5760206003193601126102ba576001600160a01b036001604060209360043581527fd0574379115d2b8497bfd9020aa9e0becaffc59e5509520aa5fe8c763e40d006855220015416604051908152f35b50346102ba5760406003193601126102ba57600435602435801515810361096057610d79336136fb565b8183527fd0574379115d2b8497bfd9020aa9e0becaffc59e5509520aa5fe8c763e40d006602052610db760ff60036040862001541615610235612c6a565b8183527fd0574379115d2b8497bfd9020aa9e0becaffc59e5509520aa5fe8c763e40d0066020526001600160a01b03604084205416908284527fd0574379115d2b8497bfd9020aa9e0becaffc59e5509520aa5fe8c763e40d0066020526003604085200160017fffffffffffffffffffffffffffffffffffffffffffffffffffffffffffffff00825416179055610e71575b507f94d067deddb78ebf8fb59c4ec96ab664ecbe2d61153c22e2648e4deb412534948280a280f35b610e7a9061375e565b610e49565b50346102ba5760206003193601126102ba57610ed2610e9c612977565b6001600160a01b03165f527fd0574379115d2b8497bfd9020aa9e0becaffc59e5509520aa5fe8c763e40d00360205260405f2090565b6318fb58646004528152602481208019549060405191826020018115610f96575060011c90835b828110610f715750505b80825260051b810190602082019283604052604083016020855282518091526020606085019301915b818110610f5b578484037fffffffffffffffffffffffffffffffffffffffffffffffffffffffffffffffe00186f35b8251845260209384019390920191600101610f2c565b8060019183015468fbb67fda52d4bfb8bf8114150260208260051b8701015201610ef9565b909180549182610fa9575b505050610f03565b9091925060019268fbb67fda52d4bfb8bf8114150290528181015480610fd0575b80610fa1565b68fbb67fda52d4bfb8bf81141502604084015260029081015490915080610ff8575b80610fca565b68fbb67fda52d4bfb8bf8114150260608301525060035f610ff2565b50346102ba5760206003193601126102ba576020611041611033612977565b61103c336136fb565b61375e565b604051908152f35b50346102ba57806003193601126102ba57602060ff7fe91688684975c4d7d54a65dd96da5d4dcbb54b8971c046d5351d3c111e43a8005460a81c166040519015158152f35b50346102ba57806003193601126102ba57602067ffffffffffffffff7fd0574379115d2b8497bfd9020aa9e0becaffc59e5509520aa5fe8c763e40d0005416604051908152f35b50346102ba57806003193601126102ba575061112e6040516110f8604082612a58565b600581527f312e302e300000000000000000000000000000000000000000000000000000006020820152604051918291826129c7565b0390f35b50346102ba5760206003193601126102ba576020611187611151612977565b6001600160a01b03165f527fd0574379115d2b8497bfd9020aa9e0becaffc59e5509520aa5fe8c763e40d00160205260405f2090565b54604051908152f35b50346102ba5760206003193601126102ba5760206111876111af612977565b6001600160a01b03165f527fd0574379115d2b8497bfd9020aa9e0becaffc59e5509520aa5fe8c763e40d00560205260405f2090565b50346102ba57806003193601126102ba5760206001600160a01b03611208613276565b16604051908152f35b50346102ba57806003193601126102ba575061112e604051611234604082612a58565b600781527f6b4d696e746572000000000000000000000000000000000000000000000000006020820152604051918291826129c7565b50346102ba5760206003193601126102ba57604060e091611289612a99565b5060043581527fd0574379115d2b8497bfd9020aa9e0becaffc59e5509520aa5fe8c763e40d006602052206040516112c081612a0f565b6001600160a01b03825416918282526001600160a01b0360018201541690602083019182526fffffffffffffffffffffffffffffffff600282015481604086018183168152606087019260801c83526001600160a01b0360038601549660c0600460808b019860ff8b1615158a5260ff60a08d019b60081c1615158b5201549901988952604051998a52511660208901525116604087015251166060850152511515608084015251151560a08301525160c0820152f35b50346102ba5760206003193601126102ba57602090611394612d96565b61139d33613644565b6113a8600435613334565b90688000000000ab143c065d6001600160a01b0360405191168152f35b50346102ba57806003193601126102ba57307f0000000000000000000000000000000000000000000000000000000000000000036114275760206040517f360894a13ba1a3210667c828492db98dca3e2076cc3735a920a3ca505d382bbc8152f35b639f03a02690526004601cfd5b5060206003193601126102ba5760043561144c612d96565b611454612dc5565b61145d33612e77565b8082527fd0574379115d2b8497bfd9020aa9e0becaffc59e5509520aa5fe8c763e40d002602052604082206114e06114d8836114d36001600160a01b038554166001600160a01b03165f527fd0574379115d2b8497bfd9020aa9e0becaffc59e5509520aa5fe8c763e40d00360205260405f2090565b612f05565b610235612acf565b600281019060ff825460e01c1660038110156116ef579061150d6115e792611506612b4c565b9015612b0a565b7c02000000000000000000000000000000000000000000000000000000007fffffff00ffffffffffffffffffffffffffffffffffffffffffffffffffffffff8454161783556115e16115c96001600160a01b036003840195865489527fd0574379115d2b8497bfd9020aa9e0becaffc59e5509520aa5fe8c763e40d0066020526115c2600360408b2001546115ad6115a3612c6a565b60ff831615612b0a565b60ff6115b7612ca5565b9160081c1615612b0a565b541661308f565b60016001600160a01b038454169301928354916135ea565b5461323b565b905483527fd0574379115d2b8497bfd9020aa9e0becaffc59e5509520aa5fe8c763e40d00660205260026040842001906fffffffffffffffffffffffffffffffff825460801c91169003906fffffffffffffffffffffffffffffffff82116116c2579061168f91906fffffffffffffffffffffffffffffffff7fffffffffffffffffffffffffffffffff0000000000000000000000000000000083549260801b169116179055565b7fbaa1eb22f2a492ba1a5fea61b8df4d27c6c8b5f3971e63bb58fa14ff72eedb708280a280688000000000ab143c065d80f35b6024847f4e487b710000000000000000000000000000000000000000000000000000000081526011600452fd5b6024857f4e487b710000000000000000000000000000000000000000000000000000000081526021600452fd5b5060406003193601126102ba57611731612977565b6024359067ffffffffffffffff821161096057366023830112156109605781600401359067ffffffffffffffff821161189757366024838501011161189757307f00000000000000000000000000000000000000000000000000000000000000001461188a576001600160a01b03906117b46117ac33613929565b610235612e3c565b166117c86117c0612b87565b821515612b0a565b3d84526352d1902d6001527f360894a13ba1a3210667c828492db98dca3e2076cc3735a920a3ca505d382bbc602060016004601d855afa510361187c578391817fbc7cd75a20ee27fd9adebab32041f755214dbc6bffa90cc0225b39da2e5c2d3b8480a280827f360894a13ba1a3210667c828492db98dca3e2076cc3735a920a3ca505d382bbc55611858578280f35b806024604051950185378338925af415611873578181808280f35b903d90823e3d90fd5b6355299b496001526004601dfd5b639f03a02684526004601cfd5b8380fd5b50346102ba5760206003193601126102ba5760206111876118ba612977565b6001600160a01b03165f527fd0574379115d2b8497bfd9020aa9e0becaffc59e5509520aa5fe8c763e40d00460205260405f2090565b506118fa3661298d565b9092611904612d96565b61190c612dc5565b61191533612e77565b61191e8361317f565b611927826131c9565b6001600160a01b0384169161194561193d612b87565b841515612b0a565b61197f846001600160a01b03165f527fd0574379115d2b8497bfd9020aa9e0becaffc59e5509520aa5fe8c763e40d00560205260405f2090565b541515926119c56040948551906119968783612a58565b600382527f4d313500000000000000000000000000000000000000000000000000000000006020830152612b0a565b6119ce8561308f565b95611a1b836119dd338a61320d565b10158651906119ec8883612a58565b600282527f4d330000000000000000000000000000000000000000000000000000000000006020830152612b0a565b7fd0574379115d2b8497bfd9020aa9e0becaffc59e5509520aa5fe8c763e40d0005467ffffffffffffffff81166001810180911161210d57611adb9167ffffffffffffffff611a8a7fffffffffffffffffffffffffffffffffffffffffffffffff0000000000000000936132af565b1691829116177fd0574379115d2b8497bfd9020aa9e0becaffc59e5509520aa5fe8c763e40d000554285853092909160a0949260405194855260208501526040840152606083015260808201522090565b95611b16816001600160a01b03165f527fd0574379115d2b8497bfd9020aa9e0becaffc59e5509520aa5fe8c763e40d00560205260405f2090565b5491611b218561323b565b8387527fd0574379115d2b8497bfd9020aa9e0becaffc59e5509520aa5fe8c763e40d006602052611ba0611b5f60028a8a200192835460801c612c38565b82546fffffffffffffffffffffffffffffffff16608082901b7fffffffffffffffffffffffffffffffff000000000000000000000000000000001617909255565b6001600160a01b03611bb0613276565b16908851907fa05a0e4a0000000000000000000000000000000000000000000000000000000082526020826024816001600160a01b038916968760048301525afa91821561210357928a889388938c9687926120b3575b50906fffffffffffffffffffffffffffffffff8392611c2b611c5d95519485612a58565b600384527f4d313300000000000000000000000000000000000000000000000000000000006020850152161115612b0a565b8b8b8a6001600160a01b0380611c72426132af565b93805199611c7f8b612a0f565b338b5260208b01948552818b0197885267ffffffffffffffff60608c019616865260808b019681885260a08c01998a5260c08c019a8b5281527fd0574379115d2b8497bfd9020aa9e0becaffc59e5509520aa5fe8c763e40d00260205220985116167fffffffffffffffffffffffff00000000000000000000000000000000000000008854161787555160018701556001600160a01b038060028801945116167fffffffffffffffffffffffff0000000000000000000000000000000000000000845416178355517fffffffff0000000000000000ffffffffffffffffffffffffffffffffffffffff7bffffffffffffffff000000000000000000000000000000000000000084549260a01b1691161782555160038110156120865781547fffffff00ffffffffffffffffffffffffffffffffffffffffffffffffffffffff1660e09190911b7cff000000000000000000000000000000000000000000000000000000001617905551600383015551600490910180547fffffffffffffffffffffffff0000000000000000000000000000000000000000166001600160a01b03928316179055165f9081527fd0574379115d2b8497bfd9020aa9e0becaffc59e5509520aa5fe8c763e40d003602052604090206318fb58646004528552602485208768fbb67fda52d4bfb8bf8114612079578815612069575b811991825491816020528215611fce575b80895289892092835415611fb45750505050505b611ea98430338b6132cd565b611ec86001600160a01b03611ebd84613334565b161515610235612b87565b6001600160a01b03611ed8613505565b1690813b15611fb05786517f95f4042b0000000000000000000000000000000000000000000000000000000081526001600160a01b0391909116600482015260248101859052604481018390529085908290606490829084905af18015611fa657611f91575b507fed514ad31319b583788a1060958d24f4090599448acf2c255896d624c390509360606001600160a01b0360209989948951978852868c890152898801521694a4688000000000ab143c065d51908152f35b611f9c858092612a58565b611897575f611f3e565b86513d87823e3d90fd5b8580fd5b60011c8092015560010180915560011b6001179055611e9d565b915080548015612061578281146120585760018201805490811561204c57508381146120425760028301918254928315612035575084831461202a578a5260018b8b2055895260028a8a20558852600389892055600791611e89565b505050505050611e9d565b9495505050505055611e9d565b5050505050611e9d565b93945050505055611e9d565b50505050611e9d565b505550611e9d565b5068fbb67fda52d4bfb8bf611e78565b63f5a267f187526004601cfd5b60248b7f4e487b710000000000000000000000000000000000000000000000000000000081526021600452fd5b94509450505092506020813d6020116120fb575b816120d460209383612a58565b810103126109de57518892879287928c916fffffffffffffffffffffffffffffffff611c07565b3d91506120c7565b8a513d8b823e3d90fd5b6024867f4e487b710000000000000000000000000000000000000000000000000000000081526011600452fd5b50346102ba5760406003193601126102ba576024356004356040519160408360208152826020820152019060051b8301916001602060408501935b8354815201910190848382101561037f57506020600191612175565b50346102ba5760206003193601126102ba57602090600435548152f35b50346102ba5760206003193601126102ba576004358015158091036103885760249060206001600160a01b036121e2613276565b16604051938480927f2500f2b60000000000000000000000000000000000000000000000000000000082523360048301525afa908115612326576122546020927f0e2fb031ee032dc02d8011dc50b816eb450cf856abd8261680dac74f72165bd29486916122f9575b50610235612bc2565b7fe91688684975c4d7d54a65dd96da5d4dcbb54b8971c046d5351d3c111e43a8005461228d612281612bfd565b60ff8360a01c16612b0a565b7fffffffffffffffffffff00ffffffffffffffffffffffffffffffffffffffffff75ff0000000000000000000000000000000000000000008360a81b169116177fe91688684975c4d7d54a65dd96da5d4dcbb54b8971c046d5351d3c111e43a80055604051908152a180f35b6123199150843d861161231f575b6123118183612a58565b810190613167565b5f61224b565b503d612307565b6040513d85823e3d90fd5b50346102ba5760806003193601126102ba578061234c612977565b602435906001600160a01b03821680920361245a57604435906001600160a01b03821680920361247e576001600160a01b03168015158061248c575b80612483575b61239a90610235612b87565b803b1561247e578380916024604051809481937f25db13f10000000000000000000000000000000000000000000000000000000083528860048401525af190811561247357849161245e575b5050303b1561245a57604051917fd01b5de4000000000000000000000000000000000000000000000000000000008352600483015260248201526064356044820152818160648183305af1801561244f5761243e5750f35b8161244891612a58565b6102ba5780f35b6040513d84823e3d90fd5b5050fd5b8161246891612a58565b61245a57825f6123e6565b6040513d86823e3d90fd5b505050fd5b5081151561238e565b50821515612388565b5060206003193601126109de57600435906124ae612d96565b6124b6612dc5565b6124bf33612e77565b815f527fd0574379115d2b8497bfd9020aa9e0becaffc59e5509520aa5fe8c763e40d00260205260405f20916125366114d8826114d36001600160a01b038754166001600160a01b03165f527fd0574379115d2b8497bfd9020aa9e0becaffc59e5509520aa5fe8c763e40d00360205260405f2090565b6002830160ff815460e01c1660038110156128275761255d612556612b4c565b8215612b0a565b6125b86040916125a683516125728582612a58565b600281527f4d3700000000000000000000000000000000000000000000000000000000000060208201526001831415612b0a565b60026125b0612b4c565b911415612b0a565b7c01000000000000000000000000000000000000000000000000000000007fffffff00ffffffffffffffffffffffffffffffffffffffffffffffffffffffff8354161782556001850180546126476001600160a01b038554166001600160a01b03165f527fd0574379115d2b8497bfd9020aa9e0becaffc59e5509520aa5fe8c763e40d00160205260405f2090565b80549182039182116127fa5755600386019283545f527fd0574379115d2b8497bfd9020aa9e0becaffc59e5509520aa5fe8c763e40d0066020526001600160a01b036126aa81806001875f20015416936115c26126a2612b87565b861515612b0a565b16825490803b156109de5784517f9dc29fac00000000000000000000000000000000000000000000000000000000815230600482015260248101929092525f908290604490829084905af180156127f0576127ce575b506001600160a01b03600487989796970154169154935490803b15611fb05783517f5cd763540000000000000000000000000000000000000000000000000000000081526001600160a01b03939093166004840152602483019490945260448201529183908390606490829084905af19081156127c557506127b0575b50688000000000ab143c065d7fa4d96315b6e943b24ddf4ebe21b360fb7312b42e8bb012fdab6439087f594c2c8280a280f35b816127ba91612a58565b61038857815f61277d565b513d84823e3d90fd5b6004979596505f6127de91612a58565b6001600160a01b035f96959750612700565b84513d5f823e3d90fd5b7f4e487b71000000000000000000000000000000000000000000000000000000005f52601160045260245ffd5b7f4e487b71000000000000000000000000000000000000000000000000000000005f52602160045260245ffd5b346109de5760206003193601126109de5761286d612a99565b506004355f527fd0574379115d2b8497bfd9020aa9e0becaffc59e5509520aa5fe8c763e40d00260205260405f206040516128a781612a0f565b6001600160a01b0382541681526001820154602082019081526002830154604083016001600160a01b038216815260ff606085019267ffffffffffffffff8160a01c16845260e01c1691608085019260038110156128275767ffffffffffffffff926001600160a01b0391855281600460038a01549960a08a019a8b520154169560c088019687528260405198511688525160208801525116604086015251166060840152519060038210156128275760e0936001600160a01b039260808501525160a0840152511660c0820152f35b600435906001600160a01b03821682036109de57565b60031960609101126109de576004356001600160a01b03811681036109de57906024356001600160a01b03811681036109de579060443590565b7fffffffffffffffffffffffffffffffffffffffffffffffffffffffffffffffe0601f602060409481855280519182918282880152018686015e5f8582860101520116010190565b60e0810190811067ffffffffffffffff821117612a2b57604052565b7f4e487b71000000000000000000000000000000000000000000000000000000005f52604160045260245ffd5b90601f7fffffffffffffffffffffffffffffffffffffffffffffffffffffffffffffffe0910116810190811067ffffffffffffffff821117612a2b57604052565b60405190612aa682612a0f565b5f60c0838281528260208201528260408201528260608201528260808201528260a08201520152565b60405190612ade604083612a58565b600282527f4d360000000000000000000000000000000000000000000000000000000000006020830152565b15612b125750565b612b48906040519182917f08c379a0000000000000000000000000000000000000000000000000000000008352600483016129c7565b0390fd5b60405190612b5b604083612a58565b600282527f4d350000000000000000000000000000000000000000000000000000000000006020830152565b60405190612b96604083612a58565b600382527f4d313000000000000000000000000000000000000000000000000000000000006020830152565b60405190612bd1604083612a58565b600282527f4b340000000000000000000000000000000000000000000000000000000000006020830152565b60405190612c0c604083612a58565b600282527f4b330000000000000000000000000000000000000000000000000000000000006020830152565b906fffffffffffffffffffffffffffffffff809116911601906fffffffffffffffffffffffffffffffff82116127fa57565b60405190612c79604083612a58565b600282527f4d310000000000000000000000000000000000000000000000000000000000006020830152565b60405190612cb4604083612a58565b600282527f4d320000000000000000000000000000000000000000000000000000000000006020830152565b60405190612cef604083612a58565b600282527f4b360000000000000000000000000000000000000000000000000000000000006020830152565b612d55906001600160a01b03165f527fd0574379115d2b8497bfd9020aa9e0becaffc59e5509520aa5fe8c763e40d00560205260405f2090565b548015612d91575f527fd0574379115d2b8497bfd9020aa9e0becaffc59e5509520aa5fe8c763e40d00660205260ff600360405f200154161590565b505f90565b688000000000ab143c065c612db35730688000000000ab143c065d565b688000000000ab143c065f526004601cfd5b612e3a7fe91688684975c4d7d54a65dd96da5d4dcbb54b8971c046d5351d3c111e43a80054612df5612281612bfd565b60ff60405191612e06604084612a58565b600283527f4d34000000000000000000000000000000000000000000000000000000000000602084015260a81c1615612b0a565b565b60405190612e4b604083612a58565b600282527f4d390000000000000000000000000000000000000000000000000000000000006020830152565b60206001600160a01b03602481612e8c613276565b169360405194859384927f0331df070000000000000000000000000000000000000000000000000000000084521660048301525afa8015612efa57612e3a915f91612edb575b50610235612e3c565b612ef4915060203d60201161231f576123118183612a58565b5f612ed2565b6040513d5f823e3d90fd5b91905f926318fb58646004525f5260245f209068fbb67fda52d4bfb8bf8114613063578015613053575b811980549182159260011c7fffffffffffffffffffffffffffffffffffffffffffffffffffffffffffffffff810191600183811b1794612ffa57856020525f5260405f20948554928315612ff1575f9798507fffffffffffffffffffffffffffffffffffffffffffffffffffffffffffffffff840103612fb4575b5050505555600190565b7fffffffffffffffffffffffffffffffffffffffffffffffffffffffffffffffff80849383010154928392010155855260408520555f8080612faa565b50505050505050565b949650505050506001928181541461303d578381018281541461302e57506002019081541461302957505f9150565b5f9055565b905f9250600201908154905555565b5f91506002848201918254815501908154905555565b5068fbb67fda52d4bfb8bf612f2f565b63f5a267f15f526004601cfd5b908160209103126109de57516001600160a01b03811681036109de5790565b9060206001600160a01b036024816130a5613276565b169460405195869384927fa3863a950000000000000000000000000000000000000000000000000000000084521660048301525afa918215612efa575f92613136575b50612e3a826001600160a01b0360405191613104604084612a58565b600383527f4b313000000000000000000000000000000000000000000000000000000000006020840152161515612b0a565b61315991925060203d602011613160575b6131518183612a58565b810190613070565b905f6130e8565b503d613147565b908160209103126109de575180151581036109de5790565b61318b612e3a916139a0565b6040519061319a604083612a58565b600282527f4d380000000000000000000000000000000000000000000000000000000000006020830152612b0a565b612e3a90604051906131dc604083612a58565b600382527f4d3131000000000000000000000000000000000000000000000000000000000060208301521515612b0a565b602460106020939284936014526f70a082310000000000000000000000005f525afa601f3d11166020510290565b700100000000000000000000000000000000811015613269576fffffffffffffffffffffffffffffffff1690565b6335278d125f526004601cfd5b6001600160a01b037fe91688684975c4d7d54a65dd96da5d4dcbb54b8971c046d5351d3c111e43a800546132ab612281612bfd565b1690565b680100000000000000008110156132695767ffffffffffffffff1690565b916040519360605260405260601b602c526f23b872dd000000000000000000000000600c5260205f6064601c82855af1908160015f51141615613316575b50505f606052604052565b3b153d171015613327575f8061330b565b637939f4245f526004601cfd5b5f90805f527fd0574379115d2b8497bfd9020aa9e0becaffc59e5509520aa5fe8c763e40d0066020526001600160a01b03600160405f20015416806134ff57506001600160a01b037fd0574379115d2b8497bfd9020aa9e0becaffc59e5509520aa5fe8c763e40d0005460401c166c5af43d3d93803e602a57fd5bf360215260145273602c3d8160093d39f33d3d3d3d363d3d37363d735f526035600c5ff09182156134f2575f60218190528281527fd0574379115d2b8497bfd9020aa9e0becaffc59e5509520aa5fe8c763e40d006602052604090206001810180547fffffffffffffffffffffffff0000000000000000000000000000000000000000166001600160a01b0386811691821790925591549192911690823b156109de57604051917f6910e33400000000000000000000000000000000000000000000000000000000835284600484015260248301525f8260448183875af18015612efa576134c0575b7fab4f7610e5c00cffa5a6e593b9882ad852a837202e97821d0501559ae3ad371b915080a390565b505f6134cb91612a58565b7fab4f7610e5c00cffa5a6e593b9882ad852a837202e97821d0501559ae3ad371b5f613498565b63301164255f526004601cfd5b91505090565b60249060206001600160a01b0361351a613276565b16604051938480927fa9c9a9180000000000000000000000000000000000000000000000000000000082527ff3bbf2dd6779e6fe2f6fb7cc20baa5140e39dd5b31ab45dfa7d512610b601f0d60048301525afa918215612efa575f926135c9575b50612e3a826001600160a01b0360405191613597604084612a58565b600283527f4b390000000000000000000000000000000000000000000000000000000000006020840152161515612b0a565b6135e391925060203d602011613160576131518183612a58565b905f61357b565b91906014526034526fa9059cbb0000000000000000000000005f5260205f6044601082855af1908160015f51141615613626575b50505f603452565b3b153d171015613637575f8061361e565b6390b8ec185f526004601cfd5b60249060206001600160a01b03613659613276565b16604051938480927fa9c9a9180000000000000000000000000000000000000000000000000000000082527ff3bbf2dd6779e6fe2f6fb7cc20baa5140e39dd5b31ab45dfa7d512610b601f0d60048301525afa908115612efa57612e3a925f926136da575b506001600160a01b03806136d0612e3c565b9316911614612b0a565b6136f491925060203d602011613160576131518183612a58565b905f6136be565b60206001600160a01b03602481613710613276565b169360405194859384927f541d55480000000000000000000000000000000000000000000000000000000084521660048301525afa8015612efa57612e3a915f91612edb5750610235612e3c565b6138739061379c816001600160a01b03165f527fd0574379115d2b8497bfd9020aa9e0becaffc59e5509520aa5fe8c763e40d00460205260405f2090565b600181540190556137dd816001600160a01b03165f527fd0574379115d2b8497bfd9020aa9e0becaffc59e5509520aa5fe8c763e40d00460205260405f2090565b547f03f65663309e35931e882d4a6333b2162942b349643e26d49d9f29570fa9889560206001600160a01b03841692613839844246843092909160a0949260405194855260208501526040840152606083015260808201522090565b809681966001600160a01b03165f527fd0574379115d2b8497bfd9020aa9e0becaffc59e5509520aa5fe8c763e40d00560205260405f2090565b55845f527fd0574379115d2b8497bfd9020aa9e0becaffc59e5509520aa5fe8c763e40d0068252600360405f20866004820155857fffffffffffffffffffffffff0000000000000000000000000000000000000000825416178155600181017fffffffffffffffffffffffff00000000000000000000000000000000000000008154169055017fffffffffffffffffffffffffffffffffffffffffffffffffffffffffffff00008154169055604051908152a390565b60206001600160a01b0360248161393e613276565b169360405194859384927f24d7806c0000000000000000000000000000000000000000000000000000000084521660048301525afa908115612efa575f91613984575090565b61399d915060203d60201161231f576123118183612a58565b90565b60206001600160a01b036024816139b5613276565b169360405194859384927fc87fa42a0000000000000000000000000000000000000000000000000000000084521660048301525afa908115612efa575f9161398457509056fe60a06040523461010157604051601f6108e138819003918201601f19168301916001600160401b038311848410176100ed5780849260209460405283398101031261010157516001600160a01b03811680820361010157604080519081016001600160401b038111828210176100ed5760405260028152602081019161211b60f11b8352156100b257826080526040516107db908161010682396080518181816101a701528181610530015261068b0152f35b60449060405192839162461bcd60e51b8352602060048401525180918160248501528484015e5f828201840152601f01601f19168101030190fd5b634e487b7160e01b5f52604160045260245ffd5b5f80fdfe6080806040526004361015610012575f80fd5b5f3560e01c9081631948f57f146105065750806325db13f1146102ff57806338d52e0f146102cd5780634972134a146102b05780635cd76354146101cb5780636910e3341461008f57639ed3c90c14610069575f80fd5b3461008b575f60031936011261008b57602060ff600254166040519015158152f35b5f80fd5b3461008b57604060031936011261008b5760043560243573ffffffffffffffffffffffffffffffffffffffff81169081810361008b577fffffffffffffffffffffffffffffffffffffffffffffffffffffffffffffff00600191610136600254916101316100fd6040610577565b600281527f4231000000000000000000000000000000000000000000000000000000000000602082015260ff8516156105bb565b61074f565b161760025581600155807fffffffffffffffffffffffff00000000000000000000000000000000000000005f5416175f556040519081527fab051ac83a2f3eb0d4acef0b16e45e830f6d966295150e6c9f1784f07be302cc602073ffffffffffffffffffffffffffffffffffffffff7f00000000000000000000000000000000000000000000000000000000000000001692a3005b3461008b57606060031936011261008b576101e4610554565b6024356101f03361063a565b610234600154604435146102046040610577565b90600282527f423200000000000000000000000000000000000000000000000000000000000060208301526105bb565b61023d816106b5565b6102468261074f565b610268818373ffffffffffffffffffffffffffffffffffffffff5f54166106f5565b7fb7acbf17ad94b6f877e46c72718225d94e660fd48f2e46f65942f2f4cce22027602073ffffffffffffffffffffffffffffffffffffffff805f5416946040519485521692a3005b3461008b575f60031936011261008b576020600154604051908152f35b3461008b575f60031936011261008b57602073ffffffffffffffffffffffffffffffffffffffff5f5416604051908152f35b602060031936011261008b57610313610554565b61031c3361063a565b73ffffffffffffffffffffffffffffffffffffffff81168061044157505047610344816106b5565b5f80808084335af13d15610438573d9067ffffffffffffffff821161040b578161039860207fffffffffffffffffffffffffffffffffffffffffffffffffffffffffffffffe0601f6103dd96011601610577565b9081525f60203d92013e5b6103ad6040610577565b90600282527f423400000000000000000000000000000000000000000000000000000000000060208301526105bb565b6040519081527f63b8c8e180bc85c19daef23e2bb787fb49672d3a9ecde24409c18ccb1accb5d160203392a2005b7f4e487b71000000000000000000000000000000000000000000000000000000005f52604160045260245ffd5b6103dd906103a3565b61049973ffffffffffffffffffffffffffffffffffffffff5f54168214156104696040610577565b90600282527f423500000000000000000000000000000000000000000000000000000000000060208301526105bb565b306014526f70a082310000000000000000000000005f526104d860208060246010865afa601f3d11166020510280936104d1826106b5565b33906106f5565b6040519182527f552c8f8dc30f2786e14004d98595afcc1c0ea1f552b86e86f64a2da74761eaab60203393a3005b3461008b575f60031936011261008b5760209073ffffffffffffffffffffffffffffffffffffffff7f0000000000000000000000000000000000000000000000000000000000000000168152f35b6004359073ffffffffffffffffffffffffffffffffffffffff8216820361008b57565b907fffffffffffffffffffffffffffffffffffffffffffffffffffffffffffffffe0601f604051930116820182811067ffffffffffffffff82111761040b57604052565b156105c35750565b60446020917fffffffffffffffffffffffffffffffffffffffffffffffffffffffffffffffe0601f6040519485937f08c379a00000000000000000000000000000000000000000000000000000000085528160048601528051918291826024880152018686015e5f85828601015201168101030190fd5b6106b3906106486040610577565b90600282527f4233000000000000000000000000000000000000000000000000000000000000602083015273ffffffffffffffffffffffffffffffffffffffff807f0000000000000000000000000000000000000000000000000000000000000000169116146105bb565b565b6106b3906106c36040610577565b90600282527f4237000000000000000000000000000000000000000000000000000000000000602083015215156105bb565b91906014526034526fa9059cbb0000000000000000000000005f5260205f6044601082855af1908160015f51141615610731575b50505f603452565b3b153d171015610742575f80610729565b6390b8ec185f526004601cfd5b6106b39073ffffffffffffffffffffffffffffffffffffffff6107726040610577565b91600283527f423600000000000000000000000000000000000000000000000000000000000060208401521615156105bb56fea26469706673582212209c86723cef2d2d0769672090287e2d44f7ddeedc7b5fb9c25b07a5ef3fef0bb864736f6c634300081e0033a2646970667358221220ebf0566d03db917bf4e7989c7bdb4960c80e857700e6c6e3b0971abf76a455e064736f6c634300081e0033","linkReferences":{}},"methodIdentifiers":{"burn(bytes32)":"08a1eee1","cancelRequest(bytes32)":"50125546","closeBatch(bytes32,bool)":"bb507ab9","contractName()":"75d0c0dc","contractVersion()":"a0a8e460","createBatchReceiver(bytes32)":"6ec67879","createNewBatch(address)":"b2690025","extsload(bytes32)":"1e2eaeaf","extsload(bytes32,uint256)":"35fd631a","extsload(bytes32[])":"dbd035ff","getBatchId(address)":"8a464628","getBatchInfo(bytes32)":"753207c7","getBatchReceiver(bytes32)":"befe3170","getBurnRequest(bytes32)":"0675e575","getCurrentBatchNumber(address)":"472a4ec2","getRequestCounter()":"a2785f0b","getTotalLockedAssets(address)":"8b7cb304","getUserRequests(address)":"b337cf74","hasActiveBatch(address)":"e6432396","initialize(address)":"c4d66de8","isPaused()":"b187bd26","mint(address,address,uint256)":"c6c3bbe6","proxiableUUID()":"52d1902d","registry()":"7b103999","requestBurn(address,address,uint256)":"369e9c33","rescueAssets(address,address,uint256)":"d01b5de4","rescueReceiverAssets(address,address,address,uint256)":"09acd2e0","setPaused(bool)":"16c38b3c","settleBatch(bytes32)":"eeb8f2b5","upgradeToAndCall(address,bytes)":"4f1ef286"},"storageLayout":{"storage":[],"types":{}},"id":61}