{"abi":[{"type":"constructor","inputs":[],"stateMutability":"nonpayable"},{"type":"function","name":"burn","inputs":[{"name":"requestId","type":"bytes32","internalType":"bytes32"}],"outputs":[],"stateMutability":"payable"},{"type":"function","name":"cancelRequest","inputs":[{"name":"requestId","type":"bytes32","internalType":"bytes32"}],"outputs":[],"stateMutability":"payable"},{"type":"function","name":"closeBatch","inputs":[{"name":"_batchId","type":"bytes32","internalType":"bytes32"},{"name":"_create","type":"bool","internalType":"bool"}],"outputs":[],"stateMutability":"nonpayable"},{"type":"function","name":"contractName","inputs":[],"outputs":[{"name":"","type":"string","internalType":"string"}],"stateMutability":"pure"},{"type":"function","name":"contractVersion","inputs":[],"outputs":[{"name":"","type":"string","internalType":"string"}],"stateMutability":"pure"},{"type":"function","name":"createBatchReceiver","inputs":[{"name":"_batchId","type":"bytes32","internalType":"bytes32"}],"outputs":[{"name":"","type":"address","internalType":"address"}],"stateMutability":"nonpayable"},{"type":"function","name":"createNewBatch","inputs":[{"name":"asset_","type":"address","internalType":"address"}],"outputs":[{"name":"","type":"bytes32","internalType":"bytes32"}],"stateMutability":"nonpayable"},{"type":"function","name":"extsload","inputs":[{"name":"slot","type":"bytes32","internalType":"bytes32"}],"outputs":[{"name":"","type":"bytes32","internalType":"bytes32"}],"stateMutability":"view"},{"type":"function","name":"extsload","inputs":[{"name":"startSlot","type":"bytes32","internalType":"bytes32"},{"name":"nSlots","type":"uint256","internalType":"uint256"}],"outputs":[{"name":"","type":"bytes32[]","internalType":"bytes32[]"}],"stateMutability":"view"},{"type":"function","name":"extsload","inputs":[{"name":"slots","type":"bytes32[]","internalType":"bytes32[]"}],"outputs":[{"name":"","type":"bytes32[]","internalType":"bytes32[]"}],"stateMutability":"view"},{"type":"function","name":"getBatchId","inputs":[{"name":"asset_","type":"address","internalType":"address"}],"outputs":[{"name":"","type":"bytes32","internalType":"bytes32"}],"stateMutability":"view"},{"type":"function","name":"getBatchInfo","inputs":[{"name":"batchId_","type":"bytes32","internalType":"bytes32"}],"outputs":[{"name":"","type":"tuple","internalType":"struct IkMinter.BatchInfo","components":[{"name":"asset","type":"address","internalType":"address"},{"name":"batchReceiver","type":"address","internalType":"address"},{"name":"mintedInBatch","type":"uint128","internalType":"uint128"},{"name":"burnedInBatch","type":"uint128","internalType":"uint128"},{"name":"isClosed","type":"bool","internalType":"bool"},{"name":"isSettled","type":"bool","internalType":"bool"},{"name":"batchId","type":"bytes32","internalType":"bytes32"}]}],"stateMutability":"view"},{"type":"function","name":"getBatchReceiver","inputs":[{"name":"batchId_","type":"bytes32","internalType":"bytes32"}],"outputs":[{"name":"","type":"address","internalType":"address"}],"stateMutability":"view"},{"type":"function","name":"getBurnRequest","inputs":[{"name":"requestId","type":"bytes32","internalType":"bytes32"}],"outputs":[{"name":"","type":"tuple","internalType":"struct IkMinter.BurnRequest","components":[{"name":"user","type":"address","internalType":"address"},{"name":"amount","type":"uint256","internalType":"uint256"},{"name":"asset","type":"address","internalType":"address"},{"name":"requestTimestamp","type":"uint64","internalType":"uint64"},{"name":"status","type":"uint8","internalType":"enum IkMinter.RequestStatus"},{"name":"batchId","type":"bytes32","internalType":"bytes32"},{"name":"recipient","type":"address","internalType":"address"}]}],"stateMutability":"view"},{"type":"function","name":"getCurrentBatchNumber","inputs":[{"name":"asset_","type":"address","internalType":"address"}],"outputs":[{"name":"","type":"uint256","internalType":"uint256"}],"stateMutability":"view"},{"type":"function","name":"getRequestCounter","inputs":[],"outputs":[{"name":"","type":"uint256","internalType":"uint256"}],"stateMutability":"view"},{"type":"function","name":"getTotalLockedAssets","inputs":[{"name":"asset","type":"address","internalType":"address"}],"outputs":[{"name":"","type":"uint256","internalType":"uint256"}],"stateMutability":"view"},{"type":"function","name":"getUserRequests","inputs":[{"name":"user","type":"address","internalType":"address"}],"outputs":[{"name":"","type":"bytes32[]","internalType":"bytes32[]"}],"stateMutability":"view"},{"type":"function","name":"hasActiveBatch","inputs":[{"name":"asset_","type":"address","internalType":"address"}],"outputs":[{"name":"","type":"bool","internalType":"bool"}],"stateMutability":"view"},{"type":"function","name":"initialize","inputs":[{"name":"registry_","type":"address","internalType":"address"}],"outputs":[],"stateMutability":"nonpayable"},{"type":"function","name":"isClosed","inputs":[{"name":"batchId_","type":"bytes32","internalType":"bytes32"}],"outputs":[{"name":"isClosed_","type":"bool","internalType":"bool"}],"stateMutability":"view"},{"type":"function","name":"isPaused","inputs":[],"outputs":[{"name":"","type":"bool","internalType":"bool"}],"stateMutability":"view"},{"type":"function","name":"mint","inputs":[{"name":"asset_","type":"address","internalType":"address"},{"name":"to_","type":"address","internalType":"address"},{"name":"amount_","type":"uint256","internalType":"uint256"}],"outputs":[],"stateMutability":"payable"},{"type":"function","name":"proxiableUUID","inputs":[],"outputs":[{"name":"","type":"bytes32","internalType":"bytes32"}],"stateMutability":"view"},{"type":"function","name":"registry","inputs":[],"outputs":[{"name":"","type":"address","internalType":"address"}],"stateMutability":"view"},{"type":"function","name":"requestBurn","inputs":[{"name":"asset_","type":"address","internalType":"address"},{"name":"to_","type":"address","internalType":"address"},{"name":"amount_","type":"uint256","internalType":"uint256"}],"outputs":[{"name":"requestId","type":"bytes32","internalType":"bytes32"}],"stateMutability":"payable"},{"type":"function","name":"rescueAssets","inputs":[{"name":"asset_","type":"address","internalType":"address"},{"name":"to_","type":"address","internalType":"address"},{"name":"amount_","type":"uint256","internalType":"uint256"}],"outputs":[],"stateMutability":"payable"},{"type":"function","name":"rescueReceiverAssets","inputs":[{"name":"batchReceiver","type":"address","internalType":"address"},{"name":"asset_","type":"address","internalType":"address"},{"name":"to_","type":"address","internalType":"address"},{"name":"amount_","type":"uint256","internalType":"uint256"}],"outputs":[],"stateMutability":"nonpayable"},{"type":"function","name":"setPaused","inputs":[{"name":"paused_","type":"bool","internalType":"bool"}],"outputs":[],"stateMutability":"nonpayable"},{"type":"function","name":"settleBatch","inputs":[{"name":"_batchId","type":"bytes32","internalType":"bytes32"}],"outputs":[],"stateMutability":"nonpayable"},{"type":"function","name":"upgradeToAndCall","inputs":[{"name":"newImplementation","type":"address","internalType":"address"},{"name":"data","type":"bytes","internalType":"bytes"}],"outputs":[],"stateMutability":"payable"},{"type":"event","name":"BatchClosed","inputs":[{"name":"batchId","type":"bytes32","indexed":true,"internalType":"bytes32"}],"anonymous":false},{"type":"event","name":"BatchCreated","inputs":[{"name":"asset","type":"address","indexed":true,"internalType":"address"},{"name":"batchId","type":"bytes32","indexed":true,"internalType":"bytes32"},{"name":"batchNumber","type":"uint256","indexed":false,"internalType":"uint256"}],"anonymous":false},{"type":"event","name":"BatchReceiverCreated","inputs":[{"name":"receiver","type":"address","indexed":true,"internalType":"address"},{"name":"batchId","type":"bytes32","indexed":true,"internalType":"bytes32"}],"anonymous":false},{"type":"event","name":"BatchSettled","inputs":[{"name":"batchId","type":"bytes32","indexed":true,"internalType":"bytes32"}],"anonymous":false},{"type":"event","name":"BurnRequestCreated","inputs":[{"name":"requestId","type":"bytes32","indexed":true,"internalType":"bytes32"},{"name":"user","type":"address","indexed":true,"internalType":"address"},{"name":"kToken","type":"address","indexed":true,"internalType":"address"},{"name":"amount","type":"uint256","indexed":false,"internalType":"uint256"},{"name":"recipient","type":"address","indexed":false,"internalType":"address"},{"name":"batchId","type":"bytes32","indexed":false,"internalType":"bytes32"}],"anonymous":false},{"type":"event","name":"Burned","inputs":[{"name":"requestId","type":"bytes32","indexed":true,"internalType":"bytes32"}],"anonymous":false},{"type":"event","name":"Cancelled","inputs":[{"name":"requestId","type":"bytes32","indexed":true,"internalType":"bytes32"}],"anonymous":false},{"type":"event","name":"ContractInitialized","inputs":[{"name":"registry","type":"address","indexed":true,"internalType":"address"}],"anonymous":false},{"type":"event","name":"Initialized","inputs":[{"name":"version","type":"uint64","indexed":false,"internalType":"uint64"}],"anonymous":false},{"type":"event","name":"Minted","inputs":[{"name":"to","type":"address","indexed":true,"internalType":"address"},{"name":"amount","type":"uint256","indexed":false,"internalType":"uint256"},{"name":"batchId","type":"bytes32","indexed":false,"internalType":"bytes32"}],"anonymous":false},{"type":"event","name":"Paused","inputs":[{"name":"paused_","type":"bool","indexed":false,"internalType":"bool"}],"anonymous":false},{"type":"event","name":"RescuedAssets","inputs":[{"name":"asset_","type":"address","indexed":true,"internalType":"address"},{"name":"to_","type":"address","indexed":true,"internalType":"address"},{"name":"amount_","type":"uint256","indexed":false,"internalType":"uint256"}],"anonymous":false},{"type":"event","name":"RescuedETH","inputs":[{"name":"to_","type":"address","indexed":true,"internalType":"address"},{"name":"amount_","type":"uint256","indexed":false,"internalType":"uint256"}],"anonymous":false},{"type":"event","name":"Upgraded","inputs":[{"name":"implementation","type":"address","indexed":true,"internalType":"address"}],"anonymous":false},{"type":"error","name":"InvalidInitialization","inputs":[]},{"type":"error","name":"NotInitializing","inputs":[]},{"type":"error","name":"Reentrancy","inputs":[]},{"type":"error","name":"UnauthorizedCallContext","inputs":[]},{"type":"error","name":"UpgradeFailed","inputs":[]}],"bytecode":{"object":"0x60a080604052346099573060805263409feecd195460018116608c5760011c6002600160401b0319016048575b61436e908161009e82396080518181816113e4015261177e0152f35b6002600160411b0363409feecd19556001600160401b0360209081527fc7f505b2f371ae2175ee4913f4499e1f2633a7b5936321eed1cdaeb6115181d29080a1602c565b63f92ee8a95f526004601cfd5b5f80fdfe60806040526004361015610011575f80fd5b5f5f3560e01c80630675e575146128b057806308a1eee1146124f157806309acd2e01461238d57806316c38b3c1461220a5780631e2eaeaf146121ed57806335fd631a14612196578063369e9c331461194c57806340aa1f40146118fb578063472a4ec2146118a65780634f1ef28614611727578063501255461461143f57806352d1902d146113d05780636ec6787914611382578063753207c71461127557806375d0c0dc1461121c5780637b103999146111f05780638a4646281461119b5780638b7cb3041461113d578063a0a8e460146110e0578063a2785f0b14611099578063b187bd2614611054578063b26900251461101f578063b337cf7414610e8a578063bb507ab914610d5a578063befe317014610d05578063c4d66de814610a14578063c6c3bbe61461060b578063d01b5de414610397578063dbd035ff146102f6578063e6432396146102c85763eeb8f2b51461016f575f80fd5b346102c55760206003193601126102c55760043561018c336136a0565b8082527fd0574379115d2b8497bfd9020aa9e0becaffc59e5509520aa5fe8c763e40d0066020526101ff60ff600360408520015416604051906101d0604083612ab4565b600382527f4d313400000000000000000000000000000000000000000000000000000000006020830152612b66565b8082527fd0574379115d2b8497bfd9020aa9e0becaffc59e5509520aa5fe8c763e40d00660205261024660ff600360408520015460081c1615610240612d01565b90612b66565b8082527fd0574379115d2b8497bfd9020aa9e0becaffc59e5509520aa5fe8c763e40d006602052600360408320016101007fffffffffffffffffffffffffffffffffffffffffffffffffffffffffffff00ff8254161790557f9c389dadeacea6f1c7898215a4936003cf433e03f53e10e6b07375d0ced6b7798280a280f35b80fd5b50346102c55760206003193601126102c55760206102ec6102e76129d3565b612d77565b6040519015158152f35b50346102c55760206003193601126102c5576004359067ffffffffffffffff82116102c557366023830112156102c55781600401359167ffffffffffffffff8311610393578260051b9136602484840101116102c5575060408051809460208252602082015201918301916020806024604086019401925b833554815201910190848382101561038a57506020809161036e565b60408186030190f35b5080fd5b506103a1366129e9565b90916103b76103af33613985565b610240612c1e565b836001600160a01b0384169360409261040784516103d58682612ab4565b600281527f4b350000000000000000000000000000000000000000000000000000000000006020820152871515612b66565b6001600160a01b038116908161055b575050818085819381151580610551575b61043390610240612d3c565b5af13d15610523573d67ffffffffffffffff81116104f657916104ee7f63b8c8e180bc85c19daef23e2bb787fb49672d3a9ecde24409c18ccb1accb5d194928460207fffffffffffffffffffffffffffffffffffffffffffffffffffffffffffffffe0601f8298011601906104aa85519283612ab4565b815288863d92013e5b8251906104c08483612ab4565b600282527f4b3700000000000000000000000000000000000000000000000000000000000086830152612b66565b51908152a280f35b6024867f4e487b710000000000000000000000000000000000000000000000000000000081526041600452fd5b916020916104ee7f63b8c8e180bc85c19daef23e2bb787fb49672d3a9ecde24409c18ccb1accb5d1946104b3565b5047821115610427565b60209350857f552c8f8dc30f2786e14004d98595afcc1c0ea1f552b86e86f64a2da74761eaab95929693826105d16105956105eb956139fc565b158651906105a38883612ab4565b600282527f4b380000000000000000000000000000000000000000000000000000000000008a830152612b66565b821515806105f3575b6105e690610240612d3c565b613646565b51908152a380f35b506105e66106013083613269565b84111590506105da565b50610615366129e9565b919061061f612df2565b610627612e21565b61063033612ed3565b610639826131db565b61064283613225565b6001600160a01b03811692610660610658612be3565b851515612b66565b610669836130eb565b916106a4846001600160a01b03165f527fd0574379115d2b8497bfd9020aa9e0becaffc59e5509520aa5fe8c763e40d00560205260405f2090565b54928315610a00575b602493946106b9613561565b6106c585823385613329565b7fffffffffffffffffffffffffffffffff000000000000000000000000000000006106ef86613297565b888b527fd0574379115d2b8497bfd9020aa9e0becaffc59e5509520aa5fe8c763e40d006602052600260408c2001906fffffffffffffffffffffffffffffffff61073d835492828416612c94565b169283911617905560206001600160a01b036107576132d2565b16604051988980927fe6ed859d0000000000000000000000000000000000000000000000000000000082526001600160a01b03881660048301525afa9687156109f5578a976109bb575b506107e7906040978851916107b68a84612ab4565b600383527f4d3132000000000000000000000000000000000000000000000000000000000060208401521115612b66565b610821826001600160a01b03165f527fd0574379115d2b8497bfd9020aa9e0becaffc59e5509520aa5fe8c763e40d00160205260405f2090565b80549086820180921161098e575588939291906001600160a01b0316803b1561095d5786517fa8412deb0000000000000000000000000000000000000000000000000000000081526001600160a01b03929092166004830152602482018690526044820188905284908290606490829084905af180156109845790849161096f575b50506001600160a01b0316803b1561096b5784517f40c10f190000000000000000000000000000000000000000000000000000000081526001600160a01b039290921660048301526024820184905282908290604490829084905af1801561096157610948575b50507fc263b302aec62d29105026245f19e16f8e0137066ccd4a8bd941f716bd4096bb9282519182526020820152a280688000000000ab143c065d80f35b8161095291612ab4565b61095d57845f61090a565b8480fd5b84513d84823e3d90fd5b8280fd5b8161097991612ab4565b61096b57825f6108a3565b86513d86823e3d90fd5b60248b7f4e487b710000000000000000000000000000000000000000000000000000000081526011600452fd5b9096506020813d6020116109ed575b816109d760209383612ab4565b810103126109e95751956107e76107a1565b5f80fd5b3d91506109ca565b6040513d8c823e3d90fd5b60249350610a0d856137ba565b93506106ad565b50346102c55760206003193601126102c557610a2e6129d3565b7fffffffffffffffffffffffffffffffffffffffffffffffffffffffffbf60113280548060038355610cd9575b50906001600160a01b03169081151591610a7c610a76612be3565b84612b66565b74010000000000000000000000000000000000000000817fffffffffffffffffffff000000000000000000000000000000000000000000007fe91688684975c4d7d54a65dd96da5d4dcbb54b8971c046d5351d3c111e43a80054610b5e604097610b228951610aeb8b82612ab4565b600281527f4b31000000000000000000000000000000000000000000000000000000000000602082015260ff8560a01c1615612b66565b885190610b2f8a83612ab4565b600282527f4b320000000000000000000000000000000000000000000000000000000000006020830152612b66565b1617177fe91688684975c4d7d54a65dd96da5d4dcbb54b8971c046d5351d3c111e43a8005582516108e18082019082821067ffffffffffffffff831117610cac576020918391613a58833930815203019085f08015610c9f57927fffffffff0000000000000000000000000000000000000000ffffffffffffffff7bffffffffffffffffffffffffffffffffffffffff000000000000000084957fd0574379115d2b8497bfd9020aa9e0becaffc59e5509520aa5fe8c763e40d00054931b169116177fd0574379115d2b8497bfd9020aa9e0becaffc59e5509520aa5fe8c763e40d000557fb8bb5a08c752924168166e254455ca6708ef2ac4cfd39bba39eb5a5b89f0cbd68480a2610c6e575080f35b6002905560016020527fc7f505b2f371ae2175ee4913f4499e1f2633a7b5936321eed1cdaeb6115181d2602080a180f35b50505051903d90823e3d90fd5b6024877f4e487b710000000000000000000000000000000000000000000000000000000081526041600452fd5b600181811c14303b1015610cf85760ff1b1b6001600160a01b03610a5b565b63f92ee8a984526004601cfd5b50346102c55760206003193601126102c5576001600160a01b036001604060209360043581527fd0574379115d2b8497bfd9020aa9e0becaffc59e5509520aa5fe8c763e40d006855220015416604051908152f35b50346102c55760406003193601126102c557600435602435801515810361096b57610d8433613757565b8183527fd0574379115d2b8497bfd9020aa9e0becaffc59e5509520aa5fe8c763e40d006602052610dc260ff60036040862001541615610240612cc6565b8183527fd0574379115d2b8497bfd9020aa9e0becaffc59e5509520aa5fe8c763e40d0066020526001600160a01b03604084205416908284527fd0574379115d2b8497bfd9020aa9e0becaffc59e5509520aa5fe8c763e40d0066020526003604085200160017fffffffffffffffffffffffffffffffffffffffffffffffffffffffffffffff00825416179055610e7c575b507f94d067deddb78ebf8fb59c4ec96ab664ecbe2d61153c22e2648e4deb412534948280a280f35b610e85906137ba565b610e54565b50346102c55760206003193601126102c557610edd610ea76129d3565b6001600160a01b03165f527fd0574379115d2b8497bfd9020aa9e0becaffc59e5509520aa5fe8c763e40d00360205260405f2090565b6318fb58646004528152602481208019549060405191826020018115610fa1575060011c90835b828110610f7c5750505b80825260051b810190602082019283604052604083016020855282518091526020606085019301915b818110610f66578484037fffffffffffffffffffffffffffffffffffffffffffffffffffffffffffffffe00186f35b8251845260209384019390920191600101610f37565b8060019183015468fbb67fda52d4bfb8bf8114150260208260051b8701015201610f04565b909180549182610fb4575b505050610f0e565b9091925060019268fbb67fda52d4bfb8bf8114150290528181015480610fdb575b80610fac565b68fbb67fda52d4bfb8bf81141502604084015260029081015490915080611003575b80610fd5565b68fbb67fda52d4bfb8bf8114150260608301525060035f610ffd565b50346102c55760206003193601126102c557602061104c61103e6129d3565b61104733613757565b6137ba565b604051908152f35b50346102c557806003193601126102c557602060ff7fe91688684975c4d7d54a65dd96da5d4dcbb54b8971c046d5351d3c111e43a8005460a81c166040519015158152f35b50346102c557806003193601126102c557602067ffffffffffffffff7fd0574379115d2b8497bfd9020aa9e0becaffc59e5509520aa5fe8c763e40d0005416604051908152f35b50346102c557806003193601126102c55750611139604051611103604082612ab4565b600581527f312e302e30000000000000000000000000000000000000000000000000000000602082015260405191829182612a23565b0390f35b50346102c55760206003193601126102c557602061119261115c6129d3565b6001600160a01b03165f527fd0574379115d2b8497bfd9020aa9e0becaffc59e5509520aa5fe8c763e40d00160205260405f2090565b54604051908152f35b50346102c55760206003193601126102c55760206111926111ba6129d3565b6001600160a01b03165f527fd0574379115d2b8497bfd9020aa9e0becaffc59e5509520aa5fe8c763e40d00560205260405f2090565b50346102c557806003193601126102c55760206001600160a01b036112136132d2565b16604051908152f35b50346102c557806003193601126102c5575061113960405161123f604082612ab4565b600781527f6b4d696e74657200000000000000000000000000000000000000000000000000602082015260405191829182612a23565b50346102c55760206003193601126102c557604060e091611294612af5565b5060043581527fd0574379115d2b8497bfd9020aa9e0becaffc59e5509520aa5fe8c763e40d006602052206040516112cb81612a6b565b6001600160a01b03825416918282526001600160a01b0360018201541690602083019182526fffffffffffffffffffffffffffffffff600282015481604086018183168152606087019260801c83526001600160a01b0360038601549660c0600460808b019860ff8b1615158a5260ff60a08d019b60081c1615158b5201549901988952604051998a52511660208901525116604087015251166060850152511515608084015251151560a08301525160c0820152f35b50346102c55760206003193601126102c55760209061139f612df2565b6113a8336136a0565b6113b3600435613390565b90688000000000ab143c065d6001600160a01b0360405191168152f35b50346102c557806003193601126102c557307f0000000000000000000000000000000000000000000000000000000000000000036114325760206040517f360894a13ba1a3210667c828492db98dca3e2076cc3735a920a3ca505d382bbc8152f35b639f03a02690526004601cfd5b5060206003193601126102c557600435611457612df2565b61145f612e21565b61146833612ed3565b8082527fd0574379115d2b8497bfd9020aa9e0becaffc59e5509520aa5fe8c763e40d002602052604082206114eb6114e3836114de6001600160a01b038554166001600160a01b03165f527fd0574379115d2b8497bfd9020aa9e0becaffc59e5509520aa5fe8c763e40d00360205260405f2090565b612f61565b610240612b2b565b600281019060ff825460e01c1660038110156116fa57906115186115f292611511612ba8565b9015612b66565b7c02000000000000000000000000000000000000000000000000000000007fffffff00ffffffffffffffffffffffffffffffffffffffffffffffffffffffff8454161783556115ec6115d46001600160a01b036003840195865489527fd0574379115d2b8497bfd9020aa9e0becaffc59e5509520aa5fe8c763e40d0066020526115cd600360408b2001546115b86115ae612cc6565b60ff831615612b66565b60ff6115c2612d01565b9160081c1615612b66565b54166130eb565b60016001600160a01b03845416930192835491613646565b54613297565b905483527fd0574379115d2b8497bfd9020aa9e0becaffc59e5509520aa5fe8c763e40d00660205260026040842001906fffffffffffffffffffffffffffffffff825460801c91169003906fffffffffffffffffffffffffffffffff82116116cd579061169a91906fffffffffffffffffffffffffffffffff7fffffffffffffffffffffffffffffffff0000000000000000000000000000000083549260801b169116179055565b7fbaa1eb22f2a492ba1a5fea61b8df4d27c6c8b5f3971e63bb58fa14ff72eedb708280a280688000000000ab143c065d80f35b6024847f4e487b710000000000000000000000000000000000000000000000000000000081526011600452fd5b6024857f4e487b710000000000000000000000000000000000000000000000000000000081526021600452fd5b5060406003193601126102c55761173c6129d3565b6024359067ffffffffffffffff821161096b573660238301121561096b5781600401359067ffffffffffffffff82116118a25736602483850101116118a257307f000000000000000000000000000000000000000000000000000000000000000014611895576001600160a01b03906117bf6117b733613985565b610240612e98565b166117d36117cb612be3565b821515612b66565b3d84526352d1902d6001527f360894a13ba1a3210667c828492db98dca3e2076cc3735a920a3ca505d382bbc602060016004601d855afa5103611887578391817fbc7cd75a20ee27fd9adebab32041f755214dbc6bffa90cc0225b39da2e5c2d3b8480a280827f360894a13ba1a3210667c828492db98dca3e2076cc3735a920a3ca505d382bbc55611863578280f35b806024604051950185378338925af41561187e578181808280f35b903d90823e3d90fd5b6355299b496001526004601dfd5b639f03a02684526004601cfd5b8380fd5b50346102c55760206003193601126102c55760206111926118c56129d3565b6001600160a01b03165f527fd0574379115d2b8497bfd9020aa9e0becaffc59e5509520aa5fe8c763e40d00460205260405f2090565b50346102c55760206003193601126102c55760ff6003604060209360043581527fd0574379115d2b8497bfd9020aa9e0becaffc59e5509520aa5fe8c763e40d0068552200154166040519015158152f35b50611956366129e9565b9092611960612df2565b611968612e21565b61197133612ed3565b61197a836131db565b61198382613225565b6001600160a01b038416916119a1611999612be3565b841515612b66565b6119db846001600160a01b03165f527fd0574379115d2b8497bfd9020aa9e0becaffc59e5509520aa5fe8c763e40d00560205260405f2090565b54151592611a216040948551906119f28783612ab4565b600382527f4d313500000000000000000000000000000000000000000000000000000000006020830152612b66565b611a2a856130eb565b95611a7783611a39338a613269565b1015865190611a488883612ab4565b600282527f4d330000000000000000000000000000000000000000000000000000000000006020830152612b66565b7fd0574379115d2b8497bfd9020aa9e0becaffc59e5509520aa5fe8c763e40d0005467ffffffffffffffff81166001810180911161216957611b379167ffffffffffffffff611ae67fffffffffffffffffffffffffffffffffffffffffffffffff00000000000000009361330b565b1691829116177fd0574379115d2b8497bfd9020aa9e0becaffc59e5509520aa5fe8c763e40d000554285853092909160a0949260405194855260208501526040840152606083015260808201522090565b95611b72816001600160a01b03165f527fd0574379115d2b8497bfd9020aa9e0becaffc59e5509520aa5fe8c763e40d00560205260405f2090565b5491611b7d85613297565b8387527fd0574379115d2b8497bfd9020aa9e0becaffc59e5509520aa5fe8c763e40d006602052611bfc611bbb60028a8a200192835460801c612c94565b82546fffffffffffffffffffffffffffffffff16608082901b7fffffffffffffffffffffffffffffffff000000000000000000000000000000001617909255565b6001600160a01b03611c0c6132d2565b16908851907fa05a0e4a0000000000000000000000000000000000000000000000000000000082526020826024816001600160a01b038916968760048301525afa91821561215f57928a889388938c96879261210f575b50906fffffffffffffffffffffffffffffffff8392611c87611cb995519485612ab4565b600384527f4d313300000000000000000000000000000000000000000000000000000000006020850152161115612b66565b8b8b8a6001600160a01b0380611cce4261330b565b93805199611cdb8b612a6b565b338b5260208b01948552818b0197885267ffffffffffffffff60608c019616865260808b019681885260a08c01998a5260c08c019a8b5281527fd0574379115d2b8497bfd9020aa9e0becaffc59e5509520aa5fe8c763e40d00260205220985116167fffffffffffffffffffffffff00000000000000000000000000000000000000008854161787555160018701556001600160a01b038060028801945116167fffffffffffffffffffffffff0000000000000000000000000000000000000000845416178355517fffffffff0000000000000000ffffffffffffffffffffffffffffffffffffffff7bffffffffffffffff000000000000000000000000000000000000000084549260a01b1691161782555160038110156120e25781547fffffff00ffffffffffffffffffffffffffffffffffffffffffffffffffffffff1660e09190911b7cff000000000000000000000000000000000000000000000000000000001617905551600383015551600490910180547fffffffffffffffffffffffff0000000000000000000000000000000000000000166001600160a01b03928316179055165f9081527fd0574379115d2b8497bfd9020aa9e0becaffc59e5509520aa5fe8c763e40d003602052604090206318fb58646004528552602485208768fbb67fda52d4bfb8bf81146120d55788156120c5575b81199182549181602052821561202a575b808952898920928354156120105750505050505b611f058430338b613329565b611f246001600160a01b03611f1984613390565b161515610240612be3565b6001600160a01b03611f34613561565b1690813b1561200c5786517f95f4042b0000000000000000000000000000000000000000000000000000000081526001600160a01b0391909116600482015260248101859052604481018390529085908290606490829084905af1801561200257611fed575b507fed514ad31319b583788a1060958d24f4090599448acf2c255896d624c390509360606001600160a01b0360209989948951978852868c890152898801521694a4688000000000ab143c065d51908152f35b611ff8858092612ab4565b6118a2575f611f9a565b86513d87823e3d90fd5b8580fd5b60011c8092015560010180915560011b6001179055611ef9565b9150805480156120bd578281146120b4576001820180549081156120a8575083811461209e57600283019182549283156120915750848314612086578a5260018b8b2055895260028a8a20558852600389892055600791611ee5565b505050505050611ef9565b9495505050505055611ef9565b5050505050611ef9565b93945050505055611ef9565b50505050611ef9565b505550611ef9565b5068fbb67fda52d4bfb8bf611ed4565b63f5a267f187526004601cfd5b60248b7f4e487b710000000000000000000000000000000000000000000000000000000081526021600452fd5b94509450505092506020813d602011612157575b8161213060209383612ab4565b810103126109e957518892879287928c916fffffffffffffffffffffffffffffffff611c63565b3d9150612123565b8a513d8b823e3d90fd5b6024867f4e487b710000000000000000000000000000000000000000000000000000000081526011600452fd5b50346102c55760406003193601126102c5576024356004356040519160408360208152826020820152019060051b8301916001602060408501935b8354815201910190848382101561038a575060206001916121d1565b50346102c55760206003193601126102c557602090600435548152f35b50346102c55760206003193601126102c5576004358015158091036103935760249060206001600160a01b0361223e6132d2565b16604051938480927f2500f2b60000000000000000000000000000000000000000000000000000000082523360048301525afa908115612382576122b06020927f0e2fb031ee032dc02d8011dc50b816eb450cf856abd8261680dac74f72165bd2948691612355575b50610240612c1e565b7fe91688684975c4d7d54a65dd96da5d4dcbb54b8971c046d5351d3c111e43a800546122e96122dd612c59565b60ff8360a01c16612b66565b7fffffffffffffffffffff00ffffffffffffffffffffffffffffffffffffffffff75ff0000000000000000000000000000000000000000008360a81b169116177fe91688684975c4d7d54a65dd96da5d4dcbb54b8971c046d5351d3c111e43a80055604051908152a180f35b6123759150843d861161237b575b61236d8183612ab4565b8101906131c3565b5f6122a7565b503d612363565b6040513d85823e3d90fd5b50346102c55760806003193601126102c557806123a86129d3565b602435906001600160a01b0382168092036124b657604435906001600160a01b0382168092036124da576001600160a01b0316801515806124e8575b806124df575b6123f690610240612be3565b803b156124da578380916024604051809481937f25db13f10000000000000000000000000000000000000000000000000000000083528860048401525af19081156124cf5784916124ba575b5050303b156124b657604051917fd01b5de4000000000000000000000000000000000000000000000000000000008352600483015260248201526064356044820152818160648183305af180156124ab5761249a5750f35b816124a491612ab4565b6102c55780f35b6040513d84823e3d90fd5b5050fd5b816124c491612ab4565b6124b657825f612442565b6040513d86823e3d90fd5b505050fd5b508115156123ea565b508215156123e4565b5060206003193601126109e9576004359061250a612df2565b612512612e21565b61251b33612ed3565b815f527fd0574379115d2b8497bfd9020aa9e0becaffc59e5509520aa5fe8c763e40d00260205260405f20916125926114e3826114de6001600160a01b038754166001600160a01b03165f527fd0574379115d2b8497bfd9020aa9e0becaffc59e5509520aa5fe8c763e40d00360205260405f2090565b6002830160ff815460e01c166003811015612883576125b96125b2612ba8565b8215612b66565b61261460409161260283516125ce8582612ab4565b600281527f4d3700000000000000000000000000000000000000000000000000000000000060208201526001831415612b66565b600261260c612ba8565b911415612b66565b7c01000000000000000000000000000000000000000000000000000000007fffffff00ffffffffffffffffffffffffffffffffffffffffffffffffffffffff8354161782556001850180546126a36001600160a01b038554166001600160a01b03165f527fd0574379115d2b8497bfd9020aa9e0becaffc59e5509520aa5fe8c763e40d00160205260405f2090565b80549182039182116128565755600386019283545f527fd0574379115d2b8497bfd9020aa9e0becaffc59e5509520aa5fe8c763e40d0066020526001600160a01b0361270681806001875f20015416936115cd6126fe612be3565b861515612b66565b16825490803b156109e95784517f9dc29fac00000000000000000000000000000000000000000000000000000000815230600482015260248101929092525f908290604490829084905af1801561284c5761282a575b506001600160a01b03600487989796970154169154935490803b1561200c5783517f5cd763540000000000000000000000000000000000000000000000000000000081526001600160a01b03939093166004840152602483019490945260448201529183908390606490829084905af1908115612821575061280c575b50688000000000ab143c065d7fa4d96315b6e943b24ddf4ebe21b360fb7312b42e8bb012fdab6439087f594c2c8280a280f35b8161281691612ab4565b61039357815f6127d9565b513d84823e3d90fd5b6004979596505f61283a91612ab4565b6001600160a01b035f9695975061275c565b84513d5f823e3d90fd5b7f4e487b71000000000000000000000000000000000000000000000000000000005f52601160045260245ffd5b7f4e487b71000000000000000000000000000000000000000000000000000000005f52602160045260245ffd5b346109e95760206003193601126109e9576128c9612af5565b506004355f527fd0574379115d2b8497bfd9020aa9e0becaffc59e5509520aa5fe8c763e40d00260205260405f2060405161290381612a6b565b6001600160a01b0382541681526001820154602082019081526002830154604083016001600160a01b038216815260ff606085019267ffffffffffffffff8160a01c16845260e01c1691608085019260038110156128835767ffffffffffffffff926001600160a01b0391855281600460038a01549960a08a019a8b520154169560c088019687528260405198511688525160208801525116604086015251166060840152519060038210156128835760e0936001600160a01b039260808501525160a0840152511660c0820152f35b600435906001600160a01b03821682036109e957565b60031960609101126109e9576004356001600160a01b03811681036109e957906024356001600160a01b03811681036109e9579060443590565b7fffffffffffffffffffffffffffffffffffffffffffffffffffffffffffffffe0601f602060409481855280519182918282880152018686015e5f8582860101520116010190565b60e0810190811067ffffffffffffffff821117612a8757604052565b7f4e487b71000000000000000000000000000000000000000000000000000000005f52604160045260245ffd5b90601f7fffffffffffffffffffffffffffffffffffffffffffffffffffffffffffffffe0910116810190811067ffffffffffffffff821117612a8757604052565b60405190612b0282612a6b565b5f60c0838281528260208201528260408201528260608201528260808201528260a08201520152565b60405190612b3a604083612ab4565b600282527f4d360000000000000000000000000000000000000000000000000000000000006020830152565b15612b6e5750565b612ba4906040519182917f08c379a000000000000000000000000000000000000000000000000000000000835260048301612a23565b0390fd5b60405190612bb7604083612ab4565b600282527f4d350000000000000000000000000000000000000000000000000000000000006020830152565b60405190612bf2604083612ab4565b600382527f4d313000000000000000000000000000000000000000000000000000000000006020830152565b60405190612c2d604083612ab4565b600282527f4b340000000000000000000000000000000000000000000000000000000000006020830152565b60405190612c68604083612ab4565b600282527f4b330000000000000000000000000000000000000000000000000000000000006020830152565b906fffffffffffffffffffffffffffffffff809116911601906fffffffffffffffffffffffffffffffff821161285657565b60405190612cd5604083612ab4565b600282527f4d310000000000000000000000000000000000000000000000000000000000006020830152565b60405190612d10604083612ab4565b600282527f4d320000000000000000000000000000000000000000000000000000000000006020830152565b60405190612d4b604083612ab4565b600282527f4b360000000000000000000000000000000000000000000000000000000000006020830152565b612db1906001600160a01b03165f527fd0574379115d2b8497bfd9020aa9e0becaffc59e5509520aa5fe8c763e40d00560205260405f2090565b548015612ded575f527fd0574379115d2b8497bfd9020aa9e0becaffc59e5509520aa5fe8c763e40d00660205260ff600360405f200154161590565b505f90565b688000000000ab143c065c612e0f5730688000000000ab143c065d565b688000000000ab143c065f526004601cfd5b612e967fe91688684975c4d7d54a65dd96da5d4dcbb54b8971c046d5351d3c111e43a80054612e516122dd612c59565b60ff60405191612e62604084612ab4565b600283527f4d34000000000000000000000000000000000000000000000000000000000000602084015260a81c1615612b66565b565b60405190612ea7604083612ab4565b600282527f4d390000000000000000000000000000000000000000000000000000000000006020830152565b60206001600160a01b03602481612ee86132d2565b169360405194859384927f0331df070000000000000000000000000000000000000000000000000000000084521660048301525afa8015612f5657612e96915f91612f37575b50610240612e98565b612f50915060203d60201161237b5761236d8183612ab4565b5f612f2e565b6040513d5f823e3d90fd5b91905f926318fb58646004525f5260245f209068fbb67fda52d4bfb8bf81146130bf5780156130af575b811980549182159260011c7fffffffffffffffffffffffffffffffffffffffffffffffffffffffffffffffff810191600183811b179461305657856020525f5260405f2094855492831561304d575f9798507fffffffffffffffffffffffffffffffffffffffffffffffffffffffffffffffff840103613010575b5050505555600190565b7fffffffffffffffffffffffffffffffffffffffffffffffffffffffffffffffff80849383010154928392010155855260408520555f8080613006565b50505050505050565b9496505050505060019281815414613099578381018281541461308a57506002019081541461308557505f9150565b5f9055565b905f9250600201908154905555565b5f91506002848201918254815501908154905555565b5068fbb67fda52d4bfb8bf612f8b565b63f5a267f15f526004601cfd5b908160209103126109e957516001600160a01b03811681036109e95790565b9060206001600160a01b036024816131016132d2565b169460405195869384927fa3863a950000000000000000000000000000000000000000000000000000000084521660048301525afa918215612f56575f92613192575b50612e96826001600160a01b0360405191613160604084612ab4565b600383527f4b313000000000000000000000000000000000000000000000000000000000006020840152161515612b66565b6131b591925060203d6020116131bc575b6131ad8183612ab4565b8101906130cc565b905f613144565b503d6131a3565b908160209103126109e9575180151581036109e95790565b6131e7612e96916139fc565b604051906131f6604083612ab4565b600282527f4d380000000000000000000000000000000000000000000000000000000000006020830152612b66565b612e969060405190613238604083612ab4565b600382527f4d3131000000000000000000000000000000000000000000000000000000000060208301521515612b66565b602460106020939284936014526f70a082310000000000000000000000005f525afa601f3d11166020510290565b7001000000000000000000000000000000008110156132c5576fffffffffffffffffffffffffffffffff1690565b6335278d125f526004601cfd5b6001600160a01b037fe91688684975c4d7d54a65dd96da5d4dcbb54b8971c046d5351d3c111e43a800546133076122dd612c59565b1690565b680100000000000000008110156132c55767ffffffffffffffff1690565b916040519360605260405260601b602c526f23b872dd000000000000000000000000600c5260205f6064601c82855af1908160015f51141615613372575b50505f606052604052565b3b153d171015613383575f80613367565b637939f4245f526004601cfd5b5f90805f527fd0574379115d2b8497bfd9020aa9e0becaffc59e5509520aa5fe8c763e40d0066020526001600160a01b03600160405f200154168061355b57506001600160a01b037fd0574379115d2b8497bfd9020aa9e0becaffc59e5509520aa5fe8c763e40d0005460401c166c5af43d3d93803e602a57fd5bf360215260145273602c3d8160093d39f33d3d3d3d363d3d37363d735f526035600c5ff091821561354e575f60218190528281527fd0574379115d2b8497bfd9020aa9e0becaffc59e5509520aa5fe8c763e40d006602052604090206001810180547fffffffffffffffffffffffff0000000000000000000000000000000000000000166001600160a01b0386811691821790925591549192911690823b156109e957604051917f6910e33400000000000000000000000000000000000000000000000000000000835284600484015260248301525f8260448183875af18015612f565761351c575b7fab4f7610e5c00cffa5a6e593b9882ad852a837202e97821d0501559ae3ad371b915080a390565b505f61352791612ab4565b7fab4f7610e5c00cffa5a6e593b9882ad852a837202e97821d0501559ae3ad371b5f6134f4565b63301164255f526004601cfd5b91505090565b60249060206001600160a01b036135766132d2565b16604051938480927fa9c9a9180000000000000000000000000000000000000000000000000000000082527ff3bbf2dd6779e6fe2f6fb7cc20baa5140e39dd5b31ab45dfa7d512610b601f0d60048301525afa918215612f56575f92613625575b50612e96826001600160a01b03604051916135f3604084612ab4565b600283527f4b390000000000000000000000000000000000000000000000000000000000006020840152161515612b66565b61363f91925060203d6020116131bc576131ad8183612ab4565b905f6135d7565b91906014526034526fa9059cbb0000000000000000000000005f5260205f6044601082855af1908160015f51141615613682575b50505f603452565b3b153d171015613693575f8061367a565b6390b8ec185f526004601cfd5b60249060206001600160a01b036136b56132d2565b16604051938480927fa9c9a9180000000000000000000000000000000000000000000000000000000082527ff3bbf2dd6779e6fe2f6fb7cc20baa5140e39dd5b31ab45dfa7d512610b601f0d60048301525afa908115612f5657612e96925f92613736575b506001600160a01b038061372c612e98565b9316911614612b66565b61375091925060203d6020116131bc576131ad8183612ab4565b905f61371a565b60206001600160a01b0360248161376c6132d2565b169360405194859384927f541d55480000000000000000000000000000000000000000000000000000000084521660048301525afa8015612f5657612e96915f91612f375750610240612e98565b6138cf906137f8816001600160a01b03165f527fd0574379115d2b8497bfd9020aa9e0becaffc59e5509520aa5fe8c763e40d00460205260405f2090565b60018154019055613839816001600160a01b03165f527fd0574379115d2b8497bfd9020aa9e0becaffc59e5509520aa5fe8c763e40d00460205260405f2090565b547f03f65663309e35931e882d4a6333b2162942b349643e26d49d9f29570fa9889560206001600160a01b03841692613895844246843092909160a0949260405194855260208501526040840152606083015260808201522090565b809681966001600160a01b03165f527fd0574379115d2b8497bfd9020aa9e0becaffc59e5509520aa5fe8c763e40d00560205260405f2090565b55845f527fd0574379115d2b8497bfd9020aa9e0becaffc59e5509520aa5fe8c763e40d0068252600360405f20866004820155857fffffffffffffffffffffffff0000000000000000000000000000000000000000825416178155600181017fffffffffffffffffffffffff00000000000000000000000000000000000000008154169055017fffffffffffffffffffffffffffffffffffffffffffffffffffffffffffff00008154169055604051908152a390565b60206001600160a01b0360248161399a6132d2565b169360405194859384927f24d7806c0000000000000000000000000000000000000000000000000000000084521660048301525afa908115612f56575f916139e0575090565b6139f9915060203d60201161237b5761236d8183612ab4565b90565b60206001600160a01b03602481613a116132d2565b169360405194859384927fc87fa42a0000000000000000000000000000000000000000000000000000000084521660048301525afa908115612f56575f916139e057509056fe60a06040523461010157604051601f6108e138819003918201601f19168301916001600160401b038311848410176100ed5780849260209460405283398101031261010157516001600160a01b03811680820361010157604080519081016001600160401b038111828210176100ed5760405260028152602081019161211b60f11b8352156100b257826080526040516107db908161010682396080518181816101a701528181610530015261068b0152f35b60449060405192839162461bcd60e51b8352602060048401525180918160248501528484015e5f828201840152601f01601f19168101030190fd5b634e487b7160e01b5f52604160045260245ffd5b5f80fdfe6080806040526004361015610012575f80fd5b5f3560e01c9081631948f57f146105065750806325db13f1146102ff57806338d52e0f146102cd5780634972134a146102b05780635cd76354146101cb5780636910e3341461008f57639ed3c90c14610069575f80fd5b3461008b575f60031936011261008b57602060ff600254166040519015158152f35b5f80fd5b3461008b57604060031936011261008b5760043560243573ffffffffffffffffffffffffffffffffffffffff81169081810361008b577fffffffffffffffffffffffffffffffffffffffffffffffffffffffffffffff00600191610136600254916101316100fd6040610577565b600281527f4231000000000000000000000000000000000000000000000000000000000000602082015260ff8516156105bb565b61074f565b161760025581600155807fffffffffffffffffffffffff00000000000000000000000000000000000000005f5416175f556040519081527fab051ac83a2f3eb0d4acef0b16e45e830f6d966295150e6c9f1784f07be302cc602073ffffffffffffffffffffffffffffffffffffffff7f00000000000000000000000000000000000000000000000000000000000000001692a3005b3461008b57606060031936011261008b576101e4610554565b6024356101f03361063a565b610234600154604435146102046040610577565b90600282527f423200000000000000000000000000000000000000000000000000000000000060208301526105bb565b61023d816106b5565b6102468261074f565b610268818373ffffffffffffffffffffffffffffffffffffffff5f54166106f5565b7fb7acbf17ad94b6f877e46c72718225d94e660fd48f2e46f65942f2f4cce22027602073ffffffffffffffffffffffffffffffffffffffff805f5416946040519485521692a3005b3461008b575f60031936011261008b576020600154604051908152f35b3461008b575f60031936011261008b57602073ffffffffffffffffffffffffffffffffffffffff5f5416604051908152f35b602060031936011261008b57610313610554565b61031c3361063a565b73ffffffffffffffffffffffffffffffffffffffff81168061044157505047610344816106b5565b5f80808084335af13d15610438573d9067ffffffffffffffff821161040b578161039860207fffffffffffffffffffffffffffffffffffffffffffffffffffffffffffffffe0601f6103dd96011601610577565b9081525f60203d92013e5b6103ad6040610577565b90600282527f423400000000000000000000000000000000000000000000000000000000000060208301526105bb565b6040519081527f63b8c8e180bc85c19daef23e2bb787fb49672d3a9ecde24409c18ccb1accb5d160203392a2005b7f4e487b71000000000000000000000000000000000000000000000000000000005f52604160045260245ffd5b6103dd906103a3565b61049973ffffffffffffffffffffffffffffffffffffffff5f54168214156104696040610577565b90600282527f423500000000000000000000000000000000000000000000000000000000000060208301526105bb565b306014526f70a082310000000000000000000000005f526104d860208060246010865afa601f3d11166020510280936104d1826106b5565b33906106f5565b6040519182527f552c8f8dc30f2786e14004d98595afcc1c0ea1f552b86e86f64a2da74761eaab60203393a3005b3461008b575f60031936011261008b5760209073ffffffffffffffffffffffffffffffffffffffff7f0000000000000000000000000000000000000000000000000000000000000000168152f35b6004359073ffffffffffffffffffffffffffffffffffffffff8216820361008b57565b907fffffffffffffffffffffffffffffffffffffffffffffffffffffffffffffffe0601f604051930116820182811067ffffffffffffffff82111761040b57604052565b156105c35750565b60446020917fffffffffffffffffffffffffffffffffffffffffffffffffffffffffffffffe0601f6040519485937f08c379a00000000000000000000000000000000000000000000000000000000085528160048601528051918291826024880152018686015e5f85828601015201168101030190fd5b6106b3906106486040610577565b90600282527f4233000000000000000000000000000000000000000000000000000000000000602083015273ffffffffffffffffffffffffffffffffffffffff807f0000000000000000000000000000000000000000000000000000000000000000169116146105bb565b565b6106b3906106c36040610577565b90600282527f4237000000000000000000000000000000000000000000000000000000000000602083015215156105bb565b91906014526034526fa9059cbb0000000000000000000000005f5260205f6044601082855af1908160015f51141615610731575b50505f603452565b3b153d171015610742575f80610729565b6390b8ec185f526004601cfd5b6106b39073ffffffffffffffffffffffffffffffffffffffff6107726040610577565b91600283527f423600000000000000000000000000000000000000000000000000000000000060208401521615156105bb56fea2646970667358221220da885cbf3073a5ad8a71cc9f873fdb2457af6fa89d1f53bd62c3d3a4e7f98e2964736f6c634300081e0033a264697066735822122060ae318858302231cba3c0ec664d7dc591a1482e72376a77536b581ee801342b64736f6c634300081e0033","linkReferences":{}},"methodIdentifiers":{"burn(bytes32)":"08a1eee1","cancelRequest(bytes32)":"50125546","closeBatch(bytes32,bool)":"bb507ab9","contractName()":"75d0c0dc","contractVersion()":"a0a8e460","createBatchReceiver(bytes32)":"6ec67879","createNewBatch(address)":"b2690025","extsload(bytes32)":"1e2eaeaf","extsload(bytes32,uint256)":"35fd631a","extsload(bytes32[])":"dbd035ff","getBatchId(address)":"8a464628","getBatchInfo(bytes32)":"753207c7","getBatchReceiver(bytes32)":"befe3170","getBurnRequest(bytes32)":"0675e575","getCurrentBatchNumber(address)":"472a4ec2","getRequestCounter()":"a2785f0b","getTotalLockedAssets(address)":"8b7cb304","getUserRequests(address)":"b337cf74","hasActiveBatch(address)":"e6432396","initialize(address)":"c4d66de8","isClosed(bytes32)":"40aa1f40","isPaused()":"b187bd26","mint(address,address,uint256)":"c6c3bbe6","proxiableUUID()":"52d1902d","registry()":"7b103999","requestBurn(address,address,uint256)":"369e9c33","rescueAssets(address,address,uint256)":"d01b5de4","rescueReceiverAssets(address,address,address,uint256)":"09acd2e0","setPaused(bool)":"16c38b3c","settleBatch(bytes32)":"eeb8f2b5","upgradeToAndCall(address,bytes)":"4f1ef286"},"storageLayout":{"storage":[],"types":{}},"id":61}