{"abi":[{"type":"constructor","inputs":[{"name":"owner_","type":"address","internalType":"address"},{"name":"admin_","type":"address","internalType":"address"},{"name":"emergencyAdmin_","type":"address","internalType":"address"},{"name":"minter_","type":"address","internalType":"address"},{"name":"name_","type":"string","internalType":"string"},{"name":"symbol_","type":"string","internalType":"string"},{"name":"decimals_","type":"uint8","internalType":"uint8"}],"stateMutability":"nonpayable"},{"type":"function","name":"ADMIN_ROLE","inputs":[],"outputs":[{"name":"","type":"uint256","internalType":"uint256"}],"stateMutability":"view"},{"type":"function","name":"DOMAIN_SEPARATOR","inputs":[],"outputs":[{"name":"result","type":"bytes32","internalType":"bytes32"}],"stateMutability":"view"},{"type":"function","name":"EMERGENCY_ADMIN_ROLE","inputs":[],"outputs":[{"name":"","type":"uint256","internalType":"uint256"}],"stateMutability":"view"},{"type":"function","name":"MINTER_ROLE","inputs":[],"outputs":[{"name":"","type":"uint256","internalType":"uint256"}],"stateMutability":"view"},{"type":"function","name":"allowance","inputs":[{"name":"owner","type":"address","internalType":"address"},{"name":"spender","type":"address","internalType":"address"}],"outputs":[{"name":"result","type":"uint256","internalType":"uint256"}],"stateMutability":"view"},{"type":"function","name":"approve","inputs":[{"name":"spender","type":"address","internalType":"address"},{"name":"amount","type":"uint256","internalType":"uint256"}],"outputs":[{"name":"","type":"bool","internalType":"bool"}],"stateMutability":"nonpayable"},{"type":"function","name":"balanceOf","inputs":[{"name":"owner","type":"address","internalType":"address"}],"outputs":[{"name":"result","type":"uint256","internalType":"uint256"}],"stateMutability":"view"},{"type":"function","name":"burn","inputs":[{"name":"_from","type":"address","internalType":"address"},{"name":"_amount","type":"uint256","internalType":"uint256"}],"outputs":[],"stateMutability":"nonpayable"},{"type":"function","name":"burnFrom","inputs":[{"name":"_from","type":"address","internalType":"address"},{"name":"_amount","type":"uint256","internalType":"uint256"}],"outputs":[],"stateMutability":"nonpayable"},{"type":"function","name":"cancelOwnershipHandover","inputs":[],"outputs":[],"stateMutability":"payable"},{"type":"function","name":"completeOwnershipHandover","inputs":[{"name":"pendingOwner","type":"address","internalType":"address"}],"outputs":[],"stateMutability":"payable"},{"type":"function","name":"decimals","inputs":[],"outputs":[{"name":"","type":"uint8","internalType":"uint8"}],"stateMutability":"view"},{"type":"function","name":"emergencyWithdraw","inputs":[{"name":"token","type":"address","internalType":"address"},{"name":"to","type":"address","internalType":"address"},{"name":"amount","type":"uint256","internalType":"uint256"}],"outputs":[],"stateMutability":"nonpayable"},{"type":"function","name":"grantAdminRole","inputs":[{"name":"admin","type":"address","internalType":"address"}],"outputs":[],"stateMutability":"nonpayable"},{"type":"function","name":"grantEmergencyRole","inputs":[{"name":"emergency","type":"address","internalType":"address"}],"outputs":[],"stateMutability":"nonpayable"},{"type":"function","name":"grantMinterRole","inputs":[{"name":"minter","type":"address","internalType":"address"}],"outputs":[],"stateMutability":"nonpayable"},{"type":"function","name":"grantRoles","inputs":[{"name":"user","type":"address","internalType":"address"},{"name":"roles","type":"uint256","internalType":"uint256"}],"outputs":[],"stateMutability":"payable"},{"type":"function","name":"hasAllRoles","inputs":[{"name":"user","type":"address","internalType":"address"},{"name":"roles","type":"uint256","internalType":"uint256"}],"outputs":[{"name":"","type":"bool","internalType":"bool"}],"stateMutability":"view"},{"type":"function","name":"hasAnyRole","inputs":[{"name":"user","type":"address","internalType":"address"},{"name":"roles","type":"uint256","internalType":"uint256"}],"outputs":[{"name":"","type":"bool","internalType":"bool"}],"stateMutability":"view"},{"type":"function","name":"isPaused","inputs":[],"outputs":[{"name":"","type":"bool","internalType":"bool"}],"stateMutability":"view"},{"type":"function","name":"mint","inputs":[{"name":"_to","type":"address","internalType":"address"},{"name":"_amount","type":"uint256","internalType":"uint256"}],"outputs":[],"stateMutability":"nonpayable"},{"type":"function","name":"multicall","inputs":[{"name":"data","type":"bytes[]","internalType":"bytes[]"}],"outputs":[{"name":"","type":"bytes[]","internalType":"bytes[]"}],"stateMutability":"payable"},{"type":"function","name":"name","inputs":[],"outputs":[{"name":"","type":"string","internalType":"string"}],"stateMutability":"view"},{"type":"function","name":"nonces","inputs":[{"name":"owner","type":"address","internalType":"address"}],"outputs":[{"name":"result","type":"uint256","internalType":"uint256"}],"stateMutability":"view"},{"type":"function","name":"owner","inputs":[],"outputs":[{"name":"result","type":"address","internalType":"address"}],"stateMutability":"view"},{"type":"function","name":"ownershipHandoverExpiresAt","inputs":[{"name":"pendingOwner","type":"address","internalType":"address"}],"outputs":[{"name":"result","type":"uint256","internalType":"uint256"}],"stateMutability":"view"},{"type":"function","name":"permit","inputs":[{"name":"owner","type":"address","internalType":"address"},{"name":"spender","type":"address","internalType":"address"},{"name":"value","type":"uint256","internalType":"uint256"},{"name":"deadline","type":"uint256","internalType":"uint256"},{"name":"v","type":"uint8","internalType":"uint8"},{"name":"r","type":"bytes32","internalType":"bytes32"},{"name":"s","type":"bytes32","internalType":"bytes32"}],"outputs":[],"stateMutability":"nonpayable"},{"type":"function","name":"renounceOwnership","inputs":[],"outputs":[],"stateMutability":"payable"},{"type":"function","name":"renounceRoles","inputs":[{"name":"roles","type":"uint256","internalType":"uint256"}],"outputs":[],"stateMutability":"payable"},{"type":"function","name":"requestOwnershipHandover","inputs":[],"outputs":[],"stateMutability":"payable"},{"type":"function","name":"revokeAdminRole","inputs":[{"name":"admin","type":"address","internalType":"address"}],"outputs":[],"stateMutability":"nonpayable"},{"type":"function","name":"revokeEmergencyRole","inputs":[{"name":"emergency","type":"address","internalType":"address"}],"outputs":[],"stateMutability":"nonpayable"},{"type":"function","name":"revokeMinterRole","inputs":[{"name":"minter","type":"address","internalType":"address"}],"outputs":[],"stateMutability":"nonpayable"},{"type":"function","name":"revokeRoles","inputs":[{"name":"user","type":"address","internalType":"address"},{"name":"roles","type":"uint256","internalType":"uint256"}],"outputs":[],"stateMutability":"payable"},{"type":"function","name":"rolesOf","inputs":[{"name":"user","type":"address","internalType":"address"}],"outputs":[{"name":"roles","type":"uint256","internalType":"uint256"}],"stateMutability":"view"},{"type":"function","name":"setPaused","inputs":[{"name":"isPaused_","type":"bool","internalType":"bool"}],"outputs":[],"stateMutability":"nonpayable"},{"type":"function","name":"symbol","inputs":[],"outputs":[{"name":"","type":"string","internalType":"string"}],"stateMutability":"view"},{"type":"function","name":"totalSupply","inputs":[],"outputs":[{"name":"result","type":"uint256","internalType":"uint256"}],"stateMutability":"view"},{"type":"function","name":"transfer","inputs":[{"name":"to","type":"address","internalType":"address"},{"name":"amount","type":"uint256","internalType":"uint256"}],"outputs":[{"name":"","type":"bool","internalType":"bool"}],"stateMutability":"nonpayable"},{"type":"function","name":"transferFrom","inputs":[{"name":"from","type":"address","internalType":"address"},{"name":"to","type":"address","internalType":"address"},{"name":"amount","type":"uint256","internalType":"uint256"}],"outputs":[{"name":"","type":"bool","internalType":"bool"}],"stateMutability":"nonpayable"},{"type":"function","name":"transferOwnership","inputs":[{"name":"newOwner","type":"address","internalType":"address"}],"outputs":[],"stateMutability":"payable"},{"type":"event","name":"Approval","inputs":[{"name":"owner","type":"address","indexed":true,"internalType":"address"},{"name":"spender","type":"address","indexed":true,"internalType":"address"},{"name":"amount","type":"uint256","indexed":false,"internalType":"uint256"}],"anonymous":false},{"type":"event","name":"AuthorizedCallerUpdated","inputs":[{"name":"caller","type":"address","indexed":true,"internalType":"address"},{"name":"authorized","type":"bool","indexed":false,"internalType":"bool"}],"anonymous":false},{"type":"event","name":"Burned","inputs":[{"name":"from","type":"address","indexed":true,"internalType":"address"},{"name":"amount","type":"uint256","indexed":false,"internalType":"uint256"}],"anonymous":false},{"type":"event","name":"EmergencyWithdrawal","inputs":[{"name":"token","type":"address","indexed":true,"internalType":"address"},{"name":"to","type":"address","indexed":true,"internalType":"address"},{"name":"amount","type":"uint256","indexed":false,"internalType":"uint256"},{"name":"admin","type":"address","indexed":true,"internalType":"address"}],"anonymous":false},{"type":"event","name":"Minted","inputs":[{"name":"to","type":"address","indexed":true,"internalType":"address"},{"name":"amount","type":"uint256","indexed":false,"internalType":"uint256"}],"anonymous":false},{"type":"event","name":"OwnershipHandoverCanceled","inputs":[{"name":"pendingOwner","type":"address","indexed":true,"internalType":"address"}],"anonymous":false},{"type":"event","name":"OwnershipHandoverRequested","inputs":[{"name":"pendingOwner","type":"address","indexed":true,"internalType":"address"}],"anonymous":false},{"type":"event","name":"OwnershipTransferred","inputs":[{"name":"oldOwner","type":"address","indexed":true,"internalType":"address"},{"name":"newOwner","type":"address","indexed":true,"internalType":"address"}],"anonymous":false},{"type":"event","name":"PauseState","inputs":[{"name":"isPaused","type":"bool","indexed":false,"internalType":"bool"}],"anonymous":false},{"type":"event","name":"RescuedAssets","inputs":[{"name":"asset","type":"address","indexed":true,"internalType":"address"},{"name":"to","type":"address","indexed":true,"internalType":"address"},{"name":"amount","type":"uint256","indexed":false,"internalType":"uint256"}],"anonymous":false},{"type":"event","name":"RescuedETH","inputs":[{"name":"asset","type":"address","indexed":true,"internalType":"address"},{"name":"amount","type":"uint256","indexed":false,"internalType":"uint256"}],"anonymous":false},{"type":"event","name":"RolesUpdated","inputs":[{"name":"user","type":"address","indexed":true,"internalType":"address"},{"name":"roles","type":"uint256","indexed":true,"internalType":"uint256"}],"anonymous":false},{"type":"event","name":"TokenCreated","inputs":[{"name":"token","type":"address","indexed":true,"internalType":"address"},{"name":"owner","type":"address","indexed":false,"internalType":"address"},{"name":"name","type":"string","indexed":false,"internalType":"string"},{"name":"symbol","type":"string","indexed":false,"internalType":"string"},{"name":"decimals","type":"uint8","indexed":false,"internalType":"uint8"}],"anonymous":false},{"type":"event","name":"Transfer","inputs":[{"name":"from","type":"address","indexed":true,"internalType":"address"},{"name":"to","type":"address","indexed":true,"internalType":"address"},{"name":"amount","type":"uint256","indexed":false,"internalType":"uint256"}],"anonymous":false},{"type":"error","name":"AllowanceOverflow","inputs":[]},{"type":"error","name":"AllowanceUnderflow","inputs":[]},{"type":"error","name":"AlreadyInitialized","inputs":[]},{"type":"error","name":"InsufficientAllowance","inputs":[]},{"type":"error","name":"InsufficientBalance","inputs":[]},{"type":"error","name":"InvalidPermit","inputs":[]},{"type":"error","name":"NewOwnerIsZeroAddress","inputs":[]},{"type":"error","name":"NoHandoverRequest","inputs":[]},{"type":"error","name":"Permit2AllowanceIsFixedAtInfinity","inputs":[]},{"type":"error","name":"PermitExpired","inputs":[]},{"type":"error","name":"Reentrancy","inputs":[]},{"type":"error","name":"TotalSupplyOverflow","inputs":[]},{"type":"error","name":"Unauthorized","inputs":[]}],"bytecode":{"object":"0x6080604052346104e9576120b580380380610019816104ed565b928339810160e0828203126104e95761003182610512565b9161003e60208201610512565b9161004b60408301610512565b61005760608401610512565b60808401519091906001600160401b0381116104e95783610079918601610526565b60a08501519093906001600160401b0381116104e95760c09161009d918701610526565b9401519560ff87168097036104e9576001600160a01b0316946100c96100c1610577565b8715156105b7565b6100e56100d4610577565b6001600160a01b03831615156105b7565b6101016100f0610577565b6001600160a01b03841615156105b7565b61011d61010c610577565b6001600160a01b03851615156105b7565b85638b78c6d81955855f7f8be0079c531659141344cd1fd0a4f28419497f9722a3daafe3b4186f6b6457e08180a3638b78c6d8600c525f526020600c206001815417809155600c5160601c5f5160206120955f395f51905f525f80a3638b78c6d8600c525f526020600c206002815417809155600c5160601c5f5160206120955f395f51905f525f80a3638b78c6d8600c525f526020600c206004815417809155600c5160601c5f5160206120955f395f51905f525f80a380516001600160401b0381116103f957600154600181811c911680156104df575b60208210146103db57601f811161047c575b50806020601f8211600114610418575f9161040d575b508160011b915f199060031b1c1916176001555b81516001600160401b0381116103f957600254600181811c911680156103ef575b60208210146103db57601f8111610378575b506020601f82116001146102ff576102d992825f5160206120755f395f51905f529695936102cb935f916102f4575b508160011b915f199060031b1c1916176002555b8660ff196003541617600355604051948552608060208601526080850190610593565b908382036040850152610593565b9260608201528030930390a2604051611a8d90816105e88239f35b90508401515f610294565b601f1982169060025f52805f20915f5b8181106103605750836102cb936102d996935f5160206120755f395f51905f5299989660019410610348575b5050811b016002556102a8565b8601515f1960f88460031b161c191690555f8061033b565b9192602060018192868a01518155019401920161030f565b60025f527f405787fa12a823e0f2b7631cc41b3ba8828b3321ca811111fa75cd3aa3bb5ace601f830160051c810191602084106103d1575b601f0160051c01905b8181106103c65750610265565b5f81556001016103b9565b90915081906103b0565b634e487b7160e01b5f52602260045260245ffd5b90607f1690610253565b634e487b7160e01b5f52604160045260245ffd5b90508201515f61021e565b60015f9081528181209250601f198416905b8181106104645750908360019493921061044c575b5050811b01600155610232565b8401515f1960f88460031b161c191690555f8061043f565b9192602060018192868901518155019401920161042a565b60015f527fb10e2d527612073b26eecdfd717e6a320cf44b4afac2b0732d9fcbe2b7fa0cf6601f830160051c810191602084106104d5575b601f0160051c01905b8181106104ca5750610208565b5f81556001016104bd565b90915081906104b4565b90607f16906101f6565b5f80fd5b6040519190601f01601f191682016001600160401b038111838210176103f957604052565b51906001600160a01b03821682036104e957565b81601f820112156104e9578051906001600160401b0382116103f957610555601f8301601f19166020016104ed565b92828452602083830101116104e957815f9260208093018386015e8301015290565b61058160406104ed565b906002825261543360f01b6020830152565b805180835260209291819084018484015e5f828201840152601f01601f1916010190565b156105bf5750565b60405162461bcd60e51b8152602060048201529081906105e3906024830190610593565b0390fdfe60806040526004361015610011575f80fd5b5f3560e01c806306fdde031461155e578063095ea7b3146114c257806316c38b3c1461144057806318160ddd1461141b578063183a4f6e146114035780631c10893f146113a35780631cd64df41461136a57806323b872dd14611275578063256929621461122c5780632de94807146111fa578063313ce567146111da5780633644e515146111525780633dd1eb61146110ee57806340c10f19146110035780634a4ee7b114610fdb578063514e62fc14610fa357806354d1f13d14610f5f57806369e2f0fb14610ef95780636e76fc8f14610ede57806370a0823114610eac578063715018a614610e635780637314eb0c14610dff57806375b238fc14610de457806379cc679014610d745780637ecebe0014610d425780638da5cb5b14610d0b57806395d89b4114610bfd5780639a19c7b014610b975780639dc29fac14610b1d578063a9059cbb14610a86578063ac9650d81461095a578063acef2efc146108f4578063b187bd26146108d3578063c634b78e1461086f578063d505accf14610571578063d539139314610556578063dd62ed3e14610522578063e63ea4081461029c578063f04e283e1461024f578063f2fde38b146102125763fee81cf4146101dc575f80fd5b3461020e57602060031936011261020e576101f56115c1565b63389a75e1600c525f52602080600c2054604051908152f35b5f80fd5b602060031936011261020e576102266115c1565b61022e611891565b8060601b1561024257610240906118e7565b005b637448fbae5f526004601cfd5b602060031936011261020e576102636115c1565b61026b611891565b63389a75e1600c52805f526020600c20908154421161028f575f61024092556118e7565b636f5e88185f526004601cfd5b3461020e576102aa36611607565b916102b3611833565b73ffffffffffffffffffffffffffffffffffffffff8216918360409161031083516102de858261165b565b600281527f543300000000000000000000000000000000000000000000000000000000000060208201528615156117f1565b610351835161031f858261165b565b600281527f543400000000000000000000000000000000000000000000000000000000000060208201528315156117f1565b73ffffffffffffffffffffffffffffffffffffffff8416938461049957505f80809381935af13d15610490573d9067ffffffffffffffff821161046357825161040c926103c6601f82017fffffffffffffffffffffffffffffffffffffffffffffffffffffffffffffffe0166020018361165b565b81525f60203d92013e5b8251906103dd848361165b565b600282527f543200000000000000000000000000000000000000000000000000000000000060208301526117f1565b827f63b8c8e180bc85c19daef23e2bb787fb49672d3a9ecde24409c18ccb1accb5d160208351878152a25b519283527f8b28f02a1e9e91961798733908ab75ee54752c8b9e39827e211f752b16845aa660203394a4005b7f4e487b71000000000000000000000000000000000000000000000000000000005f52604160045260245ffd5b61040c906103d0565b9150601452846034526fa9059cbb0000000000000000000000005f5260205f6044601082855af1908160015f51141615610504575b50505f60345282827f552c8f8dc30f2786e14004d98595afcc1c0ea1f552b86e86f64a2da74761eaab60208451888152a3610437565b3b153d1710156105155784806104ce565b6390b8ec185f526004601cfd5b3461020e57604060031936011261020e57602061054e6105406115c1565b6105486115e4565b90611788565b604051908152f35b3461020e575f60031936011261020e57602060405160048152f35b3461020e5760e060031936011261020e5761058a6115c1565b6105926115e4565b604435916064356084359260ff8416840361020e5773ffffffffffffffffffffffffffffffffffffffff16938019156e22d473030f116ddee9f6b43ac78ba386181715610862576040515f906001548060011c9060018116938415610858575b60208310851461082b578284526020840194849281156107f15750600114610792575b6106219250038261165b565b519020908242116107855773ffffffffffffffffffffffffffffffffffffffff60405194169465383775081901600e52855f5260c06020600c20958654957f8b73c3c69bb8fe3d512ecc4cf759cc79239f7b179b0ffacaa9a75d522b39400f8252602082019586528660408301967fc89efdaa54c0f20c7adf612882df0950f5a951637e0307cdcb4c672f298b8bc688528b6060850198468a528c608087019330855260a08820602e527f6e71edae12b1b97f4d1f60370fef10105fa2faae0126114a169c64845d6126c9885252528688525260a082015220604e526042602c205f5260ff1660205260a43560405260c43560605260208060805f60015afa93853d5103610778577f8c5be1e5ebec7d5bd14f71427d1e84f3dd0314c0f7b2291e5b200ac8c7c3b9259460209401905585777f5e9f200000000000000000000000000000000000000000176040526034602c2055a3005b63ddafbaef5f526004601cfd5b631a15a3cc5f526004601cfd5b5060015f90815290917fb10e2d527612073b26eecdfd717e6a320cf44b4afac2b0732d9fcbe2b7fa0cf65b8183106107d557505090602061062192820101610615565b60209193508060019154838588010152019101909183926107bd565b7fffffffffffffffffffffffffffffffffffffffffffffffffffffffffffffff001686525061062192151560051b82016020019050610615565b7f4e487b71000000000000000000000000000000000000000000000000000000005f52602260045260245ffd5b91607f16916105f2565b633f68539a5f526004601cfd5b3461020e57602060031936011261020e576108886115c1565b610890611891565b638b78c6d8600c525f526020600c206001815417809155600c5160601c7f715ad5ce61fc9595c7b415289d59cf203f23a94fa06f04af7e489a0a76e1fe265f80a3005b3461020e575f60031936011261020e57602060ff5f54166040519015158152f35b3461020e57602060031936011261020e5761090d6115c1565b61091561185b565b638b78c6d8600c525f526020600c2080546002811618809155600c5160601c7f715ad5ce61fc9595c7b415289d59cf203f23a94fa06f04af7e489a0a76e1fe265f80a3005b602060031936011261020e5760043567ffffffffffffffff811161020e573660238201121561020e57806004013567ffffffffffffffff811161020e578060051b366024828501011161020e573461020e5760405192839260208452808460200152604084810193806024850186378501019283916109f1575b505050806040520360401b178060401c9067ffffffffffffffff16f35b919350915b80915f6044825187016024810135918291018537389084305af415610a7d57602067ffffffffffffffe0603f5f937fffffffffffffffffffffffffffffffffffffffffffffffffffffffffffffffc08a87030181528301943d81523d858583013e3d010116933d0101528483821015610a705750906109f6565b93505090508380806109d4565b853d5f823e3d90fd5b3461020e57604060031936011261020e57610a9f6115c1565b60243590610aab6118a0565b6387a211a2600c52335f526020600c208054808411610b105783900390555f526020600c20818154019055602052600c5160601c337fddf252ad1be2c89b69c2b068fc378daa952ba7f163c4a11628f55a4df523b3ef602080a3602060405160018152f35b63f4d678b85f526004601cfd5b3461020e57604060031936011261020e57610b366115c1565b7f696de425f79f4a40bc6d2122ca50507f0efbeabbff86a84871b7196ab8ea8df7602073ffffffffffffffffffffffffffffffffffffffff60243593610b7a611876565b610b826118a0565b610b8c8582611990565b6040519485521692a2005b3461020e57602060031936011261020e57610bb06115c1565b610bb8611891565b638b78c6d8600c525f526020600c2080546001811618809155600c5160601c7f715ad5ce61fc9595c7b415289d59cf203f23a94fa06f04af7e489a0a76e1fe265f80a3005b3461020e575f60031936011261020e576040515f6002548060011c90600181168015610d01575b60208310811461082b57828552908115610cbf5750600114610c61575b610c5d83610c518185038261165b565b60405191829182611579565b0390f35b60025f9081527f405787fa12a823e0f2b7631cc41b3ba8828b3321ca811111fa75cd3aa3bb5ace939250905b808210610ca557509091508101602001610c51610c41565b919260018160209254838588010152019101909291610c8d565b7fffffffffffffffffffffffffffffffffffffffffffffffffffffffffffffff001660208086019190915291151560051b84019091019150610c519050610c41565b91607f1691610c24565b3461020e575f60031936011261020e576020638b78c6d8195473ffffffffffffffffffffffffffffffffffffffff60405191168152f35b3461020e57602060031936011261020e57610d5b6115c1565b6338377508600c525f52602080600c2054604051908152f35b3461020e57604060031936011261020e57610d8d6115c1565b7f696de425f79f4a40bc6d2122ca50507f0efbeabbff86a84871b7196ab8ea8df7602073ffffffffffffffffffffffffffffffffffffffff60243593610dd1611876565b610dd96118a0565b610b82853383611932565b3461020e575f60031936011261020e57602060405160018152f35b3461020e57602060031936011261020e57610e186115c1565b610e2061185b565b638b78c6d8600c525f526020600c206002815417809155600c5160601c7f715ad5ce61fc9595c7b415289d59cf203f23a94fa06f04af7e489a0a76e1fe265f80a3005b5f60031936011261020e57610e76611891565b5f638b78c6d819547f8be0079c531659141344cd1fd0a4f28419497f9722a3daafe3b4186f6b6457e08280a35f638b78c6d81955005b3461020e57602060031936011261020e57610ec56115c1565b6387a211a2600c525f52602080600c2054604051908152f35b3461020e575f60031936011261020e57602060405160028152f35b3461020e57602060031936011261020e57610f126115c1565b610f1a61185b565b638b78c6d8600c525f526020600c2080546004811618809155600c5160601c7f715ad5ce61fc9595c7b415289d59cf203f23a94fa06f04af7e489a0a76e1fe265f80a3005b5f60031936011261020e5763389a75e1600c52335f525f6020600c2055337ffa7b8eab7da67f412cc9575ed43464468f9bfbae89d1675917346ca6d8fe3c925f80a2005b3461020e57604060031936011261020e57610fbc6115c1565b638b78c6d8600c525f52602060243581600c2054161515604051908152f35b604060031936011261020e57610240610ff26115c1565b610ffa611891565b60243590611a12565b3461020e57604060031936011261020e5761101c6115c1565b60243590611028611876565b6110306118a0565b6110386118a0565b6805345cdf77eb68f44c54908282019182106110e15773ffffffffffffffffffffffffffffffffffffffff6020917f30385c845b448a36257a6a1716e6ad2e1bc2cbe333cde1e69fe849ad6511adfe936805345cdf77eb68f44c556387a211a2600c52805f5282600c20858154019055848352600c5160601c5f7fddf252ad1be2c89b69c2b068fc378daa952ba7f163c4a11628f55a4df523b3ef8580a36040519485521692a2005b63e5cfe9575f526004601cfd5b3461020e57602060031936011261020e576111076115c1565b61110f61185b565b638b78c6d8600c525f526020600c206004815417809155600c5160601c7f715ad5ce61fc9595c7b415289d59cf203f23a94fa06f04af7e489a0a76e1fe265f80a3005b3461020e575f60031936011261020e57602060a061116e61169c565b828151910120604051907f8b73c3c69bb8fe3d512ecc4cf759cc79239f7b179b0ffacaa9a75d522b39400f8252838201527fc89efdaa54c0f20c7adf612882df0950f5a951637e0307cdcb4c672f298b8bc6604082015246606082015230608082015220604051908152f35b3461020e575f60031936011261020e57602060ff60035416604051908152f35b3461020e57602060031936011261020e576112136115c1565b638b78c6d8600c525f52602080600c2054604051908152f35b5f60031936011261020e5763389a75e1600c52335f526202a30042016020600c2055337fdbf36a107da19e49527a7176a1babf963b4b0ff8cde35ee35d6cd8f1f9ac7e1d5f80a2005b3461020e5761128336611607565b9061128c6118a0565b8260601b6e22d473030f116ddee9f6b43ac78ba33303611320575b6387a211a217600c526020600c208054808411610b105783900390555f526020600c2081815401905560205273ffffffffffffffffffffffffffffffffffffffff600c5160601c91167fddf252ad1be2c89b69c2b068fc378daa952ba7f163c4a11628f55a4df523b3ef602080a3602060405160018152f35b33602052637f5e9f208117600c526034600c20908154918219611346575b5090506112a7565b82851161135d57846387a211a2930390558561133e565b6313be252b5f526004601cfd5b3461020e57604060031936011261020e5760206113856115c1565b60243590638b78c6d8600c525f528082600c20541614604051908152f35b604060031936011261020e576113b76115c1565b6113bf611891565b638b78c6d8600c525f526020600c20602435815417809155600c5160601c7f715ad5ce61fc9595c7b415289d59cf203f23a94fa06f04af7e489a0a76e1fe265f80a3005b602060031936011261020e5761024060043533611a12565b3461020e575f60031936011261020e5760206805345cdf77eb68f44c54604051908152f35b3461020e57602060031936011261020e5760043580151580910361020e5760207f4a70f7b28175f47e972c97acb46a374c20795051fa46ea55d41c77b1aabcaef59161148a611833565b60ff7fffffffffffffffffffffffffffffffffffffffffffffffffffffffffffffff005f541691168091175f556040519015158152a1005b3461020e57604060031936011261020e576114db6115c1565b602435908119156e22d473030f116ddee9f6b43ac78ba373ffffffffffffffffffffffffffffffffffffffff831618171561086257602052637f5e9f20600c52335f52806034600c20555f52602c5160601c337f8c5be1e5ebec7d5bd14f71427d1e84f3dd0314c0f7b2291e5b200ac8c7c3b92560205fa3602060405160018152f35b3461020e575f60031936011261020e57610c5d610c5161169c565b7fffffffffffffffffffffffffffffffffffffffffffffffffffffffffffffffe0601f602060409481855280519182918282880152018686015e5f8582860101520116010190565b6004359073ffffffffffffffffffffffffffffffffffffffff8216820361020e57565b6024359073ffffffffffffffffffffffffffffffffffffffff8216820361020e57565b600319606091011261020e5760043573ffffffffffffffffffffffffffffffffffffffff8116810361020e579060243573ffffffffffffffffffffffffffffffffffffffff8116810361020e579060443590565b90601f7fffffffffffffffffffffffffffffffffffffffffffffffffffffffffffffffe0910116810190811067ffffffffffffffff82111761046357604052565b604051905f6001548060011c916001821691821561177e575b60208410831461082b57838652859290811561174157506001146116e2575b6116e09250038361165b565b565b5060015f90815290917fb10e2d527612073b26eecdfd717e6a320cf44b4afac2b0732d9fcbe2b7fa0cf65b8183106117255750509060206116e0928201016116d4565b602091935080600191548385890101520191019091849261170d565b602092506116e09491507fffffffffffffffffffffffffffffffffffffffffffffffffffffffffffffff001682840152151560051b8201016116d4565b92607f16926116b5565b906e22d473030f116ddee9f6b43ac78ba373ffffffffffffffffffffffffffffffffffffffff8216146117cb57602052637f5e9f20600c525f526034600c205490565b50507fffffffffffffffffffffffffffffffffffffffffffffffffffffffffffffffff90565b156117f95750565b61182f906040519182917f08c379a000000000000000000000000000000000000000000000000000000000835260048301611579565b0390fd5b638b78c6d8600c52335f5260026020600c2054161561184e57565b6382b429005f526004601cfd5b638b78c6d8600c52335f5260016020600c2054161561184e57565b638b78c6d8600c52335f5260046020600c2054161561184e57565b638b78c6d81954330361184e57565b6116e060ff5f541615604051906118b860408361165b565b600282527f543100000000000000000000000000000000000000000000000000000000000060208301526117f1565b73ffffffffffffffffffffffffffffffffffffffff1680638b78c6d819547f8be0079c531659141344cd1fd0a4f28419497f9722a3daafe3b4186f6b6457e05f80a3638b78c6d81955565b906e22d473030f116ddee9f6b43ac78ba373ffffffffffffffffffffffffffffffffffffffff82161461198b57602052637f5e9f20600c525f526034600c20908154801961197f57505050565b80821161135d57039055565b505050565b906119996118a0565b6387a211a2600c52815f526020600c2091825491828111610b10575f938173ffffffffffffffffffffffffffffffffffffffff94039055806805345cdf77eb68f44c54036805345cdf77eb68f44c558352167fddf252ad1be2c89b69c2b068fc378daa952ba7f163c4a11628f55a4df523b3ef602083a3565b638b78c6d8600c525f526020600c2090815490811618809155600c5160601c7f715ad5ce61fc9595c7b415289d59cf203f23a94fa06f04af7e489a0a76e1fe265f80a356fea264697066735822122005e1f00dd868cfa7a868c3c2f4e199543a09d644a83b3fb3a9124660b6ee3ca464736f6c634300081e003381b2c8a397ec791820fda8a174ba4714156d0b2a1fb31150d5621518c2a4666c715ad5ce61fc9595c7b415289d59cf203f23a94fa06f04af7e489a0a76e1fe26","linkReferences":{}},"methodIdentifiers":{"ADMIN_ROLE()":"75b238fc","DOMAIN_SEPARATOR()":"3644e515","EMERGENCY_ADMIN_ROLE()":"6e76fc8f","MINTER_ROLE()":"d5391393","allowance(address,address)":"dd62ed3e","approve(address,uint256)":"095ea7b3","balanceOf(address)":"70a08231","burn(address,uint256)":"9dc29fac","burnFrom(address,uint256)":"79cc6790","cancelOwnershipHandover()":"54d1f13d","completeOwnershipHandover(address)":"f04e283e","decimals()":"313ce567","emergencyWithdraw(address,address,uint256)":"e63ea408","grantAdminRole(address)":"c634b78e","grantEmergencyRole(address)":"7314eb0c","grantMinterRole(address)":"3dd1eb61","grantRoles(address,uint256)":"1c10893f","hasAllRoles(address,uint256)":"1cd64df4","hasAnyRole(address,uint256)":"514e62fc","isPaused()":"b187bd26","mint(address,uint256)":"40c10f19","multicall(bytes[])":"ac9650d8","name()":"06fdde03","nonces(address)":"7ecebe00","owner()":"8da5cb5b","ownershipHandoverExpiresAt(address)":"fee81cf4","permit(address,address,uint256,uint256,uint8,bytes32,bytes32)":"d505accf","renounceOwnership()":"715018a6","renounceRoles(uint256)":"183a4f6e","requestOwnershipHandover()":"25692962","revokeAdminRole(address)":"9a19c7b0","revokeEmergencyRole(address)":"acef2efc","revokeMinterRole(address)":"69e2f0fb","revokeRoles(address,uint256)":"4a4ee7b1","rolesOf(address)":"2de94807","setPaused(bool)":"16c38b3c","symbol()":"95d89b41","totalSupply()":"18160ddd","transfer(address,uint256)":"a9059cbb","transferFrom(address,address,uint256)":"23b872dd","transferOwnership(address)":"f2fde38b"},"storageLayout":{"storage":[{"astId":63224,"contract":"src/kToken.sol:kToken","label":"_isPaused","offset":0,"slot":"0","type":"t_bool"},{"astId":63227,"contract":"src/kToken.sol:kToken","label":"_name","offset":0,"slot":"1","type":"t_string_storage"},{"astId":63230,"contract":"src/kToken.sol:kToken","label":"_symbol","offset":0,"slot":"2","type":"t_string_storage"},{"astId":63233,"contract":"src/kToken.sol:kToken","label":"_decimals","offset":0,"slot":"3","type":"t_uint8"}],"types":{"t_bool":{"encoding":"inplace","label":"bool","numberOfBytes":"1"},"t_string_storage":{"encoding":"bytes","label":"string","numberOfBytes":"32"},"t_uint8":{"encoding":"inplace","label":"uint8","numberOfBytes":"1"}}},"id":68}