{"abi":[{"type":"function","name":"registry","inputs":[],"outputs":[{"name":"","type":"address","internalType":"address"}],"stateMutability":"view"},{"type":"function","name":"rescueAssets","inputs":[{"name":"asset_","type":"address","internalType":"address"},{"name":"to_","type":"address","internalType":"address"},{"name":"amount_","type":"uint256","internalType":"uint256"}],"outputs":[],"stateMutability":"payable"},{"type":"function","name":"setPaused","inputs":[{"name":"paused_","type":"bool","internalType":"bool"}],"outputs":[],"stateMutability":"nonpayable"},{"type":"event","name":"Paused","inputs":[{"name":"paused_","type":"bool","indexed":false,"internalType":"bool"}],"anonymous":false},{"type":"event","name":"RescuedAssets","inputs":[{"name":"asset_","type":"address","indexed":true,"internalType":"address"},{"name":"to_","type":"address","indexed":true,"internalType":"address"},{"name":"amount_","type":"uint256","indexed":false,"internalType":"uint256"}],"anonymous":false},{"type":"event","name":"RescuedETH","inputs":[{"name":"to_","type":"address","indexed":true,"internalType":"address"},{"name":"amount_","type":"uint256","indexed":false,"internalType":"uint256"}],"anonymous":false},{"type":"error","name":"Reentrancy","inputs":[]}],"bytecode":{"object":"0x60808060405234601557610876908161001a8239f35b5f80fdfe60806040526004361015610011575f80fd5b5f3560e01c806316c38b3c146104e15780637b1039991461048b5763d01b5de41461003a575f80fd5b60607ffffffffffffffffffffffffffffffffffffffffffffffffffffffffffffffffc3601126104875760043573ffffffffffffffffffffffffffffffffffffffff811690818103610487576024359173ffffffffffffffffffffffffffffffffffffffff83169283810361048757604435916024602073ffffffffffffffffffffffffffffffffffffffff6100ce6107fa565b16604051928380927f24d7806c0000000000000000000000000000000000000000000000000000000082523360048301525afa801561047c57610121915f9161045d575b5061011b6106b2565b906106ed565b60409361016585516101338782610671565b600281527f4b3500000000000000000000000000000000000000000000000000000000000060208201528715156106ed565b816102ad5750505f8080848194811515806102a3575b6101879061011b6107a7565b5af1903d15610276573d9267ffffffffffffffff84116102495761024260209385857fffffffffffffffffffffffffffffffffffffffffffffffffffffffffffffffe0601f7f63b8c8e180bc85c19daef23e2bb787fb49672d3a9ecde24409c18ccb1accb5d199011601906101fe85519283610671565b81525f863d92013e5b8251906102148483610671565b600282527f4b37000000000000000000000000000000000000000000000000000000000000868301526106ed565b51908152a2005b7f4e487b71000000000000000000000000000000000000000000000000000000005f52604160045260245ffd5b7f63b8c8e180bc85c19daef23e2bb787fb49672d3a9ecde24409c18ccb1accb5d192610242602093610207565b504782111561017b565b9093916024602073ffffffffffffffffffffffffffffffffffffffff6102d16107fa565b168551928380927fc87fa42a0000000000000000000000000000000000000000000000000000000082528a60048301525afa9081156104535790610354915f91610424575b508451906103248683610671565b600282527f4b380000000000000000000000000000000000000000000000000000000000006020830152156106ed565b831515806103ec575b6103699061011b6107a7565b601452826034526fa9059cbb0000000000000000000000005f5260205f6044601082855af1908160015f511416156103ce575b50507f552c8f8dc30f2786e14004d98595afcc1c0ea1f552b86e86f64a2da74761eaab916020915f60345251908152a3005b3b153d1710156103df575f8061039c565b6390b8ec185f526004601cfd5b50306014526f70a082310000000000000000000000005f5261036960208060246010865afa601f3d111660205102851115905061035d565b610446915060203d60201161044c575b61043e8183610671565b8101906107e2565b5f610316565b503d610434565b84513d5f823e3d90fd5b610476915060203d60201161044c5761043e8183610671565b5f610112565b6040513d5f823e3d90fd5b5f80fd5b34610487575f7ffffffffffffffffffffffffffffffffffffffffffffffffffffffffffffffffc36011261048757602073ffffffffffffffffffffffffffffffffffffffff6104d86107fa565b16604051908152f35b346104875760207ffffffffffffffffffffffffffffffffffffffffffffffffffffffffffffffffc3601126104875760043580151580910361048757602490602073ffffffffffffffffffffffffffffffffffffffff61053f6107fa565b16604051938480927f2500f2b60000000000000000000000000000000000000000000000000000000082523360048301525afa90811561047c576105b06020927f0e2fb031ee032dc02d8011dc50b816eb450cf856abd8261680dac74f72165bd2945f91610654575061011b6106b2565b7fe91688684975c4d7d54a65dd96da5d4dcbb54b8971c046d5351d3c111e43a800546105e96105dd61076c565b60ff8360a01c166106ed565b7fffffffffffffffffffff00ffffffffffffffffffffffffffffffffffffffffff75ff0000000000000000000000000000000000000000008360a81b169116177fe91688684975c4d7d54a65dd96da5d4dcbb54b8971c046d5351d3c111e43a80055604051908152a1005b61066b9150843d861161044c5761043e8183610671565b85610112565b90601f7fffffffffffffffffffffffffffffffffffffffffffffffffffffffffffffffe0910116810190811067ffffffffffffffff82111761024957604052565b604051906106c1604083610671565b600282527f4b340000000000000000000000000000000000000000000000000000000000006020830152565b156106f55750565b60446020917fffffffffffffffffffffffffffffffffffffffffffffffffffffffffffffffe0601f6040519485937f08c379a00000000000000000000000000000000000000000000000000000000085528160048601528051918291826024880152018686015e5f85828601015201168101030190fd5b6040519061077b604083610671565b600282527f4b330000000000000000000000000000000000000000000000000000000000006020830152565b604051906107b6604083610671565b600282527f4b360000000000000000000000000000000000000000000000000000000000006020830152565b90816020910312610487575180151581036104875790565b73ffffffffffffffffffffffffffffffffffffffff7fe91688684975c4d7d54a65dd96da5d4dcbb54b8971c046d5351d3c111e43a8005461083c6105dd61076c565b169056fea264697066735822122097dbac49be1803afa633df3adc4197d65f9a658f857c796249bb48512070c93864736f6c634300081e0033","linkReferences":{}},"methodIdentifiers":{"registry()":"7b103999","rescueAssets(address,address,uint256)":"d01b5de4","setPaused(bool)":"16c38b3c"},"storageLayout":{"storage":[],"types":{}},"id":38}