{"abi":[{"type":"constructor","inputs":[{"name":"name_","type":"string","internalType":"string"}],"stateMutability":"nonpayable"},{"type":"receive","stateMutability":"payable"},{"type":"function","name":"getBalance","inputs":[{"name":"token","type":"address","internalType":"address"}],"outputs":[{"name":"","type":"uint256","internalType":"uint256"}],"stateMutability":"view"},{"type":"function","name":"name","inputs":[],"outputs":[{"name":"","type":"string","internalType":"string"}],"stateMutability":"view"},{"type":"function","name":"transfer","inputs":[{"name":"token","type":"address","internalType":"address"},{"name":"to","type":"address","internalType":"address"},{"name":"amount","type":"uint256","internalType":"uint256"}],"outputs":[],"stateMutability":"nonpayable"}],"bytecode":{"object":"0x6080604052346101f4576105fb80380380610019816101f8565b9283398101906020818303126101f4578051906001600160401b0382116101f4570181601f820112156101f4578051906001600160401b0382116101e05761006a601f8301601f19166020016101f8565b92828452602083830101116101f457815f9260208093018386015e8301015280516001600160401b0381116101e0575f54600181811c911680156101d6575b60208210146101c257601f8111610160575b50602091601f8211600114610102579181925f926100f7575b50508160011b915f199060031b1c1916175f555b6040516103dd908161021e8239f35b015190505f806100d4565b601f198216925f8052805f20915f5b85811061014857508360019510610130575b505050811b015f556100e8565b01515f1960f88460031b161c191690555f8080610123565b91926020600181928685015181550194019201610111565b5f80527f290decd9548b62a8d60345a988386fc84ba6bc95484008f6362f93160ef3e563601f830160051c810191602084106101b8575b601f0160051c01905b8181106101ad57506100bb565b5f81556001016101a0565b9091508190610197565b634e487b7160e01b5f52602260045260245ffd5b90607f16906100a9565b634e487b7160e01b5f52604160045260245ffd5b5f80fd5b6040519190601f01601f191682016001600160401b038111838210176101e05760405256fe608080604052600436101561001c575b50361561001a575f80fd5b005b5f3560e01c90816306fdde031461016557508063beabacc8146100b55763f8b2cb4f14610049575f61000f565b346100b15760207ffffffffffffffffffffffffffffffffffffffffffffffffffffffffffffffffc3601126100b1576020808060246010610088610384565b306014526f70a082310000000000000000000000005f525afa601f3d1116815102604051908152f35b5f80fd5b346100b15760607ffffffffffffffffffffffffffffffffffffffffffffffffffffffffffffffffc3601126100b1576100ec610384565b60243573ffffffffffffffffffffffffffffffffffffffff811681036100b1576014526044356034526fa9059cbb0000000000000000000000005f5260205f6044601082855af1908160015f51141615610147575b5f603452005b3b153d171015610158578080610141565b6390b8ec185f526004601cfd5b346100b1575f7ffffffffffffffffffffffffffffffffffffffffffffffffffffffffffffffffc3601126100b1575f5f548060011c916001821692831561037c575b60208110841461034f578085526020850193859381156102f85750600114610280575b5003601f017fffffffffffffffffffffffffffffffffffffffffffffffffffffffffffffffe01682019167ffffffffffffffff831181841017610253577fffffffffffffffffffffffffffffffffffffffffffffffffffffffffffffffe0601f6040938593848652602085525180918160208701528686015e5f85828601015201168101030190f35b7f4e487b71000000000000000000000000000000000000000000000000000000005f52604160045260245ffd5b5f80805291507f290decd9548b62a8d60345a988386fc84ba6bc95484008f6362f93160ef3e5635b8183106102dc57505081016020017fffffffffffffffffffffffffffffffffffffffffffffffffffffffffffffffe06101ca565b60209193508060019154838589010152019101909184926102a8565b7fffffffffffffffffffffffffffffffffffffffffffffffffffffffffffffff0016855250151560051b820160200190507fffffffffffffffffffffffffffffffffffffffffffffffffffffffffffffffe06101ca565b7f4e487b71000000000000000000000000000000000000000000000000000000005f52602260045260245ffd5b607f166101a7565b6004359073ffffffffffffffffffffffffffffffffffffffff821682036100b15756fea2646970667358221220a4dc3ff477a9d5e121bc84f39cc9c57388f40472e8f38cc597cac46eb373ce7764736f6c634300081e0033","linkReferences":{}},"methodIdentifiers":{"getBalance(address)":"f8b2cb4f","name()":"06fdde03","transfer(address,address,uint256)":"beabacc8"},"storageLayout":{"storage":[{"astId":68503,"contract":"test/mocks/MockWallet.sol:MockWallet","label":"name","offset":0,"slot":"0","type":"t_string_storage"}],"types":{"t_string_storage":{"encoding":"bytes","label":"string","numberOfBytes":"32"}}},"id":98}