{"abi":[{"type":"constructor","inputs":[],"stateMutability":"nonpayable"},{"type":"fallback","stateMutability":"payable"},{"type":"function","name":"DOMAIN_SEPARATOR","inputs":[],"outputs":[{"name":"result","type":"bytes32","internalType":"bytes32"}],"stateMutability":"view"},{"type":"function","name":"addFunction","inputs":[{"name":"selector","type":"bytes4","internalType":"bytes4"},{"name":"implementation","type":"address","internalType":"address"},{"name":"forceOverride","type":"bool","internalType":"bool"}],"outputs":[],"stateMutability":"nonpayable"},{"type":"function","name":"addFunctions","inputs":[{"name":"selectors","type":"bytes4[]","internalType":"bytes4[]"},{"name":"implementation","type":"address","internalType":"address"},{"name":"forceOverride","type":"bool","internalType":"bool"}],"outputs":[],"stateMutability":"nonpayable"},{"type":"function","name":"allowance","inputs":[{"name":"owner","type":"address","internalType":"address"},{"name":"spender","type":"address","internalType":"address"}],"outputs":[{"name":"result","type":"uint256","internalType":"uint256"}],"stateMutability":"view"},{"type":"function","name":"approve","inputs":[{"name":"spender","type":"address","internalType":"address"},{"name":"amount","type":"uint256","internalType":"uint256"}],"outputs":[{"name":"","type":"bool","internalType":"bool"}],"stateMutability":"nonpayable"},{"type":"function","name":"balanceOf","inputs":[{"name":"owner","type":"address","internalType":"address"}],"outputs":[{"name":"result","type":"uint256","internalType":"uint256"}],"stateMutability":"view"},{"type":"function","name":"burnFees","inputs":[{"name":"shares","type":"uint256","internalType":"uint256"}],"outputs":[],"stateMutability":"nonpayable"},{"type":"function","name":"cancelOwnershipHandover","inputs":[],"outputs":[],"stateMutability":"payable"},{"type":"function","name":"cancelStakeRequest","inputs":[{"name":"requestId","type":"bytes32","internalType":"bytes32"}],"outputs":[],"stateMutability":"payable"},{"type":"function","name":"cancelUnstakeRequest","inputs":[{"name":"requestId","type":"bytes32","internalType":"bytes32"}],"outputs":[],"stateMutability":"payable"},{"type":"function","name":"claimStakedShares","inputs":[{"name":"requestId","type":"bytes32","internalType":"bytes32"}],"outputs":[],"stateMutability":"payable"},{"type":"function","name":"claimUnstakedAssets","inputs":[{"name":"requestId","type":"bytes32","internalType":"bytes32"}],"outputs":[],"stateMutability":"payable"},{"type":"function","name":"closeBatch","inputs":[{"name":"_batchId","type":"bytes32","internalType":"bytes32"},{"name":"_create","type":"bool","internalType":"bool"}],"outputs":[],"stateMutability":"nonpayable"},{"type":"function","name":"completeOwnershipHandover","inputs":[{"name":"pendingOwner","type":"address","internalType":"address"}],"outputs":[],"stateMutability":"payable"},{"type":"function","name":"createNewBatch","inputs":[],"outputs":[{"name":"","type":"bytes32","internalType":"bytes32"}],"stateMutability":"nonpayable"},{"type":"function","name":"decimals","inputs":[],"outputs":[{"name":"","type":"uint8","internalType":"uint8"}],"stateMutability":"view"},{"type":"function","name":"initialize","inputs":[{"name":"owner_","type":"address","internalType":"address"},{"name":"registry_","type":"address","internalType":"address"},{"name":"paused_","type":"bool","internalType":"bool"},{"name":"name_","type":"string","internalType":"string"},{"name":"symbol_","type":"string","internalType":"string"},{"name":"decimals_","type":"uint8","internalType":"uint8"},{"name":"asset_","type":"address","internalType":"address"}],"outputs":[],"stateMutability":"nonpayable"},{"type":"function","name":"name","inputs":[],"outputs":[{"name":"","type":"string","internalType":"string"}],"stateMutability":"view"},{"type":"function","name":"nonces","inputs":[{"name":"owner","type":"address","internalType":"address"}],"outputs":[{"name":"result","type":"uint256","internalType":"uint256"}],"stateMutability":"view"},{"type":"function","name":"notifyManagementFeesCharged","inputs":[{"name":"_timestamp","type":"uint64","internalType":"uint64"}],"outputs":[],"stateMutability":"nonpayable"},{"type":"function","name":"notifyPerformanceFeesCharged","inputs":[{"name":"_timestamp","type":"uint64","internalType":"uint64"}],"outputs":[],"stateMutability":"nonpayable"},{"type":"function","name":"owner","inputs":[],"outputs":[{"name":"result","type":"address","internalType":"address"}],"stateMutability":"view"},{"type":"function","name":"ownershipHandoverExpiresAt","inputs":[{"name":"pendingOwner","type":"address","internalType":"address"}],"outputs":[{"name":"result","type":"uint256","internalType":"uint256"}],"stateMutability":"view"},{"type":"function","name":"permit","inputs":[{"name":"owner","type":"address","internalType":"address"},{"name":"spender","type":"address","internalType":"address"},{"name":"value","type":"uint256","internalType":"uint256"},{"name":"deadline","type":"uint256","internalType":"uint256"},{"name":"v","type":"uint8","internalType":"uint8"},{"name":"r","type":"bytes32","internalType":"bytes32"},{"name":"s","type":"bytes32","internalType":"bytes32"}],"outputs":[],"stateMutability":"nonpayable"},{"type":"function","name":"proxiableUUID","inputs":[],"outputs":[{"name":"","type":"bytes32","internalType":"bytes32"}],"stateMutability":"view"},{"type":"function","name":"removeFunction","inputs":[{"name":"selector","type":"bytes4","internalType":"bytes4"}],"outputs":[],"stateMutability":"nonpayable"},{"type":"function","name":"removeFunctions","inputs":[{"name":"selectors","type":"bytes4[]","internalType":"bytes4[]"}],"outputs":[],"stateMutability":"nonpayable"},{"type":"function","name":"renounceOwnership","inputs":[],"outputs":[],"stateMutability":"payable"},{"type":"function","name":"requestOwnershipHandover","inputs":[],"outputs":[],"stateMutability":"payable"},{"type":"function","name":"requestStake","inputs":[{"name":"to","type":"address","internalType":"address"},{"name":"amount","type":"uint256","internalType":"uint256"}],"outputs":[{"name":"requestId","type":"bytes32","internalType":"bytes32"}],"stateMutability":"payable"},{"type":"function","name":"requestUnstake","inputs":[{"name":"to","type":"address","internalType":"address"},{"name":"stkTokenAmount","type":"uint256","internalType":"uint256"}],"outputs":[{"name":"requestId","type":"bytes32","internalType":"bytes32"}],"stateMutability":"payable"},{"type":"function","name":"setHardHurdleRate","inputs":[{"name":"_isHard","type":"bool","internalType":"bool"}],"outputs":[],"stateMutability":"nonpayable"},{"type":"function","name":"setManagementFee","inputs":[{"name":"_managementFee","type":"uint16","internalType":"uint16"}],"outputs":[],"stateMutability":"nonpayable"},{"type":"function","name":"setPaused","inputs":[{"name":"paused_","type":"bool","internalType":"bool"}],"outputs":[],"stateMutability":"nonpayable"},{"type":"function","name":"setPerformanceFee","inputs":[{"name":"_performanceFee","type":"uint16","internalType":"uint16"}],"outputs":[],"stateMutability":"nonpayable"},{"type":"function","name":"settleBatch","inputs":[{"name":"_batchId","type":"bytes32","internalType":"bytes32"}],"outputs":[],"stateMutability":"nonpayable"},{"type":"function","name":"symbol","inputs":[],"outputs":[{"name":"","type":"string","internalType":"string"}],"stateMutability":"view"},{"type":"function","name":"totalSupply","inputs":[],"outputs":[{"name":"result","type":"uint256","internalType":"uint256"}],"stateMutability":"view"},{"type":"function","name":"transfer","inputs":[{"name":"to","type":"address","internalType":"address"},{"name":"amount","type":"uint256","internalType":"uint256"}],"outputs":[{"name":"","type":"bool","internalType":"bool"}],"stateMutability":"nonpayable"},{"type":"function","name":"transferFrom","inputs":[{"name":"from","type":"address","internalType":"address"},{"name":"to","type":"address","internalType":"address"},{"name":"amount","type":"uint256","internalType":"uint256"}],"outputs":[{"name":"","type":"bool","internalType":"bool"}],"stateMutability":"nonpayable"},{"type":"function","name":"transferOwnership","inputs":[{"name":"newOwner","type":"address","internalType":"address"}],"outputs":[],"stateMutability":"payable"},{"type":"function","name":"upgradeToAndCall","inputs":[{"name":"newImplementation","type":"address","internalType":"address"},{"name":"data","type":"bytes","internalType":"bytes"}],"outputs":[],"stateMutability":"payable"},{"type":"event","name":"Approval","inputs":[{"name":"owner","type":"address","indexed":true,"internalType":"address"},{"name":"spender","type":"address","indexed":true,"internalType":"address"},{"name":"amount","type":"uint256","indexed":false,"internalType":"uint256"}],"anonymous":false},{"type":"event","name":"BatchClosed","inputs":[{"name":"batchId","type":"bytes32","indexed":true,"internalType":"bytes32"}],"anonymous":false},{"type":"event","name":"BatchCreated","inputs":[{"name":"batchId","type":"bytes32","indexed":true,"internalType":"bytes32"}],"anonymous":false},{"type":"event","name":"BatchReceiverCreated","inputs":[{"name":"receiver","type":"address","indexed":true,"internalType":"address"},{"name":"batchId","type":"bytes32","indexed":true,"internalType":"bytes32"}],"anonymous":false},{"type":"event","name":"BatchSettled","inputs":[{"name":"batchId","type":"bytes32","indexed":true,"internalType":"bytes32"}],"anonymous":false},{"type":"event","name":"FeesAssesed","inputs":[{"name":"managementFees","type":"uint256","indexed":false,"internalType":"uint256"},{"name":"performanceFees","type":"uint256","indexed":false,"internalType":"uint256"}],"anonymous":false},{"type":"event","name":"HardHurdleRateUpdated","inputs":[{"name":"newRate","type":"bool","indexed":false,"internalType":"bool"}],"anonymous":false},{"type":"event","name":"HurdleRateUpdated","inputs":[{"name":"newRate","type":"uint16","indexed":false,"internalType":"uint16"}],"anonymous":false},{"type":"event","name":"Initialized","inputs":[{"name":"registry","type":"address","indexed":false,"internalType":"address"},{"name":"name","type":"string","indexed":false,"internalType":"string"},{"name":"symbol","type":"string","indexed":false,"internalType":"string"},{"name":"decimals","type":"uint8","indexed":false,"internalType":"uint8"},{"name":"asset","type":"address","indexed":false,"internalType":"address"}],"anonymous":false},{"type":"event","name":"Initialized","inputs":[{"name":"version","type":"uint64","indexed":false,"internalType":"uint64"}],"anonymous":false},{"type":"event","name":"KTokenUnstaked","inputs":[{"name":"user","type":"address","indexed":true,"internalType":"address"},{"name":"shares","type":"uint256","indexed":false,"internalType":"uint256"},{"name":"kTokenAmount","type":"uint256","indexed":false,"internalType":"uint256"}],"anonymous":false},{"type":"event","name":"ManagementFeeUpdated","inputs":[{"name":"oldFee","type":"uint16","indexed":false,"internalType":"uint16"},{"name":"newFee","type":"uint16","indexed":false,"internalType":"uint16"}],"anonymous":false},{"type":"event","name":"ManagementFeesCharged","inputs":[{"name":"timestamp","type":"uint256","indexed":false,"internalType":"uint256"}],"anonymous":false},{"type":"event","name":"OwnershipHandoverCanceled","inputs":[{"name":"pendingOwner","type":"address","indexed":true,"internalType":"address"}],"anonymous":false},{"type":"event","name":"OwnershipHandoverRequested","inputs":[{"name":"pendingOwner","type":"address","indexed":true,"internalType":"address"}],"anonymous":false},{"type":"event","name":"OwnershipTransferred","inputs":[{"name":"oldOwner","type":"address","indexed":true,"internalType":"address"},{"name":"newOwner","type":"address","indexed":true,"internalType":"address"}],"anonymous":false},{"type":"event","name":"Paused","inputs":[{"name":"paused","type":"bool","indexed":false,"internalType":"bool"}],"anonymous":false},{"type":"event","name":"PerformanceFeeUpdated","inputs":[{"name":"oldFee","type":"uint16","indexed":false,"internalType":"uint16"},{"name":"newFee","type":"uint16","indexed":false,"internalType":"uint16"}],"anonymous":false},{"type":"event","name":"PerformanceFeesCharged","inputs":[{"name":"timestamp","type":"uint256","indexed":false,"internalType":"uint256"}],"anonymous":false},{"type":"event","name":"StakeRequestCancelled","inputs":[{"name":"requestId","type":"bytes32","indexed":true,"internalType":"bytes32"}],"anonymous":false},{"type":"event","name":"StakeRequestCreated","inputs":[{"name":"requestId","type":"bytes32","indexed":true,"internalType":"bytes32"},{"name":"user","type":"address","indexed":true,"internalType":"address"},{"name":"kToken","type":"address","indexed":true,"internalType":"address"},{"name":"amount","type":"uint256","indexed":false,"internalType":"uint256"},{"name":"recipient","type":"address","indexed":false,"internalType":"address"},{"name":"batchId","type":"bytes32","indexed":false,"internalType":"bytes32"}],"anonymous":false},{"type":"event","name":"StakeRequestRedeemed","inputs":[{"name":"requestId","type":"bytes32","indexed":true,"internalType":"bytes32"}],"anonymous":false},{"type":"event","name":"StakingSharesClaimed","inputs":[{"name":"batchId","type":"bytes32","indexed":true,"internalType":"bytes32"},{"name":"requestId","type":"bytes32","indexed":false,"internalType":"bytes32"},{"name":"user","type":"address","indexed":true,"internalType":"address"},{"name":"shares","type":"uint256","indexed":false,"internalType":"uint256"}],"anonymous":false},{"type":"event","name":"Transfer","inputs":[{"name":"from","type":"address","indexed":true,"internalType":"address"},{"name":"to","type":"address","indexed":true,"internalType":"address"},{"name":"amount","type":"uint256","indexed":false,"internalType":"uint256"}],"anonymous":false},{"type":"event","name":"UnstakeRequestCancelled","inputs":[{"name":"requestId","type":"bytes32","indexed":true,"internalType":"bytes32"}],"anonymous":false},{"type":"event","name":"UnstakeRequestCreated","inputs":[{"name":"requestId","type":"bytes32","indexed":true,"internalType":"bytes32"},{"name":"user","type":"address","indexed":true,"internalType":"address"},{"name":"amount","type":"uint256","indexed":false,"internalType":"uint256"},{"name":"recipient","type":"address","indexed":false,"internalType":"address"},{"name":"batchId","type":"bytes32","indexed":false,"internalType":"bytes32"}],"anonymous":false},{"type":"event","name":"UnstakingAssetsClaimed","inputs":[{"name":"batchId","type":"bytes32","indexed":true,"internalType":"bytes32"},{"name":"requestId","type":"bytes32","indexed":false,"internalType":"bytes32"},{"name":"user","type":"address","indexed":true,"internalType":"address"},{"name":"assets","type":"uint256","indexed":false,"internalType":"uint256"}],"anonymous":false},{"type":"event","name":"Upgraded","inputs":[{"name":"implementation","type":"address","indexed":true,"internalType":"address"}],"anonymous":false},{"type":"error","name":"AllowanceOverflow","inputs":[]},{"type":"error","name":"AllowanceUnderflow","inputs":[]},{"type":"error","name":"AlreadyInitialized","inputs":[]},{"type":"error","name":"InsufficientAllowance","inputs":[]},{"type":"error","name":"InsufficientBalance","inputs":[]},{"type":"error","name":"InvalidInitialization","inputs":[]},{"type":"error","name":"InvalidPermit","inputs":[]},{"type":"error","name":"NewOwnerIsZeroAddress","inputs":[]},{"type":"error","name":"NoHandoverRequest","inputs":[]},{"type":"error","name":"NotInitializing","inputs":[]},{"type":"error","name":"Permit2AllowanceIsFixedAtInfinity","inputs":[]},{"type":"error","name":"PermitExpired","inputs":[]},{"type":"error","name":"Reentrancy","inputs":[]},{"type":"error","name":"TotalSupplyOverflow","inputs":[]},{"type":"error","name":"Unauthorized","inputs":[]},{"type":"error","name":"UnauthorizedCallContext","inputs":[]},{"type":"error","name":"UpgradeFailed","inputs":[]}],"bytecode":{"object":"0x60a080604052346099573060805263409feecd195460018116608c5760011c6002600160401b0319016048575b615b23908161009e823960805181818161155e01526116830152f35b6002600160411b0363409feecd19556001600160401b0360209081527fc7f505b2f371ae2175ee4913f4499e1f2633a7b5936321eed1cdaeb6115181d29080a1602c565b63f92ee8a95f526004601cfd5b5f80fdfe608060405260043610614fd6575f3560e01c80630342a6ba146102ab57806306fdde03146102a6578063095ea7b3146102a15780630f83d6d91461029c57806316c38b3c1461029757806318160ddd146102925780631875e8f51461028d5780631b6991c71461028857806323b872dd14610283578063256929621461027e57806330b88eef14610279578063313ce56714610274578063330fda501461026f5780633644e5151461026a57806339d14dce146102655780633c138a92146102605780634a1daaef1461025b5780634f1ef2861461025657806352d1902d1461025157806354d1f13d1461024c57806358c2fd001461024757806370a0823114610242578063710ba6311461023d578063715018a6146102385780637ecebe00146102335780638da5cb5b1461022e5780638dd09af31461022957806395d89b41146102245780639c8af15f1461021f578063a9059cbb1461021a578063aa290e6d14610215578063bb507ab914610210578063c0b1b0371461020b578063d385600914610206578063d505accf14610201578063dd62ed3e146101fc578063eeb8f2b5146101f7578063eeda387f146101f2578063f04e283e146101ed578063f2fde38b146101e8578063f8ffd889146101e35763fee81cf403614fd657612e50565b612df2565b612db3565b612d62565b612ce9565b6129b9565b612985565b6127b4565b6124ad565b6123cf565b61228c565b6121ae565b612127565b61203f565b611f0d565b611e28565b611de1565b611dab565b611d62565b611b3f565b611b0a565b611715565b6116d1565b611670565b611505565b6111a2565b610ea1565b610db8565b610d05565b610c6d565b610b16565b610ad8565b610a8f565b610983565b61095e565b610909565b6108e4565b6107c0565b61041d565b61037c565b610338565b346102d35760206003193601126102d3576102d16004356102cb3361407d565b306140f9565b005b5f80fd5b5f9103126102d357565b907fffffffffffffffffffffffffffffffffffffffffffffffffffffffffffffffe0601f602080948051918291828752018686015e5f8582860101520116010190565b9060206103359281815201906102e1565b90565b346102d3575f6003193601126102d357610367610353612ed7565b6040519182916020835260208301906102e1565b0390f35b6001600160a01b038116036102d357565b346102d35760406003193601126102d3576004356103998161036b565b602435908119156e22d473030f116ddee9f6b43ac78ba36001600160a01b03831618171561041057602052637f5e9f20600c52335f52806034600c20555f52602c5160601c337f8c5be1e5ebec7d5bd14f71427d1e84f3dd0314c0f7b2291e5b200ac8c7c3b92560205fa360405160018152602090f35b633f68539a5f526004601cfd5b60206003193601126102d357600435610434614166565b61043c614195565b61046d815f527f50bc60b877273d55cac3903fd4818902e5fd7aa256278ee2dc6b212f256c0b0c60205260405f2090565b60030154906104a3825f527f50bc60b877273d55cac3903fd4818902e5fd7aa256278ee2dc6b212f256c0b0a60205260405f2090565b5460a81c60ff166104b2612fe8565b6104bb91613023565b6104ec815f527f50bc60b877273d55cac3903fd4818902e5fd7aa256278ee2dc6b212f256c0b0c60205260405f2090565b60048101805460401c60ff166105018161306c565b6105096130a3565b6105139115613023565b81546001600160a01b03166001600160a01b031633146105316130de565b61053a91613023565b335f9081527f50bc60b877273d55cac3903fd4818902e5fd7aa256278ee2dc6b212f256c0b0d6020526040902083610571916141ff565b610579613119565b61058291613023565b80547fffffffffffffffffffffffffffffffffffffffffffffff00ffffffffffffffff16680100000000000000001790556105e4835f527f50bc60b877273d55cac3903fd4818902e5fd7aa256278ee2dc6b212f256c0b0a60205260405f2090565b600201546fffffffffffffffffffffffffffffffff166fffffffffffffffffffffffffffffffff169161063e845f527f50bc60b877273d55cac3903fd4818902e5fd7aa256278ee2dc6b212f256c0b0a60205260405f2090565b6002015460801c61064e84614313565b7f50bc60b877273d55cac3903fd4818902e5fd7aa256278ee2dc6b212f256c0b005460ff169460018401948554610694906fffffffffffffffffffffffffffffffff1690565b6fffffffffffffffffffffffffffffffff16966106b18489613181565b906106bb90613199565b6106c4916131aa565b9687936106d091613181565b906106da916131aa565b6106e490306140f9565b83546040805194855260208501939093526001600160a01b03169283927f885a882c47dd7d1e5c24472bae67f438bae87e32a2cd0070eafe7b07cd2e2a6991a37f50bc60b877273d55cac3903fd4818902e5fd7aa256278ee2dc6b212f256c0b075461075a9185916001600160a01b0316614357565b549054604080516fffffffffffffffffffffffffffffffff909216825260208201939093526001600160a01b03909116917f41273f22710b9196a798efbfcef8b8f13949d3fb0c3e4f3ccc226f2125e248b091a26102d16143b1565b801515036102d357565b346102d35760206003193601126102d35760246004356107df816107b6565b60206001600160a01b036107f16148b6565b16604051938480927f2500f2b60000000000000000000000000000000000000000000000000000000082523360048301525afa9081156108df576108696020927f0e2fb031ee032dc02d8011dc50b816eb450cf856abd8261680dac74f72165bd2945f916108b2575b506108636131e1565b90613023565b61089e60017f50bc60b877273d55cac3903fd4818902e5fd7aa256278ee2dc6b212f256c0b005460281c1615156108636143d4565b6108a781615051565b6040519015158152a1005b6108d29150843d86116108d8575b6108ca8183610b82565b8101906143bf565b5f61085a565b503d6108c0565b613c27565b346102d3575f6003193601126102d35760206805345cdf77eb68f44c54604051908152f35b346102d3575f6003193601126102d3576109223361440f565b602061092c614472565b604051908152f35b7fffffffff000000000000000000000000000000000000000000000000000000008116036102d357565b346102d35760206003193601126102d3576102d160043561097e81610934565b61321c565b346102d35760606003193601126102d3576004356109a08161036b565b6024356109ac8161036b565b604435908260601b6e22d473030f116ddee9f6b43ac78ba33303610a45575b6387a211a217600c526020600c208054808411610a385783900390555f526020600c208181540190556020526001600160a01b03600c5160601c91167fddf252ad1be2c89b69c2b068fc378daa952ba7f163c4a11628f55a4df523b3ef602080a360405160018152602090f35b63f4d678b85f526004601cfd5b33602052637f5e9f208117600c526034600c20908154918219610a6b575b5090506109cb565b828511610a8257846387a211a2930390555f610a63565b6313be252b5f526004601cfd5b5f6003193601126102d35763389a75e1600c52335f526202a30042016020600c2055337fdbf36a107da19e49527a7176a1babf963b4b0ff8cde35ee35d6cd8f1f9ac7e1d5f80a2005b346102d35760606003193601126102d3576102d1600435610af881610934565b602435610b048161036b565b60443591610b11836107b6565b613299565b346102d3575f6003193601126102d357602060ff7f50bc60b877273d55cac3903fd4818902e5fd7aa256278ee2dc6b212f256c0b005416604051908152f35b7f4e487b71000000000000000000000000000000000000000000000000000000005f52604160045260245ffd5b90601f7fffffffffffffffffffffffffffffffffffffffffffffffffffffffffffffffe0910116810190811067ffffffffffffffff821117610bc357604052565b610b55565b60405190610bd760c083610b82565b565b81601f820112156102d35780359067ffffffffffffffff8211610bc35760405192610c2c601f84017fffffffffffffffffffffffffffffffffffffffffffffffffffffffffffffffe01660200185610b82565b828452602083830101116102d357815f926020809301838601378301015290565b60a4359060ff821682036102d357565b6084359060ff821682036102d357565b346102d35760e06003193601126102d357600435610c8a8161036b565b60243590610c978261036b565b60443591610ca4836107b6565b60643567ffffffffffffffff81116102d357610cc4903690600401610bd9565b926084359367ffffffffffffffff85116102d357610ce96102d1953690600401610bd9565b91610cf2610c4d565b9360c43595610d008761036b565b61338b565b346102d3575f6003193601126102d35760a0610d1f612ed7565b60208151910120604051907f8b73c3c69bb8fe3d512ecc4cf759cc79239f7b179b0ffacaa9a75d522b39400f825260208201527fc89efdaa54c0f20c7adf612882df0950f5a951637e0307cdcb4c672f298b8bc66040820152466060820152306080820152206040518091602082019082520390f35b60031960209101126102d35760043567ffffffffffffffff811681036102d35790565b346102d3577fe65ac4349eb9700f0c615b26a7bbcef2e3bcbbff960dc8f548d7d19dbe9320ef6020610de936610d95565b610df23361407d565b7f50bc60b877273d55cac3903fd4818902e5fd7aa256278ee2dc6b212f256c0b00547ffffffffffffffffffffffffffffffffffffff80000000000000007ffffffffff6d07fffffffffffffff8000000000067ffffffffffffffff841693610e6767ffffffffffffffff85602b1c1686614919565b602b1b169116177f50bc60b877273d55cac3903fd4818902e5fd7aa256278ee2dc6b212f256c0b0055610e98614971565b604051908152a1005b60206003193601126102d357600435610eb8614166565b610ec0614195565b610ef1815f527f50bc60b877273d55cac3903fd4818902e5fd7aa256278ee2dc6b212f256c0b0c60205260405f2090565b610f1e610f14610f0883546001600160a01b031690565b6001600160a01b031690565b3314610863613c7b565b610f6c610f6483610f5f336001600160a01b03165f527f50bc60b877273d55cac3903fd4818902e5fd7aa256278ee2dc6b212f256c0b0d60205260405f2090565b6141ff565b610863613119565b610fd060048201610f9d610f85825460ff9060401c1690565b610f8e8161306c565b610f96613cb6565b9015613023565b680200000000000000007fffffffffffffffffffffffffffffffffffffffffffffff00ffffffffffffffff825416179055565b600381015461102561101d61101961100f845f527f50bc60b877273d55cac3903fd4818902e5fd7aa256278ee2dc6b212f256c0b0a60205260405f2090565b5460a01c60ff1690565b1590565b610863613cf1565b61107161106961101961105f845f527f50bc60b877273d55cac3903fd4818902e5fd7aa256278ee2dc6b212f256c0b0a60205260405f2090565b5460a81c60ff1690565b610863613d2c565b61107f610f08610f086149fd565b91600181019161109f83546fffffffffffffffffffffffffffffffff1690565b90843b156102d3576040517f8f6b6ee20000000000000000000000000000000000000000000000000000000081523060048201526fffffffffffffffffffffffffffffffff9290921660248301526044820152925f908490606490829084905af19283156108df57611129611155926111409261115c96611188575b50546001600160a01b031690565b92546fffffffffffffffffffffffffffffffff1690565b6fffffffffffffffffffffffffffffffff1690565b9030614ab2565b7f31554d632bde073c52741a6f600532f2129ef071de676e92c694906a2a60dd3d5f80a26102d16143b1565b806111965f61119c93610b82565b806102d7565b5f61111b565b60206003193601126102d3576114fd6004356111bc614166565b6111c4614195565b6114f860036111fa835f527f50bc60b877273d55cac3903fd4818902e5fd7aa256278ee2dc6b212f256c0b0b60205260405f2090565b01549161123c61123461105f855f527f50bc60b877273d55cac3903fd4818902e5fd7aa256278ee2dc6b212f256c0b0a60205260405f2090565b610863612fe8565b6114eb61146b611273835f527f50bc60b877273d55cac3903fd4818902e5fd7aa256278ee2dc6b212f256c0b0b60205260405f2090565b926113336004850161129e61128d825460ff9060401c1690565b6112968161306c565b610f966130a3565b6112bf6112b5610f0888546001600160a01b031690565b33146108636130de565b611300610f6484610f5f336001600160a01b03165f527f50bc60b877273d55cac3903fd4818902e5fd7aa256278ee2dc6b212f256c0b0d60205260405f2090565b680100000000000000007fffffffffffffffffffffffffffffffffffffffffffffff00ffffffffffffffff825416179055565b611374611140600261136c895f527f50bc60b877273d55cac3903fd4818902e5fd7aa256278ee2dc6b212f256c0b0a60205260405f2090565b015460801c90565b9061137e82614313565b6113f361139e60018701546fffffffffffffffffffffffffffffffff1690565b926113ee6fffffffffffffffffffffffffffffffff85166113e86113e360ff7f50bc60b877273d55cac3903fd4818902e5fd7aa256278ee2dc6b212f256c0b00541690565b613199565b90613181565b6131aa565b967ffef4f80a328fc3fdf24a2d9fd39f986127e680d3f648725afc621fa1403a560b886001600160a01b0361142f89546001600160a01b031690565b6040805196875260208701939093521693a37f50bc60b877273d55cac3903fd4818902e5fd7aa256278ee2dc6b212f256c0b015460801c613d67565b6fffffffffffffffffffffffffffffffff7fffffffffffffffffffffffffffffffff000000000000000000000000000000007f50bc60b877273d55cac3903fd4818902e5fd7aa256278ee2dc6b212f256c0b01549260801b169116177f50bc60b877273d55cac3903fd4818902e5fd7aa256278ee2dc6b212f256c0b0155565b546001600160a01b031690565b614b1b565b6102d16143b1565b60406003193601126102d35760043561151d8161036b565b6024359067ffffffffffffffff82116102d357366023830112156102d35781600401359067ffffffffffffffff82116102d35736602483850101116102d3577f00000000000000000000000000000000000000000000000000000000000000003014611663576001600160a01b03906115953361407d565b166115a96115a161385c565b821515613023565b3d5f526352d1902d6001527f360894a13ba1a3210667c828492db98dca3e2076cc3735a920a3ca505d382bbc602060016004601d855afa510361165557807fbc7cd75a20ee27fd9adebab32041f755214dbc6bffa90cc0225b39da2e5c2d3b5f80a281817f360894a13ba1a3210667c828492db98dca3e2076cc3735a920a3ca505d382bbc5561163557005b815f926024604051950185378338925af41561164d57005b3d5f823e3d90fd5b6355299b496001526004601dfd5b639f03a0265f526004601cfd5b346102d3575f6003193601126102d357307f0000000000000000000000000000000000000000000000000000000000000000036116635760206040517f360894a13ba1a3210667c828492db98dca3e2076cc3735a920a3ca505d382bbc8152f35b5f6003193601126102d35763389a75e1600c52335f525f6020600c2055337ffa7b8eab7da67f412cc9575ed43464468f9bfbae89d1675917346ca6d8fe3c925f80a2005b60406003193601126102d35760043561172d8161036b565b602435611738614166565b611740614195565b61174981614313565b611780610f08610f087f50bc60b877273d55cac3903fd4818902e5fd7aa256278ee2dc6b212f256c0b07546001600160a01b031690565b6040517f70a0823100000000000000000000000000000000000000000000000000000000815233600482015290602090829060249082905afa80156108df576117dc915f91611adb575b50826117d4613da8565b911015613023565b7f50bc60b877273d55cac3903fd4818902e5fd7aa256278ee2dc6b212f256c0b0354916118088261487b565b916118af611817428333614b8e565b9361187361182442614c0c565b61184c61182f610bc8565b338152936fffffffffffffffffffffffffffffffff166020850152565b6001600160a01b03861660408401526060830188905267ffffffffffffffff166080830152565b5f60a08201526118aa855f527f50bc60b877273d55cac3903fd4818902e5fd7aa256278ee2dc6b212f256c0b0b60205260405f2090565b613de3565b6118f2836118ed336001600160a01b03165f527f50bc60b877273d55cac3903fd4818902e5fd7aa256278ee2dc6b212f256c0b0d60205260405f2090565b614c2a565b50611931816119287f50bc60b877273d55cac3903fd4818902e5fd7aa256278ee2dc6b212f256c0b07546001600160a01b031690565b30903390614d4c565b61196a61146b6119408361487b565b7f50bc60b877273d55cac3903fd4818902e5fd7aa256278ee2dc6b212f256c0b015460801c613f5b565b611978610f08610f086149fd565b611980614db3565b7f50bc60b877273d55cac3903fd4818902e5fd7aa256278ee2dc6b212f256c0b06546001600160a01b031690823b156102d3576040517fc60990920000000000000000000000000000000000000000000000000000000081526001600160a01b039182166004820152306024820152911660448201526064810183905260848101869052905f90829060a490829084905af180156108df576103679585927fef7f1919e2638c706798d0161a452d595ab58436e6a4dc4b65f042a0954097f592611ac7575b506001600160a01b03611a7f7f50bc60b877273d55cac3903fd4818902e5fd7aa256278ee2dc6b212f256c0b07546001600160a01b031690565b1694611aac6040519283923397846001600160a01b03604092959493606083019683521660208201520152565b0390a4611ab76143b1565b6040519081529081906020820190565b806111965f611ad593610b82565b5f611a45565b611afd915060203d602011611b03575b611af58183610b82565b810190613d99565b5f6117ca565b503d611aeb565b346102d35760206003193601126102d357602061092c600435611b2c8161036b565b6387a211a2600c525f526020600c205490565b60406003193601126102d357600435611b578161036b565b602435611b62614166565b611b6a614195565b611b7381614313565b611b9881611b8e336387a211a2600c525f526020600c205490565b1015610863613da8565b7f50bc60b877273d55cac3903fd4818902e5fd7aa256278ee2dc6b212f256c0b035490611bc6428233614b8e565b91611c48611bd38361487b565b611c11611bdf42614c0c565b611bea61182f610bc8565b6001600160a01b03881660408401526060830185905267ffffffffffffffff166080830152565b5f60a08201526118aa855f527f50bc60b877273d55cac3903fd4818902e5fd7aa256278ee2dc6b212f256c0b0c60205260405f2090565b611c86836118ed336001600160a01b03165f527f50bc60b877273d55cac3903fd4818902e5fd7aa256278ee2dc6b212f256c0b0d60205260405f2090565b50611c92823033614ab2565b611ca0610f08610f086149fd565b90813b156102d3576040517fd7eebeaf0000000000000000000000000000000000000000000000000000000081523060048201526024810184905260448101829052915f908390606490829084905af19081156108df576103679585937ffe67f2e1da3714b8e0579382741d2579cee1b119df90667cd54721133b0b7ba593611d4e575b50604080519586526001600160a01b039190911660208601528401523392606090a3611ab76143b1565b806111965f611d5c93610b82565b5f611d24565b5f6003193601126102d357611d75614e3d565b5f638b78c6d819547f8be0079c531659141344cd1fd0a4f28419497f9722a3daafe3b4186f6b6457e08280a35f638b78c6d81955005b346102d35760206003193601126102d357600435611dc88161036b565b6338377508600c525f52602080600c2054604051908152f35b346102d3575f6003193601126102d3576020638b78c6d819546001600160a01b0360405191168152f35b60031960209101126102d35760043561ffff811681036102d35790565b346102d3577f7fa71bc8199b41215c8786fc03983be5a27180965feae35db511cd958631826f61ffff611e5a36611e0b565b611e633361407d565b611e6e828216614e97565b611f087f50bc60b877273d55cac3903fd4818902e5fd7aa256278ee2dc6b212f256c0b00549164ffff0000008160181b167fffffffffffffffffffffffffffffffffffffffffffffffffffffff0000ffffff8416177f50bc60b877273d55cac3903fd4818902e5fd7aa256278ee2dc6b212f256c0b005560405193849360181c168390929161ffff60209181604085019616845216910152565b0390a1005b346102d3575f6003193601126102d3576040515f7f50bc60b877273d55cac3903fd4818902e5fd7aa256278ee2dc6b212f256c0b0954611f4c81612e86565b8084529060018116908115611ffd5750600114611f80575b61036783611f7481850382610b82565b60405191829182610324565b7f50bc60b877273d55cac3903fd4818902e5fd7aa256278ee2dc6b212f256c0b095f9081527feed39591673215402fba1c9ab9753946196fe3ddcce93d9e892ab8c49fea90c1939250905b808210611fe357509091508101602001611f74611f64565b919260018160209254838588010152019101909291611fcb565b7fffffffffffffffffffffffffffffffffffffffffffffffffffffffffffffff001660208086019190915291151560051b84019091019150611f749050611f64565b346102d3577fbe5a13c989a13e06b5cd587e9b683c7a96fc98bba9526a05870f6c8283a26f7f602061207036610d95565b6120793361407d565b7f50bc60b877273d55cac3903fd4818902e5fd7aa256278ee2dc6b212f256c0b00547ffffffffffffffffffffff80000000000000007ffffffffffffffffffffffffff7507fffffffffffffff80000000000000000000000000067ffffffffffffffff8416936120f667ffffffffffffffff85606b1c1686614919565b606b1b169116177f50bc60b877273d55cac3903fd4818902e5fd7aa256278ee2dc6b212f256c0b0055610e98614971565b346102d35760406003193601126102d3576004356121448161036b565b602435906387a211a2600c52335f526020600c208054808411610a385783900390555f526020600c20818154019055602052600c5160601c337fddf252ad1be2c89b69c2b068fc378daa952ba7f163c4a11628f55a4df523b3ef602080a360405160018152602090f35b346102d3577fba8506b6cb85330fea21cbca8490aafb6a69b166f06201ef755eb511b2709fc161ffff6121e036611e0b565b6121e93361407d565b6121f4828216614e97565b611f087f50bc60b877273d55cac3903fd4818902e5fd7aa256278ee2dc6b212f256c0b00549162ffff008160081b167fffffffffffffffffffffffffffffffffffffffffffffffffffffffffff0000ff8416177f50bc60b877273d55cac3903fd4818902e5fd7aa256278ee2dc6b212f256c0b005560405193849360081c168390929161ffff60209181604085019616845216910152565b346102d35760406003193601126102d3576004356024356122ac816107b6565b816122b63361440f565b805f527f50bc60b877273d55cac3903fd4818902e5fd7aa256278ee2dc6b212f256c0b0a60205261232a60ff60405f205460a01c1615604051906122fb604083610b82565b600382527f56423200000000000000000000000000000000000000000000000000000000006020830152613023565b5f527f50bc60b877273d55cac3903fd4818902e5fd7aa256278ee2dc6b212f256c0b0a60205261239660405f20740100000000000000000000000000000000000000007fffffffffffffffffffffff00ffffffffffffffffffffffffffffffffffffffff825416179055565b6123c1575b7f94d067deddb78ebf8fb59c4ec96ab664ecbe2d61153c22e2648e4deb412534945f80a2005b506123ca614472565b61239b565b346102d35760206003193601126102d3577fe6b665276caa675ab5f1b831ab88e1f49cad8e452dc3c45b3c998c4b6b52d436602060043561240f816107b6565b6124183361407d565b7f50bc60b877273d55cac3903fd4818902e5fd7aa256278ee2dc6b212f256c0b00547ffffffffffffffffffffffffffffffffffffffffffffffffffffffbffffffffff16811561249f576603fc000000000060015b602a1b16177f50bc60b877273d55cac3903fd4818902e5fd7aa256278ee2dc6b212f256c0b00556040519015158152a1005b6603fc00000000005f61246d565b60206003193601126102d3576004356124c4614166565b6124cc614195565b6124fd815f527f50bc60b877273d55cac3903fd4818902e5fd7aa256278ee2dc6b212f256c0b0b60205260405f2090565b61253e610f6483610f5f336001600160a01b03165f527f50bc60b877273d55cac3903fd4818902e5fd7aa256278ee2dc6b212f256c0b0d60205260405f2090565b612555610f14610f0883546001600160a01b031690565b61256e60048201610f9d610f85825460ff9060401c1690565b60018101906125bd61146b61259384546fffffffffffffffffffffffffffffffff1690565b7f50bc60b877273d55cac3903fd4818902e5fd7aa256278ee2dc6b212f256c0b015460801c613d67565b6003810154916125fd61101d61101961100f865f527f50bc60b877273d55cac3903fd4818902e5fd7aa256278ee2dc6b212f256c0b0a60205260405f2090565b61263761106961101961105f865f527f50bc60b877273d55cac3903fd4818902e5fd7aa256278ee2dc6b212f256c0b0a60205260405f2090565b612645610f08610f086149fd565b61264d614db3565b9061267f7f50bc60b877273d55cac3903fd4818902e5fd7aa256278ee2dc6b212f256c0b06546001600160a01b031690565b9061269a84546fffffffffffffffffffffffffffffffff1690565b91813b156102d3576040517fc60990920000000000000000000000000000000000000000000000000000000081523060048201526001600160a01b039485166024820152931660448401526fffffffffffffffffffffffffffffffff9190911660648301526084820194909452925f90849060a490829084905af19283156108df57612774936127a0575b5061276e6111406111296127607f50bc60b877273d55cac3903fd4818902e5fd7aa256278ee2dc6b212f256c0b07546001600160a01b031690565b94546001600160a01b031690565b91614357565b7ff417a63305b80d2156b801152953314d804640d1804100b5929cb8f99a077f995f80a26102d16143b1565b806111965f6127ae93610b82565b5f612725565b346102d35760e06003193601126102d3576004356127d18161036b565b602435906127de8261036b565b6064356044356127ec610c5d565b9260a435916001600160a01b0360c4359616958119156e22d473030f116ddee9f6b43ac78ba38818171561041057612822612ed7565b60208151910120938542116129785760c0966001600160a01b03604051951697889565383775081901600e52865f526020600c2098895480997f8b73c3c69bb8fe3d512ecc4cf759cc79239f7b179b0ffacaa9a75d522b39400f8452602084019081528d604085017fc89efdaa54c0f20c7adf612882df0950f5a951637e0307cdcb4c672f298b8bc68152606086019b468d52608087019330855260a08820602e527f6e71edae12b1b97f4d1f60370fef10105fa2faae0126114a169c64845d6126c988525252888a525260a082015220604e526042602c205f5260ff1660205260405260605260208060805f60015afa93853d510361296b577f8c5be1e5ebec7d5bd14f71427d1e84f3dd0314c0f7b2291e5b200ac8c7c3b9259460209401905585777f5e9f200000000000000000000000000000000000000000176040526034602c2055a3005b63ddafbaef5f526004601cfd5b631a15a3cc5f526004601cfd5b346102d35760406003193601126102d357602061092c6004356129a78161036b565b602435906129b48261036b565b613f8d565b346102d35760206003193601126102d3576004355f602460206001600160a01b036129e26148b6565b16604051928380927fa9c9a9180000000000000000000000000000000000000000000000000000000082527ff3bbf2dd6779e6fe2f6fb7cc20baa5140e39dd5b31ab45dfa7d512610b601f0d60048301525afa9081156108df575f91612c89575b506001600160a01b03163314612c81575b612a60906108636131e1565b612a9f612a9761100f835f527f50bc60b877273d55cac3903fd4818902e5fd7aa256278ee2dc6b212f256c0b0a60205260405f2090565b610863613fca565b612ae1612ad961101961105f845f527f50bc60b877273d55cac3903fd4818902e5fd7aa256278ee2dc6b212f256c0b0a60205260405f2090565b610863614005565b612b55612b15825f527f50bc60b877273d55cac3903fd4818902e5fd7aa256278ee2dc6b212f256c0b0a60205260405f2090565b75010000000000000000000000000000000000000000007fffffffffffffffffffff00ffffffffffffffffffffffffffffffffffffffffff825416179055565b612bd8612b68612b63614ede565b61487b565b6002612b9b845f527f50bc60b877273d55cac3903fd4818902e5fd7aa256278ee2dc6b212f256c0b0a60205260405f2090565b01906fffffffffffffffffffffffffffffffff167fffffffffffffffffffffffffffffffff00000000000000000000000000000000825416179055565b612c5b612be6612b63614f1c565b6002612c19845f527f50bc60b877273d55cac3903fd4818902e5fd7aa256278ee2dc6b212f256c0b0a60205260405f2090565b01906fffffffffffffffffffffffffffffffff7fffffffffffffffffffffffffffffffff0000000000000000000000000000000083549260801b169116179055565b7f9c389dadeacea6f1c7898215a4936003cf433e03f53e10e6b07375d0ced6b7795f80a2005b506001612a54565b612cab915060203d602011612cb1575b612ca38183610b82565b810190613c12565b5f612a43565b503d612c99565b9181601f840112156102d35782359167ffffffffffffffff83116102d3576020808501948460051b0101116102d357565b346102d35760606003193601126102d35760043567ffffffffffffffff81116102d357612d1a903690600401612cb8565b9060243590612d288261036b565b604435612d34816107b6565b5f5b848110612d3f57005b80612d5c8386612d526001958a89614040565b35610b1181610934565b01612d36565b60206003193601126102d357600435612d7a8161036b565b612d82614e3d565b63389a75e1600c52805f526020600c209081544211612da6575f6102d19255614e59565b636f5e88185f526004601cfd5b60206003193601126102d357600435612dcb8161036b565b612dd3614e3d565b8060601b15612de5576102d190614e59565b637448fbae5f526004601cfd5b346102d35760206003193601126102d35760043567ffffffffffffffff81116102d357612e23903690600401612cb8565b905f5b828110612e2f57005b80612e4a612e406001938686614040565b3561097e81610934565b01612e26565b346102d35760206003193601126102d357600435612e6d8161036b565b63389a75e1600c525f52602080600c2054604051908152f35b90600182811c92168015612ecd575b6020831014612ea057565b7f4e487b71000000000000000000000000000000000000000000000000000000005f52602260045260245ffd5b91607f1691612e95565b604051905f827f50bc60b877273d55cac3903fd4818902e5fd7aa256278ee2dc6b212f256c0b085491612f0983612e86565b8083529260018116908115612fab5750600114612f2d575b610bd792500383610b82565b507f50bc60b877273d55cac3903fd4818902e5fd7aa256278ee2dc6b212f256c0b085f90815290917f3b57f4dc368a126ae78a1a004e1ecdc10424358da6f019cef33793f78eaba5b65b818310612f8f575050906020610bd792820101612f21565b6020919350806001915483858901015201910190918492612f77565b60209250610bd79491507fffffffffffffffffffffffffffffffffffffffffffffffffffffffffffffff001682840152151560051b820101612f21565b60405190612ff7604083610b82565b600382527f56433100000000000000000000000000000000000000000000000000000000006020830152565b1561302b5750565b613068906040519182917f08c379a000000000000000000000000000000000000000000000000000000000835260206004840181815201906102e1565b0390fd5b6003111561307657565b7f4e487b71000000000000000000000000000000000000000000000000000000005f52602160045260245ffd5b604051906130b2604083610b82565b600382527f56433500000000000000000000000000000000000000000000000000000000006020830152565b604051906130ed604083610b82565b600382527f56433400000000000000000000000000000000000000000000000000000000006020830152565b60405190613128604083610b82565b600382527f53563500000000000000000000000000000000000000000000000000000000006020830152565b7f4e487b71000000000000000000000000000000000000000000000000000000005f52601160045260245ffd5b8181029291811591840414171561319457565b613154565b60ff16604d811161319457600a0a90565b81156131b4570490565b7f4e487b71000000000000000000000000000000000000000000000000000000005f52601260045260245ffd5b604051906131f0604083610b82565b600382527f53563900000000000000000000000000000000000000000000000000000000006020830152565b7fffffffff0000000000000000000000000000000000000000000000000000000090613246614e3d565b165f527ffeaf205b5229ea10e902c7b89e4768733c756362b2becb0bfd65a97f71b02d0060205260405f207fffffffffffffffffffffffff00000000000000000000000000000000000000008154169055565b916132a2614e3d565b1561332b575b7fffffffff00000000000000000000000000000000000000000000000000000000610bd792165f527ffeaf205b5229ea10e902c7b89e4768733c756362b2becb0bfd65a97f71b02d0060205260405f20906001600160a01b03167fffffffffffffffffffffffff0000000000000000000000000000000000000000825416179055565b7fffffffff0000000000000000000000000000000000000000000000000000000082165f527ffeaf205b5229ea10e902c7b89e4768733c756362b2becb0bfd65a97f71b02d006020526001600160a01b0360405f205416156132a8575f80fd5b959091957fffffffffffffffffffffffffffffffffffffffffffffffffffffffffbf6011329687548060038a5561382d575b50906133e86133ed926133e26133d161385c565b6001600160a01b0387161515613023565b85614593565b614843565b6133f6836138e6565b6133ff84613a82565b6134708560ff7fffffffffffffffffffffffffffffffffffffffffffffffffffffffffffffff007f50bc60b877273d55cac3903fd4818902e5fd7aa256278ee2dc6b212f256c0b0054169116177f50bc60b877273d55cac3903fd4818902e5fd7aa256278ee2dc6b212f256c0b0055565b6134e6816001600160a01b03167fffffffffffffffffffffffff00000000000000000000000000000000000000007f50bc60b877273d55cac3903fd4818902e5fd7aa256278ee2dc6b212f256c0b065416177f50bc60b877273d55cac3903fd4818902e5fd7aa256278ee2dc6b212f256c0b0655565b6135706134f5612b6387613199565b6fffffffffffffffffffffffffffffffff167fffffffffffffffffffffffffffffffff000000000000000000000000000000007f50bc60b877273d55cac3903fd4818902e5fd7aa256278ee2dc6b212f256c0b015416177f50bc60b877273d55cac3903fd4818902e5fd7aa256278ee2dc6b212f256c0b0155565b61357b610f086148b6565b6040517fa3863a950000000000000000000000000000000000000000000000000000000081526001600160a01b038316600482015290602090829060249082905afa80156108df57613641915f9161380e575b506001600160a01b03167fffffffffffffffffffffffff00000000000000000000000000000000000000007f50bc60b877273d55cac3903fd4818902e5fd7aa256278ee2dc6b212f256c0b075416177f50bc60b877273d55cac3903fd4818902e5fd7aa256278ee2dc6b212f256c0b0755565b61364c610f086148b6565b602060405180927fa9c9a91800000000000000000000000000000000000000000000000000000000825281806136a960048201907f06d15878a0883034bd095c66a4b2987dfae5eb662cf9ef4aaa5ce27b533782bc602083019252565b03915afa9081156108df575f916137ef575b50604051906108e18083019183831067ffffffffffffffff841117610bc35783926136f89261520d85396001600160a01b03909116815260200190565b03905ff09081156108df5786957f8cf0f1e3aaf200c2295fd68d5121840e9b1d08b99cc0d3508519cef3db818845956137a96001600160a01b036137b595166001600160a01b03167fffffffffffffffffffffffff00000000000000000000000000000000000000007f50bc60b877273d55cac3903fd4818902e5fd7aa256278ee2dc6b212f256c0b055416177f50bc60b877273d55cac3903fd4818902e5fd7aa256278ee2dc6b212f256c0b0555565b60405195869586613c32565b0390a16137bf5750565b6002905560016020527fc7f505b2f371ae2175ee4913f4499e1f2633a7b5936321eed1cdaeb6115181d2602080a1565b613808915060203d602011612cb157612ca38183610b82565b5f6136bb565b613827915060203d602011612cb157612ca38183610b82565b5f6135ce565b600181819a94939a1c14303b101561384f5760ff1b9190911b966133e86133bd565b63f92ee8a95f526004601cfd5b6040519061386b604083610b82565b600482527f53563130000000000000000000000000000000000000000000000000000000006020830152565b601f82116138a457505050565b5f5260205f20906020601f840160051c830193106138dc575b601f0160051c01905b8181106138d1575050565b5f81556001016138c6565b90915081906138bd565b90815167ffffffffffffffff8111610bc35761394c816139267f50bc60b877273d55cac3903fd4818902e5fd7aa256278ee2dc6b212f256c0b0854612e86565b7f50bc60b877273d55cac3903fd4818902e5fd7aa256278ee2dc6b212f256c0b08613897565b602092601f82116001146139aa5761397b929382915f9261399f575b50505f198260011b9260031b1c19161790565b7f50bc60b877273d55cac3903fd4818902e5fd7aa256278ee2dc6b212f256c0b0855565b015190505f80613968565b7f50bc60b877273d55cac3903fd4818902e5fd7aa256278ee2dc6b212f256c0b085f527fffffffffffffffffffffffffffffffffffffffffffffffffffffffffffffffe08216937f3b57f4dc368a126ae78a1a004e1ecdc10424358da6f019cef33793f78eaba5b6915f5b868110613a6a5750836001959610613a52575b505050811b017f50bc60b877273d55cac3903fd4818902e5fd7aa256278ee2dc6b212f256c0b0855565b01515f1960f88460031b161c191690555f8080613a28565b91926020600181928685015181550194019201613a15565b90815167ffffffffffffffff8111610bc357613ae881613ac27f50bc60b877273d55cac3903fd4818902e5fd7aa256278ee2dc6b212f256c0b0954612e86565b7f50bc60b877273d55cac3903fd4818902e5fd7aa256278ee2dc6b212f256c0b09613897565b602092601f8211600114613b3a57613b16929382915f9261399f5750505f198260011b9260031b1c19161790565b7f50bc60b877273d55cac3903fd4818902e5fd7aa256278ee2dc6b212f256c0b0955565b7f50bc60b877273d55cac3903fd4818902e5fd7aa256278ee2dc6b212f256c0b095f527fffffffffffffffffffffffffffffffffffffffffffffffffffffffffffffffe08216937feed39591673215402fba1c9ab9753946196fe3ddcce93d9e892ab8c49fea90c1915f5b868110613bfa5750836001959610613be2575b505050811b017f50bc60b877273d55cac3903fd4818902e5fd7aa256278ee2dc6b212f256c0b0955565b01515f1960f88460031b161c191690555f8080613bb8565b91926020600181928685015181550194019201613ba5565b908160209103126102d357516103358161036b565b6040513d5f823e3d90fd5b93959490613c6e608094613c606001600160a01b03958660ff9516895260a060208a015260a08901906102e1565b9087820360408901526102e1565b9616606085015216910152565b60405190613c8a604083610b82565b600382527f53563600000000000000000000000000000000000000000000000000000000006020830152565b60405190613cc5604083610b82565b600382527f53563400000000000000000000000000000000000000000000000000000000006020830152565b60405190613d00604083610b82565b600382527f53563700000000000000000000000000000000000000000000000000000000006020830152565b60405190613d3b604083610b82565b600382527f53563800000000000000000000000000000000000000000000000000000000006020830152565b906fffffffffffffffffffffffffffffffff809116911603906fffffffffffffffffffffffffffffffff821161319457565b908160209103126102d3575190565b60405190613db7604083610b82565b600382527f53563100000000000000000000000000000000000000000000000000000000006020830152565b600460a091613e2a6001600160a01b0385511682906001600160a01b03167fffffffffffffffffffffffff0000000000000000000000000000000000000000825416179055565b613e846fffffffffffffffffffffffffffffffff60208601511660018301906fffffffffffffffffffffffffffffffff167fffffffffffffffffffffffffffffffff00000000000000000000000000000000825416179055565b613ecc6001600160a01b0360408601511660028301906001600160a01b03167fffffffffffffffffffffffff0000000000000000000000000000000000000000825416179055565b60608401516003820155019167ffffffffffffffff6080820151167fffffffffffffffffffffffffffffffffffffffffffffffff00000000000000008454161783550151613f198161306c565b6003811015613076577fffffffffffffffffffffffffffffffffffffffffffffff00ffffffffffffffff68ff000000000000000083549260401b169116179055565b906fffffffffffffffffffffffffffffffff809116911601906fffffffffffffffffffffffffffffffff821161319457565b906e22d473030f116ddee9f6b43ac78ba36001600160a01b03821614613fc357602052637f5e9f20600c525f526034600c205490565b50505f1990565b60405190613fd9604083610b82565b600382527f56423100000000000000000000000000000000000000000000000000000000006020830152565b60405190614014604083610b82565b600382527f56423300000000000000000000000000000000000000000000000000000000006020830152565b91908110156140505760051b0190565b7f4e487b71000000000000000000000000000000000000000000000000000000005f52603260045260245ffd5b60206001600160a01b036024816140926148b6565b169360405194859384927f24d7806c0000000000000000000000000000000000000000000000000000000084521660048301525afa80156108df57610bd7915f916140e057506108636131e1565b6108d2915060203d6020116108d8576108ca8183610b82565b906387a211a2600c52815f526020600c2091825491828111610a38575f93816001600160a01b0394039055806805345cdf77eb68f44c54036805345cdf77eb68f44c558352167fddf252ad1be2c89b69c2b068fc378daa952ba7f163c4a11628f55a4df523b3ef602083a3565b688000000000ab143c065c6141835730688000000000ab143c065d565b688000000000ab143c065f526004601cfd5b610bd760017f50bc60b877273d55cac3903fd4818902e5fd7aa256278ee2dc6b212f256c0b005460291c1615604051906141d0604083610b82565b600382527f53563200000000000000000000000000000000000000000000000000000000006020830152613023565b91906142175f936318fb58646004525f5260245f2090565b9068fbb67fda52d4bfb8bf81146143065780156142f6575b811980549182159260011c5f19810191600183811b179461429d57856020525f5260405f20948554928315614294575f9798505f19840103614276575b5050505555600190565b5f1980849383010154928392010155855260408520555f808061426c565b50505050505050565b94965050505050600192818154146142e057838101828154146142d15750600201908154146142cc57505f9150565b5f9055565b905f9250600201908154905555565b5f91506002848201918254815501908154905555565b5068fbb67fda52d4bfb8bf61422f565b63f5a267f15f526004601cfd5b610bd79060405190614326604083610b82565b600482527f535631310000000000000000000000000000000000000000000000000000000060208301521515613023565b91906014526034526fa9059cbb0000000000000000000000005f5260205f6044601082855af1908160015f51141615614393575b50505f603452565b3b153d1710156143a4575f8061438b565b6390b8ec185f526004601cfd5b5f688000000000ab143c065d565b908160209103126102d35751610335816107b6565b604051906143e3604083610b82565b600382527f42563500000000000000000000000000000000000000000000000000000000006020830152565b60206001600160a01b036024816144246148b6565b169360405194859384927f541d55480000000000000000000000000000000000000000000000000000000084521660048301525afa80156108df57610bd7915f916140e057506108636131e1565b7f50bc60b877273d55cac3903fd4818902e5fd7aa256278ee2dc6b212f256c0b028054600101908190557f50bc60b877273d55cac3903fd4818902e5fd7aa256278ee2dc6b212f256c0b065460408051308152602081019390935246908301524260608301526001600160a01b0316608082015260a09020807f50bc60b877273d55cac3903fd4818902e5fd7aa256278ee2dc6b212f256c0b035561453e815f527f50bc60b877273d55cac3903fd4818902e5fd7aa256278ee2dc6b212f256c0b0a60205260405f2090565b6001810182905580547fffffffffffffffffffff00000000000000000000000000000000000000000000169055807f97ccb93efafaa40e35ba26ce377c44cf0ecd02b31712919a3c44e15839bcb1885f80a290565b906001600160a01b036146bc9261460a60017f50bc60b877273d55cac3903fd4818902e5fd7aa256278ee2dc6b212f256c0b005460281c1615604051906145db604083610b82565b600382527f42563100000000000000000000000000000000000000000000000000000000006020830152613023565b61464f60405161461b604082610b82565b600381527f425633000000000000000000000000000000000000000000000000000000000060208201528383161515613023565b167fffffffffffffffffffffffff00000000000000000000000000000000000000007f50bc60b877273d55cac3903fd4818902e5fd7aa256278ee2dc6b212f256c0b045416177f50bc60b877273d55cac3903fd4818902e5fd7aa256278ee2dc6b212f256c0b0455615051565b61472f650100000000007ffffffffffffffffffffffffffffffffffffffffffffffffffffffeffffffffff7f50bc60b877273d55cac3903fd4818902e5fd7aa256278ee2dc6b212f256c0b005416177f50bc60b877273d55cac3903fd4818902e5fd7aa256278ee2dc6b212f256c0b0055565b610bd767ffffffffffffffff42166147be816d07fffffffffffffff800000000007ffffffffffffffffffffffffffffffffffffff80000000000000007ffffffffff7f50bc60b877273d55cac3903fd4818902e5fd7aa256278ee2dc6b212f256c0b00541691602b1b16177f50bc60b877273d55cac3903fd4818902e5fd7aa256278ee2dc6b212f256c0b0055565b7507fffffffffffffff8000000000000000000000000007ffffffffffffffffffffff80000000000000007ffffffffffffffffffffffffff7f50bc60b877273d55cac3903fd4818902e5fd7aa256278ee2dc6b212f256c0b00541691606b1b16177f50bc60b877273d55cac3903fd4818902e5fd7aa256278ee2dc6b212f256c0b0055565b6001600160a01b031680638b78c6d819555f7f8be0079c531659141344cd1fd0a4f28419497f9722a3daafe3b4186f6b6457e08180a3565b7001000000000000000000000000000000008110156148a9576fffffffffffffffffffffffffffffffff1690565b6335278d125f526004601cfd5b6148eb60017f50bc60b877273d55cac3903fd4818902e5fd7aa256278ee2dc6b212f256c0b005460281c1615156108636143d4565b6001600160a01b037f50bc60b877273d55cac3903fd4818902e5fd7aa256278ee2dc6b212f256c0b04541690565b610bd7918110159081614966575b5060405190614937604083610b82565b600382527f56463200000000000000000000000000000000000000000000000000000000006020830152613023565b90504210155f614927565b614979614f1c565b6fffffffffffffffffffffffffffffffff7f50bc60b877273d55cac3903fd4818902e5fd7aa256278ee2dc6b212f256c0b01541681116149b65750565b6134f5610bd79161487b565b604051906149d1604083610b82565b600382527f42563200000000000000000000000000000000000000000000000000000000006020830152565b60249060206001600160a01b03614a126148b6565b16604051938480927fa9c9a9180000000000000000000000000000000000000000000000000000000082527ff3bbf2dd6779e6fe2f6fb7cc20baa5140e39dd5b31ab45dfa7d512610b601f0d60048301525afa9182156108df575f92614a91575b50610bd7826001600160a01b03614a886149c2565b91161515613023565b614aab91925060203d602011612cb157612ca38183610b82565b905f614a73565b91906387a211a28360601b17600c526020600c208054808411610a385783900390555f526020600c208181540190556020526001600160a01b03600c5160601c91167fddf252ad1be2c89b69c2b068fc378daa952ba7f163c4a11628f55a4df523b3ef602080a3565b6805345cdf77eb68f44c54828101908110614b81576805345cdf77eb68f44c556387a211a2600c525f526020600c20818154019055602052600c5160601c5f7fddf252ad1be2c89b69c2b068fc378daa952ba7f163c4a11628f55a4df523b3ef602080a3565b63e5cfe9575f526004601cfd5b9091610335926001600160a01b0360017f50bc60b877273d55cac3903fd4818902e5fd7aa256278ee2dc6b212f256c0b02540193847f50bc60b877273d55cac3903fd4818902e5fd7aa256278ee2dc6b212f256c0b0255163092909160a0949260405194855260208501526040840152606083015260808201522090565b680100000000000000008110156148a95767ffffffffffffffff1690565b9190614c425f936318fb58646004525f5260245f2090565b9068fbb67fda52d4bfb8bf8114614306578015614d3c575b811991825491816020528215614ca2575b805f5260405f2092835415614c81575050505050565b9091929394955060011c8092015560010180915560011b6001179055600190565b915080548015614d3357828114614d2d57600182018054908115614d1f5750838114614d185760028301918254928315614d095750848314614d01575f52600160405f20555f52600260405f20555f52600360405f2055600791614c6b565b505050505050565b95505050505091925055600190565b5050505050565b945050505091925055600190565b50505050565b50555060019150565b5068fbb67fda52d4bfb8bf614c5a565b916040519360605260405260601b602c526f23b872dd000000000000000000000000600c5260205f6064601c82855af1908160015f51141615614d95575b50505f606052604052565b3b153d171015614da6575f80614d8a565b637939f4245f526004601cfd5b60249060206001600160a01b03614dc86148b6565b16604051938480927fa9c9a9180000000000000000000000000000000000000000000000000000000082527f06d15878a0883034bd095c66a4b2987dfae5eb662cf9ef4aaa5ce27b533782bc60048301525afa9182156108df575f92614a915750610bd7826001600160a01b03614a886149c2565b638b78c6d819543303614e4c57565b6382b429005f526004601cfd5b6001600160a01b031680638b78c6d819547f8be0079c531659141344cd1fd0a4f28419497f9722a3daafe3b4186f6b6457e05f80a3638b78c6d81955565b610bd79061271060405191614ead604084610b82565b600383527f564631000000000000000000000000000000000000000000000000000000000060208401521115613023565b610335614f0e60ff7f50bc60b877273d55cac3903fd4818902e5fd7aa256278ee2dc6b212f256c0b005416613199565b614f166150dd565b90615162565b614f4960ff7f50bc60b877273d55cac3903fd4818902e5fd7aa256278ee2dc6b212f256c0b005416613199565b614f516150dd565b6040517fcf0597ed000000000000000000000000000000000000000000000000000000008152606081600481305afa9081156108df575f91614fa1575b5081039081116131945761033591615162565b90506060813d606011614fce575b81614fbc60609383610b82565b810103126102d357604001515f614f8e565b3d9150614faf565b7fffffffff000000000000000000000000000000000000000000000000000000005f35165f527ffeaf205b5229ea10e902c7b89e4768733c756362b2becb0bfd65a97f71b02d006020526001600160a01b0360405f20541680156102d3575f8091368280378136915af43d5f803e1561504d573d5ff35b3d5ffd5b7f50bc60b877273d55cac3903fd4818902e5fd7aa256278ee2dc6b212f256c0b00547ffffffffffffffffffffffffffffffffffffffffffffffffffffffdffffffffff1690156150cf576601fe000000000060015b60291b16177f50bc60b877273d55cac3903fd4818902e5fd7aa256278ee2dc6b212f256c0b0055565b6601fe00000000005f6150a6565b602080602460106001600160a01b037f50bc60b877273d55cac3903fd4818902e5fd7aa256278ee2dc6b212f256c0b075416306014526f70a082310000000000000000000000005f525afa601f3d1116602051027f50bc60b877273d55cac3903fd4818902e5fd7aa256278ee2dc6b212f256c0b015460801c81039081116131945790565b6805345cdf77eb68f44c549081156152065782810292828215828487041417021561518e575050900490565b805f198492840985811086019003920990825f03831692818111156151f95783900480600302600218808202600203028082026002030280820260020302808202600203028082026002030280910260020302936001848483030494805f0304019211900302170290565b63ae47f7025f526004601cfd5b9150509056fe60a06040523461010157604051601f6108e138819003918201601f19168301916001600160401b038311848410176100ed5780849260209460405283398101031261010157516001600160a01b03811680820361010157604080519081016001600160401b038111828210176100ed5760405260028152602081019161211b60f11b8352156100b257826080526040516107db908161010682396080518181816101a701528181610530015261068b0152f35b60449060405192839162461bcd60e51b8352602060048401525180918160248501528484015e5f828201840152601f01601f19168101030190fd5b634e487b7160e01b5f52604160045260245ffd5b5f80fdfe6080806040526004361015610012575f80fd5b5f3560e01c9081631948f57f146105065750806325db13f1146102ff57806338d52e0f146102cd5780634972134a146102b05780635cd76354146101cb5780636910e3341461008f57639ed3c90c14610069575f80fd5b3461008b575f60031936011261008b57602060ff600254166040519015158152f35b5f80fd5b3461008b57604060031936011261008b5760043560243573ffffffffffffffffffffffffffffffffffffffff81169081810361008b577fffffffffffffffffffffffffffffffffffffffffffffffffffffffffffffff00600191610136600254916101316100fd6040610577565b600281527f4231000000000000000000000000000000000000000000000000000000000000602082015260ff8516156105bb565b61074f565b161760025581600155807fffffffffffffffffffffffff00000000000000000000000000000000000000005f5416175f556040519081527fab051ac83a2f3eb0d4acef0b16e45e830f6d966295150e6c9f1784f07be302cc602073ffffffffffffffffffffffffffffffffffffffff7f00000000000000000000000000000000000000000000000000000000000000001692a3005b3461008b57606060031936011261008b576101e4610554565b6024356101f03361063a565b610234600154604435146102046040610577565b90600282527f423200000000000000000000000000000000000000000000000000000000000060208301526105bb565b61023d816106b5565b6102468261074f565b610268818373ffffffffffffffffffffffffffffffffffffffff5f54166106f5565b7fb7acbf17ad94b6f877e46c72718225d94e660fd48f2e46f65942f2f4cce22027602073ffffffffffffffffffffffffffffffffffffffff805f5416946040519485521692a3005b3461008b575f60031936011261008b576020600154604051908152f35b3461008b575f60031936011261008b57602073ffffffffffffffffffffffffffffffffffffffff5f5416604051908152f35b602060031936011261008b57610313610554565b61031c3361063a565b73ffffffffffffffffffffffffffffffffffffffff81168061044157505047610344816106b5565b5f80808084335af13d15610438573d9067ffffffffffffffff821161040b578161039860207fffffffffffffffffffffffffffffffffffffffffffffffffffffffffffffffe0601f6103dd96011601610577565b9081525f60203d92013e5b6103ad6040610577565b90600282527f423400000000000000000000000000000000000000000000000000000000000060208301526105bb565b6040519081527f63b8c8e180bc85c19daef23e2bb787fb49672d3a9ecde24409c18ccb1accb5d160203392a2005b7f4e487b71000000000000000000000000000000000000000000000000000000005f52604160045260245ffd5b6103dd906103a3565b61049973ffffffffffffffffffffffffffffffffffffffff5f54168214156104696040610577565b90600282527f423500000000000000000000000000000000000000000000000000000000000060208301526105bb565b306014526f70a082310000000000000000000000005f526104d860208060246010865afa601f3d11166020510280936104d1826106b5565b33906106f5565b6040519182527f552c8f8dc30f2786e14004d98595afcc1c0ea1f552b86e86f64a2da74761eaab60203393a3005b3461008b575f60031936011261008b5760209073ffffffffffffffffffffffffffffffffffffffff7f0000000000000000000000000000000000000000000000000000000000000000168152f35b6004359073ffffffffffffffffffffffffffffffffffffffff8216820361008b57565b907fffffffffffffffffffffffffffffffffffffffffffffffffffffffffffffffe0601f604051930116820182811067ffffffffffffffff82111761040b57604052565b156105c35750565b60446020917fffffffffffffffffffffffffffffffffffffffffffffffffffffffffffffffe0601f6040519485937f08c379a00000000000000000000000000000000000000000000000000000000085528160048601528051918291826024880152018686015e5f85828601015201168101030190fd5b6106b3906106486040610577565b90600282527f4233000000000000000000000000000000000000000000000000000000000000602083015273ffffffffffffffffffffffffffffffffffffffff807f0000000000000000000000000000000000000000000000000000000000000000169116146105bb565b565b6106b3906106c36040610577565b90600282527f4237000000000000000000000000000000000000000000000000000000000000602083015215156105bb565b91906014526034526fa9059cbb0000000000000000000000005f5260205f6044601082855af1908160015f51141615610731575b50505f603452565b3b153d171015610742575f80610729565b6390b8ec185f526004601cfd5b6106b39073ffffffffffffffffffffffffffffffffffffffff6107726040610577565b91600283527f423600000000000000000000000000000000000000000000000000000000000060208401521615156105bb56fea2646970667358221220b5753e67905cd31f9f256d6bb84fdd7cea0ac851a9d45823ea6190ba1bd7729064736f6c634300081e0033a264697066735822122031872f4e98365f98ee09b2c738b9a7be56001c46ab63c7093ce7eb1440f214fe64736f6c634300081e0033","linkReferences":{}},"methodIdentifiers":{"DOMAIN_SEPARATOR()":"3644e515","addFunction(bytes4,address,bool)":"30b88eef","addFunctions(bytes4[],address,bool)":"eeda387f","allowance(address,address)":"dd62ed3e","approve(address,uint256)":"095ea7b3","balanceOf(address)":"70a08231","burnFees(uint256)":"0342a6ba","cancelOwnershipHandover()":"54d1f13d","cancelStakeRequest(bytes32)":"d3856009","cancelUnstakeRequest(bytes32)":"3c138a92","claimStakedShares(bytes32)":"4a1daaef","claimUnstakedAssets(bytes32)":"0f83d6d9","closeBatch(bytes32,bool)":"bb507ab9","completeOwnershipHandover(address)":"f04e283e","createNewBatch()":"1875e8f5","decimals()":"313ce567","initialize(address,address,bool,string,string,uint8,address)":"330fda50","name()":"06fdde03","nonces(address)":"7ecebe00","notifyManagementFeesCharged(uint64)":"39d14dce","notifyPerformanceFeesCharged(uint64)":"9c8af15f","owner()":"8da5cb5b","ownershipHandoverExpiresAt(address)":"fee81cf4","permit(address,address,uint256,uint256,uint8,bytes32,bytes32)":"d505accf","proxiableUUID()":"52d1902d","removeFunction(bytes4)":"1b6991c7","removeFunctions(bytes4[])":"f8ffd889","renounceOwnership()":"715018a6","requestOwnershipHandover()":"25692962","requestStake(address,uint256)":"58c2fd00","requestUnstake(address,uint256)":"710ba631","setHardHurdleRate(bool)":"c0b1b037","setManagementFee(uint16)":"8dd09af3","setPaused(bool)":"16c38b3c","setPerformanceFee(uint16)":"aa290e6d","settleBatch(bytes32)":"eeb8f2b5","symbol()":"95d89b41","totalSupply()":"18160ddd","transfer(address,uint256)":"a9059cbb","transferFrom(address,address,uint256)":"23b872dd","transferOwnership(address)":"f2fde38b","upgradeToAndCall(address,bytes)":"4f1ef286"},"storageLayout":{"storage":[],"types":{}},"id":68}