{"abi":[{"type":"constructor","inputs":[],"stateMutability":"nonpayable"},{"type":"fallback","stateMutability":"payable"},{"type":"function","name":"DOMAIN_SEPARATOR","inputs":[],"outputs":[{"name":"result","type":"bytes32","internalType":"bytes32"}],"stateMutability":"view"},{"type":"function","name":"addFunction","inputs":[{"name":"selector","type":"bytes4","internalType":"bytes4"},{"name":"implementation","type":"address","internalType":"address"},{"name":"forceOverride","type":"bool","internalType":"bool"}],"outputs":[],"stateMutability":"nonpayable"},{"type":"function","name":"addFunctions","inputs":[{"name":"selectors","type":"bytes4[]","internalType":"bytes4[]"},{"name":"implementation","type":"address","internalType":"address"},{"name":"forceOverride","type":"bool","internalType":"bool"}],"outputs":[],"stateMutability":"nonpayable"},{"type":"function","name":"allowance","inputs":[{"name":"owner","type":"address","internalType":"address"},{"name":"spender","type":"address","internalType":"address"}],"outputs":[{"name":"result","type":"uint256","internalType":"uint256"}],"stateMutability":"view"},{"type":"function","name":"approve","inputs":[{"name":"spender","type":"address","internalType":"address"},{"name":"amount","type":"uint256","internalType":"uint256"}],"outputs":[{"name":"","type":"bool","internalType":"bool"}],"stateMutability":"nonpayable"},{"type":"function","name":"balanceOf","inputs":[{"name":"owner","type":"address","internalType":"address"}],"outputs":[{"name":"result","type":"uint256","internalType":"uint256"}],"stateMutability":"view"},{"type":"function","name":"burnFees","inputs":[{"name":"shares","type":"uint256","internalType":"uint256"}],"outputs":[],"stateMutability":"nonpayable"},{"type":"function","name":"cancelOwnershipHandover","inputs":[],"outputs":[],"stateMutability":"payable"},{"type":"function","name":"cancelStakeRequest","inputs":[{"name":"requestId","type":"bytes32","internalType":"bytes32"}],"outputs":[],"stateMutability":"payable"},{"type":"function","name":"cancelUnstakeRequest","inputs":[{"name":"requestId","type":"bytes32","internalType":"bytes32"}],"outputs":[],"stateMutability":"payable"},{"type":"function","name":"claimStakedShares","inputs":[{"name":"requestId","type":"bytes32","internalType":"bytes32"}],"outputs":[],"stateMutability":"payable"},{"type":"function","name":"claimUnstakedAssets","inputs":[{"name":"requestId","type":"bytes32","internalType":"bytes32"}],"outputs":[],"stateMutability":"payable"},{"type":"function","name":"closeBatch","inputs":[{"name":"_batchId","type":"bytes32","internalType":"bytes32"},{"name":"_create","type":"bool","internalType":"bool"}],"outputs":[],"stateMutability":"nonpayable"},{"type":"function","name":"completeOwnershipHandover","inputs":[{"name":"pendingOwner","type":"address","internalType":"address"}],"outputs":[],"stateMutability":"payable"},{"type":"function","name":"createNewBatch","inputs":[],"outputs":[{"name":"","type":"bytes32","internalType":"bytes32"}],"stateMutability":"nonpayable"},{"type":"function","name":"decimals","inputs":[],"outputs":[{"name":"","type":"uint8","internalType":"uint8"}],"stateMutability":"view"},{"type":"function","name":"initialize","inputs":[{"name":"owner_","type":"address","internalType":"address"},{"name":"registry_","type":"address","internalType":"address"},{"name":"paused_","type":"bool","internalType":"bool"},{"name":"name_","type":"string","internalType":"string"},{"name":"symbol_","type":"string","internalType":"string"},{"name":"decimals_","type":"uint8","internalType":"uint8"},{"name":"asset_","type":"address","internalType":"address"}],"outputs":[],"stateMutability":"nonpayable"},{"type":"function","name":"name","inputs":[],"outputs":[{"name":"","type":"string","internalType":"string"}],"stateMutability":"view"},{"type":"function","name":"nonces","inputs":[{"name":"owner","type":"address","internalType":"address"}],"outputs":[{"name":"result","type":"uint256","internalType":"uint256"}],"stateMutability":"view"},{"type":"function","name":"notifyManagementFeesCharged","inputs":[{"name":"_timestamp","type":"uint64","internalType":"uint64"}],"outputs":[],"stateMutability":"nonpayable"},{"type":"function","name":"notifyPerformanceFeesCharged","inputs":[{"name":"_timestamp","type":"uint64","internalType":"uint64"}],"outputs":[],"stateMutability":"nonpayable"},{"type":"function","name":"owner","inputs":[],"outputs":[{"name":"result","type":"address","internalType":"address"}],"stateMutability":"view"},{"type":"function","name":"ownershipHandoverExpiresAt","inputs":[{"name":"pendingOwner","type":"address","internalType":"address"}],"outputs":[{"name":"result","type":"uint256","internalType":"uint256"}],"stateMutability":"view"},{"type":"function","name":"permit","inputs":[{"name":"owner","type":"address","internalType":"address"},{"name":"spender","type":"address","internalType":"address"},{"name":"value","type":"uint256","internalType":"uint256"},{"name":"deadline","type":"uint256","internalType":"uint256"},{"name":"v","type":"uint8","internalType":"uint8"},{"name":"r","type":"bytes32","internalType":"bytes32"},{"name":"s","type":"bytes32","internalType":"bytes32"}],"outputs":[],"stateMutability":"nonpayable"},{"type":"function","name":"proxiableUUID","inputs":[],"outputs":[{"name":"","type":"bytes32","internalType":"bytes32"}],"stateMutability":"view"},{"type":"function","name":"removeFunction","inputs":[{"name":"selector","type":"bytes4","internalType":"bytes4"}],"outputs":[],"stateMutability":"nonpayable"},{"type":"function","name":"removeFunctions","inputs":[{"name":"selectors","type":"bytes4[]","internalType":"bytes4[]"}],"outputs":[],"stateMutability":"nonpayable"},{"type":"function","name":"renounceOwnership","inputs":[],"outputs":[],"stateMutability":"payable"},{"type":"function","name":"requestOwnershipHandover","inputs":[],"outputs":[],"stateMutability":"payable"},{"type":"function","name":"requestStake","inputs":[{"name":"to","type":"address","internalType":"address"},{"name":"amount","type":"uint256","internalType":"uint256"}],"outputs":[{"name":"requestId","type":"bytes32","internalType":"bytes32"}],"stateMutability":"payable"},{"type":"function","name":"requestUnstake","inputs":[{"name":"to","type":"address","internalType":"address"},{"name":"stkTokenAmount","type":"uint256","internalType":"uint256"}],"outputs":[{"name":"requestId","type":"bytes32","internalType":"bytes32"}],"stateMutability":"payable"},{"type":"function","name":"setHardHurdleRate","inputs":[{"name":"_isHard","type":"bool","internalType":"bool"}],"outputs":[],"stateMutability":"nonpayable"},{"type":"function","name":"setManagementFee","inputs":[{"name":"_managementFee","type":"uint16","internalType":"uint16"}],"outputs":[],"stateMutability":"nonpayable"},{"type":"function","name":"setMaxTotalAssets","inputs":[{"name":"maxTotalAssets_","type":"uint256","internalType":"uint256"}],"outputs":[],"stateMutability":"nonpayable"},{"type":"function","name":"setPaused","inputs":[{"name":"paused_","type":"bool","internalType":"bool"}],"outputs":[],"stateMutability":"nonpayable"},{"type":"function","name":"setPerformanceFee","inputs":[{"name":"_performanceFee","type":"uint16","internalType":"uint16"}],"outputs":[],"stateMutability":"nonpayable"},{"type":"function","name":"settleBatch","inputs":[{"name":"_batchId","type":"bytes32","internalType":"bytes32"}],"outputs":[],"stateMutability":"nonpayable"},{"type":"function","name":"symbol","inputs":[],"outputs":[{"name":"","type":"string","internalType":"string"}],"stateMutability":"view"},{"type":"function","name":"totalSupply","inputs":[],"outputs":[{"name":"result","type":"uint256","internalType":"uint256"}],"stateMutability":"view"},{"type":"function","name":"transfer","inputs":[{"name":"to","type":"address","internalType":"address"},{"name":"amount","type":"uint256","internalType":"uint256"}],"outputs":[{"name":"","type":"bool","internalType":"bool"}],"stateMutability":"nonpayable"},{"type":"function","name":"transferFrom","inputs":[{"name":"from","type":"address","internalType":"address"},{"name":"to","type":"address","internalType":"address"},{"name":"amount","type":"uint256","internalType":"uint256"}],"outputs":[{"name":"","type":"bool","internalType":"bool"}],"stateMutability":"nonpayable"},{"type":"function","name":"transferOwnership","inputs":[{"name":"newOwner","type":"address","internalType":"address"}],"outputs":[],"stateMutability":"payable"},{"type":"function","name":"upgradeToAndCall","inputs":[{"name":"newImplementation","type":"address","internalType":"address"},{"name":"data","type":"bytes","internalType":"bytes"}],"outputs":[],"stateMutability":"payable"},{"type":"event","name":"Approval","inputs":[{"name":"owner","type":"address","indexed":true,"internalType":"address"},{"name":"spender","type":"address","indexed":true,"internalType":"address"},{"name":"amount","type":"uint256","indexed":false,"internalType":"uint256"}],"anonymous":false},{"type":"event","name":"BatchClosed","inputs":[{"name":"batchId","type":"bytes32","indexed":true,"internalType":"bytes32"}],"anonymous":false},{"type":"event","name":"BatchCreated","inputs":[{"name":"batchId","type":"bytes32","indexed":true,"internalType":"bytes32"}],"anonymous":false},{"type":"event","name":"BatchReceiverCreated","inputs":[{"name":"receiver","type":"address","indexed":true,"internalType":"address"},{"name":"batchId","type":"bytes32","indexed":true,"internalType":"bytes32"}],"anonymous":false},{"type":"event","name":"BatchSettled","inputs":[{"name":"batchId","type":"bytes32","indexed":true,"internalType":"bytes32"}],"anonymous":false},{"type":"event","name":"FeesAssesed","inputs":[{"name":"managementFees","type":"uint256","indexed":false,"internalType":"uint256"},{"name":"performanceFees","type":"uint256","indexed":false,"internalType":"uint256"}],"anonymous":false},{"type":"event","name":"HardHurdleRateUpdated","inputs":[{"name":"newRate","type":"bool","indexed":false,"internalType":"bool"}],"anonymous":false},{"type":"event","name":"HurdleRateUpdated","inputs":[{"name":"newRate","type":"uint16","indexed":false,"internalType":"uint16"}],"anonymous":false},{"type":"event","name":"Initialized","inputs":[{"name":"registry","type":"address","indexed":false,"internalType":"address"},{"name":"name","type":"string","indexed":false,"internalType":"string"},{"name":"symbol","type":"string","indexed":false,"internalType":"string"},{"name":"decimals","type":"uint8","indexed":false,"internalType":"uint8"},{"name":"asset","type":"address","indexed":false,"internalType":"address"}],"anonymous":false},{"type":"event","name":"Initialized","inputs":[{"name":"version","type":"uint64","indexed":false,"internalType":"uint64"}],"anonymous":false},{"type":"event","name":"KTokenUnstaked","inputs":[{"name":"user","type":"address","indexed":true,"internalType":"address"},{"name":"shares","type":"uint256","indexed":false,"internalType":"uint256"},{"name":"kTokenAmount","type":"uint256","indexed":false,"internalType":"uint256"}],"anonymous":false},{"type":"event","name":"ManagementFeeUpdated","inputs":[{"name":"oldFee","type":"uint16","indexed":false,"internalType":"uint16"},{"name":"newFee","type":"uint16","indexed":false,"internalType":"uint16"}],"anonymous":false},{"type":"event","name":"ManagementFeesCharged","inputs":[{"name":"timestamp","type":"uint256","indexed":false,"internalType":"uint256"}],"anonymous":false},{"type":"event","name":"OwnershipHandoverCanceled","inputs":[{"name":"pendingOwner","type":"address","indexed":true,"internalType":"address"}],"anonymous":false},{"type":"event","name":"OwnershipHandoverRequested","inputs":[{"name":"pendingOwner","type":"address","indexed":true,"internalType":"address"}],"anonymous":false},{"type":"event","name":"OwnershipTransferred","inputs":[{"name":"oldOwner","type":"address","indexed":true,"internalType":"address"},{"name":"newOwner","type":"address","indexed":true,"internalType":"address"}],"anonymous":false},{"type":"event","name":"Paused","inputs":[{"name":"paused","type":"bool","indexed":false,"internalType":"bool"}],"anonymous":false},{"type":"event","name":"PerformanceFeeUpdated","inputs":[{"name":"oldFee","type":"uint16","indexed":false,"internalType":"uint16"},{"name":"newFee","type":"uint16","indexed":false,"internalType":"uint16"}],"anonymous":false},{"type":"event","name":"PerformanceFeesCharged","inputs":[{"name":"timestamp","type":"uint256","indexed":false,"internalType":"uint256"}],"anonymous":false},{"type":"event","name":"StakeRequestCancelled","inputs":[{"name":"requestId","type":"bytes32","indexed":true,"internalType":"bytes32"}],"anonymous":false},{"type":"event","name":"StakeRequestCreated","inputs":[{"name":"requestId","type":"bytes32","indexed":true,"internalType":"bytes32"},{"name":"user","type":"address","indexed":true,"internalType":"address"},{"name":"kToken","type":"address","indexed":true,"internalType":"address"},{"name":"amount","type":"uint256","indexed":false,"internalType":"uint256"},{"name":"recipient","type":"address","indexed":false,"internalType":"address"},{"name":"batchId","type":"bytes32","indexed":false,"internalType":"bytes32"}],"anonymous":false},{"type":"event","name":"StakeRequestRedeemed","inputs":[{"name":"requestId","type":"bytes32","indexed":true,"internalType":"bytes32"}],"anonymous":false},{"type":"event","name":"StakingSharesClaimed","inputs":[{"name":"batchId","type":"bytes32","indexed":true,"internalType":"bytes32"},{"name":"requestId","type":"bytes32","indexed":false,"internalType":"bytes32"},{"name":"user","type":"address","indexed":true,"internalType":"address"},{"name":"shares","type":"uint256","indexed":false,"internalType":"uint256"}],"anonymous":false},{"type":"event","name":"Transfer","inputs":[{"name":"from","type":"address","indexed":true,"internalType":"address"},{"name":"to","type":"address","indexed":true,"internalType":"address"},{"name":"amount","type":"uint256","indexed":false,"internalType":"uint256"}],"anonymous":false},{"type":"event","name":"UnstakeRequestCancelled","inputs":[{"name":"requestId","type":"bytes32","indexed":true,"internalType":"bytes32"}],"anonymous":false},{"type":"event","name":"UnstakeRequestCreated","inputs":[{"name":"requestId","type":"bytes32","indexed":true,"internalType":"bytes32"},{"name":"user","type":"address","indexed":true,"internalType":"address"},{"name":"amount","type":"uint256","indexed":false,"internalType":"uint256"},{"name":"recipient","type":"address","indexed":false,"internalType":"address"},{"name":"batchId","type":"bytes32","indexed":false,"internalType":"bytes32"}],"anonymous":false},{"type":"event","name":"UnstakingAssetsClaimed","inputs":[{"name":"batchId","type":"bytes32","indexed":true,"internalType":"bytes32"},{"name":"requestId","type":"bytes32","indexed":false,"internalType":"bytes32"},{"name":"user","type":"address","indexed":true,"internalType":"address"},{"name":"assets","type":"uint256","indexed":false,"internalType":"uint256"}],"anonymous":false},{"type":"event","name":"Upgraded","inputs":[{"name":"implementation","type":"address","indexed":true,"internalType":"address"}],"anonymous":false},{"type":"error","name":"AllowanceOverflow","inputs":[]},{"type":"error","name":"AllowanceUnderflow","inputs":[]},{"type":"error","name":"AlreadyInitialized","inputs":[]},{"type":"error","name":"InsufficientAllowance","inputs":[]},{"type":"error","name":"InsufficientBalance","inputs":[]},{"type":"error","name":"InvalidInitialization","inputs":[]},{"type":"error","name":"InvalidPermit","inputs":[]},{"type":"error","name":"NewOwnerIsZeroAddress","inputs":[]},{"type":"error","name":"NoHandoverRequest","inputs":[]},{"type":"error","name":"NotInitializing","inputs":[]},{"type":"error","name":"Permit2AllowanceIsFixedAtInfinity","inputs":[]},{"type":"error","name":"PermitExpired","inputs":[]},{"type":"error","name":"Reentrancy","inputs":[]},{"type":"error","name":"TotalSupplyOverflow","inputs":[]},{"type":"error","name":"Unauthorized","inputs":[]},{"type":"error","name":"UnauthorizedCallContext","inputs":[]},{"type":"error","name":"UpgradeFailed","inputs":[]}],"bytecode":{"object":"0x60a080604052346099573060805263409feecd195460018116608c5760011c6002600160401b0319016048575b615f0d908161009e823960805181818161156e01526116930152f35b6002600160411b0363409feecd19556001600160401b0360209081527fc7f505b2f371ae2175ee4913f4499e1f2633a7b5936321eed1cdaeb6115181d29080a1602c565b63f92ee8a95f526004601cfd5b5f80fdfe6080604052600436106154ef575f3560e01c80630342a6ba146102bb57806306fdde03146102b6578063095ea7b3146102b15780630f83d6d9146102ac57806316c38b3c146102a757806318160ddd146102a25780631875e8f51461029d5780631b6991c71461029857806323b872dd14610293578063256929621461028e57806330b88eef14610289578063313ce56714610284578063330fda501461027f5780633644e5151461027a57806339d14dce146102755780633c138a92146102705780634a1daaef1461026b5780634f1ef2861461026657806352d1902d1461026157806354d1f13d1461025c57806358c2fd001461025757806370a0823114610252578063710ba6311461024d578063715018a6146102485780637ecebe00146102435780638da5cb5b1461023e5780638dd09af31461023957806395d89b41146102345780639c8af15f1461022f578063a9059cbb1461022a578063aa290e6d14610225578063bb507ab914610220578063bc2e47b71461021b578063c0b1b03714610216578063d385600914610211578063d505accf1461020c578063dd62ed3e14610207578063eeb8f2b514610202578063eeda387f146101fd578063f04e283e146101f8578063f2fde38b146101f3578063f8ffd889146101ee5763fee81cf4036154ef576131b2565b613154565b613115565b6130c4565b61304b565b612d20565b612cec565b612b1b565b612814565b612736565b612699565b612556565b612478565b6123f1565b612309565b6121d7565b6120f2565b6120ab565b612075565b61202c565b611cea565b611cb5565b611725565b6116e1565b611680565b611515565b6111b2565b610eb1565b610dc8565b610d15565b610c7d565b610b26565b610ae8565b610a9f565b610993565b61096e565b610919565b6108f4565b6107d0565b61042d565b61038c565b610348565b346102e35760206003193601126102e3576102e16004356102db33614462565b306144de565b005b5f80fd5b5f9103126102e357565b907fffffffffffffffffffffffffffffffffffffffffffffffffffffffffffffffe0601f602080948051918291828752018686015e5f8582860101520116010190565b9060206103459281815201906102f1565b90565b346102e3575f6003193601126102e357610377610363613239565b6040519182916020835260208301906102f1565b0390f35b6001600160a01b038116036102e357565b346102e35760406003193601126102e3576004356103a98161037b565b602435908119156e22d473030f116ddee9f6b43ac78ba36001600160a01b03831618171561042057602052637f5e9f20600c52335f52806034600c20555f52602c5160601c337f8c5be1e5ebec7d5bd14f71427d1e84f3dd0314c0f7b2291e5b200ac8c7c3b92560205fa360405160018152602090f35b633f68539a5f526004601cfd5b60206003193601126102e35760043561044461454b565b61044c61457a565b61047d815f527f50bc60b877273d55cac3903fd4818902e5fd7aa256278ee2dc6b212f256c0b0d60205260405f2090565b60030154906104b3825f527f50bc60b877273d55cac3903fd4818902e5fd7aa256278ee2dc6b212f256c0b0b60205260405f2090565b5460a81c60ff166104c261334a565b6104cb91613385565b6104fc815f527f50bc60b877273d55cac3903fd4818902e5fd7aa256278ee2dc6b212f256c0b0d60205260405f2090565b60048101805460401c60ff16610511816133ce565b610519613405565b6105239115613385565b81546001600160a01b03166001600160a01b03163314610541613440565b61054a91613385565b335f9081527f50bc60b877273d55cac3903fd4818902e5fd7aa256278ee2dc6b212f256c0b0e6020526040902083610581916145e4565b61058961347b565b61059291613385565b80547fffffffffffffffffffffffffffffffffffffffffffffff00ffffffffffffffff16680100000000000000001790556105f4835f527f50bc60b877273d55cac3903fd4818902e5fd7aa256278ee2dc6b212f256c0b0b60205260405f2090565b600301546fffffffffffffffffffffffffffffffff166fffffffffffffffffffffffffffffffff169161064e845f527f50bc60b877273d55cac3903fd4818902e5fd7aa256278ee2dc6b212f256c0b0b60205260405f2090565b6003015460801c61065e846146f8565b7f50bc60b877273d55cac3903fd4818902e5fd7aa256278ee2dc6b212f256c0b005460ff1694600184019485546106a4906fffffffffffffffffffffffffffffffff1690565b6fffffffffffffffffffffffffffffffff16966106c184896134e3565b906106cb906134fb565b6106d49161350c565b9687936106e0916134e3565b906106ea9161350c565b6106f490306144de565b83546040805194855260208501939093526001600160a01b03169283927f885a882c47dd7d1e5c24472bae67f438bae87e32a2cd0070eafe7b07cd2e2a6991a37f50bc60b877273d55cac3903fd4818902e5fd7aa256278ee2dc6b212f256c0b075461076a9185916001600160a01b031661473c565b549054604080516fffffffffffffffffffffffffffffffff909216825260208201939093526001600160a01b03909116917f41273f22710b9196a798efbfcef8b8f13949d3fb0c3e4f3ccc226f2125e248b091a26102e1614796565b801515036102e357565b346102e35760206003193601126102e35760246004356107ef816107c6565b60206001600160a01b03610801614c9b565b16604051938480927f2500f2b60000000000000000000000000000000000000000000000000000000082523360048301525afa9081156108ef576108796020927f0e2fb031ee032dc02d8011dc50b816eb450cf856abd8261680dac74f72165bd2945f916108c2575b50610873613543565b90613385565b6108ae60017f50bc60b877273d55cac3903fd4818902e5fd7aa256278ee2dc6b212f256c0b005460281c1615156108736147b9565b6108b78161556a565b6040519015158152a1005b6108e29150843d86116108e8575b6108da8183610b92565b8101906147a4565b5f61086a565b503d6108d0565b613f89565b346102e3575f6003193601126102e35760206805345cdf77eb68f44c54604051908152f35b346102e3575f6003193601126102e357610932336147f4565b602061093c614857565b604051908152f35b7fffffffff000000000000000000000000000000000000000000000000000000008116036102e357565b346102e35760206003193601126102e3576102e160043561098e81610944565b61357e565b346102e35760606003193601126102e3576004356109b08161037b565b6024356109bc8161037b565b604435908260601b6e22d473030f116ddee9f6b43ac78ba33303610a55575b6387a211a217600c526020600c208054808411610a485783900390555f526020600c208181540190556020526001600160a01b03600c5160601c91167fddf252ad1be2c89b69c2b068fc378daa952ba7f163c4a11628f55a4df523b3ef602080a360405160018152602090f35b63f4d678b85f526004601cfd5b33602052637f5e9f208117600c526034600c20908154918219610a7b575b5090506109db565b828511610a9257846387a211a2930390555f610a73565b6313be252b5f526004601cfd5b5f6003193601126102e35763389a75e1600c52335f526202a30042016020600c2055337fdbf36a107da19e49527a7176a1babf963b4b0ff8cde35ee35d6cd8f1f9ac7e1d5f80a2005b346102e35760606003193601126102e3576102e1600435610b0881610944565b602435610b148161037b565b60443591610b21836107c6565b6135fb565b346102e3575f6003193601126102e357602060ff7f50bc60b877273d55cac3903fd4818902e5fd7aa256278ee2dc6b212f256c0b005416604051908152f35b7f4e487b71000000000000000000000000000000000000000000000000000000005f52604160045260245ffd5b90601f7fffffffffffffffffffffffffffffffffffffffffffffffffffffffffffffffe0910116810190811067ffffffffffffffff821117610bd357604052565b610b65565b60405190610be760c083610b92565b565b81601f820112156102e35780359067ffffffffffffffff8211610bd35760405192610c3c601f84017fffffffffffffffffffffffffffffffffffffffffffffffffffffffffffffffe01660200185610b92565b828452602083830101116102e357815f926020809301838601378301015290565b60a4359060ff821682036102e357565b6084359060ff821682036102e357565b346102e35760e06003193601126102e357600435610c9a8161037b565b60243590610ca78261037b565b60443591610cb4836107c6565b60643567ffffffffffffffff81116102e357610cd4903690600401610be9565b926084359367ffffffffffffffff85116102e357610cf96102e1953690600401610be9565b91610d02610c5d565b9360c43595610d108761037b565b6136ed565b346102e3575f6003193601126102e35760a0610d2f613239565b60208151910120604051907f8b73c3c69bb8fe3d512ecc4cf759cc79239f7b179b0ffacaa9a75d522b39400f825260208201527fc89efdaa54c0f20c7adf612882df0950f5a951637e0307cdcb4c672f298b8bc66040820152466060820152306080820152206040518091602082019082520390f35b60031960209101126102e35760043567ffffffffffffffff811681036102e35790565b346102e3577fe65ac4349eb9700f0c615b26a7bbcef2e3bcbbff960dc8f548d7d19dbe9320ef6020610df936610da5565b610e0233614462565b7f50bc60b877273d55cac3903fd4818902e5fd7aa256278ee2dc6b212f256c0b00547ffffffffffffffffffffffffffffffffffffff80000000000000007ffffffffff6d07fffffffffffffff8000000000067ffffffffffffffff841693610e7767ffffffffffffffff85602b1c1686614cfe565b602b1b169116177f50bc60b877273d55cac3903fd4818902e5fd7aa256278ee2dc6b212f256c0b0055610ea8614d56565b604051908152a1005b60206003193601126102e357600435610ec861454b565b610ed061457a565b610f01815f527f50bc60b877273d55cac3903fd4818902e5fd7aa256278ee2dc6b212f256c0b0d60205260405f2090565b610f2e610f24610f1883546001600160a01b031690565b6001600160a01b031690565b3314610873613fdd565b610f7c610f7483610f6f336001600160a01b03165f527f50bc60b877273d55cac3903fd4818902e5fd7aa256278ee2dc6b212f256c0b0e60205260405f2090565b6145e4565b61087361347b565b610fe060048201610fad610f95825460ff9060401c1690565b610f9e816133ce565b610fa6614018565b9015613385565b680200000000000000007fffffffffffffffffffffffffffffffffffffffffffffff00ffffffffffffffff825416179055565b600381015461103561102d61102961101f845f527f50bc60b877273d55cac3903fd4818902e5fd7aa256278ee2dc6b212f256c0b0b60205260405f2090565b5460a01c60ff1690565b1590565b610873614053565b61108161107961102961106f845f527f50bc60b877273d55cac3903fd4818902e5fd7aa256278ee2dc6b212f256c0b0b60205260405f2090565b5460a81c60ff1690565b61087361408e565b61108f610f18610f18614de2565b9160018101916110af83546fffffffffffffffffffffffffffffffff1690565b90843b156102e3576040517f8f6b6ee20000000000000000000000000000000000000000000000000000000081523060048201526fffffffffffffffffffffffffffffffff9290921660248301526044820152925f908490606490829084905af19283156108ef57611139611165926111509261116c96611198575b50546001600160a01b031690565b92546fffffffffffffffffffffffffffffffff1690565b6fffffffffffffffffffffffffffffffff1690565b9030614e97565b7f31554d632bde073c52741a6f600532f2129ef071de676e92c694906a2a60dd3d5f80a26102e1614796565b806111a65f6111ac93610b92565b806102e7565b5f61112b565b60206003193601126102e35761150d6004356111cc61454b565b6111d461457a565b611508600361120a835f527f50bc60b877273d55cac3903fd4818902e5fd7aa256278ee2dc6b212f256c0b0c60205260405f2090565b01549161124c61124461106f855f527f50bc60b877273d55cac3903fd4818902e5fd7aa256278ee2dc6b212f256c0b0b60205260405f2090565b61087361334a565b6114fb61147b611283835f527f50bc60b877273d55cac3903fd4818902e5fd7aa256278ee2dc6b212f256c0b0c60205260405f2090565b92611343600485016112ae61129d825460ff9060401c1690565b6112a6816133ce565b610fa6613405565b6112cf6112c5610f1888546001600160a01b031690565b3314610873613440565b611310610f7484610f6f336001600160a01b03165f527f50bc60b877273d55cac3903fd4818902e5fd7aa256278ee2dc6b212f256c0b0e60205260405f2090565b680100000000000000007fffffffffffffffffffffffffffffffffffffffffffffff00ffffffffffffffff825416179055565b611384611150600361137c895f527f50bc60b877273d55cac3903fd4818902e5fd7aa256278ee2dc6b212f256c0b0b60205260405f2090565b015460801c90565b9061138e826146f8565b6114036113ae60018701546fffffffffffffffffffffffffffffffff1690565b926113fe6fffffffffffffffffffffffffffffffff85166113f86113f360ff7f50bc60b877273d55cac3903fd4818902e5fd7aa256278ee2dc6b212f256c0b00541690565b6134fb565b906134e3565b61350c565b967ffef4f80a328fc3fdf24a2d9fd39f986127e680d3f648725afc621fa1403a560b886001600160a01b0361143f89546001600160a01b031690565b6040805196875260208701939093521693a37f50bc60b877273d55cac3903fd4818902e5fd7aa256278ee2dc6b212f256c0b015460801c6140c9565b6fffffffffffffffffffffffffffffffff7fffffffffffffffffffffffffffffffff000000000000000000000000000000007f50bc60b877273d55cac3903fd4818902e5fd7aa256278ee2dc6b212f256c0b01549260801b169116177f50bc60b877273d55cac3903fd4818902e5fd7aa256278ee2dc6b212f256c0b0155565b546001600160a01b031690565b614f00565b6102e1614796565b60406003193601126102e35760043561152d8161037b565b6024359067ffffffffffffffff82116102e357366023830112156102e35781600401359067ffffffffffffffff82116102e35736602483850101116102e3577f00000000000000000000000000000000000000000000000000000000000000003014611673576001600160a01b03906115a533614462565b166115b96115b1613bbe565b821515613385565b3d5f526352d1902d6001527f360894a13ba1a3210667c828492db98dca3e2076cc3735a920a3ca505d382bbc602060016004601d855afa510361166557807fbc7cd75a20ee27fd9adebab32041f755214dbc6bffa90cc0225b39da2e5c2d3b5f80a281817f360894a13ba1a3210667c828492db98dca3e2076cc3735a920a3ca505d382bbc5561164557005b815f926024604051950185378338925af41561165d57005b3d5f823e3d90fd5b6355299b496001526004601dfd5b639f03a0265f526004601cfd5b346102e3575f6003193601126102e357307f0000000000000000000000000000000000000000000000000000000000000000036116735760206040517f360894a13ba1a3210667c828492db98dca3e2076cc3735a920a3ca505d382bbc8152f35b5f6003193601126102e35763389a75e1600c52335f525f6020600c2055337ffa7b8eab7da67f412cc9575ed43464468f9bfbae89d1675917346ca6d8fe3c925f80a2005b60406003193601126102e35760043561173d8161037b565b60243561174861454b565b61175061457a565b611759816146f8565b611790610f18610f187f50bc60b877273d55cac3903fd4818902e5fd7aa256278ee2dc6b212f256c0b07546001600160a01b031690565b6040517f70a0823100000000000000000000000000000000000000000000000000000000815233600482015290602090829060249082905afa80156108ef576117ec915f91611c96575b50826117e461410a565b911015613385565b7f50bc60b877273d55cac3903fd4818902e5fd7aa256278ee2dc6b212f256c0b03549161181882614c60565b91600261184c855f527f50bc60b877273d55cac3903fd4818902e5fd7aa256278ee2dc6b212f256c0b0b60205260405f2090565b016118b06118738561186e84546fffffffffffffffffffffffffffffffff1690565b614145565b82547fffffffffffffffffffffffffffffffff00000000000000000000000000000000166fffffffffffffffffffffffffffffffff821617909255565b6118bb610f18614c9b565b6040517fe6ed859d0000000000000000000000000000000000000000000000000000000081523060048201529190602090839060249082905afa80156108ef57611929925f91611c67575b506fffffffffffffffffffffffffffffffff611920614177565b92161115613385565b611997611950611937614f73565b6fffffffffffffffffffffffffffffffff8616906141b2565b61198d6111507f50bc60b877273d55cac3903fd4818902e5fd7aa256278ee2dc6b212f256c0b08546fffffffffffffffffffffffffffffffff1690565b10156108736141bf565b611a3d6119a5428333614ff8565b93611a016119b242615076565b6119da6119bd610bd8565b338152936fffffffffffffffffffffffffffffffff166020850152565b6001600160a01b03861660408401526060830188905267ffffffffffffffff166080830152565b5f60a0820152611a38855f527f50bc60b877273d55cac3903fd4818902e5fd7aa256278ee2dc6b212f256c0b0c60205260405f2090565b6141fa565b611a8083611a7b336001600160a01b03165f527f50bc60b877273d55cac3903fd4818902e5fd7aa256278ee2dc6b212f256c0b0e60205260405f2090565b615094565b50611abd813033611ab87f50bc60b877273d55cac3903fd4818902e5fd7aa256278ee2dc6b212f256c0b07546001600160a01b031690565b6151b6565b611af661147b611acc83614c60565b7f50bc60b877273d55cac3903fd4818902e5fd7aa256278ee2dc6b212f256c0b015460801c614145565b611b04610f18610f18614de2565b611b0c61521d565b7f50bc60b877273d55cac3903fd4818902e5fd7aa256278ee2dc6b212f256c0b06546001600160a01b031690823b156102e3576040517fc60990920000000000000000000000000000000000000000000000000000000081526001600160a01b039182166004820152306024820152911660448201526064810183905260848101869052905f90829060a490829084905af180156108ef576103779585927fef7f1919e2638c706798d0161a452d595ab58436e6a4dc4b65f042a0954097f592611c53575b506001600160a01b03611c0b7f50bc60b877273d55cac3903fd4818902e5fd7aa256278ee2dc6b212f256c0b07546001600160a01b031690565b1694611c386040519283923397846001600160a01b03604092959493606083019683521660208201520152565b0390a4611c43614796565b6040519081529081906020820190565b806111a65f611c6193610b92565b5f611bd1565b611c89915060203d602011611c8f575b611c818183610b92565b8101906140fb565b5f611906565b503d611c77565b611caf915060203d602011611c8f57611c818183610b92565b5f6117da565b346102e35760206003193601126102e357602061093c600435611cd78161037b565b6387a211a2600c525f526020600c205490565b60406003193601126102e357600435611d028161037b565b602435611d0d61454b565b611d1561457a565b611d1e816146f8565b611d4381611d39336387a211a2600c525f526020600c205490565b101561087361410a565b7f50bc60b877273d55cac3903fd4818902e5fd7aa256278ee2dc6b212f256c0b035490611d7f611d7a611d746152a7565b8361532e565b614c60565b611e06611dc56002611db8865f527f50bc60b877273d55cac3903fd4818902e5fd7aa256278ee2dc6b212f256c0b0b60205260405f2090565b019261186e845460801c90565b82546fffffffffffffffffffffffffffffffff16608082901b7fffffffffffffffffffffffffffffffff000000000000000000000000000000001617909255565b611e11610f18614c9b565b6040517fa05a0e4a0000000000000000000000000000000000000000000000000000000081523060048201529190602090839060249082905afa80156108ef57611e75925f91611c6757506fffffffffffffffffffffffffffffffff611920614177565b611e80428233614ff8565b91611f12611e8d83614c60565b611eb5611e98610bd8565b338152916fffffffffffffffffffffffffffffffff166020830152565b6001600160a01b0386166040820152606081018390524267ffffffffffffffff1660808201525f60a0820152611a38855f527f50bc60b877273d55cac3903fd4818902e5fd7aa256278ee2dc6b212f256c0b0d60205260405f2090565b611f5083611a7b336001600160a01b03165f527f50bc60b877273d55cac3903fd4818902e5fd7aa256278ee2dc6b212f256c0b0e60205260405f2090565b50611f5c823033614e97565b611f6a610f18610f18614de2565b90813b156102e3576040517fd7eebeaf0000000000000000000000000000000000000000000000000000000081523060048201526024810184905260448101829052915f908390606490829084905af19081156108ef576103779585937ffe67f2e1da3714b8e0579382741d2579cee1b119df90667cd54721133b0b7ba593612018575b50604080519586526001600160a01b039190911660208601528401523392606090a3611c43614796565b806111a65f61202693610b92565b5f611fee565b5f6003193601126102e35761203f6153d8565b5f638b78c6d819547f8be0079c531659141344cd1fd0a4f28419497f9722a3daafe3b4186f6b6457e08280a35f638b78c6d81955005b346102e35760206003193601126102e3576004356120928161037b565b6338377508600c525f52602080600c2054604051908152f35b346102e3575f6003193601126102e3576020638b78c6d819546001600160a01b0360405191168152f35b60031960209101126102e35760043561ffff811681036102e35790565b346102e3577f7fa71bc8199b41215c8786fc03983be5a27180965feae35db511cd958631826f61ffff612124366120d5565b61212d33614462565b612138828216615432565b6121d27f50bc60b877273d55cac3903fd4818902e5fd7aa256278ee2dc6b212f256c0b00549164ffff0000008160181b167fffffffffffffffffffffffffffffffffffffffffffffffffffffff0000ffffff8416177f50bc60b877273d55cac3903fd4818902e5fd7aa256278ee2dc6b212f256c0b005560405193849360181c168390929161ffff60209181604085019616845216910152565b0390a1005b346102e3575f6003193601126102e3576040515f7f50bc60b877273d55cac3903fd4818902e5fd7aa256278ee2dc6b212f256c0b0a54612216816131e8565b80845290600181169081156122c7575060011461224a575b6103778361223e81850382610b92565b60405191829182610334565b7f50bc60b877273d55cac3903fd4818902e5fd7aa256278ee2dc6b212f256c0b0a5f9081527f3177a8165b5b3e3c62fb2630441ecd4511c2f82be57a6b1983a2e5a11e1148b9939250905b8082106122ad5750909150810160200161223e61222e565b919260018160209254838588010152019101909291612295565b7fffffffffffffffffffffffffffffffffffffffffffffffffffffffffffffff001660208086019190915291151560051b8401909101915061223e905061222e565b346102e3577fbe5a13c989a13e06b5cd587e9b683c7a96fc98bba9526a05870f6c8283a26f7f602061233a36610da5565b61234333614462565b7f50bc60b877273d55cac3903fd4818902e5fd7aa256278ee2dc6b212f256c0b00547ffffffffffffffffffffff80000000000000007ffffffffffffffffffffffffff7507fffffffffffffff80000000000000000000000000067ffffffffffffffff8416936123c067ffffffffffffffff85606b1c1686614cfe565b606b1b169116177f50bc60b877273d55cac3903fd4818902e5fd7aa256278ee2dc6b212f256c0b0055610ea8614d56565b346102e35760406003193601126102e35760043561240e8161037b565b602435906387a211a2600c52335f526020600c208054808411610a485783900390555f526020600c20818154019055602052600c5160601c337fddf252ad1be2c89b69c2b068fc378daa952ba7f163c4a11628f55a4df523b3ef602080a360405160018152602090f35b346102e3577fba8506b6cb85330fea21cbca8490aafb6a69b166f06201ef755eb511b2709fc161ffff6124aa366120d5565b6124b333614462565b6124be828216615432565b6121d27f50bc60b877273d55cac3903fd4818902e5fd7aa256278ee2dc6b212f256c0b00549162ffff008160081b167fffffffffffffffffffffffffffffffffffffffffffffffffffffffffff0000ff8416177f50bc60b877273d55cac3903fd4818902e5fd7aa256278ee2dc6b212f256c0b005560405193849360081c168390929161ffff60209181604085019616845216910152565b346102e35760406003193601126102e357600435602435612576816107c6565b81612580336147f4565b805f527f50bc60b877273d55cac3903fd4818902e5fd7aa256278ee2dc6b212f256c0b0b6020526125f460ff60405f205460a01c1615604051906125c5604083610b92565b600382527f56423200000000000000000000000000000000000000000000000000000000006020830152613385565b5f527f50bc60b877273d55cac3903fd4818902e5fd7aa256278ee2dc6b212f256c0b0b60205261266060405f20740100000000000000000000000000000000000000007fffffffffffffffffffffff00ffffffffffffffffffffffffffffffffffffffff825416179055565b61268b575b7f94d067deddb78ebf8fb59c4ec96ab664ecbe2d61153c22e2648e4deb412534945f80a2005b50612694614857565b612665565b346102e35760206003193601126102e3576fffffffffffffffffffffffffffffffff6126ca600435611d7a33614462565b167fffffffffffffffffffffffffffffffff000000000000000000000000000000007f50bc60b877273d55cac3903fd4818902e5fd7aa256278ee2dc6b212f256c0b085416177f50bc60b877273d55cac3903fd4818902e5fd7aa256278ee2dc6b212f256c0b08555f80f35b346102e35760206003193601126102e3577fe6b665276caa675ab5f1b831ab88e1f49cad8e452dc3c45b3c998c4b6b52d4366020600435612776816107c6565b61277f33614462565b7f50bc60b877273d55cac3903fd4818902e5fd7aa256278ee2dc6b212f256c0b00547ffffffffffffffffffffffffffffffffffffffffffffffffffffffbffffffffff168115612806576603fc000000000060015b602a1b16177f50bc60b877273d55cac3903fd4818902e5fd7aa256278ee2dc6b212f256c0b00556040519015158152a1005b6603fc00000000005f6127d4565b60206003193601126102e35760043561282b61454b565b61283361457a565b612864815f527f50bc60b877273d55cac3903fd4818902e5fd7aa256278ee2dc6b212f256c0b0c60205260405f2090565b6128a5610f7483610f6f336001600160a01b03165f527f50bc60b877273d55cac3903fd4818902e5fd7aa256278ee2dc6b212f256c0b0e60205260405f2090565b6128bc610f24610f1883546001600160a01b031690565b6128d560048201610fad610f95825460ff9060401c1690565b600181019061292461147b6128fa84546fffffffffffffffffffffffffffffffff1690565b7f50bc60b877273d55cac3903fd4818902e5fd7aa256278ee2dc6b212f256c0b015460801c6140c9565b60038101549161296461102d61102961101f865f527f50bc60b877273d55cac3903fd4818902e5fd7aa256278ee2dc6b212f256c0b0b60205260405f2090565b61299e61107961102961106f865f527f50bc60b877273d55cac3903fd4818902e5fd7aa256278ee2dc6b212f256c0b0b60205260405f2090565b6129ac610f18610f18614de2565b6129b461521d565b906129e67f50bc60b877273d55cac3903fd4818902e5fd7aa256278ee2dc6b212f256c0b06546001600160a01b031690565b90612a0184546fffffffffffffffffffffffffffffffff1690565b91813b156102e3576040517fc60990920000000000000000000000000000000000000000000000000000000081523060048201526001600160a01b039485166024820152931660448401526fffffffffffffffffffffffffffffffff9190911660648301526084820194909452925f90849060a490829084905af19283156108ef57612adb93612b07575b50612ad5611150611139612ac77f50bc60b877273d55cac3903fd4818902e5fd7aa256278ee2dc6b212f256c0b07546001600160a01b031690565b94546001600160a01b031690565b9161473c565b7ff417a63305b80d2156b801152953314d804640d1804100b5929cb8f99a077f995f80a26102e1614796565b806111a65f612b1593610b92565b5f612a8c565b346102e35760e06003193601126102e357600435612b388161037b565b60243590612b458261037b565b606435604435612b53610c6d565b9260a435916001600160a01b0360c4359616958119156e22d473030f116ddee9f6b43ac78ba38818171561042057612b89613239565b6020815191012093854211612cdf5760c0966001600160a01b03604051951697889565383775081901600e52865f526020600c2098895480997f8b73c3c69bb8fe3d512ecc4cf759cc79239f7b179b0ffacaa9a75d522b39400f8452602084019081528d604085017fc89efdaa54c0f20c7adf612882df0950f5a951637e0307cdcb4c672f298b8bc68152606086019b468d52608087019330855260a08820602e527f6e71edae12b1b97f4d1f60370fef10105fa2faae0126114a169c64845d6126c988525252888a525260a082015220604e526042602c205f5260ff1660205260405260605260208060805f60015afa93853d5103612cd2577f8c5be1e5ebec7d5bd14f71427d1e84f3dd0314c0f7b2291e5b200ac8c7c3b9259460209401905585777f5e9f200000000000000000000000000000000000000000176040526034602c2055a3005b63ddafbaef5f526004601cfd5b631a15a3cc5f526004601cfd5b346102e35760406003193601126102e357602061093c600435612d0e8161037b565b60243590612d1b8261037b565b614372565b346102e35760206003193601126102e3576004355f602460206001600160a01b03612d49614c9b565b16604051928380927fa9c9a9180000000000000000000000000000000000000000000000000000000082527ff3bbf2dd6779e6fe2f6fb7cc20baa5140e39dd5b31ab45dfa7d512610b601f0d60048301525afa9081156108ef575f91612feb575b506001600160a01b03163314612fe3575b612dc790610873613543565b612e06612dfe61101f835f527f50bc60b877273d55cac3903fd4818902e5fd7aa256278ee2dc6b212f256c0b0b60205260405f2090565b6108736143af565b612e48612e4061102961106f845f527f50bc60b877273d55cac3903fd4818902e5fd7aa256278ee2dc6b212f256c0b0b60205260405f2090565b6108736143ea565b612ebc612e7c825f527f50bc60b877273d55cac3903fd4818902e5fd7aa256278ee2dc6b212f256c0b0b60205260405f2090565b75010000000000000000000000000000000000000000007fffffffffffffffffffff00ffffffffffffffffffffffffffffffffffffffffff825416179055565b612f3a612eca611d7a615479565b6003612efd845f527f50bc60b877273d55cac3903fd4818902e5fd7aa256278ee2dc6b212f256c0b0b60205260405f2090565b01906fffffffffffffffffffffffffffffffff167fffffffffffffffffffffffffffffffff00000000000000000000000000000000825416179055565b612fbd612f48611d7a6154b7565b6003612f7b845f527f50bc60b877273d55cac3903fd4818902e5fd7aa256278ee2dc6b212f256c0b0b60205260405f2090565b01906fffffffffffffffffffffffffffffffff7fffffffffffffffffffffffffffffffff0000000000000000000000000000000083549260801b169116179055565b7f9c389dadeacea6f1c7898215a4936003cf433e03f53e10e6b07375d0ced6b7795f80a2005b506001612dbb565b61300d915060203d602011613013575b6130058183610b92565b810190613f74565b5f612daa565b503d612ffb565b9181601f840112156102e35782359167ffffffffffffffff83116102e3576020808501948460051b0101116102e357565b346102e35760606003193601126102e35760043567ffffffffffffffff81116102e35761307c90369060040161301a565b906024359061308a8261037b565b604435613096816107c6565b5f5b8481106130a157005b806130be83866130b46001958a89614425565b35610b2181610944565b01613098565b60206003193601126102e3576004356130dc8161037b565b6130e46153d8565b63389a75e1600c52805f526020600c209081544211613108575f6102e192556153f4565b636f5e88185f526004601cfd5b60206003193601126102e35760043561312d8161037b565b6131356153d8565b8060601b15613147576102e1906153f4565b637448fbae5f526004601cfd5b346102e35760206003193601126102e35760043567ffffffffffffffff81116102e35761318590369060040161301a565b905f5b82811061319157005b806131ac6131a26001938686614425565b3561098e81610944565b01613188565b346102e35760206003193601126102e3576004356131cf8161037b565b63389a75e1600c525f52602080600c2054604051908152f35b90600182811c9216801561322f575b602083101461320257565b7f4e487b71000000000000000000000000000000000000000000000000000000005f52602260045260245ffd5b91607f16916131f7565b604051905f827f50bc60b877273d55cac3903fd4818902e5fd7aa256278ee2dc6b212f256c0b09549161326b836131e8565b808352926001811690811561330d575060011461328f575b610be792500383610b92565b507f50bc60b877273d55cac3903fd4818902e5fd7aa256278ee2dc6b212f256c0b095f90815290917feed39591673215402fba1c9ab9753946196fe3ddcce93d9e892ab8c49fea90c15b8183106132f1575050906020610be792820101613283565b60209193508060019154838589010152019101909184926132d9565b60209250610be79491507fffffffffffffffffffffffffffffffffffffffffffffffffffffffffffffff001682840152151560051b820101613283565b60405190613359604083610b92565b600382527f56433100000000000000000000000000000000000000000000000000000000006020830152565b1561338d5750565b6133ca906040519182917f08c379a000000000000000000000000000000000000000000000000000000000835260206004840181815201906102f1565b0390fd5b600311156133d857565b7f4e487b71000000000000000000000000000000000000000000000000000000005f52602160045260245ffd5b60405190613414604083610b92565b600382527f56433500000000000000000000000000000000000000000000000000000000006020830152565b6040519061344f604083610b92565b600382527f56433400000000000000000000000000000000000000000000000000000000006020830152565b6040519061348a604083610b92565b600382527f53563500000000000000000000000000000000000000000000000000000000006020830152565b7f4e487b71000000000000000000000000000000000000000000000000000000005f52601160045260245ffd5b818102929181159184041417156134f657565b6134b6565b60ff16604d81116134f657600a0a90565b8115613516570490565b7f4e487b71000000000000000000000000000000000000000000000000000000005f52601260045260245ffd5b60405190613552604083610b92565b600382527f53563900000000000000000000000000000000000000000000000000000000006020830152565b7fffffffff00000000000000000000000000000000000000000000000000000000906135a86153d8565b165f527ffeaf205b5229ea10e902c7b89e4768733c756362b2becb0bfd65a97f71b02d0060205260405f207fffffffffffffffffffffffff00000000000000000000000000000000000000008154169055565b916136046153d8565b1561368d575b7fffffffff00000000000000000000000000000000000000000000000000000000610be792165f527ffeaf205b5229ea10e902c7b89e4768733c756362b2becb0bfd65a97f71b02d0060205260405f20906001600160a01b03167fffffffffffffffffffffffff0000000000000000000000000000000000000000825416179055565b7fffffffff0000000000000000000000000000000000000000000000000000000082165f527ffeaf205b5229ea10e902c7b89e4768733c756362b2becb0bfd65a97f71b02d006020526001600160a01b0360405f2054161561360a575f80fd5b959091957fffffffffffffffffffffffffffffffffffffffffffffffffffffffffbf6011329687548060038a55613b8f575b509061374a61374f92613744613733613bbe565b6001600160a01b0387161515613385565b85614978565b614c28565b61375883613c48565b61376184613de4565b6137d28560ff7fffffffffffffffffffffffffffffffffffffffffffffffffffffffffffffff007f50bc60b877273d55cac3903fd4818902e5fd7aa256278ee2dc6b212f256c0b0054169116177f50bc60b877273d55cac3903fd4818902e5fd7aa256278ee2dc6b212f256c0b0055565b613848816001600160a01b03167fffffffffffffffffffffffff00000000000000000000000000000000000000007f50bc60b877273d55cac3903fd4818902e5fd7aa256278ee2dc6b212f256c0b065416177f50bc60b877273d55cac3903fd4818902e5fd7aa256278ee2dc6b212f256c0b0655565b6138d2613857611d7a876134fb565b6fffffffffffffffffffffffffffffffff167fffffffffffffffffffffffffffffffff000000000000000000000000000000007f50bc60b877273d55cac3903fd4818902e5fd7aa256278ee2dc6b212f256c0b015416177f50bc60b877273d55cac3903fd4818902e5fd7aa256278ee2dc6b212f256c0b0155565b6138dd610f18614c9b565b6040517fa3863a950000000000000000000000000000000000000000000000000000000081526001600160a01b038316600482015290602090829060249082905afa80156108ef576139a3915f91613b70575b506001600160a01b03167fffffffffffffffffffffffff00000000000000000000000000000000000000007f50bc60b877273d55cac3903fd4818902e5fd7aa256278ee2dc6b212f256c0b075416177f50bc60b877273d55cac3903fd4818902e5fd7aa256278ee2dc6b212f256c0b0755565b6139ae610f18614c9b565b602060405180927fa9c9a9180000000000000000000000000000000000000000000000000000000082528180613a0b60048201907f06d15878a0883034bd095c66a4b2987dfae5eb662cf9ef4aaa5ce27b533782bc602083019252565b03915afa9081156108ef575f91613b51575b50604051906108e18083019183831067ffffffffffffffff841117610bd3578392613a5a926155f785396001600160a01b03909116815260200190565b03905ff09081156108ef5786957f8cf0f1e3aaf200c2295fd68d5121840e9b1d08b99cc0d3508519cef3db81884595613b0b6001600160a01b03613b1795166001600160a01b03167fffffffffffffffffffffffff00000000000000000000000000000000000000007f50bc60b877273d55cac3903fd4818902e5fd7aa256278ee2dc6b212f256c0b055416177f50bc60b877273d55cac3903fd4818902e5fd7aa256278ee2dc6b212f256c0b0555565b60405195869586613f94565b0390a1613b215750565b6002905560016020527fc7f505b2f371ae2175ee4913f4499e1f2633a7b5936321eed1cdaeb6115181d2602080a1565b613b6a915060203d602011613013576130058183610b92565b5f613a1d565b613b89915060203d602011613013576130058183610b92565b5f613930565b600181819a94939a1c14303b1015613bb15760ff1b9190911b9661374a61371f565b63f92ee8a95f526004601cfd5b60405190613bcd604083610b92565b600482527f53563130000000000000000000000000000000000000000000000000000000006020830152565b601f8211613c0657505050565b5f5260205f20906020601f840160051c83019310613c3e575b601f0160051c01905b818110613c33575050565b5f8155600101613c28565b9091508190613c1f565b90815167ffffffffffffffff8111610bd357613cae81613c887f50bc60b877273d55cac3903fd4818902e5fd7aa256278ee2dc6b212f256c0b09546131e8565b7f50bc60b877273d55cac3903fd4818902e5fd7aa256278ee2dc6b212f256c0b09613bf9565b602092601f8211600114613d0c57613cdd929382915f92613d01575b50505f198260011b9260031b1c19161790565b7f50bc60b877273d55cac3903fd4818902e5fd7aa256278ee2dc6b212f256c0b0955565b015190505f80613cca565b7f50bc60b877273d55cac3903fd4818902e5fd7aa256278ee2dc6b212f256c0b095f527fffffffffffffffffffffffffffffffffffffffffffffffffffffffffffffffe08216937feed39591673215402fba1c9ab9753946196fe3ddcce93d9e892ab8c49fea90c1915f5b868110613dcc5750836001959610613db4575b505050811b017f50bc60b877273d55cac3903fd4818902e5fd7aa256278ee2dc6b212f256c0b0955565b01515f1960f88460031b161c191690555f8080613d8a565b91926020600181928685015181550194019201613d77565b90815167ffffffffffffffff8111610bd357613e4a81613e247f50bc60b877273d55cac3903fd4818902e5fd7aa256278ee2dc6b212f256c0b0a546131e8565b7f50bc60b877273d55cac3903fd4818902e5fd7aa256278ee2dc6b212f256c0b0a613bf9565b602092601f8211600114613e9c57613e78929382915f92613d015750505f198260011b9260031b1c19161790565b7f50bc60b877273d55cac3903fd4818902e5fd7aa256278ee2dc6b212f256c0b0a55565b7f50bc60b877273d55cac3903fd4818902e5fd7aa256278ee2dc6b212f256c0b0a5f527fffffffffffffffffffffffffffffffffffffffffffffffffffffffffffffffe08216937f3177a8165b5b3e3c62fb2630441ecd4511c2f82be57a6b1983a2e5a11e1148b9915f5b868110613f5c5750836001959610613f44575b505050811b017f50bc60b877273d55cac3903fd4818902e5fd7aa256278ee2dc6b212f256c0b0a55565b01515f1960f88460031b161c191690555f8080613f1a565b91926020600181928685015181550194019201613f07565b908160209103126102e357516103458161037b565b6040513d5f823e3d90fd5b93959490613fd0608094613fc26001600160a01b03958660ff9516895260a060208a015260a08901906102f1565b9087820360408901526102f1565b9616606085015216910152565b60405190613fec604083610b92565b600382527f53563600000000000000000000000000000000000000000000000000000000006020830152565b60405190614027604083610b92565b600382527f53563400000000000000000000000000000000000000000000000000000000006020830152565b60405190614062604083610b92565b600382527f53563700000000000000000000000000000000000000000000000000000000006020830152565b6040519061409d604083610b92565b600382527f53563800000000000000000000000000000000000000000000000000000000006020830152565b906fffffffffffffffffffffffffffffffff809116911603906fffffffffffffffffffffffffffffffff82116134f657565b908160209103126102e3575190565b60405190614119604083610b92565b600382527f53563100000000000000000000000000000000000000000000000000000000006020830152565b906fffffffffffffffffffffffffffffffff809116911601906fffffffffffffffffffffffffffffffff82116134f657565b60405190614186604083610b92565b600482527f53563132000000000000000000000000000000000000000000000000000000006020830152565b919082018092116134f657565b604051906141ce604083610b92565b600482527f53563133000000000000000000000000000000000000000000000000000000006020830152565b600460a0916142416001600160a01b0385511682906001600160a01b03167fffffffffffffffffffffffff0000000000000000000000000000000000000000825416179055565b61429b6fffffffffffffffffffffffffffffffff60208601511660018301906fffffffffffffffffffffffffffffffff167fffffffffffffffffffffffffffffffff00000000000000000000000000000000825416179055565b6142e36001600160a01b0360408601511660028301906001600160a01b03167fffffffffffffffffffffffff0000000000000000000000000000000000000000825416179055565b60608401516003820155019167ffffffffffffffff6080820151167fffffffffffffffffffffffffffffffffffffffffffffffff00000000000000008454161783550151614330816133ce565b60038110156133d8577fffffffffffffffffffffffffffffffffffffffffffffff00ffffffffffffffff68ff000000000000000083549260401b169116179055565b906e22d473030f116ddee9f6b43ac78ba36001600160a01b038216146143a857602052637f5e9f20600c525f526034600c205490565b50505f1990565b604051906143be604083610b92565b600382527f56423100000000000000000000000000000000000000000000000000000000006020830152565b604051906143f9604083610b92565b600382527f56423300000000000000000000000000000000000000000000000000000000006020830152565b91908110156144355760051b0190565b7f4e487b71000000000000000000000000000000000000000000000000000000005f52603260045260245ffd5b60206001600160a01b03602481614477614c9b565b169360405194859384927f24d7806c0000000000000000000000000000000000000000000000000000000084521660048301525afa80156108ef57610be7915f916144c55750610873613543565b6108e2915060203d6020116108e8576108da8183610b92565b906387a211a2600c52815f526020600c2091825491828111610a48575f93816001600160a01b0394039055806805345cdf77eb68f44c54036805345cdf77eb68f44c558352167fddf252ad1be2c89b69c2b068fc378daa952ba7f163c4a11628f55a4df523b3ef602083a3565b688000000000ab143c065c6145685730688000000000ab143c065d565b688000000000ab143c065f526004601cfd5b610be760017f50bc60b877273d55cac3903fd4818902e5fd7aa256278ee2dc6b212f256c0b005460291c1615604051906145b5604083610b92565b600382527f53563200000000000000000000000000000000000000000000000000000000006020830152613385565b91906145fc5f936318fb58646004525f5260245f2090565b9068fbb67fda52d4bfb8bf81146146eb5780156146db575b811980549182159260011c5f19810191600183811b179461468257856020525f5260405f20948554928315614679575f9798505f1984010361465b575b5050505555600190565b5f1980849383010154928392010155855260408520555f8080614651565b50505050505050565b94965050505050600192818154146146c557838101828154146146b65750600201908154146146b157505f9150565b5f9055565b905f9250600201908154905555565b5f91506002848201918254815501908154905555565b5068fbb67fda52d4bfb8bf614614565b63f5a267f15f526004601cfd5b610be7906040519061470b604083610b92565b600482527f535631310000000000000000000000000000000000000000000000000000000060208301521515613385565b91906014526034526fa9059cbb0000000000000000000000005f5260205f6044601082855af1908160015f51141615614778575b50505f603452565b3b153d171015614789575f80614770565b6390b8ec185f526004601cfd5b5f688000000000ab143c065d565b908160209103126102e35751610345816107c6565b604051906147c8604083610b92565b600382527f42563500000000000000000000000000000000000000000000000000000000006020830152565b60206001600160a01b03602481614809614c9b565b169360405194859384927f541d55480000000000000000000000000000000000000000000000000000000084521660048301525afa80156108ef57610be7915f916144c55750610873613543565b7f50bc60b877273d55cac3903fd4818902e5fd7aa256278ee2dc6b212f256c0b028054600101908190557f50bc60b877273d55cac3903fd4818902e5fd7aa256278ee2dc6b212f256c0b065460408051308152602081019390935246908301524260608301526001600160a01b0316608082015260a09020807f50bc60b877273d55cac3903fd4818902e5fd7aa256278ee2dc6b212f256c0b0355614923815f527f50bc60b877273d55cac3903fd4818902e5fd7aa256278ee2dc6b212f256c0b0b60205260405f2090565b6001810182905580547fffffffffffffffffffff00000000000000000000000000000000000000000000169055807f97ccb93efafaa40e35ba26ce377c44cf0ecd02b31712919a3c44e15839bcb1885f80a290565b906001600160a01b03614aa1926149ef60017f50bc60b877273d55cac3903fd4818902e5fd7aa256278ee2dc6b212f256c0b005460281c1615604051906149c0604083610b92565b600382527f42563100000000000000000000000000000000000000000000000000000000006020830152613385565b614a34604051614a00604082610b92565b600381527f425633000000000000000000000000000000000000000000000000000000000060208201528383161515613385565b167fffffffffffffffffffffffff00000000000000000000000000000000000000007f50bc60b877273d55cac3903fd4818902e5fd7aa256278ee2dc6b212f256c0b045416177f50bc60b877273d55cac3903fd4818902e5fd7aa256278ee2dc6b212f256c0b045561556a565b614b14650100000000007ffffffffffffffffffffffffffffffffffffffffffffffffffffffeffffffffff7f50bc60b877273d55cac3903fd4818902e5fd7aa256278ee2dc6b212f256c0b005416177f50bc60b877273d55cac3903fd4818902e5fd7aa256278ee2dc6b212f256c0b0055565b610be767ffffffffffffffff4216614ba3816d07fffffffffffffff800000000007ffffffffffffffffffffffffffffffffffffff80000000000000007ffffffffff7f50bc60b877273d55cac3903fd4818902e5fd7aa256278ee2dc6b212f256c0b00541691602b1b16177f50bc60b877273d55cac3903fd4818902e5fd7aa256278ee2dc6b212f256c0b0055565b7507fffffffffffffff8000000000000000000000000007ffffffffffffffffffffff80000000000000007ffffffffffffffffffffffffff7f50bc60b877273d55cac3903fd4818902e5fd7aa256278ee2dc6b212f256c0b00541691606b1b16177f50bc60b877273d55cac3903fd4818902e5fd7aa256278ee2dc6b212f256c0b0055565b6001600160a01b031680638b78c6d819555f7f8be0079c531659141344cd1fd0a4f28419497f9722a3daafe3b4186f6b6457e08180a3565b700100000000000000000000000000000000811015614c8e576fffffffffffffffffffffffffffffffff1690565b6335278d125f526004601cfd5b614cd060017f50bc60b877273d55cac3903fd4818902e5fd7aa256278ee2dc6b212f256c0b005460281c1615156108736147b9565b6001600160a01b037f50bc60b877273d55cac3903fd4818902e5fd7aa256278ee2dc6b212f256c0b04541690565b610be7918110159081614d4b575b5060405190614d1c604083610b92565b600382527f56463200000000000000000000000000000000000000000000000000000000006020830152613385565b90504210155f614d0c565b614d5e6154b7565b6fffffffffffffffffffffffffffffffff7f50bc60b877273d55cac3903fd4818902e5fd7aa256278ee2dc6b212f256c0b0154168111614d9b5750565b613857610be791614c60565b60405190614db6604083610b92565b600382527f42563200000000000000000000000000000000000000000000000000000000006020830152565b60249060206001600160a01b03614df7614c9b565b16604051938480927fa9c9a9180000000000000000000000000000000000000000000000000000000082527ff3bbf2dd6779e6fe2f6fb7cc20baa5140e39dd5b31ab45dfa7d512610b601f0d60048301525afa9182156108ef575f92614e76575b50610be7826001600160a01b03614e6d614da7565b91161515613385565b614e9091925060203d602011613013576130058183610b92565b905f614e58565b91906387a211a28360601b17600c526020600c208054808411610a485783900390555f526020600c208181540190556020526001600160a01b03600c5160601c91167fddf252ad1be2c89b69c2b068fc378daa952ba7f163c4a11628f55a4df523b3ef602080a3565b6805345cdf77eb68f44c54828101908110614f66576805345cdf77eb68f44c556387a211a2600c525f526020600c20818154019055602052600c5160601c5f7fddf252ad1be2c89b69c2b068fc378daa952ba7f163c4a11628f55a4df523b3ef602080a3565b63e5cfe9575f526004601cfd5b602080602460106001600160a01b037f50bc60b877273d55cac3903fd4818902e5fd7aa256278ee2dc6b212f256c0b075416306014526f70a082310000000000000000000000005f525afa601f3d1116602051027f50bc60b877273d55cac3903fd4818902e5fd7aa256278ee2dc6b212f256c0b015460801c81039081116134f65790565b9091610345926001600160a01b0360017f50bc60b877273d55cac3903fd4818902e5fd7aa256278ee2dc6b212f256c0b02540193847f50bc60b877273d55cac3903fd4818902e5fd7aa256278ee2dc6b212f256c0b0255163092909160a0949260405194855260208501526040840152606083015260808201522090565b68010000000000000000811015614c8e5767ffffffffffffffff1690565b91906150ac5f936318fb58646004525f5260245f2090565b9068fbb67fda52d4bfb8bf81146146eb5780156151a6575b81199182549181602052821561510c575b805f5260405f20928354156150eb575050505050565b9091929394955060011c8092015560010180915560011b6001179055600190565b91508054801561519d578281146151975760018201805490811561518957508381146151825760028301918254928315615173575084831461516b575f52600160405f20555f52600260405f20555f52600360405f20556007916150d5565b505050505050565b95505050505091925055600190565b5050505050565b945050505091925055600190565b50505050565b50555060019150565b5068fbb67fda52d4bfb8bf6150c4565b916040519360605260405260601b602c526f23b872dd000000000000000000000000600c5260205f6064601c82855af1908160015f511416156151ff575b50505f606052604052565b3b153d171015615210575f806151f4565b637939f4245f526004601cfd5b60249060206001600160a01b03615232614c9b565b16604051938480927fa9c9a9180000000000000000000000000000000000000000000000000000000082527f06d15878a0883034bd095c66a4b2987dfae5eb662cf9ef4aaa5ce27b533782bc60048301525afa9182156108ef575f92614e765750610be7826001600160a01b03614e6d614da7565b6152af614f73565b6040517fcf0597ed000000000000000000000000000000000000000000000000000000008152606081600481305afa9081156108ef575f916152f9575b5081039081116134f65790565b90506060813d606011615326575b8161531460609383610b92565b810103126102e357604001515f6152ec565b3d9150615307565b6805345cdf77eb68f44c549081156153d25782810292828215828487041417021561535a575050900490565b805f198492840985811086019003920990825f03831692818111156153c55783900480600302600218808202600203028082026002030280820260020302808202600203028082026002030280910260020302936001848483030494805f0304019211900302170290565b63ae47f7025f526004601cfd5b91505090565b638b78c6d8195433036153e757565b6382b429005f526004601cfd5b6001600160a01b031680638b78c6d819547f8be0079c531659141344cd1fd0a4f28419497f9722a3daafe3b4186f6b6457e05f80a3638b78c6d81955565b610be79061271060405191615448604084610b92565b600383527f564631000000000000000000000000000000000000000000000000000000000060208401521115613385565b6103456154a960ff7f50bc60b877273d55cac3903fd4818902e5fd7aa256278ee2dc6b212f256c0b0054166134fb565b6154b1614f73565b9061532e565b6103456154e760ff7f50bc60b877273d55cac3903fd4818902e5fd7aa256278ee2dc6b212f256c0b0054166134fb565b6154b16152a7565b7fffffffff000000000000000000000000000000000000000000000000000000005f35165f527ffeaf205b5229ea10e902c7b89e4768733c756362b2becb0bfd65a97f71b02d006020526001600160a01b0360405f20541680156102e3575f8091368280378136915af43d5f803e15615566573d5ff35b3d5ffd5b7f50bc60b877273d55cac3903fd4818902e5fd7aa256278ee2dc6b212f256c0b00547ffffffffffffffffffffffffffffffffffffffffffffffffffffffdffffffffff1690156155e8576601fe000000000060015b60291b16177f50bc60b877273d55cac3903fd4818902e5fd7aa256278ee2dc6b212f256c0b0055565b6601fe00000000005f6155bf56fe60a06040523461010157604051601f6108e138819003918201601f19168301916001600160401b038311848410176100ed5780849260209460405283398101031261010157516001600160a01b03811680820361010157604080519081016001600160401b038111828210176100ed5760405260028152602081019161211b60f11b8352156100b257826080526040516107db908161010682396080518181816101a701528181610530015261068b0152f35b60449060405192839162461bcd60e51b8352602060048401525180918160248501528484015e5f828201840152601f01601f19168101030190fd5b634e487b7160e01b5f52604160045260245ffd5b5f80fdfe6080806040526004361015610012575f80fd5b5f3560e01c9081631948f57f146105065750806325db13f1146102ff57806338d52e0f146102cd5780634972134a146102b05780635cd76354146101cb5780636910e3341461008f57639ed3c90c14610069575f80fd5b3461008b575f60031936011261008b57602060ff600254166040519015158152f35b5f80fd5b3461008b57604060031936011261008b5760043560243573ffffffffffffffffffffffffffffffffffffffff81169081810361008b577fffffffffffffffffffffffffffffffffffffffffffffffffffffffffffffff00600191610136600254916101316100fd6040610577565b600281527f4231000000000000000000000000000000000000000000000000000000000000602082015260ff8516156105bb565b61074f565b161760025581600155807fffffffffffffffffffffffff00000000000000000000000000000000000000005f5416175f556040519081527fab051ac83a2f3eb0d4acef0b16e45e830f6d966295150e6c9f1784f07be302cc602073ffffffffffffffffffffffffffffffffffffffff7f00000000000000000000000000000000000000000000000000000000000000001692a3005b3461008b57606060031936011261008b576101e4610554565b6024356101f03361063a565b610234600154604435146102046040610577565b90600282527f423200000000000000000000000000000000000000000000000000000000000060208301526105bb565b61023d816106b5565b6102468261074f565b610268818373ffffffffffffffffffffffffffffffffffffffff5f54166106f5565b7fb7acbf17ad94b6f877e46c72718225d94e660fd48f2e46f65942f2f4cce22027602073ffffffffffffffffffffffffffffffffffffffff805f5416946040519485521692a3005b3461008b575f60031936011261008b576020600154604051908152f35b3461008b575f60031936011261008b57602073ffffffffffffffffffffffffffffffffffffffff5f5416604051908152f35b602060031936011261008b57610313610554565b61031c3361063a565b73ffffffffffffffffffffffffffffffffffffffff81168061044157505047610344816106b5565b5f80808084335af13d15610438573d9067ffffffffffffffff821161040b578161039860207fffffffffffffffffffffffffffffffffffffffffffffffffffffffffffffffe0601f6103dd96011601610577565b9081525f60203d92013e5b6103ad6040610577565b90600282527f423400000000000000000000000000000000000000000000000000000000000060208301526105bb565b6040519081527f63b8c8e180bc85c19daef23e2bb787fb49672d3a9ecde24409c18ccb1accb5d160203392a2005b7f4e487b71000000000000000000000000000000000000000000000000000000005f52604160045260245ffd5b6103dd906103a3565b61049973ffffffffffffffffffffffffffffffffffffffff5f54168214156104696040610577565b90600282527f423500000000000000000000000000000000000000000000000000000000000060208301526105bb565b306014526f70a082310000000000000000000000005f526104d860208060246010865afa601f3d11166020510280936104d1826106b5565b33906106f5565b6040519182527f552c8f8dc30f2786e14004d98595afcc1c0ea1f552b86e86f64a2da74761eaab60203393a3005b3461008b575f60031936011261008b5760209073ffffffffffffffffffffffffffffffffffffffff7f0000000000000000000000000000000000000000000000000000000000000000168152f35b6004359073ffffffffffffffffffffffffffffffffffffffff8216820361008b57565b907fffffffffffffffffffffffffffffffffffffffffffffffffffffffffffffffe0601f604051930116820182811067ffffffffffffffff82111761040b57604052565b156105c35750565b60446020917fffffffffffffffffffffffffffffffffffffffffffffffffffffffffffffffe0601f6040519485937f08c379a00000000000000000000000000000000000000000000000000000000085528160048601528051918291826024880152018686015e5f85828601015201168101030190fd5b6106b3906106486040610577565b90600282527f4233000000000000000000000000000000000000000000000000000000000000602083015273ffffffffffffffffffffffffffffffffffffffff807f0000000000000000000000000000000000000000000000000000000000000000169116146105bb565b565b6106b3906106c36040610577565b90600282527f4237000000000000000000000000000000000000000000000000000000000000602083015215156105bb565b91906014526034526fa9059cbb0000000000000000000000005f5260205f6044601082855af1908160015f51141615610731575b50505f603452565b3b153d171015610742575f80610729565b6390b8ec185f526004601cfd5b6106b39073ffffffffffffffffffffffffffffffffffffffff6107726040610577565b91600283527f423600000000000000000000000000000000000000000000000000000000000060208401521615156105bb56fea26469706673582212209c86723cef2d2d0769672090287e2d44f7ddeedc7b5fb9c25b07a5ef3fef0bb864736f6c634300081e0033a26469706673582212208e213c4ba73eb428fd60bf868e5aa99f45373738cb6d8a62d5d041315160b8eb64736f6c634300081e0033","linkReferences":{}},"methodIdentifiers":{"DOMAIN_SEPARATOR()":"3644e515","addFunction(bytes4,address,bool)":"30b88eef","addFunctions(bytes4[],address,bool)":"eeda387f","allowance(address,address)":"dd62ed3e","approve(address,uint256)":"095ea7b3","balanceOf(address)":"70a08231","burnFees(uint256)":"0342a6ba","cancelOwnershipHandover()":"54d1f13d","cancelStakeRequest(bytes32)":"d3856009","cancelUnstakeRequest(bytes32)":"3c138a92","claimStakedShares(bytes32)":"4a1daaef","claimUnstakedAssets(bytes32)":"0f83d6d9","closeBatch(bytes32,bool)":"bb507ab9","completeOwnershipHandover(address)":"f04e283e","createNewBatch()":"1875e8f5","decimals()":"313ce567","initialize(address,address,bool,string,string,uint8,address)":"330fda50","name()":"06fdde03","nonces(address)":"7ecebe00","notifyManagementFeesCharged(uint64)":"39d14dce","notifyPerformanceFeesCharged(uint64)":"9c8af15f","owner()":"8da5cb5b","ownershipHandoverExpiresAt(address)":"fee81cf4","permit(address,address,uint256,uint256,uint8,bytes32,bytes32)":"d505accf","proxiableUUID()":"52d1902d","removeFunction(bytes4)":"1b6991c7","removeFunctions(bytes4[])":"f8ffd889","renounceOwnership()":"715018a6","requestOwnershipHandover()":"25692962","requestStake(address,uint256)":"58c2fd00","requestUnstake(address,uint256)":"710ba631","setHardHurdleRate(bool)":"c0b1b037","setManagementFee(uint16)":"8dd09af3","setMaxTotalAssets(uint256)":"bc2e47b7","setPaused(bool)":"16c38b3c","setPerformanceFee(uint16)":"aa290e6d","settleBatch(bytes32)":"eeb8f2b5","symbol()":"95d89b41","totalSupply()":"18160ddd","transfer(address,uint256)":"a9059cbb","transferFrom(address,address,uint256)":"23b872dd","transferOwnership(address)":"f2fde38b","upgradeToAndCall(address,bytes)":"4f1ef286"},"storageLayout":{"storage":[],"types":{}},"id":65}