{"abi":[{"type":"constructor","inputs":[],"stateMutability":"nonpayable"},{"type":"fallback","stateMutability":"payable"},{"type":"function","name":"DOMAIN_SEPARATOR","inputs":[],"outputs":[{"name":"result","type":"bytes32","internalType":"bytes32"}],"stateMutability":"view"},{"type":"function","name":"addFunction","inputs":[{"name":"selector","type":"bytes4","internalType":"bytes4"},{"name":"implementation","type":"address","internalType":"address"},{"name":"forceOverride","type":"bool","internalType":"bool"}],"outputs":[],"stateMutability":"nonpayable"},{"type":"function","name":"addFunctions","inputs":[{"name":"selectors","type":"bytes4[]","internalType":"bytes4[]"},{"name":"implementation","type":"address","internalType":"address"},{"name":"forceOverride","type":"bool","internalType":"bool"}],"outputs":[],"stateMutability":"nonpayable"},{"type":"function","name":"allowance","inputs":[{"name":"owner","type":"address","internalType":"address"},{"name":"spender","type":"address","internalType":"address"}],"outputs":[{"name":"result","type":"uint256","internalType":"uint256"}],"stateMutability":"view"},{"type":"function","name":"approve","inputs":[{"name":"spender","type":"address","internalType":"address"},{"name":"amount","type":"uint256","internalType":"uint256"}],"outputs":[{"name":"","type":"bool","internalType":"bool"}],"stateMutability":"nonpayable"},{"type":"function","name":"balanceOf","inputs":[{"name":"owner","type":"address","internalType":"address"}],"outputs":[{"name":"result","type":"uint256","internalType":"uint256"}],"stateMutability":"view"},{"type":"function","name":"burnFees","inputs":[{"name":"shares","type":"uint256","internalType":"uint256"}],"outputs":[],"stateMutability":"nonpayable"},{"type":"function","name":"cancelOwnershipHandover","inputs":[],"outputs":[],"stateMutability":"payable"},{"type":"function","name":"cancelStakeRequest","inputs":[{"name":"requestId","type":"bytes32","internalType":"bytes32"}],"outputs":[],"stateMutability":"payable"},{"type":"function","name":"cancelUnstakeRequest","inputs":[{"name":"requestId","type":"bytes32","internalType":"bytes32"}],"outputs":[],"stateMutability":"payable"},{"type":"function","name":"claimStakedShares","inputs":[{"name":"requestId","type":"bytes32","internalType":"bytes32"}],"outputs":[],"stateMutability":"payable"},{"type":"function","name":"claimUnstakedAssets","inputs":[{"name":"requestId","type":"bytes32","internalType":"bytes32"}],"outputs":[],"stateMutability":"payable"},{"type":"function","name":"closeBatch","inputs":[{"name":"_batchId","type":"bytes32","internalType":"bytes32"},{"name":"_create","type":"bool","internalType":"bool"}],"outputs":[],"stateMutability":"nonpayable"},{"type":"function","name":"completeOwnershipHandover","inputs":[{"name":"pendingOwner","type":"address","internalType":"address"}],"outputs":[],"stateMutability":"payable"},{"type":"function","name":"createNewBatch","inputs":[],"outputs":[{"name":"","type":"bytes32","internalType":"bytes32"}],"stateMutability":"nonpayable"},{"type":"function","name":"decimals","inputs":[],"outputs":[{"name":"","type":"uint8","internalType":"uint8"}],"stateMutability":"view"},{"type":"function","name":"initialize","inputs":[{"name":"owner_","type":"address","internalType":"address"},{"name":"registry_","type":"address","internalType":"address"},{"name":"paused_","type":"bool","internalType":"bool"},{"name":"name_","type":"string","internalType":"string"},{"name":"symbol_","type":"string","internalType":"string"},{"name":"decimals_","type":"uint8","internalType":"uint8"},{"name":"asset_","type":"address","internalType":"address"}],"outputs":[],"stateMutability":"nonpayable"},{"type":"function","name":"name","inputs":[],"outputs":[{"name":"","type":"string","internalType":"string"}],"stateMutability":"view"},{"type":"function","name":"nonces","inputs":[{"name":"owner","type":"address","internalType":"address"}],"outputs":[{"name":"result","type":"uint256","internalType":"uint256"}],"stateMutability":"view"},{"type":"function","name":"notifyManagementFeesCharged","inputs":[{"name":"_timestamp","type":"uint64","internalType":"uint64"}],"outputs":[],"stateMutability":"nonpayable"},{"type":"function","name":"notifyPerformanceFeesCharged","inputs":[{"name":"_timestamp","type":"uint64","internalType":"uint64"}],"outputs":[],"stateMutability":"nonpayable"},{"type":"function","name":"owner","inputs":[],"outputs":[{"name":"result","type":"address","internalType":"address"}],"stateMutability":"view"},{"type":"function","name":"ownershipHandoverExpiresAt","inputs":[{"name":"pendingOwner","type":"address","internalType":"address"}],"outputs":[{"name":"result","type":"uint256","internalType":"uint256"}],"stateMutability":"view"},{"type":"function","name":"permit","inputs":[{"name":"owner","type":"address","internalType":"address"},{"name":"spender","type":"address","internalType":"address"},{"name":"value","type":"uint256","internalType":"uint256"},{"name":"deadline","type":"uint256","internalType":"uint256"},{"name":"v","type":"uint8","internalType":"uint8"},{"name":"r","type":"bytes32","internalType":"bytes32"},{"name":"s","type":"bytes32","internalType":"bytes32"}],"outputs":[],"stateMutability":"nonpayable"},{"type":"function","name":"proxiableUUID","inputs":[],"outputs":[{"name":"","type":"bytes32","internalType":"bytes32"}],"stateMutability":"view"},{"type":"function","name":"removeFunction","inputs":[{"name":"selector","type":"bytes4","internalType":"bytes4"}],"outputs":[],"stateMutability":"nonpayable"},{"type":"function","name":"removeFunctions","inputs":[{"name":"selectors","type":"bytes4[]","internalType":"bytes4[]"}],"outputs":[],"stateMutability":"nonpayable"},{"type":"function","name":"renounceOwnership","inputs":[],"outputs":[],"stateMutability":"payable"},{"type":"function","name":"requestOwnershipHandover","inputs":[],"outputs":[],"stateMutability":"payable"},{"type":"function","name":"requestStake","inputs":[{"name":"to","type":"address","internalType":"address"},{"name":"amount","type":"uint256","internalType":"uint256"}],"outputs":[{"name":"requestId","type":"bytes32","internalType":"bytes32"}],"stateMutability":"payable"},{"type":"function","name":"requestUnstake","inputs":[{"name":"to","type":"address","internalType":"address"},{"name":"stkTokenAmount","type":"uint256","internalType":"uint256"}],"outputs":[{"name":"requestId","type":"bytes32","internalType":"bytes32"}],"stateMutability":"payable"},{"type":"function","name":"setHardHurdleRate","inputs":[{"name":"_isHard","type":"bool","internalType":"bool"}],"outputs":[],"stateMutability":"nonpayable"},{"type":"function","name":"setManagementFee","inputs":[{"name":"_managementFee","type":"uint16","internalType":"uint16"}],"outputs":[],"stateMutability":"nonpayable"},{"type":"function","name":"setMaxTotalAssets","inputs":[{"name":"maxTotalAssets_","type":"uint256","internalType":"uint256"}],"outputs":[],"stateMutability":"nonpayable"},{"type":"function","name":"setPaused","inputs":[{"name":"paused_","type":"bool","internalType":"bool"}],"outputs":[],"stateMutability":"nonpayable"},{"type":"function","name":"setPerformanceFee","inputs":[{"name":"_performanceFee","type":"uint16","internalType":"uint16"}],"outputs":[],"stateMutability":"nonpayable"},{"type":"function","name":"settleBatch","inputs":[{"name":"_batchId","type":"bytes32","internalType":"bytes32"}],"outputs":[],"stateMutability":"nonpayable"},{"type":"function","name":"symbol","inputs":[],"outputs":[{"name":"","type":"string","internalType":"string"}],"stateMutability":"view"},{"type":"function","name":"totalSupply","inputs":[],"outputs":[{"name":"result","type":"uint256","internalType":"uint256"}],"stateMutability":"view"},{"type":"function","name":"transfer","inputs":[{"name":"to","type":"address","internalType":"address"},{"name":"amount","type":"uint256","internalType":"uint256"}],"outputs":[{"name":"","type":"bool","internalType":"bool"}],"stateMutability":"nonpayable"},{"type":"function","name":"transferFrom","inputs":[{"name":"from","type":"address","internalType":"address"},{"name":"to","type":"address","internalType":"address"},{"name":"amount","type":"uint256","internalType":"uint256"}],"outputs":[{"name":"","type":"bool","internalType":"bool"}],"stateMutability":"nonpayable"},{"type":"function","name":"transferOwnership","inputs":[{"name":"newOwner","type":"address","internalType":"address"}],"outputs":[],"stateMutability":"payable"},{"type":"function","name":"upgradeToAndCall","inputs":[{"name":"newImplementation","type":"address","internalType":"address"},{"name":"data","type":"bytes","internalType":"bytes"}],"outputs":[],"stateMutability":"payable"},{"type":"event","name":"Approval","inputs":[{"name":"owner","type":"address","indexed":true,"internalType":"address"},{"name":"spender","type":"address","indexed":true,"internalType":"address"},{"name":"amount","type":"uint256","indexed":false,"internalType":"uint256"}],"anonymous":false},{"type":"event","name":"BatchClosed","inputs":[{"name":"batchId","type":"bytes32","indexed":true,"internalType":"bytes32"}],"anonymous":false},{"type":"event","name":"BatchCreated","inputs":[{"name":"batchId","type":"bytes32","indexed":true,"internalType":"bytes32"}],"anonymous":false},{"type":"event","name":"BatchReceiverCreated","inputs":[{"name":"receiver","type":"address","indexed":true,"internalType":"address"},{"name":"batchId","type":"bytes32","indexed":true,"internalType":"bytes32"}],"anonymous":false},{"type":"event","name":"BatchSettled","inputs":[{"name":"batchId","type":"bytes32","indexed":true,"internalType":"bytes32"}],"anonymous":false},{"type":"event","name":"FeesAssesed","inputs":[{"name":"managementFees","type":"uint256","indexed":false,"internalType":"uint256"},{"name":"performanceFees","type":"uint256","indexed":false,"internalType":"uint256"}],"anonymous":false},{"type":"event","name":"HardHurdleRateUpdated","inputs":[{"name":"newRate","type":"bool","indexed":false,"internalType":"bool"}],"anonymous":false},{"type":"event","name":"HurdleRateUpdated","inputs":[{"name":"newRate","type":"uint16","indexed":false,"internalType":"uint16"}],"anonymous":false},{"type":"event","name":"Initialized","inputs":[{"name":"registry","type":"address","indexed":false,"internalType":"address"},{"name":"name","type":"string","indexed":false,"internalType":"string"},{"name":"symbol","type":"string","indexed":false,"internalType":"string"},{"name":"decimals","type":"uint8","indexed":false,"internalType":"uint8"},{"name":"asset","type":"address","indexed":false,"internalType":"address"}],"anonymous":false},{"type":"event","name":"Initialized","inputs":[{"name":"version","type":"uint64","indexed":false,"internalType":"uint64"}],"anonymous":false},{"type":"event","name":"KTokenUnstaked","inputs":[{"name":"user","type":"address","indexed":true,"internalType":"address"},{"name":"shares","type":"uint256","indexed":false,"internalType":"uint256"},{"name":"kTokenAmount","type":"uint256","indexed":false,"internalType":"uint256"}],"anonymous":false},{"type":"event","name":"ManagementFeeUpdated","inputs":[{"name":"oldFee","type":"uint16","indexed":false,"internalType":"uint16"},{"name":"newFee","type":"uint16","indexed":false,"internalType":"uint16"}],"anonymous":false},{"type":"event","name":"ManagementFeesCharged","inputs":[{"name":"timestamp","type":"uint256","indexed":false,"internalType":"uint256"}],"anonymous":false},{"type":"event","name":"OwnershipHandoverCanceled","inputs":[{"name":"pendingOwner","type":"address","indexed":true,"internalType":"address"}],"anonymous":false},{"type":"event","name":"OwnershipHandoverRequested","inputs":[{"name":"pendingOwner","type":"address","indexed":true,"internalType":"address"}],"anonymous":false},{"type":"event","name":"OwnershipTransferred","inputs":[{"name":"oldOwner","type":"address","indexed":true,"internalType":"address"},{"name":"newOwner","type":"address","indexed":true,"internalType":"address"}],"anonymous":false},{"type":"event","name":"Paused","inputs":[{"name":"paused","type":"bool","indexed":false,"internalType":"bool"}],"anonymous":false},{"type":"event","name":"PerformanceFeeUpdated","inputs":[{"name":"oldFee","type":"uint16","indexed":false,"internalType":"uint16"},{"name":"newFee","type":"uint16","indexed":false,"internalType":"uint16"}],"anonymous":false},{"type":"event","name":"PerformanceFeesCharged","inputs":[{"name":"timestamp","type":"uint256","indexed":false,"internalType":"uint256"}],"anonymous":false},{"type":"event","name":"StakeRequestCancelled","inputs":[{"name":"requestId","type":"bytes32","indexed":true,"internalType":"bytes32"}],"anonymous":false},{"type":"event","name":"StakeRequestCreated","inputs":[{"name":"requestId","type":"bytes32","indexed":true,"internalType":"bytes32"},{"name":"user","type":"address","indexed":true,"internalType":"address"},{"name":"kToken","type":"address","indexed":true,"internalType":"address"},{"name":"amount","type":"uint256","indexed":false,"internalType":"uint256"},{"name":"recipient","type":"address","indexed":false,"internalType":"address"},{"name":"batchId","type":"bytes32","indexed":false,"internalType":"bytes32"}],"anonymous":false},{"type":"event","name":"StakeRequestRedeemed","inputs":[{"name":"requestId","type":"bytes32","indexed":true,"internalType":"bytes32"}],"anonymous":false},{"type":"event","name":"StakingSharesClaimed","inputs":[{"name":"batchId","type":"bytes32","indexed":true,"internalType":"bytes32"},{"name":"requestId","type":"bytes32","indexed":false,"internalType":"bytes32"},{"name":"user","type":"address","indexed":true,"internalType":"address"},{"name":"shares","type":"uint256","indexed":false,"internalType":"uint256"}],"anonymous":false},{"type":"event","name":"Transfer","inputs":[{"name":"from","type":"address","indexed":true,"internalType":"address"},{"name":"to","type":"address","indexed":true,"internalType":"address"},{"name":"amount","type":"uint256","indexed":false,"internalType":"uint256"}],"anonymous":false},{"type":"event","name":"UnstakeRequestCancelled","inputs":[{"name":"requestId","type":"bytes32","indexed":true,"internalType":"bytes32"}],"anonymous":false},{"type":"event","name":"UnstakeRequestCreated","inputs":[{"name":"requestId","type":"bytes32","indexed":true,"internalType":"bytes32"},{"name":"user","type":"address","indexed":true,"internalType":"address"},{"name":"amount","type":"uint256","indexed":false,"internalType":"uint256"},{"name":"recipient","type":"address","indexed":false,"internalType":"address"},{"name":"batchId","type":"bytes32","indexed":false,"internalType":"bytes32"}],"anonymous":false},{"type":"event","name":"UnstakingAssetsClaimed","inputs":[{"name":"batchId","type":"bytes32","indexed":true,"internalType":"bytes32"},{"name":"requestId","type":"bytes32","indexed":false,"internalType":"bytes32"},{"name":"user","type":"address","indexed":true,"internalType":"address"},{"name":"assets","type":"uint256","indexed":false,"internalType":"uint256"}],"anonymous":false},{"type":"event","name":"Upgraded","inputs":[{"name":"implementation","type":"address","indexed":true,"internalType":"address"}],"anonymous":false},{"type":"error","name":"AllowanceOverflow","inputs":[]},{"type":"error","name":"AllowanceUnderflow","inputs":[]},{"type":"error","name":"AlreadyInitialized","inputs":[]},{"type":"error","name":"InsufficientAllowance","inputs":[]},{"type":"error","name":"InsufficientBalance","inputs":[]},{"type":"error","name":"InvalidInitialization","inputs":[]},{"type":"error","name":"InvalidPermit","inputs":[]},{"type":"error","name":"NewOwnerIsZeroAddress","inputs":[]},{"type":"error","name":"NoHandoverRequest","inputs":[]},{"type":"error","name":"NotInitializing","inputs":[]},{"type":"error","name":"Permit2AllowanceIsFixedAtInfinity","inputs":[]},{"type":"error","name":"PermitExpired","inputs":[]},{"type":"error","name":"Reentrancy","inputs":[]},{"type":"error","name":"TotalSupplyOverflow","inputs":[]},{"type":"error","name":"Unauthorized","inputs":[]},{"type":"error","name":"UnauthorizedCallContext","inputs":[]},{"type":"error","name":"UpgradeFailed","inputs":[]}],"bytecode":{"object":"0x60a080604052346099573060805263409feecd195460018116608c5760011c6002600160401b0319016048575b615ee1908161009e823960805181818161156b01526116900152f35b6002600160411b0363409feecd19556001600160401b0360209081527fc7f505b2f371ae2175ee4913f4499e1f2633a7b5936321eed1cdaeb6115181d29080a1602c565b63f92ee8a95f526004601cfd5b5f80fdfe6080604052600436106154c3575f3560e01c80630342a6ba146102bb57806306fdde03146102b6578063095ea7b3146102b15780630f83d6d9146102ac57806316c38b3c146102a757806318160ddd146102a25780631875e8f51461029d5780631b6991c71461029857806323b872dd14610293578063256929621461028e57806330b88eef14610289578063313ce56714610284578063330fda501461027f5780633644e5151461027a57806339d14dce146102755780633c138a92146102705780634a1daaef1461026b5780634f1ef2861461026657806352d1902d1461026157806354d1f13d1461025c57806358c2fd001461025757806370a0823114610252578063710ba6311461024d578063715018a6146102485780637ecebe00146102435780638da5cb5b1461023e5780638dd09af31461023957806395d89b41146102345780639c8af15f1461022f578063a9059cbb1461022a578063aa290e6d14610225578063bb507ab914610220578063bc2e47b71461021b578063c0b1b03714610216578063d385600914610211578063d505accf1461020c578063dd62ed3e14610207578063eeb8f2b514610202578063eeda387f146101fd578063f04e283e146101f8578063f2fde38b146101f3578063f8ffd889146101ee5763fee81cf4036154c357613186565b613128565b6130e9565b613098565b61301f565b612cf4565b612cc0565b612aef565b612812565b612734565b612697565b612554565b612476565b6123ef565b612307565b6121d5565b6120f0565b6120a9565b612073565b61202a565b611ce8565b611cb3565b611722565b6116de565b61167d565b611512565b6111af565b610eb1565b610dc8565b610d15565b610c7d565b610b26565b610ae8565b610a9f565b610993565b61096e565b610919565b6108f4565b6107d0565b61042d565b61038c565b610348565b346102e35760206003193601126102e3576102e16004356102db33614436565b306144b2565b005b5f80fd5b5f9103126102e357565b907fffffffffffffffffffffffffffffffffffffffffffffffffffffffffffffffe0601f602080948051918291828752018686015e5f8582860101520116010190565b9060206103459281815201906102f1565b90565b346102e3575f6003193601126102e35761037761036361320d565b6040519182916020835260208301906102f1565b0390f35b6001600160a01b038116036102e357565b346102e35760406003193601126102e3576004356103a98161037b565b602435908119156e22d473030f116ddee9f6b43ac78ba36001600160a01b03831618171561042057602052637f5e9f20600c52335f52806034600c20555f52602c5160601c337f8c5be1e5ebec7d5bd14f71427d1e84f3dd0314c0f7b2291e5b200ac8c7c3b92560205fa360405160018152602090f35b633f68539a5f526004601cfd5b60206003193601126102e35760043561044461451f565b61044c61454e565b61047d815f527f50bc60b877273d55cac3903fd4818902e5fd7aa256278ee2dc6b212f256c0b0d60205260405f2090565b60030154906104b3825f527f50bc60b877273d55cac3903fd4818902e5fd7aa256278ee2dc6b212f256c0b0b60205260405f2090565b5460a81c60ff166104c261331e565b6104cb91613359565b6104fc815f527f50bc60b877273d55cac3903fd4818902e5fd7aa256278ee2dc6b212f256c0b0d60205260405f2090565b60048101805460401c60ff16610511816133a2565b6105196133d9565b6105239115613359565b81546001600160a01b03166001600160a01b03163314610541613414565b61054a91613359565b335f9081527f50bc60b877273d55cac3903fd4818902e5fd7aa256278ee2dc6b212f256c0b0e6020526040902083610581916145b8565b61058961344f565b61059291613359565b80547fffffffffffffffffffffffffffffffffffffffffffffff00ffffffffffffffff16680100000000000000001790556105f4835f527f50bc60b877273d55cac3903fd4818902e5fd7aa256278ee2dc6b212f256c0b0b60205260405f2090565b600301546fffffffffffffffffffffffffffffffff166fffffffffffffffffffffffffffffffff169161064e845f527f50bc60b877273d55cac3903fd4818902e5fd7aa256278ee2dc6b212f256c0b0b60205260405f2090565b6003015460801c61065e846146cc565b7f50bc60b877273d55cac3903fd4818902e5fd7aa256278ee2dc6b212f256c0b005460ff1694600184019485546106a4906fffffffffffffffffffffffffffffffff1690565b6fffffffffffffffffffffffffffffffff16966106c184896134b7565b906106cb906134cf565b6106d4916134e0565b9687936106e0916134b7565b906106ea916134e0565b6106f490306144b2565b83546040805194855260208501939093526001600160a01b03169283927f885a882c47dd7d1e5c24472bae67f438bae87e32a2cd0070eafe7b07cd2e2a6991a37f50bc60b877273d55cac3903fd4818902e5fd7aa256278ee2dc6b212f256c0b075461076a9185916001600160a01b0316614710565b549054604080516fffffffffffffffffffffffffffffffff909216825260208201939093526001600160a01b03909116917f41273f22710b9196a798efbfcef8b8f13949d3fb0c3e4f3ccc226f2125e248b091a26102e161476a565b801515036102e357565b346102e35760206003193601126102e35760246004356107ef816107c6565b60206001600160a01b03610801614c6f565b16604051938480927f2500f2b60000000000000000000000000000000000000000000000000000000082523360048301525afa9081156108ef576108796020927f0e2fb031ee032dc02d8011dc50b816eb450cf856abd8261680dac74f72165bd2945f916108c2575b50610873613517565b90613359565b6108ae60017f50bc60b877273d55cac3903fd4818902e5fd7aa256278ee2dc6b212f256c0b005460281c16151561087361478d565b6108b78161553e565b6040519015158152a1005b6108e29150843d86116108e8575b6108da8183610b92565b810190614778565b5f61086a565b503d6108d0565b613f5d565b346102e3575f6003193601126102e35760206805345cdf77eb68f44c54604051908152f35b346102e3575f6003193601126102e357610932336147c8565b602061093c61482b565b604051908152f35b7fffffffff000000000000000000000000000000000000000000000000000000008116036102e357565b346102e35760206003193601126102e3576102e160043561098e81610944565b613552565b346102e35760606003193601126102e3576004356109b08161037b565b6024356109bc8161037b565b604435908260601b6e22d473030f116ddee9f6b43ac78ba33303610a55575b6387a211a217600c526020600c208054808411610a485783900390555f526020600c208181540190556020526001600160a01b03600c5160601c91167fddf252ad1be2c89b69c2b068fc378daa952ba7f163c4a11628f55a4df523b3ef602080a360405160018152602090f35b63f4d678b85f526004601cfd5b33602052637f5e9f208117600c526034600c20908154918219610a7b575b5090506109db565b828511610a9257846387a211a2930390555f610a73565b6313be252b5f526004601cfd5b5f6003193601126102e35763389a75e1600c52335f526202a30042016020600c2055337fdbf36a107da19e49527a7176a1babf963b4b0ff8cde35ee35d6cd8f1f9ac7e1d5f80a2005b346102e35760606003193601126102e3576102e1600435610b0881610944565b602435610b148161037b565b60443591610b21836107c6565b6135cf565b346102e3575f6003193601126102e357602060ff7f50bc60b877273d55cac3903fd4818902e5fd7aa256278ee2dc6b212f256c0b005416604051908152f35b7f4e487b71000000000000000000000000000000000000000000000000000000005f52604160045260245ffd5b90601f7fffffffffffffffffffffffffffffffffffffffffffffffffffffffffffffffe0910116810190811067ffffffffffffffff821117610bd357604052565b610b65565b60405190610be760c083610b92565b565b81601f820112156102e35780359067ffffffffffffffff8211610bd35760405192610c3c601f84017fffffffffffffffffffffffffffffffffffffffffffffffffffffffffffffffe01660200185610b92565b828452602083830101116102e357815f926020809301838601378301015290565b60a4359060ff821682036102e357565b6084359060ff821682036102e357565b346102e35760e06003193601126102e357600435610c9a8161037b565b60243590610ca78261037b565b60443591610cb4836107c6565b60643567ffffffffffffffff81116102e357610cd4903690600401610be9565b926084359367ffffffffffffffff85116102e357610cf96102e1953690600401610be9565b91610d02610c5d565b9360c43595610d108761037b565b6136c1565b346102e3575f6003193601126102e35760a0610d2f61320d565b60208151910120604051907f8b73c3c69bb8fe3d512ecc4cf759cc79239f7b179b0ffacaa9a75d522b39400f825260208201527fc89efdaa54c0f20c7adf612882df0950f5a951637e0307cdcb4c672f298b8bc66040820152466060820152306080820152206040518091602082019082520390f35b60031960209101126102e35760043567ffffffffffffffff811681036102e35790565b346102e3577fe65ac4349eb9700f0c615b26a7bbcef2e3bcbbff960dc8f548d7d19dbe9320ef6020610df936610da5565b610e0233614436565b7f50bc60b877273d55cac3903fd4818902e5fd7aa256278ee2dc6b212f256c0b00547ffffffffffffffffffffffffffffffffffffff80000000000000007ffffffffff6d07fffffffffffffff8000000000067ffffffffffffffff841693610e7767ffffffffffffffff85602b1c1686614cd2565b602b1b169116177f50bc60b877273d55cac3903fd4818902e5fd7aa256278ee2dc6b212f256c0b0055610ea8614d2a565b604051908152a1005b60206003193601126102e357600435610ec861451f565b610ed061454e565b610f01815f527f50bc60b877273d55cac3903fd4818902e5fd7aa256278ee2dc6b212f256c0b0d60205260405f2090565b610f2e610f24610f1883546001600160a01b031690565b6001600160a01b031690565b3314610873613fb1565b610f7c610f7483610f6f336001600160a01b03165f527f50bc60b877273d55cac3903fd4818902e5fd7aa256278ee2dc6b212f256c0b0e60205260405f2090565b6145b8565b61087361344f565b600481018054610fa59060401c60ff165b610f96816133a2565b610f9e613fec565b9015613359565b61107d600383019161104a611042610fff611038865461100b611003610fff610ff5845f527f50bc60b877273d55cac3903fd4818902e5fd7aa256278ee2dc6b212f256c0b0b60205260405f2090565b5460a01c60ff1690565b1590565b610873614027565b5f527f50bc60b877273d55cac3903fd4818902e5fd7aa256278ee2dc6b212f256c0b0b60205260405f2090565b5460a81c60ff1690565b610873614062565b680200000000000000007fffffffffffffffffffffffffffffffffffffffffffffff00ffffffffffffffff825416179055565b61108b610f18610f18614db6565b9160018101916110ab83546fffffffffffffffffffffffffffffffff1690565b9054843b156102e3576040517f8f6b6ee20000000000000000000000000000000000000000000000000000000081523060048201526fffffffffffffffffffffffffffffffff9290921660248301526044820152925f908490606490829084905af19283156108ef576111366111629261114d9261116996611195575b50546001600160a01b031690565b92546fffffffffffffffffffffffffffffffff1690565b6fffffffffffffffffffffffffffffffff1690565b9030614e6b565b7f31554d632bde073c52741a6f600532f2129ef071de676e92c694906a2a60dd3d5f80a26102e161476a565b806111a35f6111a993610b92565b806102e7565b5f611128565b60206003193601126102e35761150a6004356111c961451f565b6111d161454e565b6115056003611207835f527f50bc60b877273d55cac3903fd4818902e5fd7aa256278ee2dc6b212f256c0b0c60205260405f2090565b015491611249611241611038855f527f50bc60b877273d55cac3903fd4818902e5fd7aa256278ee2dc6b212f256c0b0b60205260405f2090565b61087361331e565b6114f8611478611280835f527f50bc60b877273d55cac3903fd4818902e5fd7aa256278ee2dc6b212f256c0b0c60205260405f2090565b92611340600485016112ab61129a825460ff9060401c1690565b6112a3816133a2565b610f9e6133d9565b6112cc6112c2610f1888546001600160a01b031690565b3314610873613414565b61130d610f7484610f6f336001600160a01b03165f527f50bc60b877273d55cac3903fd4818902e5fd7aa256278ee2dc6b212f256c0b0e60205260405f2090565b680100000000000000007fffffffffffffffffffffffffffffffffffffffffffffff00ffffffffffffffff825416179055565b61138161114d6003611379895f527f50bc60b877273d55cac3903fd4818902e5fd7aa256278ee2dc6b212f256c0b0b60205260405f2090565b015460801c90565b9061138b826146cc565b6114006113ab60018701546fffffffffffffffffffffffffffffffff1690565b926113fb6fffffffffffffffffffffffffffffffff85166113f56113f060ff7f50bc60b877273d55cac3903fd4818902e5fd7aa256278ee2dc6b212f256c0b00541690565b6134cf565b906134b7565b6134e0565b967ffef4f80a328fc3fdf24a2d9fd39f986127e680d3f648725afc621fa1403a560b886001600160a01b0361143c89546001600160a01b031690565b6040805196875260208701939093521693a37f50bc60b877273d55cac3903fd4818902e5fd7aa256278ee2dc6b212f256c0b015460801c61409d565b6fffffffffffffffffffffffffffffffff7fffffffffffffffffffffffffffffffff000000000000000000000000000000007f50bc60b877273d55cac3903fd4818902e5fd7aa256278ee2dc6b212f256c0b01549260801b169116177f50bc60b877273d55cac3903fd4818902e5fd7aa256278ee2dc6b212f256c0b0155565b546001600160a01b031690565b614ed4565b6102e161476a565b60406003193601126102e35760043561152a8161037b565b6024359067ffffffffffffffff82116102e357366023830112156102e35781600401359067ffffffffffffffff82116102e35736602483850101116102e3577f00000000000000000000000000000000000000000000000000000000000000003014611670576001600160a01b03906115a233614436565b166115b66115ae613b92565b821515613359565b3d5f526352d1902d6001527f360894a13ba1a3210667c828492db98dca3e2076cc3735a920a3ca505d382bbc602060016004601d855afa510361166257807fbc7cd75a20ee27fd9adebab32041f755214dbc6bffa90cc0225b39da2e5c2d3b5f80a281817f360894a13ba1a3210667c828492db98dca3e2076cc3735a920a3ca505d382bbc5561164257005b815f926024604051950185378338925af41561165a57005b3d5f823e3d90fd5b6355299b496001526004601dfd5b639f03a0265f526004601cfd5b346102e3575f6003193601126102e357307f0000000000000000000000000000000000000000000000000000000000000000036116705760206040517f360894a13ba1a3210667c828492db98dca3e2076cc3735a920a3ca505d382bbc8152f35b5f6003193601126102e35763389a75e1600c52335f525f6020600c2055337ffa7b8eab7da67f412cc9575ed43464468f9bfbae89d1675917346ca6d8fe3c925f80a2005b60406003193601126102e35760043561173a8161037b565b60243561174561451f565b61174d61454e565b611756816146cc565b61178d610f18610f187f50bc60b877273d55cac3903fd4818902e5fd7aa256278ee2dc6b212f256c0b07546001600160a01b031690565b6040517f70a0823100000000000000000000000000000000000000000000000000000000815233600482015290602090829060249082905afa80156108ef576117e9915f91611c94575b50826117e16140de565b911015613359565b7f50bc60b877273d55cac3903fd4818902e5fd7aa256278ee2dc6b212f256c0b03549161181582614c34565b916002611849855f527f50bc60b877273d55cac3903fd4818902e5fd7aa256278ee2dc6b212f256c0b0b60205260405f2090565b016118ad6118708561186b84546fffffffffffffffffffffffffffffffff1690565b614119565b82547fffffffffffffffffffffffffffffffff00000000000000000000000000000000166fffffffffffffffffffffffffffffffff821617909255565b6118b8610f18614c6f565b6040517fe6ed859d0000000000000000000000000000000000000000000000000000000081523060048201529190602090839060249082905afa80156108ef57611926925f91611c65575b506fffffffffffffffffffffffffffffffff61191d61414b565b92161115613359565b61199461194d611934614f47565b6fffffffffffffffffffffffffffffffff861690614186565b61198a61114d7f50bc60b877273d55cac3903fd4818902e5fd7aa256278ee2dc6b212f256c0b08546fffffffffffffffffffffffffffffffff1690565b1015610873614193565b61199f428233614fcc565b926119ae610f18610f18614db6565b6119b661504a565b7f50bc60b877273d55cac3903fd4818902e5fd7aa256278ee2dc6b212f256c0b06546001600160a01b031690823b156102e3576040517fc60990920000000000000000000000000000000000000000000000000000000081526001600160a01b039182166004820152306024820152911660448201526064810184905260848101879052905f90829060a490829084905af19586156108ef57611bd086937fef7f1919e2638c706798d0161a452d595ab58436e6a4dc4b65f042a0954097f59361037799611c51575b50611abc863033611ab77f50bc60b877273d55cac3903fd4818902e5fd7aa256278ee2dc6b212f256c0b07546001600160a01b031690565b6150d4565b611af5611478611acb88614c34565b7f50bc60b877273d55cac3903fd4818902e5fd7aa256278ee2dc6b212f256c0b015460801c614119565b611b3885611b33336001600160a01b03165f527f50bc60b877273d55cac3903fd4818902e5fd7aa256278ee2dc6b212f256c0b0e60205260405f2090565b61513b565b50611b94611b454261525d565b611b6d611b50610bd8565b338152936fffffffffffffffffffffffffffffffff166020850152565b6001600160a01b03891660408401526060830185905267ffffffffffffffff166080830152565b5f60a0820152611bcb855f527f50bc60b877273d55cac3903fd4818902e5fd7aa256278ee2dc6b212f256c0b0c60205260405f2090565b6141ce565b6001600160a01b03611c097f50bc60b877273d55cac3903fd4818902e5fd7aa256278ee2dc6b212f256c0b07546001600160a01b031690565b1694611c366040519283923397846001600160a01b03604092959493606083019683521660208201520152565b0390a4611c4161476a565b6040519081529081906020820190565b806111a35f611c5f93610b92565b5f611a7f565b611c87915060203d602011611c8d575b611c7f8183610b92565b8101906140cf565b5f611903565b503d611c75565b611cad915060203d602011611c8d57611c7f8183610b92565b5f6117d7565b346102e35760206003193601126102e357602061093c600435611cd58161037b565b6387a211a2600c525f526020600c205490565b60406003193601126102e357600435611d008161037b565b602435611d0b61451f565b611d1361454e565b611d1c816146cc565b611d4181611d37336387a211a2600c525f526020600c205490565b10156108736140de565b7f50bc60b877273d55cac3903fd4818902e5fd7aa256278ee2dc6b212f256c0b035490611d7d611d78611d7261527b565b83615302565b614c34565b611e04611dc36002611db6865f527f50bc60b877273d55cac3903fd4818902e5fd7aa256278ee2dc6b212f256c0b0b60205260405f2090565b019261186b845460801c90565b82546fffffffffffffffffffffffffffffffff16608082901b7fffffffffffffffffffffffffffffffff000000000000000000000000000000001617909255565b611e0f610f18614c6f565b6040517fa05a0e4a0000000000000000000000000000000000000000000000000000000081523060048201529190602090839060249082905afa80156108ef57611e73925f91611c6557506fffffffffffffffffffffffffffffffff61191d61414b565b611e7e428233614fcc565b91611f10611e8b83614c34565b611eb3611e96610bd8565b338152916fffffffffffffffffffffffffffffffff166020830152565b6001600160a01b0386166040820152606081018390524267ffffffffffffffff1660808201525f60a0820152611bcb855f527f50bc60b877273d55cac3903fd4818902e5fd7aa256278ee2dc6b212f256c0b0d60205260405f2090565b611f4e83611b33336001600160a01b03165f527f50bc60b877273d55cac3903fd4818902e5fd7aa256278ee2dc6b212f256c0b0e60205260405f2090565b50611f5a823033614e6b565b611f68610f18610f18614db6565b90813b156102e3576040517fd7eebeaf0000000000000000000000000000000000000000000000000000000081523060048201526024810184905260448101829052915f908390606490829084905af19081156108ef576103779585937ffe67f2e1da3714b8e0579382741d2579cee1b119df90667cd54721133b0b7ba593612016575b50604080519586526001600160a01b039190911660208601528401523392606090a3611c4161476a565b806111a35f61202493610b92565b5f611fec565b5f6003193601126102e35761203d6153ac565b5f638b78c6d819547f8be0079c531659141344cd1fd0a4f28419497f9722a3daafe3b4186f6b6457e08280a35f638b78c6d81955005b346102e35760206003193601126102e3576004356120908161037b565b6338377508600c525f52602080600c2054604051908152f35b346102e3575f6003193601126102e3576020638b78c6d819546001600160a01b0360405191168152f35b60031960209101126102e35760043561ffff811681036102e35790565b346102e3577f7fa71bc8199b41215c8786fc03983be5a27180965feae35db511cd958631826f61ffff612122366120d3565b61212b33614436565b612136828216615406565b6121d07f50bc60b877273d55cac3903fd4818902e5fd7aa256278ee2dc6b212f256c0b00549164ffff0000008160181b167fffffffffffffffffffffffffffffffffffffffffffffffffffffff0000ffffff8416177f50bc60b877273d55cac3903fd4818902e5fd7aa256278ee2dc6b212f256c0b005560405193849360181c168390929161ffff60209181604085019616845216910152565b0390a1005b346102e3575f6003193601126102e3576040515f7f50bc60b877273d55cac3903fd4818902e5fd7aa256278ee2dc6b212f256c0b0a54612214816131bc565b80845290600181169081156122c55750600114612248575b6103778361223c81850382610b92565b60405191829182610334565b7f50bc60b877273d55cac3903fd4818902e5fd7aa256278ee2dc6b212f256c0b0a5f9081527f3177a8165b5b3e3c62fb2630441ecd4511c2f82be57a6b1983a2e5a11e1148b9939250905b8082106122ab5750909150810160200161223c61222c565b919260018160209254838588010152019101909291612293565b7fffffffffffffffffffffffffffffffffffffffffffffffffffffffffffffff001660208086019190915291151560051b8401909101915061223c905061222c565b346102e3577fbe5a13c989a13e06b5cd587e9b683c7a96fc98bba9526a05870f6c8283a26f7f602061233836610da5565b61234133614436565b7f50bc60b877273d55cac3903fd4818902e5fd7aa256278ee2dc6b212f256c0b00547ffffffffffffffffffffff80000000000000007ffffffffffffffffffffffffff7507fffffffffffffff80000000000000000000000000067ffffffffffffffff8416936123be67ffffffffffffffff85606b1c1686614cd2565b606b1b169116177f50bc60b877273d55cac3903fd4818902e5fd7aa256278ee2dc6b212f256c0b0055610ea8614d2a565b346102e35760406003193601126102e35760043561240c8161037b565b602435906387a211a2600c52335f526020600c208054808411610a485783900390555f526020600c20818154019055602052600c5160601c337fddf252ad1be2c89b69c2b068fc378daa952ba7f163c4a11628f55a4df523b3ef602080a360405160018152602090f35b346102e3577fba8506b6cb85330fea21cbca8490aafb6a69b166f06201ef755eb511b2709fc161ffff6124a8366120d3565b6124b133614436565b6124bc828216615406565b6121d07f50bc60b877273d55cac3903fd4818902e5fd7aa256278ee2dc6b212f256c0b00549162ffff008160081b167fffffffffffffffffffffffffffffffffffffffffffffffffffffffffff0000ff8416177f50bc60b877273d55cac3903fd4818902e5fd7aa256278ee2dc6b212f256c0b005560405193849360081c168390929161ffff60209181604085019616845216910152565b346102e35760406003193601126102e357600435602435612574816107c6565b8161257e336147c8565b805f527f50bc60b877273d55cac3903fd4818902e5fd7aa256278ee2dc6b212f256c0b0b6020526125f260ff60405f205460a01c1615604051906125c3604083610b92565b600382527f56423200000000000000000000000000000000000000000000000000000000006020830152613359565b5f527f50bc60b877273d55cac3903fd4818902e5fd7aa256278ee2dc6b212f256c0b0b60205261265e60405f20740100000000000000000000000000000000000000007fffffffffffffffffffffff00ffffffffffffffffffffffffffffffffffffffff825416179055565b612689575b7f94d067deddb78ebf8fb59c4ec96ab664ecbe2d61153c22e2648e4deb412534945f80a2005b5061269261482b565b612663565b346102e35760206003193601126102e3576fffffffffffffffffffffffffffffffff6126c8600435611d7833614436565b167fffffffffffffffffffffffffffffffff000000000000000000000000000000007f50bc60b877273d55cac3903fd4818902e5fd7aa256278ee2dc6b212f256c0b085416177f50bc60b877273d55cac3903fd4818902e5fd7aa256278ee2dc6b212f256c0b08555f80f35b346102e35760206003193601126102e3577fe6b665276caa675ab5f1b831ab88e1f49cad8e452dc3c45b3c998c4b6b52d4366020600435612774816107c6565b61277d33614436565b7f50bc60b877273d55cac3903fd4818902e5fd7aa256278ee2dc6b212f256c0b00547ffffffffffffffffffffffffffffffffffffffffffffffffffffffbffffffffff168115612804576603fc000000000060015b602a1b16177f50bc60b877273d55cac3903fd4818902e5fd7aa256278ee2dc6b212f256c0b00556040519015158152a1005b6603fc00000000005f6127d2565b60206003193601126102e35760043561282961451f565b61283161454e565b612862815f527f50bc60b877273d55cac3903fd4818902e5fd7aa256278ee2dc6b212f256c0b0c60205260405f2090565b6128a3610f7483610f6f336001600160a01b03165f527f50bc60b877273d55cac3903fd4818902e5fd7aa256278ee2dc6b212f256c0b0e60205260405f2090565b6128ba610f24610f1883546001600160a01b031690565b60048101906128d1610f8d835460ff9060401c1690565b612921600382019261104a611042610fff611038875461100b611003610fff610ff5845f527f50bc60b877273d55cac3903fd4818902e5fd7aa256278ee2dc6b212f256c0b0b60205260405f2090565b6001810161296f61147861294583546fffffffffffffffffffffffffffffffff1690565b7f50bc60b877273d55cac3903fd4818902e5fd7aa256278ee2dc6b212f256c0b015460801c61409d565b61297d610f18610f18614db6565b9261298661504a565b906129b87f50bc60b877273d55cac3903fd4818902e5fd7aa256278ee2dc6b212f256c0b06546001600160a01b031690565b946129d384546fffffffffffffffffffffffffffffffff1690565b915495813b156102e3576040517fc60990920000000000000000000000000000000000000000000000000000000081523060048201526001600160a01b039485166024820152931660448401526fffffffffffffffffffffffffffffffff9190911660648301526084820194909452925f90849060a490829084905af19283156108ef57612aaf93612adb575b50612aa961114d611136612a9b7f50bc60b877273d55cac3903fd4818902e5fd7aa256278ee2dc6b212f256c0b07546001600160a01b031690565b94546001600160a01b031690565b91614710565b7ff417a63305b80d2156b801152953314d804640d1804100b5929cb8f99a077f995f80a26102e161476a565b806111a35f612ae993610b92565b5f612a60565b346102e35760e06003193601126102e357600435612b0c8161037b565b60243590612b198261037b565b606435604435612b27610c6d565b9260a435916001600160a01b0360c4359616958119156e22d473030f116ddee9f6b43ac78ba38818171561042057612b5d61320d565b6020815191012093854211612cb35760c0966001600160a01b03604051951697889565383775081901600e52865f526020600c2098895480997f8b73c3c69bb8fe3d512ecc4cf759cc79239f7b179b0ffacaa9a75d522b39400f8452602084019081528d604085017fc89efdaa54c0f20c7adf612882df0950f5a951637e0307cdcb4c672f298b8bc68152606086019b468d52608087019330855260a08820602e527f6e71edae12b1b97f4d1f60370fef10105fa2faae0126114a169c64845d6126c988525252888a525260a082015220604e526042602c205f5260ff1660205260405260605260208060805f60015afa93853d5103612ca6577f8c5be1e5ebec7d5bd14f71427d1e84f3dd0314c0f7b2291e5b200ac8c7c3b9259460209401905585777f5e9f200000000000000000000000000000000000000000176040526034602c2055a3005b63ddafbaef5f526004601cfd5b631a15a3cc5f526004601cfd5b346102e35760406003193601126102e357602061093c600435612ce28161037b565b60243590612cef8261037b565b614346565b346102e35760206003193601126102e3576004355f602460206001600160a01b03612d1d614c6f565b16604051928380927fa9c9a9180000000000000000000000000000000000000000000000000000000082527ff3bbf2dd6779e6fe2f6fb7cc20baa5140e39dd5b31ab45dfa7d512610b601f0d60048301525afa9081156108ef575f91612fbf575b506001600160a01b03163314612fb7575b612d9b90610873613517565b612dda612dd2610ff5835f527f50bc60b877273d55cac3903fd4818902e5fd7aa256278ee2dc6b212f256c0b0b60205260405f2090565b610873614383565b612e1c612e14610fff611038845f527f50bc60b877273d55cac3903fd4818902e5fd7aa256278ee2dc6b212f256c0b0b60205260405f2090565b6108736143be565b612e90612e50825f527f50bc60b877273d55cac3903fd4818902e5fd7aa256278ee2dc6b212f256c0b0b60205260405f2090565b75010000000000000000000000000000000000000000007fffffffffffffffffffff00ffffffffffffffffffffffffffffffffffffffffff825416179055565b612f0e612e9e611d7861544d565b6003612ed1845f527f50bc60b877273d55cac3903fd4818902e5fd7aa256278ee2dc6b212f256c0b0b60205260405f2090565b01906fffffffffffffffffffffffffffffffff167fffffffffffffffffffffffffffffffff00000000000000000000000000000000825416179055565b612f91612f1c611d7861548b565b6003612f4f845f527f50bc60b877273d55cac3903fd4818902e5fd7aa256278ee2dc6b212f256c0b0b60205260405f2090565b01906fffffffffffffffffffffffffffffffff7fffffffffffffffffffffffffffffffff0000000000000000000000000000000083549260801b169116179055565b7f9c389dadeacea6f1c7898215a4936003cf433e03f53e10e6b07375d0ced6b7795f80a2005b506001612d8f565b612fe1915060203d602011612fe7575b612fd98183610b92565b810190613f48565b5f612d7e565b503d612fcf565b9181601f840112156102e35782359167ffffffffffffffff83116102e3576020808501948460051b0101116102e357565b346102e35760606003193601126102e35760043567ffffffffffffffff81116102e357613050903690600401612fee565b906024359061305e8261037b565b60443561306a816107c6565b5f5b84811061307557005b8061309283866130886001958a896143f9565b35610b2181610944565b0161306c565b60206003193601126102e3576004356130b08161037b565b6130b86153ac565b63389a75e1600c52805f526020600c2090815442116130dc575f6102e192556153c8565b636f5e88185f526004601cfd5b60206003193601126102e3576004356131018161037b565b6131096153ac565b8060601b1561311b576102e1906153c8565b637448fbae5f526004601cfd5b346102e35760206003193601126102e35760043567ffffffffffffffff81116102e357613159903690600401612fee565b905f5b82811061316557005b8061318061317660019386866143f9565b3561098e81610944565b0161315c565b346102e35760206003193601126102e3576004356131a38161037b565b63389a75e1600c525f52602080600c2054604051908152f35b90600182811c92168015613203575b60208310146131d657565b7f4e487b71000000000000000000000000000000000000000000000000000000005f52602260045260245ffd5b91607f16916131cb565b604051905f827f50bc60b877273d55cac3903fd4818902e5fd7aa256278ee2dc6b212f256c0b09549161323f836131bc565b80835292600181169081156132e15750600114613263575b610be792500383610b92565b507f50bc60b877273d55cac3903fd4818902e5fd7aa256278ee2dc6b212f256c0b095f90815290917feed39591673215402fba1c9ab9753946196fe3ddcce93d9e892ab8c49fea90c15b8183106132c5575050906020610be792820101613257565b60209193508060019154838589010152019101909184926132ad565b60209250610be79491507fffffffffffffffffffffffffffffffffffffffffffffffffffffffffffffff001682840152151560051b820101613257565b6040519061332d604083610b92565b600382527f56433100000000000000000000000000000000000000000000000000000000006020830152565b156133615750565b61339e906040519182917f08c379a000000000000000000000000000000000000000000000000000000000835260206004840181815201906102f1565b0390fd5b600311156133ac57565b7f4e487b71000000000000000000000000000000000000000000000000000000005f52602160045260245ffd5b604051906133e8604083610b92565b600382527f56433500000000000000000000000000000000000000000000000000000000006020830152565b60405190613423604083610b92565b600382527f56433400000000000000000000000000000000000000000000000000000000006020830152565b6040519061345e604083610b92565b600382527f53563500000000000000000000000000000000000000000000000000000000006020830152565b7f4e487b71000000000000000000000000000000000000000000000000000000005f52601160045260245ffd5b818102929181159184041417156134ca57565b61348a565b60ff16604d81116134ca57600a0a90565b81156134ea570490565b7f4e487b71000000000000000000000000000000000000000000000000000000005f52601260045260245ffd5b60405190613526604083610b92565b600382527f53563900000000000000000000000000000000000000000000000000000000006020830152565b7fffffffff000000000000000000000000000000000000000000000000000000009061357c6153ac565b165f527ffeaf205b5229ea10e902c7b89e4768733c756362b2becb0bfd65a97f71b02d0060205260405f207fffffffffffffffffffffffff00000000000000000000000000000000000000008154169055565b916135d86153ac565b15613661575b7fffffffff00000000000000000000000000000000000000000000000000000000610be792165f527ffeaf205b5229ea10e902c7b89e4768733c756362b2becb0bfd65a97f71b02d0060205260405f20906001600160a01b03167fffffffffffffffffffffffff0000000000000000000000000000000000000000825416179055565b7fffffffff0000000000000000000000000000000000000000000000000000000082165f527ffeaf205b5229ea10e902c7b89e4768733c756362b2becb0bfd65a97f71b02d006020526001600160a01b0360405f205416156135de575f80fd5b959091957fffffffffffffffffffffffffffffffffffffffffffffffffffffffffbf6011329687548060038a55613b63575b509061371e61372392613718613707613b92565b6001600160a01b0387161515613359565b8561494c565b614bfc565b61372c83613c1c565b61373584613db8565b6137a68560ff7fffffffffffffffffffffffffffffffffffffffffffffffffffffffffffffff007f50bc60b877273d55cac3903fd4818902e5fd7aa256278ee2dc6b212f256c0b0054169116177f50bc60b877273d55cac3903fd4818902e5fd7aa256278ee2dc6b212f256c0b0055565b61381c816001600160a01b03167fffffffffffffffffffffffff00000000000000000000000000000000000000007f50bc60b877273d55cac3903fd4818902e5fd7aa256278ee2dc6b212f256c0b065416177f50bc60b877273d55cac3903fd4818902e5fd7aa256278ee2dc6b212f256c0b0655565b6138a661382b611d78876134cf565b6fffffffffffffffffffffffffffffffff167fffffffffffffffffffffffffffffffff000000000000000000000000000000007f50bc60b877273d55cac3903fd4818902e5fd7aa256278ee2dc6b212f256c0b015416177f50bc60b877273d55cac3903fd4818902e5fd7aa256278ee2dc6b212f256c0b0155565b6138b1610f18614c6f565b6040517fa3863a950000000000000000000000000000000000000000000000000000000081526001600160a01b038316600482015290602090829060249082905afa80156108ef57613977915f91613b44575b506001600160a01b03167fffffffffffffffffffffffff00000000000000000000000000000000000000007f50bc60b877273d55cac3903fd4818902e5fd7aa256278ee2dc6b212f256c0b075416177f50bc60b877273d55cac3903fd4818902e5fd7aa256278ee2dc6b212f256c0b0755565b613982610f18614c6f565b602060405180927fa9c9a91800000000000000000000000000000000000000000000000000000000825281806139df60048201907f06d15878a0883034bd095c66a4b2987dfae5eb662cf9ef4aaa5ce27b533782bc602083019252565b03915afa9081156108ef575f91613b25575b50604051906108e18083019183831067ffffffffffffffff841117610bd3578392613a2e926155cb85396001600160a01b03909116815260200190565b03905ff09081156108ef5786957f8cf0f1e3aaf200c2295fd68d5121840e9b1d08b99cc0d3508519cef3db81884595613adf6001600160a01b03613aeb95166001600160a01b03167fffffffffffffffffffffffff00000000000000000000000000000000000000007f50bc60b877273d55cac3903fd4818902e5fd7aa256278ee2dc6b212f256c0b055416177f50bc60b877273d55cac3903fd4818902e5fd7aa256278ee2dc6b212f256c0b0555565b60405195869586613f68565b0390a1613af55750565b6002905560016020527fc7f505b2f371ae2175ee4913f4499e1f2633a7b5936321eed1cdaeb6115181d2602080a1565b613b3e915060203d602011612fe757612fd98183610b92565b5f6139f1565b613b5d915060203d602011612fe757612fd98183610b92565b5f613904565b600181819a94939a1c14303b1015613b855760ff1b9190911b9661371e6136f3565b63f92ee8a95f526004601cfd5b60405190613ba1604083610b92565b600482527f53563130000000000000000000000000000000000000000000000000000000006020830152565b601f8211613bda57505050565b5f5260205f20906020601f840160051c83019310613c12575b601f0160051c01905b818110613c07575050565b5f8155600101613bfc565b9091508190613bf3565b90815167ffffffffffffffff8111610bd357613c8281613c5c7f50bc60b877273d55cac3903fd4818902e5fd7aa256278ee2dc6b212f256c0b09546131bc565b7f50bc60b877273d55cac3903fd4818902e5fd7aa256278ee2dc6b212f256c0b09613bcd565b602092601f8211600114613ce057613cb1929382915f92613cd5575b50505f198260011b9260031b1c19161790565b7f50bc60b877273d55cac3903fd4818902e5fd7aa256278ee2dc6b212f256c0b0955565b015190505f80613c9e565b7f50bc60b877273d55cac3903fd4818902e5fd7aa256278ee2dc6b212f256c0b095f527fffffffffffffffffffffffffffffffffffffffffffffffffffffffffffffffe08216937feed39591673215402fba1c9ab9753946196fe3ddcce93d9e892ab8c49fea90c1915f5b868110613da05750836001959610613d88575b505050811b017f50bc60b877273d55cac3903fd4818902e5fd7aa256278ee2dc6b212f256c0b0955565b01515f1960f88460031b161c191690555f8080613d5e565b91926020600181928685015181550194019201613d4b565b90815167ffffffffffffffff8111610bd357613e1e81613df87f50bc60b877273d55cac3903fd4818902e5fd7aa256278ee2dc6b212f256c0b0a546131bc565b7f50bc60b877273d55cac3903fd4818902e5fd7aa256278ee2dc6b212f256c0b0a613bcd565b602092601f8211600114613e7057613e4c929382915f92613cd55750505f198260011b9260031b1c19161790565b7f50bc60b877273d55cac3903fd4818902e5fd7aa256278ee2dc6b212f256c0b0a55565b7f50bc60b877273d55cac3903fd4818902e5fd7aa256278ee2dc6b212f256c0b0a5f527fffffffffffffffffffffffffffffffffffffffffffffffffffffffffffffffe08216937f3177a8165b5b3e3c62fb2630441ecd4511c2f82be57a6b1983a2e5a11e1148b9915f5b868110613f305750836001959610613f18575b505050811b017f50bc60b877273d55cac3903fd4818902e5fd7aa256278ee2dc6b212f256c0b0a55565b01515f1960f88460031b161c191690555f8080613eee565b91926020600181928685015181550194019201613edb565b908160209103126102e357516103458161037b565b6040513d5f823e3d90fd5b93959490613fa4608094613f966001600160a01b03958660ff9516895260a060208a015260a08901906102f1565b9087820360408901526102f1565b9616606085015216910152565b60405190613fc0604083610b92565b600382527f53563600000000000000000000000000000000000000000000000000000000006020830152565b60405190613ffb604083610b92565b600382527f53563400000000000000000000000000000000000000000000000000000000006020830152565b60405190614036604083610b92565b600382527f53563700000000000000000000000000000000000000000000000000000000006020830152565b60405190614071604083610b92565b600382527f53563800000000000000000000000000000000000000000000000000000000006020830152565b906fffffffffffffffffffffffffffffffff809116911603906fffffffffffffffffffffffffffffffff82116134ca57565b908160209103126102e3575190565b604051906140ed604083610b92565b600382527f53563100000000000000000000000000000000000000000000000000000000006020830152565b906fffffffffffffffffffffffffffffffff809116911601906fffffffffffffffffffffffffffffffff82116134ca57565b6040519061415a604083610b92565b600482527f53563132000000000000000000000000000000000000000000000000000000006020830152565b919082018092116134ca57565b604051906141a2604083610b92565b600482527f53563133000000000000000000000000000000000000000000000000000000006020830152565b600460a0916142156001600160a01b0385511682906001600160a01b03167fffffffffffffffffffffffff0000000000000000000000000000000000000000825416179055565b61426f6fffffffffffffffffffffffffffffffff60208601511660018301906fffffffffffffffffffffffffffffffff167fffffffffffffffffffffffffffffffff00000000000000000000000000000000825416179055565b6142b76001600160a01b0360408601511660028301906001600160a01b03167fffffffffffffffffffffffff0000000000000000000000000000000000000000825416179055565b60608401516003820155019167ffffffffffffffff6080820151167fffffffffffffffffffffffffffffffffffffffffffffffff00000000000000008454161783550151614304816133a2565b60038110156133ac577fffffffffffffffffffffffffffffffffffffffffffffff00ffffffffffffffff68ff000000000000000083549260401b169116179055565b906e22d473030f116ddee9f6b43ac78ba36001600160a01b0382161461437c57602052637f5e9f20600c525f526034600c205490565b50505f1990565b60405190614392604083610b92565b600382527f56423100000000000000000000000000000000000000000000000000000000006020830152565b604051906143cd604083610b92565b600382527f56423300000000000000000000000000000000000000000000000000000000006020830152565b91908110156144095760051b0190565b7f4e487b71000000000000000000000000000000000000000000000000000000005f52603260045260245ffd5b60206001600160a01b0360248161444b614c6f565b169360405194859384927f24d7806c0000000000000000000000000000000000000000000000000000000084521660048301525afa80156108ef57610be7915f916144995750610873613517565b6108e2915060203d6020116108e8576108da8183610b92565b906387a211a2600c52815f526020600c2091825491828111610a48575f93816001600160a01b0394039055806805345cdf77eb68f44c54036805345cdf77eb68f44c558352167fddf252ad1be2c89b69c2b068fc378daa952ba7f163c4a11628f55a4df523b3ef602083a3565b688000000000ab143c065c61453c5730688000000000ab143c065d565b688000000000ab143c065f526004601cfd5b610be760017f50bc60b877273d55cac3903fd4818902e5fd7aa256278ee2dc6b212f256c0b005460291c161560405190614589604083610b92565b600382527f53563200000000000000000000000000000000000000000000000000000000006020830152613359565b91906145d05f936318fb58646004525f5260245f2090565b9068fbb67fda52d4bfb8bf81146146bf5780156146af575b811980549182159260011c5f19810191600183811b179461465657856020525f5260405f2094855492831561464d575f9798505f1984010361462f575b5050505555600190565b5f1980849383010154928392010155855260408520555f8080614625565b50505050505050565b9496505050505060019281815414614699578381018281541461468a57506002019081541461468557505f9150565b5f9055565b905f9250600201908154905555565b5f91506002848201918254815501908154905555565b5068fbb67fda52d4bfb8bf6145e8565b63f5a267f15f526004601cfd5b610be790604051906146df604083610b92565b600482527f535631310000000000000000000000000000000000000000000000000000000060208301521515613359565b91906014526034526fa9059cbb0000000000000000000000005f5260205f6044601082855af1908160015f5114161561474c575b50505f603452565b3b153d17101561475d575f80614744565b6390b8ec185f526004601cfd5b5f688000000000ab143c065d565b908160209103126102e35751610345816107c6565b6040519061479c604083610b92565b600382527f42563500000000000000000000000000000000000000000000000000000000006020830152565b60206001600160a01b036024816147dd614c6f565b169360405194859384927f541d55480000000000000000000000000000000000000000000000000000000084521660048301525afa80156108ef57610be7915f916144995750610873613517565b7f50bc60b877273d55cac3903fd4818902e5fd7aa256278ee2dc6b212f256c0b028054600101908190557f50bc60b877273d55cac3903fd4818902e5fd7aa256278ee2dc6b212f256c0b065460408051308152602081019390935246908301524260608301526001600160a01b0316608082015260a09020807f50bc60b877273d55cac3903fd4818902e5fd7aa256278ee2dc6b212f256c0b03556148f7815f527f50bc60b877273d55cac3903fd4818902e5fd7aa256278ee2dc6b212f256c0b0b60205260405f2090565b6001810182905580547fffffffffffffffffffff00000000000000000000000000000000000000000000169055807f97ccb93efafaa40e35ba26ce377c44cf0ecd02b31712919a3c44e15839bcb1885f80a290565b906001600160a01b03614a75926149c360017f50bc60b877273d55cac3903fd4818902e5fd7aa256278ee2dc6b212f256c0b005460281c161560405190614994604083610b92565b600382527f42563100000000000000000000000000000000000000000000000000000000006020830152613359565b614a086040516149d4604082610b92565b600381527f425633000000000000000000000000000000000000000000000000000000000060208201528383161515613359565b167fffffffffffffffffffffffff00000000000000000000000000000000000000007f50bc60b877273d55cac3903fd4818902e5fd7aa256278ee2dc6b212f256c0b045416177f50bc60b877273d55cac3903fd4818902e5fd7aa256278ee2dc6b212f256c0b045561553e565b614ae8650100000000007ffffffffffffffffffffffffffffffffffffffffffffffffffffffeffffffffff7f50bc60b877273d55cac3903fd4818902e5fd7aa256278ee2dc6b212f256c0b005416177f50bc60b877273d55cac3903fd4818902e5fd7aa256278ee2dc6b212f256c0b0055565b610be767ffffffffffffffff4216614b77816d07fffffffffffffff800000000007ffffffffffffffffffffffffffffffffffffff80000000000000007ffffffffff7f50bc60b877273d55cac3903fd4818902e5fd7aa256278ee2dc6b212f256c0b00541691602b1b16177f50bc60b877273d55cac3903fd4818902e5fd7aa256278ee2dc6b212f256c0b0055565b7507fffffffffffffff8000000000000000000000000007ffffffffffffffffffffff80000000000000007ffffffffffffffffffffffffff7f50bc60b877273d55cac3903fd4818902e5fd7aa256278ee2dc6b212f256c0b00541691606b1b16177f50bc60b877273d55cac3903fd4818902e5fd7aa256278ee2dc6b212f256c0b0055565b6001600160a01b031680638b78c6d819555f7f8be0079c531659141344cd1fd0a4f28419497f9722a3daafe3b4186f6b6457e08180a3565b700100000000000000000000000000000000811015614c62576fffffffffffffffffffffffffffffffff1690565b6335278d125f526004601cfd5b614ca460017f50bc60b877273d55cac3903fd4818902e5fd7aa256278ee2dc6b212f256c0b005460281c16151561087361478d565b6001600160a01b037f50bc60b877273d55cac3903fd4818902e5fd7aa256278ee2dc6b212f256c0b04541690565b610be7918110159081614d1f575b5060405190614cf0604083610b92565b600382527f56463200000000000000000000000000000000000000000000000000000000006020830152613359565b90504210155f614ce0565b614d3261548b565b6fffffffffffffffffffffffffffffffff7f50bc60b877273d55cac3903fd4818902e5fd7aa256278ee2dc6b212f256c0b0154168111614d6f5750565b61382b610be791614c34565b60405190614d8a604083610b92565b600382527f42563200000000000000000000000000000000000000000000000000000000006020830152565b60249060206001600160a01b03614dcb614c6f565b16604051938480927fa9c9a9180000000000000000000000000000000000000000000000000000000082527ff3bbf2dd6779e6fe2f6fb7cc20baa5140e39dd5b31ab45dfa7d512610b601f0d60048301525afa9182156108ef575f92614e4a575b50610be7826001600160a01b03614e41614d7b565b91161515613359565b614e6491925060203d602011612fe757612fd98183610b92565b905f614e2c565b91906387a211a28360601b17600c526020600c208054808411610a485783900390555f526020600c208181540190556020526001600160a01b03600c5160601c91167fddf252ad1be2c89b69c2b068fc378daa952ba7f163c4a11628f55a4df523b3ef602080a3565b6805345cdf77eb68f44c54828101908110614f3a576805345cdf77eb68f44c556387a211a2600c525f526020600c20818154019055602052600c5160601c5f7fddf252ad1be2c89b69c2b068fc378daa952ba7f163c4a11628f55a4df523b3ef602080a3565b63e5cfe9575f526004601cfd5b602080602460106001600160a01b037f50bc60b877273d55cac3903fd4818902e5fd7aa256278ee2dc6b212f256c0b075416306014526f70a082310000000000000000000000005f525afa601f3d1116602051027f50bc60b877273d55cac3903fd4818902e5fd7aa256278ee2dc6b212f256c0b015460801c81039081116134ca5790565b9091610345926001600160a01b0360017f50bc60b877273d55cac3903fd4818902e5fd7aa256278ee2dc6b212f256c0b02540193847f50bc60b877273d55cac3903fd4818902e5fd7aa256278ee2dc6b212f256c0b0255163092909160a0949260405194855260208501526040840152606083015260808201522090565b60249060206001600160a01b0361505f614c6f565b16604051938480927fa9c9a9180000000000000000000000000000000000000000000000000000000082527f06d15878a0883034bd095c66a4b2987dfae5eb662cf9ef4aaa5ce27b533782bc60048301525afa9182156108ef575f92614e4a5750610be7826001600160a01b03614e41614d7b565b916040519360605260405260601b602c526f23b872dd000000000000000000000000600c5260205f6064601c82855af1908160015f5114161561511d575b50505f606052604052565b3b153d17101561512e575f80615112565b637939f4245f526004601cfd5b91906151535f936318fb58646004525f5260245f2090565b9068fbb67fda52d4bfb8bf81146146bf57801561524d575b8119918254918160205282156151b3575b805f5260405f2092835415615192575050505050565b9091929394955060011c8092015560010180915560011b6001179055600190565b9150805480156152445782811461523e576001820180549081156152305750838114615229576002830191825492831561521a5750848314615212575f52600160405f20555f52600260405f20555f52600360405f205560079161517c565b505050505050565b95505050505091925055600190565b5050505050565b945050505091925055600190565b50505050565b50555060019150565b5068fbb67fda52d4bfb8bf61516b565b68010000000000000000811015614c625767ffffffffffffffff1690565b615283614f47565b6040517fcf0597ed000000000000000000000000000000000000000000000000000000008152606081600481305afa9081156108ef575f916152cd575b5081039081116134ca5790565b90506060813d6060116152fa575b816152e860609383610b92565b810103126102e357604001515f6152c0565b3d91506152db565b6805345cdf77eb68f44c549081156153a65782810292828215828487041417021561532e575050900490565b805f198492840985811086019003920990825f03831692818111156153995783900480600302600218808202600203028082026002030280820260020302808202600203028082026002030280910260020302936001848483030494805f0304019211900302170290565b63ae47f7025f526004601cfd5b91505090565b638b78c6d8195433036153bb57565b6382b429005f526004601cfd5b6001600160a01b031680638b78c6d819547f8be0079c531659141344cd1fd0a4f28419497f9722a3daafe3b4186f6b6457e05f80a3638b78c6d81955565b610be7906127106040519161541c604084610b92565b600383527f564631000000000000000000000000000000000000000000000000000000000060208401521115613359565b61034561547d60ff7f50bc60b877273d55cac3903fd4818902e5fd7aa256278ee2dc6b212f256c0b0054166134cf565b615485614f47565b90615302565b6103456154bb60ff7f50bc60b877273d55cac3903fd4818902e5fd7aa256278ee2dc6b212f256c0b0054166134cf565b61548561527b565b7fffffffff000000000000000000000000000000000000000000000000000000005f35165f527ffeaf205b5229ea10e902c7b89e4768733c756362b2becb0bfd65a97f71b02d006020526001600160a01b0360405f20541680156102e3575f8091368280378136915af43d5f803e1561553a573d5ff35b3d5ffd5b7f50bc60b877273d55cac3903fd4818902e5fd7aa256278ee2dc6b212f256c0b00547ffffffffffffffffffffffffffffffffffffffffffffffffffffffdffffffffff1690156155bc576601fe000000000060015b60291b16177f50bc60b877273d55cac3903fd4818902e5fd7aa256278ee2dc6b212f256c0b0055565b6601fe00000000005f61559356fe60a06040523461010157604051601f6108e138819003918201601f19168301916001600160401b038311848410176100ed5780849260209460405283398101031261010157516001600160a01b03811680820361010157604080519081016001600160401b038111828210176100ed5760405260028152602081019161211b60f11b8352156100b257826080526040516107db908161010682396080518181816101a701528181610530015261068b0152f35b60449060405192839162461bcd60e51b8352602060048401525180918160248501528484015e5f828201840152601f01601f19168101030190fd5b634e487b7160e01b5f52604160045260245ffd5b5f80fdfe6080806040526004361015610012575f80fd5b5f3560e01c9081631948f57f146105065750806325db13f1146102ff57806338d52e0f146102cd5780634972134a146102b05780635cd76354146101cb5780636910e3341461008f57639ed3c90c14610069575f80fd5b3461008b575f60031936011261008b57602060ff600254166040519015158152f35b5f80fd5b3461008b57604060031936011261008b5760043560243573ffffffffffffffffffffffffffffffffffffffff81169081810361008b577fffffffffffffffffffffffffffffffffffffffffffffffffffffffffffffff00600191610136600254916101316100fd6040610577565b600281527f4231000000000000000000000000000000000000000000000000000000000000602082015260ff8516156105bb565b61074f565b161760025581600155807fffffffffffffffffffffffff00000000000000000000000000000000000000005f5416175f556040519081527fab051ac83a2f3eb0d4acef0b16e45e830f6d966295150e6c9f1784f07be302cc602073ffffffffffffffffffffffffffffffffffffffff7f00000000000000000000000000000000000000000000000000000000000000001692a3005b3461008b57606060031936011261008b576101e4610554565b6024356101f03361063a565b610234600154604435146102046040610577565b90600282527f423200000000000000000000000000000000000000000000000000000000000060208301526105bb565b61023d816106b5565b6102468261074f565b610268818373ffffffffffffffffffffffffffffffffffffffff5f54166106f5565b7fb7acbf17ad94b6f877e46c72718225d94e660fd48f2e46f65942f2f4cce22027602073ffffffffffffffffffffffffffffffffffffffff805f5416946040519485521692a3005b3461008b575f60031936011261008b576020600154604051908152f35b3461008b575f60031936011261008b57602073ffffffffffffffffffffffffffffffffffffffff5f5416604051908152f35b602060031936011261008b57610313610554565b61031c3361063a565b73ffffffffffffffffffffffffffffffffffffffff81168061044157505047610344816106b5565b5f80808084335af13d15610438573d9067ffffffffffffffff821161040b578161039860207fffffffffffffffffffffffffffffffffffffffffffffffffffffffffffffffe0601f6103dd96011601610577565b9081525f60203d92013e5b6103ad6040610577565b90600282527f423400000000000000000000000000000000000000000000000000000000000060208301526105bb565b6040519081527f63b8c8e180bc85c19daef23e2bb787fb49672d3a9ecde24409c18ccb1accb5d160203392a2005b7f4e487b71000000000000000000000000000000000000000000000000000000005f52604160045260245ffd5b6103dd906103a3565b61049973ffffffffffffffffffffffffffffffffffffffff5f54168214156104696040610577565b90600282527f423500000000000000000000000000000000000000000000000000000000000060208301526105bb565b306014526f70a082310000000000000000000000005f526104d860208060246010865afa601f3d11166020510280936104d1826106b5565b33906106f5565b6040519182527f552c8f8dc30f2786e14004d98595afcc1c0ea1f552b86e86f64a2da74761eaab60203393a3005b3461008b575f60031936011261008b5760209073ffffffffffffffffffffffffffffffffffffffff7f0000000000000000000000000000000000000000000000000000000000000000168152f35b6004359073ffffffffffffffffffffffffffffffffffffffff8216820361008b57565b907fffffffffffffffffffffffffffffffffffffffffffffffffffffffffffffffe0601f604051930116820182811067ffffffffffffffff82111761040b57604052565b156105c35750565b60446020917fffffffffffffffffffffffffffffffffffffffffffffffffffffffffffffffe0601f6040519485937f08c379a00000000000000000000000000000000000000000000000000000000085528160048601528051918291826024880152018686015e5f85828601015201168101030190fd5b6106b3906106486040610577565b90600282527f4233000000000000000000000000000000000000000000000000000000000000602083015273ffffffffffffffffffffffffffffffffffffffff807f0000000000000000000000000000000000000000000000000000000000000000169116146105bb565b565b6106b3906106c36040610577565b90600282527f4237000000000000000000000000000000000000000000000000000000000000602083015215156105bb565b91906014526034526fa9059cbb0000000000000000000000005f5260205f6044601082855af1908160015f51141615610731575b50505f603452565b3b153d171015610742575f80610729565b6390b8ec185f526004601cfd5b6106b39073ffffffffffffffffffffffffffffffffffffffff6107726040610577565b91600283527f423600000000000000000000000000000000000000000000000000000000000060208401521615156105bb56fea2646970667358221220f5e1b12491e708e266af55d94c9845e8d6de15230ffbd5413642232d41b1478364736f6c634300081e0033a2646970667358221220fabdec3947bf20d02380bfd1bcc1b56261297e652ae92a04e0ed649e6fb72a6464736f6c634300081e0033","linkReferences":{}},"methodIdentifiers":{"DOMAIN_SEPARATOR()":"3644e515","addFunction(bytes4,address,bool)":"30b88eef","addFunctions(bytes4[],address,bool)":"eeda387f","allowance(address,address)":"dd62ed3e","approve(address,uint256)":"095ea7b3","balanceOf(address)":"70a08231","burnFees(uint256)":"0342a6ba","cancelOwnershipHandover()":"54d1f13d","cancelStakeRequest(bytes32)":"d3856009","cancelUnstakeRequest(bytes32)":"3c138a92","claimStakedShares(bytes32)":"4a1daaef","claimUnstakedAssets(bytes32)":"0f83d6d9","closeBatch(bytes32,bool)":"bb507ab9","completeOwnershipHandover(address)":"f04e283e","createNewBatch()":"1875e8f5","decimals()":"313ce567","initialize(address,address,bool,string,string,uint8,address)":"330fda50","name()":"06fdde03","nonces(address)":"7ecebe00","notifyManagementFeesCharged(uint64)":"39d14dce","notifyPerformanceFeesCharged(uint64)":"9c8af15f","owner()":"8da5cb5b","ownershipHandoverExpiresAt(address)":"fee81cf4","permit(address,address,uint256,uint256,uint8,bytes32,bytes32)":"d505accf","proxiableUUID()":"52d1902d","removeFunction(bytes4)":"1b6991c7","removeFunctions(bytes4[])":"f8ffd889","renounceOwnership()":"715018a6","requestOwnershipHandover()":"25692962","requestStake(address,uint256)":"58c2fd00","requestUnstake(address,uint256)":"710ba631","setHardHurdleRate(bool)":"c0b1b037","setManagementFee(uint16)":"8dd09af3","setMaxTotalAssets(uint256)":"bc2e47b7","setPaused(bool)":"16c38b3c","setPerformanceFee(uint16)":"aa290e6d","settleBatch(bytes32)":"eeb8f2b5","symbol()":"95d89b41","totalSupply()":"18160ddd","transfer(address,uint256)":"a9059cbb","transferFrom(address,address,uint256)":"23b872dd","transferOwnership(address)":"f2fde38b","upgradeToAndCall(address,bytes)":"4f1ef286"},"storageLayout":{"storage":[],"types":{}},"id":64}