{"abi":[{"type":"function","name":"adminOf","inputs":[{"name":"proxy","type":"address","internalType":"address"}],"outputs":[{"name":"admin","type":"address","internalType":"address"}],"stateMutability":"view"},{"type":"function","name":"changeAdmin","inputs":[{"name":"proxy","type":"address","internalType":"address"},{"name":"admin","type":"address","internalType":"address"}],"outputs":[],"stateMutability":"nonpayable"},{"type":"function","name":"deploy","inputs":[{"name":"implementation","type":"address","internalType":"address"},{"name":"admin","type":"address","internalType":"address"}],"outputs":[{"name":"proxy","type":"address","internalType":"address"}],"stateMutability":"payable"},{"type":"function","name":"deployAndCall","inputs":[{"name":"implementation","type":"address","internalType":"address"},{"name":"admin","type":"address","internalType":"address"},{"name":"data","type":"bytes","internalType":"bytes"}],"outputs":[{"name":"proxy","type":"address","internalType":"address"}],"stateMutability":"payable"},{"type":"function","name":"deployDeterministic","inputs":[{"name":"implementation","type":"address","internalType":"address"},{"name":"admin","type":"address","internalType":"address"},{"name":"salt","type":"bytes32","internalType":"bytes32"}],"outputs":[{"name":"proxy","type":"address","internalType":"address"}],"stateMutability":"payable"},{"type":"function","name":"deployDeterministicAndCall","inputs":[{"name":"implementation","type":"address","internalType":"address"},{"name":"admin","type":"address","internalType":"address"},{"name":"salt","type":"bytes32","internalType":"bytes32"},{"name":"data","type":"bytes","internalType":"bytes"}],"outputs":[{"name":"proxy","type":"address","internalType":"address"}],"stateMutability":"payable"},{"type":"function","name":"initCodeHash","inputs":[],"outputs":[{"name":"result","type":"bytes32","internalType":"bytes32"}],"stateMutability":"view"},{"type":"function","name":"predictDeterministicAddress","inputs":[{"name":"salt","type":"bytes32","internalType":"bytes32"}],"outputs":[{"name":"predicted","type":"address","internalType":"address"}],"stateMutability":"view"},{"type":"function","name":"upgrade","inputs":[{"name":"proxy","type":"address","internalType":"address"},{"name":"implementation","type":"address","internalType":"address"}],"outputs":[],"stateMutability":"payable"},{"type":"function","name":"upgradeAndCall","inputs":[{"name":"proxy","type":"address","internalType":"address"},{"name":"implementation","type":"address","internalType":"address"},{"name":"data","type":"bytes","internalType":"bytes"}],"outputs":[],"stateMutability":"payable"},{"type":"event","name":"AdminChanged","inputs":[{"name":"proxy","type":"address","indexed":true,"internalType":"address"},{"name":"admin","type":"address","indexed":true,"internalType":"address"}],"anonymous":false},{"type":"event","name":"Deployed","inputs":[{"name":"proxy","type":"address","indexed":true,"internalType":"address"},{"name":"implementation","type":"address","indexed":true,"internalType":"address"},{"name":"admin","type":"address","indexed":true,"internalType":"address"}],"anonymous":false},{"type":"event","name":"Upgraded","inputs":[{"name":"proxy","type":"address","indexed":true,"internalType":"address"},{"name":"implementation","type":"address","indexed":true,"internalType":"address"}],"anonymous":false},{"type":"error","name":"DeploymentFailed","inputs":[]},{"type":"error","name":"SaltDoesNotStartWithCaller","inputs":[]},{"type":"error","name":"Unauthorized","inputs":[]},{"type":"error","name":"UpgradeFailed","inputs":[]}],"bytecode":{"object":"0x6080806040523460155761082e908161001a8239f35b5f80fdfe60806040526004361015610011575f80fd5b5f3560e01c80631acfd02a146100b45780632abbef15146100af5780633729f922146100aa5780634314f120146100a55780635414dff0146100a0578063545e7c611461009b5780639623609d1461009657806399a88ec414610091578063a97b90d51461008c5763db4c545e14610087575f80fd5b61060b565b6105af565b610525565b610489565b6103ce565b610373565b6102a8565b61019f565b610162565b34610118576040600319360112610118576100cd61011c565b6100d561013f565b908060601b3381540361010b578290557f7e644d79422f17c01e4894b5f4f588d331ebfa28653d42ae832dc59e38c9798f5f80a3005b6382b429005f526004601cfd5b5f80fd5b6004359073ffffffffffffffffffffffffffffffffffffffff8216820361011857565b6024359073ffffffffffffffffffffffffffffffffffffffff8216820361011857565b3461011857602060031936011261011857602061017d61011c565b60601b5473ffffffffffffffffffffffffffffffffffffffff60405191168152f35b6060600319360112610118576101b361011c565b6101bb61013f565b604435908160601c803314901517156101fc576020926101de925f923692610633565b73ffffffffffffffffffffffffffffffffffffffff60405191168152f35b632f6348365f526004601cfd5b9181601f840112156101185782359167ffffffffffffffff8311610118576020838186019501011161011857565b60606003198201126101185760043573ffffffffffffffffffffffffffffffffffffffff81168103610118579160243573ffffffffffffffffffffffffffffffffffffffff8116810361011857916044359067ffffffffffffffff8211610118576102a491600401610209565b9091565b6102b136610237565b9091906102bc6106bd565b926088601385015ff093841561036657825f9384938884527f360894a13ba1a3210667c828492db98dca3e2076cc3735a920a3ca505d382bbc602085015260408401376040019034865af11561035857602092818360601b55827fc95935a66d15e0da5e412aca0ad27ae891d20b2fb91cf3994b6a3bf2b81780825f80a473ffffffffffffffffffffffffffffffffffffffff60405191168152f35b3d15610366573d5f803e3d5ffd5b63301164255f526004601cfd5b3461011857602060031936011261011857600435608860136103936106bd565b012060ff5f536035523060601b600152601552602060555f205f60355273ffffffffffffffffffffffffffffffffffffffff60405191168152f35b6040600319360112610118576103e261011c565b6103ea61013f565b6103f26106bd565b906088601383015ff0918215610366575f604082868394527f360894a13ba1a3210667c828492db98dca3e2076cc3735a920a3ca505d382bbc60208201528236813734865af11561035857602092818360601b55827fc95935a66d15e0da5e412aca0ad27ae891d20b2fb91cf3994b6a3bf2b81780825f80a473ffffffffffffffffffffffffffffffffffffffff60405191168152f35b61049236610237565b929192338360601b540361010b575f91818392604051928784527f360894a13ba1a3210667c828492db98dca3e2076cc3735a920a3ca505d382bbc602085015260408401376040019034855af11561050a577f5d611f318680d00598bb735d61bacf0c514c6b50e1e5ad30040a4df2b12791c75f80a3005b3d15610518573d5f803e3d5ffd5b6355299b495f526004601cfd5b60406003193601126101185761053961011c565b61054161013f565b90338160601b540361010b575f80604080518581527f360894a13ba1a3210667c828492db98dca3e2076cc3735a920a3ca505d382bbc60208201528236813734855af11561050a577f5d611f318680d00598bb735d61bacf0c514c6b50e1e5ad30040a4df2b12791c75f80a3005b6080600319360112610118576105c361011c565b6105cb61013f565b9060443560643567ffffffffffffffff8111610118576105ef903690600401610209565b918060601c803314901517156101fc576020946101de94610633565b34610118575f600319360112610118576020608860136106296106bd565b0120604051908152f35b91949390926106406106bd565b956088601388015ff595861561036657825f9384938684527f360894a13ba1a3210667c828492db98dca3e2076cc3735a920a3ca505d382bbc602085015260408401376040019034885af11561035857818460601b55837fc95935a66d15e0da5e412aca0ad27ae891d20b2fb91cf3994b6a3bf2b81780825f80a4565b604051903060701c1561076157666052573d6000fd607b8301527f3d356020355560408036111560525736038060403d373d3d355af43d6000803e60748301527f3735a920a3ca505d382bbc545af43d6000803e6052573d6000fd5b3d6000f35b60548301527f14605757363d3d37363d7f360894a13ba1a3210667c828492db98dca3e2076cc60348301523060148301526c607f3d8160093d39f33d3d33738252565b66604c573d6000fd60758301527f3d3560203555604080361115604c5736038060403d373d3d355af43d6000803e606e8301527f3735a920a3ca505d382bbc545af43d6000803e604c573d6000fd5b3d6000f35b604e8301527f14605157363d3d37363d7f360894a13ba1a3210667c828492db98dca3e2076cc602e83015230600e8301526c60793d8160093d39f33d3d336d825256fea26469706673582212205eebb808563623fd53e94a528a4a73aab86e542e72ea0cdac5c2a3b6427fa5b664736f6c634300081e0033","linkReferences":{}},"methodIdentifiers":{"adminOf(address)":"2abbef15","changeAdmin(address,address)":"1acfd02a","deploy(address,address)":"545e7c61","deployAndCall(address,address,bytes)":"4314f120","deployDeterministic(address,address,bytes32)":"3729f922","deployDeterministicAndCall(address,address,bytes32,bytes)":"a97b90d5","initCodeHash()":"db4c545e","predictDeterministicAddress(bytes32)":"5414dff0","upgrade(address,address)":"99a88ec4","upgradeAndCall(address,address,bytes)":"9623609d"},"storageLayout":{"storage":[],"types":{}},"id":72}