{"abi":[{"type":"function","name":"cancelOwnershipHandover","inputs":[],"outputs":[],"stateMutability":"payable"},{"type":"function","name":"completeOwnershipHandover","inputs":[{"name":"pendingOwner","type":"address","internalType":"address"}],"outputs":[],"stateMutability":"payable"},{"type":"function","name":"grantRoles","inputs":[{"name":"user","type":"address","internalType":"address"},{"name":"roles","type":"uint256","internalType":"uint256"}],"outputs":[],"stateMutability":"payable"},{"type":"function","name":"hasAllRoles","inputs":[{"name":"user","type":"address","internalType":"address"},{"name":"roles","type":"uint256","internalType":"uint256"}],"outputs":[{"name":"","type":"bool","internalType":"bool"}],"stateMutability":"view"},{"type":"function","name":"hasAnyRole","inputs":[{"name":"user","type":"address","internalType":"address"},{"name":"roles","type":"uint256","internalType":"uint256"}],"outputs":[{"name":"","type":"bool","internalType":"bool"}],"stateMutability":"view"},{"type":"function","name":"owner","inputs":[],"outputs":[{"name":"result","type":"address","internalType":"address"}],"stateMutability":"view"},{"type":"function","name":"ownershipHandoverExpiresAt","inputs":[{"name":"pendingOwner","type":"address","internalType":"address"}],"outputs":[{"name":"result","type":"uint256","internalType":"uint256"}],"stateMutability":"view"},{"type":"function","name":"renounceOwnership","inputs":[],"outputs":[],"stateMutability":"payable"},{"type":"function","name":"renounceRoles","inputs":[{"name":"roles","type":"uint256","internalType":"uint256"}],"outputs":[],"stateMutability":"payable"},{"type":"function","name":"requestOwnershipHandover","inputs":[],"outputs":[],"stateMutability":"payable"},{"type":"function","name":"revokeRoles","inputs":[{"name":"user","type":"address","internalType":"address"},{"name":"roles","type":"uint256","internalType":"uint256"}],"outputs":[],"stateMutability":"payable"},{"type":"function","name":"rolesOf","inputs":[{"name":"user","type":"address","internalType":"address"}],"outputs":[{"name":"roles","type":"uint256","internalType":"uint256"}],"stateMutability":"view"},{"type":"function","name":"setPaused","inputs":[{"name":"paused_","type":"bool","internalType":"bool"}],"outputs":[],"stateMutability":"nonpayable"},{"type":"function","name":"transferOwnership","inputs":[{"name":"newOwner","type":"address","internalType":"address"}],"outputs":[],"stateMutability":"payable"},{"type":"event","name":"OwnershipHandoverCanceled","inputs":[{"name":"pendingOwner","type":"address","indexed":true,"internalType":"address"}],"anonymous":false},{"type":"event","name":"OwnershipHandoverRequested","inputs":[{"name":"pendingOwner","type":"address","indexed":true,"internalType":"address"}],"anonymous":false},{"type":"event","name":"OwnershipTransferred","inputs":[{"name":"oldOwner","type":"address","indexed":true,"internalType":"address"},{"name":"newOwner","type":"address","indexed":true,"internalType":"address"}],"anonymous":false},{"type":"event","name":"Paused","inputs":[{"name":"paused_","type":"bool","indexed":false,"internalType":"bool"}],"anonymous":false},{"type":"event","name":"RolesUpdated","inputs":[{"name":"user","type":"address","indexed":true,"internalType":"address"},{"name":"roles","type":"uint256","indexed":true,"internalType":"uint256"}],"anonymous":false},{"type":"error","name":"AlreadyInitialized","inputs":[]},{"type":"error","name":"NewOwnerIsZeroAddress","inputs":[]},{"type":"error","name":"NoHandoverRequest","inputs":[]},{"type":"error","name":"Unauthorized","inputs":[]}],"bytecode":{"object":"0x608080604052346015576106d7908161001a8239f35b5f80fdfe60806040526004361015610011575f80fd5b5f3560e01c806316c38b3c146103c3578063183a4f6e146103ab5780631c10893f1461034b5780631cd64df41461031257806325692962146102c95780632de94807146102975780634a4ee7b11461026f578063514e62fc1461023757806354d1f13d146101f3578063715018a6146101aa5780638da5cb5b14610173578063f04e283e14610126578063f2fde38b146100e95763fee81cf4146100b3575f80fd5b346100e55760206003193601126100e5576100cc610502565b63389a75e1600c525f52602080600c2054604051908152f35b5f80fd5b60206003193601126100e5576100fd610502565b6101056105f5565b8060601b156101195761011790610611565b005b637448fbae5f526004601cfd5b60206003193601126100e55761013a610502565b6101426105f5565b63389a75e1600c52805f526020600c209081544211610166575f6101179255610611565b636f5e88185f526004601cfd5b346100e5575f6003193601126100e5576020638b78c6d8195473ffffffffffffffffffffffffffffffffffffffff60405191168152f35b5f6003193601126100e5576101bd6105f5565b5f638b78c6d819547f8be0079c531659141344cd1fd0a4f28419497f9722a3daafe3b4186f6b6457e08280a35f638b78c6d81955005b5f6003193601126100e55763389a75e1600c52335f525f6020600c2055337ffa7b8eab7da67f412cc9575ed43464468f9bfbae89d1675917346ca6d8fe3c925f80a2005b346100e55760406003193601126100e557610250610502565b638b78c6d8600c525f52602060243581600c2054161515604051908152f35b60406003193601126100e557610117610286610502565b61028e6105f5565b6024359061065c565b346100e55760206003193601126100e5576102b0610502565b638b78c6d8600c525f52602080600c2054604051908152f35b5f6003193601126100e55763389a75e1600c52335f526202a30042016020600c2055337fdbf36a107da19e49527a7176a1babf963b4b0ff8cde35ee35d6cd8f1f9ac7e1d5f80a2005b346100e55760406003193601126100e557602061032d610502565b60243590638b78c6d8600c525f528082600c20541614604051908152f35b60406003193601126100e55761035f610502565b6103676105f5565b638b78c6d8600c525f526020600c20602435815417809155600c5160601c7f715ad5ce61fc9595c7b415289d59cf203f23a94fa06f04af7e489a0a76e1fe265f80a3005b60206003193601126100e5576101176004353361065c565b346100e55760206003193601126100e5576004358015158091036100e55760207f0e2fb031ee032dc02d8011dc50b816eb450cf856abd8261680dac74f72165bd291638b78c6d8600c52335f52610450600283600c2054161515610425610525565b907f4b4232000000000000000000000000000000000000000000000000000000000085830152610576565b7f841668355433cc9fb8fc1984bd90b939822ef590acd27927baab4c6b4fb12900546104ab61047d610525565b7f4b423400000000000000000000000000000000000000000000000000000000008582015260ff8316610576565b7fffffffffffffffffffffffffffffffffffffffffffffffffffffffffffff00ff61ff008360081b169116177f841668355433cc9fb8fc1984bd90b939822ef590acd27927baab4c6b4fb1290055604051908152a1005b6004359073ffffffffffffffffffffffffffffffffffffffff821682036100e557565b604051906040820182811067ffffffffffffffff8211176105495760405260038252565b7f4e487b71000000000000000000000000000000000000000000000000000000005f52604160045260245ffd5b1561057e5750565b60446020917fffffffffffffffffffffffffffffffffffffffffffffffffffffffffffffffe0601f6040519485937f08c379a00000000000000000000000000000000000000000000000000000000085528160048601528051918291826024880152018686015e5f85828601015201168101030190fd5b638b78c6d81954330361060457565b6382b429005f526004601cfd5b73ffffffffffffffffffffffffffffffffffffffff1680638b78c6d819547f8be0079c531659141344cd1fd0a4f28419497f9722a3daafe3b4186f6b6457e05f80a3638b78c6d81955565b638b78c6d8600c525f526020600c2090815490811618809155600c5160601c7f715ad5ce61fc9595c7b415289d59cf203f23a94fa06f04af7e489a0a76e1fe265f80a356fea2646970667358221220c8ff1ae80b1484ecf522e271c55dbed4e8a425e300faf00bd0d9b99fffa5a9b264736f6c634300081e0033","linkReferences":{}},"methodIdentifiers":{"cancelOwnershipHandover()":"54d1f13d","completeOwnershipHandover(address)":"f04e283e","grantRoles(address,uint256)":"1c10893f","hasAllRoles(address,uint256)":"1cd64df4","hasAnyRole(address,uint256)":"514e62fc","owner()":"8da5cb5b","ownershipHandoverExpiresAt(address)":"fee81cf4","renounceOwnership()":"715018a6","renounceRoles(uint256)":"183a4f6e","requestOwnershipHandover()":"25692962","revokeRoles(address,uint256)":"4a4ee7b1","rolesOf(address)":"2de94807","setPaused(bool)":"16c38b3c","transferOwnership(address)":"f2fde38b"},"storageLayout":{"storage":[],"types":{}},"id":39}