{"abi":[{"type":"constructor","inputs":[],"stateMutability":"nonpayable"},{"type":"function","name":"contractName","inputs":[],"outputs":[{"name":"","type":"string","internalType":"string"}],"stateMutability":"pure"},{"type":"function","name":"contractVersion","inputs":[],"outputs":[{"name":"","type":"string","internalType":"string"}],"stateMutability":"pure"},{"type":"function","name":"execute","inputs":[{"name":"targets","type":"address[]","internalType":"address[]"},{"name":"data","type":"bytes[]","internalType":"bytes[]"},{"name":"values","type":"uint256[]","internalType":"uint256[]"}],"outputs":[{"name":"result","type":"bytes[]","internalType":"bytes[]"}],"stateMutability":"payable"},{"type":"function","name":"initialize","inputs":[{"name":"registry_","type":"address","internalType":"address"}],"outputs":[],"stateMutability":"nonpayable"},{"type":"function","name":"proxiableUUID","inputs":[],"outputs":[{"name":"","type":"bytes32","internalType":"bytes32"}],"stateMutability":"view"},{"type":"function","name":"pull","inputs":[{"name":"asset_","type":"address","internalType":"address"},{"name":"amount_","type":"uint256","internalType":"uint256"}],"outputs":[],"stateMutability":"nonpayable"},{"type":"function","name":"rescueAssets","inputs":[{"name":"asset_","type":"address","internalType":"address"},{"name":"to_","type":"address","internalType":"address"},{"name":"amount_","type":"uint256","internalType":"uint256"}],"outputs":[],"stateMutability":"payable"},{"type":"function","name":"setPaused","inputs":[{"name":"paused_","type":"bool","internalType":"bool"}],"outputs":[],"stateMutability":"nonpayable"},{"type":"function","name":"setTotalAssets","inputs":[{"name":"totalAssets_","type":"uint256","internalType":"uint256"}],"outputs":[],"stateMutability":"nonpayable"},{"type":"function","name":"totalAssets","inputs":[],"outputs":[{"name":"","type":"uint256","internalType":"uint256"}],"stateMutability":"view"},{"type":"function","name":"upgradeToAndCall","inputs":[{"name":"newImplementation","type":"address","internalType":"address"},{"name":"data","type":"bytes","internalType":"bytes"}],"outputs":[],"stateMutability":"payable"},{"type":"event","name":"ContractInitialized","inputs":[{"name":"registry","type":"address","indexed":true,"internalType":"address"}],"anonymous":false},{"type":"event","name":"Executed","inputs":[{"name":"caller","type":"address","indexed":true,"internalType":"address"},{"name":"target","type":"address","indexed":true,"internalType":"address"},{"name":"data","type":"bytes","indexed":false,"internalType":"bytes"},{"name":"value","type":"uint256","indexed":false,"internalType":"uint256"},{"name":"result","type":"bytes","indexed":false,"internalType":"bytes"}],"anonymous":false},{"type":"event","name":"Initialized","inputs":[{"name":"version","type":"uint64","indexed":false,"internalType":"uint64"}],"anonymous":false},{"type":"event","name":"Paused","inputs":[{"name":"paused_","type":"bool","indexed":false,"internalType":"bool"}],"anonymous":false},{"type":"event","name":"RescuedAssets","inputs":[{"name":"asset_","type":"address","indexed":true,"internalType":"address"},{"name":"to_","type":"address","indexed":true,"internalType":"address"},{"name":"amount_","type":"uint256","indexed":false,"internalType":"uint256"}],"anonymous":false},{"type":"event","name":"RescuedETH","inputs":[{"name":"to_","type":"address","indexed":true,"internalType":"address"},{"name":"amount_","type":"uint256","indexed":false,"internalType":"uint256"}],"anonymous":false},{"type":"event","name":"TransferExecuted","inputs":[{"name":"asset","type":"address","indexed":true,"internalType":"address"},{"name":"to","type":"address","indexed":true,"internalType":"address"},{"name":"amount","type":"uint256","indexed":false,"internalType":"uint256"}],"anonymous":false},{"type":"event","name":"Upgraded","inputs":[{"name":"implementation","type":"address","indexed":true,"internalType":"address"}],"anonymous":false},{"type":"error","name":"InvalidInitialization","inputs":[]},{"type":"error","name":"NotInitializing","inputs":[]},{"type":"error","name":"UnauthorizedCallContext","inputs":[]},{"type":"error","name":"UpgradeFailed","inputs":[]}],"bytecode":{"object":"0x60a080604052346099573060805263409feecd195460018116608c5760011c6002600160401b0319016048575b6114f1908161009e8239608051818181610cbe0152610d6f0152f35b6002600160411b0363409feecd19556001600160401b0360209081527fc7f505b2f371ae2175ee4913f4499e1f2633a7b5936321eed1cdaeb6115181d29080a1602c565b63f92ee8a95f526004601cfd5b5f80fdfe6080806040526004361015610012575f80fd5b5f3560e01c90816301e1d1141461100b5750806316c38b3c14610eb95780631765b31314610e785780634f1ef28614610d1957806352d1902d14610cab57806375d0c0dc14610c4c578063947fe81214610666578063a0a8e46014610603578063c4d66de814610492578063d01b5de4146101e75763f2d5d56b14610095575f80fd5b346101d05760406003193601126101d0576100ae611044565b6024602073ffffffffffffffffffffffffffffffffffffffff7ff3245d0f4654bfd28a91ebbd673859481bdc20aeda8fc19798f835927d79aa005416604051928380927fa9c9a9180000000000000000000000000000000000000000000000000000000082527ff3bbf2dd6779e6fe2f6fb7cc20baa5140e39dd5b31ab45dfa7d512610b601f0d60048301525afa9081156101dc575f91610185575b610183836101788473ffffffffffffffffffffffffffffffffffffffff61016f61119b565b911633146111d6565b602435903390611461565b005b90506020813d6020116101d4575b816101a0602093836110db565b810103126101d057519073ffffffffffffffffffffffffffffffffffffffff821682036101d0579061017861014a565b5f80fd5b3d9150610193565b6040513d5f823e3d90fd5b60606003193601126101d0576101fb611044565b6024359073ffffffffffffffffffffffffffffffffffffffff8216918281036101d0576044359161022b3361137b565b61023e610236611426565b8515156111d6565b73ffffffffffffffffffffffffffffffffffffffff811690816103235750508161030b5f808080856020977f63b8c8e180bc85c19daef23e2bb787fb49672d3a9ecde24409c18ccb1accb5d199151580610319575b6102a59061029f611340565b906111d6565b5af13d15610314573d6102b781611161565b906102c560405192836110db565b81525f853d92013e5b604051906102dd6040836110db565b600382527f5641380000000000000000000000000000000000000000000000000000000000858301526111d6565b604051908152a2005b6102ce565b5047821115610293565b90926024602073ffffffffffffffffffffffffffffffffffffffff7ff3245d0f4654bfd28a91ebbd673859481bdc20aeda8fc19798f835927d79aa005416604051928380927fc87fa42a0000000000000000000000000000000000000000000000000000000082528960048301525afa80156101dc577f552c8f8dc30f2786e14004d98595afcc1c0ea1f552b86e86f64a2da74761eaab9460209461040c8593610426955f91610465575b50604051906103de6040836110db565b600382527f5641390000000000000000000000000000000000000000000000000000000000898301526111d6565b8215158061042f575b6104219061029f611340565b611461565b604051908152a3005b50306014526f70a082310000000000000000000000005f52610421868060246010855afa601f3d11168751028411159050610415565b6104859150883d8a1161048b575b61047d81836110db565b810190611149565b8b6103ce565b503d610473565b346101d05760206003193601126101d0576104ab611044565b7fffffffffffffffffffffffffffffffffffffffffffffffffffffffffbf60113290815480600384556105c7575b5073ffffffffffffffffffffffffffffffffffffffff8291166105056104fd611426565b8215156111d6565b807fffffffffffffffffffffffff00000000000000000000000000000000000000007ff3245d0f4654bfd28a91ebbd673859481bdc20aeda8fc19798f835927d79aa005416177ff3245d0f4654bfd28a91ebbd673859481bdc20aeda8fc19798f835927d79aa00557fb8bb5a08c752924168166e254455ca6708ef2ac4cfd39bba39eb5a5b89f0cbd65f80a261059757005b6002905560016020527fc7f505b2f371ae2175ee4913f4499e1f2633a7b5936321eed1cdaeb6115181d2602080a1005b91600183811c14303b10156105f65773ffffffffffffffffffffffffffffffffffffffff9260ff1b1b916104d9565b63f92ee8a95f526004601cfd5b346101d0575f6003193601126101d0576106626040516106246040826110db565b600581527f312e302e300000000000000000000000000000000000000000000000000000006020820152604051918291602083526020830190611067565b0390f35b60606003193601126101d05760043567ffffffffffffffff81116101d0576106929036906004016110aa565b60243567ffffffffffffffff81116101d0576106b29036906004016110aa565b60449291923567ffffffffffffffff81116101d0576106d59036906004016110aa565b9060409461071a86516106e888826110db565b600481527f564131350000000000000000000000000000000000000000000000000000000060208201528615156111d6565b83851480610c43575b86516107629161073389836110db565b600482527f564131340000000000000000000000000000000000000000000000000000000060208301526111d6565b7ff3245d0f4654bfd28a91ebbd673859481bdc20aeda8fc19798f835927d79aa0054936107e373ffffffffffffffffffffffffffffffffffffffff86169560ff8951916107af8b846110db565b600383527f5641350000000000000000000000000000000000000000000000000000000000602084015260a01c16156111d6565b86517ff3ae2415000000000000000000000000000000000000000000000000000000008152336004820152602081602481895afa908115610c395790610836915f91610c1a575b5061029f99989961119b565b61083f86611220565b9661084c895198896110db565b8688527fffffffffffffffffffffffffffffffffffffffffffffffffffffffffffffffe061087988611220565b015f5b818110610c075750505f5b87811061090f57888a8051918291602083016020845282518091526020828501928260051b8601019301915f905b8282106108c457505050500390f35b919360206108ff827fffffffffffffffffffffffffffffffffffffffffffffffffffffffffffffffc060019597998495030186528851611067565b96019201920185949391926108b5565b61091a818486611238565b90357fffffffff0000000000000000000000000000000000000000000000000000000081169160048110610bd2575b5050610956828587611238565b806004116101d05761097191600460031936930191016112c5565b61098461097f848c876112fb565b61130b565b90893b156101d0575f91610a1073ffffffffffffffffffffffffffffffffffffffff928f7fffffffff00000000000000000000000000000000000000000000000000000000905196879586957f498b19eb000000000000000000000000000000000000000000000000000000008752166004860152166024840152606060448401526064830190611067565b03818b5afa8015610bc857610bb8575b50610a2f61097f828a856112fb565b610a3a8288886112fb565b35905f610a52610a4b85888a611238565b36916112c5565b8d5181519094389260200190855af115610baf578a8887878f94888f91978d99983d15610b83575b5093610b1789610b1081610b088160019f99610b028f8f7f4e2058815a1087a94d8a92ecdce2f91d1370aa8c270ef97b0f28e0a3c6f68a879f9e9c73ffffffffffffffffffffffffffffffffffffffff9c610afc610b7a9f8894859161097f973d82523d5f602084013e60203d8301019052610af6838361132c565b5261132c565b506112fb565b97611238565b9990986112fb565b359861132c565b51977fffffffffffffffffffffffffffffffffffffffffffffffffffffffffffffffe0601f87835198899860608a528160608b015260808a01375f6080828a01015201168501976020860152608085890301908501521695608033960190611067565b0390a301610887565b975098505050505050503b15610ba2578a8a8887878d888c985f610a7a565b635a836a5f5f526004601cfd5b503d5f823e3d90fd5b5f610bc2916110db565b8a610a20565b8b513d5f823e3d90fd5b7fffffffff000000000000000000000000000000000000000000000000000000009250829060040360031b1b16168b80610949565b60606020828c018101919091520161087c565b610c33915060203d60201161048b5761047d81836110db565b8a61082a565b88513d5f823e3d90fd5b50848314610723565b346101d0575f6003193601126101d057610662604051610c6d6040826110db565b600c81527f5661756c744164617074657200000000000000000000000000000000000000006020820152604051918291602083526020830190611067565b346101d0575f6003193601126101d057307f000000000000000000000000000000000000000000000000000000000000000003610d0c5760206040517f360894a13ba1a3210667c828492db98dca3e2076cc3735a920a3ca505d382bbc8152f35b639f03a0265f526004601cfd5b60406003193601126101d057610d2d611044565b6024359067ffffffffffffffff82116101d057366023830112156101d05781600401359067ffffffffffffffff82116101d05736602483850101116101d057307f000000000000000000000000000000000000000000000000000000000000000014610d0c5773ffffffffffffffffffffffffffffffffffffffff90610db23361137b565b16610dbe6104fd611426565b3d5f526352d1902d6001527f360894a13ba1a3210667c828492db98dca3e2076cc3735a920a3ca505d382bbc602060016004601d855afa5103610e6a57807fbc7cd75a20ee27fd9adebab32041f755214dbc6bffa90cc0225b39da2e5c2d3b5f80a281817f360894a13ba1a3210667c828492db98dca3e2076cc3735a920a3ca505d382bbc55610e4a57005b815f926024604051950185378338925af415610e6257005b3d5f823e3d90fd5b6355299b496001526004601dfd5b346101d05760206003193601126101d057610e923361137b565b6004357ff3245d0f4654bfd28a91ebbd673859481bdc20aeda8fc19798f835927d79aa0155005b346101d05760206003193601126101d0576004358015158091036101d0577ff3245d0f4654bfd28a91ebbd673859481bdc20aeda8fc19798f835927d79aa0054604051917f2500f2b600000000000000000000000000000000000000000000000000000000835233600484015260208360248173ffffffffffffffffffffffffffffffffffffffff86165afa9182156101dc57610f846020937f0e2fb031ee032dc02d8011dc50b816eb450cf856abd8261680dac74f72165bd2955f91610fee575b5061029f61119b565b7fffffffffffffffffffffff00ffffffffffffffffffffffffffffffffffffffff74ff00000000000000000000000000000000000000008360a01b169116177ff3245d0f4654bfd28a91ebbd673859481bdc20aeda8fc19798f835927d79aa0055604051908152a1005b6110059150853d871161048b5761047d81836110db565b86610f7b565b346101d0575f6003193601126101d0576020907ff3245d0f4654bfd28a91ebbd673859481bdc20aeda8fc19798f835927d79aa01548152f35b6004359073ffffffffffffffffffffffffffffffffffffffff821682036101d057565b907fffffffffffffffffffffffffffffffffffffffffffffffffffffffffffffffe0601f602080948051918291828752018686015e5f8582860101520116010190565b9181601f840112156101d05782359167ffffffffffffffff83116101d0576020808501948460051b0101116101d057565b90601f7fffffffffffffffffffffffffffffffffffffffffffffffffffffffffffffffe0910116810190811067ffffffffffffffff82111761111c57604052565b7f4e487b71000000000000000000000000000000000000000000000000000000005f52604160045260245ffd5b908160209103126101d0575180151581036101d05790565b67ffffffffffffffff811161111c57601f017fffffffffffffffffffffffffffffffffffffffffffffffffffffffffffffffe01660200190565b604051906111aa6040836110db565b600382527f56413400000000000000000000000000000000000000000000000000000000006020830152565b156111de5750565b61121c906040519182917f08c379a0000000000000000000000000000000000000000000000000000000008352602060048401526024830190611067565b0390fd5b67ffffffffffffffff811161111c5760051b60200190565b91908110156112985760051b810135907fffffffffffffffffffffffffffffffffffffffffffffffffffffffffffffffe1813603018212156101d057019081359167ffffffffffffffff83116101d05760200182360381136101d0579190565b7f4e487b71000000000000000000000000000000000000000000000000000000005f52603260045260245ffd5b9291926112d182611161565b916112df60405193846110db565b8294818452818301116101d0578281602093845f960137010152565b91908110156112985760051b0190565b3573ffffffffffffffffffffffffffffffffffffffff811681036101d05790565b80518210156112985760209160051b010190565b6040519061134f6040836110db565b600382527f56413700000000000000000000000000000000000000000000000000000000006020830152565b602073ffffffffffffffffffffffffffffffffffffffff6024817ff3245d0f4654bfd28a91ebbd673859481bdc20aeda8fc19798f835927d79aa0054169360405194859384927f24d7806c0000000000000000000000000000000000000000000000000000000084521660048301525afa80156101dc57611405915f91611407575061029f61119b565b565b611420915060203d60201161048b5761047d81836110db565b5f610f7b565b604051906114356040836110db565b600382527f56413300000000000000000000000000000000000000000000000000000000006020830152565b91906014526034526fa9059cbb0000000000000000000000005f5260205f6044601082855af1908160015f5114161561149d575b50505f603452565b3b153d1710156114ae575f80611495565b6390b8ec185f526004601cfdfea2646970667358221220404066dc825716834a9dae9ce23b9bf2a80c48747e8b1bee6b87fd4c21650cc564736f6c634300081e0033","linkReferences":{}},"methodIdentifiers":{"contractName()":"75d0c0dc","contractVersion()":"a0a8e460","execute(address[],bytes[],uint256[])":"947fe812","initialize(address)":"c4d66de8","proxiableUUID()":"52d1902d","pull(address,uint256)":"f2d5d56b","rescueAssets(address,address,uint256)":"d01b5de4","setPaused(bool)":"16c38b3c","setTotalAssets(uint256)":"1765b313","totalAssets()":"01e1d114","upgradeToAndCall(address,bytes)":"4f1ef286"},"storageLayout":{"storage":[],"types":{}},"id":35}