{"abi":[{"type":"constructor","inputs":[],"stateMutability":"nonpayable"},{"type":"function","name":"contractName","inputs":[],"outputs":[{"name":"","type":"string","internalType":"string"}],"stateMutability":"pure"},{"type":"function","name":"contractVersion","inputs":[],"outputs":[{"name":"","type":"string","internalType":"string"}],"stateMutability":"pure"},{"type":"function","name":"execute","inputs":[{"name":"targets","type":"address[]","internalType":"address[]"},{"name":"data","type":"bytes[]","internalType":"bytes[]"},{"name":"values","type":"uint256[]","internalType":"uint256[]"}],"outputs":[{"name":"result","type":"bytes[]","internalType":"bytes[]"}],"stateMutability":"payable"},{"type":"function","name":"initialize","inputs":[{"name":"registry_","type":"address","internalType":"address"}],"outputs":[],"stateMutability":"nonpayable"},{"type":"function","name":"proxiableUUID","inputs":[],"outputs":[{"name":"","type":"bytes32","internalType":"bytes32"}],"stateMutability":"view"},{"type":"function","name":"rescueAssets","inputs":[{"name":"asset_","type":"address","internalType":"address"},{"name":"to_","type":"address","internalType":"address"},{"name":"amount_","type":"uint256","internalType":"uint256"}],"outputs":[],"stateMutability":"payable"},{"type":"function","name":"setPaused","inputs":[{"name":"paused_","type":"bool","internalType":"bool"}],"outputs":[],"stateMutability":"nonpayable"},{"type":"function","name":"setTotalAssets","inputs":[{"name":"totalAssets_","type":"uint256","internalType":"uint256"}],"outputs":[],"stateMutability":"nonpayable"},{"type":"function","name":"totalAssets","inputs":[],"outputs":[{"name":"","type":"uint256","internalType":"uint256"}],"stateMutability":"view"},{"type":"function","name":"upgradeToAndCall","inputs":[{"name":"newImplementation","type":"address","internalType":"address"},{"name":"data","type":"bytes","internalType":"bytes"}],"outputs":[],"stateMutability":"payable"},{"type":"event","name":"ContractInitialized","inputs":[{"name":"registry","type":"address","indexed":true,"internalType":"address"}],"anonymous":false},{"type":"event","name":"Executed","inputs":[{"name":"caller","type":"address","indexed":true,"internalType":"address"},{"name":"target","type":"address","indexed":true,"internalType":"address"},{"name":"data","type":"bytes","indexed":false,"internalType":"bytes"},{"name":"value","type":"uint256","indexed":false,"internalType":"uint256"},{"name":"result","type":"bytes","indexed":false,"internalType":"bytes"}],"anonymous":false},{"type":"event","name":"Initialized","inputs":[{"name":"version","type":"uint64","indexed":false,"internalType":"uint64"}],"anonymous":false},{"type":"event","name":"Paused","inputs":[{"name":"paused_","type":"bool","indexed":false,"internalType":"bool"}],"anonymous":false},{"type":"event","name":"RescuedAssets","inputs":[{"name":"asset_","type":"address","indexed":true,"internalType":"address"},{"name":"to_","type":"address","indexed":true,"internalType":"address"},{"name":"amount_","type":"uint256","indexed":false,"internalType":"uint256"}],"anonymous":false},{"type":"event","name":"RescuedETH","inputs":[{"name":"to_","type":"address","indexed":true,"internalType":"address"},{"name":"amount_","type":"uint256","indexed":false,"internalType":"uint256"}],"anonymous":false},{"type":"event","name":"TransferExecuted","inputs":[{"name":"asset","type":"address","indexed":true,"internalType":"address"},{"name":"to","type":"address","indexed":true,"internalType":"address"},{"name":"amount","type":"uint256","indexed":false,"internalType":"uint256"}],"anonymous":false},{"type":"event","name":"Upgraded","inputs":[{"name":"implementation","type":"address","indexed":true,"internalType":"address"}],"anonymous":false},{"type":"error","name":"InvalidInitialization","inputs":[]},{"type":"error","name":"NotInitializing","inputs":[]},{"type":"error","name":"UnauthorizedCallContext","inputs":[]},{"type":"error","name":"UpgradeFailed","inputs":[]}],"bytecode":{"object":"0x60a080604052346099573060805263409feecd195460018116608c5760011c6002600160401b0319016048575b611399908161009e8239608051818181610bc00152610c710152f35b6002600160411b0363409feecd19556001600160401b0360209081527fc7f505b2f371ae2175ee4913f4499e1f2633a7b5936321eed1cdaeb6115181d29080a1602c565b63f92ee8a95f526004601cfd5b5f80fdfe6080806040526004361015610012575f80fd5b5f3560e01c90816301e1d11414610f0d5750806316c38b3c14610dbb5780631765b31314610d7a5780634f1ef28614610c1b57806352d1902d14610bad57806375d0c0dc14610b4e578063947fe81214610568578063a0a8e46014610505578063c4d66de8146103945763d01b5de41461008a575f80fd5b60606003193601126103905761009e610f46565b60243573ffffffffffffffffffffffffffffffffffffffff81169182820361039057604435906100cd3361127d565b6100e06100d8611328565b8515156110d8565b73ffffffffffffffffffffffffffffffffffffffff811690816101c5575050806101ad5f808080857f63b8c8e180bc85c19daef23e2bb787fb49672d3a9ecde24409c18ccb1accb5d1986020981515806101bb575b61014790610141611242565b906110d8565b5af13d156101b6573d61015981611063565b906101676040519283610fdd565b81525f853d92013e5b6040519061017f604083610fdd565b600382527f5641380000000000000000000000000000000000000000000000000000000000858301526110d8565b604051908152a2005b610170565b5047821115610135565b90926024602073ffffffffffffffffffffffffffffffffffffffff7ff3245d0f4654bfd28a91ebbd673859481bdc20aeda8fc19798f835927d79aa005416604051928380927fc87fa42a0000000000000000000000000000000000000000000000000000000082528960048301525afa801561038557610285915f91610356575b5060405190610256604083610fdd565b600382527f564139000000000000000000000000000000000000000000000000000000000060208301526110d8565b8215158061031e575b61029a90610141611242565b601452816034526fa9059cbb0000000000000000000000005f5260205f6044601082855af1908160015f51141615610300575b505060207f552c8f8dc30f2786e14004d98595afcc1c0ea1f552b86e86f64a2da74761eaab915f603452604051908152a3005b3b153d171015610311575f806102cd565b6390b8ec185f526004601cfd5b50306014526f70a082310000000000000000000000005f5261029a60208060246010865afa601f3d111660205102841115905061028e565b610378915060203d60201161037e575b6103708183610fdd565b81019061104b565b5f610246565b503d610366565b6040513d5f823e3d90fd5b5f80fd5b34610390576020600319360112610390576103ad610f46565b7fffffffffffffffffffffffffffffffffffffffffffffffffffffffffbf60113290815480600384556104c9575b5073ffffffffffffffffffffffffffffffffffffffff8291166104076103ff611328565b8215156110d8565b807fffffffffffffffffffffffff00000000000000000000000000000000000000007ff3245d0f4654bfd28a91ebbd673859481bdc20aeda8fc19798f835927d79aa005416177ff3245d0f4654bfd28a91ebbd673859481bdc20aeda8fc19798f835927d79aa00557fb8bb5a08c752924168166e254455ca6708ef2ac4cfd39bba39eb5a5b89f0cbd65f80a261049957005b6002905560016020527fc7f505b2f371ae2175ee4913f4499e1f2633a7b5936321eed1cdaeb6115181d2602080a1005b91600183811c14303b10156104f85773ffffffffffffffffffffffffffffffffffffffff9260ff1b1b916103db565b63f92ee8a95f526004601cfd5b34610390575f60031936011261039057610564604051610526604082610fdd565b600581527f312e302e300000000000000000000000000000000000000000000000000000006020820152604051918291602083526020830190610f69565b0390f35b60606003193601126103905760043567ffffffffffffffff811161039057610594903690600401610fac565b60243567ffffffffffffffff8111610390576105b4903690600401610fac565b60449291923567ffffffffffffffff8111610390576105d7903690600401610fac565b9060409461061c86516105ea8882610fdd565b600481527f564131350000000000000000000000000000000000000000000000000000000060208201528615156110d8565b83851480610b45575b8651610664916106358983610fdd565b600482527f564131340000000000000000000000000000000000000000000000000000000060208301526110d8565b7ff3245d0f4654bfd28a91ebbd673859481bdc20aeda8fc19798f835927d79aa0054936106e573ffffffffffffffffffffffffffffffffffffffff86169560ff8951916106b18b84610fdd565b600383527f5641350000000000000000000000000000000000000000000000000000000000602084015260a01c16156110d8565b86517ff3ae2415000000000000000000000000000000000000000000000000000000008152336004820152602081602481895afa908115610b3b5790610738915f91610b1c575b5061014199989961109d565b61074186611122565b9661074e89519889610fdd565b8688527fffffffffffffffffffffffffffffffffffffffffffffffffffffffffffffffe061077b88611122565b015f5b818110610b095750505f5b87811061081157888a8051918291602083016020845282518091526020828501928260051b8601019301915f905b8282106107c657505050500390f35b91936020610801827fffffffffffffffffffffffffffffffffffffffffffffffffffffffffffffffc060019597998495030186528851610f69565b96019201920185949391926107b7565b61081c81848661113a565b90357fffffffff0000000000000000000000000000000000000000000000000000000081169160048110610ad4575b505061085882858761113a565b806004116103905761087391600460031936930191016111c7565b610886610881848c876111fd565b61120d565b90893b15610390575f9161091273ffffffffffffffffffffffffffffffffffffffff928f7fffffffff00000000000000000000000000000000000000000000000000000000905196879586957f498b19eb000000000000000000000000000000000000000000000000000000008752166004860152166024840152606060448401526064830190610f69565b03818b5afa8015610aca57610aba575b50610931610881828a856111fd565b61093c8288886111fd565b35905f61095461094d85888a61113a565b36916111c7565b8d5181519094389260200190855af115610ab1578a8887878f94888f91978d99983d15610a85575b5093610a1989610a1281610a0a8160019f99610a048f8f7f4e2058815a1087a94d8a92ecdce2f91d1370aa8c270ef97b0f28e0a3c6f68a879f9e9c73ffffffffffffffffffffffffffffffffffffffff9c6109fe610a7c9f88948591610881973d82523d5f602084013e60203d83010190526109f8838361122e565b5261122e565b506111fd565b9761113a565b9990986111fd565b359861122e565b51977fffffffffffffffffffffffffffffffffffffffffffffffffffffffffffffffe0601f87835198899860608a528160608b015260808a01375f6080828a01015201168501976020860152608085890301908501521695608033960190610f69565b0390a301610789565b975098505050505050503b15610aa4578a8a8887878d888c985f61097c565b635a836a5f5f526004601cfd5b503d5f823e3d90fd5b5f610ac491610fdd565b8a610922565b8b513d5f823e3d90fd5b7fffffffff000000000000000000000000000000000000000000000000000000009250829060040360031b1b16168b8061084b565b60606020828c018101919091520161077e565b610b35915060203d60201161037e576103708183610fdd565b8a61072c565b88513d5f823e3d90fd5b50848314610625565b34610390575f60031936011261039057610564604051610b6f604082610fdd565b600c81527f5661756c744164617074657200000000000000000000000000000000000000006020820152604051918291602083526020830190610f69565b34610390575f60031936011261039057307f000000000000000000000000000000000000000000000000000000000000000003610c0e5760206040517f360894a13ba1a3210667c828492db98dca3e2076cc3735a920a3ca505d382bbc8152f35b639f03a0265f526004601cfd5b604060031936011261039057610c2f610f46565b6024359067ffffffffffffffff821161039057366023830112156103905781600401359067ffffffffffffffff821161039057366024838501011161039057307f000000000000000000000000000000000000000000000000000000000000000014610c0e5773ffffffffffffffffffffffffffffffffffffffff90610cb43361127d565b16610cc06103ff611328565b3d5f526352d1902d6001527f360894a13ba1a3210667c828492db98dca3e2076cc3735a920a3ca505d382bbc602060016004601d855afa5103610d6c57807fbc7cd75a20ee27fd9adebab32041f755214dbc6bffa90cc0225b39da2e5c2d3b5f80a281817f360894a13ba1a3210667c828492db98dca3e2076cc3735a920a3ca505d382bbc55610d4c57005b815f926024604051950185378338925af415610d6457005b3d5f823e3d90fd5b6355299b496001526004601dfd5b3461039057602060031936011261039057610d943361127d565b6004357ff3245d0f4654bfd28a91ebbd673859481bdc20aeda8fc19798f835927d79aa0155005b3461039057602060031936011261039057600435801515809103610390577ff3245d0f4654bfd28a91ebbd673859481bdc20aeda8fc19798f835927d79aa0054604051917f2500f2b600000000000000000000000000000000000000000000000000000000835233600484015260208360248173ffffffffffffffffffffffffffffffffffffffff86165afa91821561038557610e866020937f0e2fb031ee032dc02d8011dc50b816eb450cf856abd8261680dac74f72165bd2955f91610ef0575b5061014161109d565b7fffffffffffffffffffffff00ffffffffffffffffffffffffffffffffffffffff74ff00000000000000000000000000000000000000008360a01b169116177ff3245d0f4654bfd28a91ebbd673859481bdc20aeda8fc19798f835927d79aa0055604051908152a1005b610f079150853d871161037e576103708183610fdd565b86610e7d565b34610390575f600319360112610390576020907ff3245d0f4654bfd28a91ebbd673859481bdc20aeda8fc19798f835927d79aa01548152f35b6004359073ffffffffffffffffffffffffffffffffffffffff8216820361039057565b907fffffffffffffffffffffffffffffffffffffffffffffffffffffffffffffffe0601f602080948051918291828752018686015e5f8582860101520116010190565b9181601f840112156103905782359167ffffffffffffffff8311610390576020808501948460051b01011161039057565b90601f7fffffffffffffffffffffffffffffffffffffffffffffffffffffffffffffffe0910116810190811067ffffffffffffffff82111761101e57604052565b7f4e487b71000000000000000000000000000000000000000000000000000000005f52604160045260245ffd5b90816020910312610390575180151581036103905790565b67ffffffffffffffff811161101e57601f017fffffffffffffffffffffffffffffffffffffffffffffffffffffffffffffffe01660200190565b604051906110ac604083610fdd565b600382527f56413400000000000000000000000000000000000000000000000000000000006020830152565b156110e05750565b61111e906040519182917f08c379a0000000000000000000000000000000000000000000000000000000008352602060048401526024830190610f69565b0390fd5b67ffffffffffffffff811161101e5760051b60200190565b919081101561119a5760051b810135907fffffffffffffffffffffffffffffffffffffffffffffffffffffffffffffffe18136030182121561039057019081359167ffffffffffffffff8311610390576020018236038113610390579190565b7f4e487b71000000000000000000000000000000000000000000000000000000005f52603260045260245ffd5b9291926111d382611063565b916111e16040519384610fdd565b829481845281830111610390578281602093845f960137010152565b919081101561119a5760051b0190565b3573ffffffffffffffffffffffffffffffffffffffff811681036103905790565b805182101561119a5760209160051b010190565b60405190611251604083610fdd565b600382527f56413700000000000000000000000000000000000000000000000000000000006020830152565b602073ffffffffffffffffffffffffffffffffffffffff6024817ff3245d0f4654bfd28a91ebbd673859481bdc20aeda8fc19798f835927d79aa0054169360405194859384927f24d7806c0000000000000000000000000000000000000000000000000000000084521660048301525afa801561038557611307915f91611309575061014161109d565b565b611322915060203d60201161037e576103708183610fdd565b5f610e7d565b60405190611337604083610fdd565b600382527f5641330000000000000000000000000000000000000000000000000000000000602083015256fea26469706673582212203bbe03eb0f1a3ef2582740b2d97c4d0f3c120974a4f194a0f8d3ef210fec250e64736f6c634300081e0033","linkReferences":{}},"methodIdentifiers":{"contractName()":"75d0c0dc","contractVersion()":"a0a8e460","execute(address[],bytes[],uint256[])":"947fe812","initialize(address)":"c4d66de8","proxiableUUID()":"52d1902d","rescueAssets(address,address,uint256)":"d01b5de4","setPaused(bool)":"16c38b3c","setTotalAssets(uint256)":"1765b313","totalAssets()":"01e1d114","upgradeToAndCall(address,bytes)":"4f1ef286"},"storageLayout":{"storage":[],"types":{}},"id":35}