{"abi":[{"type":"constructor","inputs":[{"name":"name_","type":"string","internalType":"string"},{"name":"symbol_","type":"string","internalType":"string"},{"name":"decimals_","type":"uint8","internalType":"uint8"}],"stateMutability":"nonpayable"},{"type":"function","name":"DOMAIN_SEPARATOR","inputs":[],"outputs":[{"name":"result","type":"bytes32","internalType":"bytes32"}],"stateMutability":"view"},{"type":"function","name":"allowance","inputs":[{"name":"owner","type":"address","internalType":"address"},{"name":"spender","type":"address","internalType":"address"}],"outputs":[{"name":"result","type":"uint256","internalType":"uint256"}],"stateMutability":"view"},{"type":"function","name":"approve","inputs":[{"name":"spender","type":"address","internalType":"address"},{"name":"amount","type":"uint256","internalType":"uint256"}],"outputs":[{"name":"","type":"bool","internalType":"bool"}],"stateMutability":"nonpayable"},{"type":"function","name":"balanceOf","inputs":[{"name":"owner","type":"address","internalType":"address"}],"outputs":[{"name":"result","type":"uint256","internalType":"uint256"}],"stateMutability":"view"},{"type":"function","name":"burn","inputs":[{"name":"from","type":"address","internalType":"address"},{"name":"amount","type":"uint256","internalType":"uint256"}],"outputs":[],"stateMutability":"nonpayable"},{"type":"function","name":"decimals","inputs":[],"outputs":[{"name":"","type":"uint8","internalType":"uint8"}],"stateMutability":"view"},{"type":"function","name":"mint","inputs":[{"name":"to","type":"address","internalType":"address"},{"name":"amount","type":"uint256","internalType":"uint256"}],"outputs":[],"stateMutability":"nonpayable"},{"type":"function","name":"name","inputs":[],"outputs":[{"name":"","type":"string","internalType":"string"}],"stateMutability":"view"},{"type":"function","name":"nonces","inputs":[{"name":"owner","type":"address","internalType":"address"}],"outputs":[{"name":"result","type":"uint256","internalType":"uint256"}],"stateMutability":"view"},{"type":"function","name":"permit","inputs":[{"name":"owner","type":"address","internalType":"address"},{"name":"spender","type":"address","internalType":"address"},{"name":"value","type":"uint256","internalType":"uint256"},{"name":"deadline","type":"uint256","internalType":"uint256"},{"name":"v","type":"uint8","internalType":"uint8"},{"name":"r","type":"bytes32","internalType":"bytes32"},{"name":"s","type":"bytes32","internalType":"bytes32"}],"outputs":[],"stateMutability":"nonpayable"},{"type":"function","name":"symbol","inputs":[],"outputs":[{"name":"","type":"string","internalType":"string"}],"stateMutability":"view"},{"type":"function","name":"totalSupply","inputs":[],"outputs":[{"name":"result","type":"uint256","internalType":"uint256"}],"stateMutability":"view"},{"type":"function","name":"transfer","inputs":[{"name":"to","type":"address","internalType":"address"},{"name":"amount","type":"uint256","internalType":"uint256"}],"outputs":[{"name":"","type":"bool","internalType":"bool"}],"stateMutability":"nonpayable"},{"type":"function","name":"transferFrom","inputs":[{"name":"from","type":"address","internalType":"address"},{"name":"to","type":"address","internalType":"address"},{"name":"amount","type":"uint256","internalType":"uint256"}],"outputs":[{"name":"","type":"bool","internalType":"bool"}],"stateMutability":"nonpayable"},{"type":"event","name":"Approval","inputs":[{"name":"owner","type":"address","indexed":true,"internalType":"address"},{"name":"spender","type":"address","indexed":true,"internalType":"address"},{"name":"amount","type":"uint256","indexed":false,"internalType":"uint256"}],"anonymous":false},{"type":"event","name":"Transfer","inputs":[{"name":"from","type":"address","indexed":true,"internalType":"address"},{"name":"to","type":"address","indexed":true,"internalType":"address"},{"name":"amount","type":"uint256","indexed":false,"internalType":"uint256"}],"anonymous":false},{"type":"error","name":"AllowanceOverflow","inputs":[]},{"type":"error","name":"AllowanceUnderflow","inputs":[]},{"type":"error","name":"InsufficientAllowance","inputs":[]},{"type":"error","name":"InsufficientBalance","inputs":[]},{"type":"error","name":"InvalidPermit","inputs":[]},{"type":"error","name":"Permit2AllowanceIsFixedAtInfinity","inputs":[]},{"type":"error","name":"PermitExpired","inputs":[]},{"type":"error","name":"TotalSupplyOverflow","inputs":[]}],"bytecode":{"object":"0x60806040523461032b57610eb6803803806100198161032f565b92833981019060608183031261032b5780516001600160401b03811161032b5782610045918301610354565b60208201519092906001600160401b03811161032b57604091610069918401610354565b91015160ff811680910361032b5782516001600160401b03811161023f575f54600181811c91168015610321575b602082101461022157601f81116102bf575b506020601f821160011461025e57819293945f92610253575b50508160011b915f199060031b1c1916175f555b81516001600160401b03811161023f57600154600181811c91168015610235575b602082101461022157601f81116101be575b50602092601f821160011461015d57928192935f92610152575b50508160011b915f199060031b1c1916176001555b60ff196002541617600255604051610b1090816103a68239f35b015190505f80610123565b601f1982169360015f52805f20915f5b8681106101a6575083600195961061018e575b505050811b01600155610138565b01515f1960f88460031b161c191690555f8080610180565b9192602060018192868501518155019401920161016d565b60015f527fb10e2d527612073b26eecdfd717e6a320cf44b4afac2b0732d9fcbe2b7fa0cf6601f830160051c81019160208410610217575b601f0160051c01905b81811061020c5750610109565b5f81556001016101ff565b90915081906101f6565b634e487b7160e01b5f52602260045260245ffd5b90607f16906100f7565b634e487b7160e01b5f52604160045260245ffd5b015190505f806100c2565b601f198216905f8052805f20915f5b8181106102a75750958360019596971061028f575b505050811b015f556100d6565b01515f1960f88460031b161c191690555f8080610282565b9192602060018192868b01518155019401920161026d565b5f80527f290decd9548b62a8d60345a988386fc84ba6bc95484008f6362f93160ef3e563601f830160051c81019160208410610317575b601f0160051c01905b81811061030c57506100a9565b5f81556001016102ff565b90915081906102f6565b90607f1690610097565b5f80fd5b6040519190601f01601f191682016001600160401b0381118382101761023f57604052565b81601f8201121561032b578051906001600160401b03821161023f57610383601f8301601f191660200161032f565b928284526020838301011161032b57815f9260208093018386015e830101529056fe60806040526004361015610011575f80fd5b5f3560e01c806306fdde03146108de578063095ea7b31461084257806318160ddd1461081d57806323b872dd1461071a578063313ce567146106fa5780633644e5151461067257806340c10f19146105e257806370a08231146105b05780637ecebe001461057e57806395d89b41146104015780639dc29fac1461036c578063a9059cbb146102dd578063d505accf146100eb5763dd62ed3e146100b3575f80fd5b346100e75760406003193601126100e75760206100df6100d161092b565b6100d961094e565b90610a71565b604051908152f35b5f80fd5b346100e75760e06003193601126100e75761010461092b565b61010c61094e565b604435916064356084359260ff841684036100e75773ffffffffffffffffffffffffffffffffffffffff16938019156e22d473030f116ddee9f6b43ac78ba3861817156102d05761015b610971565b60208151910120908242116102c35773ffffffffffffffffffffffffffffffffffffffff60405194169465383775081901600e52855f5260c06020600c20958654957f8b73c3c69bb8fe3d512ecc4cf759cc79239f7b179b0ffacaa9a75d522b39400f8252602082019586528660408301967fc89efdaa54c0f20c7adf612882df0950f5a951637e0307cdcb4c672f298b8bc688528b6060850198468a528c608087019330855260a08820602e527f6e71edae12b1b97f4d1f60370fef10105fa2faae0126114a169c64845d6126c9885252528688525260a082015220604e526042602c205f5260ff1660205260a43560405260c43560605260208060805f60015afa93853d51036102b6577f8c5be1e5ebec7d5bd14f71427d1e84f3dd0314c0f7b2291e5b200ac8c7c3b9259460209401905585777f5e9f200000000000000000000000000000000000000000176040526034602c2055a3005b63ddafbaef5f526004601cfd5b631a15a3cc5f526004601cfd5b633f68539a5f526004601cfd5b346100e75760406003193601126100e7576102f661092b565b602435906387a211a2600c52335f526020600c20805480841161035f5783900390555f526020600c20818154019055602052600c5160601c337fddf252ad1be2c89b69c2b068fc378daa952ba7f163c4a11628f55a4df523b3ef602080a3602060405160018152f35b63f4d678b85f526004601cfd5b346100e75760406003193601126100e75761038561092b565b6024356387a211a2600c52815f526020600c209182549182811161035f575f938173ffffffffffffffffffffffffffffffffffffffff94039055806805345cdf77eb68f44c54036805345cdf77eb68f44c558352167fddf252ad1be2c89b69c2b068fc378daa952ba7f163c4a11628f55a4df523b3ef602083a3005b346100e7575f6003193601126100e7576040515f600154908160011c60018316928315610574575b60208210841461054757818552849390811561050557506001146104a9575b5003601f01601f191681019067ffffffffffffffff82118183101761047c57604082905281906104789082610901565b0390f35b7f4e487b71000000000000000000000000000000000000000000000000000000005f52604160045260245ffd5b60015f90815291507fb10e2d527612073b26eecdfd717e6a320cf44b4afac2b0732d9fcbe2b7fa0cf65b8183106104e95750508101602001601f19610448565b60209193508060019154838588010152019101909183926104d3565b7fffffffffffffffffffffffffffffffffffffffffffffffffffffffffffffff001660208581019190915291151560051b84019091019150601f199050610448565b7f4e487b71000000000000000000000000000000000000000000000000000000005f52602260045260245ffd5b90607f1690610429565b346100e75760206003193601126100e75761059761092b565b6338377508600c525f52602080600c2054604051908152f35b346100e75760206003193601126100e7576105c961092b565b6387a211a2600c525f52602080600c2054604051908152f35b346100e75760406003193601126100e7576105fb61092b565b602435906805345cdf77eb68f44c54828101908110610665576805345cdf77eb68f44c556387a211a2600c525f526020600c20818154019055602052600c5160601c5f7fddf252ad1be2c89b69c2b068fc378daa952ba7f163c4a11628f55a4df523b3ef602080a3005b63e5cfe9575f526004601cfd5b346100e7575f6003193601126100e757602060a061068e610971565b828151910120604051907f8b73c3c69bb8fe3d512ecc4cf759cc79239f7b179b0ffacaa9a75d522b39400f8252838201527fc89efdaa54c0f20c7adf612882df0950f5a951637e0307cdcb4c672f298b8bc6604082015246606082015230608082015220604051908152f35b346100e7575f6003193601126100e757602060ff60025416604051908152f35b346100e75760606003193601126100e75761073361092b565b61073b61094e565b604435908260601b6e22d473030f116ddee9f6b43ac78ba333036107d3575b6387a211a217600c526020600c20805480841161035f5783900390555f526020600c2081815401905560205273ffffffffffffffffffffffffffffffffffffffff600c5160601c91167fddf252ad1be2c89b69c2b068fc378daa952ba7f163c4a11628f55a4df523b3ef602080a3602060405160018152f35b33602052637f5e9f208117600c526034600c209081549182196107f9575b50905061075a565b82851161081057846387a211a293039055856107f1565b6313be252b5f526004601cfd5b346100e7575f6003193601126100e75760206805345cdf77eb68f44c54604051908152f35b346100e75760406003193601126100e75761085b61092b565b602435908119156e22d473030f116ddee9f6b43ac78ba373ffffffffffffffffffffffffffffffffffffffff83161817156102d057602052637f5e9f20600c52335f52806034600c20555f52602c5160601c337f8c5be1e5ebec7d5bd14f71427d1e84f3dd0314c0f7b2291e5b200ac8c7c3b92560205fa3602060405160018152f35b346100e7575f6003193601126100e7576104786108f9610971565b604051918291825b601f19601f602060409481855280519182918282880152018686015e5f8582860101520116010190565b6004359073ffffffffffffffffffffffffffffffffffffffff821682036100e757565b6024359073ffffffffffffffffffffffffffffffffffffffff821682036100e757565b604051905f5f54908160011c60018316928315610a67575b602082108414610547578186528593908115610a2557506001146109cb575b5003601f01601f1916820167ffffffffffffffff81118382101761047c57604052565b5f80805291507f290decd9548b62a8d60345a988386fc84ba6bc95484008f6362f93160ef3e5635b818310610a095750508101602001601f196109a8565b60209193508060019154838589010152019101909184926109f3565b7fffffffffffffffffffffffffffffffffffffffffffffffffffffffffffffff001660208581019190915291151560051b84019091019150601f1990506109a8565b90607f1690610989565b906e22d473030f116ddee9f6b43ac78ba373ffffffffffffffffffffffffffffffffffffffff821614610ab457602052637f5e9f20600c525f526034600c205490565b50507fffffffffffffffffffffffffffffffffffffffffffffffffffffffffffffffff9056fea26469706673582212202424c868833227fc55aff873f8dad4e9c8018aece6272fa4e54d267eab23b7c064736f6c634300081e0033","linkReferences":{}},"methodIdentifiers":{"DOMAIN_SEPARATOR()":"3644e515","allowance(address,address)":"dd62ed3e","approve(address,uint256)":"095ea7b3","balanceOf(address)":"70a08231","burn(address,uint256)":"9dc29fac","decimals()":"313ce567","mint(address,uint256)":"40c10f19","name()":"06fdde03","nonces(address)":"7ecebe00","permit(address,address,uint256,uint256,uint8,bytes32,bytes32)":"d505accf","symbol()":"95d89b41","totalSupply()":"18160ddd","transfer(address,uint256)":"a9059cbb","transferFrom(address,address,uint256)":"23b872dd"},"storageLayout":{"storage":[{"astId":67746,"contract":"test/mocks/MockERC20.sol:MockERC20","label":"_name","offset":0,"slot":"0","type":"t_string_storage"},{"astId":67748,"contract":"test/mocks/MockERC20.sol:MockERC20","label":"_symbol","offset":0,"slot":"1","type":"t_string_storage"},{"astId":67750,"contract":"test/mocks/MockERC20.sol:MockERC20","label":"_decimals","offset":0,"slot":"2","type":"t_uint8"}],"types":{"t_string_storage":{"encoding":"bytes","label":"string","numberOfBytes":"32"},"t_uint8":{"encoding":"inplace","label":"uint8","numberOfBytes":"1"}}},"id":96}