{"abi":[{"type":"function","name":"approveTokens","inputs":[{"name":"user","type":"address","internalType":"address"},{"name":"token","type":"address","internalType":"address"},{"name":"spender","type":"address","internalType":"address"},{"name":"amount","type":"uint256","internalType":"uint256"}],"outputs":[],"stateMutability":"nonpayable"},{"type":"function","name":"createUser","inputs":[{"name":"name","type":"string","internalType":"string"}],"outputs":[{"name":"addr","type":"address","internalType":"address payable"}],"stateMutability":"nonpayable"},{"type":"function","name":"createUser","inputs":[{"name":"name","type":"string","internalType":"string"},{"name":"tokens","type":"address[]","internalType":"address[]"}],"outputs":[{"name":"addr","type":"address","internalType":"address payable"}],"stateMutability":"nonpayable"},{"type":"function","name":"getDecimals","inputs":[{"name":"token","type":"address","internalType":"address"}],"outputs":[{"name":"","type":"uint8","internalType":"uint8"}],"stateMutability":"view"},{"type":"function","name":"mineBlocks","inputs":[{"name":"numBlocks","type":"uint256","internalType":"uint256"}],"outputs":[],"stateMutability":"nonpayable"},{"type":"function","name":"mineTime","inputs":[{"name":"numSeconds","type":"uint256","internalType":"uint256"}],"outputs":[],"stateMutability":"nonpayable"},{"type":"function","name":"mintTokens","inputs":[{"name":"token","type":"address","internalType":"address"},{"name":"to","type":"address","internalType":"address"},{"name":"amount","type":"uint256","internalType":"uint256"}],"outputs":[],"stateMutability":"nonpayable"},{"type":"function","name":"transferTokens","inputs":[{"name":"user","type":"address","internalType":"address"},{"name":"token","type":"address","internalType":"address"},{"name":"to","type":"address","internalType":"address"},{"name":"amount","type":"uint256","internalType":"uint256"}],"outputs":[],"stateMutability":"nonpayable"},{"type":"event","name":"SlotFound","inputs":[{"name":"who","type":"address","indexed":false,"internalType":"address"},{"name":"fsig","type":"bytes4","indexed":false,"internalType":"bytes4"},{"name":"keysHash","type":"bytes32","indexed":false,"internalType":"bytes32"},{"name":"slot","type":"uint256","indexed":false,"internalType":"uint256"}],"anonymous":false},{"type":"event","name":"WARNING_UninitedSlot","inputs":[{"name":"who","type":"address","indexed":false,"internalType":"address"},{"name":"slot","type":"uint256","indexed":false,"internalType":"uint256"}],"anonymous":false}],"bytecode":{"object":"0x60a0806040523461005957737109709ecfa91a80626ff3989d68f67f5b1dd12d608052612f2d908161005e8239608051818181609a01528181610182015281816109ab01528181610c7b015281816114a801526116dd0152f35b5f80fdfe60806040526004361015610011575f80fd5b5f5f3560e01c8063507ffba51461158757806357b0ac891461148957806363e6a15a14610ac557806368155ec11461098c5780636fc98ee1146101ef578063cee1a8fc14610159578063cf54aaa01461012a5763f82de7b014610072575f80fd5b34610118576020600319360112610118578061009060043543611968565b6001600160a01b037f00000000000000000000000000000000000000000000000000000000000000001690813b156101265782916024839260405194859384927f1f7b4f3000000000000000000000000000000000000000000000000000000000845260048401525af1801561011b576101075750f35b81610111916117e1565b6101185780f35b80fd5b6040513d84823e3d90fd5b5050fd5b503461011857602060031936011261011857602061014e610149611893565b6119ea565b60ff60405191168152f35b5034610118576020600319360112610118578061017860043542611968565b6001600160a01b037f00000000000000000000000000000000000000000000000000000000000000001690813b156101265782916024839260405194859384927fe5d6bf0200000000000000000000000000000000000000000000000000000000845260048401525af1801561011b576101075750f35b503461011857606060031936011261011857610209611893565b906024356001600160a01b038116809103610988576001600160a01b0360443593838060405160208101907f70a082310000000000000000000000000000000000000000000000000000000082528660248201526024815261026c6044826117e1565b5190845afa5061028c61027d6119a2565b60208082518301019101611b0d565b50167fffffffffffffffffffffffff000000000000000000000000000000000000000060055416176005556370a082317fffffffffffffffffffffffffffffffffffffffffffffffffffffffff0000000060035416176003556002546801000000000000000081101561095b57600181018060025581101561092e57600283526020832001556001600160a01b036005541660035460e01b60045490610330611b84565b907fffffffff0000000000000000000000000000000000000000000000000000000061036d856001600160a01b03165f52600160205260405f2090565b91169081865260205260408520604051602081019061039f81610391888886611b1c565b03601f1981018352826117e1565b519020865260205260ff60036040872001541615610920575b6103d3846001600160a01b03165f52600160205260405f2090565b9085526020526103916103f56040862093604051928391602083019586611b1c565b519020835260205260408220906001820154916002810154946104188685611968565b610700575b81546040517f667f9d700000000000000000000000000000000000000000000000000000000081526001600160a01b03851660048201526024810182905295968795602088604481737109709ecfa91a80626ff3989d68f67f5b1dd12d5afa9788156106f55787986106b8575b506001908201610100031b5f1901811b19871691737109709ecfa91a80626ff3989d68f67f5b1dd12d3b156106b4576040517f70ca10bb0000000000000000000000000000000000000000000000000000000081526001600160a01b038716600482015260248101919091529083901b919091176044820152848160648183737109709ecfa91a80626ff3989d68f67f5b1dd12d5af19081156106a9578591610690575b5050610538611e8d565b919015918215610685575b50506105555782610552612bad565b80f35b5490737109709ecfa91a80626ff3989d68f67f5b1dd12d3b15610681576105c360405194859384937f70ca10bb000000000000000000000000000000000000000000000000000000008552600485016040919493926001600160a01b03606083019616825260208201520152565b038183737109709ecfa91a80626ff3989d68f67f5b1dd12d5af1801561011b5761066c575b60846040517f08c379a000000000000000000000000000000000000000000000000000000000815260206004820152603360248201527f73746453746f726167652066696e642853746453746f72616765293a2046616960448201527f6c656420746f2077726974652076616c75652e000000000000000000000000006064820152fd5b6106778280926117e1565b61011857806105e8565b8280fd5b141590505f80610543565b8161069a916117e1565b6106a557835f61052e565b8380fd5b6040513d87823e3d90fd5b8680fd5b965096506020863d6020116106ed575b816106d5602093836117e1565b810103126106e9579451958795908161048a565b5f80fd5b3d91506106c8565b6040513d89823e3d90fd5b61070a8685611968565b6101000361010081116108f35760ff81116108f3576001901b95604051967f6900a3ae0000000000000000000000000000000000000000000000000000000088528060048901528688602481737109709ecfa91a80626ff3989d68f67f5b1dd12d5afa9788156106f5578798610868575b5061081b606a6020996040519a8b917f73746453746f726167652066696e642853746453746f72616765293a20506163828401527f6b656420736c6f742e2057652063616e2774206669742076616c75652067726560408401527f61746572207468616e200000000000000000000000000000000000000000000060608401528051918291018484015e81018a838201520301601f1981018a52896117e1565b82101561082957955061041d565b6040517f08c379a00000000000000000000000000000000000000000000000000000000081526020600482015280610864602482018a611ae8565b0390fd5b97503d80888a3e610879818a6117e1565b8801976020818a03126108ef5780519067ffffffffffffffff82116108eb570188601f820112156108ef578051906108b082611831565b996108be6040519b8c6117e1565b828b52602083830101116108eb57602099898b8461081b9582606a96018386015e8301015299505061077b565b8880fd5b8780fd5b6024867f4e487b710000000000000000000000000000000000000000000000000000000081526011600452fd5b610928612120565b506103b8565b6024837f4e487b710000000000000000000000000000000000000000000000000000000081526032600452fd5b6024837f4e487b710000000000000000000000000000000000000000000000000000000081526041600452fd5b5080fd5b5034610118578061099c366118a9565b926001600160a01b03949192947f00000000000000000000000000000000000000000000000000000000000000001690813b15610681576001600160a01b03602484928360405195869485937fca669fa70000000000000000000000000000000000000000000000000000000085521660048401525af1801561011b57610aac575b506040517fa9059cbb0000000000000000000000000000000000000000000000000000000081526001600160a01b03928316600482015260248101939093529192602092849283919082604481015b0393165af1801561011b57610a80575080f35b610aa19060203d602011610aa5575b610a9981836117e1565b81019061190f565b5080f35b503d610a8f565b81610ab9919493946117e1565b6106a55790835f610a1e565b50346101185760406003193601126101185760043567ffffffffffffffff811161098857610af790369060040161184d565b60243567ffffffffffffffff81116106815736602382011215610681578060040135610b22816118f7565b91610b3060405193846117e1565b8183526024602084019260051b8201019036821161148557602401915b81831061146557505050826040516020810190610b84602082875180838a01875e810186838201520301601f1981018352826117e1565b519020604051907fffa186490000000000000000000000000000000000000000000000000000000082526004820152602081602481737109709ecfa91a80626ff3989d68f67f5b1dd12d5afa90811561011b578291611423575b50737109709ecfa91a80626ff3989d68f67f5b1dd12d3b1561098857816001600160a01b03610c4b9260405193849283927fc657c7180000000000000000000000000000000000000000000000000000000084521697886004840152604060248401526044830190611ae8565b038183737109709ecfa91a80626ff3989d68f67f5b1dd12d5af1801561011b5761140e575b506001600160a01b037f000000000000000000000000000000000000000000000000000000000000000016803b15610988578180916044604051809481937fc88a5e6d000000000000000000000000000000000000000000000000000000008352896004840152683635c9adc5dea0000060248401525af1801561011b576113f9575b5050825b81518110156113ee576001600160a01b03610d128284611927565b511660ff610d326001600160a01b03610d2b8587611927565b5116611a66565b16604d81116108f357600a0a9081631dcd65000291631dcd65008304036108f357858060405160208101907f70a0823100000000000000000000000000000000000000000000000000000000825288602482015260248152610d956044826117e1565b5190845afa50610da661027d6119a2565b507fffffffffffffffffffffffff000000000000000000000000000000000000000060055416176005556370a082317fffffffffffffffffffffffffffffffffffffffffffffffffffffffff000000006003541617600355600254680100000000000000008110156113c157600181018060025581101561139457600286527f405787fa12a823e0f2b7631cc41b3ba8828b3321ca811111fa75cd3aa3bb5ace0184905560055460035460045487926001600160a01b03169160e01b610e6a611b84565b907fffffffff00000000000000000000000000000000000000000000000000000000610ea7856001600160a01b03165f52600160205260405f2090565b911690818652602052604085206040516020810190610ecb81610391888886611b1c565b519020865260205260ff60036040872001541615611386575b610eff846001600160a01b03165f52600160205260405f2090565b908552602052610391610f216040862093604051928391602083019586611b1c565b5190208352602052604082206001810154936002820154610f428187611968565b611151575b82546040517f667f9d700000000000000000000000000000000000000000000000000000000081526001600160a01b03861660048201526024810182905296909190602088604481737109709ecfa91a80626ff3989d68f67f5b1dd12d5afa9788156106f5578798611119575b506001908201610100031b5f1901811b19871691737109709ecfa91a80626ff3989d68f67f5b1dd12d3b156106b4576040517f70ca10bb0000000000000000000000000000000000000000000000000000000081526001600160a01b038716600482015260248101919091529083901b919091176044820152848160648183737109709ecfa91a80626ff3989d68f67f5b1dd12d5af19081156106a9578591611104575b5050611062611e8d565b9190159182156110f9575b50506110885750505050600190611082612bad565b01610cf7565b8294505490737109709ecfa91a80626ff3989d68f67f5b1dd12d3b15610681576105c360405194859384937f70ca10bb000000000000000000000000000000000000000000000000000000008552600485016040919493926001600160a01b03606083019616825260208201520152565b141590505f8061106d565b8161110e916117e1565b6106a557835f611058565b965096506020863d8211611149575b81611135602093836117e1565b810103126106e9579451958a959081610fb4565b3d9150611128565b90919293506111608186611968565b6101000361010081116113595760ff8111611359576001901b604051907f6900a3ae0000000000000000000000000000000000000000000000000000000082528060048301528a8083602481737109709ecfa91a80626ff3989d68f67f5b1dd12d5afa92831561134c5781936112c2575b50606a602093611272926040519586927f73746453746f726167652066696e642853746453746f72616765293a20506163828501527f6b656420736c6f742e2057652063616e2774206669742076616c75652067726560408501527f61746572207468616e200000000000000000000000000000000000000000000060608501528051918291018585015e820190838201520301601f1981018452836117e1565b83101561128457509088939291610f47565b610864906040519182917f08c379a0000000000000000000000000000000000000000000000000000000008352602060048401526024830190611ae8565b9092503d8084833e6112d481836117e1565b8101906020818303126106a55780519067ffffffffffffffff821161134857019080601f830112156106a55781519061130c82611831565b9061131a60405192836117e1565b82825260208385010111611348576020948583606a948261127297018386015e8301015293508c91506111d1565b8480fd5b50604051903d90823e3d90fd5b60248a7f4e487b710000000000000000000000000000000000000000000000000000000081526011600452fd5b61138e612120565b50610ee4565b6024867f4e487b710000000000000000000000000000000000000000000000000000000081526032600452fd5b6024867f4e487b710000000000000000000000000000000000000000000000000000000081526041600452fd5b602083604051908152f35b81611403916117e1565b61068157825f610cf3565b81611418916117e1565b61068157825f610c70565b90506020813d60201161145d575b8161143e602093836117e1565b8101031261098857516001600160a01b0381168103610988575f610bde565b3d9150611431565b82356001600160a01b03811681036106e957815260209283019201610b4d565b8580fd5b50346101185780611499366118a9565b926001600160a01b03949192947f00000000000000000000000000000000000000000000000000000000000000001690813b15610681576001600160a01b03602484928360405195869485937fca669fa70000000000000000000000000000000000000000000000000000000085521660048401525af1801561011b5761156e575b506040517f095ea7b30000000000000000000000000000000000000000000000000000000081526001600160a01b0392831660048201526024810193909352919260209284928391908260448101610a6d565b8161157b919493946117e1565b6106a55790835f61151b565b50346106e95760206003193601126106e95760043567ffffffffffffffff81116106e9576115b990369060040161184d565b60405160208101906115e5602082855180838801875e81015f838201520301601f1981018352826117e1565b519020604051907fffa186490000000000000000000000000000000000000000000000000000000082526004820152602081602481737109709ecfa91a80626ff3989d68f67f5b1dd12d5afa908115611794575f9161179f575b50737109709ecfa91a80626ff3989d68f67f5b1dd12d3b156106e9575f6001600160a01b036116ac9260405193849283927fc657c7180000000000000000000000000000000000000000000000000000000084521695866004840152604060248401526044830190611ae8565b038183737109709ecfa91a80626ff3989d68f67f5b1dd12d5af180156117945761177f575b50816001600160a01b037f000000000000000000000000000000000000000000000000000000000000000016803b156109885781906044604051809481937fc88a5e6d000000000000000000000000000000000000000000000000000000008352876004840152683635c9adc5dea0000060248401525af180156117745761175f575b602082604051908152f35b61176a8380926117e1565b6109885781611754565b6040513d85823e3d90fd5b61178c9192505f906117e1565b5f905f6116d1565b6040513d5f823e3d90fd5b90506020813d6020116117d9575b816117ba602093836117e1565b810103126106e957516001600160a01b03811681036106e9575f61163f565b3d91506117ad565b90601f601f19910116810190811067ffffffffffffffff82111761180457604052565b7f4e487b71000000000000000000000000000000000000000000000000000000005f52604160045260245ffd5b67ffffffffffffffff811161180457601f01601f191660200190565b81601f820112156106e95780359061186482611831565b9261187260405194856117e1565b828452602083830101116106e957815f926020809301838601378301015290565b600435906001600160a01b03821682036106e957565b60031960809101126106e9576004356001600160a01b03811681036106e957906024356001600160a01b03811681036106e957906044356001600160a01b03811681036106e9579060643590565b67ffffffffffffffff81116118045760051b60200190565b908160209103126106e9575180151581036106e95790565b805182101561193b5760209160051b010190565b7f4e487b71000000000000000000000000000000000000000000000000000000005f52603260045260245ffd5b9190820180921161197557565b7f4e487b71000000000000000000000000000000000000000000000000000000005f52601160045260245ffd5b3d156119cc573d906119b382611831565b916119c160405193846117e1565b82523d5f602084013e565b606090565b908160209103126106e9575160ff811681036106e95790565b5f809160405160208101907f313ce56700000000000000000000000000000000000000000000000000000000825260048152611a276024826117e1565b51915afa611a336119a2565b9080611a5a575b611a445750601290565b80602080611a57935183010191016119d1565b90565b50602081511015611a3a565b6001600160a01b03604051917fcf54aaa0000000000000000000000000000000000000000000000000000000008352166004820152602081602481305afa5f9181611ab7575b50611a575750601290565b611ada91925060203d602011611ae1575b611ad281836117e1565b8101906119d1565b905f611aac565b503d611ac8565b90601f19601f602080948051918291828752018686015e5f8582860101520116010190565b908160209103126106e9575190565b60209291908391805192839101825e019081520190565b90600182811c92168015611b7a575b6020831014611b4d57565b7f4e487b71000000000000000000000000000000000000000000000000000000005f52602260045260245ffd5b91607f1691611b42565b600854611b9081611b33565b611c4d57506040519081826020600254928381520160025f5260205f20925f5b818110611c34575050611bc5925003836117e1565b81518060051b908082046020149015171561197557601f19611bff611be983611831565b92611bf760405194856117e1565b808452611831565b013660208301375f5b8351811015611c2f5780611c1e60019286611927565b5160208260051b8501015201611c08565b509150565b8454835260019485019487945060209093019201611bb0565b60405190815f611c5c83611b33565b8083529260018116908115611cdf5750600114611c80575b611a57925003826117e1565b5060085f90815290917ff3f7a9fe364faab93b216da50a3214154f22a0a2b415b23a84c8169e8b636ee35b818310611cc3575050906020611a5792820101611c74565b6020919350806001915483858801015201910190918392611cab565b60209250611a579491507fffffffffffffffffffffffffffffffffffffffffffffffffffffffffffffff001682840152151560051b820101611c74565b60078101908154611d2c81611b33565b611dd25750600191500190604051808360208295549384815201905f5260205f20925f5b818110611db9575050611d65925003836117e1565b81518060051b908082046020149015171561197557601f19611d89611be983611831565b013660208301375f5b8351811015611c2f5780611da860019286611927565b5160208260051b8501015201611d92565b8454835260019485019487945060209093019201611d50565b905060405180925f90611de484611b33565b8084529360018116908115611e4d5750600114611e09575b50611a57925003826117e1565b90505f9291925260205f20905f915b818310611e31575050906020611a57928201015f611dfc565b6020919350806001915483858801015201910190918392611e18565b60209350611a579592507fffffffffffffffffffffffffffffffffffffffffffffffffffffffffffffff0091501682840152151560051b8201015f611dfc565b5f80602060035460e01b611ef46024611ea66001611d1c565b6040519485917fffffffff00000000000000000000000000000000000000000000000000000000828401961686528051918291018484015e810186838201520301601f1981018452836117e1565b6001600160a01b03600554169151915afa90611f0e6119a2565b916004548060051b907f07ffffffffffffffffffffffffffffffffffffffffffffffffffffffffffffff811603611975575f938051602081115f14611fc757506020905b5f925b828410611f6457505050509190565b90919295611f728783611968565b835181101561193b5760207fff00000000000000000000000000000000000000000000000000000000000000918501015116908760031b9188830460081489151715611975576001921c179601929190611f55565b90611f52565b905f806020600285015460e01b611fe86024611ea688611d1c565b6001600160a01b036004870154169151915afa60036120056119a2565b9301548060051b907f07ffffffffffffffffffffffffffffffffffffffffffffffffffffffffffffff811603611975575f938051602081115f146120bd57506020905b5f925b82841061205a57505050509190565b909192956120688783611968565b835181101561193b5760207fff00000000000000000000000000000000000000000000000000000000000000918501015116908760031b9188830460081489151715611975576001921c17960192919061204b565b90612048565b9080601f830112156106e95781516120da816118f7565b926120e860405194856117e1565b81845260208085019260051b8201019283116106e957602001905b8282106121105750505090565b8151815260209182019101612103565b5f6001600160a01b03600554169060035460e01b600454906121426001611d1c565b90845f5260016020527fffffffff0000000000000000000000000000000000000000000000000000000060405f20911690815f5260205260405f20604051602081019061219481610391888886611b1c565b5190205f5260205260ff600360405f20015416612b6c57737109709ecfa91a80626ff3989d68f67f5b1dd12d3b156106e9576040517f266cf1090000000000000000000000000000000000000000000000000000000081525f8160048183737109709ecfa91a80626ff3989d68f67f5b1dd12d5af1801561179457612b57575b5061221f6001611fcd565b90506040517f65bc9481000000000000000000000000000000000000000000000000000000008152866004820152858160248183737109709ecfa91a80626ff3989d68f67f5b1dd12d5af1908115612b4c578691612aea575b508051806123045760846040517f08c379a000000000000000000000000000000000000000000000000000000000815260206004820152604060248201527f73746453746f726167652066696e642853746453746f72616765293a204e6f2060448201527f73746f726167652075736520646574656374656420666f72207461726765742e6064820152fd5b8015612abd57905f19612369920190602061231f8383611927565b516040517f667f9d700000000000000000000000000000000000000000000000000000000081526001600160a01b038c166004820152602481019190915293849081906044820190565b0381737109709ecfa91a80626ff3989d68f67f5b1dd12d5afa928315612ab2578893612a7f575b508215612a27575b6123a28282611927565b516005546040517f667f9d700000000000000000000000000000000000000000000000000000000081526001600160a01b0390911660048201819052602482018390529190602081604481737109709ecfa91a80626ff3989d68f67f5b1dd12d5afa908115612a1c578b916129eb575b5061241d6001611fcd565b91909382155f146129e4575f19905b737109709ecfa91a80626ff3989d68f67f5b1dd12d3b156129cb576040517f70ca10bb0000000000000000000000000000000000000000000000000000000081526001600160a01b039190911660048201526024810185905260448101919091528c8160648183737109709ecfa91a80626ff3989d68f67f5b1dd12d5af1801561294857908d916129cf575b50506124c46001611fcd565b9390506001600160a01b0360055416737109709ecfa91a80626ff3989d68f67f5b1dd12d3b156129cb576040517f70ca10bb0000000000000000000000000000000000000000000000000000000081526001600160a01b03919091166004820152602481019190915260448101919091528b8160648183737109709ecfa91a80626ff3989d68f67f5b1dd12d5af180156129c057908c916129a7575b50508261299c575b505015612995578793889360ff600754166127c5575b6001868601610100031b5f1901851b16841c81036127bc575090612604917f9c9555b1e3102e3cf48f427d79cb678f5d9bd1ed0ad574389461e255f95170ed60808b896103916125d98d604051928391602083019586611b1c565b5190206125e68686611927565b51906040519283528a602084015260408301526060820152a1611927565b519060405190608082019282841067ffffffffffffffff8511176118045760039360405282526020820193845260408201908152606082019360018552898952600160205260408920868a5260205260408920604051602081019061266e816103918d8d86611b1c565b5190208a526020526040892092518355516001830155516002820155019051151560ff7fffffffffffffffffffffffffffffffffffffffffffffffffffffffffffffff0083541691161790558484526001602052604084208185526020526040842060405160208101906126e781610391888886611b1c565b519020855260205260ff60036040862001541615612738576040948452600160205284842090845260205261039161272c858520938651928391602083019586611b1c565b51902082526020522090565b60846040517f08c379a000000000000000000000000000000000000000000000000000000000815260206004820152602f60248201527f73746453746f726167652066696e642853746453746f72616765293a20536c6f60448201527f74287329206e6f7420666f756e642e00000000000000000000000000000000006064820152fd5b93509150612304565b945061283193506127d68383611927565b51946020866001600160a01b036005541660405197889283927f667f9d7000000000000000000000000000000000000000000000000000000000845260048401602090939291936001600160a01b0360408201951681520152565b0381737109709ecfa91a80626ff3989d68f67f5b1dd12d5afa94851561298a578a95612957575b50612864866001612d10565b959096612872816001612e0e565b9290916001600160a01b0360055416737109709ecfa91a80626ff3989d68f67f5b1dd12d3b15612953576040517f70ca10bb0000000000000000000000000000000000000000000000000000000081526001600160a01b03919091166004820152602481019190915260448101919091528c8160648183737109709ecfa91a80626ff3989d68f67f5b1dd12d5af1801561294857908d9161292f575b505087612927575b50949561257e575093509150612304565b96505f612916565b81612939916117e1565b612944578b5f61290e565b8b80fd5b6040513d8f823e3d90fd5b8e80fd5b9094506020813d8211612982575b81612972602093836117e1565b810103126106e95751935f612858565b3d9150612965565b6040513d8c823e3d90fd5b9150612304565b141590505f80612568565b816129b1916117e1565b6129bc578a5f612560565b8a80fd5b6040513d8e823e3d90fd5b8d80fd5b816129d9916117e1565b612944578b5f6124b8565b8c9061242c565b90506020813d8211612a14575b81612a05602093836117e1565b810103126106e957515f612412565b3d91506129f8565b6040513d8d823e3d90fd5b7f080fc4a96620c4462e705b23f346413fe3796bb63c6f8d8591baec0e231577a5612a77612a558484611927565b51604080516001600160a01b038e168152602081019290925290918291820190565b0390a1612398565b9092506020813d8211612aaa575b81612a9a602093836117e1565b810103126106e95751915f612390565b3d9150612a8d565b6040513d8a823e3d90fd5b6024877f4e487b710000000000000000000000000000000000000000000000000000000081526011600452fd5b90503d8087833e612afb81836117e1565b81016040828203126106b457815167ffffffffffffffff81116108ef5781612b249184016120c3565b9160208101519067ffffffffffffffff82116108eb57612b459291016120c3565b505f612278565b6040513d88823e3d90fd5b612b649194505f906117e1565b5f925f612214565b91939092505f52600160205260405f20905f52602052610391612b9e60405f2093604051928391602083019586611b1c565b5190205f5260205260405f2090565b7fffffffffffffffffffffffff0000000000000000000000000000000000000000600554166005557fffffffffffffffffffffffffffffffffffffffffffffffffffffffff00000000600354166003556002545f60025580612cce575b505f6004557fffffffffffffffffffffffffffffffffffffffffffffffffffffffffffffff0060075416600755612c42600854611b33565b80612c4a5750565b601f8111600114612c5c57505f600855565b60085f52601f0160051c7ff3f7a9fe364faab93b216da50a3214154f22a0a2b415b23a84c8169e8b636ee3017ff3f7a9fe364faab93b216da50a3214154f22a0a2b415b23a84c8169e8b636ee45b818110612cc357505060085f525f602081208160085555565b5f8155600101612caa565b60025f527f405787fa12a823e0f2b7631cc41b3ba8828b3321ca811111fa75cd3aa3bb5ace908101905b818110612d055750612c0a565b5f8155600101612cf8565b91905f5b6101008110612d2757505090505f905f90565b8060ff0360ff8111611975576001901b6001600160a01b03600486015416737109709ecfa91a80626ff3989d68f67f5b1dd12d3b156106e9576040517f70ca10bb0000000000000000000000000000000000000000000000000000000081526001600160a01b039190911660048201526024810184905260448101919091525f8160648183737109709ecfa91a80626ff3989d68f67f5b1dd12d5af1801561179457612dfe575b50612dd884611fcd565b81612df4575b50612deb57600101612d14565b92505060019190565b905015155f612dde565b5f612e08916117e1565b5f612dce565b91905f5b6101008110612e2557505090505f905f90565b6001811b6001600160a01b03600486015416737109709ecfa91a80626ff3989d68f67f5b1dd12d3b156106e9576040517f70ca10bb0000000000000000000000000000000000000000000000000000000081526001600160a01b039190911660048201526024810184905260448101919091525f8160648183737109709ecfa91a80626ff3989d68f67f5b1dd12d5af1801561179457612ee7575b50612eca84611fcd565b81612edd575b50612deb57600101612e12565b905015155f612ed0565b5f612ef1916117e1565b5f612ec056fea26469706673582212208cc0e369408b5b8142bc02eae75306149abb9cd8b538f426f3c18b2ce54f963e64736f6c634300081e0033","linkReferences":{}},"methodIdentifiers":{"approveTokens(address,address,address,uint256)":"57b0ac89","createUser(string)":"507ffba5","createUser(string,address[])":"63e6a15a","getDecimals(address)":"cf54aaa0","mineBlocks(uint256)":"f82de7b0","mineTime(uint256)":"cee1a8fc","mintTokens(address,address,uint256)":"6fc98ee1","transferTokens(address,address,address,uint256)":"68155ec1"},"storageLayout":{"storage":[{"astId":3715,"contract":"test/utils/Utilities.sol:Utilities","label":"gasMeteringOff","offset":0,"slot":"0","type":"t_bool"},{"astId":5782,"contract":"test/utils/Utilities.sol:Utilities","label":"stdstore","offset":0,"slot":"1","type":"t_struct(StdStorage)8093_storage"}],"types":{"t_address":{"encoding":"inplace","label":"address","numberOfBytes":"20"},"t_array(t_bytes32)dyn_storage":{"encoding":"dynamic_array","label":"bytes32[]","numberOfBytes":"32","base":"t_bytes32"},"t_bool":{"encoding":"inplace","label":"bool","numberOfBytes":"1"},"t_bytes32":{"encoding":"inplace","label":"bytes32","numberOfBytes":"32"},"t_bytes4":{"encoding":"inplace","label":"bytes4","numberOfBytes":"4"},"t_bytes_storage":{"encoding":"bytes","label":"bytes","numberOfBytes":"32"},"t_mapping(t_address,t_mapping(t_bytes4,t_mapping(t_bytes32,t_struct(FindData)8068_storage)))":{"encoding":"mapping","key":"t_address","label":"mapping(address => mapping(bytes4 => mapping(bytes32 => struct FindData)))","numberOfBytes":"32","value":"t_mapping(t_bytes4,t_mapping(t_bytes32,t_struct(FindData)8068_storage))"},"t_mapping(t_bytes32,t_struct(FindData)8068_storage)":{"encoding":"mapping","key":"t_bytes32","label":"mapping(bytes32 => struct FindData)","numberOfBytes":"32","value":"t_struct(FindData)8068_storage"},"t_mapping(t_bytes4,t_mapping(t_bytes32,t_struct(FindData)8068_storage))":{"encoding":"mapping","key":"t_bytes4","label":"mapping(bytes4 => mapping(bytes32 => struct FindData))","numberOfBytes":"32","value":"t_mapping(t_bytes32,t_struct(FindData)8068_storage)"},"t_struct(FindData)8068_storage":{"encoding":"inplace","label":"struct FindData","numberOfBytes":"128","members":[{"astId":8061,"contract":"test/utils/Utilities.sol:Utilities","label":"slot","offset":0,"slot":"0","type":"t_uint256"},{"astId":8063,"contract":"test/utils/Utilities.sol:Utilities","label":"offsetLeft","offset":0,"slot":"1","type":"t_uint256"},{"astId":8065,"contract":"test/utils/Utilities.sol:Utilities","label":"offsetRight","offset":0,"slot":"2","type":"t_uint256"},{"astId":8067,"contract":"test/utils/Utilities.sol:Utilities","label":"found","offset":0,"slot":"3","type":"t_bool"}]},"t_struct(StdStorage)8093_storage":{"encoding":"inplace","label":"struct StdStorage","numberOfBytes":"256","members":[{"astId":8077,"contract":"test/utils/Utilities.sol:Utilities","label":"finds","offset":0,"slot":"0","type":"t_mapping(t_address,t_mapping(t_bytes4,t_mapping(t_bytes32,t_struct(FindData)8068_storage)))"},{"astId":8080,"contract":"test/utils/Utilities.sol:Utilities","label":"_keys","offset":0,"slot":"1","type":"t_array(t_bytes32)dyn_storage"},{"astId":8082,"contract":"test/utils/Utilities.sol:Utilities","label":"_sig","offset":0,"slot":"2","type":"t_bytes4"},{"astId":8084,"contract":"test/utils/Utilities.sol:Utilities","label":"_depth","offset":0,"slot":"3","type":"t_uint256"},{"astId":8086,"contract":"test/utils/Utilities.sol:Utilities","label":"_target","offset":0,"slot":"4","type":"t_address"},{"astId":8088,"contract":"test/utils/Utilities.sol:Utilities","label":"_set","offset":0,"slot":"5","type":"t_bytes32"},{"astId":8090,"contract":"test/utils/Utilities.sol:Utilities","label":"_enable_packed_slots","offset":0,"slot":"6","type":"t_bool"},{"astId":8092,"contract":"test/utils/Utilities.sol:Utilities","label":"_calldata","offset":0,"slot":"7","type":"t_bytes_storage"}]},"t_uint256":{"encoding":"inplace","label":"uint256","numberOfBytes":"32"}}},"id":125}