{"abi":[{"type":"constructor","inputs":[{"name":"asset_","type":"address","internalType":"address"},{"name":"name_","type":"string","internalType":"string"},{"name":"symbol_","type":"string","internalType":"string"},{"name":"decimals_","type":"uint8","internalType":"uint8"}],"stateMutability":"nonpayable"},{"type":"function","name":"DOMAIN_SEPARATOR","inputs":[],"outputs":[{"name":"result","type":"bytes32","internalType":"bytes32"}],"stateMutability":"view"},{"type":"function","name":"allowance","inputs":[{"name":"owner","type":"address","internalType":"address"},{"name":"spender","type":"address","internalType":"address"}],"outputs":[{"name":"","type":"uint256","internalType":"uint256"}],"stateMutability":"view"},{"type":"function","name":"approve","inputs":[{"name":"spender","type":"address","internalType":"address"},{"name":"amount","type":"uint256","internalType":"uint256"}],"outputs":[{"name":"","type":"bool","internalType":"bool"}],"stateMutability":"nonpayable"},{"type":"function","name":"asset","inputs":[],"outputs":[{"name":"","type":"address","internalType":"address"}],"stateMutability":"view"},{"type":"function","name":"balanceOf","inputs":[{"name":"owner","type":"address","internalType":"address"}],"outputs":[{"name":"","type":"uint256","internalType":"uint256"}],"stateMutability":"view"},{"type":"function","name":"claimableDepositRequest","inputs":[{"name":"controller","type":"address","internalType":"address"}],"outputs":[{"name":"","type":"uint256","internalType":"uint256"}],"stateMutability":"view"},{"type":"function","name":"claimableRedeemRequest","inputs":[{"name":"controller","type":"address","internalType":"address"}],"outputs":[{"name":"","type":"uint256","internalType":"uint256"}],"stateMutability":"view"},{"type":"function","name":"convertToAssets","inputs":[{"name":"shares","type":"uint256","internalType":"uint256"}],"outputs":[{"name":"","type":"uint256","internalType":"uint256"}],"stateMutability":"pure"},{"type":"function","name":"convertToShares","inputs":[{"name":"assets","type":"uint256","internalType":"uint256"}],"outputs":[{"name":"","type":"uint256","internalType":"uint256"}],"stateMutability":"pure"},{"type":"function","name":"decimals","inputs":[],"outputs":[{"name":"","type":"uint8","internalType":"uint8"}],"stateMutability":"view"},{"type":"function","name":"deposit","inputs":[{"name":"assets","type":"uint256","internalType":"uint256"},{"name":"to","type":"address","internalType":"address"},{"name":"controller","type":"address","internalType":"address"}],"outputs":[{"name":"shares","type":"uint256","internalType":"uint256"}],"stateMutability":"nonpayable"},{"type":"function","name":"deposit","inputs":[{"name":"assets","type":"uint256","internalType":"uint256"},{"name":"to","type":"address","internalType":"address"}],"outputs":[{"name":"shares","type":"uint256","internalType":"uint256"}],"stateMutability":"nonpayable"},{"type":"function","name":"isOperator","inputs":[{"name":"controller","type":"address","internalType":"address"},{"name":"operator","type":"address","internalType":"address"}],"outputs":[{"name":"","type":"bool","internalType":"bool"}],"stateMutability":"view"},{"type":"function","name":"lastDeposit","inputs":[{"name":"","type":"address","internalType":"address"}],"outputs":[{"name":"","type":"uint256","internalType":"uint256"}],"stateMutability":"pure"},{"type":"function","name":"lastRedeem","inputs":[{"name":"","type":"address","internalType":"address"}],"outputs":[{"name":"","type":"uint256","internalType":"uint256"}],"stateMutability":"pure"},{"type":"function","name":"name","inputs":[],"outputs":[{"name":"","type":"string","internalType":"string"}],"stateMutability":"view"},{"type":"function","name":"nonces","inputs":[{"name":"owner","type":"address","internalType":"address"}],"outputs":[{"name":"result","type":"uint256","internalType":"uint256"}],"stateMutability":"view"},{"type":"function","name":"pendingDepositRequest","inputs":[{"name":"controller","type":"address","internalType":"address"}],"outputs":[{"name":"","type":"uint256","internalType":"uint256"}],"stateMutability":"view"},{"type":"function","name":"pendingProcessedShares","inputs":[{"name":"","type":"address","internalType":"address"}],"outputs":[{"name":"","type":"uint256","internalType":"uint256"}],"stateMutability":"pure"},{"type":"function","name":"pendingRedeemRequest","inputs":[{"name":"controller","type":"address","internalType":"address"}],"outputs":[{"name":"","type":"uint256","internalType":"uint256"}],"stateMutability":"view"},{"type":"function","name":"permit","inputs":[{"name":"owner","type":"address","internalType":"address"},{"name":"spender","type":"address","internalType":"address"},{"name":"value","type":"uint256","internalType":"uint256"},{"name":"deadline","type":"uint256","internalType":"uint256"},{"name":"v","type":"uint8","internalType":"uint8"},{"name":"r","type":"bytes32","internalType":"bytes32"},{"name":"s","type":"bytes32","internalType":"bytes32"}],"outputs":[],"stateMutability":"nonpayable"},{"type":"function","name":"redeem","inputs":[{"name":"shares","type":"uint256","internalType":"uint256"},{"name":"receiver","type":"address","internalType":"address"},{"name":"controller","type":"address","internalType":"address"}],"outputs":[{"name":"assets","type":"uint256","internalType":"uint256"}],"stateMutability":"nonpayable"},{"type":"function","name":"requestDeposit","inputs":[{"name":"assets","type":"uint256","internalType":"uint256"},{"name":"controller","type":"address","internalType":"address"},{"name":"owner","type":"address","internalType":"address"}],"outputs":[{"name":"requestId","type":"uint256","internalType":"uint256"}],"stateMutability":"nonpayable"},{"type":"function","name":"requestRedeem","inputs":[{"name":"shares","type":"uint256","internalType":"uint256"},{"name":"controller","type":"address","internalType":"address"},{"name":"owner","type":"address","internalType":"address"}],"outputs":[{"name":"requestId","type":"uint256","internalType":"uint256"}],"stateMutability":"nonpayable"},{"type":"function","name":"setOperator","inputs":[{"name":"operator","type":"address","internalType":"address"},{"name":"approved","type":"bool","internalType":"bool"}],"outputs":[],"stateMutability":"nonpayable"},{"type":"function","name":"symbol","inputs":[],"outputs":[{"name":"","type":"string","internalType":"string"}],"stateMutability":"view"},{"type":"function","name":"totalAssets","inputs":[],"outputs":[{"name":"","type":"uint256","internalType":"uint256"}],"stateMutability":"view"},{"type":"function","name":"totalSupply","inputs":[],"outputs":[{"name":"","type":"uint256","internalType":"uint256"}],"stateMutability":"view"},{"type":"function","name":"transfer","inputs":[{"name":"to","type":"address","internalType":"address"},{"name":"amount","type":"uint256","internalType":"uint256"}],"outputs":[{"name":"","type":"bool","internalType":"bool"}],"stateMutability":"nonpayable"},{"type":"function","name":"transferFrom","inputs":[{"name":"owner","type":"address","internalType":"address"},{"name":"spender","type":"address","internalType":"address"},{"name":"amount","type":"uint256","internalType":"uint256"}],"outputs":[{"name":"","type":"bool","internalType":"bool"}],"stateMutability":"nonpayable"},{"type":"function","name":"withdraw","inputs":[{"name":"assets","type":"uint256","internalType":"uint256"},{"name":"receiver","type":"address","internalType":"address"},{"name":"controller","type":"address","internalType":"address"}],"outputs":[{"name":"shares","type":"uint256","internalType":"uint256"}],"stateMutability":"nonpayable"},{"type":"event","name":"Approval","inputs":[{"name":"owner","type":"address","indexed":true,"internalType":"address"},{"name":"spender","type":"address","indexed":true,"internalType":"address"},{"name":"amount","type":"uint256","indexed":false,"internalType":"uint256"}],"anonymous":false},{"type":"event","name":"Transfer","inputs":[{"name":"from","type":"address","indexed":true,"internalType":"address"},{"name":"to","type":"address","indexed":true,"internalType":"address"},{"name":"amount","type":"uint256","indexed":false,"internalType":"uint256"}],"anonymous":false},{"type":"error","name":"AllowanceOverflow","inputs":[]},{"type":"error","name":"AllowanceUnderflow","inputs":[]},{"type":"error","name":"InsufficientAllowance","inputs":[]},{"type":"error","name":"InsufficientBalance","inputs":[]},{"type":"error","name":"InvalidPermit","inputs":[]},{"type":"error","name":"Permit2AllowanceIsFixedAtInfinity","inputs":[]},{"type":"error","name":"PermitExpired","inputs":[]},{"type":"error","name":"TotalSupplyOverflow","inputs":[]}],"bytecode":{"object":"0x60a060405234610362576118528038038061001981610366565b9283398101906080818303126103625780516001600160a01b03811681036103625760208201516001600160401b038111610362578361005a91840161038b565b60408301519093906001600160401b0381116103625760609161007e91850161038b565b9201519060ff82168092036103625760805282516001600160401b038111610276575f54600181811c91168015610358575b602082101461025857601f81116102f6575b506020601f821160011461029557819293945f9261028a575b50508160011b915f199060031b1c1916175f555b81516001600160401b03811161027657600154600181811c9116801561026c575b602082101461025857601f81116101f5575b50602092601f821160011461019457928192935f92610189575b50508160011b915f199060031b1c1916176001555b60ff19600254161760025560405161147590816103dd823960805181818161045d0152818161078101528181610b960152610e970152f35b015190505f8061013c565b601f1982169360015f52805f20915f5b8681106101dd57508360019596106101c5575b505050811b01600155610151565b01515f1960f88460031b161c191690555f80806101b7565b919260206001819286850151815501940192016101a4565b60015f527fb10e2d527612073b26eecdfd717e6a320cf44b4afac2b0732d9fcbe2b7fa0cf6601f830160051c8101916020841061024e575b601f0160051c01905b8181106102435750610122565b5f8155600101610236565b909150819061022d565b634e487b7160e01b5f52602260045260245ffd5b90607f1690610110565b634e487b7160e01b5f52604160045260245ffd5b015190505f806100db565b601f198216905f8052805f20915f5b8181106102de575095836001959697106102c6575b505050811b015f556100ef565b01515f1960f88460031b161c191690555f80806102b9565b9192602060018192868b0151815501940192016102a4565b5f80527f290decd9548b62a8d60345a988386fc84ba6bc95484008f6362f93160ef3e563601f830160051c8101916020841061034e575b601f0160051c01905b81811061034357506100c2565b5f8155600101610336565b909150819061032d565b90607f16906100b0565b5f80fd5b6040519190601f01601f191682016001600160401b0381118382101761027657604052565b81601f82011215610362578051906001600160401b038211610276576103ba601f8301601f1916602001610366565b928284526020838301011161036257815f9260208093018386015e830101529056fe6080806040526004361015610012575f80fd5b5f3560e01c90816288d3e514610ec85750806301e1d11414610e6657806306fdde0314610e3f57806307a2d13a1461039a578063095ea7b314610da357806318160ddd14610d7e57806323b872dd14610c7b57806329d16ee8146103e45780632e2d298414610c62578063313ce56714610c425780633644e51514610bba57806338d52e0f14610b6a57806353dc1dd314610b25578063558a729714610aa25780636e553f6514610a7a57806370a0823114610a485780637d41c86e146108d15780637ecebe001461089f57806385b77f451461074557806395d89b41146105c8578063a9059cbb14610539578063aff947c4146104f4578063b460af94146103e9578063b6363cf214610481578063ba087652146103e9578063bbc5d53d146103e4578063c0a9444c146103e4578063c37029891461039f578063c6e6f5921461039a578063d505accf146101a85763dd62ed3e14610170575f80fd5b346101a45760406003193601126101a457602061019c61018e610f09565b610196610f2c565b906113d6565b604051908152f35b5f80fd5b346101a45760e06003193601126101a4576101c1610f09565b6101c9610f2c565b604435916064356084359260ff841684036101a45773ffffffffffffffffffffffffffffffffffffffff16938019156e22d473030f116ddee9f6b43ac78ba38618171561038d5761021861100e565b60208151910120908242116103805773ffffffffffffffffffffffffffffffffffffffff60405194169465383775081901600e52855f5260c06020600c20958654957f8b73c3c69bb8fe3d512ecc4cf759cc79239f7b179b0ffacaa9a75d522b39400f8252602082019586528660408301967fc89efdaa54c0f20c7adf612882df0950f5a951637e0307cdcb4c672f298b8bc688528b6060850198468a528c608087019330855260a08820602e527f6e71edae12b1b97f4d1f60370fef10105fa2faae0126114a169c64845d6126c9885252528688525260a082015220604e526042602c205f5260ff1660205260a43560405260c43560605260208060805f60015afa93853d5103610373577f8c5be1e5ebec7d5bd14f71427d1e84f3dd0314c0f7b2291e5b200ac8c7c3b9259460209401905585777f5e9f200000000000000000000000000000000000000000176040526034602c2055a3005b63ddafbaef5f526004601cfd5b631a15a3cc5f526004601cfd5b633f68539a5f526004601cfd5b610f79565b346101a45760206003193601126101a45773ffffffffffffffffffffffffffffffffffffffff6103cd610f09565b165f526003602052602060405f2054604051908152f35b610f96565b346101a457602073ffffffffffffffffffffffffffffffffffffffff61019c61041136610fba565b93829416805f526006865261042c8360405f205410156111da565b805f526006865260405f2061044284825461123f565b90555f526004855260405f2061045983825461123f565b90557f000000000000000000000000000000000000000000000000000000000000000061137c565b346101a45760406003193601126101a45761049a610f09565b73ffffffffffffffffffffffffffffffffffffffff6104b7610f2c565b91165f52600760205273ffffffffffffffffffffffffffffffffffffffff60405f2091165f52602052602060ff60405f2054166040519015158152f35b346101a45760206003193601126101a45773ffffffffffffffffffffffffffffffffffffffff610522610f09565b165f526005602052602060405f2054604051908152f35b346101a45760406003193601126101a457610552610f09565b602435906387a211a2600c52335f526020600c2080548084116105bb5783900390555f526020600c20818154019055602052600c5160601c337fddf252ad1be2c89b69c2b068fc378daa952ba7f163c4a11628f55a4df523b3ef602080a3602060405160018152f35b63f4d678b85f526004601cfd5b346101a4575f6003193601126101a4576040515f600154908160011c6001831692831561073b575b60208210841461070e5781855284939081156106cc5750600114610670575b5003601f01601f191681019067ffffffffffffffff821181831017610643576040829052819061063f9082610f4f565b0390f35b7f4e487b71000000000000000000000000000000000000000000000000000000005f52604160045260245ffd5b60015f90815291507fb10e2d527612073b26eecdfd717e6a320cf44b4afac2b0732d9fcbe2b7fa0cf65b8183106106b05750508101602001601f1961060f565b602091935080600191548385880101520191019091839261069a565b7fffffffffffffffffffffffffffffffffffffffffffffffffffffffffffffff001660208581019190915291151560051b84019091019150601f19905061060f565b7f4e487b71000000000000000000000000000000000000000000000000000000005f52602260045260245ffd5b90607f16906105f0565b346101a45761075336610fba565b9073ffffffffffffffffffffffffffffffffffffffff82163381148015610867575b61077f915061110e565b7f000000000000000000000000000000000000000000000000000000000000000060405192846060523060405260601b602c526f23b872dd000000000000000000000000600c5260205f6064601c82855af1908160015f51141615610849575b505073ffffffffffffffffffffffffffffffffffffffff915f60605260405216805f52600360205260405f20610816838254611173565b90555f52600560205261082e60405f20918254611173565b9055602061083d6008546111ad565b80600855604051908152f35b3b153d17101561085a5783806107df565b637939f4245f526004601cfd5b505f52600760205260405f2073ffffffffffffffffffffffffffffffffffffffff33165f5260205261077f60ff60405f205416610775565b346101a45760206003193601126101a4576108b8610f09565b6338377508600c525f52602080600c2054604051908152f35b346101a4576108df36610fba565b9073ffffffffffffffffffffffffffffffffffffffff8216913383148015610a26575b61090b9061110e565b6387a211a2600c52805f52836020600c2054106109c8576387a211a2600c525f526020600c20918254908185116105bb5773ffffffffffffffffffffffffffffffffffffffff93855f93039055846805345cdf77eb68f44c54036805345cdf77eb68f44c558482527fddf252ad1be2c89b69c2b068fc378daa952ba7f163c4a11628f55a4df523b3ef602083a316805f52600460205260405f206109b0838254611173565b90555f52600660205261082e60405f20918254611173565b60646040517f08c379a000000000000000000000000000000000000000000000000000000000815260206004820152601460248201527f496e73756666696369656e742062616c616e63650000000000000000000000006044820152fd5b505f83815260076020908152604080832033845290915290205460ff16610902565b346101a45760206003193601126101a457610a61610f09565b6387a211a2600c525f52602080600c2054604051908152f35b346101a45760406003193601126101a457602061019c610a98610f2c565b339060043561124c565b346101a45760406003193601126101a457610abb610f09565b602435908115158092036101a457335f52600760205273ffffffffffffffffffffffffffffffffffffffff60405f2091165f5260205260405f209060ff7fffffffffffffffffffffffffffffffffffffffffffffffffffffffffffffff0083541691161790555f80f35b346101a45760206003193601126101a45773ffffffffffffffffffffffffffffffffffffffff610b53610f09565b165f526004602052602060405f2054604051908152f35b346101a4575f6003193601126101a457602060405173ffffffffffffffffffffffffffffffffffffffff7f0000000000000000000000000000000000000000000000000000000000000000168152f35b346101a4575f6003193601126101a457602060a0610bd661100e565b828151910120604051907f8b73c3c69bb8fe3d512ecc4cf759cc79239f7b179b0ffacaa9a75d522b39400f8252838201527fc89efdaa54c0f20c7adf612882df0950f5a951637e0307cdcb4c672f298b8bc6604082015246606082015230608082015220604051908152f35b346101a4575f6003193601126101a457602060ff60025416604051908152f35b346101a457602061019c610c7536610fba565b9161124c565b346101a45760606003193601126101a457610c94610f09565b610c9c610f2c565b604435908260601b6e22d473030f116ddee9f6b43ac78ba33303610d34575b6387a211a217600c526020600c2080548084116105bb5783900390555f526020600c2081815401905560205273ffffffffffffffffffffffffffffffffffffffff600c5160601c91167fddf252ad1be2c89b69c2b068fc378daa952ba7f163c4a11628f55a4df523b3ef602080a3602060405160018152f35b33602052637f5e9f208117600c526034600c20908154918219610d5a575b509050610cbb565b828511610d7157846387a211a29303905585610d52565b6313be252b5f526004601cfd5b346101a4575f6003193601126101a45760206805345cdf77eb68f44c54604051908152f35b346101a45760406003193601126101a457610dbc610f09565b602435908119156e22d473030f116ddee9f6b43ac78ba373ffffffffffffffffffffffffffffffffffffffff831618171561038d57602052637f5e9f20600c52335f52806034600c20555f52602c5160601c337f8c5be1e5ebec7d5bd14f71427d1e84f3dd0314c0f7b2291e5b200ac8c7c3b92560205fa3602060405160018152f35b346101a4575f6003193601126101a45761063f610e5a61100e565b60405191829182610f4f565b346101a4575f6003193601126101a457306014526f70a082310000000000000000000000005f5260208080602460107f00000000000000000000000000000000000000000000000000000000000000005afa601f3d1116815102604051908152f35b346101a45760206003193601126101a45760209073ffffffffffffffffffffffffffffffffffffffff610ef9610f09565b165f526006825260405f20548152f35b6004359073ffffffffffffffffffffffffffffffffffffffff821682036101a457565b6024359073ffffffffffffffffffffffffffffffffffffffff821682036101a457565b601f19601f602060409481855280519182918282880152018686015e5f8582860101520116010190565b346101a45760206003193601126101a45760206040516004358152f35b346101a45760206003193601126101a457610faf610f09565b5060206040515f8152f35b60031960609101126101a4576004359060243573ffffffffffffffffffffffffffffffffffffffff811681036101a4579060443573ffffffffffffffffffffffffffffffffffffffff811681036101a45790565b604051905f5f54908160011c60018316928315611104575b60208210841461070e5781865285939081156110c25750600114611068575b5003601f01601f1916820167ffffffffffffffff81118382101761064357604052565b5f80805291507f290decd9548b62a8d60345a988386fc84ba6bc95484008f6362f93160ef3e5635b8183106110a65750508101602001601f19611045565b6020919350806001915483858901015201910190918492611090565b7fffffffffffffffffffffffffffffffffffffffffffffffffffffffffffffff001660208581019190915291151560051b84019091019150601f199050611045565b90607f1690611026565b1561111557565b60646040517f08c379a000000000000000000000000000000000000000000000000000000000815260206004820152600e60248201527f4e6f7420617574686f72697a65640000000000000000000000000000000000006044820152fd5b9190820180921161118057565b7f4e487b71000000000000000000000000000000000000000000000000000000005f52601160045260245ffd5b7fffffffffffffffffffffffffffffffffffffffffffffffffffffffffffffffff81146111805760010190565b156111e157565b60646040517f08c379a000000000000000000000000000000000000000000000000000000000815260206004820152601d60248201527f496e73756666696369656e7420636c61696d61626c652072656465656d0000006044820152fd5b9190820391821161118057565b90929173ffffffffffffffffffffffffffffffffffffffff16805f5260056020528160405f20541061131e57805f52600560205260405f2061128f83825461123f565b90555f52600360205260405f206112a782825461123f565b905580926805345cdf77eb68f44c54828101908110611311576805345cdf77eb68f44c556387a211a2600c525f526020600c20818154019055602052600c5160601c5f7fddf252ad1be2c89b69c2b068fc378daa952ba7f163c4a11628f55a4df523b3ef602080a3565b63e5cfe9575f526004601cfd5b60646040517f08c379a000000000000000000000000000000000000000000000000000000000815260206004820152601e60248201527f496e73756666696369656e7420636c61696d61626c65206465706f73697400006044820152fd5b91906014526034526fa9059cbb0000000000000000000000005f5260205f6044601082855af1908160015f511416156113b8575b50505f603452565b3b153d1710156113c9575f806113b0565b6390b8ec185f526004601cfd5b906e22d473030f116ddee9f6b43ac78ba373ffffffffffffffffffffffffffffffffffffffff82161461141957602052637f5e9f20600c525f526034600c205490565b50507fffffffffffffffffffffffffffffffffffffffffffffffffffffffffffffffff9056fea2646970667358221220ac15ddda348173d547e2bbe3ab73499321e7fe1815083df11c6a35d0e879242064736f6c634300081e0033","linkReferences":{}},"methodIdentifiers":{"DOMAIN_SEPARATOR()":"3644e515","allowance(address,address)":"dd62ed3e","approve(address,uint256)":"095ea7b3","asset()":"38d52e0f","balanceOf(address)":"70a08231","claimableDepositRequest(address)":"aff947c4","claimableRedeemRequest(address)":"0088d3e5","convertToAssets(uint256)":"07a2d13a","convertToShares(uint256)":"c6e6f592","decimals()":"313ce567","deposit(uint256,address)":"6e553f65","deposit(uint256,address,address)":"2e2d2984","isOperator(address,address)":"b6363cf2","lastDeposit(address)":"29d16ee8","lastRedeem(address)":"c0a9444c","name()":"06fdde03","nonces(address)":"7ecebe00","pendingDepositRequest(address)":"c3702989","pendingProcessedShares(address)":"bbc5d53d","pendingRedeemRequest(address)":"53dc1dd3","permit(address,address,uint256,uint256,uint8,bytes32,bytes32)":"d505accf","redeem(uint256,address,address)":"ba087652","requestDeposit(uint256,address,address)":"85b77f45","requestRedeem(uint256,address,address)":"7d41c86e","setOperator(address,bool)":"558a7297","symbol()":"95d89b41","totalAssets()":"01e1d114","totalSupply()":"18160ddd","transfer(address,uint256)":"a9059cbb","transferFrom(address,address,uint256)":"23b872dd","withdraw(uint256,address,address)":"b460af94"},"storageLayout":{"storage":[{"astId":67426,"contract":"test/mocks/MockERC7540.sol:MockERC7540","label":"_name","offset":0,"slot":"0","type":"t_string_storage"},{"astId":67428,"contract":"test/mocks/MockERC7540.sol:MockERC7540","label":"_symbol","offset":0,"slot":"1","type":"t_string_storage"},{"astId":67430,"contract":"test/mocks/MockERC7540.sol:MockERC7540","label":"_decimals","offset":0,"slot":"2","type":"t_uint8"},{"astId":67434,"contract":"test/mocks/MockERC7540.sol:MockERC7540","label":"_pendingDepositRequests","offset":0,"slot":"3","type":"t_mapping(t_address,t_uint256)"},{"astId":67438,"contract":"test/mocks/MockERC7540.sol:MockERC7540","label":"_pendingRedeemRequests","offset":0,"slot":"4","type":"t_mapping(t_address,t_uint256)"},{"astId":67442,"contract":"test/mocks/MockERC7540.sol:MockERC7540","label":"_claimableDepositRequests","offset":0,"slot":"5","type":"t_mapping(t_address,t_uint256)"},{"astId":67446,"contract":"test/mocks/MockERC7540.sol:MockERC7540","label":"_claimableRedeemRequests","offset":0,"slot":"6","type":"t_mapping(t_address,t_uint256)"},{"astId":67452,"contract":"test/mocks/MockERC7540.sol:MockERC7540","label":"_operators","offset":0,"slot":"7","type":"t_mapping(t_address,t_mapping(t_address,t_bool))"},{"astId":67454,"contract":"test/mocks/MockERC7540.sol:MockERC7540","label":"_requestCounter","offset":0,"slot":"8","type":"t_uint256"}],"types":{"t_address":{"encoding":"inplace","label":"address","numberOfBytes":"20"},"t_bool":{"encoding":"inplace","label":"bool","numberOfBytes":"1"},"t_mapping(t_address,t_bool)":{"encoding":"mapping","key":"t_address","label":"mapping(address => bool)","numberOfBytes":"32","value":"t_bool"},"t_mapping(t_address,t_mapping(t_address,t_bool))":{"encoding":"mapping","key":"t_address","label":"mapping(address => mapping(address => bool))","numberOfBytes":"32","value":"t_mapping(t_address,t_bool)"},"t_mapping(t_address,t_uint256)":{"encoding":"mapping","key":"t_address","label":"mapping(address => uint256)","numberOfBytes":"32","value":"t_uint256"},"t_string_storage":{"encoding":"bytes","label":"string","numberOfBytes":"32"},"t_uint256":{"encoding":"inplace","label":"uint256","numberOfBytes":"32"},"t_uint8":{"encoding":"inplace","label":"uint8","numberOfBytes":"1"}}},"id":94}